ARM GAS  C:\Users\SUZUKI~1\AppData\Local\Temp\ccMSp3Eg.s 			page 1


   1              		.syntax unified
   2              		.cpu cortex-m3
   3              		.fpu softvfp
   4              		.eabi_attribute 20, 1
   5              		.eabi_attribute 21, 1
   6              		.eabi_attribute 23, 3
   7              		.eabi_attribute 24, 1
   8              		.eabi_attribute 25, 1
   9              		.eabi_attribute 26, 1
  10              		.eabi_attribute 30, 4
  11              		.eabi_attribute 18, 4
  12              		.thumb
  13              		.file	"btmodule_1_rxfifo_softwarefifo.c"
  14              		.section	.debug_abbrev,"",%progbits
  15              	.Ldebug_abbrev0:
  16              		.section	.debug_info,"",%progbits
  17              	.Ldebug_info0:
  18              		.section	.debug_line,"",%progbits
  19              	.Ldebug_line0:
  20 0000 39010000 		.text
  20      02008400 
  20      00000201 
  20      FB0E0D00 
  20      01010101 
  21              	.Ltext0:
  22              		.cfi_sections	.debug_frame
  23              		.section	.text.btmodule_1_rxfifo_Stop,"ax",%progbits
  24              		.align	1
  25              		.global	btmodule_1_rxfifo_Stop
  26              		.thumb
  27              		.thumb_func
  28              		.type	btmodule_1_rxfifo_Stop, %function
  29              	btmodule_1_rxfifo_Stop:
  30              	.LFB30:
  31              		.file 1 ".\\Generated_Source\\PSoC5\\btmodule_1_rxfifo_softwarefifo.c"
   1:.\Generated_Source\PSoC5/btmodule_1_rxfifo_softwarefifo.c **** /* ========================================
   2:.\Generated_Source\PSoC5/btmodule_1_rxfifo_softwarefifo.c ****  *
   3:.\Generated_Source\PSoC5/btmodule_1_rxfifo_softwarefifo.c ****  * Copyright YOUR COMPANY, THE YEAR
   4:.\Generated_Source\PSoC5/btmodule_1_rxfifo_softwarefifo.c ****  * All Rights Reserved
   5:.\Generated_Source\PSoC5/btmodule_1_rxfifo_softwarefifo.c ****  * UNPUBLISHED, LICENSED SOFTWARE.
   6:.\Generated_Source\PSoC5/btmodule_1_rxfifo_softwarefifo.c ****  *
   7:.\Generated_Source\PSoC5/btmodule_1_rxfifo_softwarefifo.c ****  * CONFIDENTIAL AND PROPRIETARY INFORMATION
   8:.\Generated_Source\PSoC5/btmodule_1_rxfifo_softwarefifo.c ****  * WHICH IS THE PROPERTY OF your company.
   9:.\Generated_Source\PSoC5/btmodule_1_rxfifo_softwarefifo.c ****  *
  10:.\Generated_Source\PSoC5/btmodule_1_rxfifo_softwarefifo.c ****  * ========================================
  11:.\Generated_Source\PSoC5/btmodule_1_rxfifo_softwarefifo.c **** */
  12:.\Generated_Source\PSoC5/btmodule_1_rxfifo_softwarefifo.c **** 
  13:.\Generated_Source\PSoC5/btmodule_1_rxfifo_softwarefifo.c **** /* ========================================
  14:.\Generated_Source\PSoC5/btmodule_1_rxfifo_softwarefifo.c ****  *
  15:.\Generated_Source\PSoC5/btmodule_1_rxfifo_softwarefifo.c ****  * Copyright YOUR COMPANY, THE YEAR
  16:.\Generated_Source\PSoC5/btmodule_1_rxfifo_softwarefifo.c ****  * All Rights Reserved
  17:.\Generated_Source\PSoC5/btmodule_1_rxfifo_softwarefifo.c ****  * UNPUBLISHED, LICENSED SOFTWARE.
  18:.\Generated_Source\PSoC5/btmodule_1_rxfifo_softwarefifo.c ****  *
  19:.\Generated_Source\PSoC5/btmodule_1_rxfifo_softwarefifo.c ****  * CONFIDENTIAL AND PROPRIETARY INFORMATION
  20:.\Generated_Source\PSoC5/btmodule_1_rxfifo_softwarefifo.c ****  * WHICH IS THE PROPERTY OF your company.
  21:.\Generated_Source\PSoC5/btmodule_1_rxfifo_softwarefifo.c ****  *
  22:.\Generated_Source\PSoC5/btmodule_1_rxfifo_softwarefifo.c ****  * ========================================
ARM GAS  C:\Users\SUZUKI~1\AppData\Local\Temp\ccMSp3Eg.s 			page 2


  23:.\Generated_Source\PSoC5/btmodule_1_rxfifo_softwarefifo.c **** */
  24:.\Generated_Source\PSoC5/btmodule_1_rxfifo_softwarefifo.c **** 
  25:.\Generated_Source\PSoC5/btmodule_1_rxfifo_softwarefifo.c **** #include "device.h"
  26:.\Generated_Source\PSoC5/btmodule_1_rxfifo_softwarefifo.c **** 
  27:.\Generated_Source\PSoC5/btmodule_1_rxfifo_softwarefifo.c **** static char btmodule_1_rxfifo_fifo[btmodule_1_rxfifo_FIFO_SIZE];
  28:.\Generated_Source\PSoC5/btmodule_1_rxfifo_softwarefifo.c **** static int32 btmodule_1_rxfifo_rptr = 0, btmodule_1_rxfifo_wptr = 0;
  29:.\Generated_Source\PSoC5/btmodule_1_rxfifo_softwarefifo.c **** 
  30:.\Generated_Source\PSoC5/btmodule_1_rxfifo_softwarefifo.c **** void btmodule_1_rxfifo_Start(void)
  31:.\Generated_Source\PSoC5/btmodule_1_rxfifo_softwarefifo.c **** {
  32:.\Generated_Source\PSoC5/btmodule_1_rxfifo_softwarefifo.c **** 	btmodule_1_rxfifo_Clear(1);
  33:.\Generated_Source\PSoC5/btmodule_1_rxfifo_softwarefifo.c **** 	return;
  34:.\Generated_Source\PSoC5/btmodule_1_rxfifo_softwarefifo.c **** }
  35:.\Generated_Source\PSoC5/btmodule_1_rxfifo_softwarefifo.c **** 
  36:.\Generated_Source\PSoC5/btmodule_1_rxfifo_softwarefifo.c **** void btmodule_1_rxfifo_Stop(void)
  37:.\Generated_Source\PSoC5/btmodule_1_rxfifo_softwarefifo.c **** {
  32              		.loc 1 37 0
  33              		.cfi_startproc
  34              		@ args = 0, pretend = 0, frame = 0
  35              		@ frame_needed = 0, uses_anonymous_args = 0
  36              		@ link register save eliminated.
  38:.\Generated_Source\PSoC5/btmodule_1_rxfifo_softwarefifo.c **** 	/* nothing to do */
  39:.\Generated_Source\PSoC5/btmodule_1_rxfifo_softwarefifo.c **** 	return;
  40:.\Generated_Source\PSoC5/btmodule_1_rxfifo_softwarefifo.c **** }
  37              		.loc 1 40 0
  38 0000 7047     		bx	lr
  39              		.cfi_endproc
  40              	.LFE30:
  41              		.size	btmodule_1_rxfifo_Stop, .-btmodule_1_rxfifo_Stop
  42              		.section	.text.btmodule_1_rxfifo_PopChar,"ax",%progbits
  43              		.align	1
  44              		.global	btmodule_1_rxfifo_PopChar
  45              		.thumb
  46              		.thumb_func
  47              		.type	btmodule_1_rxfifo_PopChar, %function
  48              	btmodule_1_rxfifo_PopChar:
  49              	.LFB31:
  41:.\Generated_Source\PSoC5/btmodule_1_rxfifo_softwarefifo.c **** 
  42:.\Generated_Source\PSoC5/btmodule_1_rxfifo_softwarefifo.c **** inline char btmodule_1_rxfifo_PopChar(void)
  43:.\Generated_Source\PSoC5/btmodule_1_rxfifo_softwarefifo.c **** {
  50              		.loc 1 43 0
  51              		.cfi_startproc
  52              		@ args = 0, pretend = 0, frame = 0
  53              		@ frame_needed = 0, uses_anonymous_args = 0
  54              		@ link register save eliminated.
  44:.\Generated_Source\PSoC5/btmodule_1_rxfifo_softwarefifo.c **** 	register char c;
  45:.\Generated_Source\PSoC5/btmodule_1_rxfifo_softwarefifo.c **** 	c = btmodule_1_rxfifo_fifo[btmodule_1_rxfifo_rptr];
  55              		.loc 1 45 0
  56 0000 044B     		ldr	r3, .L5
  57 0002 1A68     		ldr	r2, [r3, #0]
  58 0004 D118     		adds	r1, r2, r3
  46:.\Generated_Source\PSoC5/btmodule_1_rxfifo_softwarefifo.c **** 	btmodule_1_rxfifo_rptr = (btmodule_1_rxfifo_rptr+1) & (btmodule_1_rxfifo_FIFO_SIZE-1);
  59              		.loc 1 46 0
  60 0006 0132     		adds	r2, r2, #1
  61 0008 9205     		lsls	r2, r2, #22
  62 000a 920D     		lsrs	r2, r2, #22
  63              		.loc 1 45 0
  64 000c 0879     		ldrb	r0, [r1, #4]	@ zero_extendqisi2
ARM GAS  C:\Users\SUZUKI~1\AppData\Local\Temp\ccMSp3Eg.s 			page 3


  65              	.LVL0:
  66              		.loc 1 46 0
  67 000e 1A60     		str	r2, [r3, #0]
  68              	.LVL1:
  47:.\Generated_Source\PSoC5/btmodule_1_rxfifo_softwarefifo.c **** 	return c;
  48:.\Generated_Source\PSoC5/btmodule_1_rxfifo_softwarefifo.c **** }
  69              		.loc 1 48 0
  70 0010 7047     		bx	lr
  71              	.L6:
  72 0012 00BF     		.align	2
  73              	.L5:
  74 0014 00000000 		.word	.LANCHOR0
  75              		.cfi_endproc
  76              	.LFE31:
  77              		.size	btmodule_1_rxfifo_PopChar, .-btmodule_1_rxfifo_PopChar
  78              		.section	.text.btmodule_1_rxfifo_PushChar,"ax",%progbits
  79              		.align	1
  80              		.global	btmodule_1_rxfifo_PushChar
  81              		.thumb
  82              		.thumb_func
  83              		.type	btmodule_1_rxfifo_PushChar, %function
  84              	btmodule_1_rxfifo_PushChar:
  85              	.LFB33:
  49:.\Generated_Source\PSoC5/btmodule_1_rxfifo_softwarefifo.c **** 
  50:.\Generated_Source\PSoC5/btmodule_1_rxfifo_softwarefifo.c **** /* 境界をまたぐとうまく動かない実装!!!!! */
  51:.\Generated_Source\PSoC5/btmodule_1_rxfifo_softwarefifo.c **** inline char* btmodule_1_rxfifo_PopString(void)
  52:.\Generated_Source\PSoC5/btmodule_1_rxfifo_softwarefifo.c **** {
  53:.\Generated_Source\PSoC5/btmodule_1_rxfifo_softwarefifo.c **** 	char *ptr = &btmodule_1_rxfifo_fifo[btmodule_1_rxfifo_rptr];
  54:.\Generated_Source\PSoC5/btmodule_1_rxfifo_softwarefifo.c **** 	btmodule_1_rxfifo_PushChar('\0');
  55:.\Generated_Source\PSoC5/btmodule_1_rxfifo_softwarefifo.c **** 	btmodule_1_rxfifo_rptr = btmodule_1_rxfifo_wptr;
  56:.\Generated_Source\PSoC5/btmodule_1_rxfifo_softwarefifo.c **** 	return(ptr);
  57:.\Generated_Source\PSoC5/btmodule_1_rxfifo_softwarefifo.c **** }
  58:.\Generated_Source\PSoC5/btmodule_1_rxfifo_softwarefifo.c **** 
  59:.\Generated_Source\PSoC5/btmodule_1_rxfifo_softwarefifo.c **** inline void btmodule_1_rxfifo_PushChar(char c)
  60:.\Generated_Source\PSoC5/btmodule_1_rxfifo_softwarefifo.c **** {
  86              		.loc 1 60 0
  87              		.cfi_startproc
  88              		@ args = 0, pretend = 0, frame = 0
  89              		@ frame_needed = 0, uses_anonymous_args = 0
  90              		@ link register save eliminated.
  91              	.LVL2:
  61:.\Generated_Source\PSoC5/btmodule_1_rxfifo_softwarefifo.c **** 	btmodule_1_rxfifo_fifo[btmodule_1_rxfifo_wptr] = c;
  92              		.loc 1 61 0
  93 0000 054B     		ldr	r3, .L9
  94 0002 D3F80424 		ldr	r2, [r3, #1028]
  95 0006 D118     		adds	r1, r2, r3
  62:.\Generated_Source\PSoC5/btmodule_1_rxfifo_softwarefifo.c **** 	btmodule_1_rxfifo_wptr = (btmodule_1_rxfifo_wptr+1) & (btmodule_1_rxfifo_FIFO_SIZE-1);
  96              		.loc 1 62 0
  97 0008 0132     		adds	r2, r2, #1
  98 000a 9205     		lsls	r2, r2, #22
  99 000c 920D     		lsrs	r2, r2, #22
 100              		.loc 1 61 0
 101 000e 0871     		strb	r0, [r1, #4]
 102              		.loc 1 62 0
 103 0010 C3F80424 		str	r2, [r3, #1028]
  63:.\Generated_Source\PSoC5/btmodule_1_rxfifo_softwarefifo.c **** 	return;
  64:.\Generated_Source\PSoC5/btmodule_1_rxfifo_softwarefifo.c **** }
ARM GAS  C:\Users\SUZUKI~1\AppData\Local\Temp\ccMSp3Eg.s 			page 4


 104              		.loc 1 64 0
 105 0014 7047     		bx	lr
 106              	.L10:
 107 0016 00BF     		.align	2
 108              	.L9:
 109 0018 00000000 		.word	.LANCHOR0
 110              		.cfi_endproc
 111              	.LFE33:
 112              		.size	btmodule_1_rxfifo_PushChar, .-btmodule_1_rxfifo_PushChar
 113              		.section	.text.btmodule_1_rxfifo_PopString,"ax",%progbits
 114              		.align	1
 115              		.global	btmodule_1_rxfifo_PopString
 116              		.thumb
 117              		.thumb_func
 118              		.type	btmodule_1_rxfifo_PopString, %function
 119              	btmodule_1_rxfifo_PopString:
 120              	.LFB32:
 121              		.loc 1 52 0
 122              		.cfi_startproc
 123              		@ args = 0, pretend = 0, frame = 0
 124              		@ frame_needed = 0, uses_anonymous_args = 0
 125 0000 38B5     		push	{r3, r4, r5, lr}
 126              	.LCFI0:
 127              		.cfi_def_cfa_offset 16
 128              		.loc 1 53 0
 129 0002 064C     		ldr	r4, .L13
 130              		.cfi_offset 14, -4
 131              		.cfi_offset 5, -8
 132              		.cfi_offset 4, -12
 133              		.cfi_offset 3, -16
 134              		.loc 1 54 0
 135 0004 0020     		movs	r0, #0
 136              		.loc 1 53 0
 137 0006 2368     		ldr	r3, [r4, #0]
 138 0008 251D     		adds	r5, r4, #4
 139 000a ED18     		adds	r5, r5, r3
 140              	.LVL3:
 141              		.loc 1 54 0
 142 000c FFF7FEFF 		bl	btmodule_1_rxfifo_PushChar
 143              		.loc 1 55 0
 144 0010 D4F80434 		ldr	r3, [r4, #1028]
 145              		.loc 1 57 0
 146 0014 2846     		mov	r0, r5
 147              		.loc 1 55 0
 148 0016 2360     		str	r3, [r4, #0]
 149              		.loc 1 57 0
 150 0018 38BD     		pop	{r3, r4, r5, pc}
 151              	.L14:
 152 001a 00BF     		.align	2
 153              	.L13:
 154 001c 00000000 		.word	.LANCHOR0
 155              		.cfi_endproc
 156              	.LFE32:
 157              		.size	btmodule_1_rxfifo_PopString, .-btmodule_1_rxfifo_PopString
 158              		.section	.text.btmodule_1_rxfifo_PushString,"ax",%progbits
 159              		.align	1
 160              		.global	btmodule_1_rxfifo_PushString
ARM GAS  C:\Users\SUZUKI~1\AppData\Local\Temp\ccMSp3Eg.s 			page 5


 161              		.thumb
 162              		.thumb_func
 163              		.type	btmodule_1_rxfifo_PushString, %function
 164              	btmodule_1_rxfifo_PushString:
 165              	.LFB34:
  65:.\Generated_Source\PSoC5/btmodule_1_rxfifo_softwarefifo.c **** 
  66:.\Generated_Source\PSoC5/btmodule_1_rxfifo_softwarefifo.c **** inline void btmodule_1_rxfifo_PushString(char *str)
  67:.\Generated_Source\PSoC5/btmodule_1_rxfifo_softwarefifo.c **** {
 166              		.loc 1 67 0
 167              		.cfi_startproc
 168              		@ args = 0, pretend = 0, frame = 0
 169              		@ frame_needed = 0, uses_anonymous_args = 0
 170              	.LVL4:
 171 0000 38B5     		push	{r3, r4, r5, lr}
 172              	.LCFI1:
 173              		.cfi_def_cfa_offset 16
 174              		.loc 1 67 0
 175 0002 0546     		mov	r5, r0
 176              		.cfi_offset 14, -4
 177              		.cfi_offset 5, -8
 178              		.cfi_offset 4, -12
 179              		.cfi_offset 3, -16
 180 0004 0024     		movs	r4, #0
  68:.\Generated_Source\PSoC5/btmodule_1_rxfifo_softwarefifo.c **** 	char c;
  69:.\Generated_Source\PSoC5/btmodule_1_rxfifo_softwarefifo.c **** 	while((c = *str++)) {
 181              		.loc 1 69 0
 182 0006 01E0     		b	.L16
 183              	.LVL5:
 184              	.L17:
  70:.\Generated_Source\PSoC5/btmodule_1_rxfifo_softwarefifo.c **** 		btmodule_1_rxfifo_PushChar(c);
 185              		.loc 1 70 0
 186 0008 FFF7FEFF 		bl	btmodule_1_rxfifo_PushChar
 187              	.LVL6:
 188              	.L16:
 189              		.loc 1 69 0
 190 000c 285D     		ldrb	r0, [r5, r4]	@ zero_extendqisi2
 191              	.LVL7:
 192 000e 0134     		adds	r4, r4, #1
 193 0010 0028     		cmp	r0, #0
 194 0012 F9D1     		bne	.L17
  71:.\Generated_Source\PSoC5/btmodule_1_rxfifo_softwarefifo.c **** 	}
  72:.\Generated_Source\PSoC5/btmodule_1_rxfifo_softwarefifo.c **** 	return;
  73:.\Generated_Source\PSoC5/btmodule_1_rxfifo_softwarefifo.c **** }
 195              		.loc 1 73 0
 196 0014 38BD     		pop	{r3, r4, r5, pc}
 197              		.cfi_endproc
 198              	.LFE34:
 199              		.size	btmodule_1_rxfifo_PushString, .-btmodule_1_rxfifo_PushString
 200              		.section	.text.btmodule_1_rxfifo_GetContentSize,"ax",%progbits
 201              		.align	1
 202              		.global	btmodule_1_rxfifo_GetContentSize
 203              		.thumb
 204              		.thumb_func
 205              		.type	btmodule_1_rxfifo_GetContentSize, %function
 206              	btmodule_1_rxfifo_GetContentSize:
 207              	.LFB35:
  74:.\Generated_Source\PSoC5/btmodule_1_rxfifo_softwarefifo.c **** 
ARM GAS  C:\Users\SUZUKI~1\AppData\Local\Temp\ccMSp3Eg.s 			page 6


  75:.\Generated_Source\PSoC5/btmodule_1_rxfifo_softwarefifo.c **** inline uint16 btmodule_1_rxfifo_GetContentSize(void)
  76:.\Generated_Source\PSoC5/btmodule_1_rxfifo_softwarefifo.c **** {
 208              		.loc 1 76 0
 209              		.cfi_startproc
 210              		@ args = 0, pretend = 0, frame = 0
 211              		@ frame_needed = 0, uses_anonymous_args = 0
 212              		@ link register save eliminated.
 213              		.loc 1 76 0
 214 0000 084B     		ldr	r3, .L23
 215 0002 0948     		ldr	r0, .L23+4
 216 0004 D3F80424 		ldr	r2, [r3, #1028]
 217 0008 1B68     		ldr	r3, [r3, #0]
 218 000a D31A     		subs	r3, r2, r3
 219 000c 03EA0000 		and	r0, r3, r0
 220 0010 0028     		cmp	r0, #0
 221 0012 05DA     		bge	.L21
 222 0014 0138     		subs	r0, r0, #1
 223 0016 6FEA8050 		mvn	r0, r0, lsl #22
 224 001a 6FEA9050 		mvn	r0, r0, lsr #22
 225 001e 0130     		adds	r0, r0, #1
 226              	.L21:
  77:.\Generated_Source\PSoC5/btmodule_1_rxfifo_softwarefifo.c **** 	return((btmodule_1_rxfifo_wptr - btmodule_1_rxfifo_rptr) % btmodule_1_rxfifo_FIFO_SIZE);
  78:.\Generated_Source\PSoC5/btmodule_1_rxfifo_softwarefifo.c **** }
 227              		.loc 1 78 0
 228 0020 80B2     		uxth	r0, r0
 229 0022 7047     		bx	lr
 230              	.L24:
 231              		.align	2
 232              	.L23:
 233 0024 00000000 		.word	.LANCHOR0
 234 0028 FF030080 		.word	-2147482625
 235              		.cfi_endproc
 236              	.LFE35:
 237              		.size	btmodule_1_rxfifo_GetContentSize, .-btmodule_1_rxfifo_GetContentSize
 238              		.section	.text.btmodule_1_rxfifo_GetVacancySize,"ax",%progbits
 239              		.align	1
 240              		.global	btmodule_1_rxfifo_GetVacancySize
 241              		.thumb
 242              		.thumb_func
 243              		.type	btmodule_1_rxfifo_GetVacancySize, %function
 244              	btmodule_1_rxfifo_GetVacancySize:
 245              	.LFB36:
  79:.\Generated_Source\PSoC5/btmodule_1_rxfifo_softwarefifo.c **** 
  80:.\Generated_Source\PSoC5/btmodule_1_rxfifo_softwarefifo.c **** inline uint16 btmodule_1_rxfifo_GetVacancySize(void)
  81:.\Generated_Source\PSoC5/btmodule_1_rxfifo_softwarefifo.c **** {
 246              		.loc 1 81 0
 247              		.cfi_startproc
 248              		@ args = 0, pretend = 0, frame = 0
 249              		@ frame_needed = 0, uses_anonymous_args = 0
 250              		@ link register save eliminated.
  82:.\Generated_Source\PSoC5/btmodule_1_rxfifo_softwarefifo.c **** 	int32 offset;
  83:.\Generated_Source\PSoC5/btmodule_1_rxfifo_softwarefifo.c **** 	offset = (btmodule_1_rxfifo_wptr >= btmodule_1_rxfifo_rptr) ? btmodule_1_rxfifo_FIFO_SIZE : 0;
 251              		.loc 1 83 0
 252 0000 064A     		ldr	r2, .L29
 253 0002 D2F80434 		ldr	r3, [r2, #1028]
 254 0006 1268     		ldr	r2, [r2, #0]
 255 0008 9342     		cmp	r3, r2
ARM GAS  C:\Users\SUZUKI~1\AppData\Local\Temp\ccMSp3Eg.s 			page 7


 256 000a ACBF     		ite	ge
 257 000c 4FF48061 		movge	r1, #1024
 258 0010 0021     		movlt	r1, #0
 259              	.LVL8:
 260 0012 D31A     		subs	r3, r2, r3
 261 0014 5818     		adds	r0, r3, r1
  84:.\Generated_Source\PSoC5/btmodule_1_rxfifo_softwarefifo.c **** 	return(btmodule_1_rxfifo_rptr + offset - btmodule_1_rxfifo_wptr);
  85:.\Generated_Source\PSoC5/btmodule_1_rxfifo_softwarefifo.c **** }
 262              		.loc 1 85 0
 263 0016 80B2     		uxth	r0, r0
 264 0018 7047     		bx	lr
 265              	.L30:
 266 001a 00BF     		.align	2
 267              	.L29:
 268 001c 00000000 		.word	.LANCHOR0
 269              		.cfi_endproc
 270              	.LFE36:
 271              		.size	btmodule_1_rxfifo_GetVacancySize, .-btmodule_1_rxfifo_GetVacancySize
 272              		.section	.text.btmodule_1_rxfifo_Clear,"ax",%progbits
 273              		.align	1
 274              		.global	btmodule_1_rxfifo_Clear
 275              		.thumb
 276              		.thumb_func
 277              		.type	btmodule_1_rxfifo_Clear, %function
 278              	btmodule_1_rxfifo_Clear:
 279              	.LFB37:
  86:.\Generated_Source\PSoC5/btmodule_1_rxfifo_softwarefifo.c **** 
  87:.\Generated_Source\PSoC5/btmodule_1_rxfifo_softwarefifo.c **** inline void btmodule_1_rxfifo_Clear(char bufc)
  88:.\Generated_Source\PSoC5/btmodule_1_rxfifo_softwarefifo.c **** {
 280              		.loc 1 88 0
 281              		.cfi_startproc
 282              		@ args = 0, pretend = 0, frame = 0
 283              		@ frame_needed = 0, uses_anonymous_args = 0
 284              		@ link register save eliminated.
 285              	.LVL9:
  89:.\Generated_Source\PSoC5/btmodule_1_rxfifo_softwarefifo.c **** 	int i;
  90:.\Generated_Source\PSoC5/btmodule_1_rxfifo_softwarefifo.c **** 	btmodule_1_rxfifo_rptr = 0;
 286              		.loc 1 90 0
 287 0000 064A     		ldr	r2, .L35
 288 0002 0023     		movs	r3, #0
 289 0004 1360     		str	r3, [r2, #0]
  91:.\Generated_Source\PSoC5/btmodule_1_rxfifo_softwarefifo.c **** 	btmodule_1_rxfifo_wptr = 0;
 290              		.loc 1 91 0
 291 0006 C2F80434 		str	r3, [r2, #1028]
  92:.\Generated_Source\PSoC5/btmodule_1_rxfifo_softwarefifo.c **** 	if(bufc) {
 292              		.loc 1 92 0
 293 000a 30B1     		cbz	r0, .L34
 294              	.L33:
  93:.\Generated_Source\PSoC5/btmodule_1_rxfifo_softwarefifo.c **** 		for(i = 0; i < btmodule_1_rxfifo_FIFO_SIZE; i++) {
  94:.\Generated_Source\PSoC5/btmodule_1_rxfifo_softwarefifo.c **** 			btmodule_1_rxfifo_fifo[i] = '\0';
 295              		.loc 1 94 0
 296 000c 044A     		ldr	r2, .L35+4
 297 000e 0021     		movs	r1, #0
 298 0010 D154     		strb	r1, [r2, r3]
 299              	.LVL10:
 300              		.loc 1 93 0
 301 0012 0133     		adds	r3, r3, #1
ARM GAS  C:\Users\SUZUKI~1\AppData\Local\Temp\ccMSp3Eg.s 			page 8


 302 0014 B3F5806F 		cmp	r3, #1024
 303 0018 F8D1     		bne	.L33
 304              	.L34:
 305 001a 7047     		bx	lr
 306              	.L36:
 307              		.align	2
 308              	.L35:
 309 001c 00000000 		.word	.LANCHOR0
 310 0020 04000000 		.word	.LANCHOR0+4
 311              		.cfi_endproc
 312              	.LFE37:
 313              		.size	btmodule_1_rxfifo_Clear, .-btmodule_1_rxfifo_Clear
 314              		.section	.text.btmodule_1_rxfifo_Start,"ax",%progbits
 315              		.align	1
 316              		.global	btmodule_1_rxfifo_Start
 317              		.thumb
 318              		.thumb_func
 319              		.type	btmodule_1_rxfifo_Start, %function
 320              	btmodule_1_rxfifo_Start:
 321              	.LFB29:
 322              		.loc 1 31 0
 323              		.cfi_startproc
 324              		@ args = 0, pretend = 0, frame = 0
 325              		@ frame_needed = 0, uses_anonymous_args = 0
 326              		@ link register save eliminated.
 327              		.loc 1 32 0
 328 0000 0120     		movs	r0, #1
 329              		.loc 1 34 0
 330              		.loc 1 32 0
 331 0002 FFF7FEBF 		b	btmodule_1_rxfifo_Clear
 332              		.cfi_endproc
 333              	.LFE29:
 334              		.size	btmodule_1_rxfifo_Start, .-btmodule_1_rxfifo_Start
 335              		.bss
 336              		.align	2
 337              		.set	.LANCHOR0,. + 0
 338              		.type	btmodule_1_rxfifo_rptr, %object
 339              		.size	btmodule_1_rxfifo_rptr, 4
 340              	btmodule_1_rxfifo_rptr:
 341 0000 00000000 		.space	4
 342              		.type	btmodule_1_rxfifo_fifo, %object
 343              		.size	btmodule_1_rxfifo_fifo, 1024
 344              	btmodule_1_rxfifo_fifo:
 345 0004 00000000 		.space	1024
 345      00000000 
 345      00000000 
 345      00000000 
 345      00000000 
 346              		.type	btmodule_1_rxfifo_wptr, %object
 347              		.size	btmodule_1_rxfifo_wptr, 4
 348              	btmodule_1_rxfifo_wptr:
 349 0404 00000000 		.space	4
 350              		.text
 351              	.Letext0:
