ARM GAS  C:\Users\SUZUKI~1\AppData\Local\Temp\ccwGukP6.s 			page 1


   1              		.syntax unified
   2              		.cpu cortex-m3
   3              		.fpu softvfp
   4              		.eabi_attribute 20, 1
   5              		.eabi_attribute 21, 1
   6              		.eabi_attribute 23, 3
   7              		.eabi_attribute 24, 1
   8              		.eabi_attribute 25, 1
   9              		.eabi_attribute 26, 1
  10              		.eabi_attribute 30, 4
  11              		.eabi_attribute 18, 4
  12              		.thumb
  13              		.file	"Cm3Start.c"
  14              		.section	.debug_abbrev,"",%progbits
  15              	.Ldebug_abbrev0:
  16              		.section	.debug_info,"",%progbits
  17              	.Ldebug_info0:
  18              		.section	.debug_line,"",%progbits
  19              	.Ldebug_line0:
  20 0000 B2000000 		.text
  20      02006C00 
  20      00000201 
  20      FB0E0D00 
  20      01010101 
  21              	.Ltext0:
  22              		.cfi_sections	.debug_frame
  23              		.section	.text.IntDefaultHandler,"ax",%progbits
  24              		.align	1
  25              		.global	IntDefaultHandler
  26              		.thumb
  27              		.thumb_func
  28              		.type	IntDefaultHandler, %function
  29              	IntDefaultHandler:
  30              	.LFB0:
  31              		.file 1 ".\\Generated_Source\\PSoC5\\Cm3Start.c"
   1:.\Generated_Source\PSoC5/Cm3Start.c **** /*******************************************************************************
   2:.\Generated_Source\PSoC5/Cm3Start.c **** * File Name: Cm3Start.c
   3:.\Generated_Source\PSoC5/Cm3Start.c **** * Version 3.30
   4:.\Generated_Source\PSoC5/Cm3Start.c **** *
   5:.\Generated_Source\PSoC5/Cm3Start.c **** *  Description:
   6:.\Generated_Source\PSoC5/Cm3Start.c **** *  Startup code for the ARM CM3.
   7:.\Generated_Source\PSoC5/Cm3Start.c **** *
   8:.\Generated_Source\PSoC5/Cm3Start.c **** ********************************************************************************
   9:.\Generated_Source\PSoC5/Cm3Start.c **** * Copyright 2008-2012, Cypress Semiconductor Corporation. All rights reserved.
  10:.\Generated_Source\PSoC5/Cm3Start.c **** * You may use this file only in accordance with the license, terms, conditions,
  11:.\Generated_Source\PSoC5/Cm3Start.c **** * disclaimers, and limitations in the end user license agreement accompanying
  12:.\Generated_Source\PSoC5/Cm3Start.c **** * the software package with which this file was provided.
  13:.\Generated_Source\PSoC5/Cm3Start.c **** *******************************************************************************/
  14:.\Generated_Source\PSoC5/Cm3Start.c **** 
  15:.\Generated_Source\PSoC5/Cm3Start.c **** #include "cydevice_trm.h"
  16:.\Generated_Source\PSoC5/Cm3Start.c **** #include "cytypes.h"
  17:.\Generated_Source\PSoC5/Cm3Start.c **** #include "cyfitter_cfg.h"
  18:.\Generated_Source\PSoC5/Cm3Start.c **** #include "CyLib.h"
  19:.\Generated_Source\PSoC5/Cm3Start.c **** #include "CyDmac.h"
  20:.\Generated_Source\PSoC5/Cm3Start.c **** #include "cyfitter.h"
  21:.\Generated_Source\PSoC5/Cm3Start.c **** 
  22:.\Generated_Source\PSoC5/Cm3Start.c **** 
ARM GAS  C:\Users\SUZUKI~1\AppData\Local\Temp\ccwGukP6.s 			page 2


  23:.\Generated_Source\PSoC5/Cm3Start.c **** #define NUM_INTERRUPTS              32u
  24:.\Generated_Source\PSoC5/Cm3Start.c **** #define NUM_VECTORS                 (CYINT_IRQ_BASE+NUM_INTERRUPTS)
  25:.\Generated_Source\PSoC5/Cm3Start.c **** #define NVIC_APINT                  ((reg32 *) CYREG_NVIC_APPLN_INTR)
  26:.\Generated_Source\PSoC5/Cm3Start.c **** #define NVIC_CFG_CTRL               ((reg32 *) CYREG_NVIC_CFG_CONTROL)
  27:.\Generated_Source\PSoC5/Cm3Start.c **** #define NVIC_APINT_PRIGROUP_3_5     0x00000400u  /* Priority group 3.5 split */
  28:.\Generated_Source\PSoC5/Cm3Start.c **** #define NVIC_APINT_VECTKEY          0x05FA0000u  /* This key is required in order to write the NVIC
  29:.\Generated_Source\PSoC5/Cm3Start.c **** #define NVIC_CFG_STACKALIGN         0x00000200u  /* This specifies that the exception stack must be
  30:.\Generated_Source\PSoC5/Cm3Start.c **** 
  31:.\Generated_Source\PSoC5/Cm3Start.c **** /* Extern functions */
  32:.\Generated_Source\PSoC5/Cm3Start.c **** extern void CyBtldr_CheckLaunch(void);
  33:.\Generated_Source\PSoC5/Cm3Start.c **** 
  34:.\Generated_Source\PSoC5/Cm3Start.c **** /* Function prototypes */
  35:.\Generated_Source\PSoC5/Cm3Start.c **** void initialize_psoc(void);
  36:.\Generated_Source\PSoC5/Cm3Start.c **** CY_ISR(IntDefaultHandler);
  37:.\Generated_Source\PSoC5/Cm3Start.c **** void Reset(void);
  38:.\Generated_Source\PSoC5/Cm3Start.c **** CY_ISR(IntDefaultHandler);
  39:.\Generated_Source\PSoC5/Cm3Start.c **** 
  40:.\Generated_Source\PSoC5/Cm3Start.c **** 
  41:.\Generated_Source\PSoC5/Cm3Start.c **** /*******************************************************************************
  42:.\Generated_Source\PSoC5/Cm3Start.c **** * Default Ram Interrupt Vector table storage area. Must be 256-byte aligned.
  43:.\Generated_Source\PSoC5/Cm3Start.c **** *******************************************************************************/
  44:.\Generated_Source\PSoC5/Cm3Start.c **** __attribute__ ((section(".ramvectors")))
  45:.\Generated_Source\PSoC5/Cm3Start.c **** #if defined(__ARMCC_VERSION)
  46:.\Generated_Source\PSoC5/Cm3Start.c **** __align(256)
  47:.\Generated_Source\PSoC5/Cm3Start.c **** #elif defined (__GNUC__)
  48:.\Generated_Source\PSoC5/Cm3Start.c **** __attribute__ ((aligned(256)))
  49:.\Generated_Source\PSoC5/Cm3Start.c **** #endif
  50:.\Generated_Source\PSoC5/Cm3Start.c **** cyisraddress CyRamVectors[NUM_VECTORS];
  51:.\Generated_Source\PSoC5/Cm3Start.c **** 
  52:.\Generated_Source\PSoC5/Cm3Start.c **** 
  53:.\Generated_Source\PSoC5/Cm3Start.c **** /*******************************************************************************
  54:.\Generated_Source\PSoC5/Cm3Start.c **** * Function Name: IntDefaultHandler
  55:.\Generated_Source\PSoC5/Cm3Start.c **** ********************************************************************************
  56:.\Generated_Source\PSoC5/Cm3Start.c **** * Summary:
  57:.\Generated_Source\PSoC5/Cm3Start.c **** *  This function is called for all interrupts, other than reset, that get
  58:.\Generated_Source\PSoC5/Cm3Start.c **** *  called before the system is setup.
  59:.\Generated_Source\PSoC5/Cm3Start.c **** *
  60:.\Generated_Source\PSoC5/Cm3Start.c **** * Parameters:
  61:.\Generated_Source\PSoC5/Cm3Start.c **** *  None
  62:.\Generated_Source\PSoC5/Cm3Start.c **** *
  63:.\Generated_Source\PSoC5/Cm3Start.c **** * Return:
  64:.\Generated_Source\PSoC5/Cm3Start.c **** *  None
  65:.\Generated_Source\PSoC5/Cm3Start.c **** *
  66:.\Generated_Source\PSoC5/Cm3Start.c **** * Theory:
  67:.\Generated_Source\PSoC5/Cm3Start.c **** *  Any value other than zero is acceptable.
  68:.\Generated_Source\PSoC5/Cm3Start.c **** *
  69:.\Generated_Source\PSoC5/Cm3Start.c **** *******************************************************************************/
  70:.\Generated_Source\PSoC5/Cm3Start.c **** CY_ISR(IntDefaultHandler)
  71:.\Generated_Source\PSoC5/Cm3Start.c **** {
  32              		.loc 1 71 0
  33              		.cfi_startproc
  34              		@ args = 0, pretend = 0, frame = 0
  35              		@ frame_needed = 0, uses_anonymous_args = 0
  36              		@ link register save eliminated.
  37              	.L2:
  38 0000 FEE7     		b	.L2
  39              		.cfi_endproc
ARM GAS  C:\Users\SUZUKI~1\AppData\Local\Temp\ccwGukP6.s 			page 3


  40              	.LFE0:
  41              		.size	IntDefaultHandler, .-IntDefaultHandler
  42              		.section	.text.Reset,"ax",%progbits
  43              		.align	1
  44              		.global	Reset
  45              		.thumb
  46              		.thumb_func
  47              		.type	Reset, %function
  48              	Reset:
  49              	.LFB1:
  72:.\Generated_Source\PSoC5/Cm3Start.c **** 
  73:.\Generated_Source\PSoC5/Cm3Start.c ****     while(1)
  74:.\Generated_Source\PSoC5/Cm3Start.c ****     {
  75:.\Generated_Source\PSoC5/Cm3Start.c ****         /***********************************************************************
  76:.\Generated_Source\PSoC5/Cm3Start.c ****         * We should never get here. If we do, a serious problem occured, so go
  77:.\Generated_Source\PSoC5/Cm3Start.c ****         * into an infinite loop.
  78:.\Generated_Source\PSoC5/Cm3Start.c ****         ***********************************************************************/
  79:.\Generated_Source\PSoC5/Cm3Start.c ****     }
  80:.\Generated_Source\PSoC5/Cm3Start.c **** }
  81:.\Generated_Source\PSoC5/Cm3Start.c **** 
  82:.\Generated_Source\PSoC5/Cm3Start.c **** #if defined(__ARMCC_VERSION)
  83:.\Generated_Source\PSoC5/Cm3Start.c **** 
  84:.\Generated_Source\PSoC5/Cm3Start.c **** /* Local function for the device reset. */
  85:.\Generated_Source\PSoC5/Cm3Start.c **** extern void Reset(void);
  86:.\Generated_Source\PSoC5/Cm3Start.c **** 
  87:.\Generated_Source\PSoC5/Cm3Start.c **** /* Application entry point. */
  88:.\Generated_Source\PSoC5/Cm3Start.c **** extern void $Super$$main(void);
  89:.\Generated_Source\PSoC5/Cm3Start.c **** 
  90:.\Generated_Source\PSoC5/Cm3Start.c **** /* Linker-generated Stack Base addresses, Two Region and One Region */
  91:.\Generated_Source\PSoC5/Cm3Start.c **** extern uint32 Image$$ARM_LIB_STACK$$ZI$$Limit;
  92:.\Generated_Source\PSoC5/Cm3Start.c **** 
  93:.\Generated_Source\PSoC5/Cm3Start.c **** /* RealView C Library initialization. */
  94:.\Generated_Source\PSoC5/Cm3Start.c **** extern int __main(void);
  95:.\Generated_Source\PSoC5/Cm3Start.c **** 
  96:.\Generated_Source\PSoC5/Cm3Start.c **** /*******************************************************************************
  97:.\Generated_Source\PSoC5/Cm3Start.c **** *
  98:.\Generated_Source\PSoC5/Cm3Start.c **** * Default Rom Interrupt Vector table.
  99:.\Generated_Source\PSoC5/Cm3Start.c **** *
 100:.\Generated_Source\PSoC5/Cm3Start.c **** *******************************************************************************/
 101:.\Generated_Source\PSoC5/Cm3Start.c **** #pragma diag_suppress 1296
 102:.\Generated_Source\PSoC5/Cm3Start.c **** __attribute__ ((section(".romvectors")))
 103:.\Generated_Source\PSoC5/Cm3Start.c **** const cyisraddress RomVectors[NUM_VECTORS] =
 104:.\Generated_Source\PSoC5/Cm3Start.c **** {
 105:.\Generated_Source\PSoC5/Cm3Start.c ****     (cyisraddress)(uint32)&Image$$ARM_LIB_STACK$$ZI$$Limit,             /* The initial stack pointe
 106:.\Generated_Source\PSoC5/Cm3Start.c ****     (cyisraddress)Reset,                                                /* The reset handler       
 107:.\Generated_Source\PSoC5/Cm3Start.c ****     IntDefaultHandler,                                                  /* The NMI handler         
 108:.\Generated_Source\PSoC5/Cm3Start.c ****     IntDefaultHandler,                                                  /* The hard fault handler  
 109:.\Generated_Source\PSoC5/Cm3Start.c ****     IntDefaultHandler,                                                  /* The MPU fault handler   
 110:.\Generated_Source\PSoC5/Cm3Start.c ****     IntDefaultHandler,                                                  /* The bus fault handler   
 111:.\Generated_Source\PSoC5/Cm3Start.c ****     IntDefaultHandler,                                                  /* The usage fault handler 
 112:.\Generated_Source\PSoC5/Cm3Start.c ****     IntDefaultHandler,                                                  /* Reserved                
 113:.\Generated_Source\PSoC5/Cm3Start.c ****     IntDefaultHandler,                                                  /* Reserved                
 114:.\Generated_Source\PSoC5/Cm3Start.c ****     IntDefaultHandler,                                                  /* Reserved                
 115:.\Generated_Source\PSoC5/Cm3Start.c ****     IntDefaultHandler,                                                  /* Reserved                
 116:.\Generated_Source\PSoC5/Cm3Start.c ****     IntDefaultHandler,                                                  /* SVCall handler          
 117:.\Generated_Source\PSoC5/Cm3Start.c ****     IntDefaultHandler,                                                  /* Debug monitor handler   
 118:.\Generated_Source\PSoC5/Cm3Start.c ****     IntDefaultHandler,                                                  /* Reserved                
ARM GAS  C:\Users\SUZUKI~1\AppData\Local\Temp\ccwGukP6.s 			page 4


 119:.\Generated_Source\PSoC5/Cm3Start.c ****     IntDefaultHandler,                                                  /* The PendSV handler      
 120:.\Generated_Source\PSoC5/Cm3Start.c ****     IntDefaultHandler,                                                  /* The SysTick handler     
 121:.\Generated_Source\PSoC5/Cm3Start.c ****     IntDefaultHandler,                                                  /* External Interrupt(0)   
 122:.\Generated_Source\PSoC5/Cm3Start.c ****     IntDefaultHandler,                                                  /* External Interrupt(1)   
 123:.\Generated_Source\PSoC5/Cm3Start.c ****     IntDefaultHandler,                                                  /* External Interrupt(2)   
 124:.\Generated_Source\PSoC5/Cm3Start.c ****     IntDefaultHandler,                                                  /* External Interrupt(3)   
 125:.\Generated_Source\PSoC5/Cm3Start.c ****     IntDefaultHandler,                                                  /* External Interrupt(4)   
 126:.\Generated_Source\PSoC5/Cm3Start.c ****     IntDefaultHandler,                                                  /* External Interrupt(5)   
 127:.\Generated_Source\PSoC5/Cm3Start.c ****     IntDefaultHandler,                                                  /* External Interrupt(6)   
 128:.\Generated_Source\PSoC5/Cm3Start.c ****     IntDefaultHandler,                                                  /* External Interrupt(7)   
 129:.\Generated_Source\PSoC5/Cm3Start.c ****     IntDefaultHandler,                                                  /* External Interrupt(8)   
 130:.\Generated_Source\PSoC5/Cm3Start.c ****     IntDefaultHandler,                                                  /* External Interrupt(9)   
 131:.\Generated_Source\PSoC5/Cm3Start.c ****     IntDefaultHandler,                                                  /* External Interrupt(A)   
 132:.\Generated_Source\PSoC5/Cm3Start.c ****     IntDefaultHandler,                                                  /* External Interrupt(B)   
 133:.\Generated_Source\PSoC5/Cm3Start.c ****     IntDefaultHandler,                                                  /* External Interrupt(C)   
 134:.\Generated_Source\PSoC5/Cm3Start.c ****     IntDefaultHandler,                                                  /* External Interrupt(D)   
 135:.\Generated_Source\PSoC5/Cm3Start.c ****     IntDefaultHandler,                                                  /* External Interrupt(E)   
 136:.\Generated_Source\PSoC5/Cm3Start.c ****     IntDefaultHandler,                                                  /* External Interrupt(F)   
 137:.\Generated_Source\PSoC5/Cm3Start.c ****     IntDefaultHandler,                                                  /* External Interrupt(10)  
 138:.\Generated_Source\PSoC5/Cm3Start.c ****     IntDefaultHandler,                                                  /* External Interrupt(11)  
 139:.\Generated_Source\PSoC5/Cm3Start.c ****     IntDefaultHandler,                                                  /* External Interrupt(12)  
 140:.\Generated_Source\PSoC5/Cm3Start.c ****     IntDefaultHandler,                                                  /* External Interrupt(13)  
 141:.\Generated_Source\PSoC5/Cm3Start.c ****     IntDefaultHandler,                                                  /* External Interrupt(14)  
 142:.\Generated_Source\PSoC5/Cm3Start.c ****     IntDefaultHandler,                                                  /* External Interrupt(15)  
 143:.\Generated_Source\PSoC5/Cm3Start.c ****     IntDefaultHandler,                                                  /* External Interrupt(16)  
 144:.\Generated_Source\PSoC5/Cm3Start.c ****     IntDefaultHandler,                                                  /* External Interrupt(17)  
 145:.\Generated_Source\PSoC5/Cm3Start.c ****     IntDefaultHandler,                                                  /* External Interrupt(18)  
 146:.\Generated_Source\PSoC5/Cm3Start.c ****     IntDefaultHandler,                                                  /* External Interrupt(19)  
 147:.\Generated_Source\PSoC5/Cm3Start.c ****     IntDefaultHandler,                                                  /* External Interrupt(1A)  
 148:.\Generated_Source\PSoC5/Cm3Start.c ****     IntDefaultHandler,                                                  /* External Interrupt(1B)  
 149:.\Generated_Source\PSoC5/Cm3Start.c ****     IntDefaultHandler,                                                  /* External Interrupt(1C)  
 150:.\Generated_Source\PSoC5/Cm3Start.c ****     IntDefaultHandler,                                                  /* External Interrupt(1D)  
 151:.\Generated_Source\PSoC5/Cm3Start.c ****     IntDefaultHandler,                                                  /* External Interrupt(1E)  
 152:.\Generated_Source\PSoC5/Cm3Start.c ****     IntDefaultHandler                                                   /* External Interrupt(1F)  
 153:.\Generated_Source\PSoC5/Cm3Start.c **** };
 154:.\Generated_Source\PSoC5/Cm3Start.c **** 
 155:.\Generated_Source\PSoC5/Cm3Start.c **** 
 156:.\Generated_Source\PSoC5/Cm3Start.c **** /*******************************************************************************
 157:.\Generated_Source\PSoC5/Cm3Start.c **** * Function Name: Reset
 158:.\Generated_Source\PSoC5/Cm3Start.c **** ********************************************************************************
 159:.\Generated_Source\PSoC5/Cm3Start.c **** * Summary:
 160:.\Generated_Source\PSoC5/Cm3Start.c **** *  This function handles the reset interrupt for the RVDS/MDK toolchains.
 161:.\Generated_Source\PSoC5/Cm3Start.c **** *  This is the first bit of code that is executed at startup.
 162:.\Generated_Source\PSoC5/Cm3Start.c **** *
 163:.\Generated_Source\PSoC5/Cm3Start.c **** * Parameters:
 164:.\Generated_Source\PSoC5/Cm3Start.c **** *  None
 165:.\Generated_Source\PSoC5/Cm3Start.c **** *
 166:.\Generated_Source\PSoC5/Cm3Start.c **** * Return:
 167:.\Generated_Source\PSoC5/Cm3Start.c **** *  None
 168:.\Generated_Source\PSoC5/Cm3Start.c **** *
 169:.\Generated_Source\PSoC5/Cm3Start.c **** *******************************************************************************/
 170:.\Generated_Source\PSoC5/Cm3Start.c **** __asm void Reset(void)
 171:.\Generated_Source\PSoC5/Cm3Start.c **** {
 172:.\Generated_Source\PSoC5/Cm3Start.c ****     PRESERVE8
 173:.\Generated_Source\PSoC5/Cm3Start.c ****     EXTERN __main
 174:.\Generated_Source\PSoC5/Cm3Start.c ****     EXTERN CyResetStatus
 175:.\Generated_Source\PSoC5/Cm3Start.c **** 
ARM GAS  C:\Users\SUZUKI~1\AppData\Local\Temp\ccwGukP6.s 			page 5


 176:.\Generated_Source\PSoC5/Cm3Start.c ****     #if(CYDEV_BOOTLOADER_ENABLE)
 177:.\Generated_Source\PSoC5/Cm3Start.c ****         EXTERN CyBtldr_CheckLaunch
 178:.\Generated_Source\PSoC5/Cm3Start.c ****     #endif  /* (CYDEV_BOOTLOADER_ENABLE) */
 179:.\Generated_Source\PSoC5/Cm3Start.c **** 
 180:.\Generated_Source\PSoC5/Cm3Start.c **** 
 181:.\Generated_Source\PSoC5/Cm3Start.c ****     #if(CYDEV_PROJ_TYPE != CYDEV_PROJ_TYPE_LOADABLE)
 182:.\Generated_Source\PSoC5/Cm3Start.c ****         #if(CYDEV_DEBUGGING_ENABLE)
 183:.\Generated_Source\PSoC5/Cm3Start.c ****     ldr  r3, =0x400046e8 /* CYDEV_DEBUG_ENABLE_REGISTER */
 184:.\Generated_Source\PSoC5/Cm3Start.c ****             ldrb r4, [r3, #0]
 185:.\Generated_Source\PSoC5/Cm3Start.c ****             orr  r4, r4, #01
 186:.\Generated_Source\PSoC5/Cm3Start.c ****             strb r4, [r3, #0]
 187:.\Generated_Source\PSoC5/Cm3Start.c **** debugEnabled
 188:.\Generated_Source\PSoC5/Cm3Start.c ****         #endif    /* (CYDEV_DEBUGGING_ENABLE) */
 189:.\Generated_Source\PSoC5/Cm3Start.c **** 
 190:.\Generated_Source\PSoC5/Cm3Start.c ****     ldr  r3, =0x400046f8 /* CYREG_RESET_SR0 */
 191:.\Generated_Source\PSoC5/Cm3Start.c ****         ldrb r2, [r3, #0]
 192:.\Generated_Source\PSoC5/Cm3Start.c **** 
 193:.\Generated_Source\PSoC5/Cm3Start.c ****     #endif  /* (CYDEV_PROJ_TYPE != CYDEV_PROJ_TYPE_LOADABLE) */
 194:.\Generated_Source\PSoC5/Cm3Start.c **** 
 195:.\Generated_Source\PSoC5/Cm3Start.c ****     ldr  r3, =0x400076BC /* CYREG_PHUB_CFGMEM23_CFG1 */
 196:.\Generated_Source\PSoC5/Cm3Start.c ****     strb r2, [r3, #0]
 197:.\Generated_Source\PSoC5/Cm3Start.c **** 
 198:.\Generated_Source\PSoC5/Cm3Start.c ****     #if(CYDEV_BOOTLOADER_ENABLE)
 199:.\Generated_Source\PSoC5/Cm3Start.c ****         bl CyBtldr_CheckLaunch
 200:.\Generated_Source\PSoC5/Cm3Start.c ****     #endif /* (CYDEV_BOOTLOADER_ENABLE) */
 201:.\Generated_Source\PSoC5/Cm3Start.c **** 
 202:.\Generated_Source\PSoC5/Cm3Start.c ****     /* Let RealView setup the libraries. */
 203:.\Generated_Source\PSoC5/Cm3Start.c ****     bl __main
 204:.\Generated_Source\PSoC5/Cm3Start.c **** 
 205:.\Generated_Source\PSoC5/Cm3Start.c ****     ALIGN
 206:.\Generated_Source\PSoC5/Cm3Start.c **** }
 207:.\Generated_Source\PSoC5/Cm3Start.c **** 
 208:.\Generated_Source\PSoC5/Cm3Start.c **** 
 209:.\Generated_Source\PSoC5/Cm3Start.c **** /*******************************************************************************
 210:.\Generated_Source\PSoC5/Cm3Start.c **** * Function Name: $Sub$$main
 211:.\Generated_Source\PSoC5/Cm3Start.c **** ********************************************************************************
 212:.\Generated_Source\PSoC5/Cm3Start.c **** * Summary:
 213:.\Generated_Source\PSoC5/Cm3Start.c **** *  This function is called imediatly before the users main
 214:.\Generated_Source\PSoC5/Cm3Start.c **** *
 215:.\Generated_Source\PSoC5/Cm3Start.c **** * Parameters:
 216:.\Generated_Source\PSoC5/Cm3Start.c **** *  None
 217:.\Generated_Source\PSoC5/Cm3Start.c **** *
 218:.\Generated_Source\PSoC5/Cm3Start.c **** * Return:
 219:.\Generated_Source\PSoC5/Cm3Start.c **** *  None
 220:.\Generated_Source\PSoC5/Cm3Start.c **** *
 221:.\Generated_Source\PSoC5/Cm3Start.c **** *******************************************************************************/
 222:.\Generated_Source\PSoC5/Cm3Start.c **** void $Sub$$main(void)
 223:.\Generated_Source\PSoC5/Cm3Start.c **** {
 224:.\Generated_Source\PSoC5/Cm3Start.c ****     initialize_psoc();
 225:.\Generated_Source\PSoC5/Cm3Start.c **** 
 226:.\Generated_Source\PSoC5/Cm3Start.c ****     /* Call original main */
 227:.\Generated_Source\PSoC5/Cm3Start.c ****     $Super$$main();
 228:.\Generated_Source\PSoC5/Cm3Start.c **** 
 229:.\Generated_Source\PSoC5/Cm3Start.c ****     /* If main returns it is undefined what we should do. */
 230:.\Generated_Source\PSoC5/Cm3Start.c ****     while (1);
 231:.\Generated_Source\PSoC5/Cm3Start.c **** }
 232:.\Generated_Source\PSoC5/Cm3Start.c **** 
ARM GAS  C:\Users\SUZUKI~1\AppData\Local\Temp\ccwGukP6.s 			page 6


 233:.\Generated_Source\PSoC5/Cm3Start.c **** #elif defined(__GNUC__)
 234:.\Generated_Source\PSoC5/Cm3Start.c **** 
 235:.\Generated_Source\PSoC5/Cm3Start.c **** extern uint32 __cs3_interrupt_vector;
 236:.\Generated_Source\PSoC5/Cm3Start.c **** extern void __cs3_start_c(void);
 237:.\Generated_Source\PSoC5/Cm3Start.c **** 
 238:.\Generated_Source\PSoC5/Cm3Start.c **** #define RomVectors (cyisraddress)(&__cs3_interrupt_vector)
 239:.\Generated_Source\PSoC5/Cm3Start.c **** 
 240:.\Generated_Source\PSoC5/Cm3Start.c **** 
 241:.\Generated_Source\PSoC5/Cm3Start.c **** /*******************************************************************************
 242:.\Generated_Source\PSoC5/Cm3Start.c **** * Function Name: Reset
 243:.\Generated_Source\PSoC5/Cm3Start.c **** ********************************************************************************
 244:.\Generated_Source\PSoC5/Cm3Start.c **** * Summary:
 245:.\Generated_Source\PSoC5/Cm3Start.c **** *  This function handles the reset interrupt for the GCC toolchain.  This is the
 246:.\Generated_Source\PSoC5/Cm3Start.c **** *  first bit of code that is executed at startup.
 247:.\Generated_Source\PSoC5/Cm3Start.c **** *
 248:.\Generated_Source\PSoC5/Cm3Start.c **** * Parameters:
 249:.\Generated_Source\PSoC5/Cm3Start.c **** *  None
 250:.\Generated_Source\PSoC5/Cm3Start.c **** *
 251:.\Generated_Source\PSoC5/Cm3Start.c **** * Return:
 252:.\Generated_Source\PSoC5/Cm3Start.c **** *  None
 253:.\Generated_Source\PSoC5/Cm3Start.c **** *
 254:.\Generated_Source\PSoC5/Cm3Start.c **** *******************************************************************************/
 255:.\Generated_Source\PSoC5/Cm3Start.c **** __attribute__ ((naked))
 256:.\Generated_Source\PSoC5/Cm3Start.c **** void Reset(void)
 257:.\Generated_Source\PSoC5/Cm3Start.c **** {
  50              		.loc 1 257 0
  51              		.cfi_startproc
  52              		@ Naked Function: prologue and epilogue provided by programmer.
  53              		@ args = 0, pretend = 0, frame = 0
  54              		@ frame_needed = 0, uses_anonymous_args = 0
 258:.\Generated_Source\PSoC5/Cm3Start.c ****     __asm volatile(
  55              		.loc 1 258 0
  56              	@ 258 ".\Generated_Source\PSoC5\Cm3Start.c" 1
  57 0000 054B     		    ldr  r3, =#1073759976
  58 0002 1C78     	    ldrb r4, [r3, #0]
  59 0004 44F00104 	    orr  r4, r4, #01
  60 0008 1C70     	    strb r4, [r3, #0]
  61              	debugEnabled:
  62 000a 044B     	    ldr  r3, =#1073759992
  63 000c 1A78     	    ldrb r2, [r3, #0]
  64 000e D2B2     	    uxtb r2, r2
  65 0010 034B     	    ldr  r3, =#1073772220
  66 0012 1A70     	    strb r2, [r3, #0]
  67 0014 FFF7FEFF 	    bl __cs3_start_c
  68              	
  69              	@ 0 "" 2
 259:.\Generated_Source\PSoC5/Cm3Start.c **** #if(CYDEV_PROJ_TYPE != CYDEV_PROJ_TYPE_LOADABLE)
 260:.\Generated_Source\PSoC5/Cm3Start.c **** 
 261:.\Generated_Source\PSoC5/Cm3Start.c ****   #if(CYDEV_DEBUGGING_ENABLE)
 262:.\Generated_Source\PSoC5/Cm3Start.c ****     "    ldr  r3, =%0\n"
 263:.\Generated_Source\PSoC5/Cm3Start.c ****     "    ldrb r4, [r3, #0]\n"
 264:.\Generated_Source\PSoC5/Cm3Start.c ****     "    orr  r4, r4, #01\n"
 265:.\Generated_Source\PSoC5/Cm3Start.c ****     "    strb r4, [r3, #0]\n"
 266:.\Generated_Source\PSoC5/Cm3Start.c ****     "debugEnabled:\n"
 267:.\Generated_Source\PSoC5/Cm3Start.c ****   #endif    /* (CYDEV_DEBUGGING_ENABLE) */
 268:.\Generated_Source\PSoC5/Cm3Start.c **** 
 269:.\Generated_Source\PSoC5/Cm3Start.c ****     "    ldr  r3, =%1\n"
ARM GAS  C:\Users\SUZUKI~1\AppData\Local\Temp\ccwGukP6.s 			page 7


 270:.\Generated_Source\PSoC5/Cm3Start.c ****     "    ldrb r2, [r3, #0]\n"
 271:.\Generated_Source\PSoC5/Cm3Start.c ****     "    uxtb r2, r2\n"
 272:.\Generated_Source\PSoC5/Cm3Start.c **** #endif  /* (CYDEV_PROJ_TYPE != CYDEV_PROJ_TYPE_LOADABLE) */
 273:.\Generated_Source\PSoC5/Cm3Start.c **** 
 274:.\Generated_Source\PSoC5/Cm3Start.c ****     "    ldr  r3, =%2\n"
 275:.\Generated_Source\PSoC5/Cm3Start.c ****     "    strb r2, [r3, #0]\n"
 276:.\Generated_Source\PSoC5/Cm3Start.c **** 
 277:.\Generated_Source\PSoC5/Cm3Start.c **** #if(CYDEV_BOOTLOADER_ENABLE)
 278:.\Generated_Source\PSoC5/Cm3Start.c ****     "    bl CyBtldr_CheckLaunch\n"
 279:.\Generated_Source\PSoC5/Cm3Start.c **** #endif /* (CYDEV_BOOTLOADER_ENABLE) */
 280:.\Generated_Source\PSoC5/Cm3Start.c **** 
 281:.\Generated_Source\PSoC5/Cm3Start.c ****     /*  Switch to C initialization phase */
 282:.\Generated_Source\PSoC5/Cm3Start.c ****     "    bl __cs3_start_c\n" : : "i" (CYDEV_DEBUG_ENABLE_REGISTER), "i" (CYREG_RESET_SR0), "i" (CYR
 283:.\Generated_Source\PSoC5/Cm3Start.c **** }
  70              		.loc 1 283 0
  71              		.thumb
  72              		.cfi_endproc
  73              	.LFE1:
  74              		.size	Reset, .-Reset
  75              		.section	.text.initialize_psoc,"ax",%progbits
  76              		.align	1
  77              		.global	initialize_psoc
  78              		.thumb
  79              		.thumb_func
  80              		.type	initialize_psoc, %function
  81              	initialize_psoc:
  82              	.LFB2:
 284:.\Generated_Source\PSoC5/Cm3Start.c **** 
 285:.\Generated_Source\PSoC5/Cm3Start.c **** #endif /* __GNUC__ */
 286:.\Generated_Source\PSoC5/Cm3Start.c **** 
 287:.\Generated_Source\PSoC5/Cm3Start.c **** /*******************************************************************************
 288:.\Generated_Source\PSoC5/Cm3Start.c **** * Function Name: initialize_psoc
 289:.\Generated_Source\PSoC5/Cm3Start.c **** ********************************************************************************
 290:.\Generated_Source\PSoC5/Cm3Start.c **** * Summary:
 291:.\Generated_Source\PSoC5/Cm3Start.c **** *  This function used to initialize the PSoC chip before calling main.
 292:.\Generated_Source\PSoC5/Cm3Start.c **** *
 293:.\Generated_Source\PSoC5/Cm3Start.c **** * Parameters:
 294:.\Generated_Source\PSoC5/Cm3Start.c **** *  None
 295:.\Generated_Source\PSoC5/Cm3Start.c **** *
 296:.\Generated_Source\PSoC5/Cm3Start.c **** * Return:
 297:.\Generated_Source\PSoC5/Cm3Start.c **** *  None
 298:.\Generated_Source\PSoC5/Cm3Start.c **** *
 299:.\Generated_Source\PSoC5/Cm3Start.c **** *******************************************************************************/
 300:.\Generated_Source\PSoC5/Cm3Start.c **** #if (defined(__GNUC__) && !defined(__ARMCC_VERSION))
 301:.\Generated_Source\PSoC5/Cm3Start.c **** __attribute__ ((constructor(101)))
 302:.\Generated_Source\PSoC5/Cm3Start.c **** #endif
 303:.\Generated_Source\PSoC5/Cm3Start.c **** 
 304:.\Generated_Source\PSoC5/Cm3Start.c **** void initialize_psoc(void)
 305:.\Generated_Source\PSoC5/Cm3Start.c **** {
  83              		.loc 1 305 0
  84              		.cfi_startproc
  85              		@ args = 0, pretend = 0, frame = 0
  86              		@ frame_needed = 0, uses_anonymous_args = 0
 306:.\Generated_Source\PSoC5/Cm3Start.c ****     uint32 i;
 307:.\Generated_Source\PSoC5/Cm3Start.c **** 
 308:.\Generated_Source\PSoC5/Cm3Start.c ****     /* Set Priority group 5. */
 309:.\Generated_Source\PSoC5/Cm3Start.c **** 
ARM GAS  C:\Users\SUZUKI~1\AppData\Local\Temp\ccwGukP6.s 			page 8


 310:.\Generated_Source\PSoC5/Cm3Start.c ****     /* Writes to NVIC_APINT register require the VECTKEY in the upper half */
 311:.\Generated_Source\PSoC5/Cm3Start.c ****     *NVIC_APINT = NVIC_APINT_VECTKEY | NVIC_APINT_PRIGROUP_3_5;
  87              		.loc 1 311 0
  88 0000 0E4A     		ldr	r2, .L10
  89 0002 0F4B     		ldr	r3, .L10+4
  90              		.loc 1 305 0
  91 0004 10B5     		push	{r4, lr}
  92              	.LCFI0:
  93              		.cfi_def_cfa_offset 8
  94              		.loc 1 311 0
  95 0006 1A60     		str	r2, [r3, #0]
 312:.\Generated_Source\PSoC5/Cm3Start.c ****     *NVIC_CFG_CTRL |= NVIC_CFG_STACKALIGN;
  96              		.loc 1 312 0
  97 0008 0833     		adds	r3, r3, #8
  98 000a 1A68     		ldr	r2, [r3, #0]
  99 000c 42F40072 		orr	r2, r2, #512
 100 0010 1A60     		str	r2, [r3, #0]
 101 0012 0023     		movs	r3, #0
 102              	.L7:
 313:.\Generated_Source\PSoC5/Cm3Start.c **** 
 314:.\Generated_Source\PSoC5/Cm3Start.c ****     /* Set Ram interrupt vectors to default functions. */
 315:.\Generated_Source\PSoC5/Cm3Start.c ****     for(i = 0u; i < NUM_VECTORS; i++)
 316:.\Generated_Source\PSoC5/Cm3Start.c ****     {
 317:.\Generated_Source\PSoC5/Cm3Start.c ****         CyRamVectors[i] = RomVectors[i];
 103              		.loc 1 317 0
 104 0014 0B49     		ldr	r1, .L10+8
 105 0016 0C4A     		ldr	r2, .L10+12
 106 0018 5958     		ldr	r1, [r3, r1]
 107 001a D150     		str	r1, [r2, r3]
 108 001c 0433     		adds	r3, r3, #4
 109              		.loc 1 315 0
 110 001e C02B     		cmp	r3, #192
 111 0020 F8D1     		bne	.L7
 112              		.cfi_offset 14, -4
 113              		.cfi_offset 4, -8
 318:.\Generated_Source\PSoC5/Cm3Start.c ****     }
 319:.\Generated_Source\PSoC5/Cm3Start.c **** 
 320:.\Generated_Source\PSoC5/Cm3Start.c ****     /* Was stored in CFGMEM to avoid being cleared while SRAM gets cleared */
 321:.\Generated_Source\PSoC5/Cm3Start.c ****     CyResetStatus = CY_GET_REG8(CYREG_PHUB_CFGMEM23_CFG1);
 114              		.loc 1 321 0
 115 0022 0A4B     		ldr	r3, .L10+16
 116 0024 1978     		ldrb	r1, [r3, #0]	@ zero_extendqisi2
 117 0026 0A4B     		ldr	r3, .L10+20
 118 0028 1970     		strb	r1, [r3, #0]
 322:.\Generated_Source\PSoC5/Cm3Start.c **** 
 323:.\Generated_Source\PSoC5/Cm3Start.c ****     /* Point NVIC at the RAM vector table. */
 324:.\Generated_Source\PSoC5/Cm3Start.c ****     *CYINT_VECT_TABLE = CyRamVectors;
 119              		.loc 1 324 0
 120 002a 0A4B     		ldr	r3, .L10+24
 121 002c 1A60     		str	r2, [r3, #0]
 325:.\Generated_Source\PSoC5/Cm3Start.c **** 
 326:.\Generated_Source\PSoC5/Cm3Start.c ****     /* Initialize the configuration registers. */
 327:.\Generated_Source\PSoC5/Cm3Start.c ****     cyfitter_cfg();
 122              		.loc 1 327 0
 123 002e FFF7FEFF 		bl	cyfitter_cfg
 328:.\Generated_Source\PSoC5/Cm3Start.c **** 
 329:.\Generated_Source\PSoC5/Cm3Start.c ****     #if(0u != DMA_CHANNELS_USED__MASK0)
ARM GAS  C:\Users\SUZUKI~1\AppData\Local\Temp\ccwGukP6.s 			page 9


 330:.\Generated_Source\PSoC5/Cm3Start.c **** 
 331:.\Generated_Source\PSoC5/Cm3Start.c ****         /* Setup DMA - only necessary if the design contains a DMA component. */
 332:.\Generated_Source\PSoC5/Cm3Start.c ****         CyDmacConfigure();
 333:.\Generated_Source\PSoC5/Cm3Start.c **** 
 334:.\Generated_Source\PSoC5/Cm3Start.c ****     #endif  /* (0u != DMA_CHANNELS_USED__MASK0) */
 335:.\Generated_Source\PSoC5/Cm3Start.c **** }
 124              		.loc 1 335 0
 125 0032 BDE81040 		pop	{r4, lr}
 126              		.loc 1 332 0
 127 0036 FFF7FEBF 		b	CyDmacConfigure
 128              	.L11:
 129 003a 00BF     		.align	2
 130              	.L10:
 131 003c 0004FA05 		.word	100271104
 132 0040 0CED00E0 		.word	-536810228
 133 0044 00000000 		.word	__cs3_interrupt_vector
 134 0048 00000000 		.word	.LANCHOR0
 135 004c BC760040 		.word	1073772220
 136 0050 00000000 		.word	CyResetStatus
 137 0054 08ED00E0 		.word	-536810232
 138              		.cfi_endproc
 139              	.LFE2:
 140              		.size	initialize_psoc, .-initialize_psoc
 141              		.section	.init_array,"aw",%init_array
 142              		.align	2
 143 0000 00000000 		.word	initialize_psoc(target1)
 144              		.global	CyRamVectors
 145              		.section	.ramvectors,"aw",%progbits
 146              		.align	8
 147              		.set	.LANCHOR0,. + 0
 148              		.type	CyRamVectors, %object
 149              		.size	CyRamVectors, 192
 150              	CyRamVectors:
 151 0000 00000000 		.space	192
 151      00000000 
 151      00000000 
 151      00000000 
 151      00000000 
 152 00c0 00000000 		.text
 152      00000000 
 152      00000000 
 152      00000000 
 152      00000000 
 153              	.Letext0:
