ARM GAS  C:\Users\SUZUKI~1\AppData\Local\Temp\ccJDBiwD.s 			page 1


   1              		.syntax unified
   2              		.cpu cortex-m3
   3              		.fpu softvfp
   4              		.eabi_attribute 20, 1
   5              		.eabi_attribute 21, 1
   6              		.eabi_attribute 23, 3
   7              		.eabi_attribute 24, 1
   8              		.eabi_attribute 25, 1
   9              		.eabi_attribute 26, 1
  10              		.eabi_attribute 30, 4
  11              		.eabi_attribute 18, 4
  12              		.thumb
  13              		.file	"CTS_BT.c"
  14              		.section	.debug_abbrev,"",%progbits
  15              	.Ldebug_abbrev0:
  16              		.section	.debug_info,"",%progbits
  17              	.Ldebug_info0:
  18              		.section	.debug_line,"",%progbits
  19              	.Ldebug_line0:
  20 0000 AE000000 		.text
  20      02005F00 
  20      00000201 
  20      FB0E0D00 
  20      01010101 
  21              	.Ltext0:
  22              		.cfi_sections	.debug_frame
  23              		.section	.text.CTS_BT_Write,"ax",%progbits
  24              		.align	1
  25              		.global	CTS_BT_Write
  26              		.thumb
  27              		.thumb_func
  28              		.type	CTS_BT_Write, %function
  29              	CTS_BT_Write:
  30              	.LFB0:
  31              		.file 1 ".\\Generated_Source\\PSoC5\\CTS_BT.c"
   1:.\Generated_Source\PSoC5/CTS_BT.c **** /*******************************************************************************
   2:.\Generated_Source\PSoC5/CTS_BT.c **** * File Name: CTS_BT.c  
   3:.\Generated_Source\PSoC5/CTS_BT.c **** * Version 1.80
   4:.\Generated_Source\PSoC5/CTS_BT.c **** *
   5:.\Generated_Source\PSoC5/CTS_BT.c **** * Description:
   6:.\Generated_Source\PSoC5/CTS_BT.c **** *  This file contains API to enable firmware control of a Pins component.
   7:.\Generated_Source\PSoC5/CTS_BT.c **** *
   8:.\Generated_Source\PSoC5/CTS_BT.c **** * Note:
   9:.\Generated_Source\PSoC5/CTS_BT.c **** *
  10:.\Generated_Source\PSoC5/CTS_BT.c **** ********************************************************************************
  11:.\Generated_Source\PSoC5/CTS_BT.c **** * Copyright 2008-2012, Cypress Semiconductor Corporation.  All rights reserved.
  12:.\Generated_Source\PSoC5/CTS_BT.c **** * You may use this file only in accordance with the license, terms, conditions, 
  13:.\Generated_Source\PSoC5/CTS_BT.c **** * disclaimers, and limitations in the end user license agreement accompanying 
  14:.\Generated_Source\PSoC5/CTS_BT.c **** * the software package with which this file was provided.
  15:.\Generated_Source\PSoC5/CTS_BT.c **** *******************************************************************************/
  16:.\Generated_Source\PSoC5/CTS_BT.c **** 
  17:.\Generated_Source\PSoC5/CTS_BT.c **** #include "cytypes.h"
  18:.\Generated_Source\PSoC5/CTS_BT.c **** #include "CTS_BT.h"
  19:.\Generated_Source\PSoC5/CTS_BT.c **** 
  20:.\Generated_Source\PSoC5/CTS_BT.c **** /* APIs are not generated for P15[7:6] on PSoC 5 */
  21:.\Generated_Source\PSoC5/CTS_BT.c **** #if !(CY_PSOC5A &&\
  22:.\Generated_Source\PSoC5/CTS_BT.c **** 	 CTS_BT__PORT == 15 && ((CTS_BT__MASK & 0xC0) != 0))
ARM GAS  C:\Users\SUZUKI~1\AppData\Local\Temp\ccJDBiwD.s 			page 2


  23:.\Generated_Source\PSoC5/CTS_BT.c **** 
  24:.\Generated_Source\PSoC5/CTS_BT.c **** 
  25:.\Generated_Source\PSoC5/CTS_BT.c **** /*******************************************************************************
  26:.\Generated_Source\PSoC5/CTS_BT.c **** * Function Name: CTS_BT_Write
  27:.\Generated_Source\PSoC5/CTS_BT.c **** ********************************************************************************
  28:.\Generated_Source\PSoC5/CTS_BT.c **** *
  29:.\Generated_Source\PSoC5/CTS_BT.c **** * Summary:
  30:.\Generated_Source\PSoC5/CTS_BT.c **** *  Assign a new value to the digital port's data output register.  
  31:.\Generated_Source\PSoC5/CTS_BT.c **** *
  32:.\Generated_Source\PSoC5/CTS_BT.c **** * Parameters:  
  33:.\Generated_Source\PSoC5/CTS_BT.c **** *  prtValue:  The value to be assigned to the Digital Port. 
  34:.\Generated_Source\PSoC5/CTS_BT.c **** *
  35:.\Generated_Source\PSoC5/CTS_BT.c **** * Return: 
  36:.\Generated_Source\PSoC5/CTS_BT.c **** *  None
  37:.\Generated_Source\PSoC5/CTS_BT.c **** *  
  38:.\Generated_Source\PSoC5/CTS_BT.c **** *******************************************************************************/
  39:.\Generated_Source\PSoC5/CTS_BT.c **** void CTS_BT_Write(uint8 value) 
  40:.\Generated_Source\PSoC5/CTS_BT.c **** {
  32              		.loc 1 40 0
  33              		.cfi_startproc
  34              		@ args = 0, pretend = 0, frame = 0
  35              		@ frame_needed = 0, uses_anonymous_args = 0
  36              		@ link register save eliminated.
  37              	.LVL0:
  41:.\Generated_Source\PSoC5/CTS_BT.c ****     uint8 staticBits = (CTS_BT_DR & (uint8)(~CTS_BT_MASK));
  38              		.loc 1 41 0
  39 0000 044B     		ldr	r3, .L3
  42:.\Generated_Source\PSoC5/CTS_BT.c ****     CTS_BT_DR = staticBits | ((uint8)(value << CTS_BT_SHIFT) & CTS_BT_MASK);
  40              		.loc 1 42 0
  41 0002 00F00100 		and	r0, r0, #1
  42              	.LVL1:
  43              		.loc 1 41 0
  44 0006 1A78     		ldrb	r2, [r3, #0]	@ zero_extendqisi2
  45              		.loc 1 42 0
  46 0008 02F0FE02 		and	r2, r2, #254
  47 000c 40EA0202 		orr	r2, r0, r2
  48 0010 1A70     		strb	r2, [r3, #0]
  43:.\Generated_Source\PSoC5/CTS_BT.c **** }
  49              		.loc 1 43 0
  50 0012 7047     		bx	lr
  51              	.L4:
  52              		.align	2
  53              	.L3:
  54 0014 20510040 		.word	1073762592
  55              		.cfi_endproc
  56              	.LFE0:
  57              		.size	CTS_BT_Write, .-CTS_BT_Write
  58              		.section	.text.CTS_BT_SetDriveMode,"ax",%progbits
  59              		.align	1
  60              		.global	CTS_BT_SetDriveMode
  61              		.thumb
  62              		.thumb_func
  63              		.type	CTS_BT_SetDriveMode, %function
  64              	CTS_BT_SetDriveMode:
  65              	.LFB1:
  44:.\Generated_Source\PSoC5/CTS_BT.c **** 
  45:.\Generated_Source\PSoC5/CTS_BT.c **** 
ARM GAS  C:\Users\SUZUKI~1\AppData\Local\Temp\ccJDBiwD.s 			page 3


  46:.\Generated_Source\PSoC5/CTS_BT.c **** /*******************************************************************************
  47:.\Generated_Source\PSoC5/CTS_BT.c **** * Function Name: CTS_BT_SetDriveMode
  48:.\Generated_Source\PSoC5/CTS_BT.c **** ********************************************************************************
  49:.\Generated_Source\PSoC5/CTS_BT.c **** *
  50:.\Generated_Source\PSoC5/CTS_BT.c **** * Summary:
  51:.\Generated_Source\PSoC5/CTS_BT.c **** *  Change the drive mode on the pins of the port.
  52:.\Generated_Source\PSoC5/CTS_BT.c **** * 
  53:.\Generated_Source\PSoC5/CTS_BT.c **** * Parameters:  
  54:.\Generated_Source\PSoC5/CTS_BT.c **** *  mode:  Change the pins to this drive mode.
  55:.\Generated_Source\PSoC5/CTS_BT.c **** *
  56:.\Generated_Source\PSoC5/CTS_BT.c **** * Return: 
  57:.\Generated_Source\PSoC5/CTS_BT.c **** *  None
  58:.\Generated_Source\PSoC5/CTS_BT.c **** *
  59:.\Generated_Source\PSoC5/CTS_BT.c **** *******************************************************************************/
  60:.\Generated_Source\PSoC5/CTS_BT.c **** void CTS_BT_SetDriveMode(uint8 mode) 
  61:.\Generated_Source\PSoC5/CTS_BT.c **** {
  66              		.loc 1 61 0
  67              		.cfi_startproc
  68              		@ args = 0, pretend = 0, frame = 0
  69              		@ frame_needed = 0, uses_anonymous_args = 0
  70              		@ link register save eliminated.
  71              	.LVL2:
  62:.\Generated_Source\PSoC5/CTS_BT.c **** 	CyPins_SetPinDriveMode(CTS_BT_0, mode);
  72              		.loc 1 62 0
  73 0000 044B     		ldr	r3, .L7
  74 0002 00F00E00 		and	r0, r0, #14
  75              	.LVL3:
  76 0006 1A78     		ldrb	r2, [r3, #0]	@ zero_extendqisi2
  77 0008 02F0F102 		and	r2, r2, #241
  78 000c 40EA0202 		orr	r2, r0, r2
  79 0010 1A70     		strb	r2, [r3, #0]
  63:.\Generated_Source\PSoC5/CTS_BT.c **** }
  80              		.loc 1 63 0
  81 0012 7047     		bx	lr
  82              	.L8:
  83              		.align	2
  84              	.L7:
  85 0014 10500040 		.word	1073762320
  86              		.cfi_endproc
  87              	.LFE1:
  88              		.size	CTS_BT_SetDriveMode, .-CTS_BT_SetDriveMode
  89              		.section	.text.CTS_BT_Read,"ax",%progbits
  90              		.align	1
  91              		.global	CTS_BT_Read
  92              		.thumb
  93              		.thumb_func
  94              		.type	CTS_BT_Read, %function
  95              	CTS_BT_Read:
  96              	.LFB2:
  64:.\Generated_Source\PSoC5/CTS_BT.c **** 
  65:.\Generated_Source\PSoC5/CTS_BT.c **** 
  66:.\Generated_Source\PSoC5/CTS_BT.c **** /*******************************************************************************
  67:.\Generated_Source\PSoC5/CTS_BT.c **** * Function Name: CTS_BT_Read
  68:.\Generated_Source\PSoC5/CTS_BT.c **** ********************************************************************************
  69:.\Generated_Source\PSoC5/CTS_BT.c **** *
  70:.\Generated_Source\PSoC5/CTS_BT.c **** * Summary:
  71:.\Generated_Source\PSoC5/CTS_BT.c **** *  Read the current value on the pins of the Digital Port in right justified 
ARM GAS  C:\Users\SUZUKI~1\AppData\Local\Temp\ccJDBiwD.s 			page 4


  72:.\Generated_Source\PSoC5/CTS_BT.c **** *  form.
  73:.\Generated_Source\PSoC5/CTS_BT.c **** *
  74:.\Generated_Source\PSoC5/CTS_BT.c **** * Parameters:  
  75:.\Generated_Source\PSoC5/CTS_BT.c **** *  None
  76:.\Generated_Source\PSoC5/CTS_BT.c **** *
  77:.\Generated_Source\PSoC5/CTS_BT.c **** * Return: 
  78:.\Generated_Source\PSoC5/CTS_BT.c **** *  Returns the current value of the Digital Port as a right justified number
  79:.\Generated_Source\PSoC5/CTS_BT.c **** *  
  80:.\Generated_Source\PSoC5/CTS_BT.c **** * Note:
  81:.\Generated_Source\PSoC5/CTS_BT.c **** *  Macro CTS_BT_ReadPS calls this function. 
  82:.\Generated_Source\PSoC5/CTS_BT.c **** *  
  83:.\Generated_Source\PSoC5/CTS_BT.c **** *******************************************************************************/
  84:.\Generated_Source\PSoC5/CTS_BT.c **** uint8 CTS_BT_Read(void) 
  85:.\Generated_Source\PSoC5/CTS_BT.c **** {
  97              		.loc 1 85 0
  98              		.cfi_startproc
  99              		@ args = 0, pretend = 0, frame = 0
 100              		@ frame_needed = 0, uses_anonymous_args = 0
 101              		@ link register save eliminated.
  86:.\Generated_Source\PSoC5/CTS_BT.c ****     return (CTS_BT_PS & CTS_BT_MASK) >> CTS_BT_SHIFT;
 102              		.loc 1 86 0
 103 0000 024B     		ldr	r3, .L11
 104 0002 1878     		ldrb	r0, [r3, #0]	@ zero_extendqisi2
  87:.\Generated_Source\PSoC5/CTS_BT.c **** }
 105              		.loc 1 87 0
 106 0004 00F00100 		and	r0, r0, #1
 107 0008 7047     		bx	lr
 108              	.L12:
 109 000a 00BF     		.align	2
 110              	.L11:
 111 000c 21510040 		.word	1073762593
 112              		.cfi_endproc
 113              	.LFE2:
 114              		.size	CTS_BT_Read, .-CTS_BT_Read
 115              		.section	.text.CTS_BT_ReadDataReg,"ax",%progbits
 116              		.align	1
 117              		.global	CTS_BT_ReadDataReg
 118              		.thumb
 119              		.thumb_func
 120              		.type	CTS_BT_ReadDataReg, %function
 121              	CTS_BT_ReadDataReg:
 122              	.LFB3:
  88:.\Generated_Source\PSoC5/CTS_BT.c **** 
  89:.\Generated_Source\PSoC5/CTS_BT.c **** 
  90:.\Generated_Source\PSoC5/CTS_BT.c **** /*******************************************************************************
  91:.\Generated_Source\PSoC5/CTS_BT.c **** * Function Name: CTS_BT_ReadDataReg
  92:.\Generated_Source\PSoC5/CTS_BT.c **** ********************************************************************************
  93:.\Generated_Source\PSoC5/CTS_BT.c **** *
  94:.\Generated_Source\PSoC5/CTS_BT.c **** * Summary:
  95:.\Generated_Source\PSoC5/CTS_BT.c **** *  Read the current value assigned to a Digital Port's data output register
  96:.\Generated_Source\PSoC5/CTS_BT.c **** *
  97:.\Generated_Source\PSoC5/CTS_BT.c **** * Parameters:  
  98:.\Generated_Source\PSoC5/CTS_BT.c **** *  None 
  99:.\Generated_Source\PSoC5/CTS_BT.c **** *
 100:.\Generated_Source\PSoC5/CTS_BT.c **** * Return: 
 101:.\Generated_Source\PSoC5/CTS_BT.c **** *  Returns the current value assigned to the Digital Port's data output register
 102:.\Generated_Source\PSoC5/CTS_BT.c **** *  
ARM GAS  C:\Users\SUZUKI~1\AppData\Local\Temp\ccJDBiwD.s 			page 5


 103:.\Generated_Source\PSoC5/CTS_BT.c **** *******************************************************************************/
 104:.\Generated_Source\PSoC5/CTS_BT.c **** uint8 CTS_BT_ReadDataReg(void) 
 105:.\Generated_Source\PSoC5/CTS_BT.c **** {
 123              		.loc 1 105 0
 124              		.cfi_startproc
 125              		@ args = 0, pretend = 0, frame = 0
 126              		@ frame_needed = 0, uses_anonymous_args = 0
 127              		@ link register save eliminated.
 106:.\Generated_Source\PSoC5/CTS_BT.c ****     return (CTS_BT_DR & CTS_BT_MASK) >> CTS_BT_SHIFT;
 128              		.loc 1 106 0
 129 0000 024B     		ldr	r3, .L15
 130 0002 1878     		ldrb	r0, [r3, #0]	@ zero_extendqisi2
 107:.\Generated_Source\PSoC5/CTS_BT.c **** }
 131              		.loc 1 107 0
 132 0004 00F00100 		and	r0, r0, #1
 133 0008 7047     		bx	lr
 134              	.L16:
 135 000a 00BF     		.align	2
 136              	.L15:
 137 000c 20510040 		.word	1073762592
 138              		.cfi_endproc
 139              	.LFE3:
 140              		.size	CTS_BT_ReadDataReg, .-CTS_BT_ReadDataReg
 141              		.text
 142              	.Letext0:
