ARM GAS  C:\Users\SUZUKI~1\AppData\Local\Temp\cc9L9var.s 			page 1


   1              		.syntax unified
   2              		.cpu cortex-m3
   3              		.fpu softvfp
   4              		.eabi_attribute 20, 1
   5              		.eabi_attribute 21, 1
   6              		.eabi_attribute 23, 3
   7              		.eabi_attribute 24, 1
   8              		.eabi_attribute 25, 1
   9              		.eabi_attribute 26, 1
  10              		.eabi_attribute 30, 4
  11              		.eabi_attribute 18, 4
  12              		.thumb
  13              		.file	"CyLib.c"
  14              		.section	.debug_abbrev,"",%progbits
  15              	.Ldebug_abbrev0:
  16              		.section	.debug_info,"",%progbits
  17              	.Ldebug_info0:
  18              		.section	.debug_line,"",%progbits
  19              	.Ldebug_line0:
  20 0000 94050000 		.text
  20      02005E00 
  20      00000201 
  20      FB0E0D00 
  20      01010101 
  21              	.Ltext0:
  22              		.cfi_sections	.debug_frame
  23              		.section	.text.CyPLL_OUT_Stop,"ax",%progbits
  24              		.align	1
  25              		.global	CyPLL_OUT_Stop
  26              		.thumb
  27              		.thumb_func
  28              		.type	CyPLL_OUT_Stop, %function
  29              	CyPLL_OUT_Stop:
  30              	.LFB1:
  31              		.file 1 ".\\Generated_Source\\PSoC5\\CyLib.c"
   1:.\Generated_Source\PSoC5/CyLib.c **** /*******************************************************************************
   2:.\Generated_Source\PSoC5/CyLib.c **** * File Name: CyLib.c
   3:.\Generated_Source\PSoC5/CyLib.c **** * Version 3.30
   4:.\Generated_Source\PSoC5/CyLib.c **** *
   5:.\Generated_Source\PSoC5/CyLib.c **** *  Description:
   6:.\Generated_Source\PSoC5/CyLib.c **** *   Provides system API for the clocking, interrupts and watchdog timer.
   7:.\Generated_Source\PSoC5/CyLib.c **** *
   8:.\Generated_Source\PSoC5/CyLib.c **** *  Note:
   9:.\Generated_Source\PSoC5/CyLib.c **** *   Documentation of the API's in this file is located in the
  10:.\Generated_Source\PSoC5/CyLib.c **** *   System Reference Guide provided with PSoC Creator.
  11:.\Generated_Source\PSoC5/CyLib.c **** *
  12:.\Generated_Source\PSoC5/CyLib.c **** ********************************************************************************
  13:.\Generated_Source\PSoC5/CyLib.c **** * Copyright 2008-2012, Cypress Semiconductor Corporation.  All rights reserved.
  14:.\Generated_Source\PSoC5/CyLib.c **** * You may use this file only in accordance with the license, terms, conditions,
  15:.\Generated_Source\PSoC5/CyLib.c **** * disclaimers, and limitations in the end user license agreement accompanying
  16:.\Generated_Source\PSoC5/CyLib.c **** * the software package with which this file was provided.
  17:.\Generated_Source\PSoC5/CyLib.c **** *******************************************************************************/
  18:.\Generated_Source\PSoC5/CyLib.c **** 
  19:.\Generated_Source\PSoC5/CyLib.c **** #include "CyLib.h"
  20:.\Generated_Source\PSoC5/CyLib.c **** 
  21:.\Generated_Source\PSoC5/CyLib.c **** 
  22:.\Generated_Source\PSoC5/CyLib.c **** /*******************************************************************************
ARM GAS  C:\Users\SUZUKI~1\AppData\Local\Temp\cc9L9var.s 			page 2


  23:.\Generated_Source\PSoC5/CyLib.c **** * The CyResetStatus variable is used to obtain value of RESET_SR0 register after
  24:.\Generated_Source\PSoC5/CyLib.c **** * a device reset.
  25:.\Generated_Source\PSoC5/CyLib.c **** *******************************************************************************/
  26:.\Generated_Source\PSoC5/CyLib.c **** uint8 CYXDATA CyResetStatus;
  27:.\Generated_Source\PSoC5/CyLib.c **** 
  28:.\Generated_Source\PSoC5/CyLib.c **** 
  29:.\Generated_Source\PSoC5/CyLib.c **** #if(!CY_PSOC5A)
  30:.\Generated_Source\PSoC5/CyLib.c **** 
  31:.\Generated_Source\PSoC5/CyLib.c ****     /* Variable Vdda */
  32:.\Generated_Source\PSoC5/CyLib.c ****     #if(CYDEV_VARIABLE_VDDA == 1)
  33:.\Generated_Source\PSoC5/CyLib.c **** 
  34:.\Generated_Source\PSoC5/CyLib.c ****         uint8 CyScPumpEnabled = (uint8)(CYDEV_VDDA_MV < 2700);
  35:.\Generated_Source\PSoC5/CyLib.c **** 
  36:.\Generated_Source\PSoC5/CyLib.c ****     #endif  /* (CYDEV_VARIABLE_VDDA == 1) */
  37:.\Generated_Source\PSoC5/CyLib.c **** 
  38:.\Generated_Source\PSoC5/CyLib.c **** #endif /* (!CY_PSOC5A) */
  39:.\Generated_Source\PSoC5/CyLib.c **** 
  40:.\Generated_Source\PSoC5/CyLib.c **** 
  41:.\Generated_Source\PSoC5/CyLib.c **** /* Do not use these definitions directly in your application */
  42:.\Generated_Source\PSoC5/CyLib.c **** uint32 cydelay_freq_hz  = BCLK__BUS_CLK__HZ;
  43:.\Generated_Source\PSoC5/CyLib.c **** uint32 cydelay_freq_khz = (BCLK__BUS_CLK__HZ + 999u) / 1000u;
  44:.\Generated_Source\PSoC5/CyLib.c **** uint8  cydelay_freq_mhz = (uint8)((BCLK__BUS_CLK__HZ + 999999u) / 1000000u);
  45:.\Generated_Source\PSoC5/CyLib.c **** uint32 cydelay_32k_ms   = 32768u * ((BCLK__BUS_CLK__HZ + 999u) / 1000u);
  46:.\Generated_Source\PSoC5/CyLib.c **** 
  47:.\Generated_Source\PSoC5/CyLib.c **** 
  48:.\Generated_Source\PSoC5/CyLib.c **** /* Function Prototypes */
  49:.\Generated_Source\PSoC5/CyLib.c **** static uint8 CyUSB_PowerOnCheck(void)  ;
  50:.\Generated_Source\PSoC5/CyLib.c **** static void CyIMO_SetTrimValue(uint8 freq) ;
  51:.\Generated_Source\PSoC5/CyLib.c **** static void CyBusClk_Internal_SetDivider(uint16 divider);
  52:.\Generated_Source\PSoC5/CyLib.c **** 
  53:.\Generated_Source\PSoC5/CyLib.c **** 
  54:.\Generated_Source\PSoC5/CyLib.c **** /*******************************************************************************
  55:.\Generated_Source\PSoC5/CyLib.c **** * Function Name: CyPLL_OUT_Start
  56:.\Generated_Source\PSoC5/CyLib.c **** ********************************************************************************
  57:.\Generated_Source\PSoC5/CyLib.c **** *
  58:.\Generated_Source\PSoC5/CyLib.c **** * Summary:
  59:.\Generated_Source\PSoC5/CyLib.c **** *   Enables the PLL.  Optionally waits for it to become stable.
  60:.\Generated_Source\PSoC5/CyLib.c **** *   Waits at least 250 us or until it is detected that the PLL is stable.
  61:.\Generated_Source\PSoC5/CyLib.c **** *
  62:.\Generated_Source\PSoC5/CyLib.c **** * Parameters:
  63:.\Generated_Source\PSoC5/CyLib.c **** *   wait:
  64:.\Generated_Source\PSoC5/CyLib.c **** *    0: Return immediately after configuration
  65:.\Generated_Source\PSoC5/CyLib.c **** *    1: Wait for PLL lock or timeout.
  66:.\Generated_Source\PSoC5/CyLib.c **** *
  67:.\Generated_Source\PSoC5/CyLib.c **** * Return:
  68:.\Generated_Source\PSoC5/CyLib.c **** *   Status
  69:.\Generated_Source\PSoC5/CyLib.c **** *    CYRET_SUCCESS - Completed successfully
  70:.\Generated_Source\PSoC5/CyLib.c **** *    CYRET_TIMEOUT - Timeout occurred without detecting a stable clock.
  71:.\Generated_Source\PSoC5/CyLib.c **** *     If the input source of the clock is jittery, then the lock indication
  72:.\Generated_Source\PSoC5/CyLib.c **** *     may not occur.  However, after the timeout has expired the generated PLL
  73:.\Generated_Source\PSoC5/CyLib.c **** *     clock can still be used.
  74:.\Generated_Source\PSoC5/CyLib.c **** *
  75:.\Generated_Source\PSoC5/CyLib.c **** * Side Effects:
  76:.\Generated_Source\PSoC5/CyLib.c **** *  If wait is enabled: This function wses the Fast Time Wheel to time the wait.
  77:.\Generated_Source\PSoC5/CyLib.c **** *  Any other use of the Fast Time Wheel will be stopped during the period of
  78:.\Generated_Source\PSoC5/CyLib.c **** *  this function and then restored. This function also uses the 100 KHz ILO.
  79:.\Generated_Source\PSoC5/CyLib.c **** *  If not enabled, this function will enable the 100 KHz ILO for the period of
ARM GAS  C:\Users\SUZUKI~1\AppData\Local\Temp\cc9L9var.s 			page 3


  80:.\Generated_Source\PSoC5/CyLib.c **** *  this function.
  81:.\Generated_Source\PSoC5/CyLib.c **** *
  82:.\Generated_Source\PSoC5/CyLib.c **** *  No changes to the setup of the ILO, Fast Time Wheel, Central Time Wheel or
  83:.\Generated_Source\PSoC5/CyLib.c **** *  Once Per Second interrupt may be made by interrupt routines during the period
  84:.\Generated_Source\PSoC5/CyLib.c **** *  of this function execution. The current operation of the ILO, Central Time
  85:.\Generated_Source\PSoC5/CyLib.c **** *  Wheel and Once Per Second interrupt are maintained during the operation of
  86:.\Generated_Source\PSoC5/CyLib.c **** *  this function provided the reading of the Power Manager Interrupt Status
  87:.\Generated_Source\PSoC5/CyLib.c **** *  Register is only done using the CyPmReadStatus() function.
  88:.\Generated_Source\PSoC5/CyLib.c **** *
  89:.\Generated_Source\PSoC5/CyLib.c **** *******************************************************************************/
  90:.\Generated_Source\PSoC5/CyLib.c **** cystatus CyPLL_OUT_Start(uint8 wait) 
  91:.\Generated_Source\PSoC5/CyLib.c **** {
  92:.\Generated_Source\PSoC5/CyLib.c ****     cystatus status = CYRET_SUCCESS;
  93:.\Generated_Source\PSoC5/CyLib.c **** 
  94:.\Generated_Source\PSoC5/CyLib.c ****     uint8 iloEnableState;
  95:.\Generated_Source\PSoC5/CyLib.c ****     uint8 pmTwCfg0State;
  96:.\Generated_Source\PSoC5/CyLib.c ****     uint8 pmTwCfg2State;
  97:.\Generated_Source\PSoC5/CyLib.c **** 
  98:.\Generated_Source\PSoC5/CyLib.c **** 
  99:.\Generated_Source\PSoC5/CyLib.c ****     /* Enables the PLL circuit  */
 100:.\Generated_Source\PSoC5/CyLib.c ****     CY_CLK_PLL_CFG0_REG |= CY_CLK_PLL_ENABLE;
 101:.\Generated_Source\PSoC5/CyLib.c **** 
 102:.\Generated_Source\PSoC5/CyLib.c ****     if(wait != 0u)
 103:.\Generated_Source\PSoC5/CyLib.c ****     {
 104:.\Generated_Source\PSoC5/CyLib.c ****         /* Save 100 KHz ILO, FTW interval, enable and interrupt enable */
 105:.\Generated_Source\PSoC5/CyLib.c ****         iloEnableState = SLOWCLK_ILO_CR0;
 106:.\Generated_Source\PSoC5/CyLib.c ****         pmTwCfg0State = CY_PM_TW_CFG0_REG;
 107:.\Generated_Source\PSoC5/CyLib.c ****         pmTwCfg2State = CY_PM_TW_CFG2_REG;
 108:.\Generated_Source\PSoC5/CyLib.c **** 
 109:.\Generated_Source\PSoC5/CyLib.c ****         CyPmFtwSetInterval(CY_CLK_PLL_FTW_INTERVAL);
 110:.\Generated_Source\PSoC5/CyLib.c **** 
 111:.\Generated_Source\PSoC5/CyLib.c ****         status = CYRET_TIMEOUT;
 112:.\Generated_Source\PSoC5/CyLib.c **** 
 113:.\Generated_Source\PSoC5/CyLib.c **** 
 114:.\Generated_Source\PSoC5/CyLib.c ****         while(CyPmReadStatus(CY_PM_FTW_INT) != CY_PM_FTW_INT)
 115:.\Generated_Source\PSoC5/CyLib.c ****         {
 116:.\Generated_Source\PSoC5/CyLib.c ****             /* Wait for the interrupt status */
 117:.\Generated_Source\PSoC5/CyLib.c ****             if(0u != (CY_CLK_PLL_SR_REG & CY_CLK_PLL_LOCK_STATUS))
 118:.\Generated_Source\PSoC5/CyLib.c ****             {
 119:.\Generated_Source\PSoC5/CyLib.c ****                 if(0u != (CY_CLK_PLL_SR_REG & CY_CLK_PLL_LOCK_STATUS))
 120:.\Generated_Source\PSoC5/CyLib.c ****                 {
 121:.\Generated_Source\PSoC5/CyLib.c ****                     status = CYRET_SUCCESS;
 122:.\Generated_Source\PSoC5/CyLib.c ****                     break;
 123:.\Generated_Source\PSoC5/CyLib.c ****                 }
 124:.\Generated_Source\PSoC5/CyLib.c ****             }
 125:.\Generated_Source\PSoC5/CyLib.c ****         }
 126:.\Generated_Source\PSoC5/CyLib.c **** 
 127:.\Generated_Source\PSoC5/CyLib.c **** 
 128:.\Generated_Source\PSoC5/CyLib.c ****         /* Restore 100 KHz ILO, FTW interval, enable and interrupt enable */
 129:.\Generated_Source\PSoC5/CyLib.c ****         if(0u == (iloEnableState & ILO_CONTROL_100KHZ_ON))
 130:.\Generated_Source\PSoC5/CyLib.c ****         {
 131:.\Generated_Source\PSoC5/CyLib.c ****             CyILO_Stop100K();
 132:.\Generated_Source\PSoC5/CyLib.c ****         }
 133:.\Generated_Source\PSoC5/CyLib.c ****         CY_PM_TW_CFG0_REG = pmTwCfg0State;
 134:.\Generated_Source\PSoC5/CyLib.c ****         CY_PM_TW_CFG2_REG = pmTwCfg2State;
 135:.\Generated_Source\PSoC5/CyLib.c ****     }
 136:.\Generated_Source\PSoC5/CyLib.c **** 
ARM GAS  C:\Users\SUZUKI~1\AppData\Local\Temp\cc9L9var.s 			page 4


 137:.\Generated_Source\PSoC5/CyLib.c ****     return(status);
 138:.\Generated_Source\PSoC5/CyLib.c **** }
 139:.\Generated_Source\PSoC5/CyLib.c **** 
 140:.\Generated_Source\PSoC5/CyLib.c **** 
 141:.\Generated_Source\PSoC5/CyLib.c **** /*******************************************************************************
 142:.\Generated_Source\PSoC5/CyLib.c **** * Function Name: CyPLL_OUT_Stop
 143:.\Generated_Source\PSoC5/CyLib.c **** ********************************************************************************
 144:.\Generated_Source\PSoC5/CyLib.c **** *
 145:.\Generated_Source\PSoC5/CyLib.c **** * Summary:
 146:.\Generated_Source\PSoC5/CyLib.c **** *  Disables the PLL.
 147:.\Generated_Source\PSoC5/CyLib.c **** *
 148:.\Generated_Source\PSoC5/CyLib.c **** * Parameters:
 149:.\Generated_Source\PSoC5/CyLib.c **** *  None
 150:.\Generated_Source\PSoC5/CyLib.c **** *
 151:.\Generated_Source\PSoC5/CyLib.c **** * Return:
 152:.\Generated_Source\PSoC5/CyLib.c **** *  None
 153:.\Generated_Source\PSoC5/CyLib.c **** *
 154:.\Generated_Source\PSoC5/CyLib.c **** *******************************************************************************/
 155:.\Generated_Source\PSoC5/CyLib.c **** void CyPLL_OUT_Stop(void) 
 156:.\Generated_Source\PSoC5/CyLib.c **** {
  32              		.loc 1 156 0
  33              		.cfi_startproc
  34              		@ args = 0, pretend = 0, frame = 0
  35              		@ frame_needed = 0, uses_anonymous_args = 0
  36              		@ link register save eliminated.
 157:.\Generated_Source\PSoC5/CyLib.c ****     CY_CLK_PLL_CFG0_REG &= ((uint8)(~CY_CLK_PLL_ENABLE));
  37              		.loc 1 157 0
  38 0000 024B     		ldr	r3, .L3
  39 0002 1A78     		ldrb	r2, [r3, #0]	@ zero_extendqisi2
  40 0004 02F0FE02 		and	r2, r2, #254
  41 0008 1A70     		strb	r2, [r3, #0]
 158:.\Generated_Source\PSoC5/CyLib.c **** }
  42              		.loc 1 158 0
  43 000a 7047     		bx	lr
  44              	.L4:
  45              		.align	2
  46              	.L3:
  47 000c 20420040 		.word	1073758752
  48              		.cfi_endproc
  49              	.LFE1:
  50              		.size	CyPLL_OUT_Stop, .-CyPLL_OUT_Stop
  51              		.section	.text.CyPLL_OUT_SetPQ,"ax",%progbits
  52              		.align	1
  53              		.global	CyPLL_OUT_SetPQ
  54              		.thumb
  55              		.thumb_func
  56              		.type	CyPLL_OUT_SetPQ, %function
  57              	CyPLL_OUT_SetPQ:
  58              	.LFB2:
 159:.\Generated_Source\PSoC5/CyLib.c **** 
 160:.\Generated_Source\PSoC5/CyLib.c **** 
 161:.\Generated_Source\PSoC5/CyLib.c **** /*******************************************************************************
 162:.\Generated_Source\PSoC5/CyLib.c **** * Function Name: CyPLL_OUT_SetPQ
 163:.\Generated_Source\PSoC5/CyLib.c **** ********************************************************************************
 164:.\Generated_Source\PSoC5/CyLib.c **** *
 165:.\Generated_Source\PSoC5/CyLib.c **** * Summary:
 166:.\Generated_Source\PSoC5/CyLib.c **** *  Sets the P and Q dividers and the charge pump current.
ARM GAS  C:\Users\SUZUKI~1\AppData\Local\Temp\cc9L9var.s 			page 5


 167:.\Generated_Source\PSoC5/CyLib.c **** *  The Frequency Out will be P/Q * Frequency In.
 168:.\Generated_Source\PSoC5/CyLib.c **** *  The PLL must be disabled before calling this function.
 169:.\Generated_Source\PSoC5/CyLib.c **** *
 170:.\Generated_Source\PSoC5/CyLib.c **** * Parameters:
 171:.\Generated_Source\PSoC5/CyLib.c **** *  uint8 pDiv:
 172:.\Generated_Source\PSoC5/CyLib.c **** *   Valid range [8 - 255].
 173:.\Generated_Source\PSoC5/CyLib.c **** *
 174:.\Generated_Source\PSoC5/CyLib.c **** *  uint8 qDiv:
 175:.\Generated_Source\PSoC5/CyLib.c **** *   Valid range [1 - 16]. Input Frequency / Q must be in range of 1 to 3 MHz.
 176:.\Generated_Source\PSoC5/CyLib.c **** 
 177:.\Generated_Source\PSoC5/CyLib.c **** *  uint8 current:
 178:.\Generated_Source\PSoC5/CyLib.c **** *   Valid range [1 - 7]. Charge pump current in uA. Refer to the device TRM and
 179:.\Generated_Source\PSoC5/CyLib.c **** *   datasheet for more information.
 180:.\Generated_Source\PSoC5/CyLib.c **** *
 181:.\Generated_Source\PSoC5/CyLib.c **** * Return:
 182:.\Generated_Source\PSoC5/CyLib.c **** *  None
 183:.\Generated_Source\PSoC5/CyLib.c **** *
 184:.\Generated_Source\PSoC5/CyLib.c **** * Side Effects:
 185:.\Generated_Source\PSoC5/CyLib.c **** *  If as result of this function execution the CPU clock frequency is increased
 186:.\Generated_Source\PSoC5/CyLib.c **** *  then the number of clock cycles the cache will wait before it samples data
 187:.\Generated_Source\PSoC5/CyLib.c **** *  coming back from Flash must be adjusted by calling CyFlash_SetWaitCycles()
 188:.\Generated_Source\PSoC5/CyLib.c **** *  with appropriate parameter. It can be optionally called if CPU clock
 189:.\Generated_Source\PSoC5/CyLib.c **** *  frequency is lowered in order to improve CPU performance.
 190:.\Generated_Source\PSoC5/CyLib.c **** *  See CyFlash_SetWaitCycles() description for more information.
 191:.\Generated_Source\PSoC5/CyLib.c **** *
 192:.\Generated_Source\PSoC5/CyLib.c **** *******************************************************************************/
 193:.\Generated_Source\PSoC5/CyLib.c **** void CyPLL_OUT_SetPQ(uint8 pDiv, uint8 qDiv, uint8 current) 
 194:.\Generated_Source\PSoC5/CyLib.c **** {
  59              		.loc 1 194 0
  60              		.cfi_startproc
  61              		@ args = 0, pretend = 0, frame = 0
  62              		@ frame_needed = 0, uses_anonymous_args = 0
  63              		@ link register save eliminated.
  64              	.LVL0:
 195:.\Generated_Source\PSoC5/CyLib.c ****     /* Halt CPU in debug mode if PLL is enabled */
 196:.\Generated_Source\PSoC5/CyLib.c ****     CYASSERT(0u == (CY_CLK_PLL_CFG0_REG & CY_CLK_PLL_ENABLE));
 197:.\Generated_Source\PSoC5/CyLib.c **** 
 198:.\Generated_Source\PSoC5/CyLib.c ****     if((pDiv    >= CY_CLK_PLL_MIN_P_VALUE  ) &&
  65              		.loc 1 198 0
  66 0000 0728     		cmp	r0, #7
  67 0002 14D9     		bls	.L7
  68 0004 1029     		cmp	r1, #16
  69 0006 12D8     		bhi	.L7
  70 0008 89B1     		cbz	r1, .L7
  71 000a 82B1     		cbz	r2, .L7
  72 000c 072A     		cmp	r2, #7
  73 000e 0ED8     		bhi	.L7
 199:.\Generated_Source\PSoC5/CyLib.c ****        (qDiv    <= CY_CLK_PLL_MAX_Q_VALUE  ) && (qDiv    >= CY_CLK_PLL_MIN_Q_VALUE  ) &&
 200:.\Generated_Source\PSoC5/CyLib.c ****        (current >= CY_CLK_PLL_MIN_CUR_VALUE) && (current <= CY_CLK_PLL_MAX_CUR_VALUE))
 201:.\Generated_Source\PSoC5/CyLib.c ****     {
 202:.\Generated_Source\PSoC5/CyLib.c ****         /* Set new values */
 203:.\Generated_Source\PSoC5/CyLib.c ****         CY_CLK_PLL_P_REG = pDiv;
  74              		.loc 1 203 0
  75 0010 074B     		ldr	r3, .L9
 204:.\Generated_Source\PSoC5/CyLib.c ****         CY_CLK_PLL_Q_REG = ((uint8)(qDiv - 1u));
  76              		.loc 1 204 0
  77 0012 0139     		subs	r1, r1, #1
ARM GAS  C:\Users\SUZUKI~1\AppData\Local\Temp\cc9L9var.s 			page 6


  78              	.LVL1:
  79              		.loc 1 203 0
  80 0014 1870     		strb	r0, [r3, #0]
  81              		.loc 1 204 0
  82 0016 C9B2     		uxtb	r1, r1
  83 0018 0133     		adds	r3, r3, #1
  84 001a 1970     		strb	r1, [r3, #0]
 205:.\Generated_Source\PSoC5/CyLib.c ****         CY_CLK_PLL_CFG1_REG = (CY_CLK_PLL_CFG1_REG & CY_CLK_PLL_CURRENT_MASK) |
  85              		.loc 1 205 0
  86 001c 023B     		subs	r3, r3, #2
  87 001e 1978     		ldrb	r1, [r3, #0]	@ zero_extendqisi2
  88 0020 013A     		subs	r2, r2, #1
  89              	.LVL2:
  90 0022 01F08F01 		and	r1, r1, #143
  91 0026 41EA0212 		orr	r2, r1, r2, lsl #4
  92 002a D2B2     		uxtb	r2, r2
  93 002c 1A70     		strb	r2, [r3, #0]
  94              	.LVL3:
  95              	.L7:
  96 002e 7047     		bx	lr
  97              	.L10:
  98              		.align	2
  99              	.L9:
 100 0030 22420040 		.word	1073758754
 101              		.cfi_endproc
 102              	.LFE2:
 103              		.size	CyPLL_OUT_SetPQ, .-CyPLL_OUT_SetPQ
 104              		.section	.text.CyPLL_OUT_SetSource,"ax",%progbits
 105              		.align	1
 106              		.global	CyPLL_OUT_SetSource
 107              		.thumb
 108              		.thumb_func
 109              		.type	CyPLL_OUT_SetSource, %function
 110              	CyPLL_OUT_SetSource:
 111              	.LFB3:
 206:.\Generated_Source\PSoC5/CyLib.c ****                                 ((uint8)(((uint8)(current - 1u)) << CY_CLK_PLL_CURRENT_POSITION));
 207:.\Generated_Source\PSoC5/CyLib.c ****     }
 208:.\Generated_Source\PSoC5/CyLib.c ****     else
 209:.\Generated_Source\PSoC5/CyLib.c ****     {
 210:.\Generated_Source\PSoC5/CyLib.c ****         /***********************************************************************
 211:.\Generated_Source\PSoC5/CyLib.c ****         * Halt CPU in debug mode if:
 212:.\Generated_Source\PSoC5/CyLib.c ****         * - P divider is less than required
 213:.\Generated_Source\PSoC5/CyLib.c ****         * - Q divider is out of range
 214:.\Generated_Source\PSoC5/CyLib.c ****         * - pump current is out of range
 215:.\Generated_Source\PSoC5/CyLib.c ****         ***********************************************************************/
 216:.\Generated_Source\PSoC5/CyLib.c ****         CYASSERT(0u != 0u);
 217:.\Generated_Source\PSoC5/CyLib.c ****     }
 218:.\Generated_Source\PSoC5/CyLib.c **** 
 219:.\Generated_Source\PSoC5/CyLib.c **** }
 220:.\Generated_Source\PSoC5/CyLib.c **** 
 221:.\Generated_Source\PSoC5/CyLib.c **** 
 222:.\Generated_Source\PSoC5/CyLib.c **** /*******************************************************************************
 223:.\Generated_Source\PSoC5/CyLib.c **** * Function Name: CyPLL_OUT_SetSource
 224:.\Generated_Source\PSoC5/CyLib.c **** ********************************************************************************
 225:.\Generated_Source\PSoC5/CyLib.c **** *
 226:.\Generated_Source\PSoC5/CyLib.c **** * Summary:
 227:.\Generated_Source\PSoC5/CyLib.c **** *  Sets the input clock source to the PLL. The PLL must be disabled before
ARM GAS  C:\Users\SUZUKI~1\AppData\Local\Temp\cc9L9var.s 			page 7


 228:.\Generated_Source\PSoC5/CyLib.c **** *  calling this function.
 229:.\Generated_Source\PSoC5/CyLib.c **** *
 230:.\Generated_Source\PSoC5/CyLib.c **** * Parameters:
 231:.\Generated_Source\PSoC5/CyLib.c **** *   source: One of the three available PLL clock sources
 232:.\Generated_Source\PSoC5/CyLib.c **** *            0 :        IMO
 233:.\Generated_Source\PSoC5/CyLib.c **** *            1 :        MHz Crystal
 234:.\Generated_Source\PSoC5/CyLib.c **** *            2 :        DSI
 235:.\Generated_Source\PSoC5/CyLib.c **** *
 236:.\Generated_Source\PSoC5/CyLib.c **** * Return:
 237:.\Generated_Source\PSoC5/CyLib.c **** *  None
 238:.\Generated_Source\PSoC5/CyLib.c **** *
 239:.\Generated_Source\PSoC5/CyLib.c **** * Side Effects:
 240:.\Generated_Source\PSoC5/CyLib.c **** *  If as result of this function execution the CPU clock frequency is increased
 241:.\Generated_Source\PSoC5/CyLib.c **** *  then the number of clock cycles the cache will wait before it samples data
 242:.\Generated_Source\PSoC5/CyLib.c **** *  coming back from Flash must be adjusted by calling CyFlash_SetWaitCycles()
 243:.\Generated_Source\PSoC5/CyLib.c **** *  with appropriate parameter. It can be optionally called if CPU clock
 244:.\Generated_Source\PSoC5/CyLib.c **** *  frequency is lowered in order to improve CPU performance.
 245:.\Generated_Source\PSoC5/CyLib.c **** *  See CyFlash_SetWaitCycles() description for more information.
 246:.\Generated_Source\PSoC5/CyLib.c **** *
 247:.\Generated_Source\PSoC5/CyLib.c **** *******************************************************************************/
 248:.\Generated_Source\PSoC5/CyLib.c **** void CyPLL_OUT_SetSource(uint8 source) 
 249:.\Generated_Source\PSoC5/CyLib.c **** {
 112              		.loc 1 249 0
 113              		.cfi_startproc
 114              		@ args = 0, pretend = 0, frame = 0
 115              		@ frame_needed = 0, uses_anonymous_args = 0
 116              		@ link register save eliminated.
 117              	.LVL4:
 250:.\Generated_Source\PSoC5/CyLib.c ****     /* Halt CPU in debug mode if PLL is enabled */
 251:.\Generated_Source\PSoC5/CyLib.c ****     CYASSERT(0u == (CY_CLK_PLL_CFG0_REG & CY_CLK_PLL_ENABLE));
 252:.\Generated_Source\PSoC5/CyLib.c **** 
 253:.\Generated_Source\PSoC5/CyLib.c ****     switch(source)
 118              		.loc 1 253 0
 119 0000 0228     		cmp	r0, #2
 120 0002 05D8     		bhi	.L14
 254:.\Generated_Source\PSoC5/CyLib.c ****     {
 255:.\Generated_Source\PSoC5/CyLib.c ****         case CY_PLL_SOURCE_IMO:
 256:.\Generated_Source\PSoC5/CyLib.c ****         case CY_PLL_SOURCE_XTAL:
 257:.\Generated_Source\PSoC5/CyLib.c ****         case CY_PLL_SOURCE_DSI:
 258:.\Generated_Source\PSoC5/CyLib.c ****             CY_LIB_CLKDIST_CR_REG = ((CY_LIB_CLKDIST_CR_REG & CY_LIB_CLKDIST_CR_PLL_SCR_MASK) | sou
 121              		.loc 1 258 0
 122 0004 034B     		ldr	r3, .L15
 123 0006 1A78     		ldrb	r2, [r3, #0]	@ zero_extendqisi2
 124 0008 02F0FC02 		and	r2, r2, #252
 125 000c 1043     		orrs	r0, r0, r2
 126              	.LVL5:
 127 000e 1870     		strb	r0, [r3, #0]
 128              	.LVL6:
 129              	.L14:
 130 0010 7047     		bx	lr
 131              	.L16:
 132 0012 00BF     		.align	2
 133              	.L15:
 134 0014 00400040 		.word	1073758208
 135              		.cfi_endproc
 136              	.LFE3:
 137              		.size	CyPLL_OUT_SetSource, .-CyPLL_OUT_SetSource
ARM GAS  C:\Users\SUZUKI~1\AppData\Local\Temp\cc9L9var.s 			page 8


 138              		.section	.text.CyIMO_Stop,"ax",%progbits
 139              		.align	1
 140              		.global	CyIMO_Stop
 141              		.thumb
 142              		.thumb_func
 143              		.type	CyIMO_Stop, %function
 144              	CyIMO_Stop:
 145              	.LFB5:
 259:.\Generated_Source\PSoC5/CyLib.c ****         break;
 260:.\Generated_Source\PSoC5/CyLib.c **** 
 261:.\Generated_Source\PSoC5/CyLib.c ****         default:
 262:.\Generated_Source\PSoC5/CyLib.c ****             CYASSERT(0u != 0u);
 263:.\Generated_Source\PSoC5/CyLib.c ****         break;
 264:.\Generated_Source\PSoC5/CyLib.c ****     }
 265:.\Generated_Source\PSoC5/CyLib.c **** }
 266:.\Generated_Source\PSoC5/CyLib.c **** 
 267:.\Generated_Source\PSoC5/CyLib.c **** 
 268:.\Generated_Source\PSoC5/CyLib.c **** /*******************************************************************************
 269:.\Generated_Source\PSoC5/CyLib.c **** * Function Name: CyIMO_Start
 270:.\Generated_Source\PSoC5/CyLib.c **** ********************************************************************************
 271:.\Generated_Source\PSoC5/CyLib.c **** *
 272:.\Generated_Source\PSoC5/CyLib.c **** * Summary:
 273:.\Generated_Source\PSoC5/CyLib.c **** *  Enables the IMO. Optionally waits at least 6 us for it to settle.
 274:.\Generated_Source\PSoC5/CyLib.c **** *
 275:.\Generated_Source\PSoC5/CyLib.c **** * Parameters:
 276:.\Generated_Source\PSoC5/CyLib.c **** *  uint8 wait:
 277:.\Generated_Source\PSoC5/CyLib.c **** *   0: Return immediately after configuration
 278:.\Generated_Source\PSoC5/CyLib.c **** *   1: Wait for at least 6 us for the IMO to settle.
 279:.\Generated_Source\PSoC5/CyLib.c **** *
 280:.\Generated_Source\PSoC5/CyLib.c **** * Return:
 281:.\Generated_Source\PSoC5/CyLib.c **** *  None
 282:.\Generated_Source\PSoC5/CyLib.c **** *
 283:.\Generated_Source\PSoC5/CyLib.c **** * Side Effects:
 284:.\Generated_Source\PSoC5/CyLib.c **** *  If wait is enabled: This function wses the Fast Time Wheel to time the wait.
 285:.\Generated_Source\PSoC5/CyLib.c **** *  Any other use of the Fast Time Wheel will be stopped during the period of
 286:.\Generated_Source\PSoC5/CyLib.c **** *  this function and then restored. This function also uses the 100 KHz ILO.
 287:.\Generated_Source\PSoC5/CyLib.c **** *  If not enabled, this function will enable the 100 KHz ILO for the period of
 288:.\Generated_Source\PSoC5/CyLib.c **** *  this function.
 289:.\Generated_Source\PSoC5/CyLib.c **** *
 290:.\Generated_Source\PSoC5/CyLib.c **** *  No changes to the setup of the ILO, Fast Time Wheel, Central Time Wheel or
 291:.\Generated_Source\PSoC5/CyLib.c **** *  Once Per Second interrupt may be made by interrupt routines during the period
 292:.\Generated_Source\PSoC5/CyLib.c **** *  of this function execution. The current operation of the ILO, Central Time
 293:.\Generated_Source\PSoC5/CyLib.c **** *  Wheel and Once Per Second interrupt are maintained during the operation of
 294:.\Generated_Source\PSoC5/CyLib.c **** *  this function provided the reading of the Power Manager Interrupt Status
 295:.\Generated_Source\PSoC5/CyLib.c **** *  Register is only done using the CyPmReadStatus() function.
 296:.\Generated_Source\PSoC5/CyLib.c **** *
 297:.\Generated_Source\PSoC5/CyLib.c **** *******************************************************************************/
 298:.\Generated_Source\PSoC5/CyLib.c **** void CyIMO_Start(uint8 wait) 
 299:.\Generated_Source\PSoC5/CyLib.c **** {
 300:.\Generated_Source\PSoC5/CyLib.c ****     uint8 pmFtwCfg2Reg;
 301:.\Generated_Source\PSoC5/CyLib.c ****     uint8 pmFtwCfg0Reg;
 302:.\Generated_Source\PSoC5/CyLib.c ****     uint8 iloControlReg;
 303:.\Generated_Source\PSoC5/CyLib.c **** 
 304:.\Generated_Source\PSoC5/CyLib.c ****     /* Set the bit to enable the clock. */
 305:.\Generated_Source\PSoC5/CyLib.c ****     PM_ACT_CFG0 |= IMO_PM_ENABLE;
 306:.\Generated_Source\PSoC5/CyLib.c **** 
 307:.\Generated_Source\PSoC5/CyLib.c ****     /* Wait for 6 us */
ARM GAS  C:\Users\SUZUKI~1\AppData\Local\Temp\cc9L9var.s 			page 9


 308:.\Generated_Source\PSoC5/CyLib.c ****     if(0u != wait)
 309:.\Generated_Source\PSoC5/CyLib.c ****     {
 310:.\Generated_Source\PSoC5/CyLib.c ****         /* Need to turn on the 100KHz ILO if it happens to not already be running.*/
 311:.\Generated_Source\PSoC5/CyLib.c ****         iloControlReg = SLOWCLK_ILO_CR0;
 312:.\Generated_Source\PSoC5/CyLib.c **** 
 313:.\Generated_Source\PSoC5/CyLib.c ****         if(0u == (iloControlReg & ILO_CONTROL_100KHZ_ON))
 314:.\Generated_Source\PSoC5/CyLib.c ****         {
 315:.\Generated_Source\PSoC5/CyLib.c ****             CyILO_Start100K();
 316:.\Generated_Source\PSoC5/CyLib.c ****         }
 317:.\Generated_Source\PSoC5/CyLib.c **** 
 318:.\Generated_Source\PSoC5/CyLib.c ****         /* Use ILO 100 KHz */
 319:.\Generated_Source\PSoC5/CyLib.c ****         pmFtwCfg2Reg = PM_TW_CFG2;
 320:.\Generated_Source\PSoC5/CyLib.c ****         pmFtwCfg0Reg = PM_TW_CFG0;
 321:.\Generated_Source\PSoC5/CyLib.c **** 
 322:.\Generated_Source\PSoC5/CyLib.c ****         /* FTW_EN (bit 0) must be clear to change the period*/
 323:.\Generated_Source\PSoC5/CyLib.c ****         PM_TW_CFG2 &= FTW_CLEAR_FTW_BITS;
 324:.\Generated_Source\PSoC5/CyLib.c **** 
 325:.\Generated_Source\PSoC5/CyLib.c ****         /* Set the FTW interval of 1 100KHz ILO clocks
 326:.\Generated_Source\PSoC5/CyLib.c ****         Should result in status getting set at a (100/1)KHz rate*/
 327:.\Generated_Source\PSoC5/CyLib.c ****         PM_TW_CFG0 = 0u;
 328:.\Generated_Source\PSoC5/CyLib.c **** 
 329:.\Generated_Source\PSoC5/CyLib.c ****         /* Enable FTW, but not the interrupt */
 330:.\Generated_Source\PSoC5/CyLib.c ****         PM_TW_CFG2 = FTW_ENABLE;
 331:.\Generated_Source\PSoC5/CyLib.c **** 
 332:.\Generated_Source\PSoC5/CyLib.c ****         /* Read FTW value */
 333:.\Generated_Source\PSoC5/CyLib.c ****         while (CyPmReadStatus(CY_PM_FTW_INT) == 0u)
 334:.\Generated_Source\PSoC5/CyLib.c ****         {
 335:.\Generated_Source\PSoC5/CyLib.c ****             /* Wait for the interrupt status */
 336:.\Generated_Source\PSoC5/CyLib.c ****         }
 337:.\Generated_Source\PSoC5/CyLib.c **** 
 338:.\Generated_Source\PSoC5/CyLib.c ****         /* Reset the clock */
 339:.\Generated_Source\PSoC5/CyLib.c ****         if(0u == (iloControlReg & ILO_CONTROL_100KHZ_ON))
 340:.\Generated_Source\PSoC5/CyLib.c ****         {
 341:.\Generated_Source\PSoC5/CyLib.c ****             CyILO_Stop100K();
 342:.\Generated_Source\PSoC5/CyLib.c ****         }
 343:.\Generated_Source\PSoC5/CyLib.c **** 
 344:.\Generated_Source\PSoC5/CyLib.c ****         /* Restore the FTW */
 345:.\Generated_Source\PSoC5/CyLib.c ****         PM_TW_CFG0 = pmFtwCfg0Reg;
 346:.\Generated_Source\PSoC5/CyLib.c ****         PM_TW_CFG2 = pmFtwCfg2Reg;
 347:.\Generated_Source\PSoC5/CyLib.c ****     }
 348:.\Generated_Source\PSoC5/CyLib.c **** }
 349:.\Generated_Source\PSoC5/CyLib.c **** 
 350:.\Generated_Source\PSoC5/CyLib.c **** 
 351:.\Generated_Source\PSoC5/CyLib.c **** /*******************************************************************************
 352:.\Generated_Source\PSoC5/CyLib.c **** * Function Name: CyIMO_Stop
 353:.\Generated_Source\PSoC5/CyLib.c **** ********************************************************************************
 354:.\Generated_Source\PSoC5/CyLib.c **** *
 355:.\Generated_Source\PSoC5/CyLib.c **** * Summary:
 356:.\Generated_Source\PSoC5/CyLib.c **** *   Disables the IMO.
 357:.\Generated_Source\PSoC5/CyLib.c **** *
 358:.\Generated_Source\PSoC5/CyLib.c **** * Parameters:
 359:.\Generated_Source\PSoC5/CyLib.c **** *  None
 360:.\Generated_Source\PSoC5/CyLib.c **** *
 361:.\Generated_Source\PSoC5/CyLib.c **** * Return:
 362:.\Generated_Source\PSoC5/CyLib.c **** *  None
 363:.\Generated_Source\PSoC5/CyLib.c **** *
 364:.\Generated_Source\PSoC5/CyLib.c **** *******************************************************************************/
ARM GAS  C:\Users\SUZUKI~1\AppData\Local\Temp\cc9L9var.s 			page 10


 365:.\Generated_Source\PSoC5/CyLib.c **** void CyIMO_Stop(void) 
 366:.\Generated_Source\PSoC5/CyLib.c **** {
 146              		.loc 1 366 0
 147              		.cfi_startproc
 148              		@ args = 0, pretend = 0, frame = 0
 149              		@ frame_needed = 0, uses_anonymous_args = 0
 150              		@ link register save eliminated.
 367:.\Generated_Source\PSoC5/CyLib.c ****     /* Clear the bit to disable the clock. */
 368:.\Generated_Source\PSoC5/CyLib.c ****     PM_ACT_CFG0 &= ((uint8)(~IMO_PM_ENABLE));
 151              		.loc 1 368 0
 152 0000 024B     		ldr	r3, .L19
 153 0002 1A78     		ldrb	r2, [r3, #0]	@ zero_extendqisi2
 154 0004 02F0EF02 		and	r2, r2, #239
 155 0008 1A70     		strb	r2, [r3, #0]
 369:.\Generated_Source\PSoC5/CyLib.c **** }
 156              		.loc 1 369 0
 157 000a 7047     		bx	lr
 158              	.L20:
 159              		.align	2
 160              	.L19:
 161 000c A0430040 		.word	1073759136
 162              		.cfi_endproc
 163              	.LFE5:
 164              		.size	CyIMO_Stop, .-CyIMO_Stop
 165              		.section	.text.CyIMO_SetTrimValue,"ax",%progbits
 166              		.align	1
 167              		.thumb
 168              		.thumb_func
 169              		.type	CyIMO_SetTrimValue, %function
 170              	CyIMO_SetTrimValue:
 171              	.LFB7:
 370:.\Generated_Source\PSoC5/CyLib.c **** 
 371:.\Generated_Source\PSoC5/CyLib.c **** 
 372:.\Generated_Source\PSoC5/CyLib.c **** /*******************************************************************************
 373:.\Generated_Source\PSoC5/CyLib.c **** * Function Name: CyUSB_PowerOnCheck
 374:.\Generated_Source\PSoC5/CyLib.c **** ********************************************************************************
 375:.\Generated_Source\PSoC5/CyLib.c **** *
 376:.\Generated_Source\PSoC5/CyLib.c **** * Summary:
 377:.\Generated_Source\PSoC5/CyLib.c **** *  Returns the USB power status value. A private function to cy_boot.
 378:.\Generated_Source\PSoC5/CyLib.c **** *
 379:.\Generated_Source\PSoC5/CyLib.c **** * Parameters:
 380:.\Generated_Source\PSoC5/CyLib.c **** *   None
 381:.\Generated_Source\PSoC5/CyLib.c **** *
 382:.\Generated_Source\PSoC5/CyLib.c **** * Return:
 383:.\Generated_Source\PSoC5/CyLib.c **** *   uint8: one if the USB is enabled, 0 if not enabled.
 384:.\Generated_Source\PSoC5/CyLib.c **** *
 385:.\Generated_Source\PSoC5/CyLib.c **** *******************************************************************************/
 386:.\Generated_Source\PSoC5/CyLib.c **** static uint8 CyUSB_PowerOnCheck(void)  
 387:.\Generated_Source\PSoC5/CyLib.c **** {
 388:.\Generated_Source\PSoC5/CyLib.c ****     uint8 poweredOn = 0u;
 389:.\Generated_Source\PSoC5/CyLib.c **** 
 390:.\Generated_Source\PSoC5/CyLib.c ****     /* Check whether device is in Active or AltActiv and if USB is powered on */
 391:.\Generated_Source\PSoC5/CyLib.c ****     if((((CY_PM_MODE_CSR_REG & CY_PM_MODE_CSR_MASK) == CY_PM_MODE_CSR_ACTIVE ) &&
 392:.\Generated_Source\PSoC5/CyLib.c ****        (0u != (CY_PM_ACT_CFG5_REG & CY_ACT_USB_ENABLED     )))  ||
 393:.\Generated_Source\PSoC5/CyLib.c ****        (((CY_PM_MODE_CSR_REG & CY_PM_MODE_CSR_MASK) == CY_PM_MODE_CSR_ALT_ACT) &&
 394:.\Generated_Source\PSoC5/CyLib.c ****        (0u != (CY_PM_STBY_CFG5_REG & CY_ALT_ACT_USB_ENABLED))))
 395:.\Generated_Source\PSoC5/CyLib.c ****     {
ARM GAS  C:\Users\SUZUKI~1\AppData\Local\Temp\cc9L9var.s 			page 11


 396:.\Generated_Source\PSoC5/CyLib.c ****         poweredOn = 1u;
 397:.\Generated_Source\PSoC5/CyLib.c ****     }
 398:.\Generated_Source\PSoC5/CyLib.c **** 
 399:.\Generated_Source\PSoC5/CyLib.c ****     return (poweredOn);
 400:.\Generated_Source\PSoC5/CyLib.c **** }
 401:.\Generated_Source\PSoC5/CyLib.c **** 
 402:.\Generated_Source\PSoC5/CyLib.c **** 
 403:.\Generated_Source\PSoC5/CyLib.c **** /*******************************************************************************
 404:.\Generated_Source\PSoC5/CyLib.c **** * Function Name: CyIMO_SetTrimValue
 405:.\Generated_Source\PSoC5/CyLib.c **** ********************************************************************************
 406:.\Generated_Source\PSoC5/CyLib.c **** *
 407:.\Generated_Source\PSoC5/CyLib.c **** * Summary:
 408:.\Generated_Source\PSoC5/CyLib.c **** *  Sets the IMO factory trim values.
 409:.\Generated_Source\PSoC5/CyLib.c **** *
 410:.\Generated_Source\PSoC5/CyLib.c **** * Parameters:
 411:.\Generated_Source\PSoC5/CyLib.c **** *  uint8 freq - frequency for which trims must be set
 412:.\Generated_Source\PSoC5/CyLib.c **** *
 413:.\Generated_Source\PSoC5/CyLib.c **** * Return:
 414:.\Generated_Source\PSoC5/CyLib.c **** *  None
 415:.\Generated_Source\PSoC5/CyLib.c **** *
 416:.\Generated_Source\PSoC5/CyLib.c **** *******************************************************************************/
 417:.\Generated_Source\PSoC5/CyLib.c **** static void CyIMO_SetTrimValue(uint8 freq) 
 418:.\Generated_Source\PSoC5/CyLib.c **** {
 172              		.loc 1 418 0
 173              		.cfi_startproc
 174              		@ args = 0, pretend = 0, frame = 0
 175              		@ frame_needed = 0, uses_anonymous_args = 0
 176              		@ link register save eliminated.
 177              	.LVL7:
 178              	.LBB4:
 179              	.LBB5:
 180              		.loc 1 391 0
 181 0000 1E4B     		ldr	r3, .L37
 182 0002 1B78     		ldrb	r3, [r3, #0]	@ zero_extendqisi2
 183 0004 13F0070F 		tst	r3, #7
 184 0008 04D1     		bne	.L22
 185              		.loc 1 392 0
 186 000a 1D4B     		ldr	r3, .L37+4
 187 000c 1B78     		ldrb	r3, [r3, #0]	@ zero_extendqisi2
 188              		.loc 1 391 0
 189 000e 13F0010F 		tst	r3, #1
 190 0012 2BD1     		bne	.L23
 191              	.L22:
 192              		.loc 1 393 0
 193 0014 194B     		ldr	r3, .L37
 194 0016 1B78     		ldrb	r3, [r3, #0]	@ zero_extendqisi2
 195              		.loc 1 391 0
 196 0018 03F00703 		and	r3, r3, #7
 197 001c 012B     		cmp	r3, #1
 198 001e 04D1     		bne	.L24
 199              		.loc 1 394 0
 200 0020 184B     		ldr	r3, .L37+8
 201 0022 1B78     		ldrb	r3, [r3, #0]	@ zero_extendqisi2
 202              		.loc 1 391 0
 203 0024 13F0010F 		tst	r3, #1
 204 0028 20D1     		bne	.L23
 205              	.L24:
ARM GAS  C:\Users\SUZUKI~1\AppData\Local\Temp\cc9L9var.s 			page 12


 206 002a 0023     		movs	r3, #0
 207              	.LVL8:
 208              	.L33:
 209              	.LBE5:
 210              	.LBE4:
 419:.\Generated_Source\PSoC5/CyLib.c ****     uint8 usb_power_on = CyUSB_PowerOnCheck();
 420:.\Generated_Source\PSoC5/CyLib.c **** 
 421:.\Generated_Source\PSoC5/CyLib.c ****     /* If USB is powered */
 422:.\Generated_Source\PSoC5/CyLib.c ****     if(usb_power_on == 1u)
 423:.\Generated_Source\PSoC5/CyLib.c ****     {
 424:.\Generated_Source\PSoC5/CyLib.c ****         /* Unlock USB write */
 425:.\Generated_Source\PSoC5/CyLib.c ****         CY_USB_CR1 &= ((uint8)(~CLOCK_USB_ENABLE));
 426:.\Generated_Source\PSoC5/CyLib.c ****     }
 427:.\Generated_Source\PSoC5/CyLib.c ****     switch(freq)
 211              		.loc 1 427 0
 212 002c 0828     		cmp	r0, #8
 213 002e 24D8     		bhi	.L34
 214 0030 DFE800F0 		tbb	[pc, r0]
 215              	.L32:
 216 0034 05       		.byte	(.L26-.L32)/2
 217 0035 07       		.byte	(.L27-.L32)/2
 218 0036 09       		.byte	(.L28-.L32)/2
 219 0037 0B       		.byte	(.L29-.L32)/2
 220 0038 0D       		.byte	(.L30-.L32)/2
 221 0039 23       		.byte	(.L34-.L32)/2
 222 003a 23       		.byte	(.L34-.L32)/2
 223 003b 23       		.byte	(.L34-.L32)/2
 224 003c 11       		.byte	(.L31-.L32)/2
 225 003d 00       		.align	1
 226              	.L26:
 428:.\Generated_Source\PSoC5/CyLib.c ****     {
 429:.\Generated_Source\PSoC5/CyLib.c ****     case CY_IMO_FREQ_3MHZ:
 430:.\Generated_Source\PSoC5/CyLib.c ****         IMO_TR1 = CY_GET_XTND_REG8(FLSHID_CUST_TABLES_IMO_3MHZ_PTR);
 227              		.loc 1 430 0
 228 003e 124B     		ldr	r3, .L37+12
 229              	.LVL9:
 230 0040 06E0     		b	.L36
 231              	.LVL10:
 232              	.L27:
 431:.\Generated_Source\PSoC5/CyLib.c ****         break;
 432:.\Generated_Source\PSoC5/CyLib.c **** 
 433:.\Generated_Source\PSoC5/CyLib.c ****     case CY_IMO_FREQ_6MHZ:
 434:.\Generated_Source\PSoC5/CyLib.c ****         IMO_TR1 = CY_GET_XTND_REG8(FLSHID_CUST_TABLES_IMO_6MHZ_PTR);
 233              		.loc 1 434 0
 234 0042 124B     		ldr	r3, .L37+16
 235              	.LVL11:
 236 0044 04E0     		b	.L36
 237              	.LVL12:
 238              	.L28:
 435:.\Generated_Source\PSoC5/CyLib.c ****         break;
 436:.\Generated_Source\PSoC5/CyLib.c **** 
 437:.\Generated_Source\PSoC5/CyLib.c ****     case CY_IMO_FREQ_12MHZ:
 438:.\Generated_Source\PSoC5/CyLib.c ****         IMO_TR1 = CY_GET_XTND_REG8(FLSHID_CUST_TABLES_IMO_12MHZ_PTR);
 239              		.loc 1 438 0
 240 0046 124B     		ldr	r3, .L37+20
 241              	.LVL13:
 242 0048 02E0     		b	.L36
ARM GAS  C:\Users\SUZUKI~1\AppData\Local\Temp\cc9L9var.s 			page 13


 243              	.LVL14:
 244              	.L29:
 439:.\Generated_Source\PSoC5/CyLib.c ****         break;
 440:.\Generated_Source\PSoC5/CyLib.c **** 
 441:.\Generated_Source\PSoC5/CyLib.c ****     case CY_IMO_FREQ_24MHZ:
 442:.\Generated_Source\PSoC5/CyLib.c ****         IMO_TR1 = CY_GET_XTND_REG8(FLSHID_CUST_TABLES_IMO_24MHZ_PTR);
 245              		.loc 1 442 0
 246 004a 124B     		ldr	r3, .L37+24
 247              	.LVL15:
 248 004c 00E0     		b	.L36
 249              	.LVL16:
 250              	.L30:
 443:.\Generated_Source\PSoC5/CyLib.c ****         break;
 444:.\Generated_Source\PSoC5/CyLib.c **** 
 445:.\Generated_Source\PSoC5/CyLib.c ****     case CY_IMO_FREQ_48MHZ:
 446:.\Generated_Source\PSoC5/CyLib.c ****         IMO_TR1 = CY_GET_XTND_REG8(FLSHID_MFG_CFG_IMO_TR1_PTR);
 251              		.loc 1 446 0
 252 004e 124B     		ldr	r3, .L37+28
 253              	.LVL17:
 254              	.L36:
 255 0050 1A78     		ldrb	r2, [r3, #0]	@ zero_extendqisi2
 256 0052 124B     		ldr	r3, .L37+32
 257 0054 08E0     		b	.L35
 258              	.LVL18:
 259              	.L31:
 447:.\Generated_Source\PSoC5/CyLib.c ****         break;
 448:.\Generated_Source\PSoC5/CyLib.c **** 
 449:.\Generated_Source\PSoC5/CyLib.c ****     /* The IMO frequencies above 48 MHz are not supported by PSoC5 */
 450:.\Generated_Source\PSoC5/CyLib.c ****     #if(!CY_PSOC5A)
 451:.\Generated_Source\PSoC5/CyLib.c **** 
 452:.\Generated_Source\PSoC5/CyLib.c ****         case CY_IMO_FREQ_62MHZ:
 453:.\Generated_Source\PSoC5/CyLib.c ****             IMO_TR1 = CY_GET_XTND_REG8(FLSHID_CUST_TABLES_IMO_67MHZ_PTR);
 454:.\Generated_Source\PSoC5/CyLib.c ****             break;
 455:.\Generated_Source\PSoC5/CyLib.c **** 
 456:.\Generated_Source\PSoC5/CyLib.c ****     #endif  /* (!CY_PSOC5A) */
 457:.\Generated_Source\PSoC5/CyLib.c **** 
 458:.\Generated_Source\PSoC5/CyLib.c ****     case CY_IMO_FREQ_USB:
 459:.\Generated_Source\PSoC5/CyLib.c ****         IMO_TR1 = CY_GET_XTND_REG8(FLSHID_CUST_TABLES_IMO_USB_PTR);
 260              		.loc 1 459 0
 261 0056 124A     		ldr	r2, .L37+36
 262 0058 1178     		ldrb	r1, [r2, #0]	@ zero_extendqisi2
 263 005a 104A     		ldr	r2, .L37+32
 264 005c 1170     		strb	r1, [r2, #0]
 460:.\Generated_Source\PSoC5/CyLib.c **** 
 461:.\Generated_Source\PSoC5/CyLib.c ****         /* If USB is powered */
 462:.\Generated_Source\PSoC5/CyLib.c ****         if(usb_power_on == 1u)
 265              		.loc 1 462 0
 266 005e 63B1     		cbz	r3, .L34
 463:.\Generated_Source\PSoC5/CyLib.c ****         {
 464:.\Generated_Source\PSoC5/CyLib.c ****             /* Lock the USB Oscillator */
 465:.\Generated_Source\PSoC5/CyLib.c ****             CY_USB_CR1 |= CLOCK_USB_ENABLE;
 267              		.loc 1 465 0
 268 0060 104B     		ldr	r3, .L37+40
 269              	.LVL19:
 270 0062 1A78     		ldrb	r2, [r3, #0]	@ zero_extendqisi2
 271 0064 42F00202 		orr	r2, r2, #2
 272              	.L35:
ARM GAS  C:\Users\SUZUKI~1\AppData\Local\Temp\cc9L9var.s 			page 14


 273 0068 1A70     		strb	r2, [r3, #0]
 274 006a 7047     		bx	lr
 275              	.L23:
 276              		.loc 1 425 0
 277 006c 0D4B     		ldr	r3, .L37+40
 278 006e 1A78     		ldrb	r2, [r3, #0]	@ zero_extendqisi2
 279 0070 02F0FD02 		and	r2, r2, #253
 280 0074 1A70     		strb	r2, [r3, #0]
 281 0076 0123     		movs	r3, #1
 282              	.LVL20:
 283 0078 D8E7     		b	.L33
 284              	.L34:
 285 007a 7047     		bx	lr
 286              	.L38:
 287              		.align	2
 288              	.L37:
 289 007c 93430040 		.word	1073759123
 290 0080 A5430040 		.word	1073759141
 291 0084 B5430040 		.word	1073759157
 292 0088 08010049 		.word	1224737032
 293 008c 09010049 		.word	1224737033
 294 0090 0A010049 		.word	1224737034
 295 0094 0B010049 		.word	1224737035
 296 0098 83010049 		.word	1224737155
 297 009c A1460040 		.word	1073759905
 298 00a0 0F010049 		.word	1224737039
 299 00a4 09600040 		.word	1073766409
 300              		.cfi_endproc
 301              	.LFE7:
 302              		.size	CyIMO_SetTrimValue, .-CyIMO_SetTrimValue
 303              		.section	.text.CyIMO_SetSource,"ax",%progbits
 304              		.align	1
 305              		.global	CyIMO_SetSource
 306              		.thumb
 307              		.thumb_func
 308              		.type	CyIMO_SetSource, %function
 309              	CyIMO_SetSource:
 310              	.LFB9:
 466:.\Generated_Source\PSoC5/CyLib.c ****         }
 467:.\Generated_Source\PSoC5/CyLib.c ****         break;
 468:.\Generated_Source\PSoC5/CyLib.c **** 
 469:.\Generated_Source\PSoC5/CyLib.c ****     default:
 470:.\Generated_Source\PSoC5/CyLib.c ****             CYASSERT(0u != 0u);
 471:.\Generated_Source\PSoC5/CyLib.c ****         break;
 472:.\Generated_Source\PSoC5/CyLib.c ****     }
 473:.\Generated_Source\PSoC5/CyLib.c **** 
 474:.\Generated_Source\PSoC5/CyLib.c **** }
 475:.\Generated_Source\PSoC5/CyLib.c **** 
 476:.\Generated_Source\PSoC5/CyLib.c **** 
 477:.\Generated_Source\PSoC5/CyLib.c **** /*******************************************************************************
 478:.\Generated_Source\PSoC5/CyLib.c **** * Function Name: CyIMO_SetFreq
 479:.\Generated_Source\PSoC5/CyLib.c **** ********************************************************************************
 480:.\Generated_Source\PSoC5/CyLib.c **** *
 481:.\Generated_Source\PSoC5/CyLib.c **** * Summary:
 482:.\Generated_Source\PSoC5/CyLib.c **** *  Sets the frequency of the IMO. Changes may be made while the IMO is running.
 483:.\Generated_Source\PSoC5/CyLib.c **** *
 484:.\Generated_Source\PSoC5/CyLib.c **** * Parameters:
ARM GAS  C:\Users\SUZUKI~1\AppData\Local\Temp\cc9L9var.s 			page 15


 485:.\Generated_Source\PSoC5/CyLib.c **** *  freq: Frequency of IMO operation
 486:.\Generated_Source\PSoC5/CyLib.c **** *       CY_IMO_FREQ_3MHZ  to set  3   MHz
 487:.\Generated_Source\PSoC5/CyLib.c **** *       CY_IMO_FREQ_6MHZ  to set  6   MHz
 488:.\Generated_Source\PSoC5/CyLib.c **** *       CY_IMO_FREQ_12MHZ to set 12   MHz
 489:.\Generated_Source\PSoC5/CyLib.c **** *       CY_IMO_FREQ_24MHZ to set 24   MHz
 490:.\Generated_Source\PSoC5/CyLib.c **** *       CY_IMO_FREQ_48MHZ to set 48   MHz
 491:.\Generated_Source\PSoC5/CyLib.c **** *       CY_IMO_FREQ_62MHZ to set 62 MHz (unsupported by PSoC 5)
 492:.\Generated_Source\PSoC5/CyLib.c **** *       CY_IMO_FREQ_USB   to set 24   MHz (Trimmed for USB operation)
 493:.\Generated_Source\PSoC5/CyLib.c **** *
 494:.\Generated_Source\PSoC5/CyLib.c **** * Return:
 495:.\Generated_Source\PSoC5/CyLib.c **** *  None
 496:.\Generated_Source\PSoC5/CyLib.c **** *
 497:.\Generated_Source\PSoC5/CyLib.c **** * Side Effects:
 498:.\Generated_Source\PSoC5/CyLib.c **** *  If as result of this function execution the CPU clock frequency is increased
 499:.\Generated_Source\PSoC5/CyLib.c **** *  then the number of clock cycles the cache will wait before it samples data
 500:.\Generated_Source\PSoC5/CyLib.c **** *  coming back from Flash must be adjusted by calling CyFlash_SetWaitCycles()
 501:.\Generated_Source\PSoC5/CyLib.c **** *  with appropriate parameter. It can be optionally called if CPU clock
 502:.\Generated_Source\PSoC5/CyLib.c **** *  frequency is lowered in order to improve CPU performance.
 503:.\Generated_Source\PSoC5/CyLib.c **** *  See CyFlash_SetWaitCycles() description for more information.
 504:.\Generated_Source\PSoC5/CyLib.c **** *
 505:.\Generated_Source\PSoC5/CyLib.c **** *  When the USB setting is chosen, the USB clock locking circuit is enabled.
 506:.\Generated_Source\PSoC5/CyLib.c **** *  Otherwise this circuit is disabled. The USB block must be powered before
 507:.\Generated_Source\PSoC5/CyLib.c **** *  selecting the USB setting.
 508:.\Generated_Source\PSoC5/CyLib.c **** *
 509:.\Generated_Source\PSoC5/CyLib.c **** *******************************************************************************/
 510:.\Generated_Source\PSoC5/CyLib.c **** void CyIMO_SetFreq(uint8 freq) 
 511:.\Generated_Source\PSoC5/CyLib.c **** {
 512:.\Generated_Source\PSoC5/CyLib.c ****     uint8 currentFreq;
 513:.\Generated_Source\PSoC5/CyLib.c ****     uint8 nextFreq;
 514:.\Generated_Source\PSoC5/CyLib.c **** 
 515:.\Generated_Source\PSoC5/CyLib.c ****     /***************************************************************************
 516:.\Generated_Source\PSoC5/CyLib.c ****     * When changing the IMO frequency the Trim values must also be set
 517:.\Generated_Source\PSoC5/CyLib.c ****     * accordingly.This requires reading the current frequency. If the new
 518:.\Generated_Source\PSoC5/CyLib.c ****     * frequency is faster, then set the new trim and then change the frequency,
 519:.\Generated_Source\PSoC5/CyLib.c ****     * otherwise change the frequency and then set the new trim values.
 520:.\Generated_Source\PSoC5/CyLib.c ****     ***************************************************************************/
 521:.\Generated_Source\PSoC5/CyLib.c **** 
 522:.\Generated_Source\PSoC5/CyLib.c ****     currentFreq = CY_LIB_FASTCLK_IMO_CR_REG & ((uint8)(~CY_LIB_FASTCLK_IMO_CR_RANGE_MASK));
 523:.\Generated_Source\PSoC5/CyLib.c **** 
 524:.\Generated_Source\PSoC5/CyLib.c ****     /* Check if the requested frequency is USB. */
 525:.\Generated_Source\PSoC5/CyLib.c ****     nextFreq = (freq == CY_IMO_FREQ_USB) ? CY_IMO_FREQ_24MHZ : freq;
 526:.\Generated_Source\PSoC5/CyLib.c **** 
 527:.\Generated_Source\PSoC5/CyLib.c ****     switch (currentFreq)
 528:.\Generated_Source\PSoC5/CyLib.c ****     {
 529:.\Generated_Source\PSoC5/CyLib.c ****     case 0u:
 530:.\Generated_Source\PSoC5/CyLib.c ****         currentFreq = CY_IMO_FREQ_12MHZ;
 531:.\Generated_Source\PSoC5/CyLib.c ****         break;
 532:.\Generated_Source\PSoC5/CyLib.c **** 
 533:.\Generated_Source\PSoC5/CyLib.c ****     case 1u:
 534:.\Generated_Source\PSoC5/CyLib.c ****         currentFreq = CY_IMO_FREQ_6MHZ;
 535:.\Generated_Source\PSoC5/CyLib.c ****         break;
 536:.\Generated_Source\PSoC5/CyLib.c **** 
 537:.\Generated_Source\PSoC5/CyLib.c ****     case 2u:
 538:.\Generated_Source\PSoC5/CyLib.c ****         currentFreq = CY_IMO_FREQ_24MHZ;
 539:.\Generated_Source\PSoC5/CyLib.c ****         break;
 540:.\Generated_Source\PSoC5/CyLib.c **** 
 541:.\Generated_Source\PSoC5/CyLib.c ****     case 3u:
ARM GAS  C:\Users\SUZUKI~1\AppData\Local\Temp\cc9L9var.s 			page 16


 542:.\Generated_Source\PSoC5/CyLib.c ****         currentFreq = CY_IMO_FREQ_3MHZ;
 543:.\Generated_Source\PSoC5/CyLib.c ****         break;
 544:.\Generated_Source\PSoC5/CyLib.c **** 
 545:.\Generated_Source\PSoC5/CyLib.c ****     case 4u:
 546:.\Generated_Source\PSoC5/CyLib.c ****         currentFreq = CY_IMO_FREQ_48MHZ;
 547:.\Generated_Source\PSoC5/CyLib.c ****         break;
 548:.\Generated_Source\PSoC5/CyLib.c **** 
 549:.\Generated_Source\PSoC5/CyLib.c ****     /* The IMO frequencies above 48 MHz are not supported by PSoC5 */
 550:.\Generated_Source\PSoC5/CyLib.c ****     #if(!CY_PSOC5A)
 551:.\Generated_Source\PSoC5/CyLib.c **** 
 552:.\Generated_Source\PSoC5/CyLib.c ****         case 5u:
 553:.\Generated_Source\PSoC5/CyLib.c ****             currentFreq = CY_IMO_FREQ_62MHZ;
 554:.\Generated_Source\PSoC5/CyLib.c ****             break;
 555:.\Generated_Source\PSoC5/CyLib.c **** 
 556:.\Generated_Source\PSoC5/CyLib.c ****     #endif  /* (!CY_PSOC5A) */
 557:.\Generated_Source\PSoC5/CyLib.c **** 
 558:.\Generated_Source\PSoC5/CyLib.c ****     default:
 559:.\Generated_Source\PSoC5/CyLib.c ****         CYASSERT(0u != 0u);
 560:.\Generated_Source\PSoC5/CyLib.c ****         break;
 561:.\Generated_Source\PSoC5/CyLib.c ****     }
 562:.\Generated_Source\PSoC5/CyLib.c **** 
 563:.\Generated_Source\PSoC5/CyLib.c ****     if (nextFreq >= currentFreq)
 564:.\Generated_Source\PSoC5/CyLib.c ****     {
 565:.\Generated_Source\PSoC5/CyLib.c ****         /* Set the new trim first */
 566:.\Generated_Source\PSoC5/CyLib.c ****         CyIMO_SetTrimValue(freq);
 567:.\Generated_Source\PSoC5/CyLib.c ****     }
 568:.\Generated_Source\PSoC5/CyLib.c **** 
 569:.\Generated_Source\PSoC5/CyLib.c ****     /* Set the usbclk_on bit when using CY_IMO_FREQ_USB, if not clear it */
 570:.\Generated_Source\PSoC5/CyLib.c ****     switch(freq)
 571:.\Generated_Source\PSoC5/CyLib.c ****     {
 572:.\Generated_Source\PSoC5/CyLib.c ****     case CY_IMO_FREQ_3MHZ:
 573:.\Generated_Source\PSoC5/CyLib.c ****         CY_LIB_FASTCLK_IMO_CR_REG = ((CY_LIB_FASTCLK_IMO_CR_REG & CY_LIB_FASTCLK_IMO_CR_RANGE_MASK)
 574:.\Generated_Source\PSoC5/CyLib.c ****             CLOCK_IMO_3MHZ_VALUE) & ((uint8)(~FASTCLK_IMO_USBCLK_ON_SET));
 575:.\Generated_Source\PSoC5/CyLib.c ****         break;
 576:.\Generated_Source\PSoC5/CyLib.c **** 
 577:.\Generated_Source\PSoC5/CyLib.c ****     case CY_IMO_FREQ_6MHZ:
 578:.\Generated_Source\PSoC5/CyLib.c ****         CY_LIB_FASTCLK_IMO_CR_REG = ((CY_LIB_FASTCLK_IMO_CR_REG & CY_LIB_FASTCLK_IMO_CR_RANGE_MASK)
 579:.\Generated_Source\PSoC5/CyLib.c ****             CLOCK_IMO_6MHZ_VALUE) & ((uint8)(~FASTCLK_IMO_USBCLK_ON_SET));
 580:.\Generated_Source\PSoC5/CyLib.c ****         break;
 581:.\Generated_Source\PSoC5/CyLib.c **** 
 582:.\Generated_Source\PSoC5/CyLib.c ****     case CY_IMO_FREQ_12MHZ:
 583:.\Generated_Source\PSoC5/CyLib.c ****         CY_LIB_FASTCLK_IMO_CR_REG = ((CY_LIB_FASTCLK_IMO_CR_REG & CY_LIB_FASTCLK_IMO_CR_RANGE_MASK)
 584:.\Generated_Source\PSoC5/CyLib.c ****             CLOCK_IMO_12MHZ_VALUE) & ((uint8)(~FASTCLK_IMO_USBCLK_ON_SET));
 585:.\Generated_Source\PSoC5/CyLib.c ****         break;
 586:.\Generated_Source\PSoC5/CyLib.c **** 
 587:.\Generated_Source\PSoC5/CyLib.c ****     case CY_IMO_FREQ_24MHZ:
 588:.\Generated_Source\PSoC5/CyLib.c ****         CY_LIB_FASTCLK_IMO_CR_REG = ((CY_LIB_FASTCLK_IMO_CR_REG & CY_LIB_FASTCLK_IMO_CR_RANGE_MASK)
 589:.\Generated_Source\PSoC5/CyLib.c ****             CLOCK_IMO_24MHZ_VALUE) & ((uint8)(~FASTCLK_IMO_USBCLK_ON_SET));
 590:.\Generated_Source\PSoC5/CyLib.c ****         break;
 591:.\Generated_Source\PSoC5/CyLib.c **** 
 592:.\Generated_Source\PSoC5/CyLib.c ****     case CY_IMO_FREQ_48MHZ:
 593:.\Generated_Source\PSoC5/CyLib.c ****         CY_LIB_FASTCLK_IMO_CR_REG = ((CY_LIB_FASTCLK_IMO_CR_REG & CY_LIB_FASTCLK_IMO_CR_RANGE_MASK)
 594:.\Generated_Source\PSoC5/CyLib.c ****             CLOCK_IMO_48MHZ_VALUE) & ((uint8)(~FASTCLK_IMO_USBCLK_ON_SET));
 595:.\Generated_Source\PSoC5/CyLib.c ****         break;
 596:.\Generated_Source\PSoC5/CyLib.c **** 
 597:.\Generated_Source\PSoC5/CyLib.c ****     /* The IMO frequencies above 48 MHz are not supported by PSoC5 */
 598:.\Generated_Source\PSoC5/CyLib.c ****     #if(!CY_PSOC5A)
ARM GAS  C:\Users\SUZUKI~1\AppData\Local\Temp\cc9L9var.s 			page 17


 599:.\Generated_Source\PSoC5/CyLib.c **** 
 600:.\Generated_Source\PSoC5/CyLib.c ****     case CY_IMO_FREQ_62MHZ:
 601:.\Generated_Source\PSoC5/CyLib.c ****         CY_LIB_FASTCLK_IMO_CR_REG = ((CY_LIB_FASTCLK_IMO_CR_REG & CY_LIB_FASTCLK_IMO_CR_RANGE_MASK)
 602:.\Generated_Source\PSoC5/CyLib.c ****             CLOCK_IMO_62MHZ_VALUE) & ((uint8)(~FASTCLK_IMO_USBCLK_ON_SET));
 603:.\Generated_Source\PSoC5/CyLib.c ****         break;
 604:.\Generated_Source\PSoC5/CyLib.c **** 
 605:.\Generated_Source\PSoC5/CyLib.c ****     #endif  /* (!CY_PSOC5A) */
 606:.\Generated_Source\PSoC5/CyLib.c **** 
 607:.\Generated_Source\PSoC5/CyLib.c ****     case CY_IMO_FREQ_USB:
 608:.\Generated_Source\PSoC5/CyLib.c ****         CY_LIB_FASTCLK_IMO_CR_REG = ((CY_LIB_FASTCLK_IMO_CR_REG & CY_LIB_FASTCLK_IMO_CR_RANGE_MASK)
 609:.\Generated_Source\PSoC5/CyLib.c ****             CLOCK_IMO_24MHZ_VALUE) | FASTCLK_IMO_USBCLK_ON_SET;
 610:.\Generated_Source\PSoC5/CyLib.c ****         break;
 611:.\Generated_Source\PSoC5/CyLib.c **** 
 612:.\Generated_Source\PSoC5/CyLib.c ****     default:
 613:.\Generated_Source\PSoC5/CyLib.c ****         CYASSERT(0u != 0u);
 614:.\Generated_Source\PSoC5/CyLib.c ****         break;
 615:.\Generated_Source\PSoC5/CyLib.c ****     }
 616:.\Generated_Source\PSoC5/CyLib.c **** 
 617:.\Generated_Source\PSoC5/CyLib.c ****     /* Turn on the IMO Doubler, if switching to CY_IMO_FREQ_USB */
 618:.\Generated_Source\PSoC5/CyLib.c ****     if (freq == CY_IMO_FREQ_USB)
 619:.\Generated_Source\PSoC5/CyLib.c ****     {
 620:.\Generated_Source\PSoC5/CyLib.c ****         CyIMO_EnableDoubler();
 621:.\Generated_Source\PSoC5/CyLib.c ****     }
 622:.\Generated_Source\PSoC5/CyLib.c ****     else
 623:.\Generated_Source\PSoC5/CyLib.c ****     {
 624:.\Generated_Source\PSoC5/CyLib.c ****         CyIMO_DisableDoubler();
 625:.\Generated_Source\PSoC5/CyLib.c ****     }
 626:.\Generated_Source\PSoC5/CyLib.c **** 
 627:.\Generated_Source\PSoC5/CyLib.c ****     if (nextFreq < currentFreq)
 628:.\Generated_Source\PSoC5/CyLib.c ****     {
 629:.\Generated_Source\PSoC5/CyLib.c ****         /* Set the new trim after setting the frequency */
 630:.\Generated_Source\PSoC5/CyLib.c ****         CyIMO_SetTrimValue(freq);
 631:.\Generated_Source\PSoC5/CyLib.c ****     }
 632:.\Generated_Source\PSoC5/CyLib.c **** }
 633:.\Generated_Source\PSoC5/CyLib.c **** 
 634:.\Generated_Source\PSoC5/CyLib.c **** 
 635:.\Generated_Source\PSoC5/CyLib.c **** /*******************************************************************************
 636:.\Generated_Source\PSoC5/CyLib.c **** * Function Name: CyIMO_SetSource
 637:.\Generated_Source\PSoC5/CyLib.c **** ********************************************************************************
 638:.\Generated_Source\PSoC5/CyLib.c **** *
 639:.\Generated_Source\PSoC5/CyLib.c **** * Summary:
 640:.\Generated_Source\PSoC5/CyLib.c **** *  Sets the source of the clock output from the IMO block.
 641:.\Generated_Source\PSoC5/CyLib.c **** *
 642:.\Generated_Source\PSoC5/CyLib.c **** *  The output from the IMO is by default the IMO itself. Optionally the MHz
 643:.\Generated_Source\PSoC5/CyLib.c **** *  Crystal or a DSI input can be the source of the IMO output instead.
 644:.\Generated_Source\PSoC5/CyLib.c **** *
 645:.\Generated_Source\PSoC5/CyLib.c **** * Parameters:
 646:.\Generated_Source\PSoC5/CyLib.c **** *   source, CY_IMO_SOURCE_DSI to set the DSI as source.
 647:.\Generated_Source\PSoC5/CyLib.c **** *           CY_IMO_SOURCE_XTAL to set the MHz as source.
 648:.\Generated_Source\PSoC5/CyLib.c **** *           CY_IMO_SOURCE_IMO to set the IMO itself.
 649:.\Generated_Source\PSoC5/CyLib.c **** *
 650:.\Generated_Source\PSoC5/CyLib.c **** * Return:
 651:.\Generated_Source\PSoC5/CyLib.c **** *  None
 652:.\Generated_Source\PSoC5/CyLib.c **** *
 653:.\Generated_Source\PSoC5/CyLib.c **** * Side Effects:
 654:.\Generated_Source\PSoC5/CyLib.c **** *  If as result of this function execution the CPU clock frequency is increased
 655:.\Generated_Source\PSoC5/CyLib.c **** *  then the number of clock cycles the cache will wait before it samples data
ARM GAS  C:\Users\SUZUKI~1\AppData\Local\Temp\cc9L9var.s 			page 18


 656:.\Generated_Source\PSoC5/CyLib.c **** *  coming back from Flash must be adjusted by calling CyFlash_SetWaitCycles()
 657:.\Generated_Source\PSoC5/CyLib.c **** *  with appropriate parameter. It can be optionally called if CPU clock
 658:.\Generated_Source\PSoC5/CyLib.c **** *  frequency is lowered in order to improve CPU performance.
 659:.\Generated_Source\PSoC5/CyLib.c **** *  See CyFlash_SetWaitCycles() description for more information.
 660:.\Generated_Source\PSoC5/CyLib.c **** *
 661:.\Generated_Source\PSoC5/CyLib.c **** *******************************************************************************/
 662:.\Generated_Source\PSoC5/CyLib.c **** void CyIMO_SetSource(uint8 source) 
 663:.\Generated_Source\PSoC5/CyLib.c **** {
 311              		.loc 1 663 0
 312              		.cfi_startproc
 313              		@ args = 0, pretend = 0, frame = 0
 314              		@ frame_needed = 0, uses_anonymous_args = 0
 315              		@ link register save eliminated.
 316              	.LVL21:
 664:.\Generated_Source\PSoC5/CyLib.c ****     switch(source)
 317              		.loc 1 664 0
 318 0000 0128     		cmp	r0, #1
 319 0002 07D0     		beq	.L42
 320 0004 11D3     		bcc	.L41
 321 0006 0228     		cmp	r0, #2
 322 0008 14D1     		bne	.L44
 665:.\Generated_Source\PSoC5/CyLib.c ****     {
 666:.\Generated_Source\PSoC5/CyLib.c ****     case CY_IMO_SOURCE_DSI:
 667:.\Generated_Source\PSoC5/CyLib.c ****         CY_LIB_CLKDIST_CR_REG     &= ((uint8)(~CY_LIB_CLKDIST_CR_IMO2X));
 323              		.loc 1 667 0
 324 000a 0B4B     		ldr	r3, .L46
 325 000c 1A78     		ldrb	r2, [r3, #0]	@ zero_extendqisi2
 326 000e 02F0BF02 		and	r2, r2, #191
 327 0012 03E0     		b	.L45
 328              	.L42:
 668:.\Generated_Source\PSoC5/CyLib.c ****         CY_LIB_FASTCLK_IMO_CR_REG |= CY_LIB_FASTCLK_IMO_IMO;
 669:.\Generated_Source\PSoC5/CyLib.c ****         break;
 670:.\Generated_Source\PSoC5/CyLib.c **** 
 671:.\Generated_Source\PSoC5/CyLib.c ****     case CY_IMO_SOURCE_XTAL:
 672:.\Generated_Source\PSoC5/CyLib.c ****         CY_LIB_CLKDIST_CR_REG     |= CY_LIB_CLKDIST_CR_IMO2X;
 329              		.loc 1 672 0
 330 0014 084B     		ldr	r3, .L46
 331 0016 1A78     		ldrb	r2, [r3, #0]	@ zero_extendqisi2
 332 0018 42F04002 		orr	r2, r2, #64
 333              	.L45:
 334 001c 1A70     		strb	r2, [r3, #0]
 673:.\Generated_Source\PSoC5/CyLib.c ****         CY_LIB_FASTCLK_IMO_CR_REG |= CY_LIB_FASTCLK_IMO_IMO;
 335              		.loc 1 673 0
 336 001e 074B     		ldr	r3, .L46+4
 337 0020 1A78     		ldrb	r2, [r3, #0]	@ zero_extendqisi2
 338 0022 42F02002 		orr	r2, r2, #32
 339 0026 1A70     		strb	r2, [r3, #0]
 674:.\Generated_Source\PSoC5/CyLib.c ****         break;
 340              		.loc 1 674 0
 341 0028 7047     		bx	lr
 342              	.L41:
 675:.\Generated_Source\PSoC5/CyLib.c **** 
 676:.\Generated_Source\PSoC5/CyLib.c ****     case CY_IMO_SOURCE_IMO:
 677:.\Generated_Source\PSoC5/CyLib.c ****         CY_LIB_FASTCLK_IMO_CR_REG &= ((uint8)(~CY_LIB_FASTCLK_IMO_IMO));
 343              		.loc 1 677 0
 344 002a 044B     		ldr	r3, .L46+4
 345 002c 1A78     		ldrb	r2, [r3, #0]	@ zero_extendqisi2
ARM GAS  C:\Users\SUZUKI~1\AppData\Local\Temp\cc9L9var.s 			page 19


 346 002e 02F0DF02 		and	r2, r2, #223
 347 0032 1A70     		strb	r2, [r3, #0]
 348              	.L44:
 349 0034 7047     		bx	lr
 350              	.L47:
 351 0036 00BF     		.align	2
 352              	.L46:
 353 0038 00400040 		.word	1073758208
 354 003c 00420040 		.word	1073758720
 355              		.cfi_endproc
 356              	.LFE9:
 357              		.size	CyIMO_SetSource, .-CyIMO_SetSource
 358              		.section	.text.CyIMO_EnableDoubler,"ax",%progbits
 359              		.align	1
 360              		.global	CyIMO_EnableDoubler
 361              		.thumb
 362              		.thumb_func
 363              		.type	CyIMO_EnableDoubler, %function
 364              	CyIMO_EnableDoubler:
 365              	.LFB10:
 678:.\Generated_Source\PSoC5/CyLib.c ****         break;
 679:.\Generated_Source\PSoC5/CyLib.c **** 
 680:.\Generated_Source\PSoC5/CyLib.c ****     default:
 681:.\Generated_Source\PSoC5/CyLib.c ****         /* Incorrect source value */
 682:.\Generated_Source\PSoC5/CyLib.c ****         CYASSERT(0u != 0u);
 683:.\Generated_Source\PSoC5/CyLib.c ****         break;
 684:.\Generated_Source\PSoC5/CyLib.c ****     }
 685:.\Generated_Source\PSoC5/CyLib.c **** }
 686:.\Generated_Source\PSoC5/CyLib.c **** 
 687:.\Generated_Source\PSoC5/CyLib.c **** 
 688:.\Generated_Source\PSoC5/CyLib.c **** /*******************************************************************************
 689:.\Generated_Source\PSoC5/CyLib.c **** * Function Name: CyIMO_EnableDoubler
 690:.\Generated_Source\PSoC5/CyLib.c **** ********************************************************************************
 691:.\Generated_Source\PSoC5/CyLib.c **** *
 692:.\Generated_Source\PSoC5/CyLib.c **** * Summary:
 693:.\Generated_Source\PSoC5/CyLib.c **** *  Enables the IMO doubler.  The 2x frequency clock is used to convert a 24 MHz
 694:.\Generated_Source\PSoC5/CyLib.c **** *  input to a 48 MHz output for use by the USB block.
 695:.\Generated_Source\PSoC5/CyLib.c **** *
 696:.\Generated_Source\PSoC5/CyLib.c **** * Parameters:
 697:.\Generated_Source\PSoC5/CyLib.c **** *  None
 698:.\Generated_Source\PSoC5/CyLib.c **** *
 699:.\Generated_Source\PSoC5/CyLib.c **** * Return:
 700:.\Generated_Source\PSoC5/CyLib.c **** *  None
 701:.\Generated_Source\PSoC5/CyLib.c **** *
 702:.\Generated_Source\PSoC5/CyLib.c **** *******************************************************************************/
 703:.\Generated_Source\PSoC5/CyLib.c **** void CyIMO_EnableDoubler(void) 
 704:.\Generated_Source\PSoC5/CyLib.c **** {
 366              		.loc 1 704 0
 367              		.cfi_startproc
 368              		@ args = 0, pretend = 0, frame = 0
 369              		@ frame_needed = 0, uses_anonymous_args = 0
 370              		@ link register save eliminated.
 705:.\Generated_Source\PSoC5/CyLib.c ****     /* Set the FASTCLK_IMO_CR_PTR regigster's 4th bit */
 706:.\Generated_Source\PSoC5/CyLib.c ****     CY_LIB_FASTCLK_IMO_CR_REG |= CY_LIB_FASTCLK_IMO_DOUBLER;
 371              		.loc 1 706 0
 372 0000 024B     		ldr	r3, .L50
 373 0002 1A78     		ldrb	r2, [r3, #0]	@ zero_extendqisi2
ARM GAS  C:\Users\SUZUKI~1\AppData\Local\Temp\cc9L9var.s 			page 20


 374 0004 42F01002 		orr	r2, r2, #16
 375 0008 1A70     		strb	r2, [r3, #0]
 707:.\Generated_Source\PSoC5/CyLib.c **** }
 376              		.loc 1 707 0
 377 000a 7047     		bx	lr
 378              	.L51:
 379              		.align	2
 380              	.L50:
 381 000c 00420040 		.word	1073758720
 382              		.cfi_endproc
 383              	.LFE10:
 384              		.size	CyIMO_EnableDoubler, .-CyIMO_EnableDoubler
 385              		.section	.text.CyIMO_DisableDoubler,"ax",%progbits
 386              		.align	1
 387              		.global	CyIMO_DisableDoubler
 388              		.thumb
 389              		.thumb_func
 390              		.type	CyIMO_DisableDoubler, %function
 391              	CyIMO_DisableDoubler:
 392              	.LFB11:
 708:.\Generated_Source\PSoC5/CyLib.c **** 
 709:.\Generated_Source\PSoC5/CyLib.c **** 
 710:.\Generated_Source\PSoC5/CyLib.c **** /*******************************************************************************
 711:.\Generated_Source\PSoC5/CyLib.c **** * Function Name: CyIMO_DisableDoubler
 712:.\Generated_Source\PSoC5/CyLib.c **** ********************************************************************************
 713:.\Generated_Source\PSoC5/CyLib.c **** *
 714:.\Generated_Source\PSoC5/CyLib.c **** * Summary:
 715:.\Generated_Source\PSoC5/CyLib.c **** *   Disables the IMO doubler.
 716:.\Generated_Source\PSoC5/CyLib.c **** *
 717:.\Generated_Source\PSoC5/CyLib.c **** * Parameters:
 718:.\Generated_Source\PSoC5/CyLib.c **** *  None
 719:.\Generated_Source\PSoC5/CyLib.c **** *
 720:.\Generated_Source\PSoC5/CyLib.c **** * Return:
 721:.\Generated_Source\PSoC5/CyLib.c **** *  None
 722:.\Generated_Source\PSoC5/CyLib.c **** *
 723:.\Generated_Source\PSoC5/CyLib.c **** *******************************************************************************/
 724:.\Generated_Source\PSoC5/CyLib.c **** void CyIMO_DisableDoubler(void) 
 725:.\Generated_Source\PSoC5/CyLib.c **** {
 393              		.loc 1 725 0
 394              		.cfi_startproc
 395              		@ args = 0, pretend = 0, frame = 0
 396              		@ frame_needed = 0, uses_anonymous_args = 0
 397              		@ link register save eliminated.
 726:.\Generated_Source\PSoC5/CyLib.c ****     CY_LIB_FASTCLK_IMO_CR_REG &= ((uint8)(~CY_LIB_FASTCLK_IMO_DOUBLER));
 398              		.loc 1 726 0
 399 0000 024B     		ldr	r3, .L54
 400 0002 1A78     		ldrb	r2, [r3, #0]	@ zero_extendqisi2
 401 0004 02F0EF02 		and	r2, r2, #239
 402 0008 1A70     		strb	r2, [r3, #0]
 727:.\Generated_Source\PSoC5/CyLib.c **** }
 403              		.loc 1 727 0
 404 000a 7047     		bx	lr
 405              	.L55:
 406              		.align	2
 407              	.L54:
 408 000c 00420040 		.word	1073758720
 409              		.cfi_endproc
ARM GAS  C:\Users\SUZUKI~1\AppData\Local\Temp\cc9L9var.s 			page 21


 410              	.LFE11:
 411              		.size	CyIMO_DisableDoubler, .-CyIMO_DisableDoubler
 412              		.section	.text.CyIMO_SetFreq,"ax",%progbits
 413              		.align	1
 414              		.global	CyIMO_SetFreq
 415              		.thumb
 416              		.thumb_func
 417              		.type	CyIMO_SetFreq, %function
 418              	CyIMO_SetFreq:
 419              	.LFB8:
 420              		.loc 1 511 0
 421              		.cfi_startproc
 422              		@ args = 0, pretend = 0, frame = 0
 423              		@ frame_needed = 0, uses_anonymous_args = 0
 424              	.LVL22:
 425 0000 70B5     		push	{r4, r5, r6, lr}
 426              	.LCFI0:
 427              		.cfi_def_cfa_offset 16
 428              		.loc 1 522 0
 429 0002 2D4B     		ldr	r3, .L79
 430              		.loc 1 525 0
 431 0004 0828     		cmp	r0, #8
 432 0006 14BF     		ite	ne
 433 0008 0646     		movne	r6, r0
 434 000a 0326     		moveq	r6, #3
 435              		.cfi_offset 14, -4
 436              		.cfi_offset 6, -8
 437              		.cfi_offset 5, -12
 438              		.cfi_offset 4, -16
 439              	.LVL23:
 440              		.loc 1 522 0
 441 000c 1C78     		ldrb	r4, [r3, #0]	@ zero_extendqisi2
 442              		.loc 1 511 0
 443 000e 0546     		mov	r5, r0
 444              		.loc 1 522 0
 445 0010 04F00704 		and	r4, r4, #7
 446              	.LVL24:
 447              		.loc 1 527 0
 448 0014 022C     		cmp	r4, #2
 449 0016 07D0     		beq	.L61
 450              	.LVL25:
 451 0018 032C     		cmp	r4, #3
 452 001a 03D0     		beq	.L62
 453 001c 002C     		cmp	r4, #0
 454 001e 08BF     		it	eq
 455 0020 0224     		moveq	r4, #2
 456              	.LVL26:
 457 0022 02E0     		b	.L59
 458              	.L62:
 459 0024 0024     		movs	r4, #0
 460              	.LVL27:
 461 0026 02E0     		b	.L63
 462              	.L61:
 463 0028 0324     		movs	r4, #3
 464              	.LVL28:
 465              	.L59:
 466              		.loc 1 563 0
ARM GAS  C:\Users\SUZUKI~1\AppData\Local\Temp\cc9L9var.s 			page 22


 467 002a A642     		cmp	r6, r4
 468 002c 02D3     		bcc	.L64
 469              	.L63:
 470              		.loc 1 566 0
 471 002e 2846     		mov	r0, r5
 472 0030 FFF7FEFF 		bl	CyIMO_SetTrimValue
 473              	.LVL29:
 474              	.L64:
 475              		.loc 1 570 0
 476 0034 082D     		cmp	r5, #8
 477 0036 30D8     		bhi	.L65
 478 0038 DFE805F0 		tbb	[pc, r5]
 479              	.L72:
 480 003c 05       		.byte	(.L66-.L72)/2
 481 003d 0C       		.byte	(.L67-.L72)/2
 482 003e 13       		.byte	(.L68-.L72)/2
 483 003f 18       		.byte	(.L69-.L72)/2
 484 0040 20       		.byte	(.L70-.L72)/2
 485 0041 2F       		.byte	(.L65-.L72)/2
 486 0042 2F       		.byte	(.L65-.L72)/2
 487 0043 2F       		.byte	(.L65-.L72)/2
 488 0044 27       		.byte	(.L71-.L72)/2
 489 0045 00       		.align	1
 490              	.L66:
 491              		.loc 1 573 0
 492 0046 1C4B     		ldr	r3, .L79
 493 0048 1A78     		ldrb	r2, [r3, #0]	@ zero_extendqisi2
 494 004a 02F0B802 		and	r2, r2, #184
 495 004e 42F00302 		orr	r2, r2, #3
 496 0052 11E0     		b	.L78
 497              	.L67:
 498              		.loc 1 578 0
 499 0054 184B     		ldr	r3, .L79
 500 0056 1A78     		ldrb	r2, [r3, #0]	@ zero_extendqisi2
 501 0058 02F0B802 		and	r2, r2, #184
 502 005c 42F00102 		orr	r2, r2, #1
 503 0060 0AE0     		b	.L78
 504              	.L68:
 505              		.loc 1 583 0
 506 0062 154B     		ldr	r3, .L79
 507 0064 1A78     		ldrb	r2, [r3, #0]	@ zero_extendqisi2
 508 0066 02F0B802 		and	r2, r2, #184
 509 006a 05E0     		b	.L78
 510              	.L69:
 511              		.loc 1 588 0
 512 006c 124B     		ldr	r3, .L79
 513 006e 1A78     		ldrb	r2, [r3, #0]	@ zero_extendqisi2
 514 0070 02F0B802 		and	r2, r2, #184
 515 0074 42F00202 		orr	r2, r2, #2
 516              	.L78:
 517 0078 1A70     		strb	r2, [r3, #0]
 518              		.loc 1 590 0
 519 007a 13E0     		b	.L73
 520              	.L70:
 521              		.loc 1 593 0
 522 007c 0E4B     		ldr	r3, .L79
 523 007e 1A78     		ldrb	r2, [r3, #0]	@ zero_extendqisi2
ARM GAS  C:\Users\SUZUKI~1\AppData\Local\Temp\cc9L9var.s 			page 23


 524 0080 02F0B802 		and	r2, r2, #184
 525 0084 42F00402 		orr	r2, r2, #4
 526 0088 F6E7     		b	.L78
 527              	.L71:
 528              		.loc 1 608 0
 529 008a 0B4B     		ldr	r3, .L79
 530 008c 1A78     		ldrb	r2, [r3, #0]	@ zero_extendqisi2
 531 008e 02F0B802 		and	r2, r2, #184
 532 0092 42F04202 		orr	r2, r2, #66
 533 0096 1A70     		strb	r2, [r3, #0]
 534 0098 01E0     		b	.L74
 535              	.L65:
 536              		.loc 1 618 0
 537 009a 082D     		cmp	r5, #8
 538 009c 02D1     		bne	.L73
 539              	.L74:
 540              		.loc 1 620 0
 541 009e FFF7FEFF 		bl	CyIMO_EnableDoubler
 542 00a2 01E0     		b	.L75
 543              	.LVL30:
 544              	.L73:
 545              		.loc 1 624 0
 546 00a4 FFF7FEFF 		bl	CyIMO_DisableDoubler
 547              	.L75:
 548              		.loc 1 627 0
 549 00a8 A642     		cmp	r6, r4
 550 00aa 04D2     		bcs	.L77
 551              		.loc 1 630 0
 552 00ac 2846     		mov	r0, r5
 553              		.loc 1 632 0
 554 00ae BDE87040 		pop	{r4, r5, r6, lr}
 555              		.loc 1 630 0
 556 00b2 FFF7FEBF 		b	CyIMO_SetTrimValue
 557              	.L77:
 558 00b6 70BD     		pop	{r4, r5, r6, pc}
 559              	.L80:
 560              		.align	2
 561              	.L79:
 562 00b8 00420040 		.word	1073758720
 563              		.cfi_endproc
 564              	.LFE8:
 565              		.size	CyIMO_SetFreq, .-CyIMO_SetFreq
 566              		.section	.text.CyMasterClk_SetSource,"ax",%progbits
 567              		.align	1
 568              		.global	CyMasterClk_SetSource
 569              		.thumb
 570              		.thumb_func
 571              		.type	CyMasterClk_SetSource, %function
 572              	CyMasterClk_SetSource:
 573              	.LFB12:
 728:.\Generated_Source\PSoC5/CyLib.c **** 
 729:.\Generated_Source\PSoC5/CyLib.c **** 
 730:.\Generated_Source\PSoC5/CyLib.c **** /*******************************************************************************
 731:.\Generated_Source\PSoC5/CyLib.c **** * Function Name: CyMasterClk_SetSource
 732:.\Generated_Source\PSoC5/CyLib.c **** ********************************************************************************
 733:.\Generated_Source\PSoC5/CyLib.c **** *
 734:.\Generated_Source\PSoC5/CyLib.c **** * Summary:
ARM GAS  C:\Users\SUZUKI~1\AppData\Local\Temp\cc9L9var.s 			page 24


 735:.\Generated_Source\PSoC5/CyLib.c **** *  Sets the source of the master clock.
 736:.\Generated_Source\PSoC5/CyLib.c **** *
 737:.\Generated_Source\PSoC5/CyLib.c **** * Parameters:
 738:.\Generated_Source\PSoC5/CyLib.c **** *   source: One of the four available Master clock sources.
 739:.\Generated_Source\PSoC5/CyLib.c **** *     CY_MASTER_SOURCE_IMO
 740:.\Generated_Source\PSoC5/CyLib.c **** *     CY_MASTER_SOURCE_PLL
 741:.\Generated_Source\PSoC5/CyLib.c **** *     CY_MASTER_SOURCE_XTAL
 742:.\Generated_Source\PSoC5/CyLib.c **** *     CY_MASTER_SOURCE_DSI
 743:.\Generated_Source\PSoC5/CyLib.c **** *
 744:.\Generated_Source\PSoC5/CyLib.c **** * Return:
 745:.\Generated_Source\PSoC5/CyLib.c **** *  None
 746:.\Generated_Source\PSoC5/CyLib.c **** *
 747:.\Generated_Source\PSoC5/CyLib.c **** * Side Effects:
 748:.\Generated_Source\PSoC5/CyLib.c **** *  The current source and the new source must both be running and stable before
 749:.\Generated_Source\PSoC5/CyLib.c **** *  calling this function.
 750:.\Generated_Source\PSoC5/CyLib.c **** *
 751:.\Generated_Source\PSoC5/CyLib.c **** *  If as result of this function execution the CPU clock frequency is increased
 752:.\Generated_Source\PSoC5/CyLib.c **** *  then the number of clock cycles the cache will wait before it samples data
 753:.\Generated_Source\PSoC5/CyLib.c **** *  coming back from Flash must be adjusted by calling CyFlash_SetWaitCycles()
 754:.\Generated_Source\PSoC5/CyLib.c **** *  with appropriate parameter. It can be optionally called if CPU clock
 755:.\Generated_Source\PSoC5/CyLib.c **** *  frequency is lowered in order to improve CPU performance.
 756:.\Generated_Source\PSoC5/CyLib.c **** *  See CyFlash_SetWaitCycles() description for more information.
 757:.\Generated_Source\PSoC5/CyLib.c **** *
 758:.\Generated_Source\PSoC5/CyLib.c **** *******************************************************************************/
 759:.\Generated_Source\PSoC5/CyLib.c **** void CyMasterClk_SetSource(uint8 source) 
 760:.\Generated_Source\PSoC5/CyLib.c **** {
 574              		.loc 1 760 0
 575              		.cfi_startproc
 576              		@ args = 0, pretend = 0, frame = 0
 577              		@ frame_needed = 0, uses_anonymous_args = 0
 578              		@ link register save eliminated.
 579              	.LVL31:
 761:.\Generated_Source\PSoC5/CyLib.c ****     #if(CY_PSOC5A)
 762:.\Generated_Source\PSoC5/CyLib.c **** 
 763:.\Generated_Source\PSoC5/CyLib.c ****         uint8 masterReg0;
 764:.\Generated_Source\PSoC5/CyLib.c **** 
 765:.\Generated_Source\PSoC5/CyLib.c ****         /* Read the current setting */
 766:.\Generated_Source\PSoC5/CyLib.c ****         masterReg0 = CY_LIB_CLKDIST_MSTR0_REG;
 580              		.loc 1 766 0
 581 0000 084A     		ldr	r2, .L85
 582 0002 1178     		ldrb	r1, [r2, #0]	@ zero_extendqisi2
 767:.\Generated_Source\PSoC5/CyLib.c **** 
 768:.\Generated_Source\PSoC5/CyLib.c ****         /* Write a non-zero period to the master mux clock divider */
 769:.\Generated_Source\PSoC5/CyLib.c ****         if (masterReg0 == 0x00u)
 583              		.loc 1 769 0
 584 0004 0B46     		mov	r3, r1
 585              	.LVL32:
 586 0006 09B9     		cbnz	r1, .L82
 770:.\Generated_Source\PSoC5/CyLib.c ****         {
 771:.\Generated_Source\PSoC5/CyLib.c ****             CY_LIB_CLKDIST_MSTR0_REG = 3u;
 587              		.loc 1 771 0
 588 0008 0331     		adds	r1, r1, #3
 589 000a 1170     		strb	r1, [r2, #0]
 590              	.L82:
 772:.\Generated_Source\PSoC5/CyLib.c ****         }
 773:.\Generated_Source\PSoC5/CyLib.c **** 
 774:.\Generated_Source\PSoC5/CyLib.c ****     #endif  /* (CY_PSOC5A) */
ARM GAS  C:\Users\SUZUKI~1\AppData\Local\Temp\cc9L9var.s 			page 25


 775:.\Generated_Source\PSoC5/CyLib.c **** 
 776:.\Generated_Source\PSoC5/CyLib.c ****     CY_LIB_CLKDIST_MSTR1_REG = (CY_LIB_CLKDIST_MSTR1_REG & MASTER_CLK_SRC_CLEAR) |
 591              		.loc 1 776 0
 592 000c 064A     		ldr	r2, .L85+4
 593 000e 00F00300 		and	r0, r0, #3
 594              	.LVL33:
 595 0012 1178     		ldrb	r1, [r2, #0]	@ zero_extendqisi2
 596 0014 01F0FC01 		and	r1, r1, #252
 597 0018 0843     		orrs	r0, r0, r1
 598 001a 1070     		strb	r0, [r2, #0]
 777:.\Generated_Source\PSoC5/CyLib.c ****                                 (source & ((uint8)(~MASTER_CLK_SRC_CLEAR)));
 778:.\Generated_Source\PSoC5/CyLib.c **** 
 779:.\Generated_Source\PSoC5/CyLib.c ****     #if(CY_PSOC5A)
 780:.\Generated_Source\PSoC5/CyLib.c **** 
 781:.\Generated_Source\PSoC5/CyLib.c ****         /* Restore zero period (if desired) to the master mux clock divider */
 782:.\Generated_Source\PSoC5/CyLib.c ****         if (masterReg0 == 0x00u)
 599              		.loc 1 782 0
 600 001c 0BB9     		cbnz	r3, .L84
 783:.\Generated_Source\PSoC5/CyLib.c ****         {
 784:.\Generated_Source\PSoC5/CyLib.c ****             CY_LIB_CLKDIST_MSTR0_REG = 0u;
 601              		.loc 1 784 0
 602 001e 013A     		subs	r2, r2, #1
 603 0020 1370     		strb	r3, [r2, #0]
 604              	.L84:
 605 0022 7047     		bx	lr
 606              	.L86:
 607              		.align	2
 608              	.L85:
 609 0024 04400040 		.word	1073758212
 610 0028 05400040 		.word	1073758213
 611              		.cfi_endproc
 612              	.LFE12:
 613              		.size	CyMasterClk_SetSource, .-CyMasterClk_SetSource
 614              		.section	.text.CyMasterClk_SetDivider,"ax",%progbits
 615              		.align	1
 616              		.global	CyMasterClk_SetDivider
 617              		.thumb
 618              		.thumb_func
 619              		.type	CyMasterClk_SetDivider, %function
 620              	CyMasterClk_SetDivider:
 621              	.LFB13:
 785:.\Generated_Source\PSoC5/CyLib.c ****         }
 786:.\Generated_Source\PSoC5/CyLib.c **** 
 787:.\Generated_Source\PSoC5/CyLib.c ****     #endif  /* (CY_PSOC5A) */
 788:.\Generated_Source\PSoC5/CyLib.c **** }
 789:.\Generated_Source\PSoC5/CyLib.c **** 
 790:.\Generated_Source\PSoC5/CyLib.c **** 
 791:.\Generated_Source\PSoC5/CyLib.c **** /*******************************************************************************
 792:.\Generated_Source\PSoC5/CyLib.c **** * Function Name: CyMasterClk_SetDivider
 793:.\Generated_Source\PSoC5/CyLib.c **** ********************************************************************************
 794:.\Generated_Source\PSoC5/CyLib.c **** *
 795:.\Generated_Source\PSoC5/CyLib.c **** * Summary:
 796:.\Generated_Source\PSoC5/CyLib.c **** *  Sets the divider value used to generate Master Clock.
 797:.\Generated_Source\PSoC5/CyLib.c **** *
 798:.\Generated_Source\PSoC5/CyLib.c **** * Parameters:
 799:.\Generated_Source\PSoC5/CyLib.c **** *  uint8 divider:
 800:.\Generated_Source\PSoC5/CyLib.c **** *   Valid range [0-255]. The clock will be divided by this value + 1.
ARM GAS  C:\Users\SUZUKI~1\AppData\Local\Temp\cc9L9var.s 			page 26


 801:.\Generated_Source\PSoC5/CyLib.c **** *   For example to divide by 2 this parameter should be set to 1.
 802:.\Generated_Source\PSoC5/CyLib.c **** *
 803:.\Generated_Source\PSoC5/CyLib.c **** * Return:
 804:.\Generated_Source\PSoC5/CyLib.c **** *  None
 805:.\Generated_Source\PSoC5/CyLib.c **** *
 806:.\Generated_Source\PSoC5/CyLib.c **** * Side Effects:
 807:.\Generated_Source\PSoC5/CyLib.c **** *  If as result of this function execution the CPU clock frequency is increased
 808:.\Generated_Source\PSoC5/CyLib.c **** *  then the number of clock cycles the cache will wait before it samples data
 809:.\Generated_Source\PSoC5/CyLib.c **** *  coming back from Flash must be adjusted by calling CyFlash_SetWaitCycles()
 810:.\Generated_Source\PSoC5/CyLib.c **** *  with appropriate parameter. It can be optionally called if CPU clock
 811:.\Generated_Source\PSoC5/CyLib.c **** *  frequency is lowered in order to improve CPU performance.
 812:.\Generated_Source\PSoC5/CyLib.c **** *  See CyFlash_SetWaitCycles() description for more information.
 813:.\Generated_Source\PSoC5/CyLib.c **** *
 814:.\Generated_Source\PSoC5/CyLib.c **** *  When changing the Master or Bus clock divider value from div-by-n to div-by-1
 815:.\Generated_Source\PSoC5/CyLib.c **** *  the first clock cycle output after the div-by-1 can be up to 4 ns shorter
 816:.\Generated_Source\PSoC5/CyLib.c **** *  than the final/expected div-by-1 period.
 817:.\Generated_Source\PSoC5/CyLib.c **** *
 818:.\Generated_Source\PSoC5/CyLib.c **** *******************************************************************************/
 819:.\Generated_Source\PSoC5/CyLib.c **** void CyMasterClk_SetDivider(uint8 divider) 
 820:.\Generated_Source\PSoC5/CyLib.c **** {
 622              		.loc 1 820 0
 623              		.cfi_startproc
 624              		@ args = 0, pretend = 0, frame = 0
 625              		@ frame_needed = 0, uses_anonymous_args = 0
 626              		@ link register save eliminated.
 627              	.LVL34:
 821:.\Generated_Source\PSoC5/CyLib.c ****     CY_LIB_CLKDIST_MSTR0_REG = divider;
 628              		.loc 1 821 0
 629 0000 014B     		ldr	r3, .L89
 630 0002 1870     		strb	r0, [r3, #0]
 822:.\Generated_Source\PSoC5/CyLib.c **** }
 631              		.loc 1 822 0
 632 0004 7047     		bx	lr
 633              	.L90:
 634 0006 00BF     		.align	2
 635              	.L89:
 636 0008 04400040 		.word	1073758212
 637              		.cfi_endproc
 638              	.LFE13:
 639              		.size	CyMasterClk_SetDivider, .-CyMasterClk_SetDivider
 640              		.section	.text.CyBusClk_Internal_SetDivider,"ax",%progbits
 641              		.align	1
 642              		.thumb
 643              		.thumb_func
 644              		.type	CyBusClk_Internal_SetDivider, %function
 645              	CyBusClk_Internal_SetDivider:
 646              	.LFB14:
 823:.\Generated_Source\PSoC5/CyLib.c **** 
 824:.\Generated_Source\PSoC5/CyLib.c **** 
 825:.\Generated_Source\PSoC5/CyLib.c **** /*******************************************************************************
 826:.\Generated_Source\PSoC5/CyLib.c **** * Function Name: CyBusClk_Internal_SetDivider
 827:.\Generated_Source\PSoC5/CyLib.c **** ********************************************************************************
 828:.\Generated_Source\PSoC5/CyLib.c **** *
 829:.\Generated_Source\PSoC5/CyLib.c **** * Summary:
 830:.\Generated_Source\PSoC5/CyLib.c **** *  Function used by CyBusClk_SetDivider(). For internal use only.
 831:.\Generated_Source\PSoC5/CyLib.c **** *
 832:.\Generated_Source\PSoC5/CyLib.c **** * Parameters:
ARM GAS  C:\Users\SUZUKI~1\AppData\Local\Temp\cc9L9var.s 			page 27


 833:.\Generated_Source\PSoC5/CyLib.c **** *   divider: Valid range [0-65535].
 834:.\Generated_Source\PSoC5/CyLib.c **** *   The clock will be divided by this value + 1.
 835:.\Generated_Source\PSoC5/CyLib.c **** *   For example to divide by 2 this parameter should be set to 1.
 836:.\Generated_Source\PSoC5/CyLib.c **** *
 837:.\Generated_Source\PSoC5/CyLib.c **** * Return:
 838:.\Generated_Source\PSoC5/CyLib.c **** *  None
 839:.\Generated_Source\PSoC5/CyLib.c **** *
 840:.\Generated_Source\PSoC5/CyLib.c **** *******************************************************************************/
 841:.\Generated_Source\PSoC5/CyLib.c **** static void CyBusClk_Internal_SetDivider(uint16 divider)
 842:.\Generated_Source\PSoC5/CyLib.c **** {
 647              		.loc 1 842 0
 648              		.cfi_startproc
 649              		@ args = 0, pretend = 0, frame = 0
 650              		@ frame_needed = 0, uses_anonymous_args = 0
 651              		@ link register save eliminated.
 652              	.LVL35:
 843:.\Generated_Source\PSoC5/CyLib.c ****     /* Mask bits to enable shadow loads  */
 844:.\Generated_Source\PSoC5/CyLib.c ****     CY_LIB_CLKDIST_AMASK_REG &= CY_LIB_CLKDIST_AMASK_MASK;
 653              		.loc 1 844 0
 654 0000 0C4B     		ldr	r3, .L93
 655 0002 1A78     		ldrb	r2, [r3, #0]	@ zero_extendqisi2
 656 0004 02F0F002 		and	r2, r2, #240
 657 0008 1A70     		strb	r2, [r3, #0]
 845:.\Generated_Source\PSoC5/CyLib.c ****     CY_LIB_CLKDIST_DMASK_REG  = CY_LIB_CLKDIST_DMASK_MASK;
 658              		.loc 1 845 0
 659 000a 0022     		movs	r2, #0
 660 000c 043B     		subs	r3, r3, #4
 661 000e 1A70     		strb	r2, [r3, #0]
 846:.\Generated_Source\PSoC5/CyLib.c **** 
 847:.\Generated_Source\PSoC5/CyLib.c ****     /* Enable mask bits to enable shadow loads */
 848:.\Generated_Source\PSoC5/CyLib.c ****     CY_LIB_CLKDIST_BCFG2_REG |= CY_LIB_CLKDIST_BCFG2_MASK;
 662              		.loc 1 848 0
 663 0010 083B     		subs	r3, r3, #8
 664 0012 1A78     		ldrb	r2, [r3, #0]	@ zero_extendqisi2
 665 0014 42F08002 		orr	r2, r2, #128
 666 0018 1A70     		strb	r2, [r3, #0]
 849:.\Generated_Source\PSoC5/CyLib.c **** 
 850:.\Generated_Source\PSoC5/CyLib.c ****     /* Update Shadow Divider Value Register with the new divider */
 851:.\Generated_Source\PSoC5/CyLib.c ****     CY_LIB_CLKDIST_WRK_LSB_REG = LO8(divider);
 667              		.loc 1 851 0
 668 001a C2B2     		uxtb	r2, r0
 669 001c 063B     		subs	r3, r3, #6
 670 001e 1A70     		strb	r2, [r3, #0]
 852:.\Generated_Source\PSoC5/CyLib.c ****     CY_LIB_CLKDIST_WRK_MSB_REG = HI8(divider);
 671              		.loc 1 852 0
 672 0020 000A     		lsrs	r0, r0, #8
 673              	.LVL36:
 674 0022 0133     		adds	r3, r3, #1
 675 0024 1870     		strb	r0, [r3, #0]
 853:.\Generated_Source\PSoC5/CyLib.c **** 
 854:.\Generated_Source\PSoC5/CyLib.c **** 
 855:.\Generated_Source\PSoC5/CyLib.c ****     /***************************************************************************
 856:.\Generated_Source\PSoC5/CyLib.c ****     * Copy shadow value defined in Shadow Divider Value Register
 857:.\Generated_Source\PSoC5/CyLib.c ****     * (CY_LIB_CLKDIST_WRK_LSB_REG and CY_LIB_CLKDIST_WRK_MSB_REG) to all
 858:.\Generated_Source\PSoC5/CyLib.c ****     * dividers selected in Analog and Digital Clock Mask Registers
 859:.\Generated_Source\PSoC5/CyLib.c ****     * (CY_LIB_CLKDIST_AMASK_REG and CY_LIB_CLKDIST_DMASK_REG).
 860:.\Generated_Source\PSoC5/CyLib.c ****     ***************************************************************************/
ARM GAS  C:\Users\SUZUKI~1\AppData\Local\Temp\cc9L9var.s 			page 28


 861:.\Generated_Source\PSoC5/CyLib.c ****     CY_LIB_CLKDIST_LD_REG |= CY_LIB_CLKDIST_LD_LOAD;
 676              		.loc 1 861 0
 677 0026 023B     		subs	r3, r3, #2
 678 0028 1A78     		ldrb	r2, [r3, #0]	@ zero_extendqisi2
 679 002a 42F00102 		orr	r2, r2, #1
 680 002e 1A70     		strb	r2, [r3, #0]
 862:.\Generated_Source\PSoC5/CyLib.c **** }
 681              		.loc 1 862 0
 682 0030 7047     		bx	lr
 683              	.L94:
 684 0032 00BF     		.align	2
 685              	.L93:
 686 0034 14400040 		.word	1073758228
 687              		.cfi_endproc
 688              	.LFE14:
 689              		.size	CyBusClk_Internal_SetDivider, .-CyBusClk_Internal_SetDivider
 690              		.section	.text.CyUsbClk_SetSource,"ax",%progbits
 691              		.align	1
 692              		.global	CyUsbClk_SetSource
 693              		.thumb
 694              		.thumb_func
 695              		.type	CyUsbClk_SetSource, %function
 696              	CyUsbClk_SetSource:
 697              	.LFB16:
 863:.\Generated_Source\PSoC5/CyLib.c **** 
 864:.\Generated_Source\PSoC5/CyLib.c **** 
 865:.\Generated_Source\PSoC5/CyLib.c **** /*******************************************************************************
 866:.\Generated_Source\PSoC5/CyLib.c **** * Function Name: CyBusClk_SetDivider
 867:.\Generated_Source\PSoC5/CyLib.c **** ********************************************************************************
 868:.\Generated_Source\PSoC5/CyLib.c **** *
 869:.\Generated_Source\PSoC5/CyLib.c **** * Summary:
 870:.\Generated_Source\PSoC5/CyLib.c **** *  Sets the divider value used to generate Bus Clock.
 871:.\Generated_Source\PSoC5/CyLib.c **** *
 872:.\Generated_Source\PSoC5/CyLib.c **** * Parameters:
 873:.\Generated_Source\PSoC5/CyLib.c **** *  divider: Valid range [0-65535]. The clock will be divided by this value + 1.
 874:.\Generated_Source\PSoC5/CyLib.c **** *  For example to divide by 2 this parameter should be set to 1.
 875:.\Generated_Source\PSoC5/CyLib.c **** *
 876:.\Generated_Source\PSoC5/CyLib.c **** * Return:
 877:.\Generated_Source\PSoC5/CyLib.c **** *  None
 878:.\Generated_Source\PSoC5/CyLib.c **** *
 879:.\Generated_Source\PSoC5/CyLib.c **** * Side Effects:
 880:.\Generated_Source\PSoC5/CyLib.c **** *  If as result of this function execution the CPU clock frequency is increased
 881:.\Generated_Source\PSoC5/CyLib.c **** *  then the number of clock cycles the cache will wait before it samples data
 882:.\Generated_Source\PSoC5/CyLib.c **** *  coming back from Flash must be adjusted by calling CyFlash_SetWaitCycles()
 883:.\Generated_Source\PSoC5/CyLib.c **** *  with appropriate parameter. It can be optionally called if CPU clock
 884:.\Generated_Source\PSoC5/CyLib.c **** *  frequency is lowered in order to improve CPU performance.
 885:.\Generated_Source\PSoC5/CyLib.c **** *  See CyFlash_SetWaitCycles() description for more information.
 886:.\Generated_Source\PSoC5/CyLib.c **** *
 887:.\Generated_Source\PSoC5/CyLib.c **** *******************************************************************************/
 888:.\Generated_Source\PSoC5/CyLib.c **** void CyBusClk_SetDivider(uint16 divider) 
 889:.\Generated_Source\PSoC5/CyLib.c **** {
 890:.\Generated_Source\PSoC5/CyLib.c ****     uint8  masterClkDiv;
 891:.\Generated_Source\PSoC5/CyLib.c ****     uint16 busClkDiv;
 892:.\Generated_Source\PSoC5/CyLib.c ****     uint8 interruptState;
 893:.\Generated_Source\PSoC5/CyLib.c **** 
 894:.\Generated_Source\PSoC5/CyLib.c ****     interruptState = CyEnterCriticalSection();
 895:.\Generated_Source\PSoC5/CyLib.c **** 
ARM GAS  C:\Users\SUZUKI~1\AppData\Local\Temp\cc9L9var.s 			page 29


 896:.\Generated_Source\PSoC5/CyLib.c ****     /* Work around to set the bus clock divider value */
 897:.\Generated_Source\PSoC5/CyLib.c ****     busClkDiv = ((uint16)(((uint16)(CY_LIB_CLKDIST_BCFG_MSB_REG)) << 8u)) | CY_LIB_CLKDIST_BCFG_LSB
 898:.\Generated_Source\PSoC5/CyLib.c **** 
 899:.\Generated_Source\PSoC5/CyLib.c ****     if ((divider == 0u) || (busClkDiv == 0u))
 900:.\Generated_Source\PSoC5/CyLib.c ****     {
 901:.\Generated_Source\PSoC5/CyLib.c ****         /* Save away the master clock divider value */
 902:.\Generated_Source\PSoC5/CyLib.c ****         masterClkDiv = CY_LIB_CLKDIST_MSTR0_REG;
 903:.\Generated_Source\PSoC5/CyLib.c **** 
 904:.\Generated_Source\PSoC5/CyLib.c ****         if (masterClkDiv < CY_LIB_CLKDIST_MASTERCLK_DIV)
 905:.\Generated_Source\PSoC5/CyLib.c ****         {
 906:.\Generated_Source\PSoC5/CyLib.c ****             /* Set master clock divider to 7 */
 907:.\Generated_Source\PSoC5/CyLib.c ****             CyMasterClk_SetDivider(CY_LIB_CLKDIST_MASTERCLK_DIV);
 908:.\Generated_Source\PSoC5/CyLib.c ****         }
 909:.\Generated_Source\PSoC5/CyLib.c **** 
 910:.\Generated_Source\PSoC5/CyLib.c ****         if (divider == 0u)
 911:.\Generated_Source\PSoC5/CyLib.c ****         {
 912:.\Generated_Source\PSoC5/CyLib.c ****             /* Set the SSS bit and the divider register desired value */
 913:.\Generated_Source\PSoC5/CyLib.c ****             CY_LIB_CLKDIST_BCFG2_REG |= CY_LIB_CLKDIST_BCFG2_SSS;
 914:.\Generated_Source\PSoC5/CyLib.c ****             CyBusClk_Internal_SetDivider(divider);
 915:.\Generated_Source\PSoC5/CyLib.c ****         }
 916:.\Generated_Source\PSoC5/CyLib.c ****         else
 917:.\Generated_Source\PSoC5/CyLib.c ****         {
 918:.\Generated_Source\PSoC5/CyLib.c ****             CyBusClk_Internal_SetDivider(divider);
 919:.\Generated_Source\PSoC5/CyLib.c ****             CY_LIB_CLKDIST_BCFG2_REG &= ((uint8)(~CY_LIB_CLKDIST_BCFG2_SSS));
 920:.\Generated_Source\PSoC5/CyLib.c ****         }
 921:.\Generated_Source\PSoC5/CyLib.c **** 
 922:.\Generated_Source\PSoC5/CyLib.c ****         /* Restore the master clock */
 923:.\Generated_Source\PSoC5/CyLib.c ****         CyMasterClk_SetDivider(masterClkDiv);
 924:.\Generated_Source\PSoC5/CyLib.c ****     }
 925:.\Generated_Source\PSoC5/CyLib.c ****     else
 926:.\Generated_Source\PSoC5/CyLib.c ****     {
 927:.\Generated_Source\PSoC5/CyLib.c ****         CyBusClk_Internal_SetDivider(divider);
 928:.\Generated_Source\PSoC5/CyLib.c ****     }
 929:.\Generated_Source\PSoC5/CyLib.c **** 
 930:.\Generated_Source\PSoC5/CyLib.c ****     CyExitCriticalSection(interruptState);
 931:.\Generated_Source\PSoC5/CyLib.c **** }
 932:.\Generated_Source\PSoC5/CyLib.c **** 
 933:.\Generated_Source\PSoC5/CyLib.c **** 
 934:.\Generated_Source\PSoC5/CyLib.c **** #if(CY_PSOC3)
 935:.\Generated_Source\PSoC5/CyLib.c **** 
 936:.\Generated_Source\PSoC5/CyLib.c ****     /*******************************************************************************
 937:.\Generated_Source\PSoC5/CyLib.c ****     * Function Name: CyCpuClk_SetDivider
 938:.\Generated_Source\PSoC5/CyLib.c ****     ********************************************************************************
 939:.\Generated_Source\PSoC5/CyLib.c ****     *
 940:.\Generated_Source\PSoC5/CyLib.c ****     * Summary:
 941:.\Generated_Source\PSoC5/CyLib.c ****     *  Sets the divider value used to generate the CPU Clock. Only applicable for
 942:.\Generated_Source\PSoC5/CyLib.c ****     *  PSoC 3 parts.
 943:.\Generated_Source\PSoC5/CyLib.c ****     *
 944:.\Generated_Source\PSoC5/CyLib.c ****     * Parameters:
 945:.\Generated_Source\PSoC5/CyLib.c ****     *  divider: Valid range [0-15]. The clock will be divided by this value + 1.
 946:.\Generated_Source\PSoC5/CyLib.c ****     *  For example to divide by 2 this parameter should be set to 1.
 947:.\Generated_Source\PSoC5/CyLib.c ****     *
 948:.\Generated_Source\PSoC5/CyLib.c ****     * Return:
 949:.\Generated_Source\PSoC5/CyLib.c ****     *  None
 950:.\Generated_Source\PSoC5/CyLib.c ****     *
 951:.\Generated_Source\PSoC5/CyLib.c ****     * Side Effects:
 952:.\Generated_Source\PSoC5/CyLib.c ****     *  If as result of this function execution the CPU clock frequency is increased
ARM GAS  C:\Users\SUZUKI~1\AppData\Local\Temp\cc9L9var.s 			page 30


 953:.\Generated_Source\PSoC5/CyLib.c ****     *  then the number of clock cycles the cache will wait before it samples data
 954:.\Generated_Source\PSoC5/CyLib.c ****     *  coming back from Flash must be adjusted by calling CyFlash_SetWaitCycles()
 955:.\Generated_Source\PSoC5/CyLib.c ****     *  with appropriate parameter. It can be optionally called if CPU clock
 956:.\Generated_Source\PSoC5/CyLib.c ****     *  frequency is lowered in order to improve CPU performance.
 957:.\Generated_Source\PSoC5/CyLib.c ****     *  See CyFlash_SetWaitCycles() description for more information.
 958:.\Generated_Source\PSoC5/CyLib.c ****     *
 959:.\Generated_Source\PSoC5/CyLib.c ****     *******************************************************************************/
 960:.\Generated_Source\PSoC5/CyLib.c ****     void CyCpuClk_SetDivider(uint8 divider) 
 961:.\Generated_Source\PSoC5/CyLib.c ****     {
 962:.\Generated_Source\PSoC5/CyLib.c ****             CLKDIST_MSTR1 = (CLKDIST_MSTR1 & CLKDIST_MSTR1_DIV_CLEAR) |
 963:.\Generated_Source\PSoC5/CyLib.c ****                                 ((uint8)(divider << CLKDIST_DIV_POSITION));
 964:.\Generated_Source\PSoC5/CyLib.c ****     }
 965:.\Generated_Source\PSoC5/CyLib.c **** 
 966:.\Generated_Source\PSoC5/CyLib.c **** #endif /* (CY_PSOC3) */
 967:.\Generated_Source\PSoC5/CyLib.c **** 
 968:.\Generated_Source\PSoC5/CyLib.c **** 
 969:.\Generated_Source\PSoC5/CyLib.c **** /*******************************************************************************
 970:.\Generated_Source\PSoC5/CyLib.c **** * Function Name: CyUsbClk_SetSource
 971:.\Generated_Source\PSoC5/CyLib.c **** ********************************************************************************
 972:.\Generated_Source\PSoC5/CyLib.c **** *
 973:.\Generated_Source\PSoC5/CyLib.c **** * Summary:
 974:.\Generated_Source\PSoC5/CyLib.c **** *  Sets the source of the USB clock.
 975:.\Generated_Source\PSoC5/CyLib.c **** *
 976:.\Generated_Source\PSoC5/CyLib.c **** * Parameters:
 977:.\Generated_Source\PSoC5/CyLib.c **** *  source: One of the four available USB clock sources
 978:.\Generated_Source\PSoC5/CyLib.c **** *             USB_CLK_IMO2X     - IMO 2x
 979:.\Generated_Source\PSoC5/CyLib.c **** *             USB_CLK_IMO       - IMO
 980:.\Generated_Source\PSoC5/CyLib.c **** *             USB_CLK_PLL       - PLL
 981:.\Generated_Source\PSoC5/CyLib.c **** *             USB_CLK_DSI       - DSI
 982:.\Generated_Source\PSoC5/CyLib.c **** *
 983:.\Generated_Source\PSoC5/CyLib.c **** * Return:
 984:.\Generated_Source\PSoC5/CyLib.c **** *  None
 985:.\Generated_Source\PSoC5/CyLib.c **** *
 986:.\Generated_Source\PSoC5/CyLib.c **** *******************************************************************************/
 987:.\Generated_Source\PSoC5/CyLib.c **** void CyUsbClk_SetSource(uint8 source) 
 988:.\Generated_Source\PSoC5/CyLib.c **** {
 698              		.loc 1 988 0
 699              		.cfi_startproc
 700              		@ args = 0, pretend = 0, frame = 0
 701              		@ frame_needed = 0, uses_anonymous_args = 0
 702              		@ link register save eliminated.
 703              	.LVL37:
 989:.\Generated_Source\PSoC5/CyLib.c ****     CLKDIST_UCFG = (CLKDIST_UCFG & ((uint8)(~USB_CLKDIST_CONFIG_MASK))) |
 704              		.loc 1 989 0
 705 0000 044B     		ldr	r3, .L97
 706 0002 00F00300 		and	r0, r0, #3
 707              	.LVL38:
 708 0006 1A78     		ldrb	r2, [r3, #0]	@ zero_extendqisi2
 709 0008 02F0FC02 		and	r2, r2, #252
 710 000c 40EA0202 		orr	r2, r0, r2
 711 0010 1A70     		strb	r2, [r3, #0]
 990:.\Generated_Source\PSoC5/CyLib.c ****                         (USB_CLKDIST_CONFIG_MASK & source);
 991:.\Generated_Source\PSoC5/CyLib.c **** }
 712              		.loc 1 991 0
 713 0012 7047     		bx	lr
 714              	.L98:
 715              		.align	2
ARM GAS  C:\Users\SUZUKI~1\AppData\Local\Temp\cc9L9var.s 			page 31


 716              	.L97:
 717 0014 09400040 		.word	1073758217
 718              		.cfi_endproc
 719              	.LFE16:
 720              		.size	CyUsbClk_SetSource, .-CyUsbClk_SetSource
 721              		.section	.text.CyILO_Start1K,"ax",%progbits
 722              		.align	1
 723              		.global	CyILO_Start1K
 724              		.thumb
 725              		.thumb_func
 726              		.type	CyILO_Start1K, %function
 727              	CyILO_Start1K:
 728              	.LFB17:
 992:.\Generated_Source\PSoC5/CyLib.c **** 
 993:.\Generated_Source\PSoC5/CyLib.c **** 
 994:.\Generated_Source\PSoC5/CyLib.c **** /*******************************************************************************
 995:.\Generated_Source\PSoC5/CyLib.c **** * Function Name: CyILO_Start1K
 996:.\Generated_Source\PSoC5/CyLib.c **** ********************************************************************************
 997:.\Generated_Source\PSoC5/CyLib.c **** *
 998:.\Generated_Source\PSoC5/CyLib.c **** * Summary:
 999:.\Generated_Source\PSoC5/CyLib.c **** *  Enables the ILO 1 KHz oscillator.
1000:.\Generated_Source\PSoC5/CyLib.c **** *
1001:.\Generated_Source\PSoC5/CyLib.c **** *  Note The ILO 1 KHz oscillator is always enabled by default, regardless of the
1002:.\Generated_Source\PSoC5/CyLib.c **** *  selection in the Clock Editor. Therefore, this API is only needed if the
1003:.\Generated_Source\PSoC5/CyLib.c **** *  oscillator was turned off manually.
1004:.\Generated_Source\PSoC5/CyLib.c **** *
1005:.\Generated_Source\PSoC5/CyLib.c **** * Parameters:
1006:.\Generated_Source\PSoC5/CyLib.c **** *  None
1007:.\Generated_Source\PSoC5/CyLib.c **** *
1008:.\Generated_Source\PSoC5/CyLib.c **** * Return:
1009:.\Generated_Source\PSoC5/CyLib.c **** *  None
1010:.\Generated_Source\PSoC5/CyLib.c **** *
1011:.\Generated_Source\PSoC5/CyLib.c **** *******************************************************************************/
1012:.\Generated_Source\PSoC5/CyLib.c **** void CyILO_Start1K(void) 
1013:.\Generated_Source\PSoC5/CyLib.c **** {
 729              		.loc 1 1013 0
 730              		.cfi_startproc
 731              		@ args = 0, pretend = 0, frame = 0
 732              		@ frame_needed = 0, uses_anonymous_args = 0
 733              		@ link register save eliminated.
1014:.\Generated_Source\PSoC5/CyLib.c ****     /* Set the bit 1 of ILO RS */
1015:.\Generated_Source\PSoC5/CyLib.c ****     SLOWCLK_ILO_CR0 |= ILO_CONTROL_1KHZ_ON;
 734              		.loc 1 1015 0
 735 0000 024B     		ldr	r3, .L101
 736 0002 1A78     		ldrb	r2, [r3, #0]	@ zero_extendqisi2
 737 0004 42F00202 		orr	r2, r2, #2
 738 0008 1A70     		strb	r2, [r3, #0]
1016:.\Generated_Source\PSoC5/CyLib.c **** }
 739              		.loc 1 1016 0
 740 000a 7047     		bx	lr
 741              	.L102:
 742              		.align	2
 743              	.L101:
 744 000c 00430040 		.word	1073758976
 745              		.cfi_endproc
 746              	.LFE17:
 747              		.size	CyILO_Start1K, .-CyILO_Start1K
ARM GAS  C:\Users\SUZUKI~1\AppData\Local\Temp\cc9L9var.s 			page 32


 748              		.section	.text.CyILO_Stop1K,"ax",%progbits
 749              		.align	1
 750              		.global	CyILO_Stop1K
 751              		.thumb
 752              		.thumb_func
 753              		.type	CyILO_Stop1K, %function
 754              	CyILO_Stop1K:
 755              	.LFB18:
1017:.\Generated_Source\PSoC5/CyLib.c **** 
1018:.\Generated_Source\PSoC5/CyLib.c **** 
1019:.\Generated_Source\PSoC5/CyLib.c **** /*******************************************************************************
1020:.\Generated_Source\PSoC5/CyLib.c **** * Function Name: CyILO_Stop1K
1021:.\Generated_Source\PSoC5/CyLib.c **** ********************************************************************************
1022:.\Generated_Source\PSoC5/CyLib.c **** *
1023:.\Generated_Source\PSoC5/CyLib.c **** * Summary:
1024:.\Generated_Source\PSoC5/CyLib.c **** *  Disables the ILO 1 KHz oscillator.
1025:.\Generated_Source\PSoC5/CyLib.c **** *
1026:.\Generated_Source\PSoC5/CyLib.c **** *  Note The ILO 1 KHz oscillator must be enabled if Sleep or Hibernate low power
1027:.\Generated_Source\PSoC5/CyLib.c **** *  mode APIs are expected to be used. For more information, refer to the Power
1028:.\Generated_Source\PSoC5/CyLib.c **** *  Management section of this document.
1029:.\Generated_Source\PSoC5/CyLib.c **** *
1030:.\Generated_Source\PSoC5/CyLib.c **** * Parameters:
1031:.\Generated_Source\PSoC5/CyLib.c **** *  None
1032:.\Generated_Source\PSoC5/CyLib.c **** *
1033:.\Generated_Source\PSoC5/CyLib.c **** * Return:
1034:.\Generated_Source\PSoC5/CyLib.c **** *  None
1035:.\Generated_Source\PSoC5/CyLib.c **** *
1036:.\Generated_Source\PSoC5/CyLib.c **** * Side Effects:
1037:.\Generated_Source\PSoC5/CyLib.c **** *  PSoC5: Stopping the ILO 1 kHz could break the active WDT functionality.
1038:.\Generated_Source\PSoC5/CyLib.c **** *
1039:.\Generated_Source\PSoC5/CyLib.c **** *******************************************************************************/
1040:.\Generated_Source\PSoC5/CyLib.c **** void CyILO_Stop1K(void) 
1041:.\Generated_Source\PSoC5/CyLib.c **** {
 756              		.loc 1 1041 0
 757              		.cfi_startproc
 758              		@ args = 0, pretend = 0, frame = 0
 759              		@ frame_needed = 0, uses_anonymous_args = 0
 760              		@ link register save eliminated.
1042:.\Generated_Source\PSoC5/CyLib.c ****     /* Clear the bit 1 of ILO RS */
1043:.\Generated_Source\PSoC5/CyLib.c ****     SLOWCLK_ILO_CR0 &= ((uint8)(~ILO_CONTROL_1KHZ_ON));
 761              		.loc 1 1043 0
 762 0000 024B     		ldr	r3, .L105
 763 0002 1A78     		ldrb	r2, [r3, #0]	@ zero_extendqisi2
 764 0004 02F0FD02 		and	r2, r2, #253
 765 0008 1A70     		strb	r2, [r3, #0]
1044:.\Generated_Source\PSoC5/CyLib.c **** }
 766              		.loc 1 1044 0
 767 000a 7047     		bx	lr
 768              	.L106:
 769              		.align	2
 770              	.L105:
 771 000c 00430040 		.word	1073758976
 772              		.cfi_endproc
 773              	.LFE18:
 774              		.size	CyILO_Stop1K, .-CyILO_Stop1K
 775              		.section	.text.CyILO_Start100K,"ax",%progbits
 776              		.align	1
ARM GAS  C:\Users\SUZUKI~1\AppData\Local\Temp\cc9L9var.s 			page 33


 777              		.global	CyILO_Start100K
 778              		.thumb
 779              		.thumb_func
 780              		.type	CyILO_Start100K, %function
 781              	CyILO_Start100K:
 782              	.LFB19:
1045:.\Generated_Source\PSoC5/CyLib.c **** 
1046:.\Generated_Source\PSoC5/CyLib.c **** 
1047:.\Generated_Source\PSoC5/CyLib.c **** /*******************************************************************************
1048:.\Generated_Source\PSoC5/CyLib.c **** * Function Name: CyILO_Start100K
1049:.\Generated_Source\PSoC5/CyLib.c **** ********************************************************************************
1050:.\Generated_Source\PSoC5/CyLib.c **** *
1051:.\Generated_Source\PSoC5/CyLib.c **** * Summary:
1052:.\Generated_Source\PSoC5/CyLib.c **** *  Enables the ILO 100 KHz oscillator.
1053:.\Generated_Source\PSoC5/CyLib.c **** *
1054:.\Generated_Source\PSoC5/CyLib.c **** * Parameters:
1055:.\Generated_Source\PSoC5/CyLib.c **** *  None
1056:.\Generated_Source\PSoC5/CyLib.c **** *
1057:.\Generated_Source\PSoC5/CyLib.c **** * Return:
1058:.\Generated_Source\PSoC5/CyLib.c **** *  None
1059:.\Generated_Source\PSoC5/CyLib.c **** *
1060:.\Generated_Source\PSoC5/CyLib.c **** *******************************************************************************/
1061:.\Generated_Source\PSoC5/CyLib.c **** void CyILO_Start100K(void) 
1062:.\Generated_Source\PSoC5/CyLib.c **** {
 783              		.loc 1 1062 0
 784              		.cfi_startproc
 785              		@ args = 0, pretend = 0, frame = 0
 786              		@ frame_needed = 0, uses_anonymous_args = 0
 787              		@ link register save eliminated.
1063:.\Generated_Source\PSoC5/CyLib.c ****     /* Set the bit 2 of ILO RS */
1064:.\Generated_Source\PSoC5/CyLib.c ****     SLOWCLK_ILO_CR0 |= ILO_CONTROL_100KHZ_ON;
 788              		.loc 1 1064 0
 789 0000 024B     		ldr	r3, .L109
 790 0002 1A78     		ldrb	r2, [r3, #0]	@ zero_extendqisi2
 791 0004 42F00402 		orr	r2, r2, #4
 792 0008 1A70     		strb	r2, [r3, #0]
1065:.\Generated_Source\PSoC5/CyLib.c **** }
 793              		.loc 1 1065 0
 794 000a 7047     		bx	lr
 795              	.L110:
 796              		.align	2
 797              	.L109:
 798 000c 00430040 		.word	1073758976
 799              		.cfi_endproc
 800              	.LFE19:
 801              		.size	CyILO_Start100K, .-CyILO_Start100K
 802              		.section	.text.CyILO_Stop100K,"ax",%progbits
 803              		.align	1
 804              		.global	CyILO_Stop100K
 805              		.thumb
 806              		.thumb_func
 807              		.type	CyILO_Stop100K, %function
 808              	CyILO_Stop100K:
 809              	.LFB20:
1066:.\Generated_Source\PSoC5/CyLib.c **** 
1067:.\Generated_Source\PSoC5/CyLib.c **** 
1068:.\Generated_Source\PSoC5/CyLib.c **** /*******************************************************************************
ARM GAS  C:\Users\SUZUKI~1\AppData\Local\Temp\cc9L9var.s 			page 34


1069:.\Generated_Source\PSoC5/CyLib.c **** * Function Name: CyILO_Stop100K
1070:.\Generated_Source\PSoC5/CyLib.c **** ********************************************************************************
1071:.\Generated_Source\PSoC5/CyLib.c **** *
1072:.\Generated_Source\PSoC5/CyLib.c **** * Summary:
1073:.\Generated_Source\PSoC5/CyLib.c **** *  Disables the ILO 100 KHz oscillator.
1074:.\Generated_Source\PSoC5/CyLib.c **** *
1075:.\Generated_Source\PSoC5/CyLib.c **** * Parameters:
1076:.\Generated_Source\PSoC5/CyLib.c **** *  None
1077:.\Generated_Source\PSoC5/CyLib.c **** *
1078:.\Generated_Source\PSoC5/CyLib.c **** * Return:
1079:.\Generated_Source\PSoC5/CyLib.c **** *  None
1080:.\Generated_Source\PSoC5/CyLib.c **** *
1081:.\Generated_Source\PSoC5/CyLib.c **** *******************************************************************************/
1082:.\Generated_Source\PSoC5/CyLib.c **** void CyILO_Stop100K(void) 
1083:.\Generated_Source\PSoC5/CyLib.c **** {
 810              		.loc 1 1083 0
 811              		.cfi_startproc
 812              		@ args = 0, pretend = 0, frame = 0
 813              		@ frame_needed = 0, uses_anonymous_args = 0
 814              		@ link register save eliminated.
1084:.\Generated_Source\PSoC5/CyLib.c ****     /* Clear the bit 2 of ILO RS */
1085:.\Generated_Source\PSoC5/CyLib.c ****     SLOWCLK_ILO_CR0 &= ((uint8)(~ILO_CONTROL_100KHZ_ON));
 815              		.loc 1 1085 0
 816 0000 024B     		ldr	r3, .L113
 817 0002 1A78     		ldrb	r2, [r3, #0]	@ zero_extendqisi2
 818 0004 02F0FB02 		and	r2, r2, #251
 819 0008 1A70     		strb	r2, [r3, #0]
1086:.\Generated_Source\PSoC5/CyLib.c **** }
 820              		.loc 1 1086 0
 821 000a 7047     		bx	lr
 822              	.L114:
 823              		.align	2
 824              	.L113:
 825 000c 00430040 		.word	1073758976
 826              		.cfi_endproc
 827              	.LFE20:
 828              		.size	CyILO_Stop100K, .-CyILO_Stop100K
 829              		.section	.text.CyILO_Enable33K,"ax",%progbits
 830              		.align	1
 831              		.global	CyILO_Enable33K
 832              		.thumb
 833              		.thumb_func
 834              		.type	CyILO_Enable33K, %function
 835              	CyILO_Enable33K:
 836              	.LFB21:
1087:.\Generated_Source\PSoC5/CyLib.c **** 
1088:.\Generated_Source\PSoC5/CyLib.c **** 
1089:.\Generated_Source\PSoC5/CyLib.c **** /*******************************************************************************
1090:.\Generated_Source\PSoC5/CyLib.c **** * Function Name: CyILO_Enable33K
1091:.\Generated_Source\PSoC5/CyLib.c **** ********************************************************************************
1092:.\Generated_Source\PSoC5/CyLib.c **** *
1093:.\Generated_Source\PSoC5/CyLib.c **** * Summary:
1094:.\Generated_Source\PSoC5/CyLib.c **** *  Enables the ILO 33 KHz divider.
1095:.\Generated_Source\PSoC5/CyLib.c **** *
1096:.\Generated_Source\PSoC5/CyLib.c **** *  Note that the 33 KHz clock is generated from the 100 KHz oscillator,
1097:.\Generated_Source\PSoC5/CyLib.c **** *  so it must also be running in order to generate the 33 KHz output.
1098:.\Generated_Source\PSoC5/CyLib.c **** *
ARM GAS  C:\Users\SUZUKI~1\AppData\Local\Temp\cc9L9var.s 			page 35


1099:.\Generated_Source\PSoC5/CyLib.c **** * Parameters:
1100:.\Generated_Source\PSoC5/CyLib.c **** *  None
1101:.\Generated_Source\PSoC5/CyLib.c **** *
1102:.\Generated_Source\PSoC5/CyLib.c **** * Return:
1103:.\Generated_Source\PSoC5/CyLib.c **** *  None
1104:.\Generated_Source\PSoC5/CyLib.c **** *
1105:.\Generated_Source\PSoC5/CyLib.c **** *******************************************************************************/
1106:.\Generated_Source\PSoC5/CyLib.c **** void CyILO_Enable33K(void) 
1107:.\Generated_Source\PSoC5/CyLib.c **** {
 837              		.loc 1 1107 0
 838              		.cfi_startproc
 839              		@ args = 0, pretend = 0, frame = 0
 840              		@ frame_needed = 0, uses_anonymous_args = 0
 841              		@ link register save eliminated.
1108:.\Generated_Source\PSoC5/CyLib.c ****     /* Set the bit 5 of ILO RS */
1109:.\Generated_Source\PSoC5/CyLib.c ****     SLOWCLK_ILO_CR0 |= ILO_CONTROL_33KHZ_ON;
 842              		.loc 1 1109 0
 843 0000 024B     		ldr	r3, .L117
 844 0002 1A78     		ldrb	r2, [r3, #0]	@ zero_extendqisi2
 845 0004 42F02002 		orr	r2, r2, #32
 846 0008 1A70     		strb	r2, [r3, #0]
1110:.\Generated_Source\PSoC5/CyLib.c **** }
 847              		.loc 1 1110 0
 848 000a 7047     		bx	lr
 849              	.L118:
 850              		.align	2
 851              	.L117:
 852 000c 00430040 		.word	1073758976
 853              		.cfi_endproc
 854              	.LFE21:
 855              		.size	CyILO_Enable33K, .-CyILO_Enable33K
 856              		.section	.text.CyILO_Disable33K,"ax",%progbits
 857              		.align	1
 858              		.global	CyILO_Disable33K
 859              		.thumb
 860              		.thumb_func
 861              		.type	CyILO_Disable33K, %function
 862              	CyILO_Disable33K:
 863              	.LFB22:
1111:.\Generated_Source\PSoC5/CyLib.c **** 
1112:.\Generated_Source\PSoC5/CyLib.c **** 
1113:.\Generated_Source\PSoC5/CyLib.c **** /*******************************************************************************
1114:.\Generated_Source\PSoC5/CyLib.c **** * Function Name: CyILO_Disable33K
1115:.\Generated_Source\PSoC5/CyLib.c **** ********************************************************************************
1116:.\Generated_Source\PSoC5/CyLib.c **** *
1117:.\Generated_Source\PSoC5/CyLib.c **** * Summary:
1118:.\Generated_Source\PSoC5/CyLib.c **** *  Disables the ILO 33 KHz divider.
1119:.\Generated_Source\PSoC5/CyLib.c **** *
1120:.\Generated_Source\PSoC5/CyLib.c **** *  Note that the 33 KHz clock is generated from the 100 KHz oscillator, but this
1121:.\Generated_Source\PSoC5/CyLib.c **** *  API does not disable the 100 KHz clock.
1122:.\Generated_Source\PSoC5/CyLib.c **** *
1123:.\Generated_Source\PSoC5/CyLib.c **** * Parameters:
1124:.\Generated_Source\PSoC5/CyLib.c **** *  None
1125:.\Generated_Source\PSoC5/CyLib.c **** *
1126:.\Generated_Source\PSoC5/CyLib.c **** * Return:
1127:.\Generated_Source\PSoC5/CyLib.c **** *  None
1128:.\Generated_Source\PSoC5/CyLib.c **** *
ARM GAS  C:\Users\SUZUKI~1\AppData\Local\Temp\cc9L9var.s 			page 36


1129:.\Generated_Source\PSoC5/CyLib.c **** *******************************************************************************/
1130:.\Generated_Source\PSoC5/CyLib.c **** void CyILO_Disable33K(void) 
1131:.\Generated_Source\PSoC5/CyLib.c **** {
 864              		.loc 1 1131 0
 865              		.cfi_startproc
 866              		@ args = 0, pretend = 0, frame = 0
 867              		@ frame_needed = 0, uses_anonymous_args = 0
 868              		@ link register save eliminated.
1132:.\Generated_Source\PSoC5/CyLib.c ****     /* Clear the bit 5 of ILO RS */
1133:.\Generated_Source\PSoC5/CyLib.c ****     SLOWCLK_ILO_CR0 &= ((uint8)(~ILO_CONTROL_33KHZ_ON));
 869              		.loc 1 1133 0
 870 0000 024B     		ldr	r3, .L121
 871 0002 1A78     		ldrb	r2, [r3, #0]	@ zero_extendqisi2
 872 0004 02F0DF02 		and	r2, r2, #223
 873 0008 1A70     		strb	r2, [r3, #0]
1134:.\Generated_Source\PSoC5/CyLib.c **** }
 874              		.loc 1 1134 0
 875 000a 7047     		bx	lr
 876              	.L122:
 877              		.align	2
 878              	.L121:
 879 000c 00430040 		.word	1073758976
 880              		.cfi_endproc
 881              	.LFE22:
 882              		.size	CyILO_Disable33K, .-CyILO_Disable33K
 883              		.section	.text.CyILO_SetSource,"ax",%progbits
 884              		.align	1
 885              		.global	CyILO_SetSource
 886              		.thumb
 887              		.thumb_func
 888              		.type	CyILO_SetSource, %function
 889              	CyILO_SetSource:
 890              	.LFB23:
1135:.\Generated_Source\PSoC5/CyLib.c **** 
1136:.\Generated_Source\PSoC5/CyLib.c **** 
1137:.\Generated_Source\PSoC5/CyLib.c **** /*******************************************************************************
1138:.\Generated_Source\PSoC5/CyLib.c **** * Function Name: CyILO_SetSource
1139:.\Generated_Source\PSoC5/CyLib.c **** ********************************************************************************
1140:.\Generated_Source\PSoC5/CyLib.c **** *
1141:.\Generated_Source\PSoC5/CyLib.c **** * Summary:
1142:.\Generated_Source\PSoC5/CyLib.c **** *  Sets the source of the clock output from the ILO block.
1143:.\Generated_Source\PSoC5/CyLib.c **** *
1144:.\Generated_Source\PSoC5/CyLib.c **** * Parameters:
1145:.\Generated_Source\PSoC5/CyLib.c **** *  source: One of the three available ILO output sources
1146:.\Generated_Source\PSoC5/CyLib.c **** *       Value        Define                Source
1147:.\Generated_Source\PSoC5/CyLib.c **** *       0            CY_ILO_SOURCE_100K    ILO 100 KHz
1148:.\Generated_Source\PSoC5/CyLib.c **** *       1            CY_ILO_SOURCE_33K     ILO 33 KHz
1149:.\Generated_Source\PSoC5/CyLib.c **** *       2            CY_ILO_SOURCE_1K      ILO 1 KHz
1150:.\Generated_Source\PSoC5/CyLib.c **** *
1151:.\Generated_Source\PSoC5/CyLib.c **** * Return:
1152:.\Generated_Source\PSoC5/CyLib.c **** *  None
1153:.\Generated_Source\PSoC5/CyLib.c **** *
1154:.\Generated_Source\PSoC5/CyLib.c **** *******************************************************************************/
1155:.\Generated_Source\PSoC5/CyLib.c **** void CyILO_SetSource(uint8 source) 
1156:.\Generated_Source\PSoC5/CyLib.c **** {
 891              		.loc 1 1156 0
 892              		.cfi_startproc
ARM GAS  C:\Users\SUZUKI~1\AppData\Local\Temp\cc9L9var.s 			page 37


 893              		@ args = 0, pretend = 0, frame = 0
 894              		@ frame_needed = 0, uses_anonymous_args = 0
 895              		@ link register save eliminated.
 896              	.LVL39:
1157:.\Generated_Source\PSoC5/CyLib.c ****     CLKDIST_CR = (CLKDIST_CR & CY_ILO_SOURCE_BITS_CLEAR) |
 897              		.loc 1 1157 0
 898 0000 054B     		ldr	r3, .L125
 899 0002 8000     		lsls	r0, r0, #2
 900              	.LVL40:
 901 0004 1A78     		ldrb	r2, [r3, #0]	@ zero_extendqisi2
 902 0006 00F00C00 		and	r0, r0, #12
 903 000a 02F0F302 		and	r2, r2, #243
 904 000e 40EA0202 		orr	r2, r0, r2
 905 0012 1A70     		strb	r2, [r3, #0]
1158:.\Generated_Source\PSoC5/CyLib.c ****                     (((uint8) (source << 2u)) & ((uint8)(~CY_ILO_SOURCE_BITS_CLEAR)));
1159:.\Generated_Source\PSoC5/CyLib.c **** }
 906              		.loc 1 1159 0
 907 0014 7047     		bx	lr
 908              	.L126:
 909 0016 00BF     		.align	2
 910              	.L125:
 911 0018 00400040 		.word	1073758208
 912              		.cfi_endproc
 913              	.LFE23:
 914              		.size	CyILO_SetSource, .-CyILO_SetSource
 915              		.section	.text.CyILO_SetPowerMode,"ax",%progbits
 916              		.align	1
 917              		.global	CyILO_SetPowerMode
 918              		.thumb
 919              		.thumb_func
 920              		.type	CyILO_SetPowerMode, %function
 921              	CyILO_SetPowerMode:
 922              	.LFB24:
1160:.\Generated_Source\PSoC5/CyLib.c **** 
1161:.\Generated_Source\PSoC5/CyLib.c **** 
1162:.\Generated_Source\PSoC5/CyLib.c **** /*******************************************************************************
1163:.\Generated_Source\PSoC5/CyLib.c **** * Function Name: CyILO_SetPowerMode
1164:.\Generated_Source\PSoC5/CyLib.c **** ********************************************************************************
1165:.\Generated_Source\PSoC5/CyLib.c **** *
1166:.\Generated_Source\PSoC5/CyLib.c **** * Summary:
1167:.\Generated_Source\PSoC5/CyLib.c **** *  Sets the power mode used by the ILO during power down. Allows for lower power
1168:.\Generated_Source\PSoC5/CyLib.c **** *  down power usage resulting in a slower startup time.
1169:.\Generated_Source\PSoC5/CyLib.c **** *
1170:.\Generated_Source\PSoC5/CyLib.c **** * Parameters:
1171:.\Generated_Source\PSoC5/CyLib.c **** *  uint8 mode
1172:.\Generated_Source\PSoC5/CyLib.c **** *   CY_ILO_FAST_START - Faster start-up, internal bias left on when powered down
1173:.\Generated_Source\PSoC5/CyLib.c **** *   CY_ILO_SLOW_START - Slower start-up, internal bias off when powered down
1174:.\Generated_Source\PSoC5/CyLib.c **** *
1175:.\Generated_Source\PSoC5/CyLib.c **** * Return:
1176:.\Generated_Source\PSoC5/CyLib.c **** *   Prevous power mode state.
1177:.\Generated_Source\PSoC5/CyLib.c **** *
1178:.\Generated_Source\PSoC5/CyLib.c **** *******************************************************************************/
1179:.\Generated_Source\PSoC5/CyLib.c **** uint8 CyILO_SetPowerMode(uint8 mode) 
1180:.\Generated_Source\PSoC5/CyLib.c **** {
 923              		.loc 1 1180 0
 924              		.cfi_startproc
 925              		@ args = 0, pretend = 0, frame = 0
ARM GAS  C:\Users\SUZUKI~1\AppData\Local\Temp\cc9L9var.s 			page 38


 926              		@ frame_needed = 0, uses_anonymous_args = 0
 927              		@ link register save eliminated.
 928              	.LVL41:
1181:.\Generated_Source\PSoC5/CyLib.c ****     uint8 state;
1182:.\Generated_Source\PSoC5/CyLib.c **** 
1183:.\Generated_Source\PSoC5/CyLib.c ****     /* Get current state. */
1184:.\Generated_Source\PSoC5/CyLib.c ****     state = SLOWCLK_ILO_CR0;
 929              		.loc 1 1184 0
 930 0000 054A     		ldr	r2, .L132
 931 0002 1378     		ldrb	r3, [r2, #0]	@ zero_extendqisi2
1185:.\Generated_Source\PSoC5/CyLib.c **** 
1186:.\Generated_Source\PSoC5/CyLib.c ****     /* Set the the oscillator power mode. */
1187:.\Generated_Source\PSoC5/CyLib.c ****     if(mode != CY_ILO_FAST_START)
 932              		.loc 1 1187 0
 933 0004 10B1     		cbz	r0, .L128
1188:.\Generated_Source\PSoC5/CyLib.c ****     {
1189:.\Generated_Source\PSoC5/CyLib.c ****         SLOWCLK_ILO_CR0 = (state | ILO_CONTROL_PD_MODE);
 934              		.loc 1 1189 0
 935 0006 43F01001 		orr	r1, r3, #16
 936              	.LVL42:
 937 000a 01E0     		b	.L131
 938              	.LVL43:
 939              	.L128:
1190:.\Generated_Source\PSoC5/CyLib.c ****     }
1191:.\Generated_Source\PSoC5/CyLib.c ****     else
1192:.\Generated_Source\PSoC5/CyLib.c ****     {
1193:.\Generated_Source\PSoC5/CyLib.c ****         SLOWCLK_ILO_CR0 = (state & ((uint8)(~ILO_CONTROL_PD_MODE)));
 940              		.loc 1 1193 0
 941 000c 03F0EF01 		and	r1, r3, #239
 942              	.LVL44:
 943              	.L131:
 944 0010 1170     		strb	r1, [r2, #0]
1194:.\Generated_Source\PSoC5/CyLib.c ****     }
1195:.\Generated_Source\PSoC5/CyLib.c **** 
1196:.\Generated_Source\PSoC5/CyLib.c ****     /* Return the old mode. */
1197:.\Generated_Source\PSoC5/CyLib.c ****     return ((state & ILO_CONTROL_PD_MODE) >> ILO_CONTROL_PD_POSITION);
1198:.\Generated_Source\PSoC5/CyLib.c **** }
 945              		.loc 1 1198 0
 946 0012 C3F30010 		ubfx	r0, r3, #4, #1
 947              	.LVL45:
 948 0016 7047     		bx	lr
 949              	.L133:
 950              		.align	2
 951              	.L132:
 952 0018 00430040 		.word	1073758976
 953              		.cfi_endproc
 954              	.LFE24:
 955              		.size	CyILO_SetPowerMode, .-CyILO_SetPowerMode
 956              		.section	.text.CyXTAL_32KHZ_Stop,"ax",%progbits
 957              		.align	1
 958              		.global	CyXTAL_32KHZ_Stop
 959              		.thumb
 960              		.thumb_func
 961              		.type	CyXTAL_32KHZ_Stop, %function
 962              	CyXTAL_32KHZ_Stop:
 963              	.LFB26:
1199:.\Generated_Source\PSoC5/CyLib.c **** 
ARM GAS  C:\Users\SUZUKI~1\AppData\Local\Temp\cc9L9var.s 			page 39


1200:.\Generated_Source\PSoC5/CyLib.c **** 
1201:.\Generated_Source\PSoC5/CyLib.c **** /*******************************************************************************
1202:.\Generated_Source\PSoC5/CyLib.c **** * Function Name: CyXTAL_32KHZ_Start
1203:.\Generated_Source\PSoC5/CyLib.c **** ********************************************************************************
1204:.\Generated_Source\PSoC5/CyLib.c **** *
1205:.\Generated_Source\PSoC5/CyLib.c **** * Summary:
1206:.\Generated_Source\PSoC5/CyLib.c **** *  Enables the 32 KHz Crystal Oscillator.
1207:.\Generated_Source\PSoC5/CyLib.c **** *
1208:.\Generated_Source\PSoC5/CyLib.c **** * Parameters:
1209:.\Generated_Source\PSoC5/CyLib.c **** *  None
1210:.\Generated_Source\PSoC5/CyLib.c **** *
1211:.\Generated_Source\PSoC5/CyLib.c **** * Return:
1212:.\Generated_Source\PSoC5/CyLib.c **** *  None
1213:.\Generated_Source\PSoC5/CyLib.c **** *
1214:.\Generated_Source\PSoC5/CyLib.c **** *******************************************************************************/
1215:.\Generated_Source\PSoC5/CyLib.c **** void CyXTAL_32KHZ_Start(void) 
1216:.\Generated_Source\PSoC5/CyLib.c **** {
1217:.\Generated_Source\PSoC5/CyLib.c ****     volatile uint16 i;
1218:.\Generated_Source\PSoC5/CyLib.c **** 
1219:.\Generated_Source\PSoC5/CyLib.c ****     CY_CLK_XTAL32_TST_REG = CY_CLK_XTAL32_TST_DEFAULT;
1220:.\Generated_Source\PSoC5/CyLib.c ****     CY_CLK_XTAL32_TR_REG  = CY_CLK_XTAL32_TR_STARTUP;
1221:.\Generated_Source\PSoC5/CyLib.c ****     CY_CLK_XTAL32_CFG_REG = (CY_CLK_XTAL32_CFG_REG & ((uint8)(~CY_CLK_XTAL32_CFG_LP_MASK))) |
1222:.\Generated_Source\PSoC5/CyLib.c ****                                 CY_CLK_XTAL32_CFG_LP_DEFAULT;
1223:.\Generated_Source\PSoC5/CyLib.c **** 
1224:.\Generated_Source\PSoC5/CyLib.c ****     #if(CY_PSOC3)
1225:.\Generated_Source\PSoC5/CyLib.c ****         CY_CLK_XTAL32_CR_REG |= CY_CLK_XTAL32_CR_PDBEN;
1226:.\Generated_Source\PSoC5/CyLib.c ****     #endif  /* (CY_PSOC3) */
1227:.\Generated_Source\PSoC5/CyLib.c **** 
1228:.\Generated_Source\PSoC5/CyLib.c ****     /* Enable operation of the 32K Crystal Oscillator */
1229:.\Generated_Source\PSoC5/CyLib.c ****     CY_CLK_XTAL32_CR_REG |= CY_CLK_XTAL32_CR_EN;
1230:.\Generated_Source\PSoC5/CyLib.c **** 
1231:.\Generated_Source\PSoC5/CyLib.c ****     for (i = 1000u; i > 0u; i--)
1232:.\Generated_Source\PSoC5/CyLib.c ****     {
1233:.\Generated_Source\PSoC5/CyLib.c ****         if(0u != (CyXTAL_32KHZ_ReadStatus() & CY_XTAL32K_ANA_STAT))
1234:.\Generated_Source\PSoC5/CyLib.c ****         {
1235:.\Generated_Source\PSoC5/CyLib.c ****             /* Ready - switch to the hign power mode */
1236:.\Generated_Source\PSoC5/CyLib.c ****             (void) CyXTAL_32KHZ_SetPowerMode(0u);
1237:.\Generated_Source\PSoC5/CyLib.c **** 
1238:.\Generated_Source\PSoC5/CyLib.c ****             break;
1239:.\Generated_Source\PSoC5/CyLib.c ****         }
1240:.\Generated_Source\PSoC5/CyLib.c ****         CyDelayUs(1u);
1241:.\Generated_Source\PSoC5/CyLib.c ****     }
1242:.\Generated_Source\PSoC5/CyLib.c **** }
1243:.\Generated_Source\PSoC5/CyLib.c **** 
1244:.\Generated_Source\PSoC5/CyLib.c **** 
1245:.\Generated_Source\PSoC5/CyLib.c **** /*******************************************************************************
1246:.\Generated_Source\PSoC5/CyLib.c **** * Function Name: CyXTAL_32KHZ_Stop
1247:.\Generated_Source\PSoC5/CyLib.c **** ********************************************************************************
1248:.\Generated_Source\PSoC5/CyLib.c **** *
1249:.\Generated_Source\PSoC5/CyLib.c **** * Summary:
1250:.\Generated_Source\PSoC5/CyLib.c **** *  Disables the 32KHz Crystal Oscillator.
1251:.\Generated_Source\PSoC5/CyLib.c **** *
1252:.\Generated_Source\PSoC5/CyLib.c **** * Parameters:
1253:.\Generated_Source\PSoC5/CyLib.c **** *  None
1254:.\Generated_Source\PSoC5/CyLib.c **** *
1255:.\Generated_Source\PSoC5/CyLib.c **** * Return:
1256:.\Generated_Source\PSoC5/CyLib.c **** *  None
ARM GAS  C:\Users\SUZUKI~1\AppData\Local\Temp\cc9L9var.s 			page 40


1257:.\Generated_Source\PSoC5/CyLib.c **** *
1258:.\Generated_Source\PSoC5/CyLib.c **** *******************************************************************************/
1259:.\Generated_Source\PSoC5/CyLib.c **** void CyXTAL_32KHZ_Stop(void) 
1260:.\Generated_Source\PSoC5/CyLib.c **** {
 964              		.loc 1 1260 0
 965              		.cfi_startproc
 966              		@ args = 0, pretend = 0, frame = 0
 967              		@ frame_needed = 0, uses_anonymous_args = 0
 968              		@ link register save eliminated.
1261:.\Generated_Source\PSoC5/CyLib.c ****     CY_CLK_XTAL32_TST_REG  = CY_CLK_XTAL32_TST_DEFAULT;
 969              		.loc 1 1261 0
 970 0000 094B     		ldr	r3, .L136
 971 0002 6FF00C02 		mvn	r2, #12
 972 0006 1A70     		strb	r2, [r3, #0]
1262:.\Generated_Source\PSoC5/CyLib.c ****     CY_CLK_XTAL32_TR_REG   = CY_CLK_XTAL32_TR_POWERDOWN;
 973              		.loc 1 1262 0
 974 0008 084B     		ldr	r3, .L136+4
 975 000a 0D32     		adds	r2, r2, #13
 976 000c 1A70     		strb	r2, [r3, #0]
1263:.\Generated_Source\PSoC5/CyLib.c ****     CY_CLK_XTAL32_CFG_REG = (CY_CLK_XTAL32_CFG_REG & ((uint8)(~CY_CLK_XTAL32_CFG_LP_MASK))) | CY_CL
 977              		.loc 1 1263 0
 978 000e 084B     		ldr	r3, .L136+8
 979 0010 1A78     		ldrb	r2, [r3, #0]	@ zero_extendqisi2
 980 0012 02F0F302 		and	r2, r2, #243
 981 0016 42F00402 		orr	r2, r2, #4
 982 001a 1A70     		strb	r2, [r3, #0]
1264:.\Generated_Source\PSoC5/CyLib.c ****     CY_CLK_XTAL32_CR_REG &= ((uint8)(~(CY_CLK_XTAL32_CR_EN | CY_CLK_XTAL32_CR_LPM)));
 983              		.loc 1 1264 0
 984 001c 013B     		subs	r3, r3, #1
 985 001e 1A78     		ldrb	r2, [r3, #0]	@ zero_extendqisi2
 986 0020 02F0FC02 		and	r2, r2, #252
 987 0024 1A70     		strb	r2, [r3, #0]
1265:.\Generated_Source\PSoC5/CyLib.c **** 
1266:.\Generated_Source\PSoC5/CyLib.c ****     #if(CY_PSOC3)
1267:.\Generated_Source\PSoC5/CyLib.c ****         CY_CLK_XTAL32_CR_REG &= ((uint8)(~CY_CLK_XTAL32_CR_PDBEN));
1268:.\Generated_Source\PSoC5/CyLib.c ****     #endif  /* (CY_PSOC3) */
1269:.\Generated_Source\PSoC5/CyLib.c **** }
 988              		.loc 1 1269 0
 989 0026 7047     		bx	lr
 990              	.L137:
 991              		.align	2
 992              	.L136:
 993 0028 0A430040 		.word	1073758986
 994 002c 98460040 		.word	1073759896
 995 0030 09430040 		.word	1073758985
 996              		.cfi_endproc
 997              	.LFE26:
 998              		.size	CyXTAL_32KHZ_Stop, .-CyXTAL_32KHZ_Stop
 999              		.section	.text.CyXTAL_32KHZ_ReadStatus,"ax",%progbits
 1000              		.align	1
 1001              		.global	CyXTAL_32KHZ_ReadStatus
 1002              		.thumb
 1003              		.thumb_func
 1004              		.type	CyXTAL_32KHZ_ReadStatus, %function
 1005              	CyXTAL_32KHZ_ReadStatus:
 1006              	.LFB27:
1270:.\Generated_Source\PSoC5/CyLib.c **** 
ARM GAS  C:\Users\SUZUKI~1\AppData\Local\Temp\cc9L9var.s 			page 41


1271:.\Generated_Source\PSoC5/CyLib.c **** 
1272:.\Generated_Source\PSoC5/CyLib.c **** /*******************************************************************************
1273:.\Generated_Source\PSoC5/CyLib.c **** * Function Name: CyXTAL_32KHZ_ReadStatus
1274:.\Generated_Source\PSoC5/CyLib.c **** ********************************************************************************
1275:.\Generated_Source\PSoC5/CyLib.c **** *
1276:.\Generated_Source\PSoC5/CyLib.c **** * Summary:
1277:.\Generated_Source\PSoC5/CyLib.c **** *  Returns status of the 32 KHz oscillator.
1278:.\Generated_Source\PSoC5/CyLib.c **** *
1279:.\Generated_Source\PSoC5/CyLib.c **** * Parameters:
1280:.\Generated_Source\PSoC5/CyLib.c **** *  None
1281:.\Generated_Source\PSoC5/CyLib.c **** *
1282:.\Generated_Source\PSoC5/CyLib.c **** * Return:
1283:.\Generated_Source\PSoC5/CyLib.c **** *  Value     Define                    Source
1284:.\Generated_Source\PSoC5/CyLib.c **** *  20        CY_XTAL32K_ANA_STAT       Analog measurement
1285:.\Generated_Source\PSoC5/CyLib.c **** *                                       1: Stable
1286:.\Generated_Source\PSoC5/CyLib.c **** *                                       0: Not stable
1287:.\Generated_Source\PSoC5/CyLib.c **** *
1288:.\Generated_Source\PSoC5/CyLib.c **** *******************************************************************************/
1289:.\Generated_Source\PSoC5/CyLib.c **** uint8 CyXTAL_32KHZ_ReadStatus(void) 
1290:.\Generated_Source\PSoC5/CyLib.c **** {
 1007              		.loc 1 1290 0
 1008              		.cfi_startproc
 1009              		@ args = 0, pretend = 0, frame = 0
 1010              		@ frame_needed = 0, uses_anonymous_args = 0
 1011              		@ link register save eliminated.
1291:.\Generated_Source\PSoC5/CyLib.c ****     return(CY_CLK_XTAL32_CR_REG & CY_XTAL32K_ANA_STAT);
 1012              		.loc 1 1291 0
 1013 0000 024B     		ldr	r3, .L140
 1014 0002 1878     		ldrb	r0, [r3, #0]	@ zero_extendqisi2
1292:.\Generated_Source\PSoC5/CyLib.c **** }
 1015              		.loc 1 1292 0
 1016 0004 00F02000 		and	r0, r0, #32
 1017 0008 7047     		bx	lr
 1018              	.L141:
 1019 000a 00BF     		.align	2
 1020              	.L140:
 1021 000c 08430040 		.word	1073758984
 1022              		.cfi_endproc
 1023              	.LFE27:
 1024              		.size	CyXTAL_32KHZ_ReadStatus, .-CyXTAL_32KHZ_ReadStatus
 1025              		.section	.text.CyXTAL_Stop,"ax",%progbits
 1026              		.align	1
 1027              		.global	CyXTAL_Stop
 1028              		.thumb
 1029              		.thumb_func
 1030              		.type	CyXTAL_Stop, %function
 1031              	CyXTAL_Stop:
 1032              	.LFB30:
1293:.\Generated_Source\PSoC5/CyLib.c **** 
1294:.\Generated_Source\PSoC5/CyLib.c **** 
1295:.\Generated_Source\PSoC5/CyLib.c **** /*******************************************************************************
1296:.\Generated_Source\PSoC5/CyLib.c **** * Function Name: CyXTAL_32KHZ_SetPowerMode
1297:.\Generated_Source\PSoC5/CyLib.c **** ********************************************************************************
1298:.\Generated_Source\PSoC5/CyLib.c **** *
1299:.\Generated_Source\PSoC5/CyLib.c **** * Summary:
1300:.\Generated_Source\PSoC5/CyLib.c **** *  Sets the power mode for the 32 KHz oscillator used during sleep mode.
1301:.\Generated_Source\PSoC5/CyLib.c **** *  Allows for lower power during sleep when there are fewer sources of noise.
ARM GAS  C:\Users\SUZUKI~1\AppData\Local\Temp\cc9L9var.s 			page 42


1302:.\Generated_Source\PSoC5/CyLib.c **** *  During active mode the oscillator is always run in high power mode.
1303:.\Generated_Source\PSoC5/CyLib.c **** *
1304:.\Generated_Source\PSoC5/CyLib.c **** * Parameters:
1305:.\Generated_Source\PSoC5/CyLib.c **** *  uint8 mode
1306:.\Generated_Source\PSoC5/CyLib.c **** *       0: High power mode
1307:.\Generated_Source\PSoC5/CyLib.c **** *       1: Low power mode during sleep
1308:.\Generated_Source\PSoC5/CyLib.c **** *
1309:.\Generated_Source\PSoC5/CyLib.c **** * Return:
1310:.\Generated_Source\PSoC5/CyLib.c **** *  Previous power mode.
1311:.\Generated_Source\PSoC5/CyLib.c **** *
1312:.\Generated_Source\PSoC5/CyLib.c **** *******************************************************************************/
1313:.\Generated_Source\PSoC5/CyLib.c **** uint8 CyXTAL_32KHZ_SetPowerMode(uint8 mode) 
1314:.\Generated_Source\PSoC5/CyLib.c **** {
1315:.\Generated_Source\PSoC5/CyLib.c ****     uint8 state = (0u != (CY_CLK_XTAL32_CR_REG & CY_CLK_XTAL32_CR_LPM)) ? 1u : 0u;
1316:.\Generated_Source\PSoC5/CyLib.c **** 
1317:.\Generated_Source\PSoC5/CyLib.c ****     CY_CLK_XTAL32_TST_REG = CY_CLK_XTAL32_TST_DEFAULT;
1318:.\Generated_Source\PSoC5/CyLib.c **** 
1319:.\Generated_Source\PSoC5/CyLib.c ****     if(1u == mode)
1320:.\Generated_Source\PSoC5/CyLib.c ****     {
1321:.\Generated_Source\PSoC5/CyLib.c ****         /* Low power mode during Sleep */
1322:.\Generated_Source\PSoC5/CyLib.c ****         CY_CLK_XTAL32_TR_REG  = CY_CLK_XTAL32_TR_LOW_POWER;
1323:.\Generated_Source\PSoC5/CyLib.c ****         CyDelayUs(10u);
1324:.\Generated_Source\PSoC5/CyLib.c ****         CY_CLK_XTAL32_CFG_REG = (CY_CLK_XTAL32_CFG_REG & ((uint8)(~CY_CLK_XTAL32_CFG_LP_MASK))) | C
1325:.\Generated_Source\PSoC5/CyLib.c ****         CyDelayUs(20u);
1326:.\Generated_Source\PSoC5/CyLib.c ****         CY_CLK_XTAL32_CR_REG |= CY_CLK_XTAL32_CR_LPM;
1327:.\Generated_Source\PSoC5/CyLib.c ****     }
1328:.\Generated_Source\PSoC5/CyLib.c ****     else
1329:.\Generated_Source\PSoC5/CyLib.c ****     {
1330:.\Generated_Source\PSoC5/CyLib.c ****         /* High power mode */
1331:.\Generated_Source\PSoC5/CyLib.c ****         CY_CLK_XTAL32_TR_REG  = CY_CLK_XTAL32_TR_HIGH_POWER;
1332:.\Generated_Source\PSoC5/CyLib.c ****         CyDelayUs(10u);
1333:.\Generated_Source\PSoC5/CyLib.c ****         CY_CLK_XTAL32_CFG_REG = (CY_CLK_XTAL32_CFG_REG & ((uint8)(~CY_CLK_XTAL32_CFG_LP_MASK))) | C
1334:.\Generated_Source\PSoC5/CyLib.c ****         CY_CLK_XTAL32_CR_REG &= ((uint8)(~CY_CLK_XTAL32_CR_LPM));
1335:.\Generated_Source\PSoC5/CyLib.c ****     }
1336:.\Generated_Source\PSoC5/CyLib.c **** 
1337:.\Generated_Source\PSoC5/CyLib.c ****     return(state);
1338:.\Generated_Source\PSoC5/CyLib.c **** }
1339:.\Generated_Source\PSoC5/CyLib.c **** 
1340:.\Generated_Source\PSoC5/CyLib.c **** 
1341:.\Generated_Source\PSoC5/CyLib.c **** /*******************************************************************************
1342:.\Generated_Source\PSoC5/CyLib.c **** * Function Name: CyXTAL_Start
1343:.\Generated_Source\PSoC5/CyLib.c **** ********************************************************************************
1344:.\Generated_Source\PSoC5/CyLib.c **** *
1345:.\Generated_Source\PSoC5/CyLib.c **** * Summary:
1346:.\Generated_Source\PSoC5/CyLib.c **** *  Enables the megahertz crystal.
1347:.\Generated_Source\PSoC5/CyLib.c **** *
1348:.\Generated_Source\PSoC5/CyLib.c **** *  PSoC3:
1349:.\Generated_Source\PSoC5/CyLib.c **** *  Waits until the XERR bit is low (no error) for a millisecond or until the
1350:.\Generated_Source\PSoC5/CyLib.c **** *  number of milliseconds specified by the wait parameter has expired.
1351:.\Generated_Source\PSoC5/CyLib.c **** *
1352:.\Generated_Source\PSoC5/CyLib.c **** *  PSoC5:
1353:.\Generated_Source\PSoC5/CyLib.c **** *  Waits for CY_CLK_XMHZ_MIN_TIMEOUT milliseconds (or number of milliseconds
1354:.\Generated_Source\PSoC5/CyLib.c **** *  specified by parameter if it is greater than CY_CLK_XMHZ_MIN_TIMEOUT. The
1355:.\Generated_Source\PSoC5/CyLib.c **** *  XERR bit status is not checked.
1356:.\Generated_Source\PSoC5/CyLib.c **** *
1357:.\Generated_Source\PSoC5/CyLib.c **** * Parameters:
1358:.\Generated_Source\PSoC5/CyLib.c **** *   wait: Valid range [0-255].
ARM GAS  C:\Users\SUZUKI~1\AppData\Local\Temp\cc9L9var.s 			page 43


1359:.\Generated_Source\PSoC5/CyLib.c **** *   This is the timeout value in milliseconds.
1360:.\Generated_Source\PSoC5/CyLib.c **** *   The appropriate value is crystal specific.
1361:.\Generated_Source\PSoC5/CyLib.c **** *
1362:.\Generated_Source\PSoC5/CyLib.c **** * Return:
1363:.\Generated_Source\PSoC5/CyLib.c **** *   CYRET_SUCCESS - Completed successfully
1364:.\Generated_Source\PSoC5/CyLib.c **** *   CYRET_TIMEOUT - Timeout occurred without detecting a low value on XERR.
1365:.\Generated_Source\PSoC5/CyLib.c **** *
1366:.\Generated_Source\PSoC5/CyLib.c **** * Side Effects and Restrictions:
1367:.\Generated_Source\PSoC5/CyLib.c **** *  If wait is enabled (non-zero wait). Uses the Fast Timewheel to time the wait.
1368:.\Generated_Source\PSoC5/CyLib.c **** *  Any other use of the Fast Timewheel (FTW) will be stopped during the period
1369:.\Generated_Source\PSoC5/CyLib.c **** *  of this function and then restored.
1370:.\Generated_Source\PSoC5/CyLib.c **** *
1371:.\Generated_Source\PSoC5/CyLib.c **** *  Uses the 100KHz ILO.  If not enabled, this function will enable the 100KHz
1372:.\Generated_Source\PSoC5/CyLib.c **** *  ILO for the period of this function. No changes to the setup of the ILO,
1373:.\Generated_Source\PSoC5/CyLib.c **** *  Fast Timewheel, Central Timewheel or Once Per Second interrupt may be made
1374:.\Generated_Source\PSoC5/CyLib.c **** *  by interrupt routines during the period of this function.
1375:.\Generated_Source\PSoC5/CyLib.c **** *
1376:.\Generated_Source\PSoC5/CyLib.c **** *  The current operation of the ILO, Central Timewheel and Once Per Second
1377:.\Generated_Source\PSoC5/CyLib.c **** *  interrupt are maintained during the operation of this function provided the
1378:.\Generated_Source\PSoC5/CyLib.c **** *  reading of the Power Manager Interrupt Status Register is only done using the
1379:.\Generated_Source\PSoC5/CyLib.c **** *  CyPmReadStatus() function.
1380:.\Generated_Source\PSoC5/CyLib.c **** *
1381:.\Generated_Source\PSoC5/CyLib.c **** *******************************************************************************/
1382:.\Generated_Source\PSoC5/CyLib.c **** cystatus CyXTAL_Start(uint8 wait) 
1383:.\Generated_Source\PSoC5/CyLib.c **** {
1384:.\Generated_Source\PSoC5/CyLib.c ****     cystatus status = CYRET_SUCCESS;
1385:.\Generated_Source\PSoC5/CyLib.c **** 
1386:.\Generated_Source\PSoC5/CyLib.c ****     #if(CY_PSOC5A)
1387:.\Generated_Source\PSoC5/CyLib.c ****         volatile uint8  timeout = (wait < CY_CLK_XMHZ_MIN_TIMEOUT) ? CY_CLK_XMHZ_MIN_TIMEOUT : wait
1388:.\Generated_Source\PSoC5/CyLib.c ****     #else
1389:.\Generated_Source\PSoC5/CyLib.c ****         volatile uint8  timeout = wait;
1390:.\Generated_Source\PSoC5/CyLib.c ****     #endif  /* (CY_PSOC5A) */
1391:.\Generated_Source\PSoC5/CyLib.c **** 
1392:.\Generated_Source\PSoC5/CyLib.c ****     volatile uint8 count;
1393:.\Generated_Source\PSoC5/CyLib.c ****     uint8 iloEnableState;
1394:.\Generated_Source\PSoC5/CyLib.c ****     uint8 pmTwCfg0Tmp;
1395:.\Generated_Source\PSoC5/CyLib.c ****     uint8 pmTwCfg2Tmp;
1396:.\Generated_Source\PSoC5/CyLib.c **** 
1397:.\Generated_Source\PSoC5/CyLib.c **** 
1398:.\Generated_Source\PSoC5/CyLib.c ****     /* Enables the MHz crystal oscillator circuit  */
1399:.\Generated_Source\PSoC5/CyLib.c ****     CY_CLK_XMHZ_CSR_REG |= CY_CLK_XMHZ_CSR_ENABLE;
1400:.\Generated_Source\PSoC5/CyLib.c **** 
1401:.\Generated_Source\PSoC5/CyLib.c **** 
1402:.\Generated_Source\PSoC5/CyLib.c ****     if(wait > 0u)
1403:.\Generated_Source\PSoC5/CyLib.c ****     {
1404:.\Generated_Source\PSoC5/CyLib.c ****         /* Save 100 KHz ILO, FTW interval, enable and interrupt enable */
1405:.\Generated_Source\PSoC5/CyLib.c ****         iloEnableState = SLOWCLK_ILO_CR0;
1406:.\Generated_Source\PSoC5/CyLib.c ****         pmTwCfg0Tmp = CY_PM_TW_CFG0_REG;
1407:.\Generated_Source\PSoC5/CyLib.c ****         pmTwCfg2Tmp = CY_PM_TW_CFG2_REG;
1408:.\Generated_Source\PSoC5/CyLib.c **** 
1409:.\Generated_Source\PSoC5/CyLib.c ****         /* Set 250 us interval */
1410:.\Generated_Source\PSoC5/CyLib.c ****         CyPmFtwSetInterval(CY_CLK_XMHZ_FTW_INTERVAL);
1411:.\Generated_Source\PSoC5/CyLib.c ****         status = CYRET_TIMEOUT;
1412:.\Generated_Source\PSoC5/CyLib.c **** 
1413:.\Generated_Source\PSoC5/CyLib.c **** 
1414:.\Generated_Source\PSoC5/CyLib.c ****         for( ; timeout > 0u; timeout--)
1415:.\Generated_Source\PSoC5/CyLib.c ****         {
ARM GAS  C:\Users\SUZUKI~1\AppData\Local\Temp\cc9L9var.s 			page 44


1416:.\Generated_Source\PSoC5/CyLib.c ****             #if(!CY_PSOC5A)
1417:.\Generated_Source\PSoC5/CyLib.c **** 
1418:.\Generated_Source\PSoC5/CyLib.c ****                 /* Read XERR bit to clear it */
1419:.\Generated_Source\PSoC5/CyLib.c ****                 (void) CY_CLK_XMHZ_CSR_REG;
1420:.\Generated_Source\PSoC5/CyLib.c **** 
1421:.\Generated_Source\PSoC5/CyLib.c ****             #endif  /* (!CY_PSOC5A) */
1422:.\Generated_Source\PSoC5/CyLib.c **** 
1423:.\Generated_Source\PSoC5/CyLib.c **** 
1424:.\Generated_Source\PSoC5/CyLib.c ****             /* Wait for a millisecond - 4 x 250 us */
1425:.\Generated_Source\PSoC5/CyLib.c ****             for(count = 4u; count > 0u; count--)
1426:.\Generated_Source\PSoC5/CyLib.c ****             {
1427:.\Generated_Source\PSoC5/CyLib.c ****                 while(!(CY_PM_FTW_INT == CyPmReadStatus(CY_PM_FTW_INT)))
1428:.\Generated_Source\PSoC5/CyLib.c ****                 {
1429:.\Generated_Source\PSoC5/CyLib.c ****                     /* Wait for the FTW interrupt event */
1430:.\Generated_Source\PSoC5/CyLib.c ****                 }
1431:.\Generated_Source\PSoC5/CyLib.c ****             }
1432:.\Generated_Source\PSoC5/CyLib.c **** 
1433:.\Generated_Source\PSoC5/CyLib.c **** 
1434:.\Generated_Source\PSoC5/CyLib.c ****             #if(!CY_PSOC5A)
1435:.\Generated_Source\PSoC5/CyLib.c **** 
1436:.\Generated_Source\PSoC5/CyLib.c ****                 /*******************************************************************
1437:.\Generated_Source\PSoC5/CyLib.c ****                 * High output indicates oscillator failure.
1438:.\Generated_Source\PSoC5/CyLib.c ****                 * Only can be used after start-up interval (1 ms) is completed.
1439:.\Generated_Source\PSoC5/CyLib.c ****                 *******************************************************************/
1440:.\Generated_Source\PSoC5/CyLib.c ****                 if(0u == (CY_CLK_XMHZ_CSR_REG & CY_CLK_XMHZ_CSR_XERR))
1441:.\Generated_Source\PSoC5/CyLib.c ****                 {
1442:.\Generated_Source\PSoC5/CyLib.c ****                     status = CYRET_SUCCESS;
1443:.\Generated_Source\PSoC5/CyLib.c ****                     break;
1444:.\Generated_Source\PSoC5/CyLib.c ****                 }
1445:.\Generated_Source\PSoC5/CyLib.c **** 
1446:.\Generated_Source\PSoC5/CyLib.c ****             #endif  /* (!CY_PSOC5A) */
1447:.\Generated_Source\PSoC5/CyLib.c ****         }
1448:.\Generated_Source\PSoC5/CyLib.c **** 
1449:.\Generated_Source\PSoC5/CyLib.c **** 
1450:.\Generated_Source\PSoC5/CyLib.c ****         /* Restore 100 KHz ILO, FTW interval, enable and interrupt enable */
1451:.\Generated_Source\PSoC5/CyLib.c ****         if(0u == (iloEnableState & ILO_CONTROL_100KHZ_ON))
1452:.\Generated_Source\PSoC5/CyLib.c ****         {
1453:.\Generated_Source\PSoC5/CyLib.c ****             CyILO_Stop100K();
1454:.\Generated_Source\PSoC5/CyLib.c ****         }
1455:.\Generated_Source\PSoC5/CyLib.c ****         CY_PM_TW_CFG0_REG = pmTwCfg0Tmp;
1456:.\Generated_Source\PSoC5/CyLib.c ****         CY_PM_TW_CFG2_REG = pmTwCfg2Tmp;
1457:.\Generated_Source\PSoC5/CyLib.c ****     }
1458:.\Generated_Source\PSoC5/CyLib.c **** 
1459:.\Generated_Source\PSoC5/CyLib.c ****     return(status);
1460:.\Generated_Source\PSoC5/CyLib.c **** }
1461:.\Generated_Source\PSoC5/CyLib.c **** 
1462:.\Generated_Source\PSoC5/CyLib.c **** 
1463:.\Generated_Source\PSoC5/CyLib.c **** /*******************************************************************************
1464:.\Generated_Source\PSoC5/CyLib.c **** * Function Name: CyXTAL_Stop
1465:.\Generated_Source\PSoC5/CyLib.c **** ********************************************************************************
1466:.\Generated_Source\PSoC5/CyLib.c **** *
1467:.\Generated_Source\PSoC5/CyLib.c **** * Summary:
1468:.\Generated_Source\PSoC5/CyLib.c **** *  Disables the megahertz crystal oscillator.
1469:.\Generated_Source\PSoC5/CyLib.c **** *
1470:.\Generated_Source\PSoC5/CyLib.c **** * Parameters:
1471:.\Generated_Source\PSoC5/CyLib.c **** *  None
1472:.\Generated_Source\PSoC5/CyLib.c **** *
ARM GAS  C:\Users\SUZUKI~1\AppData\Local\Temp\cc9L9var.s 			page 45


1473:.\Generated_Source\PSoC5/CyLib.c **** * Return:
1474:.\Generated_Source\PSoC5/CyLib.c **** *  None
1475:.\Generated_Source\PSoC5/CyLib.c **** *
1476:.\Generated_Source\PSoC5/CyLib.c **** *******************************************************************************/
1477:.\Generated_Source\PSoC5/CyLib.c **** void CyXTAL_Stop(void) 
1478:.\Generated_Source\PSoC5/CyLib.c **** {
 1033              		.loc 1 1478 0
 1034              		.cfi_startproc
 1035              		@ args = 0, pretend = 0, frame = 0
 1036              		@ frame_needed = 0, uses_anonymous_args = 0
 1037              		@ link register save eliminated.
1479:.\Generated_Source\PSoC5/CyLib.c ****     /* Disable the the oscillator. */
1480:.\Generated_Source\PSoC5/CyLib.c ****     FASTCLK_XMHZ_CSR &= ((uint8)(~XMHZ_CONTROL_ENABLE));
 1038              		.loc 1 1480 0
 1039 0000 024B     		ldr	r3, .L144
 1040 0002 1A78     		ldrb	r2, [r3, #0]	@ zero_extendqisi2
 1041 0004 02F0FE02 		and	r2, r2, #254
 1042 0008 1A70     		strb	r2, [r3, #0]
1481:.\Generated_Source\PSoC5/CyLib.c **** }
 1043              		.loc 1 1481 0
 1044 000a 7047     		bx	lr
 1045              	.L145:
 1046              		.align	2
 1047              	.L144:
 1048 000c 10420040 		.word	1073758736
 1049              		.cfi_endproc
 1050              	.LFE30:
 1051              		.size	CyXTAL_Stop, .-CyXTAL_Stop
 1052              		.section	.text.CyXTAL_SetStartup,"ax",%progbits
 1053              		.align	1
 1054              		.global	CyXTAL_SetStartup
 1055              		.thumb
 1056              		.thumb_func
 1057              		.type	CyXTAL_SetStartup, %function
 1058              	CyXTAL_SetStartup:
 1059              	.LFB31:
1482:.\Generated_Source\PSoC5/CyLib.c **** 
1483:.\Generated_Source\PSoC5/CyLib.c **** 
1484:.\Generated_Source\PSoC5/CyLib.c **** #if(!CY_PSOC5A)
1485:.\Generated_Source\PSoC5/CyLib.c **** 
1486:.\Generated_Source\PSoC5/CyLib.c ****     /*******************************************************************************
1487:.\Generated_Source\PSoC5/CyLib.c ****     * Function Name: CyXTAL_EnableErrStatus
1488:.\Generated_Source\PSoC5/CyLib.c ****     ********************************************************************************
1489:.\Generated_Source\PSoC5/CyLib.c ****     *
1490:.\Generated_Source\PSoC5/CyLib.c ****     * Summary:
1491:.\Generated_Source\PSoC5/CyLib.c ****     *  Enables the generation of the XERR status bit for the megahertz crystal.
1492:.\Generated_Source\PSoC5/CyLib.c ****     *  This function is not available for PSoC5.
1493:.\Generated_Source\PSoC5/CyLib.c ****     *
1494:.\Generated_Source\PSoC5/CyLib.c ****     * Parameters:
1495:.\Generated_Source\PSoC5/CyLib.c ****     *  None
1496:.\Generated_Source\PSoC5/CyLib.c ****     *
1497:.\Generated_Source\PSoC5/CyLib.c ****     * Return:
1498:.\Generated_Source\PSoC5/CyLib.c ****     *  None
1499:.\Generated_Source\PSoC5/CyLib.c ****     *
1500:.\Generated_Source\PSoC5/CyLib.c ****     *******************************************************************************/
1501:.\Generated_Source\PSoC5/CyLib.c ****     void CyXTAL_EnableErrStatus(void) 
1502:.\Generated_Source\PSoC5/CyLib.c ****     {
ARM GAS  C:\Users\SUZUKI~1\AppData\Local\Temp\cc9L9var.s 			page 46


1503:.\Generated_Source\PSoC5/CyLib.c ****         /* If oscillator has insufficient amplitude, XERR bit will be high. */
1504:.\Generated_Source\PSoC5/CyLib.c ****         CY_CLK_XMHZ_CSR_REG &= ((uint8)(~CY_CLK_XMHZ_CSR_XFB));
1505:.\Generated_Source\PSoC5/CyLib.c ****     }
1506:.\Generated_Source\PSoC5/CyLib.c **** 
1507:.\Generated_Source\PSoC5/CyLib.c **** 
1508:.\Generated_Source\PSoC5/CyLib.c ****     /*******************************************************************************
1509:.\Generated_Source\PSoC5/CyLib.c ****     * Function Name: CyXTAL_DisableErrStatus
1510:.\Generated_Source\PSoC5/CyLib.c ****     ********************************************************************************
1511:.\Generated_Source\PSoC5/CyLib.c ****     *
1512:.\Generated_Source\PSoC5/CyLib.c ****     * Summary:
1513:.\Generated_Source\PSoC5/CyLib.c ****     *  Disables the generation of the XERR status bit for the megahertz crystal.
1514:.\Generated_Source\PSoC5/CyLib.c ****     *  This function is not available for PSoC5.
1515:.\Generated_Source\PSoC5/CyLib.c ****     *
1516:.\Generated_Source\PSoC5/CyLib.c ****     * Parameters:
1517:.\Generated_Source\PSoC5/CyLib.c ****     *  None
1518:.\Generated_Source\PSoC5/CyLib.c ****     *
1519:.\Generated_Source\PSoC5/CyLib.c ****     * Return:
1520:.\Generated_Source\PSoC5/CyLib.c ****     *  None
1521:.\Generated_Source\PSoC5/CyLib.c ****     *
1522:.\Generated_Source\PSoC5/CyLib.c ****     *******************************************************************************/
1523:.\Generated_Source\PSoC5/CyLib.c ****     void CyXTAL_DisableErrStatus(void) 
1524:.\Generated_Source\PSoC5/CyLib.c ****     {
1525:.\Generated_Source\PSoC5/CyLib.c ****         /* If oscillator has insufficient amplitude, XERR bit will be high. */
1526:.\Generated_Source\PSoC5/CyLib.c ****         CY_CLK_XMHZ_CSR_REG |= CY_CLK_XMHZ_CSR_XFB;
1527:.\Generated_Source\PSoC5/CyLib.c ****     }
1528:.\Generated_Source\PSoC5/CyLib.c **** 
1529:.\Generated_Source\PSoC5/CyLib.c **** 
1530:.\Generated_Source\PSoC5/CyLib.c ****     /*******************************************************************************
1531:.\Generated_Source\PSoC5/CyLib.c ****     * Function Name: CyXTAL_ReadStatus
1532:.\Generated_Source\PSoC5/CyLib.c ****     ********************************************************************************
1533:.\Generated_Source\PSoC5/CyLib.c ****     *
1534:.\Generated_Source\PSoC5/CyLib.c ****     * Summary:
1535:.\Generated_Source\PSoC5/CyLib.c ****     *  Reads the XERR status bit for the megahertz crystal. This status bit is a
1536:.\Generated_Source\PSoC5/CyLib.c ****     *  sticky clear on read value. This function is not available for PSoC5.
1537:.\Generated_Source\PSoC5/CyLib.c ****     *
1538:.\Generated_Source\PSoC5/CyLib.c ****     * Parameters:
1539:.\Generated_Source\PSoC5/CyLib.c ****     *  None
1540:.\Generated_Source\PSoC5/CyLib.c ****     *
1541:.\Generated_Source\PSoC5/CyLib.c ****     * Return:
1542:.\Generated_Source\PSoC5/CyLib.c ****     *   Status
1543:.\Generated_Source\PSoC5/CyLib.c ****     *    0: No error
1544:.\Generated_Source\PSoC5/CyLib.c ****     *    1: Error
1545:.\Generated_Source\PSoC5/CyLib.c ****     *
1546:.\Generated_Source\PSoC5/CyLib.c ****     *******************************************************************************/
1547:.\Generated_Source\PSoC5/CyLib.c ****     uint8 CyXTAL_ReadStatus(void) 
1548:.\Generated_Source\PSoC5/CyLib.c ****     {
1549:.\Generated_Source\PSoC5/CyLib.c ****         /***************************************************************************
1550:.\Generated_Source\PSoC5/CyLib.c ****         * High output indicates oscillator failure. Only use this after start-up
1551:.\Generated_Source\PSoC5/CyLib.c ****         * interval is completed. This can be used for status and failure recovery.
1552:.\Generated_Source\PSoC5/CyLib.c ****         ***************************************************************************/
1553:.\Generated_Source\PSoC5/CyLib.c ****         return((0u != (CY_CLK_XMHZ_CSR_REG & CY_CLK_XMHZ_CSR_XERR)) ? 1u : 0u);
1554:.\Generated_Source\PSoC5/CyLib.c ****     }
1555:.\Generated_Source\PSoC5/CyLib.c **** 
1556:.\Generated_Source\PSoC5/CyLib.c **** 
1557:.\Generated_Source\PSoC5/CyLib.c ****     /*******************************************************************************
1558:.\Generated_Source\PSoC5/CyLib.c ****     * Function Name: CyXTAL_EnableFaultRecovery
1559:.\Generated_Source\PSoC5/CyLib.c ****     ********************************************************************************
ARM GAS  C:\Users\SUZUKI~1\AppData\Local\Temp\cc9L9var.s 			page 47


1560:.\Generated_Source\PSoC5/CyLib.c ****     *
1561:.\Generated_Source\PSoC5/CyLib.c ****     * Summary:
1562:.\Generated_Source\PSoC5/CyLib.c ****     *  Enables the fault recovery circuit which will switch to the IMO in the case
1563:.\Generated_Source\PSoC5/CyLib.c ****     *  of a fault in the megahertz crystal circuit. The crystal must be up and
1564:.\Generated_Source\PSoC5/CyLib.c ****     *  running with the XERR bit at 0, before calling this function to prevent
1565:.\Generated_Source\PSoC5/CyLib.c ****     *  immediate fault switchover. This function is not available for PSoC5.
1566:.\Generated_Source\PSoC5/CyLib.c ****     *
1567:.\Generated_Source\PSoC5/CyLib.c ****     * Parameters:
1568:.\Generated_Source\PSoC5/CyLib.c ****     *  None
1569:.\Generated_Source\PSoC5/CyLib.c ****     *
1570:.\Generated_Source\PSoC5/CyLib.c ****     * Return:
1571:.\Generated_Source\PSoC5/CyLib.c ****     *  None
1572:.\Generated_Source\PSoC5/CyLib.c ****     *
1573:.\Generated_Source\PSoC5/CyLib.c ****     *******************************************************************************/
1574:.\Generated_Source\PSoC5/CyLib.c ****     void CyXTAL_EnableFaultRecovery(void) 
1575:.\Generated_Source\PSoC5/CyLib.c ****     {
1576:.\Generated_Source\PSoC5/CyLib.c ****         CY_CLK_XMHZ_CSR_REG |= CY_CLK_XMHZ_CSR_XPROT;
1577:.\Generated_Source\PSoC5/CyLib.c ****     }
1578:.\Generated_Source\PSoC5/CyLib.c **** 
1579:.\Generated_Source\PSoC5/CyLib.c **** 
1580:.\Generated_Source\PSoC5/CyLib.c ****     /*******************************************************************************
1581:.\Generated_Source\PSoC5/CyLib.c ****     * Function Name: CyXTAL_DisableFaultRecovery
1582:.\Generated_Source\PSoC5/CyLib.c ****     ********************************************************************************
1583:.\Generated_Source\PSoC5/CyLib.c ****     *
1584:.\Generated_Source\PSoC5/CyLib.c ****     * Summary:
1585:.\Generated_Source\PSoC5/CyLib.c ****     *  Disables the fault recovery circuit which will switch to the IMO in the case
1586:.\Generated_Source\PSoC5/CyLib.c ****     *  of a fault in the megahertz crystal circuit. This function is not available
1587:.\Generated_Source\PSoC5/CyLib.c ****     *  for PSoC5.
1588:.\Generated_Source\PSoC5/CyLib.c ****     *
1589:.\Generated_Source\PSoC5/CyLib.c ****     * Parameters:
1590:.\Generated_Source\PSoC5/CyLib.c ****     *  None
1591:.\Generated_Source\PSoC5/CyLib.c ****     *
1592:.\Generated_Source\PSoC5/CyLib.c ****     * Return:
1593:.\Generated_Source\PSoC5/CyLib.c ****     *  None
1594:.\Generated_Source\PSoC5/CyLib.c ****     *
1595:.\Generated_Source\PSoC5/CyLib.c ****     *******************************************************************************/
1596:.\Generated_Source\PSoC5/CyLib.c ****     void CyXTAL_DisableFaultRecovery(void) 
1597:.\Generated_Source\PSoC5/CyLib.c ****     {
1598:.\Generated_Source\PSoC5/CyLib.c ****         CY_CLK_XMHZ_CSR_REG &= ((uint8)(~CY_CLK_XMHZ_CSR_XPROT));
1599:.\Generated_Source\PSoC5/CyLib.c ****     }
1600:.\Generated_Source\PSoC5/CyLib.c **** 
1601:.\Generated_Source\PSoC5/CyLib.c **** #endif  /* (!CY_PSOC5A) */
1602:.\Generated_Source\PSoC5/CyLib.c **** 
1603:.\Generated_Source\PSoC5/CyLib.c **** /*******************************************************************************
1604:.\Generated_Source\PSoC5/CyLib.c **** * Function Name: CyXTAL_SetStartup
1605:.\Generated_Source\PSoC5/CyLib.c **** ********************************************************************************
1606:.\Generated_Source\PSoC5/CyLib.c **** *
1607:.\Generated_Source\PSoC5/CyLib.c **** * Summary:
1608:.\Generated_Source\PSoC5/CyLib.c **** *  Sets the startup settings for the crystal. Logic model outputs a frequency
1609:.\Generated_Source\PSoC5/CyLib.c **** *  (setting + 4) MHz when enabled.
1610:.\Generated_Source\PSoC5/CyLib.c **** *
1611:.\Generated_Source\PSoC5/CyLib.c **** *  This is artificial as the actual frequency is determined by an attached
1612:.\Generated_Source\PSoC5/CyLib.c **** *  external crystal.
1613:.\Generated_Source\PSoC5/CyLib.c **** *
1614:.\Generated_Source\PSoC5/CyLib.c **** * Parameters:
1615:.\Generated_Source\PSoC5/CyLib.c **** *  setting: Valid range [0-31].
1616:.\Generated_Source\PSoC5/CyLib.c **** *   Value is dependent on the frequency and quality of the crystal being used.
ARM GAS  C:\Users\SUZUKI~1\AppData\Local\Temp\cc9L9var.s 			page 48


1617:.\Generated_Source\PSoC5/CyLib.c **** *   Refer to the device TRM and datasheet for more information.
1618:.\Generated_Source\PSoC5/CyLib.c **** *
1619:.\Generated_Source\PSoC5/CyLib.c **** * Return:
1620:.\Generated_Source\PSoC5/CyLib.c **** *  None
1621:.\Generated_Source\PSoC5/CyLib.c **** *
1622:.\Generated_Source\PSoC5/CyLib.c **** *******************************************************************************/
1623:.\Generated_Source\PSoC5/CyLib.c **** void CyXTAL_SetStartup(uint8 setting) 
1624:.\Generated_Source\PSoC5/CyLib.c **** {
 1060              		.loc 1 1624 0
 1061              		.cfi_startproc
 1062              		@ args = 0, pretend = 0, frame = 0
 1063              		@ frame_needed = 0, uses_anonymous_args = 0
 1064              		@ link register save eliminated.
 1065              	.LVL46:
1625:.\Generated_Source\PSoC5/CyLib.c ****     CY_CLK_XMHZ_CFG0_REG = (CY_CLK_XMHZ_CFG0_REG & ((uint8)(~CY_CLK_XMHZ_CFG0_XCFG_MASK))) |
 1066              		.loc 1 1625 0
 1067 0000 044B     		ldr	r3, .L148
 1068 0002 00F01F00 		and	r0, r0, #31
 1069              	.LVL47:
 1070 0006 1A78     		ldrb	r2, [r3, #0]	@ zero_extendqisi2
 1071 0008 02F0E002 		and	r2, r2, #224
 1072 000c 40EA0202 		orr	r2, r0, r2
 1073 0010 1A70     		strb	r2, [r3, #0]
1626:.\Generated_Source\PSoC5/CyLib.c ****                            (setting & CY_CLK_XMHZ_CFG0_XCFG_MASK);
1627:.\Generated_Source\PSoC5/CyLib.c **** }
 1074              		.loc 1 1627 0
 1075 0012 7047     		bx	lr
 1076              	.L149:
 1077              		.align	2
 1078              	.L148:
 1079 0014 12420040 		.word	1073758738
 1080              		.cfi_endproc
 1081              	.LFE31:
 1082              		.size	CyXTAL_SetStartup, .-CyXTAL_SetStartup
 1083              		.section	.text.CyHalt,"ax",%progbits
 1084              		.align	1
 1085              		.global	CyHalt
 1086              		.thumb
 1087              		.thumb_func
 1088              		.type	CyHalt, %function
 1089              	CyHalt:
 1090              	.LFB32:
1628:.\Generated_Source\PSoC5/CyLib.c **** 
1629:.\Generated_Source\PSoC5/CyLib.c **** 
1630:.\Generated_Source\PSoC5/CyLib.c **** #if(CY_PSOC3 || CY_PSOC5LP)
1631:.\Generated_Source\PSoC5/CyLib.c ****     /*******************************************************************************
1632:.\Generated_Source\PSoC5/CyLib.c ****     * Function Name: CyXTAL_SetFbVoltage
1633:.\Generated_Source\PSoC5/CyLib.c ****     ********************************************************************************
1634:.\Generated_Source\PSoC5/CyLib.c ****     *
1635:.\Generated_Source\PSoC5/CyLib.c ****     * Summary:
1636:.\Generated_Source\PSoC5/CyLib.c ****     *  Sets the feedback reference voltage to use for the crystal circuit.
1637:.\Generated_Source\PSoC5/CyLib.c ****     *  This function is only available for PSoC3 and PSoC 5LP.
1638:.\Generated_Source\PSoC5/CyLib.c ****     *
1639:.\Generated_Source\PSoC5/CyLib.c ****     * Parameters:
1640:.\Generated_Source\PSoC5/CyLib.c ****     *  setting: Valid range [0-15].
1641:.\Generated_Source\PSoC5/CyLib.c ****     *  Refer to the device TRM and datasheet for more information.
1642:.\Generated_Source\PSoC5/CyLib.c ****     *
ARM GAS  C:\Users\SUZUKI~1\AppData\Local\Temp\cc9L9var.s 			page 49


1643:.\Generated_Source\PSoC5/CyLib.c ****     * Return:
1644:.\Generated_Source\PSoC5/CyLib.c ****     *  None
1645:.\Generated_Source\PSoC5/CyLib.c ****     *
1646:.\Generated_Source\PSoC5/CyLib.c ****     *******************************************************************************/
1647:.\Generated_Source\PSoC5/CyLib.c ****     void CyXTAL_SetFbVoltage(uint8 setting) 
1648:.\Generated_Source\PSoC5/CyLib.c ****     {
1649:.\Generated_Source\PSoC5/CyLib.c ****         CY_CLK_XMHZ_CFG1_REG = ((CY_CLK_XMHZ_CFG1_REG & ((uint8)(~CY_CLK_XMHZ_CFG1_VREF_FB_MASK))) 
1650:.\Generated_Source\PSoC5/CyLib.c ****                                 (setting & CY_CLK_XMHZ_CFG1_VREF_FB_MASK));
1651:.\Generated_Source\PSoC5/CyLib.c ****     }
1652:.\Generated_Source\PSoC5/CyLib.c **** 
1653:.\Generated_Source\PSoC5/CyLib.c **** 
1654:.\Generated_Source\PSoC5/CyLib.c ****     /*******************************************************************************
1655:.\Generated_Source\PSoC5/CyLib.c ****     * Function Name: CyXTAL_SetWdVoltage
1656:.\Generated_Source\PSoC5/CyLib.c ****     ********************************************************************************
1657:.\Generated_Source\PSoC5/CyLib.c ****     *
1658:.\Generated_Source\PSoC5/CyLib.c ****     * Summary:
1659:.\Generated_Source\PSoC5/CyLib.c ****     *  Sets the reference voltage used by the watchdog to detect a failure in the
1660:.\Generated_Source\PSoC5/CyLib.c ****     *  crystal circuit. This function is only available for PSoC3 and PSoC 5LP.
1661:.\Generated_Source\PSoC5/CyLib.c ****     *
1662:.\Generated_Source\PSoC5/CyLib.c ****     * Parameters:
1663:.\Generated_Source\PSoC5/CyLib.c ****     *  setting: Valid range [0-7].
1664:.\Generated_Source\PSoC5/CyLib.c ****     *  Refer to the device TRM and datasheet for more information.
1665:.\Generated_Source\PSoC5/CyLib.c ****     *
1666:.\Generated_Source\PSoC5/CyLib.c ****     * Return:
1667:.\Generated_Source\PSoC5/CyLib.c ****     *  None
1668:.\Generated_Source\PSoC5/CyLib.c ****     *
1669:.\Generated_Source\PSoC5/CyLib.c ****     *******************************************************************************/
1670:.\Generated_Source\PSoC5/CyLib.c ****     void CyXTAL_SetWdVoltage(uint8 setting) 
1671:.\Generated_Source\PSoC5/CyLib.c ****     {
1672:.\Generated_Source\PSoC5/CyLib.c ****         CY_CLK_XMHZ_CFG1_REG = ((CY_CLK_XMHZ_CFG1_REG & ((uint8)(~CY_CLK_XMHZ_CFG1_VREF_WD_MASK))) 
1673:.\Generated_Source\PSoC5/CyLib.c ****                                 (((uint8)(setting << 4u)) & CY_CLK_XMHZ_CFG1_VREF_WD_MASK));
1674:.\Generated_Source\PSoC5/CyLib.c ****     }
1675:.\Generated_Source\PSoC5/CyLib.c **** 
1676:.\Generated_Source\PSoC5/CyLib.c **** #endif /* (CY_PSOC3 || CY_PSOC5LP) */
1677:.\Generated_Source\PSoC5/CyLib.c **** 
1678:.\Generated_Source\PSoC5/CyLib.c **** 
1679:.\Generated_Source\PSoC5/CyLib.c **** /*******************************************************************************
1680:.\Generated_Source\PSoC5/CyLib.c **** * Function Name: CyHalt
1681:.\Generated_Source\PSoC5/CyLib.c **** ********************************************************************************
1682:.\Generated_Source\PSoC5/CyLib.c **** *
1683:.\Generated_Source\PSoC5/CyLib.c **** * Summary:
1684:.\Generated_Source\PSoC5/CyLib.c **** *  Halts the CPU.
1685:.\Generated_Source\PSoC5/CyLib.c **** *
1686:.\Generated_Source\PSoC5/CyLib.c **** * Parameters:
1687:.\Generated_Source\PSoC5/CyLib.c **** *  uint8 reason: Value to be used during debugging.
1688:.\Generated_Source\PSoC5/CyLib.c **** *
1689:.\Generated_Source\PSoC5/CyLib.c **** * Return:
1690:.\Generated_Source\PSoC5/CyLib.c **** *  None
1691:.\Generated_Source\PSoC5/CyLib.c **** *
1692:.\Generated_Source\PSoC5/CyLib.c **** *******************************************************************************/
1693:.\Generated_Source\PSoC5/CyLib.c **** void CyHalt(uint8 reason) CYREENTRANT
1694:.\Generated_Source\PSoC5/CyLib.c **** {
 1091              		.loc 1 1694 0
 1092              		.cfi_startproc
 1093              		@ args = 0, pretend = 0, frame = 0
 1094              		@ frame_needed = 0, uses_anonymous_args = 0
 1095              		@ link register save eliminated.
ARM GAS  C:\Users\SUZUKI~1\AppData\Local\Temp\cc9L9var.s 			page 50


 1096              	.LVL48:
1695:.\Generated_Source\PSoC5/CyLib.c ****     if(0u != reason)
1696:.\Generated_Source\PSoC5/CyLib.c ****     {
1697:.\Generated_Source\PSoC5/CyLib.c ****         /* To remove unreferenced local variable warning */
1698:.\Generated_Source\PSoC5/CyLib.c ****     }
1699:.\Generated_Source\PSoC5/CyLib.c **** 
1700:.\Generated_Source\PSoC5/CyLib.c ****     #if defined (__ARMCC_VERSION)
1701:.\Generated_Source\PSoC5/CyLib.c ****         __breakpoint(0x0);
1702:.\Generated_Source\PSoC5/CyLib.c ****     #elif defined(__GNUC__)
1703:.\Generated_Source\PSoC5/CyLib.c ****         __asm("    bkpt    1");
 1097              		.loc 1 1703 0
 1098              	@ 1703 ".\Generated_Source\PSoC5\CyLib.c" 1
 1099 0000 01BE     		    bkpt    1
 1100              	@ 0 "" 2
1704:.\Generated_Source\PSoC5/CyLib.c ****     #elif defined(__C51__)
1705:.\Generated_Source\PSoC5/CyLib.c ****         CYDEV_HALT_CPU;
1706:.\Generated_Source\PSoC5/CyLib.c ****     #endif  /* (__ARMCC_VERSION) */
1707:.\Generated_Source\PSoC5/CyLib.c **** }
 1101              		.loc 1 1707 0
 1102              		.thumb
 1103 0002 7047     		bx	lr
 1104              		.cfi_endproc
 1105              	.LFE32:
 1106              		.size	CyHalt, .-CyHalt
 1107              		.section	.text.CySoftwareReset,"ax",%progbits
 1108              		.align	1
 1109              		.global	CySoftwareReset
 1110              		.thumb
 1111              		.thumb_func
 1112              		.type	CySoftwareReset, %function
 1113              	CySoftwareReset:
 1114              	.LFB33:
1708:.\Generated_Source\PSoC5/CyLib.c **** 
1709:.\Generated_Source\PSoC5/CyLib.c **** 
1710:.\Generated_Source\PSoC5/CyLib.c **** /*******************************************************************************
1711:.\Generated_Source\PSoC5/CyLib.c **** * Function Name: CySoftwareReset
1712:.\Generated_Source\PSoC5/CyLib.c **** ********************************************************************************
1713:.\Generated_Source\PSoC5/CyLib.c **** *
1714:.\Generated_Source\PSoC5/CyLib.c **** * Summary:
1715:.\Generated_Source\PSoC5/CyLib.c **** *  Forces a software reset of the device.
1716:.\Generated_Source\PSoC5/CyLib.c **** *
1717:.\Generated_Source\PSoC5/CyLib.c **** * Parameters:
1718:.\Generated_Source\PSoC5/CyLib.c **** *  None
1719:.\Generated_Source\PSoC5/CyLib.c **** *
1720:.\Generated_Source\PSoC5/CyLib.c **** * Return:
1721:.\Generated_Source\PSoC5/CyLib.c **** *  None
1722:.\Generated_Source\PSoC5/CyLib.c **** *
1723:.\Generated_Source\PSoC5/CyLib.c **** *******************************************************************************/
1724:.\Generated_Source\PSoC5/CyLib.c **** void CySoftwareReset(void) 
1725:.\Generated_Source\PSoC5/CyLib.c **** {
 1115              		.loc 1 1725 0
 1116              		.cfi_startproc
 1117              		@ args = 0, pretend = 0, frame = 0
 1118              		@ frame_needed = 0, uses_anonymous_args = 0
 1119              		@ link register save eliminated.
1726:.\Generated_Source\PSoC5/CyLib.c ****     /* Perform software reset */
1727:.\Generated_Source\PSoC5/CyLib.c ****     *RESET_CR2 = 0x1u;
ARM GAS  C:\Users\SUZUKI~1\AppData\Local\Temp\cc9L9var.s 			page 51


 1120              		.loc 1 1727 0
 1121 0000 014B     		ldr	r3, .L154
 1122 0002 0122     		movs	r2, #1
 1123 0004 1A70     		strb	r2, [r3, #0]
1728:.\Generated_Source\PSoC5/CyLib.c **** }
 1124              		.loc 1 1728 0
 1125 0006 7047     		bx	lr
 1126              	.L155:
 1127              		.align	2
 1128              	.L154:
 1129 0008 F6460040 		.word	1073759990
 1130              		.cfi_endproc
 1131              	.LFE33:
 1132              		.size	CySoftwareReset, .-CySoftwareReset
 1133              		.section	.text.CyDelayFreq,"ax",%progbits
 1134              		.align	1
 1135              		.global	CyDelayFreq
 1136              		.thumb
 1137              		.thumb_func
 1138              		.type	CyDelayFreq, %function
 1139              	CyDelayFreq:
 1140              	.LFB36:
1729:.\Generated_Source\PSoC5/CyLib.c **** 
1730:.\Generated_Source\PSoC5/CyLib.c **** 
1731:.\Generated_Source\PSoC5/CyLib.c **** /*******************************************************************************
1732:.\Generated_Source\PSoC5/CyLib.c **** * Function Name: CyDelay
1733:.\Generated_Source\PSoC5/CyLib.c **** ********************************************************************************
1734:.\Generated_Source\PSoC5/CyLib.c **** *
1735:.\Generated_Source\PSoC5/CyLib.c **** * Summary:
1736:.\Generated_Source\PSoC5/CyLib.c **** *  Blocks for milliseconds.
1737:.\Generated_Source\PSoC5/CyLib.c **** *
1738:.\Generated_Source\PSoC5/CyLib.c **** *  Note:
1739:.\Generated_Source\PSoC5/CyLib.c **** *  CyDelay has been implemented with the instruction cache assumed enabled. When
1740:.\Generated_Source\PSoC5/CyLib.c **** *  instruction cache is disabled on PSoC5, CyDelay will be two times larger. For
1741:.\Generated_Source\PSoC5/CyLib.c **** *  example, with instruction cache disabled CyDelay(100) would result in about
1742:.\Generated_Source\PSoC5/CyLib.c **** *  200 ms delay instead of 100 ms.
1743:.\Generated_Source\PSoC5/CyLib.c **** *
1744:.\Generated_Source\PSoC5/CyLib.c **** * Parameters:
1745:.\Generated_Source\PSoC5/CyLib.c **** *  milliseconds: number of milliseconds to delay.
1746:.\Generated_Source\PSoC5/CyLib.c **** *
1747:.\Generated_Source\PSoC5/CyLib.c **** * Return:
1748:.\Generated_Source\PSoC5/CyLib.c **** *   None
1749:.\Generated_Source\PSoC5/CyLib.c **** *
1750:.\Generated_Source\PSoC5/CyLib.c **** *******************************************************************************/
1751:.\Generated_Source\PSoC5/CyLib.c **** void CyDelay(uint32 milliseconds) CYREENTRANT
1752:.\Generated_Source\PSoC5/CyLib.c **** {
1753:.\Generated_Source\PSoC5/CyLib.c ****     while (milliseconds > 32768u)
1754:.\Generated_Source\PSoC5/CyLib.c ****     {
1755:.\Generated_Source\PSoC5/CyLib.c ****         /***********************************************************************
1756:.\Generated_Source\PSoC5/CyLib.c ****         * This loop prevents overflow.At 100MHz, milliseconds * delay_freq_khz
1757:.\Generated_Source\PSoC5/CyLib.c ****         * overflows at about 42 seconds.
1758:.\Generated_Source\PSoC5/CyLib.c ****         ***********************************************************************/
1759:.\Generated_Source\PSoC5/CyLib.c ****         CyDelayCycles(cydelay_32k_ms);
1760:.\Generated_Source\PSoC5/CyLib.c ****         milliseconds = ((uint32)(milliseconds - 32768u));
1761:.\Generated_Source\PSoC5/CyLib.c ****     }
1762:.\Generated_Source\PSoC5/CyLib.c **** 
1763:.\Generated_Source\PSoC5/CyLib.c ****     CyDelayCycles(milliseconds * cydelay_freq_khz);
ARM GAS  C:\Users\SUZUKI~1\AppData\Local\Temp\cc9L9var.s 			page 52


1764:.\Generated_Source\PSoC5/CyLib.c **** }
1765:.\Generated_Source\PSoC5/CyLib.c **** 
1766:.\Generated_Source\PSoC5/CyLib.c **** 
1767:.\Generated_Source\PSoC5/CyLib.c **** #if(!CY_PSOC3)
1768:.\Generated_Source\PSoC5/CyLib.c **** 
1769:.\Generated_Source\PSoC5/CyLib.c ****     /* For PSoC3 devices function is defined in CyBootAsmKeil.a51 file */
1770:.\Generated_Source\PSoC5/CyLib.c **** 
1771:.\Generated_Source\PSoC5/CyLib.c ****     /*******************************************************************************
1772:.\Generated_Source\PSoC5/CyLib.c ****     * Function Name: CyDelayUs
1773:.\Generated_Source\PSoC5/CyLib.c ****     ********************************************************************************
1774:.\Generated_Source\PSoC5/CyLib.c ****     *
1775:.\Generated_Source\PSoC5/CyLib.c ****     * Summary:
1776:.\Generated_Source\PSoC5/CyLib.c ****     *  Blocks for microseconds.
1777:.\Generated_Source\PSoC5/CyLib.c ****     *
1778:.\Generated_Source\PSoC5/CyLib.c ****     *  Note:
1779:.\Generated_Source\PSoC5/CyLib.c ****     *   CyDelay has been implemented with the instruction cache assumed enabled.
1780:.\Generated_Source\PSoC5/CyLib.c ****     *   When instruction cache is disabled on PSoC5, CyDelayUs will be two times
1781:.\Generated_Source\PSoC5/CyLib.c ****     *   larger. Ex: With instruction cache disabled CyDelayUs(100) would result
1782:.\Generated_Source\PSoC5/CyLib.c ****     *   in about 200us delay instead of 100us.
1783:.\Generated_Source\PSoC5/CyLib.c ****     *
1784:.\Generated_Source\PSoC5/CyLib.c ****     * Parameters:
1785:.\Generated_Source\PSoC5/CyLib.c ****     *  uint16 microseconds: number of microseconds to delay.
1786:.\Generated_Source\PSoC5/CyLib.c ****     *
1787:.\Generated_Source\PSoC5/CyLib.c ****     * Return:
1788:.\Generated_Source\PSoC5/CyLib.c ****     *  None
1789:.\Generated_Source\PSoC5/CyLib.c ****     *
1790:.\Generated_Source\PSoC5/CyLib.c ****     * Side Effects:
1791:.\Generated_Source\PSoC5/CyLib.c ****     *  CyDelayUS has been implemented with the instruction cache assumed enabled.
1792:.\Generated_Source\PSoC5/CyLib.c ****     *  When instruction cache is disabled on PSoC 5, CyDelayUs will be two times
1793:.\Generated_Source\PSoC5/CyLib.c ****     *  larger. For example, with instruction cache disabled CyDelayUs(100) would
1794:.\Generated_Source\PSoC5/CyLib.c ****     *  result in about 200 us delay instead of 100 us.
1795:.\Generated_Source\PSoC5/CyLib.c ****     *
1796:.\Generated_Source\PSoC5/CyLib.c ****     *  If the bus clock frequency is a small non-integer number, the actual delay
1797:.\Generated_Source\PSoC5/CyLib.c ****     *  can be up to twice as long as the nominal value. The actual delay cannot be
1798:.\Generated_Source\PSoC5/CyLib.c ****     *  shorter than the nominal one.
1799:.\Generated_Source\PSoC5/CyLib.c ****     *******************************************************************************/
1800:.\Generated_Source\PSoC5/CyLib.c ****     void CyDelayUs(uint16 microseconds) CYREENTRANT
1801:.\Generated_Source\PSoC5/CyLib.c ****     {
1802:.\Generated_Source\PSoC5/CyLib.c ****         CyDelayCycles((uint32)microseconds * cydelay_freq_mhz);
1803:.\Generated_Source\PSoC5/CyLib.c ****     }
1804:.\Generated_Source\PSoC5/CyLib.c **** 
1805:.\Generated_Source\PSoC5/CyLib.c **** #endif  /* (!CY_PSOC3) */
1806:.\Generated_Source\PSoC5/CyLib.c **** 
1807:.\Generated_Source\PSoC5/CyLib.c **** 
1808:.\Generated_Source\PSoC5/CyLib.c **** /*******************************************************************************
1809:.\Generated_Source\PSoC5/CyLib.c **** * Function Name: CyDelayFreq
1810:.\Generated_Source\PSoC5/CyLib.c **** ********************************************************************************
1811:.\Generated_Source\PSoC5/CyLib.c **** *
1812:.\Generated_Source\PSoC5/CyLib.c **** * Summary:
1813:.\Generated_Source\PSoC5/CyLib.c **** *  Sets clock frequency for CyDelay.
1814:.\Generated_Source\PSoC5/CyLib.c **** *
1815:.\Generated_Source\PSoC5/CyLib.c **** * Parameters:
1816:.\Generated_Source\PSoC5/CyLib.c **** *  freq: Frequency of bus clock in Hertz.
1817:.\Generated_Source\PSoC5/CyLib.c **** *
1818:.\Generated_Source\PSoC5/CyLib.c **** * Return:
1819:.\Generated_Source\PSoC5/CyLib.c **** *  None
1820:.\Generated_Source\PSoC5/CyLib.c **** *
ARM GAS  C:\Users\SUZUKI~1\AppData\Local\Temp\cc9L9var.s 			page 53


1821:.\Generated_Source\PSoC5/CyLib.c **** *******************************************************************************/
1822:.\Generated_Source\PSoC5/CyLib.c **** void CyDelayFreq(uint32 freq) CYREENTRANT
1823:.\Generated_Source\PSoC5/CyLib.c **** {
 1141              		.loc 1 1823 0
 1142              		.cfi_startproc
 1143              		@ args = 0, pretend = 0, frame = 0
 1144              		@ frame_needed = 0, uses_anonymous_args = 0
 1145              		@ link register save eliminated.
 1146              	.LVL49:
1824:.\Generated_Source\PSoC5/CyLib.c ****     if (freq != 0u)
 1147              		.loc 1 1824 0
 1148 0000 0246     		mov	r2, r0
 1149 0002 0B4B     		ldr	r3, .L161
 1150 0004 00B9     		cbnz	r0, .L160
1825:.\Generated_Source\PSoC5/CyLib.c ****     {
1826:.\Generated_Source\PSoC5/CyLib.c ****         cydelay_freq_hz = freq;
1827:.\Generated_Source\PSoC5/CyLib.c ****     }
1828:.\Generated_Source\PSoC5/CyLib.c ****     else
1829:.\Generated_Source\PSoC5/CyLib.c ****     {
1830:.\Generated_Source\PSoC5/CyLib.c ****         cydelay_freq_hz = BCLK__BUS_CLK__HZ;
 1151              		.loc 1 1830 0
 1152 0006 0B4A     		ldr	r2, .L161+4
 1153              	.LVL50:
 1154              	.L160:
 1155 0008 1A60     		str	r2, [r3, #0]
1831:.\Generated_Source\PSoC5/CyLib.c ****     }
1832:.\Generated_Source\PSoC5/CyLib.c **** 
1833:.\Generated_Source\PSoC5/CyLib.c ****     cydelay_freq_mhz = (uint8)((cydelay_freq_hz + 999999u) / 1000000u);
 1156              		.loc 1 1833 0
 1157 000a 094B     		ldr	r3, .L161
 1158 000c 0A49     		ldr	r1, .L161+8
 1159 000e 1A68     		ldr	r2, [r3, #0]
 1160 0010 0A48     		ldr	r0, .L161+12
 1161              	.LVL51:
 1162 0012 5118     		adds	r1, r2, r1
 1163 0014 B1FBF0F1 		udiv	r1, r1, r0
1834:.\Generated_Source\PSoC5/CyLib.c ****     cydelay_freq_khz = (cydelay_freq_hz + 999u) / 1000u;
 1164              		.loc 1 1834 0
 1165 0018 02F57872 		add	r2, r2, #992
 1166              		.loc 1 1833 0
 1167 001c 1971     		strb	r1, [r3, #4]
 1168              		.loc 1 1834 0
 1169 001e 0732     		adds	r2, r2, #7
 1170 0020 4FF47A71 		mov	r1, #1000
 1171 0024 B2FBF1F2 		udiv	r2, r2, r1
 1172 0028 9A60     		str	r2, [r3, #8]
1835:.\Generated_Source\PSoC5/CyLib.c ****     cydelay_32k_ms   = 32768u * cydelay_freq_khz;
 1173              		.loc 1 1835 0
 1174 002a D203     		lsls	r2, r2, #15
 1175 002c DA60     		str	r2, [r3, #12]
1836:.\Generated_Source\PSoC5/CyLib.c **** }
 1176              		.loc 1 1836 0
 1177 002e 7047     		bx	lr
 1178              	.L162:
 1179              		.align	2
 1180              	.L161:
 1181 0030 00000000 		.word	.LANCHOR0
ARM GAS  C:\Users\SUZUKI~1\AppData\Local\Temp\cc9L9var.s 			page 54


 1182 0034 006CDC02 		.word	48000000
 1183 0038 3F420F00 		.word	999999
 1184 003c 40420F00 		.word	1000000
 1185              		.cfi_endproc
 1186              	.LFE36:
 1187              		.size	CyDelayFreq, .-CyDelayFreq
 1188              		.section	.text.CyWdtStart,"ax",%progbits
 1189              		.align	1
 1190              		.global	CyWdtStart
 1191              		.thumb
 1192              		.thumb_func
 1193              		.type	CyWdtStart, %function
 1194              	CyWdtStart:
 1195              	.LFB37:
1837:.\Generated_Source\PSoC5/CyLib.c **** 
1838:.\Generated_Source\PSoC5/CyLib.c **** 
1839:.\Generated_Source\PSoC5/CyLib.c **** /*******************************************************************************
1840:.\Generated_Source\PSoC5/CyLib.c **** * Function Name: CyWdtStart
1841:.\Generated_Source\PSoC5/CyLib.c **** ********************************************************************************
1842:.\Generated_Source\PSoC5/CyLib.c **** *
1843:.\Generated_Source\PSoC5/CyLib.c **** * Summary:
1844:.\Generated_Source\PSoC5/CyLib.c **** *  Enables the watchdog timer.
1845:.\Generated_Source\PSoC5/CyLib.c **** *
1846:.\Generated_Source\PSoC5/CyLib.c **** *  The timer is configured for the specified count interval, the central
1847:.\Generated_Source\PSoC5/CyLib.c **** *  timewheel is cleared, the setting for low power mode is configured and the
1848:.\Generated_Source\PSoC5/CyLib.c **** *  watchdog timer is enabled.
1849:.\Generated_Source\PSoC5/CyLib.c **** *
1850:.\Generated_Source\PSoC5/CyLib.c **** *  Once enabled the watchdog cannot be disabled. The watchdog counts each time
1851:.\Generated_Source\PSoC5/CyLib.c **** *  the Central Time Wheel (CTW) reaches the period specified. The watchdog must
1852:.\Generated_Source\PSoC5/CyLib.c **** *  be cleared using the CyWdtClear() function before three ticks of the watchdog
1853:.\Generated_Source\PSoC5/CyLib.c **** *  timer occur. The CTW is free running, so this will occur after between 2 and
1854:.\Generated_Source\PSoC5/CyLib.c **** *  3 timer periods elapse.
1855:.\Generated_Source\PSoC5/CyLib.c **** *
1856:.\Generated_Source\PSoC5/CyLib.c **** *  PSoC5: The watchdog timer should not be used during sleep modes. Since the
1857:.\Generated_Source\PSoC5/CyLib.c **** *  WDT cannot be disabled after it is enabled, the WDT timeout period can be
1858:.\Generated_Source\PSoC5/CyLib.c **** *  set to be greater than the sleep wakeup period, then feed the dog on each
1859:.\Generated_Source\PSoC5/CyLib.c **** *  wakeup from Sleep.
1860:.\Generated_Source\PSoC5/CyLib.c **** *
1861:.\Generated_Source\PSoC5/CyLib.c **** * Parameters:
1862:.\Generated_Source\PSoC5/CyLib.c **** *  ticks: One of the four available timer periods. Once WDT enabled, the
1863:.\Generated_Source\PSoC5/CyLib.c ****    interval cannot be changed.
1864:.\Generated_Source\PSoC5/CyLib.c **** *         CYWDT_2_TICKS     -     4 - 6     ms
1865:.\Generated_Source\PSoC5/CyLib.c **** *         CYWDT_16_TICKS    -    32 - 48    ms
1866:.\Generated_Source\PSoC5/CyLib.c **** *         CYWDT_128_TICKS   -   256 - 384   ms
1867:.\Generated_Source\PSoC5/CyLib.c **** *         CYWDT_1024_TICKS  - 2.048 - 3.072 s
1868:.\Generated_Source\PSoC5/CyLib.c **** *
1869:.\Generated_Source\PSoC5/CyLib.c **** *  lpMode: Low power mode configuration. This parameter is ignored for PSoC 5.
1870:.\Generated_Source\PSoC5/CyLib.c **** *          The WDT always acts as if CYWDT_LPMODE_NOCHANGE is passed.
1871:.\Generated_Source\PSoC5/CyLib.c **** *
1872:.\Generated_Source\PSoC5/CyLib.c **** *          CYWDT_LPMODE_NOCHANGE - No Change
1873:.\Generated_Source\PSoC5/CyLib.c **** *          CYWDT_LPMODE_MAXINTER - Switch to longest timer mode during low power
1874:.\Generated_Source\PSoC5/CyLib.c **** *                                 mode
1875:.\Generated_Source\PSoC5/CyLib.c **** *          CYWDT_LPMODE_DISABLED - Disable WDT during low power mode
1876:.\Generated_Source\PSoC5/CyLib.c **** *
1877:.\Generated_Source\PSoC5/CyLib.c **** * Return:
1878:.\Generated_Source\PSoC5/CyLib.c **** *  None
1879:.\Generated_Source\PSoC5/CyLib.c **** *
ARM GAS  C:\Users\SUZUKI~1\AppData\Local\Temp\cc9L9var.s 			page 55


1880:.\Generated_Source\PSoC5/CyLib.c **** * Side Effects:
1881:.\Generated_Source\PSoC5/CyLib.c **** *  PSoC5: The ILO 1 KHz must be enabled for proper WDT operation. Stopping the
1882:.\Generated_Source\PSoC5/CyLib.c **** *  ILO 1 kHz could break the active WDT functionality.
1883:.\Generated_Source\PSoC5/CyLib.c **** *
1884:.\Generated_Source\PSoC5/CyLib.c **** *******************************************************************************/
1885:.\Generated_Source\PSoC5/CyLib.c **** void CyWdtStart(uint8 ticks, uint8 lpMode) 
1886:.\Generated_Source\PSoC5/CyLib.c **** {
 1196              		.loc 1 1886 0
 1197              		.cfi_startproc
 1198              		@ args = 0, pretend = 0, frame = 0
 1199              		@ frame_needed = 0, uses_anonymous_args = 0
 1200              	.LVL52:
 1201 0000 10B5     		push	{r4, lr}
 1202              	.LCFI1:
 1203              		.cfi_def_cfa_offset 8
 1204              		.loc 1 1886 0
 1205 0002 0446     		mov	r4, r0
 1206              		.cfi_offset 14, -4
 1207              		.cfi_offset 4, -8
1887:.\Generated_Source\PSoC5/CyLib.c ****     #if(CY_PSOC5A)
1888:.\Generated_Source\PSoC5/CyLib.c ****         CyILO_Start1K();
 1208              		.loc 1 1888 0
 1209 0004 FFF7FEFF 		bl	CyILO_Start1K
 1210              	.LVL53:
1889:.\Generated_Source\PSoC5/CyLib.c ****     #endif  /* (CY_PSOC5A) */
1890:.\Generated_Source\PSoC5/CyLib.c **** 
1891:.\Generated_Source\PSoC5/CyLib.c ****     /* Set WDT interval */
1892:.\Generated_Source\PSoC5/CyLib.c ****     CY_WDT_CFG_REG = (CY_WDT_CFG_REG & ((uint8)(~CY_WDT_CFG_INTERVAL_MASK))) | (ticks & CY_WDT_CFG_
 1211              		.loc 1 1892 0
 1212 0008 0A4B     		ldr	r3, .L165
 1213 000a 04F00300 		and	r0, r4, #3
 1214 000e 1A78     		ldrb	r2, [r3, #0]	@ zero_extendqisi2
 1215 0010 02F0FC02 		and	r2, r2, #252
 1216 0014 1043     		orrs	r0, r0, r2
 1217 0016 1870     		strb	r0, [r3, #0]
1893:.\Generated_Source\PSoC5/CyLib.c **** 
1894:.\Generated_Source\PSoC5/CyLib.c ****     /* Reset CTW to ensure that first watchdog period is full */
1895:.\Generated_Source\PSoC5/CyLib.c ****     CY_WDT_CFG_REG |= CY_WDT_CFG_CTW_RESET;
 1218              		.loc 1 1895 0
 1219 0018 1A78     		ldrb	r2, [r3, #0]	@ zero_extendqisi2
 1220 001a 42F08002 		orr	r2, r2, #128
 1221 001e 1A70     		strb	r2, [r3, #0]
1896:.\Generated_Source\PSoC5/CyLib.c ****     CY_WDT_CFG_REG &= ((uint8)(~CY_WDT_CFG_CTW_RESET));
 1222              		.loc 1 1896 0
 1223 0020 1A78     		ldrb	r2, [r3, #0]	@ zero_extendqisi2
 1224 0022 02F07F02 		and	r2, r2, #127
 1225 0026 1A70     		strb	r2, [r3, #0]
1897:.\Generated_Source\PSoC5/CyLib.c **** 
1898:.\Generated_Source\PSoC5/CyLib.c ****     #if(!CY_PSOC5A)
1899:.\Generated_Source\PSoC5/CyLib.c **** 
1900:.\Generated_Source\PSoC5/CyLib.c ****         /* Setting the low power mode */
1901:.\Generated_Source\PSoC5/CyLib.c ****         CY_WDT_CFG_REG = (((uint8)(lpMode << CY_WDT_CFG_LPMODE_SHIFT)) & CY_WDT_CFG_LPMODE_MASK) |
1902:.\Generated_Source\PSoC5/CyLib.c ****                           (CY_WDT_CFG_REG & ((uint8)(~CY_WDT_CFG_LPMODE_MASK)));
1903:.\Generated_Source\PSoC5/CyLib.c ****     #else
1904:.\Generated_Source\PSoC5/CyLib.c **** 
1905:.\Generated_Source\PSoC5/CyLib.c ****         if(0u != lpMode)
1906:.\Generated_Source\PSoC5/CyLib.c ****         {
ARM GAS  C:\Users\SUZUKI~1\AppData\Local\Temp\cc9L9var.s 			page 56


1907:.\Generated_Source\PSoC5/CyLib.c ****             /* To remove unreferenced local variable warning */
1908:.\Generated_Source\PSoC5/CyLib.c ****         }
1909:.\Generated_Source\PSoC5/CyLib.c **** 
1910:.\Generated_Source\PSoC5/CyLib.c ****     #endif  /* (!CY_PSOC5A) */
1911:.\Generated_Source\PSoC5/CyLib.c **** 
1912:.\Generated_Source\PSoC5/CyLib.c ****     /* Enables the watchdog reset */
1913:.\Generated_Source\PSoC5/CyLib.c ****     CY_WDT_CFG_REG |= CY_WDT_CFG_WDR_EN;
 1226              		.loc 1 1913 0
 1227 0028 1A78     		ldrb	r2, [r3, #0]	@ zero_extendqisi2
 1228 002a 42F01002 		orr	r2, r2, #16
 1229 002e 1A70     		strb	r2, [r3, #0]
1914:.\Generated_Source\PSoC5/CyLib.c **** }
 1230              		.loc 1 1914 0
 1231 0030 10BD     		pop	{r4, pc}
 1232              	.L166:
 1233 0032 00BF     		.align	2
 1234              	.L165:
 1235 0034 83430040 		.word	1073759107
 1236              		.cfi_endproc
 1237              	.LFE37:
 1238              		.size	CyWdtStart, .-CyWdtStart
 1239              		.section	.text.CyWdtClear,"ax",%progbits
 1240              		.align	1
 1241              		.global	CyWdtClear
 1242              		.thumb
 1243              		.thumb_func
 1244              		.type	CyWdtClear, %function
 1245              	CyWdtClear:
 1246              	.LFB38:
1915:.\Generated_Source\PSoC5/CyLib.c **** 
1916:.\Generated_Source\PSoC5/CyLib.c **** 
1917:.\Generated_Source\PSoC5/CyLib.c **** /*******************************************************************************
1918:.\Generated_Source\PSoC5/CyLib.c **** * Function Name: CyWdtClear
1919:.\Generated_Source\PSoC5/CyLib.c **** ********************************************************************************
1920:.\Generated_Source\PSoC5/CyLib.c **** *
1921:.\Generated_Source\PSoC5/CyLib.c **** * Summary:
1922:.\Generated_Source\PSoC5/CyLib.c **** *  Clears (feeds) the watchdog timer.
1923:.\Generated_Source\PSoC5/CyLib.c **** *
1924:.\Generated_Source\PSoC5/CyLib.c **** * Parameters:
1925:.\Generated_Source\PSoC5/CyLib.c **** *  None
1926:.\Generated_Source\PSoC5/CyLib.c **** *
1927:.\Generated_Source\PSoC5/CyLib.c **** * Return:
1928:.\Generated_Source\PSoC5/CyLib.c **** *  None
1929:.\Generated_Source\PSoC5/CyLib.c **** *
1930:.\Generated_Source\PSoC5/CyLib.c **** *******************************************************************************/
1931:.\Generated_Source\PSoC5/CyLib.c **** void CyWdtClear(void) 
1932:.\Generated_Source\PSoC5/CyLib.c **** {
 1247              		.loc 1 1932 0
 1248              		.cfi_startproc
 1249              		@ args = 0, pretend = 0, frame = 0
 1250              		@ frame_needed = 0, uses_anonymous_args = 0
 1251              		@ link register save eliminated.
1933:.\Generated_Source\PSoC5/CyLib.c ****     #if(CY_PSOC5A)
1934:.\Generated_Source\PSoC5/CyLib.c **** 
1935:.\Generated_Source\PSoC5/CyLib.c ****         /* PSoC5 ES1 watchdog time clear requires workaround */
1936:.\Generated_Source\PSoC5/CyLib.c ****         uint8 wdtCfg = CY_WDT_CFG_REG;
 1252              		.loc 1 1936 0
ARM GAS  C:\Users\SUZUKI~1\AppData\Local\Temp\cc9L9var.s 			page 57


 1253 0000 044B     		ldr	r3, .L169
1937:.\Generated_Source\PSoC5/CyLib.c ****         CY_WDT_CR_REG  = CY_WDT_CR_FEED;
 1254              		.loc 1 1937 0
 1255 0002 0549     		ldr	r1, .L169+4
 1256              		.loc 1 1936 0
 1257 0004 1A78     		ldrb	r2, [r3, #0]	@ zero_extendqisi2
 1258              		.loc 1 1937 0
 1259 0006 0120     		movs	r0, #1
 1260 0008 0870     		strb	r0, [r1, #0]
1938:.\Generated_Source\PSoC5/CyLib.c ****         CY_WDT_CFG_REG = CY_WDT_CFG_CLEAR_ALL;
 1261              		.loc 1 1938 0
 1262 000a 0021     		movs	r1, #0
 1263 000c 1970     		strb	r1, [r3, #0]
1939:.\Generated_Source\PSoC5/CyLib.c ****         CY_WDT_CFG_REG = wdtCfg;
 1264              		.loc 1 1939 0
 1265 000e 1A70     		strb	r2, [r3, #0]
 1266              	.LVL54:
1940:.\Generated_Source\PSoC5/CyLib.c **** 
1941:.\Generated_Source\PSoC5/CyLib.c ****     #else
