ARM GAS  C:\Users\SUZUKI~1\AppData\Local\Temp\cc34iZVE.s 			page 1


   1              		.syntax unified
   2              		.cpu cortex-m3
   3              		.fpu softvfp
   4              		.eabi_attribute 20, 1
   5              		.eabi_attribute 21, 1
   6              		.eabi_attribute 23, 3
   7              		.eabi_attribute 24, 1
   8              		.eabi_attribute 25, 1
   9              		.eabi_attribute 26, 1
  10              		.eabi_attribute 30, 4
  11              		.eabi_attribute 18, 4
  12              		.thumb
  13              		.file	"Pin_2.c"
  14              		.section	.debug_abbrev,"",%progbits
  15              	.Ldebug_abbrev0:
  16              		.section	.debug_info,"",%progbits
  17              	.Ldebug_info0:
  18              		.section	.debug_line,"",%progbits
  19              	.Ldebug_line0:
  20 0000 AD000000 		.text
  20      02005E00 
  20      00000201 
  20      FB0E0D00 
  20      01010101 
  21              	.Ltext0:
  22              		.cfi_sections	.debug_frame
  23              		.section	.text.Pin_2_Write,"ax",%progbits
  24              		.align	1
  25              		.global	Pin_2_Write
  26              		.thumb
  27              		.thumb_func
  28              		.type	Pin_2_Write, %function
  29              	Pin_2_Write:
  30              	.LFB0:
  31              		.file 1 ".\\Generated_Source\\PSoC5\\Pin_2.c"
   1:.\Generated_Source\PSoC5/Pin_2.c **** /*******************************************************************************
   2:.\Generated_Source\PSoC5/Pin_2.c **** * File Name: Pin_2.c  
   3:.\Generated_Source\PSoC5/Pin_2.c **** * Version 1.80
   4:.\Generated_Source\PSoC5/Pin_2.c **** *
   5:.\Generated_Source\PSoC5/Pin_2.c **** * Description:
   6:.\Generated_Source\PSoC5/Pin_2.c **** *  This file contains API to enable firmware control of a Pins component.
   7:.\Generated_Source\PSoC5/Pin_2.c **** *
   8:.\Generated_Source\PSoC5/Pin_2.c **** * Note:
   9:.\Generated_Source\PSoC5/Pin_2.c **** *
  10:.\Generated_Source\PSoC5/Pin_2.c **** ********************************************************************************
  11:.\Generated_Source\PSoC5/Pin_2.c **** * Copyright 2008-2012, Cypress Semiconductor Corporation.  All rights reserved.
  12:.\Generated_Source\PSoC5/Pin_2.c **** * You may use this file only in accordance with the license, terms, conditions, 
  13:.\Generated_Source\PSoC5/Pin_2.c **** * disclaimers, and limitations in the end user license agreement accompanying 
  14:.\Generated_Source\PSoC5/Pin_2.c **** * the software package with which this file was provided.
  15:.\Generated_Source\PSoC5/Pin_2.c **** *******************************************************************************/
  16:.\Generated_Source\PSoC5/Pin_2.c **** 
  17:.\Generated_Source\PSoC5/Pin_2.c **** #include "cytypes.h"
  18:.\Generated_Source\PSoC5/Pin_2.c **** #include "Pin_2.h"
  19:.\Generated_Source\PSoC5/Pin_2.c **** 
  20:.\Generated_Source\PSoC5/Pin_2.c **** /* APIs are not generated for P15[7:6] on PSoC 5 */
  21:.\Generated_Source\PSoC5/Pin_2.c **** #if !(CY_PSOC5A &&\
  22:.\Generated_Source\PSoC5/Pin_2.c **** 	 Pin_2__PORT == 15 && ((Pin_2__MASK & 0xC0) != 0))
ARM GAS  C:\Users\SUZUKI~1\AppData\Local\Temp\cc34iZVE.s 			page 2


  23:.\Generated_Source\PSoC5/Pin_2.c **** 
  24:.\Generated_Source\PSoC5/Pin_2.c **** 
  25:.\Generated_Source\PSoC5/Pin_2.c **** /*******************************************************************************
  26:.\Generated_Source\PSoC5/Pin_2.c **** * Function Name: Pin_2_Write
  27:.\Generated_Source\PSoC5/Pin_2.c **** ********************************************************************************
  28:.\Generated_Source\PSoC5/Pin_2.c **** *
  29:.\Generated_Source\PSoC5/Pin_2.c **** * Summary:
  30:.\Generated_Source\PSoC5/Pin_2.c **** *  Assign a new value to the digital port's data output register.  
  31:.\Generated_Source\PSoC5/Pin_2.c **** *
  32:.\Generated_Source\PSoC5/Pin_2.c **** * Parameters:  
  33:.\Generated_Source\PSoC5/Pin_2.c **** *  prtValue:  The value to be assigned to the Digital Port. 
  34:.\Generated_Source\PSoC5/Pin_2.c **** *
  35:.\Generated_Source\PSoC5/Pin_2.c **** * Return: 
  36:.\Generated_Source\PSoC5/Pin_2.c **** *  None
  37:.\Generated_Source\PSoC5/Pin_2.c **** *  
  38:.\Generated_Source\PSoC5/Pin_2.c **** *******************************************************************************/
  39:.\Generated_Source\PSoC5/Pin_2.c **** void Pin_2_Write(uint8 value) 
  40:.\Generated_Source\PSoC5/Pin_2.c **** {
  32              		.loc 1 40 0
  33              		.cfi_startproc
  34              		@ args = 0, pretend = 0, frame = 0
  35              		@ frame_needed = 0, uses_anonymous_args = 0
  36              		@ link register save eliminated.
  37              	.LVL0:
  41:.\Generated_Source\PSoC5/Pin_2.c ****     uint8 staticBits = (Pin_2_DR & (uint8)(~Pin_2_MASK));
  38              		.loc 1 41 0
  39 0000 054B     		ldr	r3, .L3
  42:.\Generated_Source\PSoC5/Pin_2.c ****     Pin_2_DR = staticBits | ((uint8)(value << Pin_2_SHIFT) & Pin_2_MASK);
  40              		.loc 1 42 0
  41 0002 0001     		lsls	r0, r0, #4
  42              	.LVL1:
  43              		.loc 1 41 0
  44 0004 1A78     		ldrb	r2, [r3, #0]	@ zero_extendqisi2
  45              		.loc 1 42 0
  46 0006 00F01000 		and	r0, r0, #16
  47 000a 02F0EF02 		and	r2, r2, #239
  48 000e 40EA0202 		orr	r2, r0, r2
  49 0012 1A70     		strb	r2, [r3, #0]
  43:.\Generated_Source\PSoC5/Pin_2.c **** }
  50              		.loc 1 43 0
  51 0014 7047     		bx	lr
  52              	.L4:
  53 0016 00BF     		.align	2
  54              	.L3:
  55 0018 20510040 		.word	1073762592
  56              		.cfi_endproc
  57              	.LFE0:
  58              		.size	Pin_2_Write, .-Pin_2_Write
  59              		.section	.text.Pin_2_SetDriveMode,"ax",%progbits
  60              		.align	1
  61              		.global	Pin_2_SetDriveMode
  62              		.thumb
  63              		.thumb_func
  64              		.type	Pin_2_SetDriveMode, %function
  65              	Pin_2_SetDriveMode:
  66              	.LFB1:
  44:.\Generated_Source\PSoC5/Pin_2.c **** 
ARM GAS  C:\Users\SUZUKI~1\AppData\Local\Temp\cc34iZVE.s 			page 3


  45:.\Generated_Source\PSoC5/Pin_2.c **** 
  46:.\Generated_Source\PSoC5/Pin_2.c **** /*******************************************************************************
  47:.\Generated_Source\PSoC5/Pin_2.c **** * Function Name: Pin_2_SetDriveMode
  48:.\Generated_Source\PSoC5/Pin_2.c **** ********************************************************************************
  49:.\Generated_Source\PSoC5/Pin_2.c **** *
  50:.\Generated_Source\PSoC5/Pin_2.c **** * Summary:
  51:.\Generated_Source\PSoC5/Pin_2.c **** *  Change the drive mode on the pins of the port.
  52:.\Generated_Source\PSoC5/Pin_2.c **** * 
  53:.\Generated_Source\PSoC5/Pin_2.c **** * Parameters:  
  54:.\Generated_Source\PSoC5/Pin_2.c **** *  mode:  Change the pins to this drive mode.
  55:.\Generated_Source\PSoC5/Pin_2.c **** *
  56:.\Generated_Source\PSoC5/Pin_2.c **** * Return: 
  57:.\Generated_Source\PSoC5/Pin_2.c **** *  None
  58:.\Generated_Source\PSoC5/Pin_2.c **** *
  59:.\Generated_Source\PSoC5/Pin_2.c **** *******************************************************************************/
  60:.\Generated_Source\PSoC5/Pin_2.c **** void Pin_2_SetDriveMode(uint8 mode) 
  61:.\Generated_Source\PSoC5/Pin_2.c **** {
  67              		.loc 1 61 0
  68              		.cfi_startproc
  69              		@ args = 0, pretend = 0, frame = 0
  70              		@ frame_needed = 0, uses_anonymous_args = 0
  71              		@ link register save eliminated.
  72              	.LVL2:
  62:.\Generated_Source\PSoC5/Pin_2.c **** 	CyPins_SetPinDriveMode(Pin_2_0, mode);
  73              		.loc 1 62 0
  74 0000 044B     		ldr	r3, .L7
  75 0002 00F00E00 		and	r0, r0, #14
  76              	.LVL3:
  77 0006 1A78     		ldrb	r2, [r3, #0]	@ zero_extendqisi2
  78 0008 02F0F102 		and	r2, r2, #241
  79 000c 40EA0202 		orr	r2, r0, r2
  80 0010 1A70     		strb	r2, [r3, #0]
  63:.\Generated_Source\PSoC5/Pin_2.c **** }
  81              		.loc 1 63 0
  82 0012 7047     		bx	lr
  83              	.L8:
  84              		.align	2
  85              	.L7:
  86 0014 14500040 		.word	1073762324
  87              		.cfi_endproc
  88              	.LFE1:
  89              		.size	Pin_2_SetDriveMode, .-Pin_2_SetDriveMode
  90              		.section	.text.Pin_2_Read,"ax",%progbits
  91              		.align	1
  92              		.global	Pin_2_Read
  93              		.thumb
  94              		.thumb_func
  95              		.type	Pin_2_Read, %function
  96              	Pin_2_Read:
  97              	.LFB2:
  64:.\Generated_Source\PSoC5/Pin_2.c **** 
  65:.\Generated_Source\PSoC5/Pin_2.c **** 
  66:.\Generated_Source\PSoC5/Pin_2.c **** /*******************************************************************************
  67:.\Generated_Source\PSoC5/Pin_2.c **** * Function Name: Pin_2_Read
  68:.\Generated_Source\PSoC5/Pin_2.c **** ********************************************************************************
  69:.\Generated_Source\PSoC5/Pin_2.c **** *
  70:.\Generated_Source\PSoC5/Pin_2.c **** * Summary:
ARM GAS  C:\Users\SUZUKI~1\AppData\Local\Temp\cc34iZVE.s 			page 4


  71:.\Generated_Source\PSoC5/Pin_2.c **** *  Read the current value on the pins of the Digital Port in right justified 
  72:.\Generated_Source\PSoC5/Pin_2.c **** *  form.
  73:.\Generated_Source\PSoC5/Pin_2.c **** *
  74:.\Generated_Source\PSoC5/Pin_2.c **** * Parameters:  
  75:.\Generated_Source\PSoC5/Pin_2.c **** *  None
  76:.\Generated_Source\PSoC5/Pin_2.c **** *
  77:.\Generated_Source\PSoC5/Pin_2.c **** * Return: 
  78:.\Generated_Source\PSoC5/Pin_2.c **** *  Returns the current value of the Digital Port as a right justified number
  79:.\Generated_Source\PSoC5/Pin_2.c **** *  
  80:.\Generated_Source\PSoC5/Pin_2.c **** * Note:
  81:.\Generated_Source\PSoC5/Pin_2.c **** *  Macro Pin_2_ReadPS calls this function. 
  82:.\Generated_Source\PSoC5/Pin_2.c **** *  
  83:.\Generated_Source\PSoC5/Pin_2.c **** *******************************************************************************/
  84:.\Generated_Source\PSoC5/Pin_2.c **** uint8 Pin_2_Read(void) 
  85:.\Generated_Source\PSoC5/Pin_2.c **** {
  98              		.loc 1 85 0
  99              		.cfi_startproc
 100              		@ args = 0, pretend = 0, frame = 0
 101              		@ frame_needed = 0, uses_anonymous_args = 0
 102              		@ link register save eliminated.
  86:.\Generated_Source\PSoC5/Pin_2.c ****     return (Pin_2_PS & Pin_2_MASK) >> Pin_2_SHIFT;
 103              		.loc 1 86 0
 104 0000 024B     		ldr	r3, .L11
 105 0002 1878     		ldrb	r0, [r3, #0]	@ zero_extendqisi2
  87:.\Generated_Source\PSoC5/Pin_2.c **** }
 106              		.loc 1 87 0
 107 0004 C0F30010 		ubfx	r0, r0, #4, #1
 108 0008 7047     		bx	lr
 109              	.L12:
 110 000a 00BF     		.align	2
 111              	.L11:
 112 000c 21510040 		.word	1073762593
 113              		.cfi_endproc
 114              	.LFE2:
 115              		.size	Pin_2_Read, .-Pin_2_Read
 116              		.section	.text.Pin_2_ReadDataReg,"ax",%progbits
 117              		.align	1
 118              		.global	Pin_2_ReadDataReg
 119              		.thumb
 120              		.thumb_func
 121              		.type	Pin_2_ReadDataReg, %function
 122              	Pin_2_ReadDataReg:
 123              	.LFB3:
  88:.\Generated_Source\PSoC5/Pin_2.c **** 
  89:.\Generated_Source\PSoC5/Pin_2.c **** 
  90:.\Generated_Source\PSoC5/Pin_2.c **** /*******************************************************************************
  91:.\Generated_Source\PSoC5/Pin_2.c **** * Function Name: Pin_2_ReadDataReg
  92:.\Generated_Source\PSoC5/Pin_2.c **** ********************************************************************************
  93:.\Generated_Source\PSoC5/Pin_2.c **** *
  94:.\Generated_Source\PSoC5/Pin_2.c **** * Summary:
  95:.\Generated_Source\PSoC5/Pin_2.c **** *  Read the current value assigned to a Digital Port's data output register
  96:.\Generated_Source\PSoC5/Pin_2.c **** *
  97:.\Generated_Source\PSoC5/Pin_2.c **** * Parameters:  
  98:.\Generated_Source\PSoC5/Pin_2.c **** *  None 
  99:.\Generated_Source\PSoC5/Pin_2.c **** *
 100:.\Generated_Source\PSoC5/Pin_2.c **** * Return: 
 101:.\Generated_Source\PSoC5/Pin_2.c **** *  Returns the current value assigned to the Digital Port's data output register
ARM GAS  C:\Users\SUZUKI~1\AppData\Local\Temp\cc34iZVE.s 			page 5


 102:.\Generated_Source\PSoC5/Pin_2.c **** *  
 103:.\Generated_Source\PSoC5/Pin_2.c **** *******************************************************************************/
 104:.\Generated_Source\PSoC5/Pin_2.c **** uint8 Pin_2_ReadDataReg(void) 
 105:.\Generated_Source\PSoC5/Pin_2.c **** {
 124              		.loc 1 105 0
 125              		.cfi_startproc
 126              		@ args = 0, pretend = 0, frame = 0
 127              		@ frame_needed = 0, uses_anonymous_args = 0
 128              		@ link register save eliminated.
 106:.\Generated_Source\PSoC5/Pin_2.c ****     return (Pin_2_DR & Pin_2_MASK) >> Pin_2_SHIFT;
 129              		.loc 1 106 0
 130 0000 024B     		ldr	r3, .L15
 131 0002 1878     		ldrb	r0, [r3, #0]	@ zero_extendqisi2
 107:.\Generated_Source\PSoC5/Pin_2.c **** }
 132              		.loc 1 107 0
 133 0004 C0F30010 		ubfx	r0, r0, #4, #1
 134 0008 7047     		bx	lr
 135              	.L16:
 136 000a 00BF     		.align	2
 137              	.L15:
 138 000c 20510040 		.word	1073762592
 139              		.cfi_endproc
 140              	.LFE3:
 141              		.size	Pin_2_ReadDataReg, .-Pin_2_ReadDataReg
 142              		.text
 143              	.Letext0:
