ARM GAS  C:\Users\SUZUKI~1\AppData\Local\Temp\ccWKYO9D.s 			page 1


   1              		.syntax unified
   2              		.cpu cortex-m3
   3              		.fpu softvfp
   4              		.eabi_attribute 20, 1
   5              		.eabi_attribute 21, 1
   6              		.eabi_attribute 23, 3
   7              		.eabi_attribute 24, 1
   8              		.eabi_attribute 25, 1
   9              		.eabi_attribute 26, 1
  10              		.eabi_attribute 30, 4
  11              		.eabi_attribute 18, 4
  12              		.thumb
  13              		.file	"sdlogger_1_sdspi_1_sdspi.c"
  14              		.section	.debug_abbrev,"",%progbits
  15              	.Ldebug_abbrev0:
  16              		.section	.debug_info,"",%progbits
  17              	.Ldebug_info0:
  18              		.section	.debug_line,"",%progbits
  19              	.Ldebug_line0:
  20 0000 BF020000 		.text
  20      0200BD00 
  20      00000201 
  20      FB0E0D00 
  20      01010101 
  21              	.Ltext0:
  22              		.cfi_sections	.debug_frame
  23              		.section	.text.disk_status,"ax",%progbits
  24              		.align	1
  25              		.global	disk_status
  26              		.thumb
  27              		.thumb_func
  28              		.type	disk_status, %function
  29              	disk_status:
  30              	.LFB42:
  31              		.file 1 ".\\Generated_Source\\PSoC5\\sdlogger_1_sdspi_1_sdspi.c"
   1:.\Generated_Source\PSoC5/sdlogger_1_sdspi_1_sdspi.c **** /* ========================================
   2:.\Generated_Source\PSoC5/sdlogger_1_sdspi_1_sdspi.c ****  *
   3:.\Generated_Source\PSoC5/sdlogger_1_sdspi_1_sdspi.c ****  * Copyright YOUR COMPANY, THE YEAR
   4:.\Generated_Source\PSoC5/sdlogger_1_sdspi_1_sdspi.c ****  * All Rights Reserved
   5:.\Generated_Source\PSoC5/sdlogger_1_sdspi_1_sdspi.c ****  * UNPUBLISHED, LICENSED SOFTWARE.
   6:.\Generated_Source\PSoC5/sdlogger_1_sdspi_1_sdspi.c ****  *
   7:.\Generated_Source\PSoC5/sdlogger_1_sdspi_1_sdspi.c ****  * CONFIDENTIAL AND PROPRIETARY INFORMATION
   8:.\Generated_Source\PSoC5/sdlogger_1_sdspi_1_sdspi.c ****  * WHICH IS THE PROPERTY OF your company.
   9:.\Generated_Source\PSoC5/sdlogger_1_sdspi_1_sdspi.c ****  *
  10:.\Generated_Source\PSoC5/sdlogger_1_sdspi_1_sdspi.c ****  * ========================================
  11:.\Generated_Source\PSoC5/sdlogger_1_sdspi_1_sdspi.c **** */
  12:.\Generated_Source\PSoC5/sdlogger_1_sdspi_1_sdspi.c **** 
  13:.\Generated_Source\PSoC5/sdlogger_1_sdspi_1_sdspi.c **** /*------------------------------------------------------------------------/
  14:.\Generated_Source\PSoC5/sdlogger_1_sdspi_1_sdspi.c **** /  MMCv3/SDv1/SDv2 (in SPI mode) control module
  15:.\Generated_Source\PSoC5/sdlogger_1_sdspi_1_sdspi.c **** /-------------------------------------------------------------------------/
  16:.\Generated_Source\PSoC5/sdlogger_1_sdspi_1_sdspi.c **** /
  17:.\Generated_Source\PSoC5/sdlogger_1_sdspi_1_sdspi.c **** /  Copyright (C) 2010, ChaN, all right reserved.
  18:.\Generated_Source\PSoC5/sdlogger_1_sdspi_1_sdspi.c **** /
  19:.\Generated_Source\PSoC5/sdlogger_1_sdspi_1_sdspi.c **** / * This software is a free software and there is NO WARRANTY.
  20:.\Generated_Source\PSoC5/sdlogger_1_sdspi_1_sdspi.c **** / * No restriction on use. You can use, modify and redistribute it for
  21:.\Generated_Source\PSoC5/sdlogger_1_sdspi_1_sdspi.c **** /   personal, non-profit or commercial products UNDER YOUR RESPONSIBILITY.
  22:.\Generated_Source\PSoC5/sdlogger_1_sdspi_1_sdspi.c **** / * Redistributions of source code must retain the above copyright notice.
ARM GAS  C:\Users\SUZUKI~1\AppData\Local\Temp\ccWKYO9D.s 			page 2


  23:.\Generated_Source\PSoC5/sdlogger_1_sdspi_1_sdspi.c **** /
  24:.\Generated_Source\PSoC5/sdlogger_1_sdspi_1_sdspi.c **** /-------------------------------------------------------------------------*/
  25:.\Generated_Source\PSoC5/sdlogger_1_sdspi_1_sdspi.c **** 
  26:.\Generated_Source\PSoC5/sdlogger_1_sdspi_1_sdspi.c **** #include <device.h>
  27:.\Generated_Source\PSoC5/sdlogger_1_sdspi_1_sdspi.c **** #include "sdlogger_1_sdspi_1_sdspi.h"
  28:.\Generated_Source\PSoC5/sdlogger_1_sdspi_1_sdspi.c **** 
  29:.\Generated_Source\PSoC5/sdlogger_1_sdspi_1_sdspi.c **** 
  30:.\Generated_Source\PSoC5/sdlogger_1_sdspi_1_sdspi.c **** /* Definitions for MMC/SDC command */
  31:.\Generated_Source\PSoC5/sdlogger_1_sdspi_1_sdspi.c **** #define CMD0   (0)			/* GO_IDLE_STATE */
  32:.\Generated_Source\PSoC5/sdlogger_1_sdspi_1_sdspi.c **** #define CMD1   (1)			/* SEND_OP_COND */
  33:.\Generated_Source\PSoC5/sdlogger_1_sdspi_1_sdspi.c **** #define ACMD41 (41|0x80)	/* SEND_OP_COND (SDC) */
  34:.\Generated_Source\PSoC5/sdlogger_1_sdspi_1_sdspi.c **** #define CMD8   (8)			/* SEND_IF_COND */
  35:.\Generated_Source\PSoC5/sdlogger_1_sdspi_1_sdspi.c **** #define CMD9   (9)			/* SEND_CSD */
  36:.\Generated_Source\PSoC5/sdlogger_1_sdspi_1_sdspi.c **** #define CMD10  (10)			/* SEND_CID */
  37:.\Generated_Source\PSoC5/sdlogger_1_sdspi_1_sdspi.c **** #define CMD12  (12)			/* STOP_TRANSMISSION */
  38:.\Generated_Source\PSoC5/sdlogger_1_sdspi_1_sdspi.c **** #define ACMD13 (13|0x80)	/* SD_STATUS (SDC) */
  39:.\Generated_Source\PSoC5/sdlogger_1_sdspi_1_sdspi.c **** #define CMD16  (16)			/* SET_BLOCKLEN */
  40:.\Generated_Source\PSoC5/sdlogger_1_sdspi_1_sdspi.c **** #define CMD17  (17)			/* READ_SINGLE_BLOCK */
  41:.\Generated_Source\PSoC5/sdlogger_1_sdspi_1_sdspi.c **** #define CMD18  (18)			/* READ_MULTIPLE_BLOCK */
  42:.\Generated_Source\PSoC5/sdlogger_1_sdspi_1_sdspi.c **** #define CMD23  (23)			/* SET_BLOCK_COUNT */
  43:.\Generated_Source\PSoC5/sdlogger_1_sdspi_1_sdspi.c **** #define ACMD23 (23|0x80)	/* SET_WR_BLK_ERASE_COUNT (SDC) */
  44:.\Generated_Source\PSoC5/sdlogger_1_sdspi_1_sdspi.c **** #define CMD24  (24)			/* WRITE_BLOCK */
  45:.\Generated_Source\PSoC5/sdlogger_1_sdspi_1_sdspi.c **** #define CMD25  (25)			/* WRITE_MULTIPLE_BLOCK */
  46:.\Generated_Source\PSoC5/sdlogger_1_sdspi_1_sdspi.c **** #define CMD41  (41)			/* SEND_OP_COND (ACMD) */
  47:.\Generated_Source\PSoC5/sdlogger_1_sdspi_1_sdspi.c **** #define CMD55  (55)			/* APP_CMD */
  48:.\Generated_Source\PSoC5/sdlogger_1_sdspi_1_sdspi.c **** #define CMD58  (58)			/* READ_OCR */
  49:.\Generated_Source\PSoC5/sdlogger_1_sdspi_1_sdspi.c **** 
  50:.\Generated_Source\PSoC5/sdlogger_1_sdspi_1_sdspi.c **** 
  51:.\Generated_Source\PSoC5/sdlogger_1_sdspi_1_sdspi.c **** /* Port Controls  (Platform dependent) */
  52:.\Generated_Source\PSoC5/sdlogger_1_sdspi_1_sdspi.c **** #if 0
  53:.\Generated_Source\PSoC5/sdlogger_1_sdspi_1_sdspi.c **** #define CS_LOW()  _LATB15 = 0	/* MMC CS = L */
  54:.\Generated_Source\PSoC5/sdlogger_1_sdspi_1_sdspi.c **** #define CS_HIGH() _LATB15 = 1	/* MMC CS = H */
  55:.\Generated_Source\PSoC5/sdlogger_1_sdspi_1_sdspi.c **** 
  56:.\Generated_Source\PSoC5/sdlogger_1_sdspi_1_sdspi.c **** #define SOCKPORT	PORTB		/* Socket contact port */
  57:.\Generated_Source\PSoC5/sdlogger_1_sdspi_1_sdspi.c **** #endif
  58:.\Generated_Source\PSoC5/sdlogger_1_sdspi_1_sdspi.c **** #define SOCKWP	(1<<1)		/* Write protect switch (RB10) */
  59:.\Generated_Source\PSoC5/sdlogger_1_sdspi_1_sdspi.c **** #define SOCKINS	(1<<0)		/* Card detect switch (RB11) */
  60:.\Generated_Source\PSoC5/sdlogger_1_sdspi_1_sdspi.c **** #define	FCLK_SLOW()	;		/* Set slow clock (100k-400k) */
  61:.\Generated_Source\PSoC5/sdlogger_1_sdspi_1_sdspi.c **** #define	FCLK_FAST()	;		/* Set fast clock (depends on the CSD) */
  62:.\Generated_Source\PSoC5/sdlogger_1_sdspi_1_sdspi.c **** 
  63:.\Generated_Source\PSoC5/sdlogger_1_sdspi_1_sdspi.c **** #define	CS_LOW()	sdlogger_1_sdspi_1_CS_Control_Write(0)
  64:.\Generated_Source\PSoC5/sdlogger_1_sdspi_1_sdspi.c **** #define	CS_HIGH()	sdlogger_1_sdspi_1_CS_Control_Write(1)
  65:.\Generated_Source\PSoC5/sdlogger_1_sdspi_1_sdspi.c **** 
  66:.\Generated_Source\PSoC5/sdlogger_1_sdspi_1_sdspi.c **** 
  67:.\Generated_Source\PSoC5/sdlogger_1_sdspi_1_sdspi.c **** /*--------------------------------------------------------------------------
  68:.\Generated_Source\PSoC5/sdlogger_1_sdspi_1_sdspi.c **** 
  69:.\Generated_Source\PSoC5/sdlogger_1_sdspi_1_sdspi.c ****    Start / Stop function
  70:.\Generated_Source\PSoC5/sdlogger_1_sdspi_1_sdspi.c **** 
  71:.\Generated_Source\PSoC5/sdlogger_1_sdspi_1_sdspi.c **** ---------------------------------------------------------------------------*/
  72:.\Generated_Source\PSoC5/sdlogger_1_sdspi_1_sdspi.c **** 
  73:.\Generated_Source\PSoC5/sdlogger_1_sdspi_1_sdspi.c **** void sdspi_start(void)
  74:.\Generated_Source\PSoC5/sdlogger_1_sdspi_1_sdspi.c **** {
  75:.\Generated_Source\PSoC5/sdlogger_1_sdspi_1_sdspi.c **** 	sdlogger_1_sdspi_1_SPI_Start();
  76:.\Generated_Source\PSoC5/sdlogger_1_sdspi_1_sdspi.c **** 	sdlogger_1_sdspi_1_SPI_EnableInt();
  77:.\Generated_Source\PSoC5/sdlogger_1_sdspi_1_sdspi.c **** 	sdlogger_1_sdspi_1_SPI_ClearRxBuffer();
  78:.\Generated_Source\PSoC5/sdlogger_1_sdspi_1_sdspi.c **** 	sdlogger_1_sdspi_1_SPI_ClearTxBuffer();
  79:.\Generated_Source\PSoC5/sdlogger_1_sdspi_1_sdspi.c **** 	
ARM GAS  C:\Users\SUZUKI~1\AppData\Local\Temp\ccWKYO9D.s 			page 3


  80:.\Generated_Source\PSoC5/sdlogger_1_sdspi_1_sdspi.c **** 	sdlogger_1_sdspi_1_Timer_IRQ_StartEx(disk_timerproc);
  81:.\Generated_Source\PSoC5/sdlogger_1_sdspi_1_sdspi.c **** 	sdlogger_1_sdspi_1_Timer_IRQ_Enable();
  82:.\Generated_Source\PSoC5/sdlogger_1_sdspi_1_sdspi.c **** 	return;
  83:.\Generated_Source\PSoC5/sdlogger_1_sdspi_1_sdspi.c **** }
  84:.\Generated_Source\PSoC5/sdlogger_1_sdspi_1_sdspi.c **** 
  85:.\Generated_Source\PSoC5/sdlogger_1_sdspi_1_sdspi.c **** void sdspi_stop(void)
  86:.\Generated_Source\PSoC5/sdlogger_1_sdspi_1_sdspi.c **** {
  87:.\Generated_Source\PSoC5/sdlogger_1_sdspi_1_sdspi.c **** 	sdlogger_1_sdspi_1_SPI_Stop();
  88:.\Generated_Source\PSoC5/sdlogger_1_sdspi_1_sdspi.c **** 	return;
  89:.\Generated_Source\PSoC5/sdlogger_1_sdspi_1_sdspi.c **** }
  90:.\Generated_Source\PSoC5/sdlogger_1_sdspi_1_sdspi.c **** 
  91:.\Generated_Source\PSoC5/sdlogger_1_sdspi_1_sdspi.c **** 
  92:.\Generated_Source\PSoC5/sdlogger_1_sdspi_1_sdspi.c **** /*--------------------------------------------------------------------------
  93:.\Generated_Source\PSoC5/sdlogger_1_sdspi_1_sdspi.c **** 
  94:.\Generated_Source\PSoC5/sdlogger_1_sdspi_1_sdspi.c ****    Module Private Functions
  95:.\Generated_Source\PSoC5/sdlogger_1_sdspi_1_sdspi.c **** 
  96:.\Generated_Source\PSoC5/sdlogger_1_sdspi_1_sdspi.c **** ---------------------------------------------------------------------------*/
  97:.\Generated_Source\PSoC5/sdlogger_1_sdspi_1_sdspi.c **** 
  98:.\Generated_Source\PSoC5/sdlogger_1_sdspi_1_sdspi.c **** static volatile
  99:.\Generated_Source\PSoC5/sdlogger_1_sdspi_1_sdspi.c **** DSTATUS Stat = STA_NOINIT | STA_NODISK;	/* Disk status */
 100:.\Generated_Source\PSoC5/sdlogger_1_sdspi_1_sdspi.c **** 
 101:.\Generated_Source\PSoC5/sdlogger_1_sdspi_1_sdspi.c **** static volatile
 102:.\Generated_Source\PSoC5/sdlogger_1_sdspi_1_sdspi.c **** UINT SDTimer1, SDTimer2;		/* 1000Hz decrement timer */
 103:.\Generated_Source\PSoC5/sdlogger_1_sdspi_1_sdspi.c **** 
 104:.\Generated_Source\PSoC5/sdlogger_1_sdspi_1_sdspi.c **** static
 105:.\Generated_Source\PSoC5/sdlogger_1_sdspi_1_sdspi.c **** UINT CardType;
 106:.\Generated_Source\PSoC5/sdlogger_1_sdspi_1_sdspi.c **** 
 107:.\Generated_Source\PSoC5/sdlogger_1_sdspi_1_sdspi.c **** 
 108:.\Generated_Source\PSoC5/sdlogger_1_sdspi_1_sdspi.c **** 
 109:.\Generated_Source\PSoC5/sdlogger_1_sdspi_1_sdspi.c **** /*-----------------------------------------------------------------------*/
 110:.\Generated_Source\PSoC5/sdlogger_1_sdspi_1_sdspi.c **** /* Exchange a byte between PSoC3 and MMC via SPI  (Platform dependent)   */
 111:.\Generated_Source\PSoC5/sdlogger_1_sdspi_1_sdspi.c **** /*-----------------------------------------------------------------------*/
 112:.\Generated_Source\PSoC5/sdlogger_1_sdspi_1_sdspi.c **** 
 113:.\Generated_Source\PSoC5/sdlogger_1_sdspi_1_sdspi.c **** #define xmit_spi(dat) 	xchg_spi(dat)
 114:.\Generated_Source\PSoC5/sdlogger_1_sdspi_1_sdspi.c **** #define rcvr_spi()		xchg_spi(0xFF)
 115:.\Generated_Source\PSoC5/sdlogger_1_sdspi_1_sdspi.c **** //#define rcvr_spi_m(p)	SPI1BUF = 0xFF; while (!_SPIRBF); *(p) = (BYTE)SPI1BUF;
 116:.\Generated_Source\PSoC5/sdlogger_1_sdspi_1_sdspi.c **** 
 117:.\Generated_Source\PSoC5/sdlogger_1_sdspi_1_sdspi.c **** static
 118:.\Generated_Source\PSoC5/sdlogger_1_sdspi_1_sdspi.c **** void rcvr_spi_m(BYTE *dat)
 119:.\Generated_Source\PSoC5/sdlogger_1_sdspi_1_sdspi.c **** {
 120:.\Generated_Source\PSoC5/sdlogger_1_sdspi_1_sdspi.c **** 	sdlogger_1_sdspi_1_SPI_WriteTxData(0xff);
 121:.\Generated_Source\PSoC5/sdlogger_1_sdspi_1_sdspi.c **** 	while(!(sdlogger_1_sdspi_1_SPI_ReadStatus() & sdlogger_1_sdspi_1_SPI_STS_BYTE_COMPLETE)) {}
 122:.\Generated_Source\PSoC5/sdlogger_1_sdspi_1_sdspi.c **** 	*dat = sdlogger_1_sdspi_1_SPI_ReadRxData();
 123:.\Generated_Source\PSoC5/sdlogger_1_sdspi_1_sdspi.c **** 	return;
 124:.\Generated_Source\PSoC5/sdlogger_1_sdspi_1_sdspi.c **** }
 125:.\Generated_Source\PSoC5/sdlogger_1_sdspi_1_sdspi.c **** 
 126:.\Generated_Source\PSoC5/sdlogger_1_sdspi_1_sdspi.c **** static
 127:.\Generated_Source\PSoC5/sdlogger_1_sdspi_1_sdspi.c **** BYTE xchg_spi (BYTE dat)
 128:.\Generated_Source\PSoC5/sdlogger_1_sdspi_1_sdspi.c **** {
 129:.\Generated_Source\PSoC5/sdlogger_1_sdspi_1_sdspi.c **** 	sdlogger_1_sdspi_1_SPI_WriteTxData(dat);
 130:.\Generated_Source\PSoC5/sdlogger_1_sdspi_1_sdspi.c **** 	while(!(sdlogger_1_sdspi_1_SPI_ReadStatus() & sdlogger_1_sdspi_1_SPI_STS_BYTE_COMPLETE)) {}
 131:.\Generated_Source\PSoC5/sdlogger_1_sdspi_1_sdspi.c **** 	return(sdlogger_1_sdspi_1_SPI_ReadRxData());
 132:.\Generated_Source\PSoC5/sdlogger_1_sdspi_1_sdspi.c **** }
 133:.\Generated_Source\PSoC5/sdlogger_1_sdspi_1_sdspi.c **** 
 134:.\Generated_Source\PSoC5/sdlogger_1_sdspi_1_sdspi.c **** 
 135:.\Generated_Source\PSoC5/sdlogger_1_sdspi_1_sdspi.c **** 
 136:.\Generated_Source\PSoC5/sdlogger_1_sdspi_1_sdspi.c **** /*-----------------------------------------------------------------------*/
ARM GAS  C:\Users\SUZUKI~1\AppData\Local\Temp\ccWKYO9D.s 			page 4


 137:.\Generated_Source\PSoC5/sdlogger_1_sdspi_1_sdspi.c **** /* Wait for card ready                                                   */
 138:.\Generated_Source\PSoC5/sdlogger_1_sdspi_1_sdspi.c **** /*-----------------------------------------------------------------------*/
 139:.\Generated_Source\PSoC5/sdlogger_1_sdspi_1_sdspi.c **** 
 140:.\Generated_Source\PSoC5/sdlogger_1_sdspi_1_sdspi.c **** static
 141:.\Generated_Source\PSoC5/sdlogger_1_sdspi_1_sdspi.c **** BYTE wait_ready (void)
 142:.\Generated_Source\PSoC5/sdlogger_1_sdspi_1_sdspi.c **** {
 143:.\Generated_Source\PSoC5/sdlogger_1_sdspi_1_sdspi.c **** 	BYTE res;
 144:.\Generated_Source\PSoC5/sdlogger_1_sdspi_1_sdspi.c **** 	
 145:.\Generated_Source\PSoC5/sdlogger_1_sdspi_1_sdspi.c **** 	SDTimer2 = 500;	/* Wait for ready in timeout of 500ms */
 146:.\Generated_Source\PSoC5/sdlogger_1_sdspi_1_sdspi.c **** 	rcvr_spi();
 147:.\Generated_Source\PSoC5/sdlogger_1_sdspi_1_sdspi.c **** 	do
 148:.\Generated_Source\PSoC5/sdlogger_1_sdspi_1_sdspi.c **** 	{
 149:.\Generated_Source\PSoC5/sdlogger_1_sdspi_1_sdspi.c **** 		res = rcvr_spi();
 150:.\Generated_Source\PSoC5/sdlogger_1_sdspi_1_sdspi.c **** 	}
 151:.\Generated_Source\PSoC5/sdlogger_1_sdspi_1_sdspi.c **** 	while ((res != 0xFF) && SDTimer2);
 152:.\Generated_Source\PSoC5/sdlogger_1_sdspi_1_sdspi.c **** 	return res;
 153:.\Generated_Source\PSoC5/sdlogger_1_sdspi_1_sdspi.c **** }
 154:.\Generated_Source\PSoC5/sdlogger_1_sdspi_1_sdspi.c **** 
 155:.\Generated_Source\PSoC5/sdlogger_1_sdspi_1_sdspi.c **** 
 156:.\Generated_Source\PSoC5/sdlogger_1_sdspi_1_sdspi.c **** /*-----------------------------------------------------------------------*/
 157:.\Generated_Source\PSoC5/sdlogger_1_sdspi_1_sdspi.c **** /* Deselect the card and release SPI bus                                 */
 158:.\Generated_Source\PSoC5/sdlogger_1_sdspi_1_sdspi.c **** /*-----------------------------------------------------------------------*/
 159:.\Generated_Source\PSoC5/sdlogger_1_sdspi_1_sdspi.c **** 
 160:.\Generated_Source\PSoC5/sdlogger_1_sdspi_1_sdspi.c **** static
 161:.\Generated_Source\PSoC5/sdlogger_1_sdspi_1_sdspi.c **** void deselect (void)
 162:.\Generated_Source\PSoC5/sdlogger_1_sdspi_1_sdspi.c **** {
 163:.\Generated_Source\PSoC5/sdlogger_1_sdspi_1_sdspi.c **** 	CS_HIGH();
 164:.\Generated_Source\PSoC5/sdlogger_1_sdspi_1_sdspi.c **** 	rcvr_spi();
 165:.\Generated_Source\PSoC5/sdlogger_1_sdspi_1_sdspi.c **** }
 166:.\Generated_Source\PSoC5/sdlogger_1_sdspi_1_sdspi.c **** 
 167:.\Generated_Source\PSoC5/sdlogger_1_sdspi_1_sdspi.c **** 
 168:.\Generated_Source\PSoC5/sdlogger_1_sdspi_1_sdspi.c **** 
 169:.\Generated_Source\PSoC5/sdlogger_1_sdspi_1_sdspi.c **** /*-----------------------------------------------------------------------*/
 170:.\Generated_Source\PSoC5/sdlogger_1_sdspi_1_sdspi.c **** /* Select the card and wait ready                                        */
 171:.\Generated_Source\PSoC5/sdlogger_1_sdspi_1_sdspi.c **** /*-----------------------------------------------------------------------*/
 172:.\Generated_Source\PSoC5/sdlogger_1_sdspi_1_sdspi.c **** 
 173:.\Generated_Source\PSoC5/sdlogger_1_sdspi_1_sdspi.c **** static
 174:.\Generated_Source\PSoC5/sdlogger_1_sdspi_1_sdspi.c **** int select (void)	/* 1:Successful, 0:Timeout */
 175:.\Generated_Source\PSoC5/sdlogger_1_sdspi_1_sdspi.c **** {
 176:.\Generated_Source\PSoC5/sdlogger_1_sdspi_1_sdspi.c **** 	CS_LOW();
 177:.\Generated_Source\PSoC5/sdlogger_1_sdspi_1_sdspi.c **** //	iputs("Enter Select\r\n");
 178:.\Generated_Source\PSoC5/sdlogger_1_sdspi_1_sdspi.c **** 	if (wait_ready() != 0xFF) {
 179:.\Generated_Source\PSoC5/sdlogger_1_sdspi_1_sdspi.c **** 		deselect();
 180:.\Generated_Source\PSoC5/sdlogger_1_sdspi_1_sdspi.c **** //		iputc("S");
 181:.\Generated_Source\PSoC5/sdlogger_1_sdspi_1_sdspi.c **** 		return 0;
 182:.\Generated_Source\PSoC5/sdlogger_1_sdspi_1_sdspi.c **** 	}
 183:.\Generated_Source\PSoC5/sdlogger_1_sdspi_1_sdspi.c **** 	return 1;
 184:.\Generated_Source\PSoC5/sdlogger_1_sdspi_1_sdspi.c **** }
 185:.\Generated_Source\PSoC5/sdlogger_1_sdspi_1_sdspi.c **** 
 186:.\Generated_Source\PSoC5/sdlogger_1_sdspi_1_sdspi.c **** 
 187:.\Generated_Source\PSoC5/sdlogger_1_sdspi_1_sdspi.c **** 
 188:.\Generated_Source\PSoC5/sdlogger_1_sdspi_1_sdspi.c **** /*-----------------------------------------------------------------------*/
 189:.\Generated_Source\PSoC5/sdlogger_1_sdspi_1_sdspi.c **** /* Power Control  (Platform dependent)                                   */
 190:.\Generated_Source\PSoC5/sdlogger_1_sdspi_1_sdspi.c **** /*-----------------------------------------------------------------------*/
 191:.\Generated_Source\PSoC5/sdlogger_1_sdspi_1_sdspi.c **** /* When the target system does not support socket power control, there   */
 192:.\Generated_Source\PSoC5/sdlogger_1_sdspi_1_sdspi.c **** /* is nothing to do in these functions and chk_power always returns 1.   */
 193:.\Generated_Source\PSoC5/sdlogger_1_sdspi_1_sdspi.c **** 
ARM GAS  C:\Users\SUZUKI~1\AppData\Local\Temp\ccWKYO9D.s 			page 5


 194:.\Generated_Source\PSoC5/sdlogger_1_sdspi_1_sdspi.c **** static
 195:.\Generated_Source\PSoC5/sdlogger_1_sdspi_1_sdspi.c **** void power_on (void)
 196:.\Generated_Source\PSoC5/sdlogger_1_sdspi_1_sdspi.c **** {
 197:.\Generated_Source\PSoC5/sdlogger_1_sdspi_1_sdspi.c **** 	/* Enable SPI1 */
 198:.\Generated_Source\PSoC5/sdlogger_1_sdspi_1_sdspi.c **** }
 199:.\Generated_Source\PSoC5/sdlogger_1_sdspi_1_sdspi.c **** 
 200:.\Generated_Source\PSoC5/sdlogger_1_sdspi_1_sdspi.c **** static
 201:.\Generated_Source\PSoC5/sdlogger_1_sdspi_1_sdspi.c **** void power_off (void)
 202:.\Generated_Source\PSoC5/sdlogger_1_sdspi_1_sdspi.c **** {
 203:.\Generated_Source\PSoC5/sdlogger_1_sdspi_1_sdspi.c **** 	select();			/* Wait for card ready */
 204:.\Generated_Source\PSoC5/sdlogger_1_sdspi_1_sdspi.c **** 	deselect();
 205:.\Generated_Source\PSoC5/sdlogger_1_sdspi_1_sdspi.c **** 
 206:.\Generated_Source\PSoC5/sdlogger_1_sdspi_1_sdspi.c **** //	_SPIEN = 0;			/* Disable SPI1 */
 207:.\Generated_Source\PSoC5/sdlogger_1_sdspi_1_sdspi.c **** 
 208:.\Generated_Source\PSoC5/sdlogger_1_sdspi_1_sdspi.c **** 	Stat |= STA_NOINIT;	/* Set STA_NOINIT */
 209:.\Generated_Source\PSoC5/sdlogger_1_sdspi_1_sdspi.c **** }
 210:.\Generated_Source\PSoC5/sdlogger_1_sdspi_1_sdspi.c **** 
 211:.\Generated_Source\PSoC5/sdlogger_1_sdspi_1_sdspi.c **** 
 212:.\Generated_Source\PSoC5/sdlogger_1_sdspi_1_sdspi.c **** 
 213:.\Generated_Source\PSoC5/sdlogger_1_sdspi_1_sdspi.c **** /*-----------------------------------------------------------------------*/
 214:.\Generated_Source\PSoC5/sdlogger_1_sdspi_1_sdspi.c **** /* Receive a data packet from MMC                                        */
 215:.\Generated_Source\PSoC5/sdlogger_1_sdspi_1_sdspi.c **** /*-----------------------------------------------------------------------*/
 216:.\Generated_Source\PSoC5/sdlogger_1_sdspi_1_sdspi.c **** 
 217:.\Generated_Source\PSoC5/sdlogger_1_sdspi_1_sdspi.c **** static
 218:.\Generated_Source\PSoC5/sdlogger_1_sdspi_1_sdspi.c **** int rcvr_datablock (	/* 1:OK, 0:Failed */
 219:.\Generated_Source\PSoC5/sdlogger_1_sdspi_1_sdspi.c **** 	BYTE *buff,			/* Data buffer to store received data */
 220:.\Generated_Source\PSoC5/sdlogger_1_sdspi_1_sdspi.c **** 	UINT btr			/* Byte count (must be multiple of 4) */
 221:.\Generated_Source\PSoC5/sdlogger_1_sdspi_1_sdspi.c **** )
 222:.\Generated_Source\PSoC5/sdlogger_1_sdspi_1_sdspi.c **** {
 223:.\Generated_Source\PSoC5/sdlogger_1_sdspi_1_sdspi.c **** 	BYTE token;
 224:.\Generated_Source\PSoC5/sdlogger_1_sdspi_1_sdspi.c **** 
 225:.\Generated_Source\PSoC5/sdlogger_1_sdspi_1_sdspi.c **** 	SDTimer1 = 100;
 226:.\Generated_Source\PSoC5/sdlogger_1_sdspi_1_sdspi.c **** 	do {							/* Wait for data packet in timeout of 100ms */
 227:.\Generated_Source\PSoC5/sdlogger_1_sdspi_1_sdspi.c **** 		token = rcvr_spi();
 228:.\Generated_Source\PSoC5/sdlogger_1_sdspi_1_sdspi.c **** 	} while ((token == 0xFF) && SDTimer1);
 229:.\Generated_Source\PSoC5/sdlogger_1_sdspi_1_sdspi.c **** 
 230:.\Generated_Source\PSoC5/sdlogger_1_sdspi_1_sdspi.c **** 	if(token != 0xFE) return 0;		/* If not valid data token, retutn with error */
 231:.\Generated_Source\PSoC5/sdlogger_1_sdspi_1_sdspi.c **** 
 232:.\Generated_Source\PSoC5/sdlogger_1_sdspi_1_sdspi.c **** 	do {							/* Receive the data block into buffer */
 233:.\Generated_Source\PSoC5/sdlogger_1_sdspi_1_sdspi.c **** 		rcvr_spi_m(buff++);
 234:.\Generated_Source\PSoC5/sdlogger_1_sdspi_1_sdspi.c **** 		rcvr_spi_m(buff++);
 235:.\Generated_Source\PSoC5/sdlogger_1_sdspi_1_sdspi.c **** 		rcvr_spi_m(buff++);
 236:.\Generated_Source\PSoC5/sdlogger_1_sdspi_1_sdspi.c **** 		rcvr_spi_m(buff++);
 237:.\Generated_Source\PSoC5/sdlogger_1_sdspi_1_sdspi.c **** 	} while (btr -= 4);
 238:.\Generated_Source\PSoC5/sdlogger_1_sdspi_1_sdspi.c **** 	rcvr_spi();						/* Discard CRC */
 239:.\Generated_Source\PSoC5/sdlogger_1_sdspi_1_sdspi.c **** 	rcvr_spi();
 240:.\Generated_Source\PSoC5/sdlogger_1_sdspi_1_sdspi.c **** 
 241:.\Generated_Source\PSoC5/sdlogger_1_sdspi_1_sdspi.c **** 	return 1;						/* Return with success */
 242:.\Generated_Source\PSoC5/sdlogger_1_sdspi_1_sdspi.c **** }
 243:.\Generated_Source\PSoC5/sdlogger_1_sdspi_1_sdspi.c **** 
 244:.\Generated_Source\PSoC5/sdlogger_1_sdspi_1_sdspi.c **** 
 245:.\Generated_Source\PSoC5/sdlogger_1_sdspi_1_sdspi.c **** 
 246:.\Generated_Source\PSoC5/sdlogger_1_sdspi_1_sdspi.c **** /*-----------------------------------------------------------------------*/
 247:.\Generated_Source\PSoC5/sdlogger_1_sdspi_1_sdspi.c **** /* Send a data packet to MMC                                             */
 248:.\Generated_Source\PSoC5/sdlogger_1_sdspi_1_sdspi.c **** /*-----------------------------------------------------------------------*/
 249:.\Generated_Source\PSoC5/sdlogger_1_sdspi_1_sdspi.c **** 
 250:.\Generated_Source\PSoC5/sdlogger_1_sdspi_1_sdspi.c **** #if _READONLY == 0
ARM GAS  C:\Users\SUZUKI~1\AppData\Local\Temp\ccWKYO9D.s 			page 6


 251:.\Generated_Source\PSoC5/sdlogger_1_sdspi_1_sdspi.c **** static
 252:.\Generated_Source\PSoC5/sdlogger_1_sdspi_1_sdspi.c **** int xmit_datablock (	/* 1:OK, 0:Failed */
 253:.\Generated_Source\PSoC5/sdlogger_1_sdspi_1_sdspi.c **** 	const BYTE *buff,	/* 512 byte data block to be transmitted */
 254:.\Generated_Source\PSoC5/sdlogger_1_sdspi_1_sdspi.c **** 	BYTE token			/* Data token */
 255:.\Generated_Source\PSoC5/sdlogger_1_sdspi_1_sdspi.c **** )
 256:.\Generated_Source\PSoC5/sdlogger_1_sdspi_1_sdspi.c **** {
 257:.\Generated_Source\PSoC5/sdlogger_1_sdspi_1_sdspi.c **** 	BYTE resp;
 258:.\Generated_Source\PSoC5/sdlogger_1_sdspi_1_sdspi.c **** 	UINT bc = 512;
 259:.\Generated_Source\PSoC5/sdlogger_1_sdspi_1_sdspi.c **** 
 260:.\Generated_Source\PSoC5/sdlogger_1_sdspi_1_sdspi.c **** 
 261:.\Generated_Source\PSoC5/sdlogger_1_sdspi_1_sdspi.c **** 	if (wait_ready() != 0xFF) return 0;
 262:.\Generated_Source\PSoC5/sdlogger_1_sdspi_1_sdspi.c **** 
 263:.\Generated_Source\PSoC5/sdlogger_1_sdspi_1_sdspi.c **** 	xmit_spi(token);		/* Xmit a token */
 264:.\Generated_Source\PSoC5/sdlogger_1_sdspi_1_sdspi.c **** 	if (token != 0xFD) {	/* Not StopTran token */
 265:.\Generated_Source\PSoC5/sdlogger_1_sdspi_1_sdspi.c **** 		do {						/* Xmit the 512 byte data block to the MMC */
 266:.\Generated_Source\PSoC5/sdlogger_1_sdspi_1_sdspi.c **** 			xmit_spi(*buff++);
 267:.\Generated_Source\PSoC5/sdlogger_1_sdspi_1_sdspi.c **** 			xmit_spi(*buff++);
 268:.\Generated_Source\PSoC5/sdlogger_1_sdspi_1_sdspi.c **** 		} while (bc -= 2);
 269:.\Generated_Source\PSoC5/sdlogger_1_sdspi_1_sdspi.c **** 		xmit_spi(0xFF);				/* CRC (Dummy) */
 270:.\Generated_Source\PSoC5/sdlogger_1_sdspi_1_sdspi.c **** 		xmit_spi(0xFF);
 271:.\Generated_Source\PSoC5/sdlogger_1_sdspi_1_sdspi.c **** 		resp = rcvr_spi();			/* Receive a data response */
 272:.\Generated_Source\PSoC5/sdlogger_1_sdspi_1_sdspi.c **** 		if ((resp & 0x1F) != 0x05)	/* If not accepted, return with error */
 273:.\Generated_Source\PSoC5/sdlogger_1_sdspi_1_sdspi.c **** 			return 0;
 274:.\Generated_Source\PSoC5/sdlogger_1_sdspi_1_sdspi.c **** 	}
 275:.\Generated_Source\PSoC5/sdlogger_1_sdspi_1_sdspi.c **** 
 276:.\Generated_Source\PSoC5/sdlogger_1_sdspi_1_sdspi.c **** 	return 1;
 277:.\Generated_Source\PSoC5/sdlogger_1_sdspi_1_sdspi.c **** }
 278:.\Generated_Source\PSoC5/sdlogger_1_sdspi_1_sdspi.c **** #endif	/* _READONLY */
 279:.\Generated_Source\PSoC5/sdlogger_1_sdspi_1_sdspi.c **** 
 280:.\Generated_Source\PSoC5/sdlogger_1_sdspi_1_sdspi.c **** 
 281:.\Generated_Source\PSoC5/sdlogger_1_sdspi_1_sdspi.c **** 
 282:.\Generated_Source\PSoC5/sdlogger_1_sdspi_1_sdspi.c **** /*-----------------------------------------------------------------------*/
 283:.\Generated_Source\PSoC5/sdlogger_1_sdspi_1_sdspi.c **** /* Send a command packet to MMC                                          */
 284:.\Generated_Source\PSoC5/sdlogger_1_sdspi_1_sdspi.c **** /*-----------------------------------------------------------------------*/
 285:.\Generated_Source\PSoC5/sdlogger_1_sdspi_1_sdspi.c **** 
 286:.\Generated_Source\PSoC5/sdlogger_1_sdspi_1_sdspi.c **** static
 287:.\Generated_Source\PSoC5/sdlogger_1_sdspi_1_sdspi.c **** BYTE send_cmd (
 288:.\Generated_Source\PSoC5/sdlogger_1_sdspi_1_sdspi.c **** 	BYTE cmd,		/* Command byte */
 289:.\Generated_Source\PSoC5/sdlogger_1_sdspi_1_sdspi.c **** 	DWORD arg		/* Argument */
 290:.\Generated_Source\PSoC5/sdlogger_1_sdspi_1_sdspi.c **** )
 291:.\Generated_Source\PSoC5/sdlogger_1_sdspi_1_sdspi.c **** {
 292:.\Generated_Source\PSoC5/sdlogger_1_sdspi_1_sdspi.c **** 	BYTE n, res;
 293:.\Generated_Source\PSoC5/sdlogger_1_sdspi_1_sdspi.c **** 
 294:.\Generated_Source\PSoC5/sdlogger_1_sdspi_1_sdspi.c **** 	if (cmd & 0x80)
 295:.\Generated_Source\PSoC5/sdlogger_1_sdspi_1_sdspi.c **** 	{	/* ACMD<n> is the command sequense of CMD55-CMD<n> */
 296:.\Generated_Source\PSoC5/sdlogger_1_sdspi_1_sdspi.c **** 		cmd &= 0x7F;
 297:.\Generated_Source\PSoC5/sdlogger_1_sdspi_1_sdspi.c **** //		res = send_cmd(CMD55, 0);
 298:.\Generated_Source\PSoC5/sdlogger_1_sdspi_1_sdspi.c **** 		/* Select the card and wait for ready */
 299:.\Generated_Source\PSoC5/sdlogger_1_sdspi_1_sdspi.c **** 		deselect();
 300:.\Generated_Source\PSoC5/sdlogger_1_sdspi_1_sdspi.c **** 		if (!select()) return 0xFF;
 301:.\Generated_Source\PSoC5/sdlogger_1_sdspi_1_sdspi.c **** 		/* Send command packet */
 302:.\Generated_Source\PSoC5/sdlogger_1_sdspi_1_sdspi.c **** 		xmit_spi(0x40 | CMD55);			/* Start + Command index */
 303:.\Generated_Source\PSoC5/sdlogger_1_sdspi_1_sdspi.c **** 		xmit_spi((BYTE)0);				/* Argument[31..24] */
 304:.\Generated_Source\PSoC5/sdlogger_1_sdspi_1_sdspi.c **** 		xmit_spi((BYTE)0);				/* Argument[23..16] */
 305:.\Generated_Source\PSoC5/sdlogger_1_sdspi_1_sdspi.c **** 		xmit_spi((BYTE)0);				/* Argument[15..8] */
 306:.\Generated_Source\PSoC5/sdlogger_1_sdspi_1_sdspi.c **** 		xmit_spi((BYTE)0);				/* Argument[7..0] */
 307:.\Generated_Source\PSoC5/sdlogger_1_sdspi_1_sdspi.c **** 		xmit_spi(0x01);					/* Dummy CRC + Stop */
ARM GAS  C:\Users\SUZUKI~1\AppData\Local\Temp\ccWKYO9D.s 			page 7


 308:.\Generated_Source\PSoC5/sdlogger_1_sdspi_1_sdspi.c **** 	
 309:.\Generated_Source\PSoC5/sdlogger_1_sdspi_1_sdspi.c **** 		/* Receive command response */
 310:.\Generated_Source\PSoC5/sdlogger_1_sdspi_1_sdspi.c **** 		n = 10;							/* Wait for a valid response in timeout of 10 attempts */
 311:.\Generated_Source\PSoC5/sdlogger_1_sdspi_1_sdspi.c **** 		do
 312:.\Generated_Source\PSoC5/sdlogger_1_sdspi_1_sdspi.c **** 			res = rcvr_spi();
 313:.\Generated_Source\PSoC5/sdlogger_1_sdspi_1_sdspi.c **** 		while ((res & 0x80) && --n);
 314:.\Generated_Source\PSoC5/sdlogger_1_sdspi_1_sdspi.c **** 	
 315:.\Generated_Source\PSoC5/sdlogger_1_sdspi_1_sdspi.c **** //		return res;			/* Return with the response value */
 316:.\Generated_Source\PSoC5/sdlogger_1_sdspi_1_sdspi.c **** 		if (res > 1) return res;
 317:.\Generated_Source\PSoC5/sdlogger_1_sdspi_1_sdspi.c **** 	}
 318:.\Generated_Source\PSoC5/sdlogger_1_sdspi_1_sdspi.c **** 
 319:.\Generated_Source\PSoC5/sdlogger_1_sdspi_1_sdspi.c **** 	/* Select the card and wait for ready */
 320:.\Generated_Source\PSoC5/sdlogger_1_sdspi_1_sdspi.c **** 	deselect();
 321:.\Generated_Source\PSoC5/sdlogger_1_sdspi_1_sdspi.c **** 	if(!select())
 322:.\Generated_Source\PSoC5/sdlogger_1_sdspi_1_sdspi.c **** 	{
 323:.\Generated_Source\PSoC5/sdlogger_1_sdspi_1_sdspi.c **** 		return 0xFF;
 324:.\Generated_Source\PSoC5/sdlogger_1_sdspi_1_sdspi.c **** 	}
 325:.\Generated_Source\PSoC5/sdlogger_1_sdspi_1_sdspi.c **** 	/* Send command packet */
 326:.\Generated_Source\PSoC5/sdlogger_1_sdspi_1_sdspi.c **** 	xmit_spi(0x40 | cmd);			/* Start + Command index */
 327:.\Generated_Source\PSoC5/sdlogger_1_sdspi_1_sdspi.c **** 	xmit_spi((BYTE)(arg >> 24));	/* Argument[31..24] */
 328:.\Generated_Source\PSoC5/sdlogger_1_sdspi_1_sdspi.c **** 	xmit_spi((BYTE)(arg >> 16));	/* Argument[23..16] */
 329:.\Generated_Source\PSoC5/sdlogger_1_sdspi_1_sdspi.c **** 	xmit_spi((BYTE)(arg >> 8));		/* Argument[15..8] */
 330:.\Generated_Source\PSoC5/sdlogger_1_sdspi_1_sdspi.c **** 	xmit_spi((BYTE)arg);			/* Argument[7..0] */
 331:.\Generated_Source\PSoC5/sdlogger_1_sdspi_1_sdspi.c **** 	n = 0x01;						/* Dummy CRC + Stop */
 332:.\Generated_Source\PSoC5/sdlogger_1_sdspi_1_sdspi.c **** 	if (cmd == CMD0) n = 0x95;		/* Valid CRC for CMD0(0) */
 333:.\Generated_Source\PSoC5/sdlogger_1_sdspi_1_sdspi.c **** 	if (cmd == CMD8) n = 0x87;		/* Valid CRC for CMD8(0x1AA) */
 334:.\Generated_Source\PSoC5/sdlogger_1_sdspi_1_sdspi.c **** 	xmit_spi(n);
 335:.\Generated_Source\PSoC5/sdlogger_1_sdspi_1_sdspi.c **** 	/* Receive command response */
 336:.\Generated_Source\PSoC5/sdlogger_1_sdspi_1_sdspi.c **** 	if (cmd == CMD12) rcvr_spi();	/* Skip a stuff byte when stop reading */
 337:.\Generated_Source\PSoC5/sdlogger_1_sdspi_1_sdspi.c **** 	n = 20;							/* Wait for a valid response in timeout of 10 attempts */
 338:.\Generated_Source\PSoC5/sdlogger_1_sdspi_1_sdspi.c **** 	do
 339:.\Generated_Source\PSoC5/sdlogger_1_sdspi_1_sdspi.c **** 		res = rcvr_spi();
 340:.\Generated_Source\PSoC5/sdlogger_1_sdspi_1_sdspi.c **** 	while ((res & 0x80) && --n);
 341:.\Generated_Source\PSoC5/sdlogger_1_sdspi_1_sdspi.c **** 
 342:.\Generated_Source\PSoC5/sdlogger_1_sdspi_1_sdspi.c **** 	return res;			/* Return with the response value */
 343:.\Generated_Source\PSoC5/sdlogger_1_sdspi_1_sdspi.c **** }
 344:.\Generated_Source\PSoC5/sdlogger_1_sdspi_1_sdspi.c **** 
 345:.\Generated_Source\PSoC5/sdlogger_1_sdspi_1_sdspi.c **** 
 346:.\Generated_Source\PSoC5/sdlogger_1_sdspi_1_sdspi.c **** 
 347:.\Generated_Source\PSoC5/sdlogger_1_sdspi_1_sdspi.c **** /*--------------------------------------------------------------------------
 348:.\Generated_Source\PSoC5/sdlogger_1_sdspi_1_sdspi.c **** 
 349:.\Generated_Source\PSoC5/sdlogger_1_sdspi_1_sdspi.c ****    Public Functions
 350:.\Generated_Source\PSoC5/sdlogger_1_sdspi_1_sdspi.c **** 
 351:.\Generated_Source\PSoC5/sdlogger_1_sdspi_1_sdspi.c **** ---------------------------------------------------------------------------*/
 352:.\Generated_Source\PSoC5/sdlogger_1_sdspi_1_sdspi.c **** 
 353:.\Generated_Source\PSoC5/sdlogger_1_sdspi_1_sdspi.c **** 
 354:.\Generated_Source\PSoC5/sdlogger_1_sdspi_1_sdspi.c **** /*-----------------------------------------------------------------------*/
 355:.\Generated_Source\PSoC5/sdlogger_1_sdspi_1_sdspi.c **** /* Initialize Disk Drive                                                 */
 356:.\Generated_Source\PSoC5/sdlogger_1_sdspi_1_sdspi.c **** /*-----------------------------------------------------------------------*/
 357:.\Generated_Source\PSoC5/sdlogger_1_sdspi_1_sdspi.c **** 
 358:.\Generated_Source\PSoC5/sdlogger_1_sdspi_1_sdspi.c **** DSTATUS disk_initialize (
 359:.\Generated_Source\PSoC5/sdlogger_1_sdspi_1_sdspi.c **** 	BYTE drv		/* Physical drive nmuber (0) */
 360:.\Generated_Source\PSoC5/sdlogger_1_sdspi_1_sdspi.c **** )
 361:.\Generated_Source\PSoC5/sdlogger_1_sdspi_1_sdspi.c **** {
 362:.\Generated_Source\PSoC5/sdlogger_1_sdspi_1_sdspi.c **** 	BYTE n, cmd, ty, ocr[4], res;
 363:.\Generated_Source\PSoC5/sdlogger_1_sdspi_1_sdspi.c **** 	
 364:.\Generated_Source\PSoC5/sdlogger_1_sdspi_1_sdspi.c **** //	UART_1_PutString("INIT\r\n");
ARM GAS  C:\Users\SUZUKI~1\AppData\Local\Temp\ccWKYO9D.s 			page 8


 365:.\Generated_Source\PSoC5/sdlogger_1_sdspi_1_sdspi.c **** 	if (drv) return STA_NOINIT;			/* Supports only single drive */
 366:.\Generated_Source\PSoC5/sdlogger_1_sdspi_1_sdspi.c **** 	if (Stat & STA_NODISK) return Stat;	/* No card in the socket */
 367:.\Generated_Source\PSoC5/sdlogger_1_sdspi_1_sdspi.c **** 
 368:.\Generated_Source\PSoC5/sdlogger_1_sdspi_1_sdspi.c **** 	power_on();							/* Force socket power on */
 369:.\Generated_Source\PSoC5/sdlogger_1_sdspi_1_sdspi.c **** 	FCLK_SLOW();
 370:.\Generated_Source\PSoC5/sdlogger_1_sdspi_1_sdspi.c **** 	for(n = 0; n < 30; n++)
 371:.\Generated_Source\PSoC5/sdlogger_1_sdspi_1_sdspi.c **** 	{
 372:.\Generated_Source\PSoC5/sdlogger_1_sdspi_1_sdspi.c **** 		rcvr_spi();						/* 80 dummy clocks */
 373:.\Generated_Source\PSoC5/sdlogger_1_sdspi_1_sdspi.c **** 	}
 374:.\Generated_Source\PSoC5/sdlogger_1_sdspi_1_sdspi.c **** 	ty = 0;
 375:.\Generated_Source\PSoC5/sdlogger_1_sdspi_1_sdspi.c **** 	if((res = send_cmd(CMD0, 0)) == 1)
 376:.\Generated_Source\PSoC5/sdlogger_1_sdspi_1_sdspi.c **** 	{									/* Enter Idle state */
 377:.\Generated_Source\PSoC5/sdlogger_1_sdspi_1_sdspi.c **** //		UART_1_PutString("CMD0 \r\n");
 378:.\Generated_Source\PSoC5/sdlogger_1_sdspi_1_sdspi.c **** 		SDTimer1 = 1000;					/* Initialization timeout of 1000 msec */
 379:.\Generated_Source\PSoC5/sdlogger_1_sdspi_1_sdspi.c **** 		if(send_cmd(CMD8, 0x1AA) == 1)
 380:.\Generated_Source\PSoC5/sdlogger_1_sdspi_1_sdspi.c **** 		{								/* SDv2? */
 381:.\Generated_Source\PSoC5/sdlogger_1_sdspi_1_sdspi.c **** //			UART_1_PutString("CMD8 \r\n");
 382:.\Generated_Source\PSoC5/sdlogger_1_sdspi_1_sdspi.c **** 			for(n = 0; n < 4; n++) ocr[n] = rcvr_spi();			/* Get trailing return value of R7 resp */
 383:.\Generated_Source\PSoC5/sdlogger_1_sdspi_1_sdspi.c **** 			if(ocr[2] == 0x01 && ocr[3] == 0xAA)
 384:.\Generated_Source\PSoC5/sdlogger_1_sdspi_1_sdspi.c **** 			{							/* The card can work at vdd range of 2.7-3.6V */
 385:.\Generated_Source\PSoC5/sdlogger_1_sdspi_1_sdspi.c **** //				UART_1_PutString("Vdd OK \r\n");
 386:.\Generated_Source\PSoC5/sdlogger_1_sdspi_1_sdspi.c **** 				while(SDTimer1 && send_cmd(ACMD41, 0x40000000));	/* Wait for leaving idle state (ACMD41 with HC
 387:.\Generated_Source\PSoC5/sdlogger_1_sdspi_1_sdspi.c **** 				if(SDTimer1 && send_cmd(CMD58, 0) == 0) {			/* Check CCS bit in the OCR */
 388:.\Generated_Source\PSoC5/sdlogger_1_sdspi_1_sdspi.c **** 					for(n = 0; n < 4; n++) ocr[n] = rcvr_spi();
 389:.\Generated_Source\PSoC5/sdlogger_1_sdspi_1_sdspi.c **** 					ty = (ocr[0] & 0x40) ? CT_SD2|CT_BLOCK : CT_SD2;	/* SDv2 */
 390:.\Generated_Source\PSoC5/sdlogger_1_sdspi_1_sdspi.c **** 				}
 391:.\Generated_Source\PSoC5/sdlogger_1_sdspi_1_sdspi.c **** 			}
 392:.\Generated_Source\PSoC5/sdlogger_1_sdspi_1_sdspi.c **** 		}
 393:.\Generated_Source\PSoC5/sdlogger_1_sdspi_1_sdspi.c **** 		else
 394:.\Generated_Source\PSoC5/sdlogger_1_sdspi_1_sdspi.c **** 		{								/* SDv1 or MMCv3 */
 395:.\Generated_Source\PSoC5/sdlogger_1_sdspi_1_sdspi.c **** //			UART_1_PutString("!CMD8 ");
 396:.\Generated_Source\PSoC5/sdlogger_1_sdspi_1_sdspi.c **** 			if(send_cmd(ACMD41, 0) <= 1)
 397:.\Generated_Source\PSoC5/sdlogger_1_sdspi_1_sdspi.c **** 			{
 398:.\Generated_Source\PSoC5/sdlogger_1_sdspi_1_sdspi.c **** 				ty = CT_SD1; cmd = ACMD41;	/* SDv1 */
 399:.\Generated_Source\PSoC5/sdlogger_1_sdspi_1_sdspi.c **** 			}
 400:.\Generated_Source\PSoC5/sdlogger_1_sdspi_1_sdspi.c **** 			else
 401:.\Generated_Source\PSoC5/sdlogger_1_sdspi_1_sdspi.c **** 			{
 402:.\Generated_Source\PSoC5/sdlogger_1_sdspi_1_sdspi.c **** 				ty = CT_MMC; cmd = CMD1;	/* MMCv3 */
 403:.\Generated_Source\PSoC5/sdlogger_1_sdspi_1_sdspi.c **** 			}
 404:.\Generated_Source\PSoC5/sdlogger_1_sdspi_1_sdspi.c **** 			while(SDTimer1 && send_cmd(cmd, 0));		/* Wait for leaving idle state */
 405:.\Generated_Source\PSoC5/sdlogger_1_sdspi_1_sdspi.c **** 			if(!SDTimer1 || send_cmd(CMD16, 512) != 0)	/* Set read/write block length to 512 */
 406:.\Generated_Source\PSoC5/sdlogger_1_sdspi_1_sdspi.c **** 				ty = 0;
 407:.\Generated_Source\PSoC5/sdlogger_1_sdspi_1_sdspi.c **** 		}
 408:.\Generated_Source\PSoC5/sdlogger_1_sdspi_1_sdspi.c **** 	}
 409:.\Generated_Source\PSoC5/sdlogger_1_sdspi_1_sdspi.c **** 	CardType = ty;
 410:.\Generated_Source\PSoC5/sdlogger_1_sdspi_1_sdspi.c **** 	deselect();
 411:.\Generated_Source\PSoC5/sdlogger_1_sdspi_1_sdspi.c **** 	
 412:.\Generated_Source\PSoC5/sdlogger_1_sdspi_1_sdspi.c **** 	if(ty)
 413:.\Generated_Source\PSoC5/sdlogger_1_sdspi_1_sdspi.c **** 	{							/* Initialization succeded */
 414:.\Generated_Source\PSoC5/sdlogger_1_sdspi_1_sdspi.c **** //		UART_1_PutString("NOINIT\r\n");
 415:.\Generated_Source\PSoC5/sdlogger_1_sdspi_1_sdspi.c **** 		Stat &= ~STA_NOINIT;	/* Clear STA_NOINIT */
 416:.\Generated_Source\PSoC5/sdlogger_1_sdspi_1_sdspi.c **** 		FCLK_FAST();
 417:.\Generated_Source\PSoC5/sdlogger_1_sdspi_1_sdspi.c **** 	}
 418:.\Generated_Source\PSoC5/sdlogger_1_sdspi_1_sdspi.c **** 	else
 419:.\Generated_Source\PSoC5/sdlogger_1_sdspi_1_sdspi.c **** 	{							/* Initialization failed */
 420:.\Generated_Source\PSoC5/sdlogger_1_sdspi_1_sdspi.c **** //		UART_1_PutString("FAILED!\r\n");
 421:.\Generated_Source\PSoC5/sdlogger_1_sdspi_1_sdspi.c **** 		power_off();
ARM GAS  C:\Users\SUZUKI~1\AppData\Local\Temp\ccWKYO9D.s 			page 9


 422:.\Generated_Source\PSoC5/sdlogger_1_sdspi_1_sdspi.c **** 	}
 423:.\Generated_Source\PSoC5/sdlogger_1_sdspi_1_sdspi.c **** //	UART_1_PutString("RETRN\r\n");
 424:.\Generated_Source\PSoC5/sdlogger_1_sdspi_1_sdspi.c **** 	return Stat;
 425:.\Generated_Source\PSoC5/sdlogger_1_sdspi_1_sdspi.c **** }
 426:.\Generated_Source\PSoC5/sdlogger_1_sdspi_1_sdspi.c **** 
 427:.\Generated_Source\PSoC5/sdlogger_1_sdspi_1_sdspi.c **** 
 428:.\Generated_Source\PSoC5/sdlogger_1_sdspi_1_sdspi.c **** 
 429:.\Generated_Source\PSoC5/sdlogger_1_sdspi_1_sdspi.c **** /*-----------------------------------------------------------------------*/
 430:.\Generated_Source\PSoC5/sdlogger_1_sdspi_1_sdspi.c **** /* Get Disk Status                                                       */
 431:.\Generated_Source\PSoC5/sdlogger_1_sdspi_1_sdspi.c **** /*-----------------------------------------------------------------------*/
 432:.\Generated_Source\PSoC5/sdlogger_1_sdspi_1_sdspi.c **** 
 433:.\Generated_Source\PSoC5/sdlogger_1_sdspi_1_sdspi.c **** DSTATUS disk_status (
 434:.\Generated_Source\PSoC5/sdlogger_1_sdspi_1_sdspi.c **** 	BYTE drv		/* Physical drive nmuber (0) */
 435:.\Generated_Source\PSoC5/sdlogger_1_sdspi_1_sdspi.c **** )
 436:.\Generated_Source\PSoC5/sdlogger_1_sdspi_1_sdspi.c **** {
  32              		.loc 1 436 0
  33              		.cfi_startproc
  34              		@ args = 0, pretend = 0, frame = 0
  35              		@ frame_needed = 0, uses_anonymous_args = 0
  36              		@ link register save eliminated.
  37              	.LVL0:
 437:.\Generated_Source\PSoC5/sdlogger_1_sdspi_1_sdspi.c **** 	if (drv) return STA_NOINIT;		/* Supports only single drive */
  38              		.loc 1 437 0
  39 0000 08B1     		cbz	r0, .L2
  40 0002 0120     		movs	r0, #1
  41              	.LVL1:
  42 0004 7047     		bx	lr
  43              	.LVL2:
  44              	.L2:
 438:.\Generated_Source\PSoC5/sdlogger_1_sdspi_1_sdspi.c **** 	return Stat;
  45              		.loc 1 438 0
  46 0006 014B     		ldr	r3, .L6
  47 0008 1878     		ldrb	r0, [r3, #0]	@ zero_extendqisi2
  48              	.LVL3:
 439:.\Generated_Source\PSoC5/sdlogger_1_sdspi_1_sdspi.c **** }
  49              		.loc 1 439 0
  50 000a 7047     		bx	lr
  51              	.L7:
  52              		.align	2
  53              	.L6:
  54 000c 00000000 		.word	.LANCHOR0
  55              		.cfi_endproc
  56              	.LFE42:
  57              		.size	disk_status, .-disk_status
  58              		.section	.text.disk_timerproc,"ax",%progbits
  59              		.align	1
  60              		.global	disk_timerproc
  61              		.thumb
  62              		.thumb_func
  63              		.type	disk_timerproc, %function
  64              	disk_timerproc:
  65              	.LFB46:
 440:.\Generated_Source\PSoC5/sdlogger_1_sdspi_1_sdspi.c **** 
 441:.\Generated_Source\PSoC5/sdlogger_1_sdspi_1_sdspi.c **** 
 442:.\Generated_Source\PSoC5/sdlogger_1_sdspi_1_sdspi.c **** 
 443:.\Generated_Source\PSoC5/sdlogger_1_sdspi_1_sdspi.c **** /*-----------------------------------------------------------------------*/
 444:.\Generated_Source\PSoC5/sdlogger_1_sdspi_1_sdspi.c **** /* Read Sector(s)                                                        */
ARM GAS  C:\Users\SUZUKI~1\AppData\Local\Temp\ccWKYO9D.s 			page 10


 445:.\Generated_Source\PSoC5/sdlogger_1_sdspi_1_sdspi.c **** /*-----------------------------------------------------------------------*/
 446:.\Generated_Source\PSoC5/sdlogger_1_sdspi_1_sdspi.c **** 
 447:.\Generated_Source\PSoC5/sdlogger_1_sdspi_1_sdspi.c **** DRESULT disk_read (
 448:.\Generated_Source\PSoC5/sdlogger_1_sdspi_1_sdspi.c **** 	BYTE drv,		/* Physical drive nmuber (0) */
 449:.\Generated_Source\PSoC5/sdlogger_1_sdspi_1_sdspi.c **** 	BYTE *buff,		/* Pointer to the data buffer to store read data */
 450:.\Generated_Source\PSoC5/sdlogger_1_sdspi_1_sdspi.c **** 	DWORD sector,	/* Start sector number (LBA) */
 451:.\Generated_Source\PSoC5/sdlogger_1_sdspi_1_sdspi.c **** 	BYTE count		/* Sector count (1..255) */
 452:.\Generated_Source\PSoC5/sdlogger_1_sdspi_1_sdspi.c **** )
 453:.\Generated_Source\PSoC5/sdlogger_1_sdspi_1_sdspi.c **** {
 454:.\Generated_Source\PSoC5/sdlogger_1_sdspi_1_sdspi.c **** 	if (drv || !count) return RES_PARERR;
 455:.\Generated_Source\PSoC5/sdlogger_1_sdspi_1_sdspi.c **** 	if (Stat & STA_NOINIT) return RES_NOTRDY;
 456:.\Generated_Source\PSoC5/sdlogger_1_sdspi_1_sdspi.c **** 
 457:.\Generated_Source\PSoC5/sdlogger_1_sdspi_1_sdspi.c **** 	if (!(CardType & CT_BLOCK)) sector *= 512;	/* Convert to byte address if needed */
 458:.\Generated_Source\PSoC5/sdlogger_1_sdspi_1_sdspi.c **** 
 459:.\Generated_Source\PSoC5/sdlogger_1_sdspi_1_sdspi.c **** 	if (count == 1) {		/* Single block read */
 460:.\Generated_Source\PSoC5/sdlogger_1_sdspi_1_sdspi.c **** 		if ((send_cmd(CMD17, sector) == 0)	/* READ_SINGLE_BLOCK */
 461:.\Generated_Source\PSoC5/sdlogger_1_sdspi_1_sdspi.c **** 			&& rcvr_datablock(buff, 512))
 462:.\Generated_Source\PSoC5/sdlogger_1_sdspi_1_sdspi.c **** 			count = 0;
 463:.\Generated_Source\PSoC5/sdlogger_1_sdspi_1_sdspi.c **** 	}
 464:.\Generated_Source\PSoC5/sdlogger_1_sdspi_1_sdspi.c **** 	else {				/* Multiple block read */
 465:.\Generated_Source\PSoC5/sdlogger_1_sdspi_1_sdspi.c **** 		if (send_cmd(CMD18, sector) == 0) {	/* READ_MULTIPLE_BLOCK */
 466:.\Generated_Source\PSoC5/sdlogger_1_sdspi_1_sdspi.c **** 			do {
 467:.\Generated_Source\PSoC5/sdlogger_1_sdspi_1_sdspi.c **** 				if (!rcvr_datablock(buff, 512)) break;
 468:.\Generated_Source\PSoC5/sdlogger_1_sdspi_1_sdspi.c **** 				buff += 512;
 469:.\Generated_Source\PSoC5/sdlogger_1_sdspi_1_sdspi.c **** 			} while (--count);
 470:.\Generated_Source\PSoC5/sdlogger_1_sdspi_1_sdspi.c **** 			send_cmd(CMD12, 0);				/* STOP_TRANSMISSION */
 471:.\Generated_Source\PSoC5/sdlogger_1_sdspi_1_sdspi.c **** 		}
 472:.\Generated_Source\PSoC5/sdlogger_1_sdspi_1_sdspi.c **** 	}
 473:.\Generated_Source\PSoC5/sdlogger_1_sdspi_1_sdspi.c **** 	deselect();
 474:.\Generated_Source\PSoC5/sdlogger_1_sdspi_1_sdspi.c **** 
 475:.\Generated_Source\PSoC5/sdlogger_1_sdspi_1_sdspi.c **** 	return count ? RES_ERROR : RES_OK;
 476:.\Generated_Source\PSoC5/sdlogger_1_sdspi_1_sdspi.c **** }
 477:.\Generated_Source\PSoC5/sdlogger_1_sdspi_1_sdspi.c **** 
 478:.\Generated_Source\PSoC5/sdlogger_1_sdspi_1_sdspi.c **** 
 479:.\Generated_Source\PSoC5/sdlogger_1_sdspi_1_sdspi.c **** 
 480:.\Generated_Source\PSoC5/sdlogger_1_sdspi_1_sdspi.c **** /*-----------------------------------------------------------------------*/
 481:.\Generated_Source\PSoC5/sdlogger_1_sdspi_1_sdspi.c **** /* Write Sector(s)                                                       */
 482:.\Generated_Source\PSoC5/sdlogger_1_sdspi_1_sdspi.c **** /*-----------------------------------------------------------------------*/
 483:.\Generated_Source\PSoC5/sdlogger_1_sdspi_1_sdspi.c **** 
 484:.\Generated_Source\PSoC5/sdlogger_1_sdspi_1_sdspi.c **** #if _READONLY == 0
 485:.\Generated_Source\PSoC5/sdlogger_1_sdspi_1_sdspi.c **** DRESULT disk_write (
 486:.\Generated_Source\PSoC5/sdlogger_1_sdspi_1_sdspi.c **** 	BYTE drv,				/* Physical drive nmuber (0) */
 487:.\Generated_Source\PSoC5/sdlogger_1_sdspi_1_sdspi.c **** 	const BYTE *buff,		/* Pointer to the data to be written */
 488:.\Generated_Source\PSoC5/sdlogger_1_sdspi_1_sdspi.c **** 	DWORD sector,			/* Start sector number (LBA) */
 489:.\Generated_Source\PSoC5/sdlogger_1_sdspi_1_sdspi.c **** 	BYTE count				/* Sector count (1..255) */
 490:.\Generated_Source\PSoC5/sdlogger_1_sdspi_1_sdspi.c **** )
 491:.\Generated_Source\PSoC5/sdlogger_1_sdspi_1_sdspi.c **** {
 492:.\Generated_Source\PSoC5/sdlogger_1_sdspi_1_sdspi.c **** 	if (drv || !count) return RES_PARERR;
 493:.\Generated_Source\PSoC5/sdlogger_1_sdspi_1_sdspi.c **** 	if (Stat & STA_NOINIT) return RES_NOTRDY;
 494:.\Generated_Source\PSoC5/sdlogger_1_sdspi_1_sdspi.c **** 	if (Stat & STA_PROTECT) return RES_WRPRT;
 495:.\Generated_Source\PSoC5/sdlogger_1_sdspi_1_sdspi.c **** 
 496:.\Generated_Source\PSoC5/sdlogger_1_sdspi_1_sdspi.c **** 	if (!(CardType & CT_BLOCK)) sector *= 512;	/* Convert to byte address if needed */
 497:.\Generated_Source\PSoC5/sdlogger_1_sdspi_1_sdspi.c **** 
 498:.\Generated_Source\PSoC5/sdlogger_1_sdspi_1_sdspi.c **** 	if (count == 1) {		/* Single block write */
 499:.\Generated_Source\PSoC5/sdlogger_1_sdspi_1_sdspi.c **** 		if ((send_cmd(CMD24, sector) == 0)	/* WRITE_BLOCK */
 500:.\Generated_Source\PSoC5/sdlogger_1_sdspi_1_sdspi.c **** 			&& xmit_datablock(buff, 0xFE))
 501:.\Generated_Source\PSoC5/sdlogger_1_sdspi_1_sdspi.c **** 			count = 0;
ARM GAS  C:\Users\SUZUKI~1\AppData\Local\Temp\ccWKYO9D.s 			page 11


 502:.\Generated_Source\PSoC5/sdlogger_1_sdspi_1_sdspi.c **** 	}
 503:.\Generated_Source\PSoC5/sdlogger_1_sdspi_1_sdspi.c **** 	else {				/* Multiple block write */
 504:.\Generated_Source\PSoC5/sdlogger_1_sdspi_1_sdspi.c **** 		if (CardType & CT_SDC) send_cmd(ACMD23, count);
 505:.\Generated_Source\PSoC5/sdlogger_1_sdspi_1_sdspi.c **** 		if (send_cmd(CMD25, sector) == 0) {	/* WRITE_MULTIPLE_BLOCK */
 506:.\Generated_Source\PSoC5/sdlogger_1_sdspi_1_sdspi.c **** 			do {
 507:.\Generated_Source\PSoC5/sdlogger_1_sdspi_1_sdspi.c **** 				if (!xmit_datablock(buff, 0xFC)) break;
 508:.\Generated_Source\PSoC5/sdlogger_1_sdspi_1_sdspi.c **** 				buff += 512;
 509:.\Generated_Source\PSoC5/sdlogger_1_sdspi_1_sdspi.c **** 			} while (--count);
 510:.\Generated_Source\PSoC5/sdlogger_1_sdspi_1_sdspi.c **** 			if (!xmit_datablock(0, 0xFD))	/* STOP_TRAN token */
 511:.\Generated_Source\PSoC5/sdlogger_1_sdspi_1_sdspi.c **** 				count = 1;
 512:.\Generated_Source\PSoC5/sdlogger_1_sdspi_1_sdspi.c **** 		}
 513:.\Generated_Source\PSoC5/sdlogger_1_sdspi_1_sdspi.c **** 	}
 514:.\Generated_Source\PSoC5/sdlogger_1_sdspi_1_sdspi.c **** 	deselect();
 515:.\Generated_Source\PSoC5/sdlogger_1_sdspi_1_sdspi.c **** 
 516:.\Generated_Source\PSoC5/sdlogger_1_sdspi_1_sdspi.c **** 	return count ? RES_ERROR : RES_OK;
 517:.\Generated_Source\PSoC5/sdlogger_1_sdspi_1_sdspi.c **** }
 518:.\Generated_Source\PSoC5/sdlogger_1_sdspi_1_sdspi.c **** #endif /* _READONLY */
 519:.\Generated_Source\PSoC5/sdlogger_1_sdspi_1_sdspi.c **** 
 520:.\Generated_Source\PSoC5/sdlogger_1_sdspi_1_sdspi.c **** 
 521:.\Generated_Source\PSoC5/sdlogger_1_sdspi_1_sdspi.c **** 
 522:.\Generated_Source\PSoC5/sdlogger_1_sdspi_1_sdspi.c **** /*-----------------------------------------------------------------------*/
 523:.\Generated_Source\PSoC5/sdlogger_1_sdspi_1_sdspi.c **** /* Miscellaneous Functions                                               */
 524:.\Generated_Source\PSoC5/sdlogger_1_sdspi_1_sdspi.c **** /*-----------------------------------------------------------------------*/
 525:.\Generated_Source\PSoC5/sdlogger_1_sdspi_1_sdspi.c **** 
 526:.\Generated_Source\PSoC5/sdlogger_1_sdspi_1_sdspi.c **** DRESULT disk_ioctl (
 527:.\Generated_Source\PSoC5/sdlogger_1_sdspi_1_sdspi.c **** 	BYTE drv,		/* Physical drive nmuber (0) */
 528:.\Generated_Source\PSoC5/sdlogger_1_sdspi_1_sdspi.c **** 	BYTE ctrl,		/* Control code */
 529:.\Generated_Source\PSoC5/sdlogger_1_sdspi_1_sdspi.c **** 	void *buff		/* Buffer to send/receive data block */
 530:.\Generated_Source\PSoC5/sdlogger_1_sdspi_1_sdspi.c **** )
 531:.\Generated_Source\PSoC5/sdlogger_1_sdspi_1_sdspi.c **** {
 532:.\Generated_Source\PSoC5/sdlogger_1_sdspi_1_sdspi.c **** 	DRESULT res;
 533:.\Generated_Source\PSoC5/sdlogger_1_sdspi_1_sdspi.c **** 	BYTE n, csd[16], *ptr = buff;
 534:.\Generated_Source\PSoC5/sdlogger_1_sdspi_1_sdspi.c **** 	DWORD csize;
 535:.\Generated_Source\PSoC5/sdlogger_1_sdspi_1_sdspi.c **** 
 536:.\Generated_Source\PSoC5/sdlogger_1_sdspi_1_sdspi.c **** 
 537:.\Generated_Source\PSoC5/sdlogger_1_sdspi_1_sdspi.c **** 	if (drv) return RES_PARERR;
 538:.\Generated_Source\PSoC5/sdlogger_1_sdspi_1_sdspi.c **** 	if (Stat & STA_NOINIT) return RES_NOTRDY;
 539:.\Generated_Source\PSoC5/sdlogger_1_sdspi_1_sdspi.c **** 
 540:.\Generated_Source\PSoC5/sdlogger_1_sdspi_1_sdspi.c **** 	res = RES_ERROR;
 541:.\Generated_Source\PSoC5/sdlogger_1_sdspi_1_sdspi.c **** 	switch (ctrl) {
 542:.\Generated_Source\PSoC5/sdlogger_1_sdspi_1_sdspi.c **** 		case CTRL_SYNC :	/* Flush dirty buffer if present */
 543:.\Generated_Source\PSoC5/sdlogger_1_sdspi_1_sdspi.c **** 			if (select()) {
 544:.\Generated_Source\PSoC5/sdlogger_1_sdspi_1_sdspi.c **** 				deselect();
 545:.\Generated_Source\PSoC5/sdlogger_1_sdspi_1_sdspi.c **** 				res = RES_OK;
 546:.\Generated_Source\PSoC5/sdlogger_1_sdspi_1_sdspi.c **** 			}
 547:.\Generated_Source\PSoC5/sdlogger_1_sdspi_1_sdspi.c **** 			break;
 548:.\Generated_Source\PSoC5/sdlogger_1_sdspi_1_sdspi.c **** 
 549:.\Generated_Source\PSoC5/sdlogger_1_sdspi_1_sdspi.c **** 		case GET_SECTOR_COUNT :	/* Get number of sectors on the disk (WORD) */
 550:.\Generated_Source\PSoC5/sdlogger_1_sdspi_1_sdspi.c **** 			if ((send_cmd(CMD9, 0) == 0) && rcvr_datablock(csd, 16)) {
 551:.\Generated_Source\PSoC5/sdlogger_1_sdspi_1_sdspi.c **** 				if ((csd[0] >> 6) == 1) {	/* SDv2? */
 552:.\Generated_Source\PSoC5/sdlogger_1_sdspi_1_sdspi.c **** 					csize = csd[9] + ((WORD)csd[8] << 8) + 1;
 553:.\Generated_Source\PSoC5/sdlogger_1_sdspi_1_sdspi.c **** 					*(DWORD*)buff = (DWORD)csize << 10;
 554:.\Generated_Source\PSoC5/sdlogger_1_sdspi_1_sdspi.c **** 				} else {					/* SDv1 or MMCv2 */
 555:.\Generated_Source\PSoC5/sdlogger_1_sdspi_1_sdspi.c **** 					n = (csd[5] & 15) + ((csd[10] & 128) >> 7) + ((csd[9] & 3) << 1) + 2;
 556:.\Generated_Source\PSoC5/sdlogger_1_sdspi_1_sdspi.c **** 					csize = (csd[8] >> 6) + ((WORD)csd[7] << 2) + ((WORD)(csd[6] & 3) << 10) + 1;
 557:.\Generated_Source\PSoC5/sdlogger_1_sdspi_1_sdspi.c **** 					*(DWORD*)buff = (DWORD)csize << (n - 9);
 558:.\Generated_Source\PSoC5/sdlogger_1_sdspi_1_sdspi.c **** 				}
ARM GAS  C:\Users\SUZUKI~1\AppData\Local\Temp\ccWKYO9D.s 			page 12


 559:.\Generated_Source\PSoC5/sdlogger_1_sdspi_1_sdspi.c **** 				res = RES_OK;
 560:.\Generated_Source\PSoC5/sdlogger_1_sdspi_1_sdspi.c **** 			}
 561:.\Generated_Source\PSoC5/sdlogger_1_sdspi_1_sdspi.c **** 			break;
 562:.\Generated_Source\PSoC5/sdlogger_1_sdspi_1_sdspi.c **** 
 563:.\Generated_Source\PSoC5/sdlogger_1_sdspi_1_sdspi.c **** 		case GET_SECTOR_SIZE :	/* Get sectors on the disk (WORD) */
 564:.\Generated_Source\PSoC5/sdlogger_1_sdspi_1_sdspi.c **** 			*(WORD*)buff = 512;
 565:.\Generated_Source\PSoC5/sdlogger_1_sdspi_1_sdspi.c **** 			res = RES_OK;
 566:.\Generated_Source\PSoC5/sdlogger_1_sdspi_1_sdspi.c **** 			break;
 567:.\Generated_Source\PSoC5/sdlogger_1_sdspi_1_sdspi.c **** 
 568:.\Generated_Source\PSoC5/sdlogger_1_sdspi_1_sdspi.c **** 		case GET_BLOCK_SIZE :	/* Get erase block size in unit of sectors (DWORD) */
 569:.\Generated_Source\PSoC5/sdlogger_1_sdspi_1_sdspi.c **** 			if (CardType & CT_SD2) {	/* SDv2? */
 570:.\Generated_Source\PSoC5/sdlogger_1_sdspi_1_sdspi.c **** 				if (send_cmd(ACMD13, 0) == 0) {		/* Read SD status */
 571:.\Generated_Source\PSoC5/sdlogger_1_sdspi_1_sdspi.c **** 					rcvr_spi();
 572:.\Generated_Source\PSoC5/sdlogger_1_sdspi_1_sdspi.c **** 					if (rcvr_datablock(csd, 16)) {				/* Read partial block */
 573:.\Generated_Source\PSoC5/sdlogger_1_sdspi_1_sdspi.c **** 						for (n = 64 - 16; n; n--) rcvr_spi();	/* Purge trailing data */
 574:.\Generated_Source\PSoC5/sdlogger_1_sdspi_1_sdspi.c **** 						*(DWORD*)buff = 16UL << (csd[10] >> 4);
 575:.\Generated_Source\PSoC5/sdlogger_1_sdspi_1_sdspi.c **** 						res = RES_OK;
 576:.\Generated_Source\PSoC5/sdlogger_1_sdspi_1_sdspi.c **** 					}
 577:.\Generated_Source\PSoC5/sdlogger_1_sdspi_1_sdspi.c **** 				}
 578:.\Generated_Source\PSoC5/sdlogger_1_sdspi_1_sdspi.c **** 			} else {					/* SDv1 or MMCv3 */
 579:.\Generated_Source\PSoC5/sdlogger_1_sdspi_1_sdspi.c **** 				if ((send_cmd(CMD9, 0) == 0) && rcvr_datablock(csd, 16)) {	/* Read CSD */
 580:.\Generated_Source\PSoC5/sdlogger_1_sdspi_1_sdspi.c **** 					if (CardType & CT_SD1) {	/* SDv1 */
 581:.\Generated_Source\PSoC5/sdlogger_1_sdspi_1_sdspi.c **** 						*(DWORD*)buff = (((csd[10] & 63) << 1) + ((WORD)(csd[11] & 128) >> 7) + 1) << ((csd[13] >> 6)
 582:.\Generated_Source\PSoC5/sdlogger_1_sdspi_1_sdspi.c **** 					} else {					/* MMCv3 */
 583:.\Generated_Source\PSoC5/sdlogger_1_sdspi_1_sdspi.c **** 						*(DWORD*)buff = ((WORD)((csd[10] & 124) >> 2) + 1) * (((csd[11] & 3) << 3) + ((csd[11] & 224)
 584:.\Generated_Source\PSoC5/sdlogger_1_sdspi_1_sdspi.c **** 					}
 585:.\Generated_Source\PSoC5/sdlogger_1_sdspi_1_sdspi.c **** 					res = RES_OK;
 586:.\Generated_Source\PSoC5/sdlogger_1_sdspi_1_sdspi.c **** 				}
 587:.\Generated_Source\PSoC5/sdlogger_1_sdspi_1_sdspi.c **** 			}
 588:.\Generated_Source\PSoC5/sdlogger_1_sdspi_1_sdspi.c **** 			break;
 589:.\Generated_Source\PSoC5/sdlogger_1_sdspi_1_sdspi.c **** 
 590:.\Generated_Source\PSoC5/sdlogger_1_sdspi_1_sdspi.c **** 		case MMC_GET_TYPE :		/* Get card type flags (1 byte) */
 591:.\Generated_Source\PSoC5/sdlogger_1_sdspi_1_sdspi.c **** 			*ptr = CardType;
 592:.\Generated_Source\PSoC5/sdlogger_1_sdspi_1_sdspi.c **** 			res = RES_OK;
 593:.\Generated_Source\PSoC5/sdlogger_1_sdspi_1_sdspi.c **** 			break;
 594:.\Generated_Source\PSoC5/sdlogger_1_sdspi_1_sdspi.c **** 
 595:.\Generated_Source\PSoC5/sdlogger_1_sdspi_1_sdspi.c **** 		case MMC_GET_CSD :	/* Receive CSD as a data block (16 bytes) */
 596:.\Generated_Source\PSoC5/sdlogger_1_sdspi_1_sdspi.c **** 			if ((send_cmd(CMD9, 0) == 0)	/* READ_CSD */
 597:.\Generated_Source\PSoC5/sdlogger_1_sdspi_1_sdspi.c **** 				&& rcvr_datablock(buff, 16))
 598:.\Generated_Source\PSoC5/sdlogger_1_sdspi_1_sdspi.c **** 				res = RES_OK;
 599:.\Generated_Source\PSoC5/sdlogger_1_sdspi_1_sdspi.c **** 			break;
 600:.\Generated_Source\PSoC5/sdlogger_1_sdspi_1_sdspi.c **** 
 601:.\Generated_Source\PSoC5/sdlogger_1_sdspi_1_sdspi.c **** 		case MMC_GET_CID :	/* Receive CID as a data block (16 bytes) */
 602:.\Generated_Source\PSoC5/sdlogger_1_sdspi_1_sdspi.c **** 			if ((send_cmd(CMD10, 0) == 0)	/* READ_CID */
 603:.\Generated_Source\PSoC5/sdlogger_1_sdspi_1_sdspi.c **** 				&& rcvr_datablock(buff, 16))
 604:.\Generated_Source\PSoC5/sdlogger_1_sdspi_1_sdspi.c **** 				res = RES_OK;
 605:.\Generated_Source\PSoC5/sdlogger_1_sdspi_1_sdspi.c **** 			break;
 606:.\Generated_Source\PSoC5/sdlogger_1_sdspi_1_sdspi.c **** 
 607:.\Generated_Source\PSoC5/sdlogger_1_sdspi_1_sdspi.c **** 		case MMC_GET_OCR :	/* Receive OCR as an R3 resp (4 bytes) */
 608:.\Generated_Source\PSoC5/sdlogger_1_sdspi_1_sdspi.c **** 			if (send_cmd(CMD58, 0) == 0) {	/* READ_OCR */
 609:.\Generated_Source\PSoC5/sdlogger_1_sdspi_1_sdspi.c **** 				for (n = 0; n < 4; n++)
 610:.\Generated_Source\PSoC5/sdlogger_1_sdspi_1_sdspi.c **** 					*((BYTE*)buff+n) = rcvr_spi();
 611:.\Generated_Source\PSoC5/sdlogger_1_sdspi_1_sdspi.c **** 				res = RES_OK;
 612:.\Generated_Source\PSoC5/sdlogger_1_sdspi_1_sdspi.c **** 			}
 613:.\Generated_Source\PSoC5/sdlogger_1_sdspi_1_sdspi.c **** 			break;
 614:.\Generated_Source\PSoC5/sdlogger_1_sdspi_1_sdspi.c **** 
 615:.\Generated_Source\PSoC5/sdlogger_1_sdspi_1_sdspi.c **** 		case MMC_GET_SDSTAT :	/* Receive SD statsu as a data block (64 bytes) */
ARM GAS  C:\Users\SUZUKI~1\AppData\Local\Temp\ccWKYO9D.s 			page 13


 616:.\Generated_Source\PSoC5/sdlogger_1_sdspi_1_sdspi.c **** 			if (send_cmd(ACMD13, 0) == 0) {	/* SD_STATUS */
 617:.\Generated_Source\PSoC5/sdlogger_1_sdspi_1_sdspi.c **** 				rcvr_spi();
 618:.\Generated_Source\PSoC5/sdlogger_1_sdspi_1_sdspi.c **** 				if (rcvr_datablock(buff, 64))
 619:.\Generated_Source\PSoC5/sdlogger_1_sdspi_1_sdspi.c **** 					res = RES_OK;
 620:.\Generated_Source\PSoC5/sdlogger_1_sdspi_1_sdspi.c **** 			}
 621:.\Generated_Source\PSoC5/sdlogger_1_sdspi_1_sdspi.c **** 			break;
 622:.\Generated_Source\PSoC5/sdlogger_1_sdspi_1_sdspi.c **** 
 623:.\Generated_Source\PSoC5/sdlogger_1_sdspi_1_sdspi.c **** 		default:
 624:.\Generated_Source\PSoC5/sdlogger_1_sdspi_1_sdspi.c **** 			res = RES_PARERR;
 625:.\Generated_Source\PSoC5/sdlogger_1_sdspi_1_sdspi.c **** 	}
 626:.\Generated_Source\PSoC5/sdlogger_1_sdspi_1_sdspi.c **** 
 627:.\Generated_Source\PSoC5/sdlogger_1_sdspi_1_sdspi.c **** 	deselect();
 628:.\Generated_Source\PSoC5/sdlogger_1_sdspi_1_sdspi.c **** 
 629:.\Generated_Source\PSoC5/sdlogger_1_sdspi_1_sdspi.c **** 	return res;
 630:.\Generated_Source\PSoC5/sdlogger_1_sdspi_1_sdspi.c **** }
 631:.\Generated_Source\PSoC5/sdlogger_1_sdspi_1_sdspi.c **** 
 632:.\Generated_Source\PSoC5/sdlogger_1_sdspi_1_sdspi.c **** 
 633:.\Generated_Source\PSoC5/sdlogger_1_sdspi_1_sdspi.c **** 
 634:.\Generated_Source\PSoC5/sdlogger_1_sdspi_1_sdspi.c **** /*-----------------------------------------------------------------------*/
 635:.\Generated_Source\PSoC5/sdlogger_1_sdspi_1_sdspi.c **** /* Device Timer Interrupt Procedure  (Platform dependent)                */
 636:.\Generated_Source\PSoC5/sdlogger_1_sdspi_1_sdspi.c **** /*-----------------------------------------------------------------------*/
 637:.\Generated_Source\PSoC5/sdlogger_1_sdspi_1_sdspi.c **** /* This function must be called in period of 1ms                         */
 638:.\Generated_Source\PSoC5/sdlogger_1_sdspi_1_sdspi.c **** CY_ISR(disk_timerproc)
 639:.\Generated_Source\PSoC5/sdlogger_1_sdspi_1_sdspi.c **** //void disk_timerproc (void)
 640:.\Generated_Source\PSoC5/sdlogger_1_sdspi_1_sdspi.c **** {
  66              		.loc 1 640 0
  67              		.cfi_startproc
  68              		@ args = 0, pretend = 0, frame = 0
  69              		@ frame_needed = 0, uses_anonymous_args = 0
  70 0000 38B5     		push	{r3, r4, r5, lr}
  71              	.LCFI0:
  72              		.cfi_def_cfa_offset 16
 641:.\Generated_Source\PSoC5/sdlogger_1_sdspi_1_sdspi.c **** 	static int32 pv;
 642:.\Generated_Source\PSoC5/sdlogger_1_sdspi_1_sdspi.c **** 	int32 p;
 643:.\Generated_Source\PSoC5/sdlogger_1_sdspi_1_sdspi.c **** 	BYTE s;
 644:.\Generated_Source\PSoC5/sdlogger_1_sdspi_1_sdspi.c **** 	UINT n;
 645:.\Generated_Source\PSoC5/sdlogger_1_sdspi_1_sdspi.c **** 
 646:.\Generated_Source\PSoC5/sdlogger_1_sdspi_1_sdspi.c **** 	n = SDTimer1;						/* 1000Hz decrement timer */
  73              		.loc 1 646 0
  74 0002 124B     		ldr	r3, .L17
  75              		.cfi_offset 14, -4
  76              		.cfi_offset 5, -8
  77              		.cfi_offset 4, -12
  78              		.cfi_offset 3, -16
  79 0004 1A68     		ldr	r2, [r3, #0]
  80              	.LVL4:
 647:.\Generated_Source\PSoC5/sdlogger_1_sdspi_1_sdspi.c **** 	if (n) SDTimer1 = --n;
  81              		.loc 1 647 0
  82 0006 0AB1     		cbz	r2, .L9
  83 0008 013A     		subs	r2, r2, #1
  84              	.LVL5:
  85 000a 1A60     		str	r2, [r3, #0]
  86              	.L9:
 648:.\Generated_Source\PSoC5/sdlogger_1_sdspi_1_sdspi.c **** 	n = SDTimer2;
  87              		.loc 1 648 0
  88 000c 0F4B     		ldr	r3, .L17
  89 000e 5A68     		ldr	r2, [r3, #4]
ARM GAS  C:\Users\SUZUKI~1\AppData\Local\Temp\ccWKYO9D.s 			page 14


  90              	.LVL6:
 649:.\Generated_Source\PSoC5/sdlogger_1_sdspi_1_sdspi.c **** 	if (n) SDTimer2 = --n;
  91              		.loc 1 649 0
  92 0010 0AB1     		cbz	r2, .L10
  93 0012 013A     		subs	r2, r2, #1
  94              	.LVL7:
  95 0014 5A60     		str	r2, [r3, #4]
  96              	.L10:
 650:.\Generated_Source\PSoC5/sdlogger_1_sdspi_1_sdspi.c **** 	
 651:.\Generated_Source\PSoC5/sdlogger_1_sdspi_1_sdspi.c **** 	p = pv;
  97              		.loc 1 651 0
  98 0016 0D4D     		ldr	r5, .L17
  99 0018 AC68     		ldr	r4, [r5, #8]
 100              	.LVL8:
 652:.\Generated_Source\PSoC5/sdlogger_1_sdspi_1_sdspi.c **** 	pv = sdlogger_1_sdspi_1_CD_Status_Read();	/* Sample socket switch */
 101              		.loc 1 652 0
 102 001a FFF7FEFF 		bl	sdlogger_1_sdspi_1_CD_Status_Read
 103              	.LVL9:
 653:.\Generated_Source\PSoC5/sdlogger_1_sdspi_1_sdspi.c **** 
 654:.\Generated_Source\PSoC5/sdlogger_1_sdspi_1_sdspi.c **** 	if (p == pv) {						/* Have contacts stabled? */
 104              		.loc 1 654 0
 105 001e 8442     		cmp	r4, r0
 106              		.loc 1 652 0
 107 0020 A860     		str	r0, [r5, #8]
 108              		.loc 1 654 0
 109 0022 11D1     		bne	.L16
 655:.\Generated_Source\PSoC5/sdlogger_1_sdspi_1_sdspi.c **** 		s = Stat;
 110              		.loc 1 655 0
 111 0024 0A4B     		ldr	r3, .L17+4
 656:.\Generated_Source\PSoC5/sdlogger_1_sdspi_1_sdspi.c **** 		if (p & SOCKWP) {				/* WP is H (write protected) */
 112              		.loc 1 656 0
 113 0026 14F0020F 		tst	r4, #2
 114              		.loc 1 655 0
 115 002a 1B78     		ldrb	r3, [r3, #0]	@ zero_extendqisi2
 657:.\Generated_Source\PSoC5/sdlogger_1_sdspi_1_sdspi.c **** 			s |= STA_PROTECT;
 658:.\Generated_Source\PSoC5/sdlogger_1_sdspi_1_sdspi.c **** 		} else {						/* WP is L (write enabled) */
 659:.\Generated_Source\PSoC5/sdlogger_1_sdspi_1_sdspi.c **** 			s &= ~STA_PROTECT;
 660:.\Generated_Source\PSoC5/sdlogger_1_sdspi_1_sdspi.c **** 		}
 661:.\Generated_Source\PSoC5/sdlogger_1_sdspi_1_sdspi.c **** 		if (p & SOCKINS) {				/* INS = H (Socket empty) */
 662:.\Generated_Source\PSoC5/sdlogger_1_sdspi_1_sdspi.c **** 			s |= (STA_NODISK | STA_NOINIT);
 663:.\Generated_Source\PSoC5/sdlogger_1_sdspi_1_sdspi.c **** //			UART_1_PutChar('E');
 664:.\Generated_Source\PSoC5/sdlogger_1_sdspi_1_sdspi.c **** 		} else {						/* INS = L (Card inserted) */
 665:.\Generated_Source\PSoC5/sdlogger_1_sdspi_1_sdspi.c **** 			s &= ~STA_NODISK;
 666:.\Generated_Source\PSoC5/sdlogger_1_sdspi_1_sdspi.c **** //			UART_1_PutChar('I');
 667:.\Generated_Source\PSoC5/sdlogger_1_sdspi_1_sdspi.c **** 		}
 668:.\Generated_Source\PSoC5/sdlogger_1_sdspi_1_sdspi.c **** 		Stat = s;
 116              		.loc 1 668 0
 117 002c 084A     		ldr	r2, .L17+4
 118              		.loc 1 657 0
 119 002e 14BF     		ite	ne
 120 0030 43F00403 		orrne	r3, r3, #4
 121              	.LVL10:
 122              		.loc 1 659 0
 123 0034 03F0FB03 		andeq	r3, r3, #251
 124              	.LVL11:
 125              		.loc 1 661 0
 126 0038 14F0010F 		tst	r4, #1
ARM GAS  C:\Users\SUZUKI~1\AppData\Local\Temp\ccWKYO9D.s 			page 15


 127              		.loc 1 662 0
 128 003c 14BF     		ite	ne
 129 003e 43F00303 		orrne	r3, r3, #3
 130              	.LVL12:
 131              		.loc 1 665 0
 132 0042 03F0FD03 		andeq	r3, r3, #253
 133              	.LVL13:
 134              		.loc 1 668 0
 135 0046 1370     		strb	r3, [r2, #0]
 136              	.L16:
 137 0048 38BD     		pop	{r3, r4, r5, pc}
 138              	.L18:
 139 004a 00BF     		.align	2
 140              	.L17:
 141 004c 00000000 		.word	.LANCHOR1
 142 0050 00000000 		.word	.LANCHOR0
 143              		.cfi_endproc
 144              	.LFE46:
 145              		.size	disk_timerproc, .-disk_timerproc
 146              		.section	.text.xchg_spi,"ax",%progbits
 147              		.align	1
 148              		.thumb
 149              		.thumb_func
 150              		.type	xchg_spi, %function
 151              	xchg_spi:
 152              	.LFB32:
 153              		.loc 1 128 0
 154              		.cfi_startproc
 155              		@ args = 0, pretend = 0, frame = 0
 156              		@ frame_needed = 0, uses_anonymous_args = 0
 157              	.LVL14:
 158 0000 10B5     		push	{r4, lr}
 159              	.LCFI1:
 160              		.cfi_def_cfa_offset 8
 161              		.loc 1 129 0
 162              		.cfi_offset 14, -4
 163              		.cfi_offset 4, -8
 164 0002 FFF7FEFF 		bl	sdlogger_1_sdspi_1_SPI_WriteTxData
 165              	.LVL15:
 166              	.L20:
 167              		.loc 1 130 0
 168 0006 FFF7FEFF 		bl	sdlogger_1_sdspi_1_SPI_ReadStatus
 169 000a 10F0080F 		tst	r0, #8
 170 000e FAD0     		beq	.L20
 171              		.loc 1 132 0
 172 0010 BDE81040 		pop	{r4, lr}
 173              		.loc 1 131 0
 174 0014 FFF7FEBF 		b	sdlogger_1_sdspi_1_SPI_ReadRxData
 175              		.cfi_endproc
 176              	.LFE32:
 177              		.size	xchg_spi, .-xchg_spi
 178              		.section	.text.wait_ready,"ax",%progbits
 179              		.align	1
 180              		.thumb
 181              		.thumb_func
 182              		.type	wait_ready, %function
 183              	wait_ready:
ARM GAS  C:\Users\SUZUKI~1\AppData\Local\Temp\ccWKYO9D.s 			page 16


 184              	.LFB33:
 185              		.loc 1 142 0
 186              		.cfi_startproc
 187              		@ args = 0, pretend = 0, frame = 0
 188              		@ frame_needed = 0, uses_anonymous_args = 0
 189 0000 08B5     		push	{r3, lr}
 190              	.LCFI2:
 191              		.cfi_def_cfa_offset 8
 192              		.loc 1 145 0
 193 0002 084B     		ldr	r3, .L26
 194              		.cfi_offset 14, -4
 195              		.cfi_offset 3, -8
 196 0004 4FF4FA72 		mov	r2, #500
 197 0008 5A60     		str	r2, [r3, #4]
 198              		.loc 1 146 0
 199 000a FF20     		movs	r0, #255
 200 000c FFF7FEFF 		bl	xchg_spi
 201              	.LVL16:
 202              	.L24:
 203              		.loc 1 149 0
 204 0010 FF20     		movs	r0, #255
 205              	.LVL17:
 206 0012 FFF7FEFF 		bl	xchg_spi
 207              		.loc 1 151 0
 208 0016 FF28     		cmp	r0, #255
 209              	.LVL18:
 210 0018 03D0     		beq	.L23
 211 001a 024B     		ldr	r3, .L26
 212 001c 5B68     		ldr	r3, [r3, #4]
 213 001e 002B     		cmp	r3, #0
 214 0020 F6D1     		bne	.L24
 215              	.L23:
 216              	.LVL19:
 217              		.loc 1 153 0
 218 0022 08BD     		pop	{r3, pc}
 219              	.L27:
 220              		.align	2
 221              	.L26:
 222 0024 00000000 		.word	.LANCHOR1
 223              		.cfi_endproc
 224              	.LFE33:
 225              		.size	wait_ready, .-wait_ready
 226              		.section	.text.deselect,"ax",%progbits
 227              		.align	1
 228              		.thumb
 229              		.thumb_func
 230              		.type	deselect, %function
 231              	deselect:
 232              	.LFB34:
 233              		.loc 1 162 0
 234              		.cfi_startproc
 235              		@ args = 0, pretend = 0, frame = 0
 236              		@ frame_needed = 0, uses_anonymous_args = 0
 237              		.loc 1 163 0
 238 0000 0120     		movs	r0, #1
 239              		.loc 1 162 0
 240 0002 10B5     		push	{r4, lr}
ARM GAS  C:\Users\SUZUKI~1\AppData\Local\Temp\ccWKYO9D.s 			page 17


 241              	.LCFI3:
 242              		.cfi_def_cfa_offset 8
 243              		.loc 1 163 0
 244              		.cfi_offset 14, -4
 245              		.cfi_offset 4, -8
 246 0004 FFF7FEFF 		bl	sdlogger_1_sdspi_1_CS_Control_Write
 247              		.loc 1 164 0
 248 0008 FF20     		movs	r0, #255
 249              		.loc 1 165 0
 250 000a BDE81040 		pop	{r4, lr}
 251              		.loc 1 164 0
 252 000e FFF7FEBF 		b	xchg_spi
 253              		.cfi_endproc
 254              	.LFE34:
 255              		.size	deselect, .-deselect
 256              		.section	.text.select,"ax",%progbits
 257              		.align	1
 258              		.thumb
 259              		.thumb_func
 260              		.type	select, %function
 261              	select:
 262              	.LFB35:
 263              		.loc 1 175 0
 264              		.cfi_startproc
 265              		@ args = 0, pretend = 0, frame = 0
 266              		@ frame_needed = 0, uses_anonymous_args = 0
 267              		.loc 1 176 0
 268 0000 0020     		movs	r0, #0
 269              		.loc 1 175 0
 270 0002 08B5     		push	{r3, lr}
 271              	.LCFI4:
 272              		.cfi_def_cfa_offset 8
 273              		.loc 1 176 0
 274              		.cfi_offset 14, -4
 275              		.cfi_offset 3, -8
 276 0004 FFF7FEFF 		bl	sdlogger_1_sdspi_1_CS_Control_Write
 277              		.loc 1 178 0
 278 0008 FFF7FEFF 		bl	wait_ready
 279 000c FF28     		cmp	r0, #255
 280 000e 01D1     		bne	.L31
 281 0010 FE38     		subs	r0, r0, #254
 282 0012 08BD     		pop	{r3, pc}
 283              	.L31:
 284              		.loc 1 179 0
 285 0014 FFF7FEFF 		bl	deselect
 286 0018 0020     		movs	r0, #0
 287              		.loc 1 184 0
 288 001a 08BD     		pop	{r3, pc}
 289              		.cfi_endproc
 290              	.LFE35:
 291              		.size	select, .-select
 292              		.section	.text.send_cmd,"ax",%progbits
 293              		.align	1
 294              		.thumb
 295              		.thumb_func
 296              		.type	send_cmd, %function
 297              	send_cmd:
ARM GAS  C:\Users\SUZUKI~1\AppData\Local\Temp\ccWKYO9D.s 			page 18


 298              	.LFB40:
 299              		.loc 1 291 0
 300              		.cfi_startproc
 301              		@ args = 0, pretend = 0, frame = 0
 302              		@ frame_needed = 0, uses_anonymous_args = 0
 303              	.LVL20:
 304              		.loc 1 294 0
 305 0000 10F0800F 		tst	r0, #128
 306              		.loc 1 291 0
 307 0004 70B5     		push	{r4, r5, r6, lr}
 308              	.LCFI5:
 309              		.cfi_def_cfa_offset 16
 310              		.loc 1 291 0
 311 0006 0446     		mov	r4, r0
 312              		.cfi_offset 14, -4
 313              		.cfi_offset 6, -8
 314              		.cfi_offset 5, -12
 315              		.cfi_offset 4, -16
 316 0008 0D46     		mov	r5, r1
 317              		.loc 1 294 0
 318 000a 26D0     		beq	.L35
 319              	.LVL21:
 320              		.loc 1 299 0
 321 000c FFF7FEFF 		bl	deselect
 322              		.loc 1 300 0
 323 0010 FFF7FEFF 		bl	select
 324 0014 0028     		cmp	r0, #0
 325 0016 51D0     		beq	.L36
 326              		.loc 1 302 0
 327 0018 7720     		movs	r0, #119
 328 001a FFF7FEFF 		bl	xchg_spi
 329              		.loc 1 303 0
 330 001e 0020     		movs	r0, #0
 331 0020 FFF7FEFF 		bl	xchg_spi
 332              		.loc 1 304 0
 333 0024 0020     		movs	r0, #0
 334 0026 FFF7FEFF 		bl	xchg_spi
 335              		.loc 1 305 0
 336 002a 0020     		movs	r0, #0
 337 002c FFF7FEFF 		bl	xchg_spi
 338              		.loc 1 306 0
 339 0030 0020     		movs	r0, #0
 340 0032 FFF7FEFF 		bl	xchg_spi
 341              		.loc 1 307 0
 342 0036 0120     		movs	r0, #1
 343 0038 FFF7FEFF 		bl	xchg_spi
 344 003c 0A26     		movs	r6, #10
 345              	.LVL22:
 346              	.L38:
 347              		.loc 1 312 0
 348 003e FF20     		movs	r0, #255
 349              	.LVL23:
 350 0040 FFF7FEFF 		bl	xchg_spi
 351              		.loc 1 313 0
 352 0044 10F0800F 		tst	r0, #128
 353              	.LVL24:
 354 0048 03D0     		beq	.L37
ARM GAS  C:\Users\SUZUKI~1\AppData\Local\Temp\ccWKYO9D.s 			page 19


 355 004a 013E     		subs	r6, r6, #1
 356              	.LVL25:
 357 004c F6B2     		uxtb	r6, r6
 358              	.LVL26:
 359 004e 002E     		cmp	r6, #0
 360 0050 F5D1     		bne	.L38
 361              	.L37:
 362              		.loc 1 316 0
 363 0052 0128     		cmp	r0, #1
 364 0054 33D8     		bhi	.L39
 365              		.loc 1 296 0
 366 0056 04F07F04 		and	r4, r4, #127
 367              	.LVL27:
 368              	.L35:
 369              		.loc 1 320 0
 370 005a FFF7FEFF 		bl	deselect
 371              	.LVL28:
 372              		.loc 1 321 0
 373 005e FFF7FEFF 		bl	select
 374 0062 58B3     		cbz	r0, .L36
 375              		.loc 1 326 0
 376 0064 44F04000 		orr	r0, r4, #64
 377 0068 FFF7FEFF 		bl	xchg_spi
 378              		.loc 1 327 0
 379 006c 280E     		lsrs	r0, r5, #24
 380 006e FFF7FEFF 		bl	xchg_spi
 381              		.loc 1 328 0
 382 0072 280C     		lsrs	r0, r5, #16
 383 0074 C0B2     		uxtb	r0, r0
 384 0076 FFF7FEFF 		bl	xchg_spi
 385              		.loc 1 329 0
 386 007a 280A     		lsrs	r0, r5, #8
 387 007c C0B2     		uxtb	r0, r0
 388 007e FFF7FEFF 		bl	xchg_spi
 389              		.loc 1 330 0
 390 0082 E8B2     		uxtb	r0, r5
 391 0084 FFF7FEFF 		bl	xchg_spi
 392              		.loc 1 332 0
 393 0088 0CB9     		cbnz	r4, .L40
 394 008a 9520     		movs	r0, #149
 395              	.LVL29:
 396 008c 03E0     		b	.L41
 397              	.LVL30:
 398              	.L40:
 399              		.loc 1 333 0
 400 008e 082C     		cmp	r4, #8
 401 0090 14BF     		ite	ne
 402 0092 0120     		movne	r0, #1
 403 0094 8720     		moveq	r0, #135
 404              	.LVL31:
 405              	.L41:
 406              		.loc 1 334 0
 407 0096 FFF7FEFF 		bl	xchg_spi
 408              	.LVL32:
 409              		.loc 1 336 0
 410 009a 0C2C     		cmp	r4, #12
 411 009c 02D1     		bne	.L46
ARM GAS  C:\Users\SUZUKI~1\AppData\Local\Temp\ccWKYO9D.s 			page 20


 412 009e FF20     		movs	r0, #255
 413 00a0 FFF7FEFF 		bl	xchg_spi
 414              	.L46:
 415 00a4 1424     		movs	r4, #20
 416              	.LVL33:
 417              	.L44:
 418              		.loc 1 339 0
 419 00a6 FF20     		movs	r0, #255
 420              	.LVL34:
 421 00a8 FFF7FEFF 		bl	xchg_spi
 422              		.loc 1 340 0
 423 00ac 10F0800F 		tst	r0, #128
 424              	.LVL35:
 425 00b0 05D0     		beq	.L39
 426 00b2 013C     		subs	r4, r4, #1
 427              	.LVL36:
 428 00b4 E4B2     		uxtb	r4, r4
 429              	.LVL37:
 430 00b6 002C     		cmp	r4, #0
 431 00b8 F5D1     		bne	.L44
 432 00ba 70BD     		pop	{r4, r5, r6, pc}
 433              	.LVL38:
 434              	.L36:
 435 00bc FF20     		movs	r0, #255
 436              	.LVL39:
 437              	.L39:
 438              	.LVL40:
 439              		.loc 1 343 0
 440 00be 70BD     		pop	{r4, r5, r6, pc}
 441              		.cfi_endproc
 442              	.LFE40:
 443              		.size	send_cmd, .-send_cmd
 444              		.section	.text.xmit_datablock,"ax",%progbits
 445              		.align	1
 446              		.thumb
 447              		.thumb_func
 448              		.type	xmit_datablock, %function
 449              	xmit_datablock:
 450              	.LFB39:
 451              		.loc 1 256 0
 452              		.cfi_startproc
 453              		@ args = 0, pretend = 0, frame = 0
 454              		@ frame_needed = 0, uses_anonymous_args = 0
 455              	.LVL41:
 456 0000 38B5     		push	{r3, r4, r5, lr}
 457              	.LCFI6:
 458              		.cfi_def_cfa_offset 16
 459              		.loc 1 256 0
 460 0002 0446     		mov	r4, r0
 461              		.cfi_offset 14, -4
 462              		.cfi_offset 5, -8
 463              		.cfi_offset 4, -12
 464              		.cfi_offset 3, -16
 465 0004 0D46     		mov	r5, r1
 466              		.loc 1 261 0
 467 0006 FFF7FEFF 		bl	wait_ready
 468              	.LVL42:
ARM GAS  C:\Users\SUZUKI~1\AppData\Local\Temp\ccWKYO9D.s 			page 21


 469 000a FF28     		cmp	r0, #255
 470 000c 01D0     		beq	.L48
 471 000e 0020     		movs	r0, #0
 472 0010 38BD     		pop	{r3, r4, r5, pc}
 473              	.L48:
 474              		.loc 1 263 0
 475 0012 2846     		mov	r0, r5
 476 0014 FFF7FEFF 		bl	xchg_spi
 477              		.loc 1 264 0
 478 0018 FD2D     		cmp	r5, #253
 479 001a 01D1     		bne	.L50
 480 001c 0120     		movs	r0, #1
 481 001e 38BD     		pop	{r3, r4, r5, pc}
 482              	.L50:
 483              		.loc 1 252 0
 484 0020 04F50075 		add	r5, r4, #512
 485              	.LVL43:
 486              	.L51:
 487              		.loc 1 266 0
 488 0024 2078     		ldrb	r0, [r4, #0]	@ zero_extendqisi2
 489 0026 FFF7FEFF 		bl	xchg_spi
 490              		.loc 1 267 0
 491 002a 6078     		ldrb	r0, [r4, #1]	@ zero_extendqisi2
 492              		.loc 1 252 0
 493 002c 0234     		adds	r4, r4, #2
 494              		.loc 1 267 0
 495 002e FFF7FEFF 		bl	xchg_spi
 496              		.loc 1 268 0
 497 0032 AC42     		cmp	r4, r5
 498 0034 F6D1     		bne	.L51
 499              		.loc 1 269 0
 500 0036 FF20     		movs	r0, #255
 501 0038 FFF7FEFF 		bl	xchg_spi
 502              		.loc 1 270 0
 503 003c FF20     		movs	r0, #255
 504 003e FFF7FEFF 		bl	xchg_spi
 505              		.loc 1 271 0
 506 0042 FF20     		movs	r0, #255
 507 0044 FFF7FEFF 		bl	xchg_spi
 508 0048 00F01F00 		and	r0, r0, #31
 509 004c 0528     		cmp	r0, #5
 510 004e 14BF     		ite	ne
 511 0050 0020     		movne	r0, #0
 512 0052 0120     		moveq	r0, #1
 513              		.loc 1 277 0
 514 0054 38BD     		pop	{r3, r4, r5, pc}
 515              		.cfi_endproc
 516              	.LFE39:
 517              		.size	xmit_datablock, .-xmit_datablock
 518              		.section	.text.disk_write,"ax",%progbits
 519              		.align	1
 520              		.global	disk_write
 521              		.thumb
 522              		.thumb_func
 523              		.type	disk_write, %function
 524              	disk_write:
 525              	.LFB44:
ARM GAS  C:\Users\SUZUKI~1\AppData\Local\Temp\ccWKYO9D.s 			page 22


 526              		.loc 1 491 0
 527              		.cfi_startproc
 528              		@ args = 0, pretend = 0, frame = 0
 529              		@ frame_needed = 0, uses_anonymous_args = 0
 530              	.LVL44:
 531 0000 70B5     		push	{r4, r5, r6, lr}
 532              	.LCFI7:
 533              		.cfi_def_cfa_offset 16
 534              		.loc 1 491 0
 535 0002 0C46     		mov	r4, r1
 536              		.cfi_offset 14, -4
 537              		.cfi_offset 6, -8
 538              		.cfi_offset 5, -12
 539              		.cfi_offset 4, -16
 540 0004 1546     		mov	r5, r2
 541 0006 1E46     		mov	r6, r3
 542              		.loc 1 492 0
 543 0008 0028     		cmp	r0, #0
 544 000a 48D1     		bne	.L54
 545              	.LVL45:
 546 000c 002B     		cmp	r3, #0
 547 000e 46D0     		beq	.L54
 548              	.LVL46:
 549              		.loc 1 493 0
 550 0010 244B     		ldr	r3, .L65
 551              	.LVL47:
 552 0012 1A78     		ldrb	r2, [r3, #0]	@ zero_extendqisi2
 553 0014 12F0010F 		tst	r2, #1
 554 0018 01D0     		beq	.L55
 555 001a 0330     		adds	r0, r0, #3
 556              	.LVL48:
 557 001c 70BD     		pop	{r4, r5, r6, pc}
 558              	.LVL49:
 559              	.L55:
 560              		.loc 1 494 0
 561 001e 1B78     		ldrb	r3, [r3, #0]	@ zero_extendqisi2
 562 0020 13F0040F 		tst	r3, #4
 563 0024 01D0     		beq	.L57
 564 0026 0220     		movs	r0, #2
 565              	.LVL50:
 566 0028 70BD     		pop	{r4, r5, r6, pc}
 567              	.LVL51:
 568              	.L57:
 569              		.loc 1 496 0
 570 002a 1F4B     		ldr	r3, .L65+4
 571 002c DB68     		ldr	r3, [r3, #12]
 572 002e 13F0080F 		tst	r3, #8
 573 0032 08BF     		it	eq
 574 0034 6D02     		lsleq	r5, r5, #9
 575              		.loc 1 498 0
 576 0036 012E     		cmp	r6, #1
 577 0038 0DD1     		bne	.L59
 578              		.loc 1 499 0
 579 003a 1820     		movs	r0, #24
 580              	.LVL52:
 581 003c 2946     		mov	r1, r5
 582 003e FFF7FEFF 		bl	send_cmd
ARM GAS  C:\Users\SUZUKI~1\AppData\Local\Temp\ccWKYO9D.s 			page 23


 583 0042 30BB     		cbnz	r0, .L60
 584              		.loc 1 500 0
 585 0044 2046     		mov	r0, r4
 586 0046 FE21     		movs	r1, #254
 587 0048 FFF7FEFF 		bl	xmit_datablock
 588              		.loc 1 499 0
 589 004c D0F10106 		rsbs	r6, r0, #1
 590 0050 38BF     		it	cc
 591 0052 0026     		movcc	r6, #0
 592              	.LVL53:
 593 0054 1DE0     		b	.L60
 594              	.LVL54:
 595              	.L59:
 596              		.loc 1 504 0
 597 0056 13F0060F 		tst	r3, #6
 598 005a 03D0     		beq	.L61
 599 005c 9720     		movs	r0, #151
 600              	.LVL55:
 601 005e 3146     		mov	r1, r6
 602 0060 FFF7FEFF 		bl	send_cmd
 603              	.LVL56:
 604              	.L61:
 605              		.loc 1 505 0
 606 0064 1920     		movs	r0, #25
 607              	.LVL57:
 608 0066 2946     		mov	r1, r5
 609 0068 FFF7FEFF 		bl	send_cmd
 610 006c 88B9     		cbnz	r0, .L60
 611              	.L63:
 612              		.loc 1 507 0
 613 006e 2046     		mov	r0, r4
 614 0070 FC21     		movs	r1, #252
 615 0072 FFF7FEFF 		bl	xmit_datablock
 616 0076 28B1     		cbz	r0, .L62
 617              		.loc 1 509 0
 618 0078 013E     		subs	r6, r6, #1
 619              	.LVL58:
 620 007a F6B2     		uxtb	r6, r6
 621              	.LVL59:
 622 007c 16B1     		cbz	r6, .L62
 623              		.loc 1 508 0
 624 007e 04F50074 		add	r4, r4, #512
 625 0082 F4E7     		b	.L63
 626              	.L62:
 627              		.loc 1 510 0
 628 0084 0020     		movs	r0, #0
 629 0086 FD21     		movs	r1, #253
 630 0088 FFF7FEFF 		bl	xmit_datablock
 631 008c 0028     		cmp	r0, #0
 632 008e 08BF     		it	eq
 633 0090 0126     		moveq	r6, #1
 634              	.LVL60:
 635              	.L60:
 636              		.loc 1 514 0
 637 0092 FFF7FEFF 		bl	deselect
 638              		.loc 1 516 0
 639 0096 301E     		subs	r0, r6, #0
ARM GAS  C:\Users\SUZUKI~1\AppData\Local\Temp\ccWKYO9D.s 			page 24


 640 0098 18BF     		it	ne
 641 009a 0120     		movne	r0, #1
 642 009c 70BD     		pop	{r4, r5, r6, pc}
 643              	.LVL61:
 644              	.L54:
 645 009e 0420     		movs	r0, #4
 646              	.LVL62:
 647              		.loc 1 517 0
 648 00a0 70BD     		pop	{r4, r5, r6, pc}
 649              	.L66:
 650 00a2 00BF     		.align	2
 651              	.L65:
 652 00a4 00000000 		.word	.LANCHOR0
 653 00a8 00000000 		.word	.LANCHOR1
 654              		.cfi_endproc
 655              	.LFE44:
 656              		.size	disk_write, .-disk_write
 657              		.section	.text.disk_initialize,"ax",%progbits
 658              		.align	1
 659              		.global	disk_initialize
 660              		.thumb
 661              		.thumb_func
 662              		.type	disk_initialize, %function
 663              	disk_initialize:
 664              	.LFB41:
 665              		.loc 1 361 0
 666              		.cfi_startproc
 667              		@ args = 0, pretend = 0, frame = 8
 668              		@ frame_needed = 0, uses_anonymous_args = 0
 669              	.LVL63:
 670 0000 37B5     		push	{r0, r1, r2, r4, r5, lr}
 671              	.LCFI8:
 672              		.cfi_def_cfa_offset 24
 673              	.LVL64:
 674              		.loc 1 365 0
 675 0002 08B1     		cbz	r0, .L68
 676              		.cfi_offset 14, -4
 677              		.cfi_offset 5, -8
 678              		.cfi_offset 4, -12
 679              		.cfi_offset 2, -16
 680              		.cfi_offset 1, -20
 681              		.cfi_offset 0, -24
 682              	.LVL65:
 683 0004 0120     		movs	r0, #1
 684              	.LVL66:
 685 0006 9AE0     		b	.L69
 686              	.LVL67:
 687              	.L68:
 688              		.loc 1 366 0
 689 0008 4D4B     		ldr	r3, .L86
 690 000a 1C78     		ldrb	r4, [r3, #0]	@ zero_extendqisi2
 691 000c 14F00204 		ands	r4, r4, #2
 692 0010 40F09480 		bne	.L85
 693              	.L71:
 694              		.loc 1 370 0
 695 0014 0134     		adds	r4, r4, #1
 696              	.LVL68:
ARM GAS  C:\Users\SUZUKI~1\AppData\Local\Temp\ccWKYO9D.s 			page 25


 697              		.loc 1 372 0
 698 0016 FF20     		movs	r0, #255
 699              	.LVL69:
 700              		.loc 1 370 0
 701 0018 E4B2     		uxtb	r4, r4
 702              	.LVL70:
 703              		.loc 1 372 0
 704 001a FFF7FEFF 		bl	xchg_spi
 705              		.loc 1 370 0
 706 001e 1E2C     		cmp	r4, #30
 707 0020 F8D1     		bne	.L71
 708              		.loc 1 375 0
 709 0022 0020     		movs	r0, #0
 710 0024 0146     		mov	r1, r0
 711 0026 FFF7FEFF 		bl	send_cmd
 712 002a 0128     		cmp	r0, #1
 713 002c 0546     		mov	r5, r0
 714 002e 71D1     		bne	.L72
 715              		.loc 1 378 0
 716 0030 444B     		ldr	r3, .L86+4
 717 0032 4FF47A72 		mov	r2, #1000
 718              		.loc 1 379 0
 719 0036 0820     		movs	r0, #8
 720              		.loc 1 378 0
 721 0038 1A60     		str	r2, [r3, #0]
 722              		.loc 1 379 0
 723 003a 4FF4D571 		mov	r1, #426
 724 003e FFF7FEFF 		bl	send_cmd
 725 0042 0128     		cmp	r0, #1
 726 0044 4AD1     		bne	.L73
 727              		.loc 1 382 0
 728 0046 FE30     		adds	r0, r0, #254
 729 0048 FFF7FEFF 		bl	xchg_spi
 730 004c 8DF80400 		strb	r0, [sp, #4]
 731 0050 FF20     		movs	r0, #255
 732 0052 FFF7FEFF 		bl	xchg_spi
 733 0056 8DF80500 		strb	r0, [sp, #5]
 734 005a FF20     		movs	r0, #255
 735 005c FFF7FEFF 		bl	xchg_spi
 736 0060 8DF80600 		strb	r0, [sp, #6]
 737 0064 FF20     		movs	r0, #255
 738 0066 FFF7FEFF 		bl	xchg_spi
 739              		.loc 1 383 0
 740 006a 9DF80630 		ldrb	r3, [sp, #6]	@ zero_extendqisi2
 741              		.loc 1 382 0
 742 006e 8DF80700 		strb	r0, [sp, #7]
 743              		.loc 1 383 0
 744 0072 012B     		cmp	r3, #1
 745 0074 4ED1     		bne	.L72
 746 0076 AA28     		cmp	r0, #170
 747 0078 4CD1     		bne	.L72
 748              	.L75:
 749              		.loc 1 386 0
 750 007a 324B     		ldr	r3, .L86+4
 751 007c 1B68     		ldr	r3, [r3, #0]
 752 007e 33B1     		cbz	r3, .L74
 753 0080 A920     		movs	r0, #169
ARM GAS  C:\Users\SUZUKI~1\AppData\Local\Temp\ccWKYO9D.s 			page 26


 754 0082 4FF08041 		mov	r1, #1073741824
 755 0086 FFF7FEFF 		bl	send_cmd
 756 008a 0028     		cmp	r0, #0
 757 008c F5D1     		bne	.L75
 758              	.L74:
 759              		.loc 1 387 0
 760 008e 2D4B     		ldr	r3, .L86+4
 761 0090 1B68     		ldr	r3, [r3, #0]
 762 0092 002B     		cmp	r3, #0
 763 0094 3ED0     		beq	.L72
 764 0096 3A20     		movs	r0, #58
 765 0098 0021     		movs	r1, #0
 766 009a FFF7FEFF 		bl	send_cmd
 767 009e 0028     		cmp	r0, #0
 768 00a0 38D1     		bne	.L72
 769              		.loc 1 388 0
 770 00a2 FF30     		adds	r0, r0, #255
 771 00a4 FFF7FEFF 		bl	xchg_spi
 772 00a8 8DF80400 		strb	r0, [sp, #4]
 773 00ac FF20     		movs	r0, #255
 774 00ae FFF7FEFF 		bl	xchg_spi
 775 00b2 8DF80500 		strb	r0, [sp, #5]
 776 00b6 FF20     		movs	r0, #255
 777 00b8 FFF7FEFF 		bl	xchg_spi
 778 00bc 8DF80600 		strb	r0, [sp, #6]
 779 00c0 FF20     		movs	r0, #255
 780 00c2 FFF7FEFF 		bl	xchg_spi
 781              		.loc 1 389 0
 782 00c6 9DF80440 		ldrb	r4, [sp, #4]	@ zero_extendqisi2
 783              	.LVL71:
 784              		.loc 1 388 0
 785 00ca 8DF80700 		strb	r0, [sp, #7]
 786              		.loc 1 389 0
 787 00ce 04F04004 		and	r4, r4, #64
 788 00d2 002C     		cmp	r4, #0
 789 00d4 14BF     		ite	ne
 790 00d6 0C24     		movne	r4, #12
 791 00d8 0424     		moveq	r4, #4
 792              	.LVL72:
 793 00da 1CE0     		b	.L77
 794              	.LVL73:
 795              	.L73:
 796              		.loc 1 396 0
 797 00dc A920     		movs	r0, #169
 798 00de 0021     		movs	r1, #0
 799 00e0 FFF7FEFF 		bl	send_cmd
 800 00e4 0128     		cmp	r0, #1
 801 00e6 01D9     		bls	.L78
 802 00e8 2C46     		mov	r4, r5
 803              	.LVL74:
 804 00ea 01E0     		b	.L79
 805              	.LVL75:
 806              	.L78:
 807 00ec A925     		movs	r5, #169
 808              	.LVL76:
 809 00ee 0224     		movs	r4, #2
 810              	.LVL77:
ARM GAS  C:\Users\SUZUKI~1\AppData\Local\Temp\ccWKYO9D.s 			page 27


 811              	.L79:
 812              		.loc 1 404 0
 813 00f0 144B     		ldr	r3, .L86+4
 814 00f2 1B68     		ldr	r3, [r3, #0]
 815 00f4 2BB1     		cbz	r3, .L80
 816 00f6 2846     		mov	r0, r5
 817 00f8 0021     		movs	r1, #0
 818 00fa FFF7FEFF 		bl	send_cmd
 819 00fe 0028     		cmp	r0, #0
 820 0100 F6D1     		bne	.L79
 821              	.L80:
 822              		.loc 1 405 0
 823 0102 104B     		ldr	r3, .L86+4
 824 0104 1B68     		ldr	r3, [r3, #0]
 825 0106 2BB1     		cbz	r3, .L72
 826 0108 1020     		movs	r0, #16
 827 010a 4FF40071 		mov	r1, #512
 828 010e FFF7FEFF 		bl	send_cmd
 829 0112 00B1     		cbz	r0, .L77
 830              	.LVL78:
 831              	.L72:
 832 0114 0024     		movs	r4, #0
 833              	.LVL79:
 834              	.L77:
 835              		.loc 1 409 0
 836 0116 0B4B     		ldr	r3, .L86+4
 837 0118 094D     		ldr	r5, .L86
 838              	.LVL80:
 839 011a DC60     		str	r4, [r3, #12]
 840              		.loc 1 410 0
 841 011c FFF7FEFF 		bl	deselect
 842              		.loc 1 412 0
 843 0120 1CB1     		cbz	r4, .L81
 844              		.loc 1 415 0
 845 0122 2B78     		ldrb	r3, [r5, #0]	@ zero_extendqisi2
 846 0124 03F0FE03 		and	r3, r3, #254
 847 0128 06E0     		b	.L84
 848              	.L81:
 849              	.LBB6:
 850              	.LBB7:
 851              		.loc 1 203 0
 852 012a FFF7FEFF 		bl	select
 853              		.loc 1 204 0
 854 012e FFF7FEFF 		bl	deselect
 855              		.loc 1 208 0
 856 0132 2B78     		ldrb	r3, [r5, #0]	@ zero_extendqisi2
 857 0134 43F00103 		orr	r3, r3, #1
 858              	.L84:
 859 0138 2B70     		strb	r3, [r5, #0]
 860              	.LBE7:
 861              	.LBE6:
 862              		.loc 1 424 0
 863 013a 014B     		ldr	r3, .L86
 864              	.LVL81:
 865              	.L85:
 866 013c 1878     		ldrb	r0, [r3, #0]	@ zero_extendqisi2
 867              	.LVL82:
ARM GAS  C:\Users\SUZUKI~1\AppData\Local\Temp\ccWKYO9D.s 			page 28


 868              	.L69:
 869              		.loc 1 425 0
 870 013e 3EBD     		pop	{r1, r2, r3, r4, r5, pc}
 871              	.L87:
 872              		.align	2
 873              	.L86:
 874 0140 00000000 		.word	.LANCHOR0
 875 0144 00000000 		.word	.LANCHOR1
 876              		.cfi_endproc
 877              	.LFE41:
 878              		.size	disk_initialize, .-disk_initialize
 879              		.section	.text.rcvr_spi_m,"ax",%progbits
 880              		.align	1
 881              		.thumb
 882              		.thumb_func
 883              		.type	rcvr_spi_m, %function
 884              	rcvr_spi_m:
 885              	.LFB31:
 886              		.loc 1 119 0
 887              		.cfi_startproc
 888              		@ args = 0, pretend = 0, frame = 0
 889              		@ frame_needed = 0, uses_anonymous_args = 0
 890              	.LVL83:
 891 0000 10B5     		push	{r4, lr}
 892              	.LCFI9:
 893              		.cfi_def_cfa_offset 8
 894              		.loc 1 119 0
 895 0002 0446     		mov	r4, r0
 896              		.cfi_offset 14, -4
 897              		.cfi_offset 4, -8
 898              		.loc 1 120 0
 899 0004 FF20     		movs	r0, #255
 900              	.LVL84:
 901 0006 FFF7FEFF 		bl	sdlogger_1_sdspi_1_SPI_WriteTxData
 902              	.L89:
 903              		.loc 1 121 0
 904 000a FFF7FEFF 		bl	sdlogger_1_sdspi_1_SPI_ReadStatus
 905 000e 10F0080F 		tst	r0, #8
 906 0012 FAD0     		beq	.L89
 907              		.loc 1 122 0
 908 0014 FFF7FEFF 		bl	sdlogger_1_sdspi_1_SPI_ReadRxData
 909 0018 2070     		strb	r0, [r4, #0]
 910              		.loc 1 124 0
 911 001a 10BD     		pop	{r4, pc}
 912              		.cfi_endproc
 913              	.LFE31:
 914              		.size	rcvr_spi_m, .-rcvr_spi_m
 915              		.section	.text.rcvr_datablock,"ax",%progbits
 916              		.align	1
 917              		.thumb
 918              		.thumb_func
 919              		.type	rcvr_datablock, %function
 920              	rcvr_datablock:
 921              	.LFB38:
 922              		.loc 1 222 0
 923              		.cfi_startproc
 924              		@ args = 0, pretend = 0, frame = 0
ARM GAS  C:\Users\SUZUKI~1\AppData\Local\Temp\ccWKYO9D.s 			page 29


 925              		@ frame_needed = 0, uses_anonymous_args = 0
 926              	.LVL85:
 927              		.loc 1 225 0
 928 0000 154B     		ldr	r3, .L98
 929 0002 6422     		movs	r2, #100
 930              		.loc 1 222 0
 931 0004 70B5     		push	{r4, r5, r6, lr}
 932              	.LCFI10:
 933              		.cfi_def_cfa_offset 16
 934              		.loc 1 225 0
 935 0006 1A60     		str	r2, [r3, #0]
 936              		.loc 1 222 0
 937 0008 0446     		mov	r4, r0
 938              		.cfi_offset 14, -4
 939              		.cfi_offset 6, -8
 940              		.cfi_offset 5, -12
 941              		.cfi_offset 4, -16
 942 000a 0D46     		mov	r5, r1
 943              	.LVL86:
 944              	.L93:
 945              		.loc 1 227 0
 946 000c FF20     		movs	r0, #255
 947 000e FFF7FEFF 		bl	xchg_spi
 948              		.loc 1 228 0
 949 0012 FF28     		cmp	r0, #255
 950 0014 04D1     		bne	.L92
 951 0016 104B     		ldr	r3, .L98
 952 0018 1B68     		ldr	r3, [r3, #0]
 953 001a 002B     		cmp	r3, #0
 954 001c F6D1     		bne	.L93
 955 001e 19E0     		b	.L94
 956              	.L92:
 957              		.loc 1 230 0
 958 0020 FE28     		cmp	r0, #254
 959 0022 17D1     		bne	.L94
 960              	.L95:
 961              		.loc 1 233 0
 962 0024 2046     		mov	r0, r4
 963 0026 FFF7FEFF 		bl	rcvr_spi_m
 964              		.loc 1 234 0
 965 002a 601C     		adds	r0, r4, #1
 966 002c FFF7FEFF 		bl	rcvr_spi_m
 967              		.loc 1 218 0
 968 0030 2646     		mov	r6, r4
 969              		.loc 1 235 0
 970 0032 A01C     		adds	r0, r4, #2
 971 0034 FFF7FEFF 		bl	rcvr_spi_m
 972              		.loc 1 236 0
 973 0038 F01C     		adds	r0, r6, #3
 974              		.loc 1 235 0
 975 003a 0434     		adds	r4, r4, #4
 976              		.loc 1 236 0
 977 003c FFF7FEFF 		bl	rcvr_spi_m
 978              		.loc 1 237 0
 979 0040 043D     		subs	r5, r5, #4
 980 0042 EFD1     		bne	.L95
 981              		.loc 1 238 0
ARM GAS  C:\Users\SUZUKI~1\AppData\Local\Temp\ccWKYO9D.s 			page 30


 982 0044 FF20     		movs	r0, #255
 983 0046 FFF7FEFF 		bl	xchg_spi
 984              		.loc 1 239 0
 985 004a FF20     		movs	r0, #255
 986 004c FFF7FEFF 		bl	xchg_spi
 987 0050 0120     		movs	r0, #1
 988              		.loc 1 241 0
 989 0052 70BD     		pop	{r4, r5, r6, pc}
 990              	.L94:
 991 0054 0020     		movs	r0, #0
 992              		.loc 1 242 0
 993 0056 70BD     		pop	{r4, r5, r6, pc}
 994              	.L99:
 995              		.align	2
 996              	.L98:
 997 0058 00000000 		.word	.LANCHOR1
 998              		.cfi_endproc
 999              	.LFE38:
 1000              		.size	rcvr_datablock, .-rcvr_datablock
 1001              		.section	.text.disk_ioctl,"ax",%progbits
 1002              		.align	1
 1003              		.global	disk_ioctl
 1004              		.thumb
 1005              		.thumb_func
 1006              		.type	disk_ioctl, %function
 1007              	disk_ioctl:
 1008              	.LFB45:
 1009              		.loc 1 531 0
 1010              		.cfi_startproc
 1011              		@ args = 0, pretend = 0, frame = 16
 1012              		@ frame_needed = 0, uses_anonymous_args = 0
 1013              	.LVL87:
 1014 0000 7FB5     		push	{r0, r1, r2, r3, r4, r5, r6, lr}
 1015              	.LCFI11:
 1016              		.cfi_def_cfa_offset 32
 1017              	.LVL88:
 1018              		.loc 1 531 0
 1019 0002 1446     		mov	r4, r2
 1020              		.cfi_offset 14, -4
 1021              		.cfi_offset 6, -8
 1022              		.cfi_offset 5, -12
 1023              		.cfi_offset 4, -16
 1024              		.cfi_offset 3, -20
 1025              		.cfi_offset 2, -24
 1026              		.cfi_offset 1, -28
 1027              		.cfi_offset 0, -32
 1028              	.LVL89:
 1029              		.loc 1 537 0
 1030 0004 08B1     		cbz	r0, .L101
 1031              	.LVL90:
 1032 0006 0425     		movs	r5, #4
 1033              	.LVL91:
 1034 0008 D9E0     		b	.L102
 1035              	.LVL92:
 1036              	.L101:
 1037              		.loc 1 538 0
 1038 000a 6E4B     		ldr	r3, .L132
ARM GAS  C:\Users\SUZUKI~1\AppData\Local\Temp\ccWKYO9D.s 			page 31


 1039 000c 1B78     		ldrb	r3, [r3, #0]	@ zero_extendqisi2
 1040 000e 13F0010F 		tst	r3, #1
 1041 0012 01D0     		beq	.L103
 1042 0014 0325     		movs	r5, #3
 1043              	.LVL93:
 1044 0016 D2E0     		b	.L102
 1045              	.LVL94:
 1046              	.L103:
 1047              		.loc 1 541 0
 1048 0018 0E29     		cmp	r1, #14
 1049 001a 09D8     		bhi	.L104
 1050 001c DFE801F0 		tbb	[pc, r1]
 1051              	.LVL95:
 1052              	.L114:
 1053 0020 0A       		.byte	(.L105-.L114)/2
 1054 0021 12       		.byte	(.L106-.L114)/2
 1055 0022 4B       		.byte	(.L107-.L114)/2
 1056 0023 4F       		.byte	(.L108-.L114)/2
 1057 0024 08       		.byte	(.L104-.L114)/2
 1058 0025 08       		.byte	(.L104-.L114)/2
 1059 0026 08       		.byte	(.L104-.L114)/2
 1060 0027 08       		.byte	(.L104-.L114)/2
 1061 0028 08       		.byte	(.L104-.L114)/2
 1062 0029 08       		.byte	(.L104-.L114)/2
 1063 002a A1       		.byte	(.L109-.L114)/2
 1064 002b A5       		.byte	(.L110-.L114)/2
 1065 002c A7       		.byte	(.L111-.L114)/2
 1066 002d AF       		.byte	(.L112-.L114)/2
 1067 002e BD       		.byte	(.L113-.L114)/2
 1068 002f 00       		.align	1
 1069              	.L104:
 1070 0030 0425     		movs	r5, #4
 1071              	.LVL96:
 1072 0032 C2E0     		b	.L115
 1073              	.LVL97:
 1074              	.L105:
 1075              		.loc 1 543 0
 1076 0034 FFF7FEFF 		bl	select
 1077              	.LVL98:
 1078 0038 0028     		cmp	r0, #0
 1079 003a 00F0BB80 		beq	.L116
 1080              		.loc 1 544 0
 1081 003e FFF7FEFF 		bl	deselect
 1082 0042 B9E0     		b	.L121
 1083              	.LVL99:
 1084              	.L106:
 1085              		.loc 1 550 0
 1086 0044 0920     		movs	r0, #9
 1087              	.LVL100:
 1088 0046 0021     		movs	r1, #0
 1089              	.LVL101:
 1090 0048 FFF7FEFF 		bl	send_cmd
 1091 004c 0546     		mov	r5, r0
 1092 004e 0028     		cmp	r0, #0
 1093 0050 40F0B080 		bne	.L116
 1094 0054 6846     		mov	r0, sp
 1095 0056 1021     		movs	r1, #16
ARM GAS  C:\Users\SUZUKI~1\AppData\Local\Temp\ccWKYO9D.s 			page 32


 1096 0058 FFF7FEFF 		bl	rcvr_datablock
 1097 005c 0028     		cmp	r0, #0
 1098 005e 00F0A980 		beq	.L116
 1099              		.loc 1 551 0
 1100 0062 9DF80030 		ldrb	r3, [sp, #0]	@ zero_extendqisi2
 1101 0066 9DF80820 		ldrb	r2, [sp, #8]	@ zero_extendqisi2
 1102 006a 9B09     		lsrs	r3, r3, #6
 1103 006c 012B     		cmp	r3, #1
 1104 006e 9DF80930 		ldrb	r3, [sp, #9]	@ zero_extendqisi2
 1105 0072 05D1     		bne	.L117
 1106              		.loc 1 553 0
 1107 0074 0133     		adds	r3, r3, #1
 1108 0076 03EB0222 		add	r2, r3, r2, lsl #8
 1109 007a 9202     		lsls	r2, r2, #10
 1110 007c 2260     		str	r2, [r4, #0]
 1111 007e 9CE0     		b	.L115
 1112              	.L117:
 1113              		.loc 1 557 0
 1114 0080 9DF80710 		ldrb	r1, [sp, #7]	@ zero_extendqisi2
 1115 0084 9DF80A00 		ldrb	r0, [sp, #10]	@ zero_extendqisi2
 1116 0088 8900     		lsls	r1, r1, #2
 1117 008a 01EB9212 		add	r2, r1, r2, lsr #6
 1118 008e 9DF80610 		ldrb	r1, [sp, #6]	@ zero_extendqisi2
 1119 0092 0132     		adds	r2, r2, #1
 1120 0094 01F00301 		and	r1, r1, #3
 1121 0098 02EB8122 		add	r2, r2, r1, lsl #10
 1122 009c 9DF80510 		ldrb	r1, [sp, #5]	@ zero_extendqisi2
 1123 00a0 03F00303 		and	r3, r3, #3
 1124 00a4 01F00F01 		and	r1, r1, #15
 1125 00a8 01EBD011 		add	r1, r1, r0, lsr #7
 1126 00ac 0231     		adds	r1, r1, #2
 1127 00ae 01EB4303 		add	r3, r1, r3, lsl #1
 1128 00b2 093B     		subs	r3, r3, #9
 1129 00b4 23E0     		b	.L128
 1130              	.LVL102:
 1131              	.L107:
 1132              		.loc 1 564 0
 1133 00b6 4FF40073 		mov	r3, #512	@ movhi
 1134 00ba 1380     		strh	r3, [r2, #0]	@ movhi
 1135 00bc 7CE0     		b	.L121
 1136              	.L108:
 1137              		.loc 1 569 0
 1138 00be 424D     		ldr	r5, .L132+4
 1139 00c0 E968     		ldr	r1, [r5, #12]
 1140              	.LVL103:
 1141 00c2 11F00401 		ands	r1, r1, #4
 1142 00c6 1DD0     		beq	.L118
 1143              		.loc 1 570 0
 1144 00c8 8D20     		movs	r0, #141
 1145              	.LVL104:
 1146 00ca 0021     		movs	r1, #0
 1147 00cc FFF7FEFF 		bl	send_cmd
 1148 00d0 0028     		cmp	r0, #0
 1149 00d2 6FD1     		bne	.L116
 1150              		.loc 1 571 0
 1151 00d4 FF30     		adds	r0, r0, #255
 1152 00d6 FFF7FEFF 		bl	xchg_spi
ARM GAS  C:\Users\SUZUKI~1\AppData\Local\Temp\ccWKYO9D.s 			page 33


 1153              		.loc 1 572 0
 1154 00da 6846     		mov	r0, sp
 1155 00dc 1021     		movs	r1, #16
 1156 00de FFF7FEFF 		bl	rcvr_datablock
 1157 00e2 0028     		cmp	r0, #0
 1158 00e4 66D0     		beq	.L116
 1159 00e6 3025     		movs	r5, #48
 1160              	.LVL105:
 1161              	.L119:
 1162              		.loc 1 573 0
 1163 00e8 013D     		subs	r5, r5, #1
 1164              	.LVL106:
 1165 00ea FF20     		movs	r0, #255
 1166 00ec EDB2     		uxtb	r5, r5
 1167              	.LVL107:
 1168 00ee FFF7FEFF 		bl	xchg_spi
 1169 00f2 002D     		cmp	r5, #0
 1170 00f4 F8D1     		bne	.L119
 1171              		.loc 1 574 0
 1172 00f6 9DF80A30 		ldrb	r3, [sp, #10]	@ zero_extendqisi2
 1173 00fa 1022     		movs	r2, #16
 1174 00fc 1B09     		lsrs	r3, r3, #4
 1175              	.L128:
 1176 00fe 12FA03F3 		lsls	r3, r2, r3
 1177 0102 2CE0     		b	.L127
 1178              	.LVL108:
 1179              	.L118:
 1180              		.loc 1 579 0
 1181 0104 0920     		movs	r0, #9
 1182              	.LVL109:
 1183 0106 FFF7FEFF 		bl	send_cmd
 1184 010a 0646     		mov	r6, r0
 1185 010c 0028     		cmp	r0, #0
 1186 010e 51D1     		bne	.L116
 1187 0110 6846     		mov	r0, sp
 1188 0112 1021     		movs	r1, #16
 1189 0114 FFF7FEFF 		bl	rcvr_datablock
 1190 0118 0028     		cmp	r0, #0
 1191 011a 4BD0     		beq	.L116
 1192              		.loc 1 580 0
 1193 011c ED68     		ldr	r5, [r5, #12]
 1194 011e 9DF80A20 		ldrb	r2, [sp, #10]	@ zero_extendqisi2
 1195 0122 15F00205 		ands	r5, r5, #2
 1196 0126 9DF80B30 		ldrb	r3, [sp, #11]	@ zero_extendqisi2
 1197 012a 0DD0     		beq	.L120
 1198              		.loc 1 581 0
 1199 012c 9DF80D10 		ldrb	r1, [sp, #13]	@ zero_extendqisi2
 1200 0130 DB09     		lsrs	r3, r3, #7
 1201 0132 0133     		adds	r3, r3, #1
 1202 0134 02F03F02 		and	r2, r2, #63
 1203 0138 8909     		lsrs	r1, r1, #6
 1204 013a 03EB4202 		add	r2, r3, r2, lsl #1
 1205 013e 0139     		subs	r1, r1, #1
 1206 0140 8A40     		lsls	r2, r2, r1
 1207 0142 3546     		mov	r5, r6
 1208              	.LVL110:
 1209 0144 2260     		str	r2, [r4, #0]
ARM GAS  C:\Users\SUZUKI~1\AppData\Local\Temp\ccWKYO9D.s 			page 34


 1210 0146 38E0     		b	.L115
 1211              	.LVL111:
 1212              	.L120:
 1213              		.loc 1 583 0
 1214 0148 5909     		lsrs	r1, r3, #5
 1215 014a 02F07C02 		and	r2, r2, #124
 1216 014e 9208     		lsrs	r2, r2, #2
 1217 0150 0131     		adds	r1, r1, #1
 1218 0152 03F00303 		and	r3, r3, #3
 1219 0156 0132     		adds	r2, r2, #1
 1220 0158 01EBC303 		add	r3, r1, r3, lsl #3
 1221 015c 5343     		muls	r3, r2, r3
 1222              	.LVL112:
 1223              	.L127:
 1224 015e 2360     		str	r3, [r4, #0]
 1225 0160 2BE0     		b	.L115
 1226              	.LVL113:
 1227              	.L109:
 1228              		.loc 1 591 0
 1229 0162 194B     		ldr	r3, .L132+4
 1230 0164 DB68     		ldr	r3, [r3, #12]
 1231 0166 1370     		strb	r3, [r2, #0]
 1232 0168 26E0     		b	.L121
 1233              	.L110:
 1234              		.loc 1 596 0
 1235 016a 0920     		movs	r0, #9
 1236              	.LVL114:
 1237 016c 00E0     		b	.L131
 1238              	.LVL115:
 1239              	.L111:
 1240              		.loc 1 602 0
 1241 016e 0A20     		movs	r0, #10
 1242              	.LVL116:
 1243              	.L131:
 1244 0170 0021     		movs	r1, #0
 1245              	.LVL117:
 1246 0172 FFF7FEFF 		bl	send_cmd
 1247 0176 E8B9     		cbnz	r0, .L116
 1248              		.loc 1 603 0
 1249 0178 2046     		mov	r0, r4
 1250 017a 1021     		movs	r1, #16
 1251 017c 17E0     		b	.L125
 1252              	.LVL118:
 1253              	.L112:
 1254              		.loc 1 608 0
 1255 017e 3A20     		movs	r0, #58
 1256              	.LVL119:
 1257 0180 0021     		movs	r1, #0
 1258              	.LVL120:
 1259 0182 FFF7FEFF 		bl	send_cmd
 1260 0186 0546     		mov	r5, r0
 1261 0188 A0B9     		cbnz	r0, .L116
 1262              	.L122:
 1263              		.loc 1 610 0
 1264 018a FF20     		movs	r0, #255
 1265 018c FFF7FEFF 		bl	xchg_spi
 1266 0190 6055     		strb	r0, [r4, r5]
ARM GAS  C:\Users\SUZUKI~1\AppData\Local\Temp\ccWKYO9D.s 			page 35


 1267 0192 0135     		adds	r5, r5, #1
 1268              		.loc 1 609 0
 1269 0194 042D     		cmp	r5, #4
 1270 0196 F8D1     		bne	.L122
 1271 0198 0EE0     		b	.L121
 1272              	.LVL121:
 1273              	.L113:
 1274              		.loc 1 616 0
 1275 019a 8D20     		movs	r0, #141
 1276              	.LVL122:
 1277 019c 0021     		movs	r1, #0
 1278              	.LVL123:
 1279 019e FFF7FEFF 		bl	send_cmd
 1280 01a2 38B9     		cbnz	r0, .L116
 1281              		.loc 1 617 0
 1282 01a4 FF30     		adds	r0, r0, #255
 1283 01a6 FFF7FEFF 		bl	xchg_spi
 1284              		.loc 1 618 0
 1285 01aa 2046     		mov	r0, r4
 1286 01ac 4021     		movs	r1, #64
 1287              	.L125:
 1288 01ae FFF7FEFF 		bl	rcvr_datablock
 1289 01b2 08B9     		cbnz	r0, .L121
 1290              	.L116:
 1291 01b4 0125     		movs	r5, #1
 1292              	.LVL124:
 1293 01b6 00E0     		b	.L115
 1294              	.LVL125:
 1295              	.L121:
 1296 01b8 0025     		movs	r5, #0
 1297              	.LVL126:
 1298              	.L115:
 1299              		.loc 1 627 0
 1300 01ba FFF7FEFF 		bl	deselect
 1301              	.LVL127:
 1302              	.L102:
 1303              		.loc 1 630 0
 1304 01be 2846     		mov	r0, r5
 1305              	.LVL128:
 1306 01c0 04B0     		add	sp, sp, #16
 1307 01c2 70BD     		pop	{r4, r5, r6, pc}
 1308              	.L133:
 1309              		.align	2
 1310              	.L132:
 1311 01c4 00000000 		.word	.LANCHOR0
 1312 01c8 00000000 		.word	.LANCHOR1
 1313              		.cfi_endproc
 1314              	.LFE45:
 1315              		.size	disk_ioctl, .-disk_ioctl
 1316              		.section	.text.disk_read,"ax",%progbits
 1317              		.align	1
 1318              		.global	disk_read
 1319              		.thumb
 1320              		.thumb_func
 1321              		.type	disk_read, %function
 1322              	disk_read:
 1323              	.LFB43:
ARM GAS  C:\Users\SUZUKI~1\AppData\Local\Temp\ccWKYO9D.s 			page 36


 1324              		.loc 1 453 0
 1325              		.cfi_startproc
 1326              		@ args = 0, pretend = 0, frame = 0
 1327              		@ frame_needed = 0, uses_anonymous_args = 0
 1328              	.LVL129:
 1329 0000 38B5     		push	{r3, r4, r5, lr}
 1330              	.LCFI12:
 1331              		.cfi_def_cfa_offset 16
 1332              	.LVL130:
 1333              		.loc 1 453 0
 1334 0002 0C46     		mov	r4, r1
 1335              		.cfi_offset 14, -4
 1336              		.cfi_offset 5, -8
 1337              		.cfi_offset 4, -12
 1338              		.cfi_offset 3, -16
 1339 0004 1D46     		mov	r5, r3
 1340              	.LVL131:
 1341 0006 1146     		mov	r1, r2
 1342              	.LVL132:
 1343              		.loc 1 454 0
 1344 0008 0028     		cmp	r0, #0
 1345 000a 38D1     		bne	.L135
 1346              	.LVL133:
 1347 000c 002B     		cmp	r3, #0
 1348 000e 36D0     		beq	.L135
 1349              	.LVL134:
 1350              		.loc 1 455 0
 1351 0010 1C4B     		ldr	r3, .L144
 1352              	.LVL135:
 1353 0012 1B78     		ldrb	r3, [r3, #0]	@ zero_extendqisi2
 1354 0014 13F0010F 		tst	r3, #1
 1355 0018 01D0     		beq	.L136
 1356 001a 0330     		adds	r0, r0, #3
 1357              	.LVL136:
 1358 001c 38BD     		pop	{r3, r4, r5, pc}
 1359              	.LVL137:
 1360              	.L136:
 1361              		.loc 1 457 0
 1362 001e 1A4B     		ldr	r3, .L144+4
 1363 0020 DB68     		ldr	r3, [r3, #12]
 1364 0022 13F0080F 		tst	r3, #8
 1365 0026 08BF     		it	eq
 1366 0028 5102     		lsleq	r1, r2, #9
 1367              		.loc 1 459 0
 1368 002a 012D     		cmp	r5, #1
 1369 002c 0DD1     		bne	.L139
 1370              		.loc 1 460 0
 1371 002e 1120     		movs	r0, #17
 1372              	.LVL138:
 1373 0030 FFF7FEFF 		bl	send_cmd
 1374              	.LVL139:
 1375 0034 E8B9     		cbnz	r0, .L140
 1376              		.loc 1 461 0
 1377 0036 2046     		mov	r0, r4
 1378 0038 4FF40071 		mov	r1, #512
 1379 003c FFF7FEFF 		bl	rcvr_datablock
 1380              		.loc 1 460 0
ARM GAS  C:\Users\SUZUKI~1\AppData\Local\Temp\ccWKYO9D.s 			page 37


 1381 0040 D0F10105 		rsbs	r5, r0, #1
 1382 0044 38BF     		it	cc
 1383 0046 0025     		movcc	r5, #0
 1384              	.LVL140:
 1385 0048 13E0     		b	.L140
 1386              	.LVL141:
 1387              	.L139:
 1388              		.loc 1 465 0
 1389 004a 1220     		movs	r0, #18
 1390              	.LVL142:
 1391 004c FFF7FEFF 		bl	send_cmd
 1392              	.LVL143:
 1393 0050 78B9     		cbnz	r0, .L140
 1394              	.L142:
 1395              		.loc 1 467 0
 1396 0052 2046     		mov	r0, r4
 1397 0054 4FF40071 		mov	r1, #512
 1398 0058 FFF7FEFF 		bl	rcvr_datablock
 1399 005c 28B1     		cbz	r0, .L141
 1400              		.loc 1 469 0
 1401 005e 013D     		subs	r5, r5, #1
 1402              	.LVL144:
 1403 0060 EDB2     		uxtb	r5, r5
 1404              	.LVL145:
 1405 0062 15B1     		cbz	r5, .L141
 1406              		.loc 1 468 0
 1407 0064 04F50074 		add	r4, r4, #512
 1408 0068 F3E7     		b	.L142
 1409              	.L141:
 1410              		.loc 1 470 0
 1411 006a 0C20     		movs	r0, #12
 1412 006c 0021     		movs	r1, #0
 1413 006e FFF7FEFF 		bl	send_cmd
 1414              	.L140:
 1415              		.loc 1 473 0
 1416 0072 FFF7FEFF 		bl	deselect
 1417              		.loc 1 475 0
 1418 0076 281E     		subs	r0, r5, #0
 1419 0078 18BF     		it	ne
 1420 007a 0120     		movne	r0, #1
 1421 007c 38BD     		pop	{r3, r4, r5, pc}
 1422              	.LVL146:
 1423              	.L135:
 1424 007e 0420     		movs	r0, #4
 1425              	.LVL147:
 1426              		.loc 1 476 0
 1427 0080 38BD     		pop	{r3, r4, r5, pc}
 1428              	.L145:
 1429 0082 00BF     		.align	2
 1430              	.L144:
 1431 0084 00000000 		.word	.LANCHOR0
 1432 0088 00000000 		.word	.LANCHOR1
 1433              		.cfi_endproc
 1434              	.LFE43:
 1435              		.size	disk_read, .-disk_read
 1436              		.section	.text.sdspi_stop,"ax",%progbits
 1437              		.align	1
ARM GAS  C:\Users\SUZUKI~1\AppData\Local\Temp\ccWKYO9D.s 			page 38


 1438              		.global	sdspi_stop
 1439              		.thumb
 1440              		.thumb_func
 1441              		.type	sdspi_stop, %function
 1442              	sdspi_stop:
 1443              	.LFB30:
 1444              		.loc 1 86 0
 1445              		.cfi_startproc
 1446              		@ args = 0, pretend = 0, frame = 0
 1447              		@ frame_needed = 0, uses_anonymous_args = 0
 1448              		@ link register save eliminated.
 1449              		.loc 1 89 0
 1450              		.loc 1 87 0
 1451 0000 FFF7FEBF 		b	sdlogger_1_sdspi_1_SPI_Stop
 1452              		.cfi_endproc
 1453              	.LFE30:
 1454              		.size	sdspi_stop, .-sdspi_stop
 1455              		.section	.text.sdspi_start,"ax",%progbits
 1456              		.align	1
 1457              		.global	sdspi_start
 1458              		.thumb
 1459              		.thumb_func
 1460              		.type	sdspi_start, %function
 1461              	sdspi_start:
 1462              	.LFB29:
 1463              		.loc 1 74 0
 1464              		.cfi_startproc
 1465              		@ args = 0, pretend = 0, frame = 0
 1466              		@ frame_needed = 0, uses_anonymous_args = 0
 1467 0000 10B5     		push	{r4, lr}
 1468              	.LCFI13:
 1469              		.cfi_def_cfa_offset 8
 1470              		.loc 1 75 0
 1471              		.cfi_offset 14, -4
 1472              		.cfi_offset 4, -8
 1473 0002 FFF7FEFF 		bl	sdlogger_1_sdspi_1_SPI_Start
 1474              		.loc 1 76 0
 1475 0006 FFF7FEFF 		bl	sdlogger_1_sdspi_1_SPI_EnableInt
 1476              		.loc 1 77 0
 1477 000a FFF7FEFF 		bl	sdlogger_1_sdspi_1_SPI_ClearRxBuffer
 1478              		.loc 1 78 0
 1479 000e FFF7FEFF 		bl	sdlogger_1_sdspi_1_SPI_ClearTxBuffer
 1480              		.loc 1 80 0
 1481 0012 0348     		ldr	r0, .L150
 1482 0014 FFF7FEFF 		bl	sdlogger_1_sdspi_1_Timer_IRQ_StartEx
 1483              		.loc 1 83 0
 1484 0018 BDE81040 		pop	{r4, lr}
 1485              		.loc 1 81 0
 1486 001c FFF7FEBF 		b	sdlogger_1_sdspi_1_Timer_IRQ_Enable
 1487              	.L151:
 1488              		.align	2
 1489              	.L150:
 1490 0020 00000000 		.word	disk_timerproc
 1491              		.cfi_endproc
 1492              	.LFE29:
 1493              		.size	sdspi_start, .-sdspi_start
 1494              		.data
ARM GAS  C:\Users\SUZUKI~1\AppData\Local\Temp\ccWKYO9D.s 			page 39


 1495              		.set	.LANCHOR0,. + 0
 1496              		.type	Stat, %object
 1497              		.size	Stat, 1
 1498              	Stat:
 1499 0000 03       		.byte	3
 1500              		.bss
 1501              		.align	2
 1502              		.set	.LANCHOR1,. + 0
 1503              		.type	SDTimer1, %object
 1504              		.size	SDTimer1, 4
 1505              	SDTimer1:
 1506 0000 00000000 		.space	4
 1507              		.type	SDTimer2, %object
 1508              		.size	SDTimer2, 4
 1509              	SDTimer2:
 1510 0004 00000000 		.space	4
 1511              		.type	pv.4052, %object
 1512              		.size	pv.4052, 4
 1513              	pv.4052:
 1514 0008 00000000 		.space	4
 1515              		.type	CardType, %object
 1516              		.size	CardType, 4
 1517              	CardType:
 1518 000c 00000000 		.space	4
 1519              		.text
 1520              	.Letext0:
