ARM GAS  C:\Users\SUZUKI~1\AppData\Local\Temp\ccJj3vLr.s 			page 1


   1              		.syntax unified
   2              		.cpu cortex-m3
   3              		.fpu softvfp
   4              		.eabi_attribute 20, 1
   5              		.eabi_attribute 21, 1
   6              		.eabi_attribute 23, 3
   7              		.eabi_attribute 24, 1
   8              		.eabi_attribute 25, 1
   9              		.eabi_attribute 26, 1
  10              		.eabi_attribute 30, 4
  11              		.eabi_attribute 18, 4
  12              		.thumb
  13              		.file	"UART_TF_PM.c"
  14              		.section	.debug_abbrev,"",%progbits
  15              	.Ldebug_abbrev0:
  16              		.section	.debug_info,"",%progbits
  17              	.Ldebug_info0:
  18              		.section	.debug_line,"",%progbits
  19              	.Ldebug_line0:
  20 0000 CE000000 		.text
  20      02007000 
  20      00000201 
  20      FB0E0D00 
  20      01010101 
  21              	.Ltext0:
  22              		.cfi_sections	.debug_frame
  23              		.section	.text.UART_TF_SaveConfig,"ax",%progbits
  24              		.align	1
  25              		.global	UART_TF_SaveConfig
  26              		.thumb
  27              		.thumb_func
  28              		.type	UART_TF_SaveConfig, %function
  29              	UART_TF_SaveConfig:
  30              	.LFB0:
  31              		.file 1 ".\\Generated_Source\\PSoC5\\UART_TF_PM.c"
   1:.\Generated_Source\PSoC5/UART_TF_PM.c **** /*******************************************************************************
   2:.\Generated_Source\PSoC5/UART_TF_PM.c **** * File Name: UART_TF_PM.c
   3:.\Generated_Source\PSoC5/UART_TF_PM.c **** * Version 2.30
   4:.\Generated_Source\PSoC5/UART_TF_PM.c **** *
   5:.\Generated_Source\PSoC5/UART_TF_PM.c **** * Description:
   6:.\Generated_Source\PSoC5/UART_TF_PM.c **** *  This file provides Sleep/WakeUp APIs functionality.
   7:.\Generated_Source\PSoC5/UART_TF_PM.c **** *
   8:.\Generated_Source\PSoC5/UART_TF_PM.c **** * Note:
   9:.\Generated_Source\PSoC5/UART_TF_PM.c **** *
  10:.\Generated_Source\PSoC5/UART_TF_PM.c **** ********************************************************************************
  11:.\Generated_Source\PSoC5/UART_TF_PM.c **** * Copyright 2008-2012, Cypress Semiconductor Corporation.  All rights reserved.
  12:.\Generated_Source\PSoC5/UART_TF_PM.c **** * You may use this file only in accordance with the license, terms, conditions,
  13:.\Generated_Source\PSoC5/UART_TF_PM.c **** * disclaimers, and limitations in the end user license agreement accompanying
  14:.\Generated_Source\PSoC5/UART_TF_PM.c **** * the software package with which this file was provided.
  15:.\Generated_Source\PSoC5/UART_TF_PM.c **** *******************************************************************************/
  16:.\Generated_Source\PSoC5/UART_TF_PM.c **** 
  17:.\Generated_Source\PSoC5/UART_TF_PM.c **** #include "UART_TF.h"
  18:.\Generated_Source\PSoC5/UART_TF_PM.c **** 
  19:.\Generated_Source\PSoC5/UART_TF_PM.c **** 
  20:.\Generated_Source\PSoC5/UART_TF_PM.c **** /***************************************
  21:.\Generated_Source\PSoC5/UART_TF_PM.c **** * Local data allocation
  22:.\Generated_Source\PSoC5/UART_TF_PM.c **** ***************************************/
ARM GAS  C:\Users\SUZUKI~1\AppData\Local\Temp\ccJj3vLr.s 			page 2


  23:.\Generated_Source\PSoC5/UART_TF_PM.c **** 
  24:.\Generated_Source\PSoC5/UART_TF_PM.c **** static UART_TF_BACKUP_STRUCT  UART_TF_backup =
  25:.\Generated_Source\PSoC5/UART_TF_PM.c **** {
  26:.\Generated_Source\PSoC5/UART_TF_PM.c ****     /* enableState - disabled */
  27:.\Generated_Source\PSoC5/UART_TF_PM.c ****     0u,
  28:.\Generated_Source\PSoC5/UART_TF_PM.c **** };
  29:.\Generated_Source\PSoC5/UART_TF_PM.c **** 
  30:.\Generated_Source\PSoC5/UART_TF_PM.c **** 
  31:.\Generated_Source\PSoC5/UART_TF_PM.c **** 
  32:.\Generated_Source\PSoC5/UART_TF_PM.c **** /*******************************************************************************
  33:.\Generated_Source\PSoC5/UART_TF_PM.c **** * Function Name: UART_TF_SaveConfig
  34:.\Generated_Source\PSoC5/UART_TF_PM.c **** ********************************************************************************
  35:.\Generated_Source\PSoC5/UART_TF_PM.c **** *
  36:.\Generated_Source\PSoC5/UART_TF_PM.c **** * Summary:
  37:.\Generated_Source\PSoC5/UART_TF_PM.c **** *  Saves the current user configuration.
  38:.\Generated_Source\PSoC5/UART_TF_PM.c **** *
  39:.\Generated_Source\PSoC5/UART_TF_PM.c **** * Parameters:
  40:.\Generated_Source\PSoC5/UART_TF_PM.c **** *  None.
  41:.\Generated_Source\PSoC5/UART_TF_PM.c **** *
  42:.\Generated_Source\PSoC5/UART_TF_PM.c **** * Return:
  43:.\Generated_Source\PSoC5/UART_TF_PM.c **** *  None.
  44:.\Generated_Source\PSoC5/UART_TF_PM.c **** *
  45:.\Generated_Source\PSoC5/UART_TF_PM.c **** * Global Variables:
  46:.\Generated_Source\PSoC5/UART_TF_PM.c **** *  UART_TF_backup - modified when non-retention registers are saved.
  47:.\Generated_Source\PSoC5/UART_TF_PM.c **** *
  48:.\Generated_Source\PSoC5/UART_TF_PM.c **** * Reentrant:
  49:.\Generated_Source\PSoC5/UART_TF_PM.c **** *  No.
  50:.\Generated_Source\PSoC5/UART_TF_PM.c **** *
  51:.\Generated_Source\PSoC5/UART_TF_PM.c **** *******************************************************************************/
  52:.\Generated_Source\PSoC5/UART_TF_PM.c **** void UART_TF_SaveConfig(void)
  53:.\Generated_Source\PSoC5/UART_TF_PM.c **** {
  32              		.loc 1 53 0
  33              		.cfi_startproc
  34              		@ args = 0, pretend = 0, frame = 0
  35              		@ frame_needed = 0, uses_anonymous_args = 0
  36              		@ link register save eliminated.
  54:.\Generated_Source\PSoC5/UART_TF_PM.c ****     #if (CY_UDB_V0)
  55:.\Generated_Source\PSoC5/UART_TF_PM.c **** 
  56:.\Generated_Source\PSoC5/UART_TF_PM.c ****         #if(UART_TF_CONTROL_REG_REMOVED == 0u)
  57:.\Generated_Source\PSoC5/UART_TF_PM.c ****             UART_TF_backup.cr = UART_TF_CONTROL_REG;
  58:.\Generated_Source\PSoC5/UART_TF_PM.c ****         #endif /* End UART_TF_CONTROL_REG_REMOVED */
  59:.\Generated_Source\PSoC5/UART_TF_PM.c **** 
  60:.\Generated_Source\PSoC5/UART_TF_PM.c ****         #if( (UART_TF_RX_ENABLED) || (UART_TF_HD_ENABLED) )
  61:.\Generated_Source\PSoC5/UART_TF_PM.c ****             UART_TF_backup.rx_period = UART_TF_RXBITCTR_PERIOD_REG;
  37              		.loc 1 61 0
  38 0000 034B     		ldr	r3, .L3
  39 0002 1A78     		ldrb	r2, [r3, #0]	@ zero_extendqisi2
  40 0004 034B     		ldr	r3, .L3+4
  41 0006 5A70     		strb	r2, [r3, #1]
  62:.\Generated_Source\PSoC5/UART_TF_PM.c ****             UART_TF_backup.rx_mask = UART_TF_RXSTATUS_MASK_REG;
  42              		.loc 1 62 0
  43 0008 034A     		ldr	r2, .L3+8
  44 000a 1278     		ldrb	r2, [r2, #0]	@ zero_extendqisi2
  45 000c 9A70     		strb	r2, [r3, #2]
  63:.\Generated_Source\PSoC5/UART_TF_PM.c ****             #if (UART_TF_RXHW_ADDRESS_ENABLED)
  64:.\Generated_Source\PSoC5/UART_TF_PM.c ****                 UART_TF_backup.rx_addr1 = UART_TF_RXADDRESS1_REG;
  65:.\Generated_Source\PSoC5/UART_TF_PM.c ****                 UART_TF_backup.rx_addr2 = UART_TF_RXADDRESS2_REG;
ARM GAS  C:\Users\SUZUKI~1\AppData\Local\Temp\ccJj3vLr.s 			page 3


  66:.\Generated_Source\PSoC5/UART_TF_PM.c ****             #endif /* End UART_TF_RXHW_ADDRESS_ENABLED */
  67:.\Generated_Source\PSoC5/UART_TF_PM.c ****         #endif /* End UART_TF_RX_ENABLED | UART_TF_HD_ENABLED*/
  68:.\Generated_Source\PSoC5/UART_TF_PM.c **** 
  69:.\Generated_Source\PSoC5/UART_TF_PM.c ****         #if(UART_TF_TX_ENABLED)
  70:.\Generated_Source\PSoC5/UART_TF_PM.c ****             #if(UART_TF_TXCLKGEN_DP)
  71:.\Generated_Source\PSoC5/UART_TF_PM.c ****                 UART_TF_backup.tx_clk_ctr = UART_TF_TXBITCLKGEN_CTR_REG;
  72:.\Generated_Source\PSoC5/UART_TF_PM.c ****                 UART_TF_backup.tx_clk_compl = UART_TF_TXBITCLKTX_COMPLETE_REG;
  73:.\Generated_Source\PSoC5/UART_TF_PM.c ****             #else
  74:.\Generated_Source\PSoC5/UART_TF_PM.c ****                 UART_TF_backup.tx_period = UART_TF_TXBITCTR_PERIOD_REG;
  75:.\Generated_Source\PSoC5/UART_TF_PM.c ****             #endif /*End UART_TF_TXCLKGEN_DP */
  76:.\Generated_Source\PSoC5/UART_TF_PM.c ****             UART_TF_backup.tx_mask = UART_TF_TXSTATUS_MASK_REG;
  77:.\Generated_Source\PSoC5/UART_TF_PM.c ****         #endif /*End UART_TF_TX_ENABLED */
  78:.\Generated_Source\PSoC5/UART_TF_PM.c **** 
  79:.\Generated_Source\PSoC5/UART_TF_PM.c **** 
  80:.\Generated_Source\PSoC5/UART_TF_PM.c ****     #else /* CY_UDB_V1 */
  81:.\Generated_Source\PSoC5/UART_TF_PM.c **** 
  82:.\Generated_Source\PSoC5/UART_TF_PM.c ****         #if(UART_TF_CONTROL_REG_REMOVED == 0u)
  83:.\Generated_Source\PSoC5/UART_TF_PM.c ****             UART_TF_backup.cr = UART_TF_CONTROL_REG;
  84:.\Generated_Source\PSoC5/UART_TF_PM.c ****         #endif /* End UART_TF_CONTROL_REG_REMOVED */
  85:.\Generated_Source\PSoC5/UART_TF_PM.c **** 
  86:.\Generated_Source\PSoC5/UART_TF_PM.c ****     #endif  /* End CY_UDB_V0 */
  87:.\Generated_Source\PSoC5/UART_TF_PM.c **** }
  46              		.loc 1 87 0
  47 000e 7047     		bx	lr
  48              	.L4:
  49              		.align	2
  50              	.L3:
  51 0010 84640040 		.word	1073767556
  52 0014 00000000 		.word	.LANCHOR0
  53 0018 80640040 		.word	1073767552
  54              		.cfi_endproc
  55              	.LFE0:
  56              		.size	UART_TF_SaveConfig, .-UART_TF_SaveConfig
  57              		.section	.text.UART_TF_RestoreConfig,"ax",%progbits
  58              		.align	1
  59              		.global	UART_TF_RestoreConfig
  60              		.thumb
  61              		.thumb_func
  62              		.type	UART_TF_RestoreConfig, %function
  63              	UART_TF_RestoreConfig:
  64              	.LFB1:
  88:.\Generated_Source\PSoC5/UART_TF_PM.c **** 
  89:.\Generated_Source\PSoC5/UART_TF_PM.c **** 
  90:.\Generated_Source\PSoC5/UART_TF_PM.c **** /*******************************************************************************
  91:.\Generated_Source\PSoC5/UART_TF_PM.c **** * Function Name: UART_TF_RestoreConfig
  92:.\Generated_Source\PSoC5/UART_TF_PM.c **** ********************************************************************************
  93:.\Generated_Source\PSoC5/UART_TF_PM.c **** *
  94:.\Generated_Source\PSoC5/UART_TF_PM.c **** * Summary:
  95:.\Generated_Source\PSoC5/UART_TF_PM.c **** *  Restores the current user configuration.
  96:.\Generated_Source\PSoC5/UART_TF_PM.c **** *
  97:.\Generated_Source\PSoC5/UART_TF_PM.c **** * Parameters:
  98:.\Generated_Source\PSoC5/UART_TF_PM.c **** *  None.
  99:.\Generated_Source\PSoC5/UART_TF_PM.c **** *
 100:.\Generated_Source\PSoC5/UART_TF_PM.c **** * Return:
 101:.\Generated_Source\PSoC5/UART_TF_PM.c **** *  None.
 102:.\Generated_Source\PSoC5/UART_TF_PM.c **** *
 103:.\Generated_Source\PSoC5/UART_TF_PM.c **** * Global Variables:
ARM GAS  C:\Users\SUZUKI~1\AppData\Local\Temp\ccJj3vLr.s 			page 4


 104:.\Generated_Source\PSoC5/UART_TF_PM.c **** *  UART_TF_backup - used when non-retention registers are restored.
 105:.\Generated_Source\PSoC5/UART_TF_PM.c **** *
 106:.\Generated_Source\PSoC5/UART_TF_PM.c **** * Reentrant:
 107:.\Generated_Source\PSoC5/UART_TF_PM.c **** *  No.
 108:.\Generated_Source\PSoC5/UART_TF_PM.c **** *
 109:.\Generated_Source\PSoC5/UART_TF_PM.c **** *******************************************************************************/
 110:.\Generated_Source\PSoC5/UART_TF_PM.c **** void UART_TF_RestoreConfig(void)
 111:.\Generated_Source\PSoC5/UART_TF_PM.c **** {
  65              		.loc 1 111 0
  66              		.cfi_startproc
  67              		@ args = 0, pretend = 0, frame = 0
  68              		@ frame_needed = 0, uses_anonymous_args = 0
  69              		@ link register save eliminated.
 112:.\Generated_Source\PSoC5/UART_TF_PM.c **** 
 113:.\Generated_Source\PSoC5/UART_TF_PM.c ****     #if (CY_UDB_V0)
 114:.\Generated_Source\PSoC5/UART_TF_PM.c **** 
 115:.\Generated_Source\PSoC5/UART_TF_PM.c ****         #if(UART_TF_CONTROL_REG_REMOVED == 0u)
 116:.\Generated_Source\PSoC5/UART_TF_PM.c ****             UART_TF_CONTROL_REG = UART_TF_backup.cr;
 117:.\Generated_Source\PSoC5/UART_TF_PM.c ****         #endif /* End UART_TF_CONTROL_REG_REMOVED */
 118:.\Generated_Source\PSoC5/UART_TF_PM.c **** 
 119:.\Generated_Source\PSoC5/UART_TF_PM.c ****         #if( (UART_TF_RX_ENABLED) || (UART_TF_HD_ENABLED) )
 120:.\Generated_Source\PSoC5/UART_TF_PM.c ****             UART_TF_RXBITCTR_PERIOD_REG = UART_TF_backup.rx_period;
  70              		.loc 1 120 0
  71 0000 034B     		ldr	r3, .L7
  72 0002 044A     		ldr	r2, .L7+4
  73 0004 5978     		ldrb	r1, [r3, #1]	@ zero_extendqisi2
  74 0006 1170     		strb	r1, [r2, #0]
 121:.\Generated_Source\PSoC5/UART_TF_PM.c ****             UART_TF_RXSTATUS_MASK_REG = UART_TF_backup.rx_mask;
  75              		.loc 1 121 0
  76 0008 9A78     		ldrb	r2, [r3, #2]	@ zero_extendqisi2
  77 000a 034B     		ldr	r3, .L7+8
  78 000c 1A70     		strb	r2, [r3, #0]
 122:.\Generated_Source\PSoC5/UART_TF_PM.c ****             #if (UART_TF_RXHW_ADDRESS_ENABLED)
 123:.\Generated_Source\PSoC5/UART_TF_PM.c ****                 UART_TF_RXADDRESS1_REG = UART_TF_backup.rx_addr1;
 124:.\Generated_Source\PSoC5/UART_TF_PM.c ****                 UART_TF_RXADDRESS2_REG = UART_TF_backup.rx_addr2;
 125:.\Generated_Source\PSoC5/UART_TF_PM.c ****             #endif /* End UART_TF_RXHW_ADDRESS_ENABLED */
 126:.\Generated_Source\PSoC5/UART_TF_PM.c ****         #endif  /* End (UART_TF_RX_ENABLED) || (UART_TF_HD_ENABLED) */
 127:.\Generated_Source\PSoC5/UART_TF_PM.c **** 
 128:.\Generated_Source\PSoC5/UART_TF_PM.c ****         #if(UART_TF_TX_ENABLED)
 129:.\Generated_Source\PSoC5/UART_TF_PM.c ****             #if(UART_TF_TXCLKGEN_DP)
 130:.\Generated_Source\PSoC5/UART_TF_PM.c ****                 UART_TF_TXBITCLKGEN_CTR_REG = UART_TF_backup.tx_clk_ctr;
 131:.\Generated_Source\PSoC5/UART_TF_PM.c ****                 UART_TF_TXBITCLKTX_COMPLETE_REG = UART_TF_backup.tx_clk_compl;
 132:.\Generated_Source\PSoC5/UART_TF_PM.c ****             #else
 133:.\Generated_Source\PSoC5/UART_TF_PM.c ****                 UART_TF_TXBITCTR_PERIOD_REG = UART_TF_backup.tx_period;
 134:.\Generated_Source\PSoC5/UART_TF_PM.c ****             #endif /*End UART_TF_TXCLKGEN_DP */
 135:.\Generated_Source\PSoC5/UART_TF_PM.c ****             UART_TF_TXSTATUS_MASK_REG = UART_TF_backup.tx_mask;
 136:.\Generated_Source\PSoC5/UART_TF_PM.c ****         #endif /*End UART_TF_TX_ENABLED */
 137:.\Generated_Source\PSoC5/UART_TF_PM.c **** 
 138:.\Generated_Source\PSoC5/UART_TF_PM.c ****     #else /* CY_UDB_V1 */
 139:.\Generated_Source\PSoC5/UART_TF_PM.c **** 
 140:.\Generated_Source\PSoC5/UART_TF_PM.c ****         #if(UART_TF_CONTROL_REG_REMOVED == 0u)
 141:.\Generated_Source\PSoC5/UART_TF_PM.c ****             UART_TF_CONTROL_REG = UART_TF_backup.cr;
 142:.\Generated_Source\PSoC5/UART_TF_PM.c ****         #endif /* End UART_TF_CONTROL_REG_REMOVED */
 143:.\Generated_Source\PSoC5/UART_TF_PM.c **** 
 144:.\Generated_Source\PSoC5/UART_TF_PM.c ****     #endif  /* End CY_UDB_V0 */
 145:.\Generated_Source\PSoC5/UART_TF_PM.c **** }
  79              		.loc 1 145 0
ARM GAS  C:\Users\SUZUKI~1\AppData\Local\Temp\ccJj3vLr.s 			page 5


  80 000e 7047     		bx	lr
  81              	.L8:
  82              		.align	2
  83              	.L7:
  84 0010 00000000 		.word	.LANCHOR0
  85 0014 84640040 		.word	1073767556
  86 0018 80640040 		.word	1073767552
  87              		.cfi_endproc
  88              	.LFE1:
  89              		.size	UART_TF_RestoreConfig, .-UART_TF_RestoreConfig
  90              		.section	.text.UART_TF_Wakeup,"ax",%progbits
  91              		.align	1
  92              		.global	UART_TF_Wakeup
  93              		.thumb
  94              		.thumb_func
  95              		.type	UART_TF_Wakeup, %function
  96              	UART_TF_Wakeup:
  97              	.LFB3:
 146:.\Generated_Source\PSoC5/UART_TF_PM.c **** 
 147:.\Generated_Source\PSoC5/UART_TF_PM.c **** 
 148:.\Generated_Source\PSoC5/UART_TF_PM.c **** /*******************************************************************************
 149:.\Generated_Source\PSoC5/UART_TF_PM.c **** * Function Name: UART_TF_Sleep
 150:.\Generated_Source\PSoC5/UART_TF_PM.c **** ********************************************************************************
 151:.\Generated_Source\PSoC5/UART_TF_PM.c **** *
 152:.\Generated_Source\PSoC5/UART_TF_PM.c **** * Summary:
 153:.\Generated_Source\PSoC5/UART_TF_PM.c **** *  Stops and saves the user configuration. Should be called
 154:.\Generated_Source\PSoC5/UART_TF_PM.c **** *  just prior to entering sleep.
 155:.\Generated_Source\PSoC5/UART_TF_PM.c **** *
 156:.\Generated_Source\PSoC5/UART_TF_PM.c **** *
 157:.\Generated_Source\PSoC5/UART_TF_PM.c **** * Parameters:
 158:.\Generated_Source\PSoC5/UART_TF_PM.c **** *  None.
 159:.\Generated_Source\PSoC5/UART_TF_PM.c **** *
 160:.\Generated_Source\PSoC5/UART_TF_PM.c **** * Return:
 161:.\Generated_Source\PSoC5/UART_TF_PM.c **** *  None.
 162:.\Generated_Source\PSoC5/UART_TF_PM.c **** *
 163:.\Generated_Source\PSoC5/UART_TF_PM.c **** * Global Variables:
 164:.\Generated_Source\PSoC5/UART_TF_PM.c **** *  UART_TF_backup - modified when non-retention registers are saved.
 165:.\Generated_Source\PSoC5/UART_TF_PM.c **** *
 166:.\Generated_Source\PSoC5/UART_TF_PM.c **** * Reentrant:
 167:.\Generated_Source\PSoC5/UART_TF_PM.c **** *  No.
 168:.\Generated_Source\PSoC5/UART_TF_PM.c **** *
 169:.\Generated_Source\PSoC5/UART_TF_PM.c **** *******************************************************************************/
 170:.\Generated_Source\PSoC5/UART_TF_PM.c **** void UART_TF_Sleep(void)
 171:.\Generated_Source\PSoC5/UART_TF_PM.c **** {
 172:.\Generated_Source\PSoC5/UART_TF_PM.c **** 
 173:.\Generated_Source\PSoC5/UART_TF_PM.c ****     #if(UART_TF_RX_ENABLED || UART_TF_HD_ENABLED)
 174:.\Generated_Source\PSoC5/UART_TF_PM.c ****         if((UART_TF_RXSTATUS_ACTL_REG  & UART_TF_INT_ENABLE) != 0u)
 175:.\Generated_Source\PSoC5/UART_TF_PM.c ****         {
 176:.\Generated_Source\PSoC5/UART_TF_PM.c ****             UART_TF_backup.enableState = 1u;
 177:.\Generated_Source\PSoC5/UART_TF_PM.c ****         }
 178:.\Generated_Source\PSoC5/UART_TF_PM.c ****         else
 179:.\Generated_Source\PSoC5/UART_TF_PM.c ****         {
 180:.\Generated_Source\PSoC5/UART_TF_PM.c ****             UART_TF_backup.enableState = 0u;
 181:.\Generated_Source\PSoC5/UART_TF_PM.c ****         }
 182:.\Generated_Source\PSoC5/UART_TF_PM.c ****     #else
 183:.\Generated_Source\PSoC5/UART_TF_PM.c ****         if((UART_TF_TXSTATUS_ACTL_REG  & UART_TF_INT_ENABLE) !=0u)
 184:.\Generated_Source\PSoC5/UART_TF_PM.c ****         {
ARM GAS  C:\Users\SUZUKI~1\AppData\Local\Temp\ccJj3vLr.s 			page 6


 185:.\Generated_Source\PSoC5/UART_TF_PM.c ****             UART_TF_backup.enableState = 1u;
 186:.\Generated_Source\PSoC5/UART_TF_PM.c ****         }
 187:.\Generated_Source\PSoC5/UART_TF_PM.c ****         else
 188:.\Generated_Source\PSoC5/UART_TF_PM.c ****         {
 189:.\Generated_Source\PSoC5/UART_TF_PM.c ****             UART_TF_backup.enableState = 0u;
 190:.\Generated_Source\PSoC5/UART_TF_PM.c ****         }
 191:.\Generated_Source\PSoC5/UART_TF_PM.c ****     #endif /* End UART_TF_RX_ENABLED || UART_TF_HD_ENABLED*/
 192:.\Generated_Source\PSoC5/UART_TF_PM.c **** 
 193:.\Generated_Source\PSoC5/UART_TF_PM.c ****     UART_TF_Stop();
 194:.\Generated_Source\PSoC5/UART_TF_PM.c ****     UART_TF_SaveConfig();
 195:.\Generated_Source\PSoC5/UART_TF_PM.c **** }
 196:.\Generated_Source\PSoC5/UART_TF_PM.c **** 
 197:.\Generated_Source\PSoC5/UART_TF_PM.c **** 
 198:.\Generated_Source\PSoC5/UART_TF_PM.c **** /*******************************************************************************
 199:.\Generated_Source\PSoC5/UART_TF_PM.c **** * Function Name: UART_TF_Wakeup
 200:.\Generated_Source\PSoC5/UART_TF_PM.c **** ********************************************************************************
 201:.\Generated_Source\PSoC5/UART_TF_PM.c **** *
 202:.\Generated_Source\PSoC5/UART_TF_PM.c **** * Summary:
 203:.\Generated_Source\PSoC5/UART_TF_PM.c **** *  Restores and enables the user configuration. Should be called
 204:.\Generated_Source\PSoC5/UART_TF_PM.c **** *  just after awaking from sleep.
 205:.\Generated_Source\PSoC5/UART_TF_PM.c **** *
 206:.\Generated_Source\PSoC5/UART_TF_PM.c **** * Parameters:
 207:.\Generated_Source\PSoC5/UART_TF_PM.c **** *  None.
 208:.\Generated_Source\PSoC5/UART_TF_PM.c **** *
 209:.\Generated_Source\PSoC5/UART_TF_PM.c **** * Return:
 210:.\Generated_Source\PSoC5/UART_TF_PM.c **** *  None.
 211:.\Generated_Source\PSoC5/UART_TF_PM.c **** *
 212:.\Generated_Source\PSoC5/UART_TF_PM.c **** * Global Variables:
 213:.\Generated_Source\PSoC5/UART_TF_PM.c **** *  UART_TF_backup - used when non-retention registers are restored.
 214:.\Generated_Source\PSoC5/UART_TF_PM.c **** *
 215:.\Generated_Source\PSoC5/UART_TF_PM.c **** * Reentrant:
 216:.\Generated_Source\PSoC5/UART_TF_PM.c **** *  No.
 217:.\Generated_Source\PSoC5/UART_TF_PM.c **** *
 218:.\Generated_Source\PSoC5/UART_TF_PM.c **** *******************************************************************************/
 219:.\Generated_Source\PSoC5/UART_TF_PM.c **** void UART_TF_Wakeup(void)
 220:.\Generated_Source\PSoC5/UART_TF_PM.c **** {
  98              		.loc 1 220 0
  99              		.cfi_startproc
 100              		@ args = 0, pretend = 0, frame = 0
 101              		@ frame_needed = 0, uses_anonymous_args = 0
 102 0000 10B5     		push	{r4, lr}
 103              	.LCFI0:
 104              		.cfi_def_cfa_offset 8
 221:.\Generated_Source\PSoC5/UART_TF_PM.c ****     UART_TF_RestoreConfig();
 105              		.loc 1 221 0
 106              		.cfi_offset 14, -4
 107              		.cfi_offset 4, -8
 108 0002 FFF7FEFF 		bl	UART_TF_RestoreConfig
 222:.\Generated_Source\PSoC5/UART_TF_PM.c ****     #if( (UART_TF_RX_ENABLED) || (UART_TF_HD_ENABLED) )
 223:.\Generated_Source\PSoC5/UART_TF_PM.c ****         UART_TF_ClearRxBuffer();
 109              		.loc 1 223 0
 110 0006 FFF7FEFF 		bl	UART_TF_ClearRxBuffer
 224:.\Generated_Source\PSoC5/UART_TF_PM.c ****     #endif /* End (UART_TF_RX_ENABLED) || (UART_TF_HD_ENABLED) */
 225:.\Generated_Source\PSoC5/UART_TF_PM.c ****     #if(UART_TF_TX_ENABLED || UART_TF_HD_ENABLED)
 226:.\Generated_Source\PSoC5/UART_TF_PM.c ****         UART_TF_ClearTxBuffer();
 227:.\Generated_Source\PSoC5/UART_TF_PM.c ****     #endif /* End UART_TF_TX_ENABLED || UART_TF_HD_ENABLED */
 228:.\Generated_Source\PSoC5/UART_TF_PM.c **** 
ARM GAS  C:\Users\SUZUKI~1\AppData\Local\Temp\ccJj3vLr.s 			page 7


 229:.\Generated_Source\PSoC5/UART_TF_PM.c ****     if(UART_TF_backup.enableState != 0u)
 111              		.loc 1 229 0
 112 000a 044B     		ldr	r3, .L13
 113 000c 1B78     		ldrb	r3, [r3, #0]	@ zero_extendqisi2
 114 000e 1BB1     		cbz	r3, .L11
 230:.\Generated_Source\PSoC5/UART_TF_PM.c ****     {
 231:.\Generated_Source\PSoC5/UART_TF_PM.c ****         UART_TF_Enable();
 232:.\Generated_Source\PSoC5/UART_TF_PM.c ****     }
 233:.\Generated_Source\PSoC5/UART_TF_PM.c **** }
 115              		.loc 1 233 0
 116 0010 BDE81040 		pop	{r4, lr}
 117              		.loc 1 231 0
 118 0014 FFF7FEBF 		b	UART_TF_Enable
 119              	.L11:
 120 0018 10BD     		pop	{r4, pc}
 121              	.L14:
 122 001a 00BF     		.align	2
 123              	.L13:
 124 001c 00000000 		.word	.LANCHOR0
 125              		.cfi_endproc
 126              	.LFE3:
 127              		.size	UART_TF_Wakeup, .-UART_TF_Wakeup
 128              		.section	.text.UART_TF_Sleep,"ax",%progbits
 129              		.align	1
 130              		.global	UART_TF_Sleep
 131              		.thumb
 132              		.thumb_func
 133              		.type	UART_TF_Sleep, %function
 134              	UART_TF_Sleep:
 135              	.LFB2:
 136              		.loc 1 171 0
 137              		.cfi_startproc
 138              		@ args = 0, pretend = 0, frame = 0
 139              		@ frame_needed = 0, uses_anonymous_args = 0
 140 0000 10B5     		push	{r4, lr}
 141              	.LCFI1:
 142              		.cfi_def_cfa_offset 8
 143              		.loc 1 174 0
 144 0002 074B     		ldr	r3, .L19
 145 0004 1B78     		ldrb	r3, [r3, #0]	@ zero_extendqisi2
 146 0006 13F01002 		ands	r2, r3, #16
 147 000a 064B     		ldr	r3, .L19+4
 148              		.loc 1 176 0
 149 000c 18BF     		it	ne
 150 000e 0122     		movne	r2, #1
 151              		.loc 1 180 0
 152 0010 1A70     		strb	r2, [r3, #0]
 153              		.loc 1 193 0
 154              		.cfi_offset 14, -4
 155              		.cfi_offset 4, -8
 156 0012 FFF7FEFF 		bl	UART_TF_Stop
 157              		.loc 1 195 0
 158 0016 BDE81040 		pop	{r4, lr}
 159              		.loc 1 194 0
 160 001a FFF7FEBF 		b	UART_TF_SaveConfig
 161              	.L20:
 162 001e 00BF     		.align	2
ARM GAS  C:\Users\SUZUKI~1\AppData\Local\Temp\ccJj3vLr.s 			page 8


 163              	.L19:
 164 0020 90640040 		.word	1073767568
 165 0024 00000000 		.word	.LANCHOR0
 166              		.cfi_endproc
 167              	.LFE2:
 168              		.size	UART_TF_Sleep, .-UART_TF_Sleep
 169              		.bss
 170              		.align	2
 171              		.set	.LANCHOR0,. + 0
 172              		.type	UART_TF_backup, %object
 173              		.size	UART_TF_backup, 3
 174              	UART_TF_backup:
 175 0000 000000   		.space	3
 176 0003 00       		.text
 177              	.Letext0:
