ARM GAS  C:\Users\SUZUKI~1\AppData\Local\Temp\cc6mu7r7.s 			page 1


   1              		.syntax unified
   2              		.cpu cortex-m3
   3              		.fpu softvfp
   4              		.eabi_attribute 20, 1
   5              		.eabi_attribute 21, 1
   6              		.eabi_attribute 23, 3
   7              		.eabi_attribute 24, 1
   8              		.eabi_attribute 25, 1
   9              		.eabi_attribute 26, 1
  10              		.eabi_attribute 30, 4
  11              		.eabi_attribute 18, 4
  12              		.thumb
  13              		.file	"UART_1_PM.c"
  14              		.section	.debug_abbrev,"",%progbits
  15              	.Ldebug_abbrev0:
  16              		.section	.debug_info,"",%progbits
  17              	.Ldebug_info0:
  18              		.section	.debug_line,"",%progbits
  19              	.Ldebug_line0:
  20 0000 D7000000 		.text
  20      02006E00 
  20      00000201 
  20      FB0E0D00 
  20      01010101 
  21              	.Ltext0:
  22              		.cfi_sections	.debug_frame
  23              		.section	.text.UART_1_SaveConfig,"ax",%progbits
  24              		.align	1
  25              		.global	UART_1_SaveConfig
  26              		.thumb
  27              		.thumb_func
  28              		.type	UART_1_SaveConfig, %function
  29              	UART_1_SaveConfig:
  30              	.LFB0:
  31              		.file 1 ".\\Generated_Source\\PSoC5\\UART_1_PM.c"
   1:.\Generated_Source\PSoC5/UART_1_PM.c **** /*******************************************************************************
   2:.\Generated_Source\PSoC5/UART_1_PM.c **** * File Name: UART_1_PM.c
   3:.\Generated_Source\PSoC5/UART_1_PM.c **** * Version 2.30
   4:.\Generated_Source\PSoC5/UART_1_PM.c **** *
   5:.\Generated_Source\PSoC5/UART_1_PM.c **** * Description:
   6:.\Generated_Source\PSoC5/UART_1_PM.c **** *  This file provides Sleep/WakeUp APIs functionality.
   7:.\Generated_Source\PSoC5/UART_1_PM.c **** *
   8:.\Generated_Source\PSoC5/UART_1_PM.c **** * Note:
   9:.\Generated_Source\PSoC5/UART_1_PM.c **** *
  10:.\Generated_Source\PSoC5/UART_1_PM.c **** ********************************************************************************
  11:.\Generated_Source\PSoC5/UART_1_PM.c **** * Copyright 2008-2012, Cypress Semiconductor Corporation.  All rights reserved.
  12:.\Generated_Source\PSoC5/UART_1_PM.c **** * You may use this file only in accordance with the license, terms, conditions,
  13:.\Generated_Source\PSoC5/UART_1_PM.c **** * disclaimers, and limitations in the end user license agreement accompanying
  14:.\Generated_Source\PSoC5/UART_1_PM.c **** * the software package with which this file was provided.
  15:.\Generated_Source\PSoC5/UART_1_PM.c **** *******************************************************************************/
  16:.\Generated_Source\PSoC5/UART_1_PM.c **** 
  17:.\Generated_Source\PSoC5/UART_1_PM.c **** #include "UART_1.h"
  18:.\Generated_Source\PSoC5/UART_1_PM.c **** 
  19:.\Generated_Source\PSoC5/UART_1_PM.c **** 
  20:.\Generated_Source\PSoC5/UART_1_PM.c **** /***************************************
  21:.\Generated_Source\PSoC5/UART_1_PM.c **** * Local data allocation
  22:.\Generated_Source\PSoC5/UART_1_PM.c **** ***************************************/
ARM GAS  C:\Users\SUZUKI~1\AppData\Local\Temp\cc6mu7r7.s 			page 2


  23:.\Generated_Source\PSoC5/UART_1_PM.c **** 
  24:.\Generated_Source\PSoC5/UART_1_PM.c **** static UART_1_BACKUP_STRUCT  UART_1_backup =
  25:.\Generated_Source\PSoC5/UART_1_PM.c **** {
  26:.\Generated_Source\PSoC5/UART_1_PM.c ****     /* enableState - disabled */
  27:.\Generated_Source\PSoC5/UART_1_PM.c ****     0u,
  28:.\Generated_Source\PSoC5/UART_1_PM.c **** };
  29:.\Generated_Source\PSoC5/UART_1_PM.c **** 
  30:.\Generated_Source\PSoC5/UART_1_PM.c **** 
  31:.\Generated_Source\PSoC5/UART_1_PM.c **** 
  32:.\Generated_Source\PSoC5/UART_1_PM.c **** /*******************************************************************************
  33:.\Generated_Source\PSoC5/UART_1_PM.c **** * Function Name: UART_1_SaveConfig
  34:.\Generated_Source\PSoC5/UART_1_PM.c **** ********************************************************************************
  35:.\Generated_Source\PSoC5/UART_1_PM.c **** *
  36:.\Generated_Source\PSoC5/UART_1_PM.c **** * Summary:
  37:.\Generated_Source\PSoC5/UART_1_PM.c **** *  Saves the current user configuration.
  38:.\Generated_Source\PSoC5/UART_1_PM.c **** *
  39:.\Generated_Source\PSoC5/UART_1_PM.c **** * Parameters:
  40:.\Generated_Source\PSoC5/UART_1_PM.c **** *  None.
  41:.\Generated_Source\PSoC5/UART_1_PM.c **** *
  42:.\Generated_Source\PSoC5/UART_1_PM.c **** * Return:
  43:.\Generated_Source\PSoC5/UART_1_PM.c **** *  None.
  44:.\Generated_Source\PSoC5/UART_1_PM.c **** *
  45:.\Generated_Source\PSoC5/UART_1_PM.c **** * Global Variables:
  46:.\Generated_Source\PSoC5/UART_1_PM.c **** *  UART_1_backup - modified when non-retention registers are saved.
  47:.\Generated_Source\PSoC5/UART_1_PM.c **** *
  48:.\Generated_Source\PSoC5/UART_1_PM.c **** * Reentrant:
  49:.\Generated_Source\PSoC5/UART_1_PM.c **** *  No.
  50:.\Generated_Source\PSoC5/UART_1_PM.c **** *
  51:.\Generated_Source\PSoC5/UART_1_PM.c **** *******************************************************************************/
  52:.\Generated_Source\PSoC5/UART_1_PM.c **** void UART_1_SaveConfig(void)
  53:.\Generated_Source\PSoC5/UART_1_PM.c **** {
  32              		.loc 1 53 0
  33              		.cfi_startproc
  34              		@ args = 0, pretend = 0, frame = 0
  35              		@ frame_needed = 0, uses_anonymous_args = 0
  36              		@ link register save eliminated.
  54:.\Generated_Source\PSoC5/UART_1_PM.c ****     #if (CY_UDB_V0)
  55:.\Generated_Source\PSoC5/UART_1_PM.c **** 
  56:.\Generated_Source\PSoC5/UART_1_PM.c ****         #if(UART_1_CONTROL_REG_REMOVED == 0u)
  57:.\Generated_Source\PSoC5/UART_1_PM.c ****             UART_1_backup.cr = UART_1_CONTROL_REG;
  58:.\Generated_Source\PSoC5/UART_1_PM.c ****         #endif /* End UART_1_CONTROL_REG_REMOVED */
  59:.\Generated_Source\PSoC5/UART_1_PM.c **** 
  60:.\Generated_Source\PSoC5/UART_1_PM.c ****         #if( (UART_1_RX_ENABLED) || (UART_1_HD_ENABLED) )
  61:.\Generated_Source\PSoC5/UART_1_PM.c ****             UART_1_backup.rx_period = UART_1_RXBITCTR_PERIOD_REG;
  37              		.loc 1 61 0
  38 0000 084B     		ldr	r3, .L3
  39 0002 1A78     		ldrb	r2, [r3, #0]	@ zero_extendqisi2
  40 0004 084B     		ldr	r3, .L3+4
  41 0006 5A70     		strb	r2, [r3, #1]
  62:.\Generated_Source\PSoC5/UART_1_PM.c ****             UART_1_backup.rx_mask = UART_1_RXSTATUS_MASK_REG;
  42              		.loc 1 62 0
  43 0008 084A     		ldr	r2, .L3+8
  44 000a 1278     		ldrb	r2, [r2, #0]	@ zero_extendqisi2
  45 000c 9A70     		strb	r2, [r3, #2]
  63:.\Generated_Source\PSoC5/UART_1_PM.c ****             #if (UART_1_RXHW_ADDRESS_ENABLED)
  64:.\Generated_Source\PSoC5/UART_1_PM.c ****                 UART_1_backup.rx_addr1 = UART_1_RXADDRESS1_REG;
  65:.\Generated_Source\PSoC5/UART_1_PM.c ****                 UART_1_backup.rx_addr2 = UART_1_RXADDRESS2_REG;
ARM GAS  C:\Users\SUZUKI~1\AppData\Local\Temp\cc6mu7r7.s 			page 3


  66:.\Generated_Source\PSoC5/UART_1_PM.c ****             #endif /* End UART_1_RXHW_ADDRESS_ENABLED */
  67:.\Generated_Source\PSoC5/UART_1_PM.c ****         #endif /* End UART_1_RX_ENABLED | UART_1_HD_ENABLED*/
  68:.\Generated_Source\PSoC5/UART_1_PM.c **** 
  69:.\Generated_Source\PSoC5/UART_1_PM.c ****         #if(UART_1_TX_ENABLED)
  70:.\Generated_Source\PSoC5/UART_1_PM.c ****             #if(UART_1_TXCLKGEN_DP)
  71:.\Generated_Source\PSoC5/UART_1_PM.c ****                 UART_1_backup.tx_clk_ctr = UART_1_TXBITCLKGEN_CTR_REG;
  46              		.loc 1 71 0
  47 000e 084A     		ldr	r2, .L3+12
  48 0010 1278     		ldrb	r2, [r2, #0]	@ zero_extendqisi2
  49 0012 DA70     		strb	r2, [r3, #3]
  72:.\Generated_Source\PSoC5/UART_1_PM.c ****                 UART_1_backup.tx_clk_compl = UART_1_TXBITCLKTX_COMPLETE_REG;
  50              		.loc 1 72 0
  51 0014 074A     		ldr	r2, .L3+16
  52 0016 1278     		ldrb	r2, [r2, #0]	@ zero_extendqisi2
  53 0018 1A71     		strb	r2, [r3, #4]
  73:.\Generated_Source\PSoC5/UART_1_PM.c ****             #else
  74:.\Generated_Source\PSoC5/UART_1_PM.c ****                 UART_1_backup.tx_period = UART_1_TXBITCTR_PERIOD_REG;
  75:.\Generated_Source\PSoC5/UART_1_PM.c ****             #endif /*End UART_1_TXCLKGEN_DP */
  76:.\Generated_Source\PSoC5/UART_1_PM.c ****             UART_1_backup.tx_mask = UART_1_TXSTATUS_MASK_REG;
  54              		.loc 1 76 0
  55 001a 074A     		ldr	r2, .L3+20
  56 001c 1278     		ldrb	r2, [r2, #0]	@ zero_extendqisi2
  57 001e 5A71     		strb	r2, [r3, #5]
  77:.\Generated_Source\PSoC5/UART_1_PM.c ****         #endif /*End UART_1_TX_ENABLED */
  78:.\Generated_Source\PSoC5/UART_1_PM.c **** 
  79:.\Generated_Source\PSoC5/UART_1_PM.c **** 
  80:.\Generated_Source\PSoC5/UART_1_PM.c ****     #else /* CY_UDB_V1 */
  81:.\Generated_Source\PSoC5/UART_1_PM.c **** 
  82:.\Generated_Source\PSoC5/UART_1_PM.c ****         #if(UART_1_CONTROL_REG_REMOVED == 0u)
  83:.\Generated_Source\PSoC5/UART_1_PM.c ****             UART_1_backup.cr = UART_1_CONTROL_REG;
  84:.\Generated_Source\PSoC5/UART_1_PM.c ****         #endif /* End UART_1_CONTROL_REG_REMOVED */
  85:.\Generated_Source\PSoC5/UART_1_PM.c **** 
  86:.\Generated_Source\PSoC5/UART_1_PM.c ****     #endif  /* End CY_UDB_V0 */
  87:.\Generated_Source\PSoC5/UART_1_PM.c **** }
  58              		.loc 1 87 0
  59 0020 7047     		bx	lr
  60              	.L4:
  61 0022 00BF     		.align	2
  62              	.L3:
  63 0024 8B650040 		.word	1073767819
  64 0028 00000000 		.word	.LANCHOR0
  65 002c 88650040 		.word	1073767816
  66 0030 27650040 		.word	1073767719
  67 0034 37650040 		.word	1073767735
  68 0038 87650040 		.word	1073767815
  69              		.cfi_endproc
  70              	.LFE0:
  71              		.size	UART_1_SaveConfig, .-UART_1_SaveConfig
  72              		.section	.text.UART_1_RestoreConfig,"ax",%progbits
  73              		.align	1
  74              		.global	UART_1_RestoreConfig
  75              		.thumb
  76              		.thumb_func
  77              		.type	UART_1_RestoreConfig, %function
  78              	UART_1_RestoreConfig:
  79              	.LFB1:
  88:.\Generated_Source\PSoC5/UART_1_PM.c **** 
ARM GAS  C:\Users\SUZUKI~1\AppData\Local\Temp\cc6mu7r7.s 			page 4


  89:.\Generated_Source\PSoC5/UART_1_PM.c **** 
  90:.\Generated_Source\PSoC5/UART_1_PM.c **** /*******************************************************************************
  91:.\Generated_Source\PSoC5/UART_1_PM.c **** * Function Name: UART_1_RestoreConfig
  92:.\Generated_Source\PSoC5/UART_1_PM.c **** ********************************************************************************
  93:.\Generated_Source\PSoC5/UART_1_PM.c **** *
  94:.\Generated_Source\PSoC5/UART_1_PM.c **** * Summary:
  95:.\Generated_Source\PSoC5/UART_1_PM.c **** *  Restores the current user configuration.
  96:.\Generated_Source\PSoC5/UART_1_PM.c **** *
  97:.\Generated_Source\PSoC5/UART_1_PM.c **** * Parameters:
  98:.\Generated_Source\PSoC5/UART_1_PM.c **** *  None.
  99:.\Generated_Source\PSoC5/UART_1_PM.c **** *
 100:.\Generated_Source\PSoC5/UART_1_PM.c **** * Return:
 101:.\Generated_Source\PSoC5/UART_1_PM.c **** *  None.
 102:.\Generated_Source\PSoC5/UART_1_PM.c **** *
 103:.\Generated_Source\PSoC5/UART_1_PM.c **** * Global Variables:
 104:.\Generated_Source\PSoC5/UART_1_PM.c **** *  UART_1_backup - used when non-retention registers are restored.
 105:.\Generated_Source\PSoC5/UART_1_PM.c **** *
 106:.\Generated_Source\PSoC5/UART_1_PM.c **** * Reentrant:
 107:.\Generated_Source\PSoC5/UART_1_PM.c **** *  No.
 108:.\Generated_Source\PSoC5/UART_1_PM.c **** *
 109:.\Generated_Source\PSoC5/UART_1_PM.c **** *******************************************************************************/
 110:.\Generated_Source\PSoC5/UART_1_PM.c **** void UART_1_RestoreConfig(void)
 111:.\Generated_Source\PSoC5/UART_1_PM.c **** {
  80              		.loc 1 111 0
  81              		.cfi_startproc
  82              		@ args = 0, pretend = 0, frame = 0
  83              		@ frame_needed = 0, uses_anonymous_args = 0
  84              		@ link register save eliminated.
 112:.\Generated_Source\PSoC5/UART_1_PM.c **** 
 113:.\Generated_Source\PSoC5/UART_1_PM.c ****     #if (CY_UDB_V0)
 114:.\Generated_Source\PSoC5/UART_1_PM.c **** 
 115:.\Generated_Source\PSoC5/UART_1_PM.c ****         #if(UART_1_CONTROL_REG_REMOVED == 0u)
 116:.\Generated_Source\PSoC5/UART_1_PM.c ****             UART_1_CONTROL_REG = UART_1_backup.cr;
 117:.\Generated_Source\PSoC5/UART_1_PM.c ****         #endif /* End UART_1_CONTROL_REG_REMOVED */
 118:.\Generated_Source\PSoC5/UART_1_PM.c **** 
 119:.\Generated_Source\PSoC5/UART_1_PM.c ****         #if( (UART_1_RX_ENABLED) || (UART_1_HD_ENABLED) )
 120:.\Generated_Source\PSoC5/UART_1_PM.c ****             UART_1_RXBITCTR_PERIOD_REG = UART_1_backup.rx_period;
  85              		.loc 1 120 0
  86 0000 084B     		ldr	r3, .L7
  87 0002 094A     		ldr	r2, .L7+4
  88 0004 5978     		ldrb	r1, [r3, #1]	@ zero_extendqisi2
  89 0006 1170     		strb	r1, [r2, #0]
 121:.\Generated_Source\PSoC5/UART_1_PM.c ****             UART_1_RXSTATUS_MASK_REG = UART_1_backup.rx_mask;
  90              		.loc 1 121 0
  91 0008 9978     		ldrb	r1, [r3, #2]	@ zero_extendqisi2
  92 000a 033A     		subs	r2, r2, #3
  93 000c 1170     		strb	r1, [r2, #0]
 122:.\Generated_Source\PSoC5/UART_1_PM.c ****             #if (UART_1_RXHW_ADDRESS_ENABLED)
 123:.\Generated_Source\PSoC5/UART_1_PM.c ****                 UART_1_RXADDRESS1_REG = UART_1_backup.rx_addr1;
 124:.\Generated_Source\PSoC5/UART_1_PM.c ****                 UART_1_RXADDRESS2_REG = UART_1_backup.rx_addr2;
 125:.\Generated_Source\PSoC5/UART_1_PM.c ****             #endif /* End UART_1_RXHW_ADDRESS_ENABLED */
 126:.\Generated_Source\PSoC5/UART_1_PM.c ****         #endif  /* End (UART_1_RX_ENABLED) || (UART_1_HD_ENABLED) */
 127:.\Generated_Source\PSoC5/UART_1_PM.c **** 
 128:.\Generated_Source\PSoC5/UART_1_PM.c ****         #if(UART_1_TX_ENABLED)
 129:.\Generated_Source\PSoC5/UART_1_PM.c ****             #if(UART_1_TXCLKGEN_DP)
 130:.\Generated_Source\PSoC5/UART_1_PM.c ****                 UART_1_TXBITCLKGEN_CTR_REG = UART_1_backup.tx_clk_ctr;
  94              		.loc 1 130 0
ARM GAS  C:\Users\SUZUKI~1\AppData\Local\Temp\cc6mu7r7.s 			page 5


  95 000e D978     		ldrb	r1, [r3, #3]	@ zero_extendqisi2
  96 0010 613A     		subs	r2, r2, #97
  97 0012 1170     		strb	r1, [r2, #0]
 131:.\Generated_Source\PSoC5/UART_1_PM.c ****                 UART_1_TXBITCLKTX_COMPLETE_REG = UART_1_backup.tx_clk_compl;
  98              		.loc 1 131 0
  99 0014 1979     		ldrb	r1, [r3, #4]	@ zero_extendqisi2
 100 0016 1032     		adds	r2, r2, #16
 101 0018 1170     		strb	r1, [r2, #0]
 132:.\Generated_Source\PSoC5/UART_1_PM.c ****             #else
 133:.\Generated_Source\PSoC5/UART_1_PM.c ****                 UART_1_TXBITCTR_PERIOD_REG = UART_1_backup.tx_period;
 134:.\Generated_Source\PSoC5/UART_1_PM.c ****             #endif /*End UART_1_TXCLKGEN_DP */
 135:.\Generated_Source\PSoC5/UART_1_PM.c ****             UART_1_TXSTATUS_MASK_REG = UART_1_backup.tx_mask;
 102              		.loc 1 135 0
 103 001a 5A79     		ldrb	r2, [r3, #5]	@ zero_extendqisi2
 104 001c 034B     		ldr	r3, .L7+8
 105 001e 1A70     		strb	r2, [r3, #0]
 136:.\Generated_Source\PSoC5/UART_1_PM.c ****         #endif /*End UART_1_TX_ENABLED */
 137:.\Generated_Source\PSoC5/UART_1_PM.c **** 
 138:.\Generated_Source\PSoC5/UART_1_PM.c ****     #else /* CY_UDB_V1 */
 139:.\Generated_Source\PSoC5/UART_1_PM.c **** 
 140:.\Generated_Source\PSoC5/UART_1_PM.c ****         #if(UART_1_CONTROL_REG_REMOVED == 0u)
 141:.\Generated_Source\PSoC5/UART_1_PM.c ****             UART_1_CONTROL_REG = UART_1_backup.cr;
 142:.\Generated_Source\PSoC5/UART_1_PM.c ****         #endif /* End UART_1_CONTROL_REG_REMOVED */
 143:.\Generated_Source\PSoC5/UART_1_PM.c **** 
 144:.\Generated_Source\PSoC5/UART_1_PM.c ****     #endif  /* End CY_UDB_V0 */
 145:.\Generated_Source\PSoC5/UART_1_PM.c **** }
 106              		.loc 1 145 0
 107 0020 7047     		bx	lr
 108              	.L8:
 109 0022 00BF     		.align	2
 110              	.L7:
 111 0024 00000000 		.word	.LANCHOR0
 112 0028 8B650040 		.word	1073767819
 113 002c 87650040 		.word	1073767815
 114              		.cfi_endproc
 115              	.LFE1:
 116              		.size	UART_1_RestoreConfig, .-UART_1_RestoreConfig
 117              		.section	.text.UART_1_Wakeup,"ax",%progbits
 118              		.align	1
 119              		.global	UART_1_Wakeup
 120              		.thumb
 121              		.thumb_func
 122              		.type	UART_1_Wakeup, %function
 123              	UART_1_Wakeup:
 124              	.LFB3:
 146:.\Generated_Source\PSoC5/UART_1_PM.c **** 
 147:.\Generated_Source\PSoC5/UART_1_PM.c **** 
 148:.\Generated_Source\PSoC5/UART_1_PM.c **** /*******************************************************************************
 149:.\Generated_Source\PSoC5/UART_1_PM.c **** * Function Name: UART_1_Sleep
 150:.\Generated_Source\PSoC5/UART_1_PM.c **** ********************************************************************************
 151:.\Generated_Source\PSoC5/UART_1_PM.c **** *
 152:.\Generated_Source\PSoC5/UART_1_PM.c **** * Summary:
 153:.\Generated_Source\PSoC5/UART_1_PM.c **** *  Stops and saves the user configuration. Should be called
 154:.\Generated_Source\PSoC5/UART_1_PM.c **** *  just prior to entering sleep.
 155:.\Generated_Source\PSoC5/UART_1_PM.c **** *
 156:.\Generated_Source\PSoC5/UART_1_PM.c **** *
 157:.\Generated_Source\PSoC5/UART_1_PM.c **** * Parameters:
ARM GAS  C:\Users\SUZUKI~1\AppData\Local\Temp\cc6mu7r7.s 			page 6


 158:.\Generated_Source\PSoC5/UART_1_PM.c **** *  None.
 159:.\Generated_Source\PSoC5/UART_1_PM.c **** *
 160:.\Generated_Source\PSoC5/UART_1_PM.c **** * Return:
 161:.\Generated_Source\PSoC5/UART_1_PM.c **** *  None.
 162:.\Generated_Source\PSoC5/UART_1_PM.c **** *
 163:.\Generated_Source\PSoC5/UART_1_PM.c **** * Global Variables:
 164:.\Generated_Source\PSoC5/UART_1_PM.c **** *  UART_1_backup - modified when non-retention registers are saved.
 165:.\Generated_Source\PSoC5/UART_1_PM.c **** *
 166:.\Generated_Source\PSoC5/UART_1_PM.c **** * Reentrant:
 167:.\Generated_Source\PSoC5/UART_1_PM.c **** *  No.
 168:.\Generated_Source\PSoC5/UART_1_PM.c **** *
 169:.\Generated_Source\PSoC5/UART_1_PM.c **** *******************************************************************************/
 170:.\Generated_Source\PSoC5/UART_1_PM.c **** void UART_1_Sleep(void)
 171:.\Generated_Source\PSoC5/UART_1_PM.c **** {
 172:.\Generated_Source\PSoC5/UART_1_PM.c **** 
 173:.\Generated_Source\PSoC5/UART_1_PM.c ****     #if(UART_1_RX_ENABLED || UART_1_HD_ENABLED)
 174:.\Generated_Source\PSoC5/UART_1_PM.c ****         if((UART_1_RXSTATUS_ACTL_REG  & UART_1_INT_ENABLE) != 0u)
 175:.\Generated_Source\PSoC5/UART_1_PM.c ****         {
 176:.\Generated_Source\PSoC5/UART_1_PM.c ****             UART_1_backup.enableState = 1u;
 177:.\Generated_Source\PSoC5/UART_1_PM.c ****         }
 178:.\Generated_Source\PSoC5/UART_1_PM.c ****         else
 179:.\Generated_Source\PSoC5/UART_1_PM.c ****         {
 180:.\Generated_Source\PSoC5/UART_1_PM.c ****             UART_1_backup.enableState = 0u;
 181:.\Generated_Source\PSoC5/UART_1_PM.c ****         }
 182:.\Generated_Source\PSoC5/UART_1_PM.c ****     #else
 183:.\Generated_Source\PSoC5/UART_1_PM.c ****         if((UART_1_TXSTATUS_ACTL_REG  & UART_1_INT_ENABLE) !=0u)
 184:.\Generated_Source\PSoC5/UART_1_PM.c ****         {
 185:.\Generated_Source\PSoC5/UART_1_PM.c ****             UART_1_backup.enableState = 1u;
 186:.\Generated_Source\PSoC5/UART_1_PM.c ****         }
 187:.\Generated_Source\PSoC5/UART_1_PM.c ****         else
 188:.\Generated_Source\PSoC5/UART_1_PM.c ****         {
 189:.\Generated_Source\PSoC5/UART_1_PM.c ****             UART_1_backup.enableState = 0u;
 190:.\Generated_Source\PSoC5/UART_1_PM.c ****         }
 191:.\Generated_Source\PSoC5/UART_1_PM.c ****     #endif /* End UART_1_RX_ENABLED || UART_1_HD_ENABLED*/
 192:.\Generated_Source\PSoC5/UART_1_PM.c **** 
 193:.\Generated_Source\PSoC5/UART_1_PM.c ****     UART_1_Stop();
 194:.\Generated_Source\PSoC5/UART_1_PM.c ****     UART_1_SaveConfig();
 195:.\Generated_Source\PSoC5/UART_1_PM.c **** }
 196:.\Generated_Source\PSoC5/UART_1_PM.c **** 
 197:.\Generated_Source\PSoC5/UART_1_PM.c **** 
 198:.\Generated_Source\PSoC5/UART_1_PM.c **** /*******************************************************************************
 199:.\Generated_Source\PSoC5/UART_1_PM.c **** * Function Name: UART_1_Wakeup
 200:.\Generated_Source\PSoC5/UART_1_PM.c **** ********************************************************************************
 201:.\Generated_Source\PSoC5/UART_1_PM.c **** *
 202:.\Generated_Source\PSoC5/UART_1_PM.c **** * Summary:
 203:.\Generated_Source\PSoC5/UART_1_PM.c **** *  Restores and enables the user configuration. Should be called
 204:.\Generated_Source\PSoC5/UART_1_PM.c **** *  just after awaking from sleep.
 205:.\Generated_Source\PSoC5/UART_1_PM.c **** *
 206:.\Generated_Source\PSoC5/UART_1_PM.c **** * Parameters:
 207:.\Generated_Source\PSoC5/UART_1_PM.c **** *  None.
 208:.\Generated_Source\PSoC5/UART_1_PM.c **** *
 209:.\Generated_Source\PSoC5/UART_1_PM.c **** * Return:
 210:.\Generated_Source\PSoC5/UART_1_PM.c **** *  None.
 211:.\Generated_Source\PSoC5/UART_1_PM.c **** *
 212:.\Generated_Source\PSoC5/UART_1_PM.c **** * Global Variables:
 213:.\Generated_Source\PSoC5/UART_1_PM.c **** *  UART_1_backup - used when non-retention registers are restored.
 214:.\Generated_Source\PSoC5/UART_1_PM.c **** *
ARM GAS  C:\Users\SUZUKI~1\AppData\Local\Temp\cc6mu7r7.s 			page 7


 215:.\Generated_Source\PSoC5/UART_1_PM.c **** * Reentrant:
 216:.\Generated_Source\PSoC5/UART_1_PM.c **** *  No.
 217:.\Generated_Source\PSoC5/UART_1_PM.c **** *
 218:.\Generated_Source\PSoC5/UART_1_PM.c **** *******************************************************************************/
 219:.\Generated_Source\PSoC5/UART_1_PM.c **** void UART_1_Wakeup(void)
 220:.\Generated_Source\PSoC5/UART_1_PM.c **** {
 125              		.loc 1 220 0
 126              		.cfi_startproc
 127              		@ args = 0, pretend = 0, frame = 0
 128              		@ frame_needed = 0, uses_anonymous_args = 0
 129 0000 10B5     		push	{r4, lr}
 130              	.LCFI0:
 131              		.cfi_def_cfa_offset 8
 221:.\Generated_Source\PSoC5/UART_1_PM.c ****     UART_1_RestoreConfig();
 132              		.loc 1 221 0
 133              		.cfi_offset 14, -4
 134              		.cfi_offset 4, -8
 135 0002 FFF7FEFF 		bl	UART_1_RestoreConfig
 222:.\Generated_Source\PSoC5/UART_1_PM.c ****     #if( (UART_1_RX_ENABLED) || (UART_1_HD_ENABLED) )
 223:.\Generated_Source\PSoC5/UART_1_PM.c ****         UART_1_ClearRxBuffer();
 136              		.loc 1 223 0
 137 0006 FFF7FEFF 		bl	UART_1_ClearRxBuffer
 224:.\Generated_Source\PSoC5/UART_1_PM.c ****     #endif /* End (UART_1_RX_ENABLED) || (UART_1_HD_ENABLED) */
 225:.\Generated_Source\PSoC5/UART_1_PM.c ****     #if(UART_1_TX_ENABLED || UART_1_HD_ENABLED)
 226:.\Generated_Source\PSoC5/UART_1_PM.c ****         UART_1_ClearTxBuffer();
 138              		.loc 1 226 0
 139 000a FFF7FEFF 		bl	UART_1_ClearTxBuffer
 227:.\Generated_Source\PSoC5/UART_1_PM.c ****     #endif /* End UART_1_TX_ENABLED || UART_1_HD_ENABLED */
 228:.\Generated_Source\PSoC5/UART_1_PM.c **** 
 229:.\Generated_Source\PSoC5/UART_1_PM.c ****     if(UART_1_backup.enableState != 0u)
 140              		.loc 1 229 0
 141 000e 044B     		ldr	r3, .L13
 142 0010 1B78     		ldrb	r3, [r3, #0]	@ zero_extendqisi2
 143 0012 1BB1     		cbz	r3, .L11
 230:.\Generated_Source\PSoC5/UART_1_PM.c ****     {
 231:.\Generated_Source\PSoC5/UART_1_PM.c ****         UART_1_Enable();
 232:.\Generated_Source\PSoC5/UART_1_PM.c ****     }
 233:.\Generated_Source\PSoC5/UART_1_PM.c **** }
 144              		.loc 1 233 0
 145 0014 BDE81040 		pop	{r4, lr}
 146              		.loc 1 231 0
 147 0018 FFF7FEBF 		b	UART_1_Enable
 148              	.L11:
 149 001c 10BD     		pop	{r4, pc}
 150              	.L14:
 151 001e 00BF     		.align	2
 152              	.L13:
 153 0020 00000000 		.word	.LANCHOR0
 154              		.cfi_endproc
 155              	.LFE3:
 156              		.size	UART_1_Wakeup, .-UART_1_Wakeup
 157              		.section	.text.UART_1_Sleep,"ax",%progbits
 158              		.align	1
 159              		.global	UART_1_Sleep
 160              		.thumb
 161              		.thumb_func
 162              		.type	UART_1_Sleep, %function
ARM GAS  C:\Users\SUZUKI~1\AppData\Local\Temp\cc6mu7r7.s 			page 8


 163              	UART_1_Sleep:
 164              	.LFB2:
 165              		.loc 1 171 0
 166              		.cfi_startproc
 167              		@ args = 0, pretend = 0, frame = 0
 168              		@ frame_needed = 0, uses_anonymous_args = 0
 169 0000 10B5     		push	{r4, lr}
 170              	.LCFI1:
 171              		.cfi_def_cfa_offset 8
 172              		.loc 1 174 0
 173 0002 074B     		ldr	r3, .L19
 174 0004 1B78     		ldrb	r3, [r3, #0]	@ zero_extendqisi2
 175 0006 13F01002 		ands	r2, r3, #16
 176 000a 064B     		ldr	r3, .L19+4
 177              		.loc 1 176 0
 178 000c 18BF     		it	ne
 179 000e 0122     		movne	r2, #1
 180              		.loc 1 180 0
 181 0010 1A70     		strb	r2, [r3, #0]
 182              		.loc 1 193 0
 183              		.cfi_offset 14, -4
 184              		.cfi_offset 4, -8
 185 0012 FFF7FEFF 		bl	UART_1_Stop
 186              		.loc 1 195 0
 187 0016 BDE81040 		pop	{r4, lr}
 188              		.loc 1 194 0
 189 001a FFF7FEBF 		b	UART_1_SaveConfig
 190              	.L20:
 191 001e 00BF     		.align	2
 192              	.L19:
 193 0020 98650040 		.word	1073767832
 194 0024 00000000 		.word	.LANCHOR0
 195              		.cfi_endproc
 196              	.LFE2:
 197              		.size	UART_1_Sleep, .-UART_1_Sleep
 198              		.bss
 199              		.align	2
 200              		.set	.LANCHOR0,. + 0
 201              		.type	UART_1_backup, %object
 202              		.size	UART_1_backup, 6
 203              	UART_1_backup:
 204 0000 00000000 		.space	6
 204      0000
 205 0006 0000     		.text
 206              	.Letext0:
