ARM GAS  C:\Users\SUZUKI~1\AppData\Local\Temp\ccl3qvXc.s 			page 1


   1              		.syntax unified
   2              		.cpu cortex-m3
   3              		.fpu softvfp
   4              		.eabi_attribute 20, 1
   5              		.eabi_attribute 21, 1
   6              		.eabi_attribute 23, 3
   7              		.eabi_attribute 24, 1
   8              		.eabi_attribute 25, 1
   9              		.eabi_attribute 26, 1
  10              		.eabi_attribute 30, 4
  11              		.eabi_attribute 18, 4
  12              		.thumb
  13              		.file	"UART_1_IntClock.c"
  14              		.section	.debug_abbrev,"",%progbits
  15              	.Ldebug_abbrev0:
  16              		.section	.debug_info,"",%progbits
  17              	.Ldebug_info0:
  18              		.section	.debug_line,"",%progbits
  19              	.Ldebug_line0:
  20 0000 61010000 		.text
  20      02006700 
  20      00000201 
  20      FB0E0D00 
  20      01010101 
  21              	.Ltext0:
  22              		.cfi_sections	.debug_frame
  23              		.section	.text.UART_1_IntClock_Start,"ax",%progbits
  24              		.align	1
  25              		.global	UART_1_IntClock_Start
  26              		.thumb
  27              		.thumb_func
  28              		.type	UART_1_IntClock_Start, %function
  29              	UART_1_IntClock_Start:
  30              	.LFB0:
  31              		.file 1 ".\\Generated_Source\\PSoC5\\UART_1_IntClock.c"
   1:.\Generated_Source\PSoC5/UART_1_IntClock.c **** /*******************************************************************************
   2:.\Generated_Source\PSoC5/UART_1_IntClock.c **** * File Name: UART_1_IntClock.c
   3:.\Generated_Source\PSoC5/UART_1_IntClock.c **** * Version 2.0
   4:.\Generated_Source\PSoC5/UART_1_IntClock.c **** *
   5:.\Generated_Source\PSoC5/UART_1_IntClock.c **** *  Description:
   6:.\Generated_Source\PSoC5/UART_1_IntClock.c **** *   This file provides the source code to the API for the clock component.
   7:.\Generated_Source\PSoC5/UART_1_IntClock.c **** *
   8:.\Generated_Source\PSoC5/UART_1_IntClock.c **** *  Note:
   9:.\Generated_Source\PSoC5/UART_1_IntClock.c **** *
  10:.\Generated_Source\PSoC5/UART_1_IntClock.c **** ********************************************************************************
  11:.\Generated_Source\PSoC5/UART_1_IntClock.c **** * Copyright 2008-2012, Cypress Semiconductor Corporation.  All rights reserved.
  12:.\Generated_Source\PSoC5/UART_1_IntClock.c **** * You may use this file only in accordance with the license, terms, conditions, 
  13:.\Generated_Source\PSoC5/UART_1_IntClock.c **** * disclaimers, and limitations in the end user license agreement accompanying 
  14:.\Generated_Source\PSoC5/UART_1_IntClock.c **** * the software package with which this file was provided.
  15:.\Generated_Source\PSoC5/UART_1_IntClock.c **** *******************************************************************************/
  16:.\Generated_Source\PSoC5/UART_1_IntClock.c **** 
  17:.\Generated_Source\PSoC5/UART_1_IntClock.c **** #include <cydevice_trm.h>
  18:.\Generated_Source\PSoC5/UART_1_IntClock.c **** #include "UART_1_IntClock.h"
  19:.\Generated_Source\PSoC5/UART_1_IntClock.c **** 
  20:.\Generated_Source\PSoC5/UART_1_IntClock.c **** /* Clock Distribution registers. */
  21:.\Generated_Source\PSoC5/UART_1_IntClock.c **** #define CLK_DIST_LD              (* (reg8 *) CYREG_CLKDIST_LD)
  22:.\Generated_Source\PSoC5/UART_1_IntClock.c **** #define CLK_DIST_BCFG2           (* (reg8 *) CYREG_CLKDIST_BCFG2)
ARM GAS  C:\Users\SUZUKI~1\AppData\Local\Temp\ccl3qvXc.s 			page 2


  23:.\Generated_Source\PSoC5/UART_1_IntClock.c **** #define BCFG2_MASK               (0x80u)
  24:.\Generated_Source\PSoC5/UART_1_IntClock.c **** #define CLK_DIST_DMASK           (* (reg8 *) CYREG_CLKDIST_DMASK)
  25:.\Generated_Source\PSoC5/UART_1_IntClock.c **** #define CLK_DIST_AMASK           (* (reg8 *) CYREG_CLKDIST_AMASK)
  26:.\Generated_Source\PSoC5/UART_1_IntClock.c **** 
  27:.\Generated_Source\PSoC5/UART_1_IntClock.c **** #define HAS_CLKDIST_LD_DISABLE   (CY_PSOC3 || CY_PSOC5LP)
  28:.\Generated_Source\PSoC5/UART_1_IntClock.c **** 
  29:.\Generated_Source\PSoC5/UART_1_IntClock.c **** 
  30:.\Generated_Source\PSoC5/UART_1_IntClock.c **** /*******************************************************************************
  31:.\Generated_Source\PSoC5/UART_1_IntClock.c **** * Function Name: UART_1_IntClock_Start
  32:.\Generated_Source\PSoC5/UART_1_IntClock.c **** ********************************************************************************
  33:.\Generated_Source\PSoC5/UART_1_IntClock.c **** *
  34:.\Generated_Source\PSoC5/UART_1_IntClock.c **** * Summary:
  35:.\Generated_Source\PSoC5/UART_1_IntClock.c **** *  Starts the clock. Note that on startup, clocks may be already running if the
  36:.\Generated_Source\PSoC5/UART_1_IntClock.c **** *  "Start on Reset" option is enabled in the DWR.
  37:.\Generated_Source\PSoC5/UART_1_IntClock.c **** *
  38:.\Generated_Source\PSoC5/UART_1_IntClock.c **** * Parameters:
  39:.\Generated_Source\PSoC5/UART_1_IntClock.c **** *  None
  40:.\Generated_Source\PSoC5/UART_1_IntClock.c **** *
  41:.\Generated_Source\PSoC5/UART_1_IntClock.c **** * Returns:
  42:.\Generated_Source\PSoC5/UART_1_IntClock.c **** *  None
  43:.\Generated_Source\PSoC5/UART_1_IntClock.c **** *
  44:.\Generated_Source\PSoC5/UART_1_IntClock.c **** *******************************************************************************/
  45:.\Generated_Source\PSoC5/UART_1_IntClock.c **** void UART_1_IntClock_Start(void) 
  46:.\Generated_Source\PSoC5/UART_1_IntClock.c **** {
  32              		.loc 1 46 0
  33              		.cfi_startproc
  34              		@ args = 0, pretend = 0, frame = 0
  35              		@ frame_needed = 0, uses_anonymous_args = 0
  36              		@ link register save eliminated.
  47:.\Generated_Source\PSoC5/UART_1_IntClock.c ****     /* Set the bit to enable the clock. */
  48:.\Generated_Source\PSoC5/UART_1_IntClock.c ****     UART_1_IntClock_CLKEN |= UART_1_IntClock_CLKEN_MASK;
  37              		.loc 1 48 0
  38 0000 054B     		ldr	r3, .L3
  39 0002 1A78     		ldrb	r2, [r3, #0]	@ zero_extendqisi2
  40 0004 42F00202 		orr	r2, r2, #2
  41 0008 1A70     		strb	r2, [r3, #0]
  49:.\Generated_Source\PSoC5/UART_1_IntClock.c **** 	UART_1_IntClock_CLKSTBY |= UART_1_IntClock_CLKSTBY_MASK;
  42              		.loc 1 49 0
  43 000a 1033     		adds	r3, r3, #16
  44 000c 1A78     		ldrb	r2, [r3, #0]	@ zero_extendqisi2
  45 000e 42F00202 		orr	r2, r2, #2
  46 0012 1A70     		strb	r2, [r3, #0]
  50:.\Generated_Source\PSoC5/UART_1_IntClock.c **** }
  47              		.loc 1 50 0
  48 0014 7047     		bx	lr
  49              	.L4:
  50 0016 00BF     		.align	2
  51              	.L3:
  52 0018 A2430040 		.word	1073759138
  53              		.cfi_endproc
  54              	.LFE0:
  55              		.size	UART_1_IntClock_Start, .-UART_1_IntClock_Start
  56              		.section	.text.UART_1_IntClock_Stop,"ax",%progbits
  57              		.align	1
  58              		.global	UART_1_IntClock_Stop
  59              		.thumb
  60              		.thumb_func
ARM GAS  C:\Users\SUZUKI~1\AppData\Local\Temp\ccl3qvXc.s 			page 3


  61              		.type	UART_1_IntClock_Stop, %function
  62              	UART_1_IntClock_Stop:
  63              	.LFB1:
  51:.\Generated_Source\PSoC5/UART_1_IntClock.c **** 
  52:.\Generated_Source\PSoC5/UART_1_IntClock.c **** 
  53:.\Generated_Source\PSoC5/UART_1_IntClock.c **** /*******************************************************************************
  54:.\Generated_Source\PSoC5/UART_1_IntClock.c **** * Function Name: UART_1_IntClock_Stop
  55:.\Generated_Source\PSoC5/UART_1_IntClock.c **** ********************************************************************************
  56:.\Generated_Source\PSoC5/UART_1_IntClock.c **** *
  57:.\Generated_Source\PSoC5/UART_1_IntClock.c **** * Summary:
  58:.\Generated_Source\PSoC5/UART_1_IntClock.c **** *  Stops the clock and returns immediately. This API does not require the
  59:.\Generated_Source\PSoC5/UART_1_IntClock.c **** *  source clock to be running but may return before the hardware is actually
  60:.\Generated_Source\PSoC5/UART_1_IntClock.c **** *  disabled. If the settings of the clock are changed after calling this
  61:.\Generated_Source\PSoC5/UART_1_IntClock.c **** *  function, the clock may glitch when it is started. To avoid the clock
  62:.\Generated_Source\PSoC5/UART_1_IntClock.c **** *  glitch, use the StopBlock function.
  63:.\Generated_Source\PSoC5/UART_1_IntClock.c **** *
  64:.\Generated_Source\PSoC5/UART_1_IntClock.c **** * Parameters:
  65:.\Generated_Source\PSoC5/UART_1_IntClock.c **** *  None
  66:.\Generated_Source\PSoC5/UART_1_IntClock.c **** *
  67:.\Generated_Source\PSoC5/UART_1_IntClock.c **** * Returns:
  68:.\Generated_Source\PSoC5/UART_1_IntClock.c **** *  None
  69:.\Generated_Source\PSoC5/UART_1_IntClock.c **** *
  70:.\Generated_Source\PSoC5/UART_1_IntClock.c **** *******************************************************************************/
  71:.\Generated_Source\PSoC5/UART_1_IntClock.c **** void UART_1_IntClock_Stop(void) 
  72:.\Generated_Source\PSoC5/UART_1_IntClock.c **** {
  64              		.loc 1 72 0
  65              		.cfi_startproc
  66              		@ args = 0, pretend = 0, frame = 0
  67              		@ frame_needed = 0, uses_anonymous_args = 0
  68              		@ link register save eliminated.
  73:.\Generated_Source\PSoC5/UART_1_IntClock.c ****     /* Clear the bit to disable the clock. */
  74:.\Generated_Source\PSoC5/UART_1_IntClock.c ****     UART_1_IntClock_CLKEN &= (uint8)(~UART_1_IntClock_CLKEN_MASK);
  69              		.loc 1 74 0
  70 0000 054B     		ldr	r3, .L7
  71 0002 1A78     		ldrb	r2, [r3, #0]	@ zero_extendqisi2
  72 0004 02F0FD02 		and	r2, r2, #253
  73 0008 1A70     		strb	r2, [r3, #0]
  75:.\Generated_Source\PSoC5/UART_1_IntClock.c **** 	UART_1_IntClock_CLKSTBY &= (uint8)(~UART_1_IntClock_CLKSTBY_MASK);
  74              		.loc 1 75 0
  75 000a 1033     		adds	r3, r3, #16
  76 000c 1A78     		ldrb	r2, [r3, #0]	@ zero_extendqisi2
  77 000e 02F0FD02 		and	r2, r2, #253
  78 0012 1A70     		strb	r2, [r3, #0]
  76:.\Generated_Source\PSoC5/UART_1_IntClock.c **** }
  79              		.loc 1 76 0
  80 0014 7047     		bx	lr
  81              	.L8:
  82 0016 00BF     		.align	2
  83              	.L7:
  84 0018 A2430040 		.word	1073759138
  85              		.cfi_endproc
  86              	.LFE1:
  87              		.size	UART_1_IntClock_Stop, .-UART_1_IntClock_Stop
  88              		.section	.text.UART_1_IntClock_StandbyPower,"ax",%progbits
  89              		.align	1
  90              		.global	UART_1_IntClock_StandbyPower
  91              		.thumb
ARM GAS  C:\Users\SUZUKI~1\AppData\Local\Temp\ccl3qvXc.s 			page 4


  92              		.thumb_func
  93              		.type	UART_1_IntClock_StandbyPower, %function
  94              	UART_1_IntClock_StandbyPower:
  95              	.LFB2:
  77:.\Generated_Source\PSoC5/UART_1_IntClock.c **** 
  78:.\Generated_Source\PSoC5/UART_1_IntClock.c **** 
  79:.\Generated_Source\PSoC5/UART_1_IntClock.c **** #if(CY_PSOC3 || CY_PSOC5LP)
  80:.\Generated_Source\PSoC5/UART_1_IntClock.c **** 
  81:.\Generated_Source\PSoC5/UART_1_IntClock.c **** 
  82:.\Generated_Source\PSoC5/UART_1_IntClock.c **** /*******************************************************************************
  83:.\Generated_Source\PSoC5/UART_1_IntClock.c **** * Function Name: UART_1_IntClock_StopBlock
  84:.\Generated_Source\PSoC5/UART_1_IntClock.c **** ********************************************************************************
  85:.\Generated_Source\PSoC5/UART_1_IntClock.c **** *
  86:.\Generated_Source\PSoC5/UART_1_IntClock.c **** * Summary:
  87:.\Generated_Source\PSoC5/UART_1_IntClock.c **** *  Stops the clock and waits for the hardware to actually be disabled before
  88:.\Generated_Source\PSoC5/UART_1_IntClock.c **** *  returning. This ensures that the clock is never truncated (high part of the
  89:.\Generated_Source\PSoC5/UART_1_IntClock.c **** *  cycle will terminate before the clock is disabled and the API returns).
  90:.\Generated_Source\PSoC5/UART_1_IntClock.c **** *  Note that the source clock must be running or this API will never return as
  91:.\Generated_Source\PSoC5/UART_1_IntClock.c **** *  a stopped clock cannot be disabled.
  92:.\Generated_Source\PSoC5/UART_1_IntClock.c **** *
  93:.\Generated_Source\PSoC5/UART_1_IntClock.c **** * Parameters:
  94:.\Generated_Source\PSoC5/UART_1_IntClock.c **** *  None
  95:.\Generated_Source\PSoC5/UART_1_IntClock.c **** *
  96:.\Generated_Source\PSoC5/UART_1_IntClock.c **** * Returns:
  97:.\Generated_Source\PSoC5/UART_1_IntClock.c **** *  None
  98:.\Generated_Source\PSoC5/UART_1_IntClock.c **** *
  99:.\Generated_Source\PSoC5/UART_1_IntClock.c **** *******************************************************************************/
 100:.\Generated_Source\PSoC5/UART_1_IntClock.c **** void UART_1_IntClock_StopBlock(void) 
 101:.\Generated_Source\PSoC5/UART_1_IntClock.c **** {
 102:.\Generated_Source\PSoC5/UART_1_IntClock.c ****     if ((UART_1_IntClock_CLKEN & UART_1_IntClock_CLKEN_MASK) != 0u)
 103:.\Generated_Source\PSoC5/UART_1_IntClock.c ****     {
 104:.\Generated_Source\PSoC5/UART_1_IntClock.c **** #if HAS_CLKDIST_LD_DISABLE
 105:.\Generated_Source\PSoC5/UART_1_IntClock.c ****         uint16 oldDivider;
 106:.\Generated_Source\PSoC5/UART_1_IntClock.c **** 
 107:.\Generated_Source\PSoC5/UART_1_IntClock.c ****         CLK_DIST_LD = 0u;
 108:.\Generated_Source\PSoC5/UART_1_IntClock.c **** 
 109:.\Generated_Source\PSoC5/UART_1_IntClock.c ****         /* Clear all the mask bits except ours. */
 110:.\Generated_Source\PSoC5/UART_1_IntClock.c **** #if defined(UART_1_IntClock__CFG3)
 111:.\Generated_Source\PSoC5/UART_1_IntClock.c ****         CLK_DIST_AMASK = UART_1_IntClock_CLKEN_MASK;
 112:.\Generated_Source\PSoC5/UART_1_IntClock.c ****         CLK_DIST_DMASK = 0x00u;
 113:.\Generated_Source\PSoC5/UART_1_IntClock.c **** #else
 114:.\Generated_Source\PSoC5/UART_1_IntClock.c ****         CLK_DIST_DMASK = UART_1_IntClock_CLKEN_MASK;
 115:.\Generated_Source\PSoC5/UART_1_IntClock.c ****         CLK_DIST_AMASK = 0x00u;
 116:.\Generated_Source\PSoC5/UART_1_IntClock.c **** #endif /* UART_1_IntClock__CFG3 */
 117:.\Generated_Source\PSoC5/UART_1_IntClock.c **** 
 118:.\Generated_Source\PSoC5/UART_1_IntClock.c ****         /* Clear mask of bus clock. */
 119:.\Generated_Source\PSoC5/UART_1_IntClock.c ****         CLK_DIST_BCFG2 &= (uint8)(~BCFG2_MASK);
 120:.\Generated_Source\PSoC5/UART_1_IntClock.c **** 
 121:.\Generated_Source\PSoC5/UART_1_IntClock.c ****         oldDivider = CY_GET_REG16(UART_1_IntClock_DIV_PTR);
 122:.\Generated_Source\PSoC5/UART_1_IntClock.c ****         CY_SET_REG16(CYREG_CLKDIST_WRK0, oldDivider);
 123:.\Generated_Source\PSoC5/UART_1_IntClock.c ****         CLK_DIST_LD = CYCLK_LD_DISABLE | CYCLK_LD_SYNC_EN | CYCLK_LD_LOAD;
 124:.\Generated_Source\PSoC5/UART_1_IntClock.c **** 
 125:.\Generated_Source\PSoC5/UART_1_IntClock.c ****         /* Wait for clock to be disabled */
 126:.\Generated_Source\PSoC5/UART_1_IntClock.c ****         while ((CLK_DIST_LD & CYCLK_LD_LOAD) != 0u) { }
 127:.\Generated_Source\PSoC5/UART_1_IntClock.c **** #endif /* HAS_CLKDIST_LD_DISABLE */
 128:.\Generated_Source\PSoC5/UART_1_IntClock.c **** 
 129:.\Generated_Source\PSoC5/UART_1_IntClock.c ****         /* Clear the bit to disable the clock. */
ARM GAS  C:\Users\SUZUKI~1\AppData\Local\Temp\ccl3qvXc.s 			page 5


 130:.\Generated_Source\PSoC5/UART_1_IntClock.c ****         UART_1_IntClock_CLKEN &= (uint8)(~UART_1_IntClock_CLKEN_MASK);
 131:.\Generated_Source\PSoC5/UART_1_IntClock.c ****         UART_1_IntClock_CLKSTBY &= (uint8)(~UART_1_IntClock_CLKSTBY_MASK);
 132:.\Generated_Source\PSoC5/UART_1_IntClock.c **** 
 133:.\Generated_Source\PSoC5/UART_1_IntClock.c **** #if HAS_CLKDIST_LD_DISABLE
 134:.\Generated_Source\PSoC5/UART_1_IntClock.c ****         /* Clear the disable bit */
 135:.\Generated_Source\PSoC5/UART_1_IntClock.c ****         CLK_DIST_LD = 0x00u;
 136:.\Generated_Source\PSoC5/UART_1_IntClock.c ****         CY_SET_REG16(UART_1_IntClock_DIV_PTR, oldDivider);
 137:.\Generated_Source\PSoC5/UART_1_IntClock.c **** #endif /* HAS_CLKDIST_LD_DISABLE */
 138:.\Generated_Source\PSoC5/UART_1_IntClock.c ****     }
 139:.\Generated_Source\PSoC5/UART_1_IntClock.c **** }
 140:.\Generated_Source\PSoC5/UART_1_IntClock.c **** #endif /* (CY_PSOC3 || CY_PSOC5LP) */
 141:.\Generated_Source\PSoC5/UART_1_IntClock.c **** 
 142:.\Generated_Source\PSoC5/UART_1_IntClock.c **** 
 143:.\Generated_Source\PSoC5/UART_1_IntClock.c **** /*******************************************************************************
 144:.\Generated_Source\PSoC5/UART_1_IntClock.c **** * Function Name: UART_1_IntClock_StandbyPower
 145:.\Generated_Source\PSoC5/UART_1_IntClock.c **** ********************************************************************************
 146:.\Generated_Source\PSoC5/UART_1_IntClock.c **** *
 147:.\Generated_Source\PSoC5/UART_1_IntClock.c **** * Summary:
 148:.\Generated_Source\PSoC5/UART_1_IntClock.c **** *  Sets whether the clock is active in standby mode.
 149:.\Generated_Source\PSoC5/UART_1_IntClock.c **** *
 150:.\Generated_Source\PSoC5/UART_1_IntClock.c **** * Parameters:
 151:.\Generated_Source\PSoC5/UART_1_IntClock.c **** *  state:  0 to disable clock during standby, nonzero to enable.
 152:.\Generated_Source\PSoC5/UART_1_IntClock.c **** *
 153:.\Generated_Source\PSoC5/UART_1_IntClock.c **** * Returns:
 154:.\Generated_Source\PSoC5/UART_1_IntClock.c **** *  None
 155:.\Generated_Source\PSoC5/UART_1_IntClock.c **** *
 156:.\Generated_Source\PSoC5/UART_1_IntClock.c **** *******************************************************************************/
 157:.\Generated_Source\PSoC5/UART_1_IntClock.c **** void UART_1_IntClock_StandbyPower(uint8 state) 
 158:.\Generated_Source\PSoC5/UART_1_IntClock.c **** {
  96              		.loc 1 158 0
  97              		.cfi_startproc
  98              		@ args = 0, pretend = 0, frame = 0
  99              		@ frame_needed = 0, uses_anonymous_args = 0
 100              		@ link register save eliminated.
 101              	.LVL0:
 159:.\Generated_Source\PSoC5/UART_1_IntClock.c ****     if(state == 0u)
 102              		.loc 1 159 0
 103 0000 20B9     		cbnz	r0, .L10
 160:.\Generated_Source\PSoC5/UART_1_IntClock.c ****     {
 161:.\Generated_Source\PSoC5/UART_1_IntClock.c ****         UART_1_IntClock_CLKSTBY &= (uint8)(~UART_1_IntClock_CLKSTBY_MASK);
 104              		.loc 1 161 0
 105 0002 054B     		ldr	r3, .L15
 106 0004 1A78     		ldrb	r2, [r3, #0]	@ zero_extendqisi2
 107 0006 02F0FD02 		and	r2, r2, #253
 108 000a 03E0     		b	.L13
 109              	.L10:
 162:.\Generated_Source\PSoC5/UART_1_IntClock.c ****     }
 163:.\Generated_Source\PSoC5/UART_1_IntClock.c ****     else
 164:.\Generated_Source\PSoC5/UART_1_IntClock.c ****     {
 165:.\Generated_Source\PSoC5/UART_1_IntClock.c ****         UART_1_IntClock_CLKSTBY |= UART_1_IntClock_CLKSTBY_MASK;
 110              		.loc 1 165 0
 111 000c 024B     		ldr	r3, .L15
 112 000e 1A78     		ldrb	r2, [r3, #0]	@ zero_extendqisi2
 113 0010 42F00202 		orr	r2, r2, #2
 114              	.L13:
 115 0014 1A70     		strb	r2, [r3, #0]
 116 0016 7047     		bx	lr
ARM GAS  C:\Users\SUZUKI~1\AppData\Local\Temp\ccl3qvXc.s 			page 6


 117              	.L16:
 118              		.align	2
 119              	.L15:
 120 0018 B2430040 		.word	1073759154
 121              		.cfi_endproc
 122              	.LFE2:
 123              		.size	UART_1_IntClock_StandbyPower, .-UART_1_IntClock_StandbyPower
 124              		.section	.text.UART_1_IntClock_GetDividerRegister,"ax",%progbits
 125              		.align	1
 126              		.global	UART_1_IntClock_GetDividerRegister
 127              		.thumb
 128              		.thumb_func
 129              		.type	UART_1_IntClock_GetDividerRegister, %function
 130              	UART_1_IntClock_GetDividerRegister:
 131              	.LFB4:
 166:.\Generated_Source\PSoC5/UART_1_IntClock.c ****     }
 167:.\Generated_Source\PSoC5/UART_1_IntClock.c **** }
 168:.\Generated_Source\PSoC5/UART_1_IntClock.c **** 
 169:.\Generated_Source\PSoC5/UART_1_IntClock.c **** 
 170:.\Generated_Source\PSoC5/UART_1_IntClock.c **** /*******************************************************************************
 171:.\Generated_Source\PSoC5/UART_1_IntClock.c **** * Function Name: UART_1_IntClock_SetDividerRegister
 172:.\Generated_Source\PSoC5/UART_1_IntClock.c **** ********************************************************************************
 173:.\Generated_Source\PSoC5/UART_1_IntClock.c **** *
 174:.\Generated_Source\PSoC5/UART_1_IntClock.c **** * Summary:
 175:.\Generated_Source\PSoC5/UART_1_IntClock.c **** *  Modifies the clock divider and, thus, the frequency. When the clock divider
 176:.\Generated_Source\PSoC5/UART_1_IntClock.c **** *  register is set to zero or changed from zero, the clock will be temporarily
 177:.\Generated_Source\PSoC5/UART_1_IntClock.c **** *  disabled in order to change the SSS mode bit. If the clock is enabled when
 178:.\Generated_Source\PSoC5/UART_1_IntClock.c **** *  SetDividerRegister is called, then the source clock must be running.
 179:.\Generated_Source\PSoC5/UART_1_IntClock.c **** *
 180:.\Generated_Source\PSoC5/UART_1_IntClock.c **** * Parameters:
 181:.\Generated_Source\PSoC5/UART_1_IntClock.c **** *  clkDivider:  Divider register value (0-65,535). This value is NOT the
 182:.\Generated_Source\PSoC5/UART_1_IntClock.c **** *    divider; the clock hardware divides by clkDivider plus one. For example,
 183:.\Generated_Source\PSoC5/UART_1_IntClock.c **** *    to divide the clock by 2, this parameter should be set to 1.
 184:.\Generated_Source\PSoC5/UART_1_IntClock.c **** *  restart:  If nonzero, restarts the clock divider: the current clock cycle
 185:.\Generated_Source\PSoC5/UART_1_IntClock.c **** *   will be truncated and the new divide value will take effect immediately. If
 186:.\Generated_Source\PSoC5/UART_1_IntClock.c **** *   zero, the new divide value will take effect at the end of the current clock
 187:.\Generated_Source\PSoC5/UART_1_IntClock.c **** *   cycle.
 188:.\Generated_Source\PSoC5/UART_1_IntClock.c **** *
 189:.\Generated_Source\PSoC5/UART_1_IntClock.c **** * Returns:
 190:.\Generated_Source\PSoC5/UART_1_IntClock.c **** *  None
 191:.\Generated_Source\PSoC5/UART_1_IntClock.c **** *
 192:.\Generated_Source\PSoC5/UART_1_IntClock.c **** *******************************************************************************/
 193:.\Generated_Source\PSoC5/UART_1_IntClock.c **** void UART_1_IntClock_SetDividerRegister(uint16 clkDivider, uint8 restart)
 194:.\Generated_Source\PSoC5/UART_1_IntClock.c ****                                 
 195:.\Generated_Source\PSoC5/UART_1_IntClock.c **** {
 196:.\Generated_Source\PSoC5/UART_1_IntClock.c ****     uint8 enabled;
 197:.\Generated_Source\PSoC5/UART_1_IntClock.c **** 
 198:.\Generated_Source\PSoC5/UART_1_IntClock.c ****     uint8 currSrc = UART_1_IntClock_GetSourceRegister();
 199:.\Generated_Source\PSoC5/UART_1_IntClock.c ****     uint16 oldDivider = UART_1_IntClock_GetDividerRegister();
 200:.\Generated_Source\PSoC5/UART_1_IntClock.c **** 
 201:.\Generated_Source\PSoC5/UART_1_IntClock.c ****     if (clkDivider != oldDivider)
 202:.\Generated_Source\PSoC5/UART_1_IntClock.c ****     {
 203:.\Generated_Source\PSoC5/UART_1_IntClock.c ****         enabled = UART_1_IntClock_CLKEN & UART_1_IntClock_CLKEN_MASK;
 204:.\Generated_Source\PSoC5/UART_1_IntClock.c **** 
 205:.\Generated_Source\PSoC5/UART_1_IntClock.c ****         if ((currSrc == (uint8)CYCLK_SRC_SEL_CLK_SYNC_D) && ((oldDivider == 0u) || (clkDivider == 0
 206:.\Generated_Source\PSoC5/UART_1_IntClock.c ****         {
 207:.\Generated_Source\PSoC5/UART_1_IntClock.c ****             /* Moving to/from SSS requires correct ordering to prevent halting the clock    */
ARM GAS  C:\Users\SUZUKI~1\AppData\Local\Temp\ccl3qvXc.s 			page 7


 208:.\Generated_Source\PSoC5/UART_1_IntClock.c ****             if (oldDivider == 0u)
 209:.\Generated_Source\PSoC5/UART_1_IntClock.c ****             {
 210:.\Generated_Source\PSoC5/UART_1_IntClock.c ****                 /* Moving away from SSS, set the divider first so when SSS is cleared we    */
 211:.\Generated_Source\PSoC5/UART_1_IntClock.c ****                 /* don't halt the clock.  Using the shadow load isn't required as the       */
 212:.\Generated_Source\PSoC5/UART_1_IntClock.c ****                 /* divider is ignored while SSS is set.                                     */
 213:.\Generated_Source\PSoC5/UART_1_IntClock.c ****                 CY_SET_REG16(UART_1_IntClock_DIV_PTR, clkDivider);
 214:.\Generated_Source\PSoC5/UART_1_IntClock.c ****                 UART_1_IntClock_MOD_SRC &= (uint8)(~CYCLK_SSS);
 215:.\Generated_Source\PSoC5/UART_1_IntClock.c ****             }
 216:.\Generated_Source\PSoC5/UART_1_IntClock.c ****             else
 217:.\Generated_Source\PSoC5/UART_1_IntClock.c ****             {
 218:.\Generated_Source\PSoC5/UART_1_IntClock.c ****                 /* Moving to SSS, set SSS which then ignores the divider and we can set     */
 219:.\Generated_Source\PSoC5/UART_1_IntClock.c ****                 /* it without bothering with the shadow load.                               */
 220:.\Generated_Source\PSoC5/UART_1_IntClock.c ****                 UART_1_IntClock_MOD_SRC |= CYCLK_SSS;
 221:.\Generated_Source\PSoC5/UART_1_IntClock.c ****                 CY_SET_REG16(UART_1_IntClock_DIV_PTR, clkDivider);
 222:.\Generated_Source\PSoC5/UART_1_IntClock.c ****             }
 223:.\Generated_Source\PSoC5/UART_1_IntClock.c ****         }
 224:.\Generated_Source\PSoC5/UART_1_IntClock.c ****         else
 225:.\Generated_Source\PSoC5/UART_1_IntClock.c ****         {
 226:.\Generated_Source\PSoC5/UART_1_IntClock.c **** 			
 227:.\Generated_Source\PSoC5/UART_1_IntClock.c ****             if (enabled != 0u)
 228:.\Generated_Source\PSoC5/UART_1_IntClock.c ****             {
 229:.\Generated_Source\PSoC5/UART_1_IntClock.c ****                 CLK_DIST_LD = 0x00u;
 230:.\Generated_Source\PSoC5/UART_1_IntClock.c **** 
 231:.\Generated_Source\PSoC5/UART_1_IntClock.c ****                 /* Clear all the mask bits except ours. */
 232:.\Generated_Source\PSoC5/UART_1_IntClock.c **** #if defined(UART_1_IntClock__CFG3)
 233:.\Generated_Source\PSoC5/UART_1_IntClock.c ****                 CLK_DIST_AMASK = UART_1_IntClock_CLKEN_MASK;
 234:.\Generated_Source\PSoC5/UART_1_IntClock.c ****                 CLK_DIST_DMASK = 0x00u;
 235:.\Generated_Source\PSoC5/UART_1_IntClock.c **** #else
 236:.\Generated_Source\PSoC5/UART_1_IntClock.c ****                 CLK_DIST_DMASK = UART_1_IntClock_CLKEN_MASK;
 237:.\Generated_Source\PSoC5/UART_1_IntClock.c ****                 CLK_DIST_AMASK = 0x00u;
 238:.\Generated_Source\PSoC5/UART_1_IntClock.c **** #endif /* UART_1_IntClock__CFG3 */
 239:.\Generated_Source\PSoC5/UART_1_IntClock.c ****                 /* Clear mask of bus clock. */
 240:.\Generated_Source\PSoC5/UART_1_IntClock.c ****                 CLK_DIST_BCFG2 &= (uint8)(~BCFG2_MASK);
 241:.\Generated_Source\PSoC5/UART_1_IntClock.c **** 
 242:.\Generated_Source\PSoC5/UART_1_IntClock.c ****                 /* If clock is currently enabled, disable it if async or going from N-to-1*/
 243:.\Generated_Source\PSoC5/UART_1_IntClock.c ****                 if (((UART_1_IntClock_MOD_SRC & CYCLK_SYNC) == 0u) || (clkDivider == 0u))
 244:.\Generated_Source\PSoC5/UART_1_IntClock.c ****                 {
 245:.\Generated_Source\PSoC5/UART_1_IntClock.c **** #if HAS_CLKDIST_LD_DISABLE
 246:.\Generated_Source\PSoC5/UART_1_IntClock.c ****                     CY_SET_REG16(CYREG_CLKDIST_WRK0, oldDivider);
 247:.\Generated_Source\PSoC5/UART_1_IntClock.c ****                     CLK_DIST_LD = CYCLK_LD_DISABLE|CYCLK_LD_SYNC_EN|CYCLK_LD_LOAD;
 248:.\Generated_Source\PSoC5/UART_1_IntClock.c **** 
 249:.\Generated_Source\PSoC5/UART_1_IntClock.c ****                     /* Wait for clock to be disabled */
 250:.\Generated_Source\PSoC5/UART_1_IntClock.c ****                     while ((CLK_DIST_LD & CYCLK_LD_LOAD) != 0u) { }
 251:.\Generated_Source\PSoC5/UART_1_IntClock.c **** #endif /* HAS_CLKDIST_LD_DISABLE */
 252:.\Generated_Source\PSoC5/UART_1_IntClock.c **** 
 253:.\Generated_Source\PSoC5/UART_1_IntClock.c ****                     UART_1_IntClock_CLKEN &= (uint8)(~UART_1_IntClock_CLKEN_MASK);
 254:.\Generated_Source\PSoC5/UART_1_IntClock.c **** 
 255:.\Generated_Source\PSoC5/UART_1_IntClock.c **** #if HAS_CLKDIST_LD_DISABLE
 256:.\Generated_Source\PSoC5/UART_1_IntClock.c ****                     /* Clear the disable bit */
 257:.\Generated_Source\PSoC5/UART_1_IntClock.c ****                     CLK_DIST_LD = 0x00u;
 258:.\Generated_Source\PSoC5/UART_1_IntClock.c **** #endif /* HAS_CLKDIST_LD_DISABLE */
 259:.\Generated_Source\PSoC5/UART_1_IntClock.c ****                 }
 260:.\Generated_Source\PSoC5/UART_1_IntClock.c ****             }
 261:.\Generated_Source\PSoC5/UART_1_IntClock.c **** 
 262:.\Generated_Source\PSoC5/UART_1_IntClock.c ****             /* Load divide value. */
 263:.\Generated_Source\PSoC5/UART_1_IntClock.c ****             if ((UART_1_IntClock_CLKEN & UART_1_IntClock_CLKEN_MASK) != 0u)
 264:.\Generated_Source\PSoC5/UART_1_IntClock.c ****             {
ARM GAS  C:\Users\SUZUKI~1\AppData\Local\Temp\ccl3qvXc.s 			page 8


 265:.\Generated_Source\PSoC5/UART_1_IntClock.c ****                 /* If the clock is still enabled, use the shadow registers */
 266:.\Generated_Source\PSoC5/UART_1_IntClock.c ****                 CY_SET_REG16(CYREG_CLKDIST_WRK0, clkDivider);
 267:.\Generated_Source\PSoC5/UART_1_IntClock.c **** 
 268:.\Generated_Source\PSoC5/UART_1_IntClock.c ****                 CLK_DIST_LD = (CYCLK_LD_LOAD | ((restart != 0u) ? CYCLK_LD_SYNC_EN : 0x00u));
 269:.\Generated_Source\PSoC5/UART_1_IntClock.c ****                 while ((CLK_DIST_LD & CYCLK_LD_LOAD) != 0u) { }
 270:.\Generated_Source\PSoC5/UART_1_IntClock.c ****             }
 271:.\Generated_Source\PSoC5/UART_1_IntClock.c ****             else
 272:.\Generated_Source\PSoC5/UART_1_IntClock.c ****             {
 273:.\Generated_Source\PSoC5/UART_1_IntClock.c ****                 /* If the clock is disabled, set the divider directly */
 274:.\Generated_Source\PSoC5/UART_1_IntClock.c ****                 CY_SET_REG16(UART_1_IntClock_DIV_PTR, clkDivider);
 275:.\Generated_Source\PSoC5/UART_1_IntClock.c **** 				UART_1_IntClock_CLKEN |= enabled;
 276:.\Generated_Source\PSoC5/UART_1_IntClock.c ****             }
 277:.\Generated_Source\PSoC5/UART_1_IntClock.c ****         }
 278:.\Generated_Source\PSoC5/UART_1_IntClock.c ****     }
 279:.\Generated_Source\PSoC5/UART_1_IntClock.c **** }
 280:.\Generated_Source\PSoC5/UART_1_IntClock.c **** 
 281:.\Generated_Source\PSoC5/UART_1_IntClock.c **** 
 282:.\Generated_Source\PSoC5/UART_1_IntClock.c **** /*******************************************************************************
 283:.\Generated_Source\PSoC5/UART_1_IntClock.c **** * Function Name: UART_1_IntClock_GetDividerRegister
 284:.\Generated_Source\PSoC5/UART_1_IntClock.c **** ********************************************************************************
 285:.\Generated_Source\PSoC5/UART_1_IntClock.c **** *
 286:.\Generated_Source\PSoC5/UART_1_IntClock.c **** * Summary:
 287:.\Generated_Source\PSoC5/UART_1_IntClock.c **** *  Gets the clock divider register value.
 288:.\Generated_Source\PSoC5/UART_1_IntClock.c **** *
 289:.\Generated_Source\PSoC5/UART_1_IntClock.c **** * Parameters:
 290:.\Generated_Source\PSoC5/UART_1_IntClock.c **** *  None
 291:.\Generated_Source\PSoC5/UART_1_IntClock.c **** *
 292:.\Generated_Source\PSoC5/UART_1_IntClock.c **** * Returns:
 293:.\Generated_Source\PSoC5/UART_1_IntClock.c **** *  Divide value of the clock minus 1. For example, if the clock is set to
 294:.\Generated_Source\PSoC5/UART_1_IntClock.c **** *  divide by 2, the return value will be 1.
 295:.\Generated_Source\PSoC5/UART_1_IntClock.c **** *
 296:.\Generated_Source\PSoC5/UART_1_IntClock.c **** *******************************************************************************/
 297:.\Generated_Source\PSoC5/UART_1_IntClock.c **** uint16 UART_1_IntClock_GetDividerRegister(void) 
 298:.\Generated_Source\PSoC5/UART_1_IntClock.c **** {
 132              		.loc 1 298 0
 133              		.cfi_startproc
 134              		@ args = 0, pretend = 0, frame = 0
 135              		@ frame_needed = 0, uses_anonymous_args = 0
 136              		@ link register save eliminated.
 299:.\Generated_Source\PSoC5/UART_1_IntClock.c ****     return CY_GET_REG16(UART_1_IntClock_DIV_PTR);
 137              		.loc 1 299 0
 138 0000 014B     		ldr	r3, .L19
 139 0002 1888     		ldrh	r0, [r3, #0]
 300:.\Generated_Source\PSoC5/UART_1_IntClock.c **** }
 140              		.loc 1 300 0
 141 0004 80B2     		uxth	r0, r0
 142 0006 7047     		bx	lr
 143              	.L20:
 144              		.align	2
 145              	.L19:
 146 0008 84400040 		.word	1073758340
 147              		.cfi_endproc
 148              	.LFE4:
 149              		.size	UART_1_IntClock_GetDividerRegister, .-UART_1_IntClock_GetDividerRegister
 150              		.section	.text.UART_1_IntClock_SetModeRegister,"ax",%progbits
 151              		.align	1
 152              		.global	UART_1_IntClock_SetModeRegister
ARM GAS  C:\Users\SUZUKI~1\AppData\Local\Temp\ccl3qvXc.s 			page 9


 153              		.thumb
 154              		.thumb_func
 155              		.type	UART_1_IntClock_SetModeRegister, %function
 156              	UART_1_IntClock_SetModeRegister:
 157              	.LFB5:
 301:.\Generated_Source\PSoC5/UART_1_IntClock.c **** 
 302:.\Generated_Source\PSoC5/UART_1_IntClock.c **** 
 303:.\Generated_Source\PSoC5/UART_1_IntClock.c **** /*******************************************************************************
 304:.\Generated_Source\PSoC5/UART_1_IntClock.c **** * Function Name: UART_1_IntClock_SetModeRegister
 305:.\Generated_Source\PSoC5/UART_1_IntClock.c **** ********************************************************************************
 306:.\Generated_Source\PSoC5/UART_1_IntClock.c **** *
 307:.\Generated_Source\PSoC5/UART_1_IntClock.c **** * Summary:
 308:.\Generated_Source\PSoC5/UART_1_IntClock.c **** *  Sets flags that control the operating mode of the clock. This function only
 309:.\Generated_Source\PSoC5/UART_1_IntClock.c **** *  changes flags from 0 to 1; flags that are already 1 will remain unchanged.
 310:.\Generated_Source\PSoC5/UART_1_IntClock.c **** *  To clear flags, use the ClearModeRegister function. The clock must be
 311:.\Generated_Source\PSoC5/UART_1_IntClock.c **** *  disabled before changing the mode.
 312:.\Generated_Source\PSoC5/UART_1_IntClock.c **** *
 313:.\Generated_Source\PSoC5/UART_1_IntClock.c **** * Parameters:
 314:.\Generated_Source\PSoC5/UART_1_IntClock.c **** *  clkMode: Bit mask containing the bits to set. For PSoC 3 and PSoC 5,
 315:.\Generated_Source\PSoC5/UART_1_IntClock.c **** *   clkMode should be a set of the following optional bits or'ed together.
 316:.\Generated_Source\PSoC5/UART_1_IntClock.c **** *   - CYCLK_EARLY Enable early phase mode. Rising edge of output clock will
 317:.\Generated_Source\PSoC5/UART_1_IntClock.c **** *                 occur when the divider count reaches half of the divide
 318:.\Generated_Source\PSoC5/UART_1_IntClock.c **** *                 value.
 319:.\Generated_Source\PSoC5/UART_1_IntClock.c **** *   - CYCLK_DUTY  Enable 50% duty cycle output. When enabled, the output clock
 320:.\Generated_Source\PSoC5/UART_1_IntClock.c **** *                 is asserted for approximately half of its period. When
 321:.\Generated_Source\PSoC5/UART_1_IntClock.c **** *                 disabled, the output clock is asserted for one period of the
 322:.\Generated_Source\PSoC5/UART_1_IntClock.c **** *                 source clock.
 323:.\Generated_Source\PSoC5/UART_1_IntClock.c **** *   - CYCLK_SYNC  Enable output synchronization to master clock. This should
 324:.\Generated_Source\PSoC5/UART_1_IntClock.c **** *                 be enabled for all synchronous clocks.
 325:.\Generated_Source\PSoC5/UART_1_IntClock.c **** *   See the Technical Reference Manual for details about setting the mode of
 326:.\Generated_Source\PSoC5/UART_1_IntClock.c **** *   the clock. Specifically, see the CLKDIST.DCFG.CFG2 register.
 327:.\Generated_Source\PSoC5/UART_1_IntClock.c **** *
 328:.\Generated_Source\PSoC5/UART_1_IntClock.c **** * Returns:
 329:.\Generated_Source\PSoC5/UART_1_IntClock.c **** *  None
 330:.\Generated_Source\PSoC5/UART_1_IntClock.c **** *
 331:.\Generated_Source\PSoC5/UART_1_IntClock.c **** *******************************************************************************/
 332:.\Generated_Source\PSoC5/UART_1_IntClock.c **** void UART_1_IntClock_SetModeRegister(uint8 modeBitMask) 
 333:.\Generated_Source\PSoC5/UART_1_IntClock.c **** {
 158              		.loc 1 333 0
 159              		.cfi_startproc
 160              		@ args = 0, pretend = 0, frame = 0
 161              		@ frame_needed = 0, uses_anonymous_args = 0
 162              		@ link register save eliminated.
 163              	.LVL1:
 334:.\Generated_Source\PSoC5/UART_1_IntClock.c ****     UART_1_IntClock_MOD_SRC |= modeBitMask & (uint8)UART_1_IntClock_MODE_MASK;
 164              		.loc 1 334 0
 165 0000 034B     		ldr	r3, .L23
 166 0002 00F0F800 		and	r0, r0, #248
 167              	.LVL2:
 168 0006 1A78     		ldrb	r2, [r3, #0]	@ zero_extendqisi2
 169 0008 40EA0202 		orr	r2, r0, r2
 170 000c 1A70     		strb	r2, [r3, #0]
 335:.\Generated_Source\PSoC5/UART_1_IntClock.c **** }
 171              		.loc 1 335 0
 172 000e 7047     		bx	lr
 173              	.L24:
 174              		.align	2
ARM GAS  C:\Users\SUZUKI~1\AppData\Local\Temp\ccl3qvXc.s 			page 10


 175              	.L23:
 176 0010 86400040 		.word	1073758342
 177              		.cfi_endproc
 178              	.LFE5:
 179              		.size	UART_1_IntClock_SetModeRegister, .-UART_1_IntClock_SetModeRegister
 180              		.section	.text.UART_1_IntClock_ClearModeRegister,"ax",%progbits
 181              		.align	1
 182              		.global	UART_1_IntClock_ClearModeRegister
 183              		.thumb
 184              		.thumb_func
 185              		.type	UART_1_IntClock_ClearModeRegister, %function
 186              	UART_1_IntClock_ClearModeRegister:
 187              	.LFB6:
 336:.\Generated_Source\PSoC5/UART_1_IntClock.c **** 
 337:.\Generated_Source\PSoC5/UART_1_IntClock.c **** 
 338:.\Generated_Source\PSoC5/UART_1_IntClock.c **** /*******************************************************************************
 339:.\Generated_Source\PSoC5/UART_1_IntClock.c **** * Function Name: UART_1_IntClock_ClearModeRegister
 340:.\Generated_Source\PSoC5/UART_1_IntClock.c **** ********************************************************************************
 341:.\Generated_Source\PSoC5/UART_1_IntClock.c **** *
 342:.\Generated_Source\PSoC5/UART_1_IntClock.c **** * Summary:
 343:.\Generated_Source\PSoC5/UART_1_IntClock.c **** *  Clears flags that control the operating mode of the clock. This function
 344:.\Generated_Source\PSoC5/UART_1_IntClock.c **** *  only changes flags from 1 to 0; flags that are already 0 will remain
 345:.\Generated_Source\PSoC5/UART_1_IntClock.c **** *  unchanged. To set flags, use the SetModeRegister function. The clock must be
 346:.\Generated_Source\PSoC5/UART_1_IntClock.c **** *  disabled before changing the mode.
 347:.\Generated_Source\PSoC5/UART_1_IntClock.c **** *
 348:.\Generated_Source\PSoC5/UART_1_IntClock.c **** * Parameters:
 349:.\Generated_Source\PSoC5/UART_1_IntClock.c **** *  clkMode: Bit mask containing the bits to clear. For PSoC 3 and PSoC 5,
 350:.\Generated_Source\PSoC5/UART_1_IntClock.c **** *   clkMode should be a set of the following optional bits or'ed together.
 351:.\Generated_Source\PSoC5/UART_1_IntClock.c **** *   - CYCLK_EARLY Enable early phase mode. Rising edge of output clock will
 352:.\Generated_Source\PSoC5/UART_1_IntClock.c **** *                 occur when the divider count reaches half of the divide
 353:.\Generated_Source\PSoC5/UART_1_IntClock.c **** *                 value.
 354:.\Generated_Source\PSoC5/UART_1_IntClock.c **** *   - CYCLK_DUTY  Enable 50% duty cycle output. When enabled, the output clock
 355:.\Generated_Source\PSoC5/UART_1_IntClock.c **** *                 is asserted for approximately half of its period. When
 356:.\Generated_Source\PSoC5/UART_1_IntClock.c **** *                 disabled, the output clock is asserted for one period of the
 357:.\Generated_Source\PSoC5/UART_1_IntClock.c **** *                 source clock.
 358:.\Generated_Source\PSoC5/UART_1_IntClock.c **** *   - CYCLK_SYNC  Enable output synchronization to master clock. This should
 359:.\Generated_Source\PSoC5/UART_1_IntClock.c **** *                 be enabled for all synchronous clocks.
 360:.\Generated_Source\PSoC5/UART_1_IntClock.c **** *   See the Technical Reference Manual for details about setting the mode of
 361:.\Generated_Source\PSoC5/UART_1_IntClock.c **** *   the clock. Specifically, see the CLKDIST.DCFG.CFG2 register.
 362:.\Generated_Source\PSoC5/UART_1_IntClock.c **** *
 363:.\Generated_Source\PSoC5/UART_1_IntClock.c **** * Returns:
 364:.\Generated_Source\PSoC5/UART_1_IntClock.c **** *  None
 365:.\Generated_Source\PSoC5/UART_1_IntClock.c **** *
 366:.\Generated_Source\PSoC5/UART_1_IntClock.c **** *******************************************************************************/
 367:.\Generated_Source\PSoC5/UART_1_IntClock.c **** void UART_1_IntClock_ClearModeRegister(uint8 modeBitMask) 
 368:.\Generated_Source\PSoC5/UART_1_IntClock.c **** {
 188              		.loc 1 368 0
 189              		.cfi_startproc
 190              		@ args = 0, pretend = 0, frame = 0
 191              		@ frame_needed = 0, uses_anonymous_args = 0
 192              		@ link register save eliminated.
 193              	.LVL3:
 369:.\Generated_Source\PSoC5/UART_1_IntClock.c ****     UART_1_IntClock_MOD_SRC &= (uint8)(~modeBitMask) | (uint8)(~(uint8)(UART_1_IntClock_MODE_MASK))
 194              		.loc 1 369 0
 195 0000 034B     		ldr	r3, .L27
 196 0002 C043     		mvns	r0, r0
 197              	.LVL4:
ARM GAS  C:\Users\SUZUKI~1\AppData\Local\Temp\ccl3qvXc.s 			page 11


 198 0004 1A78     		ldrb	r2, [r3, #0]	@ zero_extendqisi2
 199 0006 40F00700 		orr	r0, r0, #7
 200 000a 0240     		ands	r2, r2, r0
 201 000c 1A70     		strb	r2, [r3, #0]
 370:.\Generated_Source\PSoC5/UART_1_IntClock.c **** }
 202              		.loc 1 370 0
 203 000e 7047     		bx	lr
 204              	.L28:
 205              		.align	2
 206              	.L27:
 207 0010 86400040 		.word	1073758342
 208              		.cfi_endproc
 209              	.LFE6:
 210              		.size	UART_1_IntClock_ClearModeRegister, .-UART_1_IntClock_ClearModeRegister
 211              		.section	.text.UART_1_IntClock_GetModeRegister,"ax",%progbits
 212              		.align	1
 213              		.global	UART_1_IntClock_GetModeRegister
 214              		.thumb
 215              		.thumb_func
 216              		.type	UART_1_IntClock_GetModeRegister, %function
 217              	UART_1_IntClock_GetModeRegister:
 218              	.LFB7:
 371:.\Generated_Source\PSoC5/UART_1_IntClock.c **** 
 372:.\Generated_Source\PSoC5/UART_1_IntClock.c **** 
 373:.\Generated_Source\PSoC5/UART_1_IntClock.c **** /*******************************************************************************
 374:.\Generated_Source\PSoC5/UART_1_IntClock.c **** * Function Name: UART_1_IntClock_GetModeRegister
 375:.\Generated_Source\PSoC5/UART_1_IntClock.c **** ********************************************************************************
 376:.\Generated_Source\PSoC5/UART_1_IntClock.c **** *
 377:.\Generated_Source\PSoC5/UART_1_IntClock.c **** * Summary:
 378:.\Generated_Source\PSoC5/UART_1_IntClock.c **** *  Gets the clock mode register value.
 379:.\Generated_Source\PSoC5/UART_1_IntClock.c **** *
 380:.\Generated_Source\PSoC5/UART_1_IntClock.c **** * Parameters:
 381:.\Generated_Source\PSoC5/UART_1_IntClock.c **** *  None
 382:.\Generated_Source\PSoC5/UART_1_IntClock.c **** *
 383:.\Generated_Source\PSoC5/UART_1_IntClock.c **** * Returns:
 384:.\Generated_Source\PSoC5/UART_1_IntClock.c **** *  Bit mask representing the enabled mode bits. See the SetModeRegister and
 385:.\Generated_Source\PSoC5/UART_1_IntClock.c **** *  ClearModeRegister descriptions for details about the mode bits.
 386:.\Generated_Source\PSoC5/UART_1_IntClock.c **** *
 387:.\Generated_Source\PSoC5/UART_1_IntClock.c **** *******************************************************************************/
 388:.\Generated_Source\PSoC5/UART_1_IntClock.c **** uint8 UART_1_IntClock_GetModeRegister(void) 
 389:.\Generated_Source\PSoC5/UART_1_IntClock.c **** {
 219              		.loc 1 389 0
 220              		.cfi_startproc
 221              		@ args = 0, pretend = 0, frame = 0
 222              		@ frame_needed = 0, uses_anonymous_args = 0
 223              		@ link register save eliminated.
 390:.\Generated_Source\PSoC5/UART_1_IntClock.c ****     return UART_1_IntClock_MOD_SRC & (uint8)(UART_1_IntClock_MODE_MASK);
 224              		.loc 1 390 0
 225 0000 024B     		ldr	r3, .L31
 226 0002 1878     		ldrb	r0, [r3, #0]	@ zero_extendqisi2
 391:.\Generated_Source\PSoC5/UART_1_IntClock.c **** }
 227              		.loc 1 391 0
 228 0004 00F0F800 		and	r0, r0, #248
 229 0008 7047     		bx	lr
 230              	.L32:
 231 000a 00BF     		.align	2
 232              	.L31:
ARM GAS  C:\Users\SUZUKI~1\AppData\Local\Temp\ccl3qvXc.s 			page 12


 233 000c 86400040 		.word	1073758342
 234              		.cfi_endproc
 235              	.LFE7:
 236              		.size	UART_1_IntClock_GetModeRegister, .-UART_1_IntClock_GetModeRegister
 237              		.section	.text.UART_1_IntClock_GetSourceRegister,"ax",%progbits
 238              		.align	1
 239              		.global	UART_1_IntClock_GetSourceRegister
 240              		.thumb
 241              		.thumb_func
 242              		.type	UART_1_IntClock_GetSourceRegister, %function
 243              	UART_1_IntClock_GetSourceRegister:
 244              	.LFB9:
 392:.\Generated_Source\PSoC5/UART_1_IntClock.c **** 
 393:.\Generated_Source\PSoC5/UART_1_IntClock.c **** 
 394:.\Generated_Source\PSoC5/UART_1_IntClock.c **** /*******************************************************************************
 395:.\Generated_Source\PSoC5/UART_1_IntClock.c **** * Function Name: UART_1_IntClock_SetSourceRegister
 396:.\Generated_Source\PSoC5/UART_1_IntClock.c **** ********************************************************************************
 397:.\Generated_Source\PSoC5/UART_1_IntClock.c **** *
 398:.\Generated_Source\PSoC5/UART_1_IntClock.c **** * Summary:
 399:.\Generated_Source\PSoC5/UART_1_IntClock.c **** *  Sets the input source of the clock. The clock must be disabled before
 400:.\Generated_Source\PSoC5/UART_1_IntClock.c **** *  changing the source. The old and new clock sources must be running.
 401:.\Generated_Source\PSoC5/UART_1_IntClock.c **** *
 402:.\Generated_Source\PSoC5/UART_1_IntClock.c **** * Parameters:
 403:.\Generated_Source\PSoC5/UART_1_IntClock.c **** *  clkSource:  For PSoC 3 and PSoC 5 devices, clkSource should be one of the
 404:.\Generated_Source\PSoC5/UART_1_IntClock.c **** *   following input sources:
 405:.\Generated_Source\PSoC5/UART_1_IntClock.c **** *   - CYCLK_SRC_SEL_SYNC_DIG
 406:.\Generated_Source\PSoC5/UART_1_IntClock.c **** *   - CYCLK_SRC_SEL_IMO
 407:.\Generated_Source\PSoC5/UART_1_IntClock.c **** *   - CYCLK_SRC_SEL_XTALM
 408:.\Generated_Source\PSoC5/UART_1_IntClock.c **** *   - CYCLK_SRC_SEL_ILO
 409:.\Generated_Source\PSoC5/UART_1_IntClock.c **** *   - CYCLK_SRC_SEL_PLL
 410:.\Generated_Source\PSoC5/UART_1_IntClock.c **** *   - CYCLK_SRC_SEL_XTALK
 411:.\Generated_Source\PSoC5/UART_1_IntClock.c **** *   - CYCLK_SRC_SEL_DSI_G
 412:.\Generated_Source\PSoC5/UART_1_IntClock.c **** *   - CYCLK_SRC_SEL_DSI_D/CYCLK_SRC_SEL_DSI_A
 413:.\Generated_Source\PSoC5/UART_1_IntClock.c **** *   See the Technical Reference Manual for details on clock sources.
 414:.\Generated_Source\PSoC5/UART_1_IntClock.c **** *
 415:.\Generated_Source\PSoC5/UART_1_IntClock.c **** * Returns:
 416:.\Generated_Source\PSoC5/UART_1_IntClock.c **** *  None
 417:.\Generated_Source\PSoC5/UART_1_IntClock.c **** *
 418:.\Generated_Source\PSoC5/UART_1_IntClock.c **** *******************************************************************************/
 419:.\Generated_Source\PSoC5/UART_1_IntClock.c **** void UART_1_IntClock_SetSourceRegister(uint8 clkSource) 
 420:.\Generated_Source\PSoC5/UART_1_IntClock.c **** {
 421:.\Generated_Source\PSoC5/UART_1_IntClock.c ****     uint16 currDiv = UART_1_IntClock_GetDividerRegister();
 422:.\Generated_Source\PSoC5/UART_1_IntClock.c ****     uint8 oldSrc = UART_1_IntClock_GetSourceRegister();
 423:.\Generated_Source\PSoC5/UART_1_IntClock.c **** 
 424:.\Generated_Source\PSoC5/UART_1_IntClock.c ****     if (((oldSrc != ((uint8)CYCLK_SRC_SEL_CLK_SYNC_D)) && 
 425:.\Generated_Source\PSoC5/UART_1_IntClock.c ****         (clkSource == ((uint8)CYCLK_SRC_SEL_CLK_SYNC_D))) && (currDiv == 0u))
 426:.\Generated_Source\PSoC5/UART_1_IntClock.c ****     {
 427:.\Generated_Source\PSoC5/UART_1_IntClock.c ****         /* Switching to Master and divider is 1, set SSS, which will output master, */
 428:.\Generated_Source\PSoC5/UART_1_IntClock.c ****         /* then set the source so we are consistent.                                */
 429:.\Generated_Source\PSoC5/UART_1_IntClock.c ****         UART_1_IntClock_MOD_SRC |= CYCLK_SSS;
 430:.\Generated_Source\PSoC5/UART_1_IntClock.c ****         UART_1_IntClock_MOD_SRC =
 431:.\Generated_Source\PSoC5/UART_1_IntClock.c ****             (UART_1_IntClock_MOD_SRC & (uint8)(~UART_1_IntClock_SRC_SEL_MSK)) | clkSource;
 432:.\Generated_Source\PSoC5/UART_1_IntClock.c ****     }
 433:.\Generated_Source\PSoC5/UART_1_IntClock.c ****     else if (((oldSrc == ((uint8)CYCLK_SRC_SEL_CLK_SYNC_D)) && 
 434:.\Generated_Source\PSoC5/UART_1_IntClock.c ****             (clkSource != ((uint8)CYCLK_SRC_SEL_CLK_SYNC_D))) && (currDiv == 0u))
 435:.\Generated_Source\PSoC5/UART_1_IntClock.c ****     {
 436:.\Generated_Source\PSoC5/UART_1_IntClock.c ****         /* Switching from Master to not and divider is 1, set source, so we don't   */
ARM GAS  C:\Users\SUZUKI~1\AppData\Local\Temp\ccl3qvXc.s 			page 13


 437:.\Generated_Source\PSoC5/UART_1_IntClock.c ****         /* lock when we clear SSS.                                                  */
 438:.\Generated_Source\PSoC5/UART_1_IntClock.c ****         UART_1_IntClock_MOD_SRC =
 439:.\Generated_Source\PSoC5/UART_1_IntClock.c ****             (UART_1_IntClock_MOD_SRC & (uint8)(~UART_1_IntClock_SRC_SEL_MSK)) | clkSource;
 440:.\Generated_Source\PSoC5/UART_1_IntClock.c ****         UART_1_IntClock_MOD_SRC &= (uint8)(~CYCLK_SSS);
 441:.\Generated_Source\PSoC5/UART_1_IntClock.c ****     }
 442:.\Generated_Source\PSoC5/UART_1_IntClock.c ****     else
 443:.\Generated_Source\PSoC5/UART_1_IntClock.c ****     {
 444:.\Generated_Source\PSoC5/UART_1_IntClock.c ****         UART_1_IntClock_MOD_SRC =
 445:.\Generated_Source\PSoC5/UART_1_IntClock.c ****             (UART_1_IntClock_MOD_SRC & (uint8)(~UART_1_IntClock_SRC_SEL_MSK)) | clkSource;
 446:.\Generated_Source\PSoC5/UART_1_IntClock.c ****     }
 447:.\Generated_Source\PSoC5/UART_1_IntClock.c **** }
 448:.\Generated_Source\PSoC5/UART_1_IntClock.c **** 
 449:.\Generated_Source\PSoC5/UART_1_IntClock.c **** 
 450:.\Generated_Source\PSoC5/UART_1_IntClock.c **** /*******************************************************************************
 451:.\Generated_Source\PSoC5/UART_1_IntClock.c **** * Function Name: UART_1_IntClock_GetSourceRegister
 452:.\Generated_Source\PSoC5/UART_1_IntClock.c **** ********************************************************************************
 453:.\Generated_Source\PSoC5/UART_1_IntClock.c **** *
 454:.\Generated_Source\PSoC5/UART_1_IntClock.c **** * Summary:
 455:.\Generated_Source\PSoC5/UART_1_IntClock.c **** *  Gets the input source of the clock.
 456:.\Generated_Source\PSoC5/UART_1_IntClock.c **** *
 457:.\Generated_Source\PSoC5/UART_1_IntClock.c **** * Parameters:
 458:.\Generated_Source\PSoC5/UART_1_IntClock.c **** *  None
 459:.\Generated_Source\PSoC5/UART_1_IntClock.c **** *
 460:.\Generated_Source\PSoC5/UART_1_IntClock.c **** * Returns:
 461:.\Generated_Source\PSoC5/UART_1_IntClock.c **** *  The input source of the clock. See SetSourceRegister for details.
 462:.\Generated_Source\PSoC5/UART_1_IntClock.c **** *
 463:.\Generated_Source\PSoC5/UART_1_IntClock.c **** *******************************************************************************/
 464:.\Generated_Source\PSoC5/UART_1_IntClock.c **** uint8 UART_1_IntClock_GetSourceRegister(void) 
 465:.\Generated_Source\PSoC5/UART_1_IntClock.c **** {
 245              		.loc 1 465 0
 246              		.cfi_startproc
 247              		@ args = 0, pretend = 0, frame = 0
 248              		@ frame_needed = 0, uses_anonymous_args = 0
 249              		@ link register save eliminated.
 466:.\Generated_Source\PSoC5/UART_1_IntClock.c ****     return UART_1_IntClock_MOD_SRC & UART_1_IntClock_SRC_SEL_MSK;
 250              		.loc 1 466 0
 251 0000 024B     		ldr	r3, .L35
 252 0002 1878     		ldrb	r0, [r3, #0]	@ zero_extendqisi2
 467:.\Generated_Source\PSoC5/UART_1_IntClock.c **** }
 253              		.loc 1 467 0
 254 0004 00F00700 		and	r0, r0, #7
 255 0008 7047     		bx	lr
 256              	.L36:
 257 000a 00BF     		.align	2
 258              	.L35:
 259 000c 86400040 		.word	1073758342
 260              		.cfi_endproc
 261              	.LFE9:
 262              		.size	UART_1_IntClock_GetSourceRegister, .-UART_1_IntClock_GetSourceRegister
 263              		.section	.text.UART_1_IntClock_SetSourceRegister,"ax",%progbits
 264              		.align	1
 265              		.global	UART_1_IntClock_SetSourceRegister
 266              		.thumb
 267              		.thumb_func
 268              		.type	UART_1_IntClock_SetSourceRegister, %function
 269              	UART_1_IntClock_SetSourceRegister:
 270              	.LFB8:
ARM GAS  C:\Users\SUZUKI~1\AppData\Local\Temp\ccl3qvXc.s 			page 14


 271              		.loc 1 420 0
 272              		.cfi_startproc
 273              		@ args = 0, pretend = 0, frame = 0
 274              		@ frame_needed = 0, uses_anonymous_args = 0
 275              	.LVL5:
 276 0000 38B5     		push	{r3, r4, r5, lr}
 277              	.LCFI0:
 278              		.cfi_def_cfa_offset 16
 279              	.LBB6:
 280              	.LBB7:
 281              		.loc 1 299 0
 282 0002 134B     		ldr	r3, .L43
 283              		.cfi_offset 14, -4
 284              		.cfi_offset 5, -8
 285              		.cfi_offset 4, -12
 286              		.cfi_offset 3, -16
 287              	.LBE7:
 288              	.LBE6:
 289              		.loc 1 420 0
 290 0004 0446     		mov	r4, r0
 291              	.LBB9:
 292              	.LBB8:
 293              		.loc 1 299 0
 294 0006 1D88     		ldrh	r5, [r3, #0]
 295 0008 ADB2     		uxth	r5, r5
 296              	.LVL6:
 297              	.LBE8:
 298              	.LBE9:
 299              		.loc 1 422 0
 300 000a FFF7FEFF 		bl	UART_1_IntClock_GetSourceRegister
 301              	.LVL7:
 302              		.loc 1 424 0
 303 000e 50B1     		cbz	r0, .L38
 304 0010 B4B9     		cbnz	r4, .L39
 305 0012 ADB9     		cbnz	r5, .L39
 306              		.loc 1 429 0
 307 0014 0F4B     		ldr	r3, .L43+4
 308 0016 1A78     		ldrb	r2, [r3, #0]	@ zero_extendqisi2
 309 0018 42F04002 		orr	r2, r2, #64
 310 001c 1A70     		strb	r2, [r3, #0]
 311              		.loc 1 431 0
 312 001e 1A78     		ldrb	r2, [r3, #0]	@ zero_extendqisi2
 313              		.loc 1 430 0
 314 0020 02F0F802 		and	r2, r2, #248
 315 0024 0AE0     		b	.L42
 316              	.L38:
 317              		.loc 1 433 0
 318 0026 5CB1     		cbz	r4, .L39
 319 0028 55B9     		cbnz	r5, .L39
 320              		.loc 1 439 0
 321 002a 0A4B     		ldr	r3, .L43+4
 322 002c 1A78     		ldrb	r2, [r3, #0]	@ zero_extendqisi2
 323              		.loc 1 438 0
 324 002e 02F0F802 		and	r2, r2, #248
 325 0032 1443     		orrs	r4, r4, r2
 326              	.LVL8:
 327 0034 1C70     		strb	r4, [r3, #0]
ARM GAS  C:\Users\SUZUKI~1\AppData\Local\Temp\ccl3qvXc.s 			page 15


 328              		.loc 1 440 0
 329 0036 1A78     		ldrb	r2, [r3, #0]	@ zero_extendqisi2
 330 0038 02F0BF02 		and	r2, r2, #191
 331              	.LVL9:
 332              	.L42:
 333 003c 1A70     		strb	r2, [r3, #0]
 334              		.loc 1 433 0
 335 003e 38BD     		pop	{r3, r4, r5, pc}
 336              	.L39:
 337              		.loc 1 445 0
 338 0040 044B     		ldr	r3, .L43+4
 339 0042 1A78     		ldrb	r2, [r3, #0]	@ zero_extendqisi2
 340              		.loc 1 444 0
 341 0044 02F0F802 		and	r2, r2, #248
 342 0048 1443     		orrs	r4, r4, r2
 343              	.LVL10:
 344 004a 1C70     		strb	r4, [r3, #0]
 345 004c 38BD     		pop	{r3, r4, r5, pc}
 346              	.L44:
 347 004e 00BF     		.align	2
 348              	.L43:
 349 0050 84400040 		.word	1073758340
 350 0054 86400040 		.word	1073758342
 351              		.cfi_endproc
 352              	.LFE8:
 353              		.size	UART_1_IntClock_SetSourceRegister, .-UART_1_IntClock_SetSourceRegister
 354              		.section	.text.UART_1_IntClock_SetDividerRegister,"ax",%progbits
 355              		.align	1
 356              		.global	UART_1_IntClock_SetDividerRegister
 357              		.thumb
 358              		.thumb_func
 359              		.type	UART_1_IntClock_SetDividerRegister, %function
 360              	UART_1_IntClock_SetDividerRegister:
 361              	.LFB3:
 362              		.loc 1 195 0
 363              		.cfi_startproc
 364              		@ args = 0, pretend = 0, frame = 0
 365              		@ frame_needed = 0, uses_anonymous_args = 0
 366              	.LVL11:
 367 0000 38B5     		push	{r3, r4, r5, lr}
 368              	.LCFI1:
 369              		.cfi_def_cfa_offset 16
 370              		.loc 1 195 0
 371 0002 0446     		mov	r4, r0
 372              		.cfi_offset 14, -4
 373              		.cfi_offset 5, -8
 374              		.cfi_offset 4, -12
 375              		.cfi_offset 3, -16
 376 0004 0D46     		mov	r5, r1
 377              		.loc 1 198 0
 378 0006 FFF7FEFF 		bl	UART_1_IntClock_GetSourceRegister
 379              	.LVL12:
 380              	.LBB10:
 381              	.LBB11:
 382              		.loc 1 299 0
 383 000a 264B     		ldr	r3, .L57
 384 000c 1988     		ldrh	r1, [r3, #0]
ARM GAS  C:\Users\SUZUKI~1\AppData\Local\Temp\ccl3qvXc.s 			page 16


 385 000e 89B2     		uxth	r1, r1
 386              	.LVL13:
 387              	.LBE11:
 388              	.LBE10:
 389              		.loc 1 201 0
 390 0010 8C42     		cmp	r4, r1
 391 0012 46D0     		beq	.L56
 392              		.loc 1 203 0
 393 0014 244A     		ldr	r2, .L57+4
 394 0016 1278     		ldrb	r2, [r2, #0]	@ zero_extendqisi2
 395              		.loc 1 205 0
 396 0018 80B9     		cbnz	r0, .L47
 397 001a 09B1     		cbz	r1, .L48
 398 001c 3CB1     		cbz	r4, .L49
 399 001e 0DE0     		b	.L47
 400              	.L48:
 401              		.loc 1 213 0
 402 0020 1C80     		strh	r4, [r3, #0]	@ movhi
 403              		.loc 1 214 0
 404 0022 224B     		ldr	r3, .L57+8
 405 0024 1A78     		ldrb	r2, [r3, #0]	@ zero_extendqisi2
 406 0026 02F0BF02 		and	r2, r2, #191
 407 002a 1A70     		strb	r2, [r3, #0]
 408 002c 38BD     		pop	{r3, r4, r5, pc}
 409              	.L49:
 410              		.loc 1 220 0
 411 002e 1F4A     		ldr	r2, .L57+8
 412 0030 1178     		ldrb	r1, [r2, #0]	@ zero_extendqisi2
 413              	.LVL14:
 414 0032 41F04001 		orr	r1, r1, #64
 415 0036 1170     		strb	r1, [r2, #0]
 416              		.loc 1 221 0
 417 0038 1C80     		strh	r4, [r3, #0]	@ movhi
 418 003a 38BD     		pop	{r3, r4, r5, pc}
 419              	.LVL15:
 420              	.L47:
 421              		.loc 1 227 0
 422 003c 12F00202 		ands	r2, r2, #2
 423              	.LVL16:
 424 0040 17D0     		beq	.L50
 425              		.loc 1 229 0
 426 0042 1B49     		ldr	r1, .L57+12
 427              	.LVL17:
 428 0044 0023     		movs	r3, #0
 429 0046 0B70     		strb	r3, [r1, #0]
 430              		.loc 1 236 0
 431 0048 0220     		movs	r0, #2
 432 004a 0F31     		adds	r1, r1, #15
 433 004c 0870     		strb	r0, [r1, #0]
 434              		.loc 1 237 0
 435 004e 0431     		adds	r1, r1, #4
 436 0050 0B70     		strb	r3, [r1, #0]
 437              		.loc 1 240 0
 438 0052 184B     		ldr	r3, .L57+16
 439 0054 1978     		ldrb	r1, [r3, #0]	@ zero_extendqisi2
 440 0056 01F07F01 		and	r1, r1, #127
 441 005a 1970     		strb	r1, [r3, #0]
ARM GAS  C:\Users\SUZUKI~1\AppData\Local\Temp\ccl3qvXc.s 			page 17


 442              		.loc 1 243 0
 443 005c 7E33     		adds	r3, r3, #126
 444 005e 1B78     		ldrb	r3, [r3, #0]	@ zero_extendqisi2
 445 0060 13F0080F 		tst	r3, #8
 446 0064 00D0     		beq	.L51
 447 0066 24B9     		cbnz	r4, .L50
 448              	.L51:
 449              		.loc 1 253 0
 450 0068 0F4B     		ldr	r3, .L57+4
 451 006a 1978     		ldrb	r1, [r3, #0]	@ zero_extendqisi2
 452 006c 01F0FD01 		and	r1, r1, #253
 453 0070 1970     		strb	r1, [r3, #0]
 454              	.LVL18:
 455              	.L50:
 456              		.loc 1 263 0
 457 0072 0D4B     		ldr	r3, .L57+4
 458 0074 1978     		ldrb	r1, [r3, #0]	@ zero_extendqisi2
 459              	.LVL19:
 460 0076 11F0020F 		tst	r1, #2
 461 007a 0DD0     		beq	.L52
 462              		.loc 1 266 0
 463 007c 0E4B     		ldr	r3, .L57+20
 464              		.loc 1 268 0
 465 007e 002D     		cmp	r5, #0
 466 0080 14BF     		ite	ne
 467 0082 0325     		movne	r5, #3
 468 0084 0125     		moveq	r5, #1
 469              	.LVL20:
 470              		.loc 1 266 0
 471 0086 1C80     		strh	r4, [r3, #0]	@ movhi
 472              		.loc 1 268 0
 473 0088 013B     		subs	r3, r3, #1
 474 008a 1D70     		strb	r5, [r3, #0]
 475              	.L55:
 476              		.loc 1 269 0
 477 008c 084B     		ldr	r3, .L57+12
 478 008e 1B78     		ldrb	r3, [r3, #0]	@ zero_extendqisi2
 479 0090 13F0010F 		tst	r3, #1
 480 0094 FAD1     		bne	.L55
 481 0096 38BD     		pop	{r3, r4, r5, pc}
 482              	.LVL21:
 483              	.L52:
 484              		.loc 1 274 0
 485 0098 0249     		ldr	r1, .L57
 486 009a 0C80     		strh	r4, [r1, #0]	@ movhi
 487              		.loc 1 275 0
 488 009c 1978     		ldrb	r1, [r3, #0]	@ zero_extendqisi2
 489 009e 0A43     		orrs	r2, r2, r1
 490              	.LVL22:
 491 00a0 1A70     		strb	r2, [r3, #0]
 492              	.LVL23:
 493              	.L56:
 494 00a2 38BD     		pop	{r3, r4, r5, pc}
 495              	.L58:
 496              		.align	2
 497              	.L57:
 498 00a4 84400040 		.word	1073758340
ARM GAS  C:\Users\SUZUKI~1\AppData\Local\Temp\ccl3qvXc.s 			page 18


 499 00a8 A2430040 		.word	1073759138
 500 00ac 86400040 		.word	1073758342
 501 00b0 01400040 		.word	1073758209
 502 00b4 08400040 		.word	1073758216
 503 00b8 02400040 		.word	1073758210
 504              		.cfi_endproc
 505              	.LFE3:
 506              		.size	UART_1_IntClock_SetDividerRegister, .-UART_1_IntClock_SetDividerRegister
 507              		.text
 508              	.Letext0:
