ARM GAS  C:\Users\SUZUKI~1\AppData\Local\Temp\ccnxPUpc.s 			page 1


   1              		.syntax unified
   2              		.cpu cortex-m3
   3              		.fpu softvfp
   4              		.eabi_attribute 20, 1
   5              		.eabi_attribute 21, 1
   6              		.eabi_attribute 23, 3
   7              		.eabi_attribute 24, 1
   8              		.eabi_attribute 25, 1
   9              		.eabi_attribute 26, 1
  10              		.eabi_attribute 30, 6
  11              		.eabi_attribute 18, 4
  12              		.thumb
  13              		.file	"buzzer_1_buzzer.c"
  14              		.section	.debug_abbrev,"",%progbits
  15              	.Ldebug_abbrev0:
  16              		.section	.debug_info,"",%progbits
  17              	.Ldebug_info0:
  18              		.section	.debug_line,"",%progbits
  19              	.Ldebug_line0:
  20 0000 C2000000 		.text
  20      02007500 
  20      00000201 
  20      FB0E0D00 
  20      01010101 
  21              	.Ltext0:
  22              		.cfi_sections	.debug_frame
  23              		.comm	buzzer_1_Chan,1,1
  24              		.comm	buzzer_1_TD,2,4
  25              		.comm	g_buzzbuf,8,4
  26              		.global	g_zero
  27              		.bss
  28              		.type	g_zero, %object
  29              		.size	g_zero, 1
  30              	g_zero:
  31 0000 00       		.space	1
  32              		.section	.text.buzzer_1_Start,"ax",%progbits
  33              		.align	2
  34              		.global	buzzer_1_Start
  35              		.thumb
  36              		.thumb_func
  37              		.type	buzzer_1_Start, %function
  38              	buzzer_1_Start:
  39              	.LFB29:
  40              		.file 1 ".\\Generated_Source\\PSoC5\\buzzer_1_buzzer.c"
   1:.\Generated_Source\PSoC5/buzzer_1_buzzer.c **** /* ========================================
   2:.\Generated_Source\PSoC5/buzzer_1_buzzer.c ****  *
   3:.\Generated_Source\PSoC5/buzzer_1_buzzer.c ****  * Copyright YOUR COMPANY, THE YEAR
   4:.\Generated_Source\PSoC5/buzzer_1_buzzer.c ****  * All Rights Reserved
   5:.\Generated_Source\PSoC5/buzzer_1_buzzer.c ****  * UNPUBLISHED, LICENSED SOFTWARE.
   6:.\Generated_Source\PSoC5/buzzer_1_buzzer.c ****  *
   7:.\Generated_Source\PSoC5/buzzer_1_buzzer.c ****  * CONFIDENTIAL AND PROPRIETARY INFORMATION
   8:.\Generated_Source\PSoC5/buzzer_1_buzzer.c ****  * WHICH IS THE PROPERTY OF your company.
   9:.\Generated_Source\PSoC5/buzzer_1_buzzer.c ****  *
  10:.\Generated_Source\PSoC5/buzzer_1_buzzer.c ****  * ========================================
  11:.\Generated_Source\PSoC5/buzzer_1_buzzer.c **** */
  12:.\Generated_Source\PSoC5/buzzer_1_buzzer.c **** 
  13:.\Generated_Source\PSoC5/buzzer_1_buzzer.c **** #include "device.h"
ARM GAS  C:\Users\SUZUKI~1\AppData\Local\Temp\ccnxPUpc.s 			page 2


  14:.\Generated_Source\PSoC5/buzzer_1_buzzer.c **** 
  15:.\Generated_Source\PSoC5/buzzer_1_buzzer.c **** /* Variable declarations for DMA_Buzzer */
  16:.\Generated_Source\PSoC5/buzzer_1_buzzer.c **** /* Move these variable declarations to the top of the function */
  17:.\Generated_Source\PSoC5/buzzer_1_buzzer.c **** uint8 buzzer_1_Chan;
  18:.\Generated_Source\PSoC5/buzzer_1_buzzer.c **** uint8 buzzer_1_TD[2];
  19:.\Generated_Source\PSoC5/buzzer_1_buzzer.c **** 
  20:.\Generated_Source\PSoC5/buzzer_1_buzzer.c **** uint8 g_buzzbuf[8];
  21:.\Generated_Source\PSoC5/buzzer_1_buzzer.c **** uint8 g_zero = 0;
  22:.\Generated_Source\PSoC5/buzzer_1_buzzer.c **** 
  23:.\Generated_Source\PSoC5/buzzer_1_buzzer.c **** void buzzer_1_Start(void)
  24:.\Generated_Source\PSoC5/buzzer_1_buzzer.c **** {
  41              		.loc 1 24 0
  42              		.cfi_startproc
  43              		@ args = 0, pretend = 0, frame = 0
  44              		@ frame_needed = 1, uses_anonymous_args = 0
  45 0000 80B5     		push	{r7, lr}
  46              	.LCFI0:
  47              		.cfi_def_cfa_offset 8
  48 0002 00AF     		add	r7, sp, #0
  49              		.cfi_offset 14, -4
  50              		.cfi_offset 7, -8
  51              	.LCFI1:
  52              		.cfi_def_cfa_register 7
  25:.\Generated_Source\PSoC5/buzzer_1_buzzer.c **** 	buzzer_1_Counter_Start();
  53              		.loc 1 25 0
  54 0004 FFF7FEFF 		bl	buzzer_1_Counter_Start
  26:.\Generated_Source\PSoC5/buzzer_1_buzzer.c **** 	
  27:.\Generated_Source\PSoC5/buzzer_1_buzzer.c **** 	/*
  28:.\Generated_Source\PSoC5/buzzer_1_buzzer.c **** 	DMA init
  29:.\Generated_Source\PSoC5/buzzer_1_buzzer.c **** 	*/
  30:.\Generated_Source\PSoC5/buzzer_1_buzzer.c **** 	buzzer_1_Chan = buzzer_1_DMA_DmaInitialize(buzzer_1_DMA_BYTES_PER_BURST,
  55              		.loc 1 30 0
  56 0008 4FF00100 		mov	r0, #1
  57 000c 4FF00101 		mov	r1, #1
  58 0010 41F6FF72 		movw	r2, #8191
  59 0014 4FF48043 		mov	r3, #16384
  60 0018 FFF7FEFF 		bl	buzzer_1_DMA_DmaInitialize
  61 001c 0346     		mov	r3, r0
  62 001e 1A46     		mov	r2, r3
  63 0020 40F20003 		movw	r3, #:lower16:buzzer_1_Chan
  64 0024 C0F20003 		movt	r3, #:upper16:buzzer_1_Chan
  65 0028 1A70     		strb	r2, [r3, #0]
  31:.\Generated_Source\PSoC5/buzzer_1_buzzer.c **** 		buzzer_1_DMA_REQUEST_PER_BURST, 
  32:.\Generated_Source\PSoC5/buzzer_1_buzzer.c **** 		HI16(buzzer_1_DMA_SRC_BASE), HI16(buzzer_1_DMA_DST_BASE));
  33:.\Generated_Source\PSoC5/buzzer_1_buzzer.c **** 	buzzer_1_TD[0] = CyDmaTdAllocate();
  66              		.loc 1 33 0
  67 002a FFF7FEFF 		bl	CyDmaTdAllocate
  68 002e 0346     		mov	r3, r0
  69 0030 1A46     		mov	r2, r3
  70 0032 40F20003 		movw	r3, #:lower16:buzzer_1_TD
  71 0036 C0F20003 		movt	r3, #:upper16:buzzer_1_TD
  72 003a 1A70     		strb	r2, [r3, #0]
  34:.\Generated_Source\PSoC5/buzzer_1_buzzer.c **** 	buzzer_1_TD[1] = CyDmaTdAllocate();
  73              		.loc 1 34 0
  74 003c FFF7FEFF 		bl	CyDmaTdAllocate
  75 0040 0346     		mov	r3, r0
  76 0042 1A46     		mov	r2, r3
ARM GAS  C:\Users\SUZUKI~1\AppData\Local\Temp\ccnxPUpc.s 			page 3


  77 0044 40F20003 		movw	r3, #:lower16:buzzer_1_TD
  78 0048 C0F20003 		movt	r3, #:upper16:buzzer_1_TD
  79 004c 5A70     		strb	r2, [r3, #1]
  35:.\Generated_Source\PSoC5/buzzer_1_buzzer.c **** 	return;
  36:.\Generated_Source\PSoC5/buzzer_1_buzzer.c **** }
  80              		.loc 1 36 0
  81 004e 80BD     		pop	{r7, pc}
  82              		.cfi_endproc
  83              	.LFE29:
  84              		.size	buzzer_1_Start, .-buzzer_1_Start
  85              		.section	.text.buzzer_1_Run,"ax",%progbits
  86              		.align	2
  87              		.global	buzzer_1_Run
  88              		.thumb
  89              		.thumb_func
  90              		.type	buzzer_1_Run, %function
  91              	buzzer_1_Run:
  92              	.LFB30:
  37:.\Generated_Source\PSoC5/buzzer_1_buzzer.c **** 
  38:.\Generated_Source\PSoC5/buzzer_1_buzzer.c **** 
  39:.\Generated_Source\PSoC5/buzzer_1_buzzer.c **** void buzzer_1_Run(uint8 config, uint8 loop)
  40:.\Generated_Source\PSoC5/buzzer_1_buzzer.c **** {
  93              		.loc 1 40 0
  94              		.cfi_startproc
  95              		@ args = 0, pretend = 0, frame = 16
  96              		@ frame_needed = 1, uses_anonymous_args = 0
  97 0000 80B5     		push	{r7, lr}
  98              	.LCFI2:
  99              		.cfi_def_cfa_offset 8
 100 0002 84B0     		sub	sp, sp, #16
 101              	.LCFI3:
 102              		.cfi_def_cfa_offset 24
 103 0004 00AF     		add	r7, sp, #0
 104              		.cfi_offset 14, -4
 105              		.cfi_offset 7, -8
 106              	.LCFI4:
 107              		.cfi_def_cfa_register 7
 108 0006 0246     		mov	r2, r0
 109 0008 0B46     		mov	r3, r1
 110 000a FA71     		strb	r2, [r7, #7]
 111 000c BB71     		strb	r3, [r7, #6]
  41:.\Generated_Source\PSoC5/buzzer_1_buzzer.c **** 	int i;
  42:.\Generated_Source\PSoC5/buzzer_1_buzzer.c **** 	CyDmaChDisable(buzzer_1_Chan);
 112              		.loc 1 42 0
 113 000e 40F20003 		movw	r3, #:lower16:buzzer_1_Chan
 114 0012 C0F20003 		movt	r3, #:upper16:buzzer_1_Chan
 115 0016 1B78     		ldrb	r3, [r3, #0]	@ zero_extendqisi2
 116 0018 1846     		mov	r0, r3
 117 001a FFF7FEFF 		bl	CyDmaChDisable
  43:.\Generated_Source\PSoC5/buzzer_1_buzzer.c **** 	CyDmaClearPendingDrq(buzzer_1_Chan);
 118              		.loc 1 43 0
 119 001e 40F20003 		movw	r3, #:lower16:buzzer_1_Chan
 120 0022 C0F20003 		movt	r3, #:upper16:buzzer_1_Chan
 121 0026 1B78     		ldrb	r3, [r3, #0]	@ zero_extendqisi2
 122 0028 1846     		mov	r0, r3
 123 002a FFF7FEFF 		bl	CyDmaClearPendingDrq
  44:.\Generated_Source\PSoC5/buzzer_1_buzzer.c **** 	for(i = 0; i < 8; i++) {
ARM GAS  C:\Users\SUZUKI~1\AppData\Local\Temp\ccnxPUpc.s 			page 4


 124              		.loc 1 44 0
 125 002e 4FF00003 		mov	r3, #0
 126 0032 FB60     		str	r3, [r7, #12]
 127 0034 16E0     		b	.L4
 128              	.L7:
  45:.\Generated_Source\PSoC5/buzzer_1_buzzer.c **** 		g_buzzbuf[i] = (config&0x80) ? 0xff : 0;
 129              		.loc 1 45 0
 130 0036 F968     		ldr	r1, [r7, #12]
 131 0038 FB79     		ldrb	r3, [r7, #7]	@ zero_extendqisi2
 132 003a 5BB2     		sxtb	r3, r3
 133 003c 002B     		cmp	r3, #0
 134 003e 02DA     		bge	.L5
 135 0040 4FF0FF02 		mov	r2, #255
 136 0044 01E0     		b	.L6
 137              	.L5:
 138 0046 4FF00002 		mov	r2, #0
 139              	.L6:
 140 004a 40F20003 		movw	r3, #:lower16:g_buzzbuf
 141 004e C0F20003 		movt	r3, #:upper16:g_buzzbuf
 142 0052 5A54     		strb	r2, [r3, r1]
  46:.\Generated_Source\PSoC5/buzzer_1_buzzer.c **** 		config<<=1;
 143              		.loc 1 46 0
 144 0054 FB79     		ldrb	r3, [r7, #7]
 145 0056 4FEA4303 		lsl	r3, r3, #1
 146 005a FB71     		strb	r3, [r7, #7]
 147              		.loc 1 44 0
 148 005c FB68     		ldr	r3, [r7, #12]
 149 005e 03F10103 		add	r3, r3, #1
 150 0062 FB60     		str	r3, [r7, #12]
 151              	.L4:
 152 0064 FB68     		ldr	r3, [r7, #12]
 153 0066 072B     		cmp	r3, #7
 154 0068 E5DD     		ble	.L7
  47:.\Generated_Source\PSoC5/buzzer_1_buzzer.c **** 	}
  48:.\Generated_Source\PSoC5/buzzer_1_buzzer.c **** 	if(loop == buzzer_1_CONTINUOUS) {
 155              		.loc 1 48 0
 156 006a BB79     		ldrb	r3, [r7, #6]	@ zero_extendqisi2
 157 006c 012B     		cmp	r3, #1
 158 006e 12D1     		bne	.L8
  49:.\Generated_Source\PSoC5/buzzer_1_buzzer.c **** 		CyDmaTdSetConfiguration(buzzer_1_TD[0], 8, buzzer_1_TD[0], TD_INC_SRC_ADR/* | TD_AUTO_EXEC_NEXT*/
 159              		.loc 1 49 0
 160 0070 40F20003 		movw	r3, #:lower16:buzzer_1_TD
 161 0074 C0F20003 		movt	r3, #:upper16:buzzer_1_TD
 162 0078 1A78     		ldrb	r2, [r3, #0]	@ zero_extendqisi2
 163 007a 40F20003 		movw	r3, #:lower16:buzzer_1_TD
 164 007e C0F20003 		movt	r3, #:upper16:buzzer_1_TD
 165 0082 1B78     		ldrb	r3, [r3, #0]	@ zero_extendqisi2
 166 0084 1046     		mov	r0, r2
 167 0086 4FF00801 		mov	r1, #8
 168 008a 1A46     		mov	r2, r3
 169 008c 4FF00103 		mov	r3, #1
 170 0090 FFF7FEFF 		bl	CyDmaTdSetConfiguration
 171 0094 11E0     		b	.L9
 172              	.L8:
  50:.\Generated_Source\PSoC5/buzzer_1_buzzer.c **** 	} else {
  51:.\Generated_Source\PSoC5/buzzer_1_buzzer.c **** 		CyDmaTdSetConfiguration(buzzer_1_TD[0], 8, buzzer_1_TD[1], TD_INC_SRC_ADR/* | TD_AUTO_EXEC_NEXT*/
 173              		.loc 1 51 0
ARM GAS  C:\Users\SUZUKI~1\AppData\Local\Temp\ccnxPUpc.s 			page 5


 174 0096 40F20003 		movw	r3, #:lower16:buzzer_1_TD
 175 009a C0F20003 		movt	r3, #:upper16:buzzer_1_TD
 176 009e 1A78     		ldrb	r2, [r3, #0]	@ zero_extendqisi2
 177 00a0 40F20003 		movw	r3, #:lower16:buzzer_1_TD
 178 00a4 C0F20003 		movt	r3, #:upper16:buzzer_1_TD
 179 00a8 5B78     		ldrb	r3, [r3, #1]	@ zero_extendqisi2
 180 00aa 1046     		mov	r0, r2
 181 00ac 4FF00801 		mov	r1, #8
 182 00b0 1A46     		mov	r2, r3
 183 00b2 4FF00103 		mov	r3, #1
 184 00b6 FFF7FEFF 		bl	CyDmaTdSetConfiguration
 185              	.L9:
  52:.\Generated_Source\PSoC5/buzzer_1_buzzer.c **** 	}
  53:.\Generated_Source\PSoC5/buzzer_1_buzzer.c **** 	CyDmaTdSetConfiguration(buzzer_1_TD[1], 1, buzzer_1_TD[1], TD_INC_SRC_ADR/* | TD_AUTO_EXEC_NEXT*/)
 186              		.loc 1 53 0
 187 00ba 40F20003 		movw	r3, #:lower16:buzzer_1_TD
 188 00be C0F20003 		movt	r3, #:upper16:buzzer_1_TD
 189 00c2 5A78     		ldrb	r2, [r3, #1]	@ zero_extendqisi2
 190 00c4 40F20003 		movw	r3, #:lower16:buzzer_1_TD
 191 00c8 C0F20003 		movt	r3, #:upper16:buzzer_1_TD
 192 00cc 5B78     		ldrb	r3, [r3, #1]	@ zero_extendqisi2
 193 00ce 1046     		mov	r0, r2
 194 00d0 4FF00101 		mov	r1, #1
 195 00d4 1A46     		mov	r2, r3
 196 00d6 4FF00103 		mov	r3, #1
 197 00da FFF7FEFF 		bl	CyDmaTdSetConfiguration
  54:.\Generated_Source\PSoC5/buzzer_1_buzzer.c **** 	CyDmaTdSetAddress(buzzer_1_TD[0], LO16((uint32)g_buzzbuf), LO16((uint32)buzzer_1_Control_Reg_Contr
 198              		.loc 1 54 0
 199 00de 40F20003 		movw	r3, #:lower16:buzzer_1_TD
 200 00e2 C0F20003 		movt	r3, #:upper16:buzzer_1_TD
 201 00e6 1A78     		ldrb	r2, [r3, #0]	@ zero_extendqisi2
 202 00e8 40F20003 		movw	r3, #:lower16:g_buzzbuf
 203 00ec C0F20003 		movt	r3, #:upper16:g_buzzbuf
 204 00f0 9BB2     		uxth	r3, r3
 205 00f2 1046     		mov	r0, r2
 206 00f4 1946     		mov	r1, r3
 207 00f6 46F27842 		movw	r2, #25720
 208 00fa FFF7FEFF 		bl	CyDmaTdSetAddress
  55:.\Generated_Source\PSoC5/buzzer_1_buzzer.c **** 	CyDmaTdSetAddress(buzzer_1_TD[1], LO16((uint32)g_zero), LO16((uint32)buzzer_1_Control_Reg_Control_
 209              		.loc 1 55 0
 210 00fe 40F20003 		movw	r3, #:lower16:buzzer_1_TD
 211 0102 C0F20003 		movt	r3, #:upper16:buzzer_1_TD
 212 0106 5A78     		ldrb	r2, [r3, #1]	@ zero_extendqisi2
 213 0108 40F20003 		movw	r3, #:lower16:g_zero
 214 010c C0F20003 		movt	r3, #:upper16:g_zero
 215 0110 1B78     		ldrb	r3, [r3, #0]	@ zero_extendqisi2
 216 0112 1046     		mov	r0, r2
 217 0114 1946     		mov	r1, r3
 218 0116 46F27842 		movw	r2, #25720
 219 011a FFF7FEFF 		bl	CyDmaTdSetAddress
  56:.\Generated_Source\PSoC5/buzzer_1_buzzer.c **** 	CyDmaChSetInitialTd(buzzer_1_Chan, buzzer_1_TD[0]);
 220              		.loc 1 56 0
 221 011e 40F20003 		movw	r3, #:lower16:buzzer_1_Chan
 222 0122 C0F20003 		movt	r3, #:upper16:buzzer_1_Chan
 223 0126 1A78     		ldrb	r2, [r3, #0]	@ zero_extendqisi2
 224 0128 40F20003 		movw	r3, #:lower16:buzzer_1_TD
 225 012c C0F20003 		movt	r3, #:upper16:buzzer_1_TD
ARM GAS  C:\Users\SUZUKI~1\AppData\Local\Temp\ccnxPUpc.s 			page 6


 226 0130 1B78     		ldrb	r3, [r3, #0]	@ zero_extendqisi2
 227 0132 1046     		mov	r0, r2
 228 0134 1946     		mov	r1, r3
 229 0136 FFF7FEFF 		bl	CyDmaChSetInitialTd
  57:.\Generated_Source\PSoC5/buzzer_1_buzzer.c **** 	CyDmaChEnable(buzzer_1_Chan, 1);
 230              		.loc 1 57 0
 231 013a 40F20003 		movw	r3, #:lower16:buzzer_1_Chan
 232 013e C0F20003 		movt	r3, #:upper16:buzzer_1_Chan
 233 0142 1B78     		ldrb	r3, [r3, #0]	@ zero_extendqisi2
 234 0144 1846     		mov	r0, r3
 235 0146 4FF00101 		mov	r1, #1
 236 014a FFF7FEFF 		bl	CyDmaChEnable
  58:.\Generated_Source\PSoC5/buzzer_1_buzzer.c **** 	return;
  59:.\Generated_Source\PSoC5/buzzer_1_buzzer.c **** }
 237              		.loc 1 59 0
 238 014e 07F11007 		add	r7, r7, #16
 239 0152 BD46     		mov	sp, r7
 240 0154 80BD     		pop	{r7, pc}
 241              		.cfi_endproc
 242              	.LFE30:
 243              		.size	buzzer_1_Run, .-buzzer_1_Run
 244 0156 00BF     		.section	.text.buzzer_1_Stop,"ax",%progbits
 245              		.align	2
 246              		.global	buzzer_1_Stop
 247              		.thumb
 248              		.thumb_func
 249              		.type	buzzer_1_Stop, %function
 250              	buzzer_1_Stop:
 251              	.LFB31:
  60:.\Generated_Source\PSoC5/buzzer_1_buzzer.c **** 
  61:.\Generated_Source\PSoC5/buzzer_1_buzzer.c **** 
  62:.\Generated_Source\PSoC5/buzzer_1_buzzer.c **** void buzzer_1_Stop(void)
  63:.\Generated_Source\PSoC5/buzzer_1_buzzer.c **** {
 252              		.loc 1 63 0
 253              		.cfi_startproc
 254              		@ args = 0, pretend = 0, frame = 0
 255              		@ frame_needed = 1, uses_anonymous_args = 0
 256 0000 80B5     		push	{r7, lr}
 257              	.LCFI5:
 258              		.cfi_def_cfa_offset 8
 259 0002 00AF     		add	r7, sp, #0
 260              		.cfi_offset 14, -4
 261              		.cfi_offset 7, -8
 262              	.LCFI6:
 263              		.cfi_def_cfa_register 7
  64:.\Generated_Source\PSoC5/buzzer_1_buzzer.c **** 	buzzer_1_Counter_Stop();
 264              		.loc 1 64 0
 265 0004 FFF7FEFF 		bl	buzzer_1_Counter_Stop
  65:.\Generated_Source\PSoC5/buzzer_1_buzzer.c **** 	return;
  66:.\Generated_Source\PSoC5/buzzer_1_buzzer.c **** }
 266              		.loc 1 66 0
 267 0008 80BD     		pop	{r7, pc}
 268              		.cfi_endproc
 269              	.LFE31:
 270              		.size	buzzer_1_Stop, .-buzzer_1_Stop
 271 000a 00BF     		.text
 272              	.Letext0:
ARM GAS  C:\Users\SUZUKI~1\AppData\Local\Temp\ccnxPUpc.s 			page 7


