ARM GAS  C:\Users\SUZUKI~1\AppData\Local\Temp\ccipHmLL.s 			page 1


   1              		.syntax unified
   2              		.cpu cortex-m3
   3              		.fpu softvfp
   4              		.eabi_attribute 20, 1
   5              		.eabi_attribute 21, 1
   6              		.eabi_attribute 23, 3
   7              		.eabi_attribute 24, 1
   8              		.eabi_attribute 25, 1
   9              		.eabi_attribute 26, 1
  10              		.eabi_attribute 30, 6
  11              		.eabi_attribute 18, 4
  12              		.thumb
  13              		.file	"Control_Reg_Buzzer.c"
  14              		.section	.debug_abbrev,"",%progbits
  15              	.Ldebug_abbrev0:
  16              		.section	.debug_info,"",%progbits
  17              	.Ldebug_info0:
  18              		.section	.debug_line,"",%progbits
  19              	.Ldebug_line0:
  20 0000 93000000 		.text
  20      02006B00 
  20      00000201 
  20      FB0E0D00 
  20      01010101 
  21              	.Ltext0:
  22              		.cfi_sections	.debug_frame
  23              		.section	.text.Control_Reg_Buzzer_Write,"ax",%progbits
  24              		.align	2
  25              		.global	Control_Reg_Buzzer_Write
  26              		.thumb
  27              		.thumb_func
  28              		.type	Control_Reg_Buzzer_Write, %function
  29              	Control_Reg_Buzzer_Write:
  30              	.LFB0:
  31              		.file 1 ".\\Generated_Source\\PSoC5\\Control_Reg_Buzzer.c"
   1:.\Generated_Source\PSoC5/Control_Reg_Buzzer.c **** /*******************************************************************************
   2:.\Generated_Source\PSoC5/Control_Reg_Buzzer.c **** * File Name: Control_Reg_Buzzer.c  
   3:.\Generated_Source\PSoC5/Control_Reg_Buzzer.c **** * Version 1.70
   4:.\Generated_Source\PSoC5/Control_Reg_Buzzer.c **** *
   5:.\Generated_Source\PSoC5/Control_Reg_Buzzer.c **** * Description:
   6:.\Generated_Source\PSoC5/Control_Reg_Buzzer.c **** *  This file contains API to enable firmware control of a Control Register.
   7:.\Generated_Source\PSoC5/Control_Reg_Buzzer.c **** *
   8:.\Generated_Source\PSoC5/Control_Reg_Buzzer.c **** * Note:
   9:.\Generated_Source\PSoC5/Control_Reg_Buzzer.c **** *
  10:.\Generated_Source\PSoC5/Control_Reg_Buzzer.c **** ********************************************************************************
  11:.\Generated_Source\PSoC5/Control_Reg_Buzzer.c **** * Copyright 2008-2012, Cypress Semiconductor Corporation.  All rights reserved.
  12:.\Generated_Source\PSoC5/Control_Reg_Buzzer.c **** * You may use this file only in accordance with the license, terms, conditions, 
  13:.\Generated_Source\PSoC5/Control_Reg_Buzzer.c **** * disclaimers, and limitations in the end user license agreement accompanying 
  14:.\Generated_Source\PSoC5/Control_Reg_Buzzer.c **** * the software package with which this file was provided.
  15:.\Generated_Source\PSoC5/Control_Reg_Buzzer.c **** *******************************************************************************/
  16:.\Generated_Source\PSoC5/Control_Reg_Buzzer.c **** 
  17:.\Generated_Source\PSoC5/Control_Reg_Buzzer.c **** #include "Control_Reg_Buzzer.h"
  18:.\Generated_Source\PSoC5/Control_Reg_Buzzer.c **** 
  19:.\Generated_Source\PSoC5/Control_Reg_Buzzer.c **** #if !defined(Control_Reg_Buzzer_Async_ctrl_reg__REMOVED) /* Check for removal by optimization */
  20:.\Generated_Source\PSoC5/Control_Reg_Buzzer.c **** 
  21:.\Generated_Source\PSoC5/Control_Reg_Buzzer.c **** /*******************************************************************************
  22:.\Generated_Source\PSoC5/Control_Reg_Buzzer.c **** * Function Name: Control_Reg_Buzzer_Write
ARM GAS  C:\Users\SUZUKI~1\AppData\Local\Temp\ccipHmLL.s 			page 2


  23:.\Generated_Source\PSoC5/Control_Reg_Buzzer.c **** ********************************************************************************
  24:.\Generated_Source\PSoC5/Control_Reg_Buzzer.c **** *
  25:.\Generated_Source\PSoC5/Control_Reg_Buzzer.c **** * Summary:
  26:.\Generated_Source\PSoC5/Control_Reg_Buzzer.c **** *  Write a byte to the Control Register.
  27:.\Generated_Source\PSoC5/Control_Reg_Buzzer.c **** *
  28:.\Generated_Source\PSoC5/Control_Reg_Buzzer.c **** * Parameters:
  29:.\Generated_Source\PSoC5/Control_Reg_Buzzer.c **** *  control:  The value to be assigned to the Control Register.
  30:.\Generated_Source\PSoC5/Control_Reg_Buzzer.c **** *
  31:.\Generated_Source\PSoC5/Control_Reg_Buzzer.c **** * Return:
  32:.\Generated_Source\PSoC5/Control_Reg_Buzzer.c **** *  None.
  33:.\Generated_Source\PSoC5/Control_Reg_Buzzer.c **** *
  34:.\Generated_Source\PSoC5/Control_Reg_Buzzer.c **** *******************************************************************************/
  35:.\Generated_Source\PSoC5/Control_Reg_Buzzer.c **** void Control_Reg_Buzzer_Write(uint8 control) 
  36:.\Generated_Source\PSoC5/Control_Reg_Buzzer.c **** {
  32              		.loc 1 36 0
  33              		.cfi_startproc
  34              		@ args = 0, pretend = 0, frame = 8
  35              		@ frame_needed = 1, uses_anonymous_args = 0
  36              		@ link register save eliminated.
  37 0000 80B4     		push	{r7}
  38              	.LCFI0:
  39              		.cfi_def_cfa_offset 4
  40 0002 83B0     		sub	sp, sp, #12
  41              	.LCFI1:
  42              		.cfi_def_cfa_offset 16
  43 0004 00AF     		add	r7, sp, #0
  44              		.cfi_offset 7, -4
  45              	.LCFI2:
  46              		.cfi_def_cfa_register 7
  47 0006 0346     		mov	r3, r0
  48 0008 FB71     		strb	r3, [r7, #7]
  37:.\Generated_Source\PSoC5/Control_Reg_Buzzer.c ****     Control_Reg_Buzzer_Control = control;
  49              		.loc 1 37 0
  50 000a 46F27143 		movw	r3, #:lower16:1073767537
  51 000e C4F20003 		movt	r3, #:upper16:1073767537
  52 0012 FA79     		ldrb	r2, [r7, #7]
  53 0014 1A70     		strb	r2, [r3, #0]
  38:.\Generated_Source\PSoC5/Control_Reg_Buzzer.c **** }
  54              		.loc 1 38 0
  55 0016 07F10C07 		add	r7, r7, #12
  56 001a BD46     		mov	sp, r7
  57 001c 80BC     		pop	{r7}
  58 001e 7047     		bx	lr
  59              		.cfi_endproc
  60              	.LFE0:
  61              		.size	Control_Reg_Buzzer_Write, .-Control_Reg_Buzzer_Write
  62              		.section	.text.Control_Reg_Buzzer_Read,"ax",%progbits
  63              		.align	2
  64              		.global	Control_Reg_Buzzer_Read
  65              		.thumb
  66              		.thumb_func
  67              		.type	Control_Reg_Buzzer_Read, %function
  68              	Control_Reg_Buzzer_Read:
  69              	.LFB1:
  39:.\Generated_Source\PSoC5/Control_Reg_Buzzer.c **** 
  40:.\Generated_Source\PSoC5/Control_Reg_Buzzer.c **** 
  41:.\Generated_Source\PSoC5/Control_Reg_Buzzer.c **** /*******************************************************************************
ARM GAS  C:\Users\SUZUKI~1\AppData\Local\Temp\ccipHmLL.s 			page 3


  42:.\Generated_Source\PSoC5/Control_Reg_Buzzer.c **** * Function Name: Control_Reg_Buzzer_Read
  43:.\Generated_Source\PSoC5/Control_Reg_Buzzer.c **** ********************************************************************************
  44:.\Generated_Source\PSoC5/Control_Reg_Buzzer.c **** *
  45:.\Generated_Source\PSoC5/Control_Reg_Buzzer.c **** * Summary:
  46:.\Generated_Source\PSoC5/Control_Reg_Buzzer.c **** *  Reads the current value assigned to the Control Register.
  47:.\Generated_Source\PSoC5/Control_Reg_Buzzer.c **** *
  48:.\Generated_Source\PSoC5/Control_Reg_Buzzer.c **** * Parameters:
  49:.\Generated_Source\PSoC5/Control_Reg_Buzzer.c **** *  None.
  50:.\Generated_Source\PSoC5/Control_Reg_Buzzer.c **** *
  51:.\Generated_Source\PSoC5/Control_Reg_Buzzer.c **** * Return:
  52:.\Generated_Source\PSoC5/Control_Reg_Buzzer.c **** *  Returns the current value in the Control Register.
  53:.\Generated_Source\PSoC5/Control_Reg_Buzzer.c **** *
  54:.\Generated_Source\PSoC5/Control_Reg_Buzzer.c **** *******************************************************************************/
  55:.\Generated_Source\PSoC5/Control_Reg_Buzzer.c **** uint8 Control_Reg_Buzzer_Read(void) 
  56:.\Generated_Source\PSoC5/Control_Reg_Buzzer.c **** {
  70              		.loc 1 56 0
  71              		.cfi_startproc
  72              		@ args = 0, pretend = 0, frame = 0
  73              		@ frame_needed = 1, uses_anonymous_args = 0
  74              		@ link register save eliminated.
  75 0000 80B4     		push	{r7}
  76              	.LCFI3:
  77              		.cfi_def_cfa_offset 4
  78 0002 00AF     		add	r7, sp, #0
  79              		.cfi_offset 7, -4
  80              	.LCFI4:
  81              		.cfi_def_cfa_register 7
  57:.\Generated_Source\PSoC5/Control_Reg_Buzzer.c ****     return Control_Reg_Buzzer_Control;
  82              		.loc 1 57 0
  83 0004 46F27143 		movw	r3, #:lower16:1073767537
  84 0008 C4F20003 		movt	r3, #:upper16:1073767537
  85 000c 1B78     		ldrb	r3, [r3, #0]
  86 000e DBB2     		uxtb	r3, r3
  58:.\Generated_Source\PSoC5/Control_Reg_Buzzer.c **** }
  87              		.loc 1 58 0
  88 0010 1846     		mov	r0, r3
  89 0012 BD46     		mov	sp, r7
  90 0014 80BC     		pop	{r7}
  91 0016 7047     		bx	lr
  92              		.cfi_endproc
  93              	.LFE1:
  94              		.size	Control_Reg_Buzzer_Read, .-Control_Reg_Buzzer_Read
  95              		.text
  96              	.Letext0:
