ARM GAS  C:\Users\SUZUKI~1\AppData\Local\Temp\ccUC5zq0.s 			page 1


   1              		.syntax unified
   2              		.cpu cortex-m3
   3              		.fpu softvfp
   4              		.eabi_attribute 20, 1
   5              		.eabi_attribute 21, 1
   6              		.eabi_attribute 23, 3
   7              		.eabi_attribute 24, 1
   8              		.eabi_attribute 25, 1
   9              		.eabi_attribute 26, 1
  10              		.eabi_attribute 30, 6
  11              		.eabi_attribute 18, 4
  12              		.thumb
  13              		.file	"DMA_Buzzer_dma.c"
  14              		.section	.debug_abbrev,"",%progbits
  15              	.Ldebug_abbrev0:
  16              		.section	.debug_info,"",%progbits
  17              	.Ldebug_info0:
  18              		.section	.debug_line,"",%progbits
  19              	.Ldebug_line0:
  20 0000 95000000 		.text
  20      02006600 
  20      00000201 
  20      FB0E0D00 
  20      01010101 
  21              	.Ltext0:
  22              		.cfi_sections	.debug_frame
  23              		.global	DMA_Buzzer_DmaHandle
  24              		.data
  25              		.type	DMA_Buzzer_DmaHandle, %object
  26              		.size	DMA_Buzzer_DmaHandle, 1
  27              	DMA_Buzzer_DmaHandle:
  28 0000 FF       		.byte	-1
  29              		.section	.text.DMA_Buzzer_DmaInitialize,"ax",%progbits
  30              		.align	2
  31              		.global	DMA_Buzzer_DmaInitialize
  32              		.thumb
  33              		.thumb_func
  34              		.type	DMA_Buzzer_DmaInitialize, %function
  35              	DMA_Buzzer_DmaInitialize:
  36              	.LFB0:
  37              		.file 1 ".\\Generated_Source\\PSoC5\\DMA_Buzzer_dma.c"
   1:.\Generated_Source\PSoC5/DMA_Buzzer_dma.c **** /***************************************************************************
   2:.\Generated_Source\PSoC5/DMA_Buzzer_dma.c **** * File Name: DMA_Buzzer_dma.c  
   3:.\Generated_Source\PSoC5/DMA_Buzzer_dma.c **** * Version 1.70
   4:.\Generated_Source\PSoC5/DMA_Buzzer_dma.c **** *
   5:.\Generated_Source\PSoC5/DMA_Buzzer_dma.c **** *  Description:
   6:.\Generated_Source\PSoC5/DMA_Buzzer_dma.c **** *   Provides an API for the DMAC component. The API includes functions
   7:.\Generated_Source\PSoC5/DMA_Buzzer_dma.c **** *   for the DMA controller, DMA channels and Transfer Descriptors.
   8:.\Generated_Source\PSoC5/DMA_Buzzer_dma.c **** *
   9:.\Generated_Source\PSoC5/DMA_Buzzer_dma.c **** *
  10:.\Generated_Source\PSoC5/DMA_Buzzer_dma.c **** *   Note:
  11:.\Generated_Source\PSoC5/DMA_Buzzer_dma.c **** *     This module requires the developer to finish or fill in the auto
  12:.\Generated_Source\PSoC5/DMA_Buzzer_dma.c **** *     generated funcions and setup the dma channel and TD's.
  13:.\Generated_Source\PSoC5/DMA_Buzzer_dma.c **** *
  14:.\Generated_Source\PSoC5/DMA_Buzzer_dma.c **** ********************************************************************************
  15:.\Generated_Source\PSoC5/DMA_Buzzer_dma.c **** * Copyright 2008-2010, Cypress Semiconductor Corporation.  All rights reserved.
  16:.\Generated_Source\PSoC5/DMA_Buzzer_dma.c **** * You may use this file only in accordance with the license, terms, conditions, 
ARM GAS  C:\Users\SUZUKI~1\AppData\Local\Temp\ccUC5zq0.s 			page 2


  17:.\Generated_Source\PSoC5/DMA_Buzzer_dma.c **** * disclaimers, and limitations in the end user license agreement accompanying 
  18:.\Generated_Source\PSoC5/DMA_Buzzer_dma.c **** * the software package with which this file was provided.
  19:.\Generated_Source\PSoC5/DMA_Buzzer_dma.c **** ********************************************************************************/
  20:.\Generated_Source\PSoC5/DMA_Buzzer_dma.c **** #include <CYLIB.H>
  21:.\Generated_Source\PSoC5/DMA_Buzzer_dma.c **** #include <CYDMAC.H>
  22:.\Generated_Source\PSoC5/DMA_Buzzer_dma.c **** #include <DMA_Buzzer_dma.H>
  23:.\Generated_Source\PSoC5/DMA_Buzzer_dma.c **** 
  24:.\Generated_Source\PSoC5/DMA_Buzzer_dma.c **** 
  25:.\Generated_Source\PSoC5/DMA_Buzzer_dma.c **** 
  26:.\Generated_Source\PSoC5/DMA_Buzzer_dma.c **** /****************************************************************************
  27:.\Generated_Source\PSoC5/DMA_Buzzer_dma.c **** * 
  28:.\Generated_Source\PSoC5/DMA_Buzzer_dma.c **** * The following defines are available in Cyfitter.h
  29:.\Generated_Source\PSoC5/DMA_Buzzer_dma.c **** * 
  30:.\Generated_Source\PSoC5/DMA_Buzzer_dma.c **** * 
  31:.\Generated_Source\PSoC5/DMA_Buzzer_dma.c **** * 
  32:.\Generated_Source\PSoC5/DMA_Buzzer_dma.c **** * DMA_Buzzer__DRQ_CTL_REG
  33:.\Generated_Source\PSoC5/DMA_Buzzer_dma.c **** * 
  34:.\Generated_Source\PSoC5/DMA_Buzzer_dma.c **** * 
  35:.\Generated_Source\PSoC5/DMA_Buzzer_dma.c **** * DMA_Buzzer__DRQ_NUMBER
  36:.\Generated_Source\PSoC5/DMA_Buzzer_dma.c **** * 
  37:.\Generated_Source\PSoC5/DMA_Buzzer_dma.c **** * Number of TD's used by this channel.
  38:.\Generated_Source\PSoC5/DMA_Buzzer_dma.c **** * DMA_Buzzer__NUMBEROF_TDS
  39:.\Generated_Source\PSoC5/DMA_Buzzer_dma.c **** * 
  40:.\Generated_Source\PSoC5/DMA_Buzzer_dma.c **** * Priority of this channel.
  41:.\Generated_Source\PSoC5/DMA_Buzzer_dma.c **** * DMA_Buzzer__PRIORITY
  42:.\Generated_Source\PSoC5/DMA_Buzzer_dma.c **** * 
  43:.\Generated_Source\PSoC5/DMA_Buzzer_dma.c **** * True if DMA_Buzzer_TERMIN_SEL is used.
  44:.\Generated_Source\PSoC5/DMA_Buzzer_dma.c **** * DMA_Buzzer__TERMIN_EN
  45:.\Generated_Source\PSoC5/DMA_Buzzer_dma.c **** * 
  46:.\Generated_Source\PSoC5/DMA_Buzzer_dma.c **** * TERMIN interrupt line to signal terminate.
  47:.\Generated_Source\PSoC5/DMA_Buzzer_dma.c **** * DMA_Buzzer__TERMIN_SEL
  48:.\Generated_Source\PSoC5/DMA_Buzzer_dma.c **** * 
  49:.\Generated_Source\PSoC5/DMA_Buzzer_dma.c **** * 
  50:.\Generated_Source\PSoC5/DMA_Buzzer_dma.c **** * True if DMA_Buzzer_TERMOUT0_SEL is used.
  51:.\Generated_Source\PSoC5/DMA_Buzzer_dma.c **** * DMA_Buzzer__TERMOUT0_EN
  52:.\Generated_Source\PSoC5/DMA_Buzzer_dma.c **** * 
  53:.\Generated_Source\PSoC5/DMA_Buzzer_dma.c **** * 
  54:.\Generated_Source\PSoC5/DMA_Buzzer_dma.c **** * TERMOUT0 interrupt line to signal completion.
  55:.\Generated_Source\PSoC5/DMA_Buzzer_dma.c **** * DMA_Buzzer__TERMOUT0_SEL
  56:.\Generated_Source\PSoC5/DMA_Buzzer_dma.c **** * 
  57:.\Generated_Source\PSoC5/DMA_Buzzer_dma.c **** * 
  58:.\Generated_Source\PSoC5/DMA_Buzzer_dma.c **** * True if DMA_Buzzer_TERMOUT1_SEL is used.
  59:.\Generated_Source\PSoC5/DMA_Buzzer_dma.c **** * DMA_Buzzer__TERMOUT1_EN
  60:.\Generated_Source\PSoC5/DMA_Buzzer_dma.c **** * 
  61:.\Generated_Source\PSoC5/DMA_Buzzer_dma.c **** * 
  62:.\Generated_Source\PSoC5/DMA_Buzzer_dma.c **** * TERMOUT1 interrupt line to signal completion.
  63:.\Generated_Source\PSoC5/DMA_Buzzer_dma.c **** * DMA_Buzzer__TERMOUT1_SEL
  64:.\Generated_Source\PSoC5/DMA_Buzzer_dma.c **** * 
  65:.\Generated_Source\PSoC5/DMA_Buzzer_dma.c **** ****************************************************************************/
  66:.\Generated_Source\PSoC5/DMA_Buzzer_dma.c **** 
  67:.\Generated_Source\PSoC5/DMA_Buzzer_dma.c **** 
  68:.\Generated_Source\PSoC5/DMA_Buzzer_dma.c **** /* Zero based index of DMA_Buzzer dma channel */
  69:.\Generated_Source\PSoC5/DMA_Buzzer_dma.c **** uint8 DMA_Buzzer_DmaHandle = DMA_INVALID_CHANNEL;
  70:.\Generated_Source\PSoC5/DMA_Buzzer_dma.c **** 
  71:.\Generated_Source\PSoC5/DMA_Buzzer_dma.c **** /*********************************************************************
  72:.\Generated_Source\PSoC5/DMA_Buzzer_dma.c **** * Function Name: uint8 DMA_Buzzer_DmaInitalize
  73:.\Generated_Source\PSoC5/DMA_Buzzer_dma.c **** **********************************************************************
ARM GAS  C:\Users\SUZUKI~1\AppData\Local\Temp\ccUC5zq0.s 			page 3


  74:.\Generated_Source\PSoC5/DMA_Buzzer_dma.c **** * Summary:
  75:.\Generated_Source\PSoC5/DMA_Buzzer_dma.c **** *   Allocates and initialises a channel of the DMAC to be used by the
  76:.\Generated_Source\PSoC5/DMA_Buzzer_dma.c **** *   caller.
  77:.\Generated_Source\PSoC5/DMA_Buzzer_dma.c **** *
  78:.\Generated_Source\PSoC5/DMA_Buzzer_dma.c **** * Parameters:
  79:.\Generated_Source\PSoC5/DMA_Buzzer_dma.c **** *   BurstCount.
  80:.\Generated_Source\PSoC5/DMA_Buzzer_dma.c **** *       
  81:.\Generated_Source\PSoC5/DMA_Buzzer_dma.c **** *       
  82:.\Generated_Source\PSoC5/DMA_Buzzer_dma.c **** *   ReqestPerBurst.
  83:.\Generated_Source\PSoC5/DMA_Buzzer_dma.c **** *       
  84:.\Generated_Source\PSoC5/DMA_Buzzer_dma.c **** *       
  85:.\Generated_Source\PSoC5/DMA_Buzzer_dma.c **** *   UpperSrcAddress.
  86:.\Generated_Source\PSoC5/DMA_Buzzer_dma.c **** *       
  87:.\Generated_Source\PSoC5/DMA_Buzzer_dma.c **** *       
  88:.\Generated_Source\PSoC5/DMA_Buzzer_dma.c **** *   UpperDestAddress.
  89:.\Generated_Source\PSoC5/DMA_Buzzer_dma.c **** *       
  90:.\Generated_Source\PSoC5/DMA_Buzzer_dma.c **** *
  91:.\Generated_Source\PSoC5/DMA_Buzzer_dma.c **** * Return:
  92:.\Generated_Source\PSoC5/DMA_Buzzer_dma.c **** *   The channel that can be used by the caller for DMA activity.
  93:.\Generated_Source\PSoC5/DMA_Buzzer_dma.c **** *   DMA_INVALID_CHANNEL (0xFF) if there are no channels left. 
  94:.\Generated_Source\PSoC5/DMA_Buzzer_dma.c **** *
  95:.\Generated_Source\PSoC5/DMA_Buzzer_dma.c **** *
  96:.\Generated_Source\PSoC5/DMA_Buzzer_dma.c **** *******************************************************************/
  97:.\Generated_Source\PSoC5/DMA_Buzzer_dma.c **** uint8 DMA_Buzzer_DmaInitialize(uint8 BurstCount, uint8 ReqestPerBurst, uint16 UpperSrcAddress, uint
  98:.\Generated_Source\PSoC5/DMA_Buzzer_dma.c **** {
  38              		.loc 1 98 0
  39              		.cfi_startproc
  40              		@ args = 0, pretend = 0, frame = 8
  41              		@ frame_needed = 1, uses_anonymous_args = 0
  42 0000 80B5     		push	{r7, lr}
  43              	.LCFI0:
  44              		.cfi_def_cfa_offset 8
  45 0002 84B0     		sub	sp, sp, #16
  46              	.LCFI1:
  47              		.cfi_def_cfa_offset 24
  48 0004 02AF     		add	r7, sp, #8
  49              		.cfi_offset 14, -4
  50              		.cfi_offset 7, -8
  51              	.LCFI2:
  52              		.cfi_def_cfa 7, 16
  53 0006 F871     		strb	r0, [r7, #7]
  54 0008 B971     		strb	r1, [r7, #6]
  55 000a BA80     		strh	r2, [r7, #4]	@ movhi
  56 000c 7B80     		strh	r3, [r7, #2]	@ movhi
  99:.\Generated_Source\PSoC5/DMA_Buzzer_dma.c **** 
 100:.\Generated_Source\PSoC5/DMA_Buzzer_dma.c ****     /* Allocate a DMA channel. */
 101:.\Generated_Source\PSoC5/DMA_Buzzer_dma.c ****     DMA_Buzzer_DmaHandle = (uint8)DMA_Buzzer__DRQ_NUMBER;
  57              		.loc 1 101 0
  58 000e 40F20003 		movw	r3, #:lower16:DMA_Buzzer_DmaHandle
  59 0012 C0F20003 		movt	r3, #:upper16:DMA_Buzzer_DmaHandle
  60 0016 4FF00002 		mov	r2, #0
  61 001a 1A70     		strb	r2, [r3, #0]
 102:.\Generated_Source\PSoC5/DMA_Buzzer_dma.c **** 
 103:.\Generated_Source\PSoC5/DMA_Buzzer_dma.c ****     /* Configure the channel. */
 104:.\Generated_Source\PSoC5/DMA_Buzzer_dma.c ****     (void)CyDmaChSetConfiguration(DMA_Buzzer_DmaHandle,
  62              		.loc 1 104 0
  63 001c 40F20003 		movw	r3, #:lower16:DMA_Buzzer_DmaHandle
ARM GAS  C:\Users\SUZUKI~1\AppData\Local\Temp\ccUC5zq0.s 			page 4


  64 0020 C0F20003 		movt	r3, #:upper16:DMA_Buzzer_DmaHandle
  65 0024 1978     		ldrb	r1, [r3, #0]	@ zero_extendqisi2
  66 0026 FA79     		ldrb	r2, [r7, #7]	@ zero_extendqisi2
  67 0028 BB79     		ldrb	r3, [r7, #6]	@ zero_extendqisi2
  68 002a 4FF00000 		mov	r0, #0
  69 002e 0090     		str	r0, [sp, #0]
  70 0030 4FF00000 		mov	r0, #0
  71 0034 0190     		str	r0, [sp, #4]
  72 0036 0846     		mov	r0, r1
  73 0038 1146     		mov	r1, r2
  74 003a 1A46     		mov	r2, r3
  75 003c 4FF00003 		mov	r3, #0
  76 0040 FFF7FEFF 		bl	CyDmaChSetConfiguration
 105:.\Generated_Source\PSoC5/DMA_Buzzer_dma.c ****                                   BurstCount,
 106:.\Generated_Source\PSoC5/DMA_Buzzer_dma.c ****                                   ReqestPerBurst,
 107:.\Generated_Source\PSoC5/DMA_Buzzer_dma.c ****                                   (uint8)DMA_Buzzer__TERMOUT0_SEL,
 108:.\Generated_Source\PSoC5/DMA_Buzzer_dma.c ****                                   (uint8)DMA_Buzzer__TERMOUT1_SEL,
 109:.\Generated_Source\PSoC5/DMA_Buzzer_dma.c ****                                   (uint8)DMA_Buzzer__TERMIN_SEL);
 110:.\Generated_Source\PSoC5/DMA_Buzzer_dma.c **** 
 111:.\Generated_Source\PSoC5/DMA_Buzzer_dma.c ****     /* Set the extended address for the transfers */
 112:.\Generated_Source\PSoC5/DMA_Buzzer_dma.c ****     (void)CyDmaChSetExtendedAddress(DMA_Buzzer_DmaHandle, UpperSrcAddress, UpperDestAddress);
  77              		.loc 1 112 0
  78 0044 40F20003 		movw	r3, #:lower16:DMA_Buzzer_DmaHandle
  79 0048 C0F20003 		movt	r3, #:upper16:DMA_Buzzer_DmaHandle
  80 004c 1978     		ldrb	r1, [r3, #0]	@ zero_extendqisi2
  81 004e BA88     		ldrh	r2, [r7, #4]
  82 0050 7B88     		ldrh	r3, [r7, #2]
  83 0052 0846     		mov	r0, r1
  84 0054 1146     		mov	r1, r2
  85 0056 1A46     		mov	r2, r3
  86 0058 FFF7FEFF 		bl	CyDmaChSetExtendedAddress
 113:.\Generated_Source\PSoC5/DMA_Buzzer_dma.c **** 
 114:.\Generated_Source\PSoC5/DMA_Buzzer_dma.c ****     /* Set the priority for this channel */
 115:.\Generated_Source\PSoC5/DMA_Buzzer_dma.c ****     (void)CyDmaChPriority(DMA_Buzzer_DmaHandle, (uint8)DMA_Buzzer__PRIORITY);
  87              		.loc 1 115 0
  88 005c 40F20003 		movw	r3, #:lower16:DMA_Buzzer_DmaHandle
  89 0060 C0F20003 		movt	r3, #:upper16:DMA_Buzzer_DmaHandle
  90 0064 1B78     		ldrb	r3, [r3, #0]	@ zero_extendqisi2
  91 0066 1846     		mov	r0, r3
  92 0068 4FF00201 		mov	r1, #2
  93 006c FFF7FEFF 		bl	CyDmaChPriority
 116:.\Generated_Source\PSoC5/DMA_Buzzer_dma.c ****     
 117:.\Generated_Source\PSoC5/DMA_Buzzer_dma.c ****     return DMA_Buzzer_DmaHandle;
  94              		.loc 1 117 0
  95 0070 40F20003 		movw	r3, #:lower16:DMA_Buzzer_DmaHandle
  96 0074 C0F20003 		movt	r3, #:upper16:DMA_Buzzer_DmaHandle
  97 0078 1B78     		ldrb	r3, [r3, #0]	@ zero_extendqisi2
 118:.\Generated_Source\PSoC5/DMA_Buzzer_dma.c **** }
  98              		.loc 1 118 0
  99 007a 1846     		mov	r0, r3
 100 007c 07F10807 		add	r7, r7, #8
 101 0080 BD46     		mov	sp, r7
 102 0082 80BD     		pop	{r7, pc}
 103              		.cfi_endproc
 104              	.LFE0:
 105              		.size	DMA_Buzzer_DmaInitialize, .-DMA_Buzzer_DmaInitialize
 106              		.section	.text.DMA_Buzzer_DmaRelease,"ax",%progbits
ARM GAS  C:\Users\SUZUKI~1\AppData\Local\Temp\ccUC5zq0.s 			page 5


 107              		.align	2
 108              		.global	DMA_Buzzer_DmaRelease
 109              		.thumb
 110              		.thumb_func
 111              		.type	DMA_Buzzer_DmaRelease, %function
 112              	DMA_Buzzer_DmaRelease:
 113              	.LFB1:
 119:.\Generated_Source\PSoC5/DMA_Buzzer_dma.c **** 
 120:.\Generated_Source\PSoC5/DMA_Buzzer_dma.c **** /*********************************************************************
 121:.\Generated_Source\PSoC5/DMA_Buzzer_dma.c **** * Function Name: void DMA_Buzzer_DmaRelease
 122:.\Generated_Source\PSoC5/DMA_Buzzer_dma.c **** **********************************************************************
 123:.\Generated_Source\PSoC5/DMA_Buzzer_dma.c **** * Summary:
 124:.\Generated_Source\PSoC5/DMA_Buzzer_dma.c **** *   Frees the channel associated with DMA_Buzzer.
 125:.\Generated_Source\PSoC5/DMA_Buzzer_dma.c **** *
 126:.\Generated_Source\PSoC5/DMA_Buzzer_dma.c **** *
 127:.\Generated_Source\PSoC5/DMA_Buzzer_dma.c **** * Parameters:
 128:.\Generated_Source\PSoC5/DMA_Buzzer_dma.c **** *   void.
 129:.\Generated_Source\PSoC5/DMA_Buzzer_dma.c **** *
 130:.\Generated_Source\PSoC5/DMA_Buzzer_dma.c **** *
 131:.\Generated_Source\PSoC5/DMA_Buzzer_dma.c **** *
 132:.\Generated_Source\PSoC5/DMA_Buzzer_dma.c **** * Return:
 133:.\Generated_Source\PSoC5/DMA_Buzzer_dma.c **** *   void.
 134:.\Generated_Source\PSoC5/DMA_Buzzer_dma.c **** *
 135:.\Generated_Source\PSoC5/DMA_Buzzer_dma.c **** *******************************************************************/
 136:.\Generated_Source\PSoC5/DMA_Buzzer_dma.c **** void DMA_Buzzer_DmaRelease(void) 
 137:.\Generated_Source\PSoC5/DMA_Buzzer_dma.c **** {
 114              		.loc 1 137 0
 115              		.cfi_startproc
 116              		@ args = 0, pretend = 0, frame = 0
 117              		@ frame_needed = 1, uses_anonymous_args = 0
 118 0000 80B5     		push	{r7, lr}
 119              	.LCFI3:
 120              		.cfi_def_cfa_offset 8
 121 0002 00AF     		add	r7, sp, #0
 122              		.cfi_offset 14, -4
 123              		.cfi_offset 7, -8
 124              	.LCFI4:
 125              		.cfi_def_cfa_register 7
 138:.\Generated_Source\PSoC5/DMA_Buzzer_dma.c ****     /* Disable the channel */
 139:.\Generated_Source\PSoC5/DMA_Buzzer_dma.c ****     (void)CyDmaChDisable(DMA_Buzzer_DmaHandle);
 126              		.loc 1 139 0
 127 0004 40F20003 		movw	r3, #:lower16:DMA_Buzzer_DmaHandle
 128 0008 C0F20003 		movt	r3, #:upper16:DMA_Buzzer_DmaHandle
 129 000c 1B78     		ldrb	r3, [r3, #0]	@ zero_extendqisi2
 130 000e 1846     		mov	r0, r3
 131 0010 FFF7FEFF 		bl	CyDmaChDisable
 140:.\Generated_Source\PSoC5/DMA_Buzzer_dma.c **** }
 132              		.loc 1 140 0
 133 0014 80BD     		pop	{r7, pc}
 134              		.cfi_endproc
 135              	.LFE1:
 136              		.size	DMA_Buzzer_DmaRelease, .-DMA_Buzzer_DmaRelease
 137 0016 00BF     		.text
 138              	.Letext0:
