ARM GAS  C:\Users\SUZUKI~1\AppData\Local\Temp\ccJaA83q.s 			page 1


   1              		.syntax unified
   2              		.cpu cortex-m3
   3              		.fpu softvfp
   4              		.eabi_attribute 20, 1
   5              		.eabi_attribute 21, 1
   6              		.eabi_attribute 23, 3
   7              		.eabi_attribute 24, 1
   8              		.eabi_attribute 25, 1
   9              		.eabi_attribute 26, 1
  10              		.eabi_attribute 30, 6
  11              		.eabi_attribute 18, 4
  12              		.thumb
  13              		.file	"sdlogger_1_fatfs_1_ff.c"
  14              		.section	.debug_abbrev,"",%progbits
  15              	.Ldebug_abbrev0:
  16              		.section	.debug_info,"",%progbits
  17              	.Ldebug_info0:
  18              		.section	.debug_line,"",%progbits
  19              	.Ldebug_line0:
  20 0000 340A0000 		.text
  20      02003601 
  20      00000201 
  20      FB0E0D00 
  20      01010101 
  21              	.Ltext0:
  22              		.cfi_sections	.debug_frame
  23              		.bss
  24              		.align	2
  25              	FatFs:
  26 0000 00000000 		.space	4
  27              		.align	1
  28              	Fsid:
  29 0004 0000     		.space	2
  30              	CurrVol:
  31 0006 00       		.space	1
  32 0007 00       		.section	.text.mem_cpy,"ax",%progbits
  33              		.align	2
  34              		.thumb
  35              		.thumb_func
  36              		.type	mem_cpy, %function
  37              	mem_cpy:
  38              	.LFB0:
  39              		.file 1 ".\\Generated_Source\\PSoC5\\sdlogger_1_fatfs_1_ff.c"
   1:.\Generated_Source\PSoC5/sdlogger_1_fatfs_1_ff.c **** /*----------------------------------------------------------------------------/
   2:.\Generated_Source\PSoC5/sdlogger_1_fatfs_1_ff.c **** /  FatFs - FAT file system module  R0.08a                 (C)ChaN, 2010
   3:.\Generated_Source\PSoC5/sdlogger_1_fatfs_1_ff.c **** /-----------------------------------------------------------------------------/
   4:.\Generated_Source\PSoC5/sdlogger_1_fatfs_1_ff.c **** / FatFs module is a generic FAT file system module for small embedded systems.
   5:.\Generated_Source\PSoC5/sdlogger_1_fatfs_1_ff.c **** / This is a free software that opened for education, research and commercial
   6:.\Generated_Source\PSoC5/sdlogger_1_fatfs_1_ff.c **** / developments under license policy of following terms.
   7:.\Generated_Source\PSoC5/sdlogger_1_fatfs_1_ff.c **** /
   8:.\Generated_Source\PSoC5/sdlogger_1_fatfs_1_ff.c **** /  Copyright (C) 2010, ChaN, all right reserved.
   9:.\Generated_Source\PSoC5/sdlogger_1_fatfs_1_ff.c **** /
  10:.\Generated_Source\PSoC5/sdlogger_1_fatfs_1_ff.c **** / * The FatFs module is a free software and there is NO WARRANTY.
  11:.\Generated_Source\PSoC5/sdlogger_1_fatfs_1_ff.c **** / * No restriction on use. You can use, modify and redistribute it for
  12:.\Generated_Source\PSoC5/sdlogger_1_fatfs_1_ff.c **** /   personal, non-profit or commercial products UNDER YOUR RESPONSIBILITY.
  13:.\Generated_Source\PSoC5/sdlogger_1_fatfs_1_ff.c **** / * Redistributions of source code must retain the above copyright notice.
  14:.\Generated_Source\PSoC5/sdlogger_1_fatfs_1_ff.c **** /
ARM GAS  C:\Users\SUZUKI~1\AppData\Local\Temp\ccJaA83q.s 			page 2


  15:.\Generated_Source\PSoC5/sdlogger_1_fatfs_1_ff.c **** /-----------------------------------------------------------------------------/
  16:.\Generated_Source\PSoC5/sdlogger_1_fatfs_1_ff.c **** / Feb 26,'06 R0.00  Prototype.
  17:.\Generated_Source\PSoC5/sdlogger_1_fatfs_1_ff.c **** /
  18:.\Generated_Source\PSoC5/sdlogger_1_fatfs_1_ff.c **** / Apr 29,'06 R0.01  First stable version.
  19:.\Generated_Source\PSoC5/sdlogger_1_fatfs_1_ff.c **** /
  20:.\Generated_Source\PSoC5/sdlogger_1_fatfs_1_ff.c **** / Jun 01,'06 R0.02  Added FAT12 support.
  21:.\Generated_Source\PSoC5/sdlogger_1_fatfs_1_ff.c **** /                   Removed unbuffered mode.
  22:.\Generated_Source\PSoC5/sdlogger_1_fatfs_1_ff.c **** /                   Fixed a problem on small (<32M) partition.
  23:.\Generated_Source\PSoC5/sdlogger_1_fatfs_1_ff.c **** / Jun 10,'06 R0.02a Added a configuration option (_FS_MINIMUM).
  24:.\Generated_Source\PSoC5/sdlogger_1_fatfs_1_ff.c **** /
  25:.\Generated_Source\PSoC5/sdlogger_1_fatfs_1_ff.c **** / Sep 22,'06 R0.03  Added f_rename().
  26:.\Generated_Source\PSoC5/sdlogger_1_fatfs_1_ff.c **** /                   Changed option _FS_MINIMUM to _FS_MINIMIZE.
  27:.\Generated_Source\PSoC5/sdlogger_1_fatfs_1_ff.c **** / Dec 11,'06 R0.03a Improved cluster scan algorithm to write files fast.
  28:.\Generated_Source\PSoC5/sdlogger_1_fatfs_1_ff.c **** /                   Fixed f_mkdir() creates incorrect directory on FAT32.
  29:.\Generated_Source\PSoC5/sdlogger_1_fatfs_1_ff.c **** /
  30:.\Generated_Source\PSoC5/sdlogger_1_fatfs_1_ff.c **** / Feb 04,'07 R0.04  Supported multiple drive system.
  31:.\Generated_Source\PSoC5/sdlogger_1_fatfs_1_ff.c **** /                   Changed some interfaces for multiple drive system.
  32:.\Generated_Source\PSoC5/sdlogger_1_fatfs_1_ff.c **** /                   Changed f_mountdrv() to f_mount().
  33:.\Generated_Source\PSoC5/sdlogger_1_fatfs_1_ff.c **** /                   Added f_mkfs().
  34:.\Generated_Source\PSoC5/sdlogger_1_fatfs_1_ff.c **** / Apr 01,'07 R0.04a Supported multiple partitions on a physical drive.
  35:.\Generated_Source\PSoC5/sdlogger_1_fatfs_1_ff.c **** /                   Added a capability of extending file size to f_lseek().
  36:.\Generated_Source\PSoC5/sdlogger_1_fatfs_1_ff.c **** /                   Added minimization level 3.
  37:.\Generated_Source\PSoC5/sdlogger_1_fatfs_1_ff.c **** /                   Fixed an endian sensitive code in f_mkfs().
  38:.\Generated_Source\PSoC5/sdlogger_1_fatfs_1_ff.c **** / May 05,'07 R0.04b Added a configuration option _USE_NTFLAG.
  39:.\Generated_Source\PSoC5/sdlogger_1_fatfs_1_ff.c **** /                   Added FSInfo support.
  40:.\Generated_Source\PSoC5/sdlogger_1_fatfs_1_ff.c **** /                   Fixed DBCS name can result FR_INVALID_NAME.
  41:.\Generated_Source\PSoC5/sdlogger_1_fatfs_1_ff.c **** /                   Fixed short seek (<= csize) collapses the file object.
  42:.\Generated_Source\PSoC5/sdlogger_1_fatfs_1_ff.c **** /
  43:.\Generated_Source\PSoC5/sdlogger_1_fatfs_1_ff.c **** / Aug 25,'07 R0.05  Changed arguments of f_read(), f_write() and f_mkfs().
  44:.\Generated_Source\PSoC5/sdlogger_1_fatfs_1_ff.c **** /                   Fixed f_mkfs() on FAT32 creates incorrect FSInfo.
  45:.\Generated_Source\PSoC5/sdlogger_1_fatfs_1_ff.c **** /                   Fixed f_mkdir() on FAT32 creates incorrect directory.
  46:.\Generated_Source\PSoC5/sdlogger_1_fatfs_1_ff.c **** / Feb 03,'08 R0.05a Added f_truncate() and f_utime().
  47:.\Generated_Source\PSoC5/sdlogger_1_fatfs_1_ff.c **** /                   Fixed off by one error at FAT sub-type determination.
  48:.\Generated_Source\PSoC5/sdlogger_1_fatfs_1_ff.c **** /                   Fixed btr in f_read() can be mistruncated.
  49:.\Generated_Source\PSoC5/sdlogger_1_fatfs_1_ff.c **** /                   Fixed cached sector is not flushed when create and close without write.
  50:.\Generated_Source\PSoC5/sdlogger_1_fatfs_1_ff.c **** /
  51:.\Generated_Source\PSoC5/sdlogger_1_fatfs_1_ff.c **** / Apr 01,'08 R0.06  Added fputc(), fputs(), fprintf() and fgets().
  52:.\Generated_Source\PSoC5/sdlogger_1_fatfs_1_ff.c **** /                   Improved performance of f_lseek() on moving to the same or following cluster.
  53:.\Generated_Source\PSoC5/sdlogger_1_fatfs_1_ff.c **** /
  54:.\Generated_Source\PSoC5/sdlogger_1_fatfs_1_ff.c **** / Apr 01,'09 R0.07  Merged Tiny-FatFs as a buffer configuration option. (_FS_TINY)
  55:.\Generated_Source\PSoC5/sdlogger_1_fatfs_1_ff.c **** /                   Added long file name support.
  56:.\Generated_Source\PSoC5/sdlogger_1_fatfs_1_ff.c **** /                   Added multiple code page support.
  57:.\Generated_Source\PSoC5/sdlogger_1_fatfs_1_ff.c **** /                   Added re-entrancy for multitask operation.
  58:.\Generated_Source\PSoC5/sdlogger_1_fatfs_1_ff.c **** /                   Added auto cluster size selection to f_mkfs().
  59:.\Generated_Source\PSoC5/sdlogger_1_fatfs_1_ff.c **** /                   Added rewind option to f_readdir().
  60:.\Generated_Source\PSoC5/sdlogger_1_fatfs_1_ff.c **** /                   Changed result code of critical errors.
  61:.\Generated_Source\PSoC5/sdlogger_1_fatfs_1_ff.c **** /                   Renamed string functions to avoid name collision.
  62:.\Generated_Source\PSoC5/sdlogger_1_fatfs_1_ff.c **** / Apr 14,'09 R0.07a Separated out OS dependent code on reentrant cfg.
  63:.\Generated_Source\PSoC5/sdlogger_1_fatfs_1_ff.c **** /                   Added multiple sector size support.
  64:.\Generated_Source\PSoC5/sdlogger_1_fatfs_1_ff.c **** / Jun 21,'09 R0.07c Fixed f_unlink() can return FR_OK on error.
  65:.\Generated_Source\PSoC5/sdlogger_1_fatfs_1_ff.c **** /                   Fixed wrong cache control in f_lseek().
  66:.\Generated_Source\PSoC5/sdlogger_1_fatfs_1_ff.c **** /                   Added relative path feature.
  67:.\Generated_Source\PSoC5/sdlogger_1_fatfs_1_ff.c **** /                   Added f_chdir() and f_chdrive().
  68:.\Generated_Source\PSoC5/sdlogger_1_fatfs_1_ff.c **** /                   Added proper case conversion to extended char.
  69:.\Generated_Source\PSoC5/sdlogger_1_fatfs_1_ff.c **** / Nov 03,'09 R0.07e Separated out configuration options from ff.h to ffconf.h.
  70:.\Generated_Source\PSoC5/sdlogger_1_fatfs_1_ff.c **** /                   Fixed f_unlink() fails to remove a sub-dir on _FS_RPATH.
  71:.\Generated_Source\PSoC5/sdlogger_1_fatfs_1_ff.c **** /                   Fixed name matching error on the 13 char boundary.
ARM GAS  C:\Users\SUZUKI~1\AppData\Local\Temp\ccJaA83q.s 			page 3


  72:.\Generated_Source\PSoC5/sdlogger_1_fatfs_1_ff.c **** /                   Added a configuration option, _LFN_UNICODE.
  73:.\Generated_Source\PSoC5/sdlogger_1_fatfs_1_ff.c **** /                   Changed f_readdir() to return the SFN with always upper case on non-LFN cfg.
  74:.\Generated_Source\PSoC5/sdlogger_1_fatfs_1_ff.c **** /
  75:.\Generated_Source\PSoC5/sdlogger_1_fatfs_1_ff.c **** / May 15,'10 R0.08  Added a memory configuration option. (_USE_LFN = 3)
  76:.\Generated_Source\PSoC5/sdlogger_1_fatfs_1_ff.c **** /                   Added file lock feature. (_FS_SHARE)
  77:.\Generated_Source\PSoC5/sdlogger_1_fatfs_1_ff.c **** /                   Added fast seek feature. (_USE_FASTSEEK)
  78:.\Generated_Source\PSoC5/sdlogger_1_fatfs_1_ff.c **** /                   Changed some types on the API, XCHAR->TCHAR.
  79:.\Generated_Source\PSoC5/sdlogger_1_fatfs_1_ff.c **** /                   Changed fname member in the FILINFO structure on Unicode cfg.
  80:.\Generated_Source\PSoC5/sdlogger_1_fatfs_1_ff.c **** /                   String functions support UTF-8 encoding files on Unicode cfg.
  81:.\Generated_Source\PSoC5/sdlogger_1_fatfs_1_ff.c **** / Aug 16,'10 R0.08a Added f_getcwd(). (_FS_RPATH = 2)
  82:.\Generated_Source\PSoC5/sdlogger_1_fatfs_1_ff.c **** /                   Added sector erase feature. (_USE_ERASE)
  83:.\Generated_Source\PSoC5/sdlogger_1_fatfs_1_ff.c **** /                   Moved file lock semaphore table from fs object to the bss.
  84:.\Generated_Source\PSoC5/sdlogger_1_fatfs_1_ff.c **** /                   Fixed a wrong directory entry is created on non-LFN cfg when the given name con
  85:.\Generated_Source\PSoC5/sdlogger_1_fatfs_1_ff.c **** /                   Fixed f_mkfs() creates wrong FAT32 volume.
  86:.\Generated_Source\PSoC5/sdlogger_1_fatfs_1_ff.c **** /---------------------------------------------------------------------------*/
  87:.\Generated_Source\PSoC5/sdlogger_1_fatfs_1_ff.c **** 
  88:.\Generated_Source\PSoC5/sdlogger_1_fatfs_1_ff.c **** #include "sdlogger_1_fatfs_1_ff.h"			/* FatFs configurations and declarations */
  89:.\Generated_Source\PSoC5/sdlogger_1_fatfs_1_ff.c **** #include "sdspi_1_diskio.h"		/* Declarations of low level disk I/O functions */
  90:.\Generated_Source\PSoC5/sdlogger_1_fatfs_1_ff.c **** 
  91:.\Generated_Source\PSoC5/sdlogger_1_fatfs_1_ff.c **** 
  92:.\Generated_Source\PSoC5/sdlogger_1_fatfs_1_ff.c **** /*--------------------------------------------------------------------------
  93:.\Generated_Source\PSoC5/sdlogger_1_fatfs_1_ff.c **** 
  94:.\Generated_Source\PSoC5/sdlogger_1_fatfs_1_ff.c ****    Module Private Definitions
  95:.\Generated_Source\PSoC5/sdlogger_1_fatfs_1_ff.c **** 
  96:.\Generated_Source\PSoC5/sdlogger_1_fatfs_1_ff.c **** ---------------------------------------------------------------------------*/
  97:.\Generated_Source\PSoC5/sdlogger_1_fatfs_1_ff.c **** 
  98:.\Generated_Source\PSoC5/sdlogger_1_fatfs_1_ff.c **** #if _FATFS != 8255
  99:.\Generated_Source\PSoC5/sdlogger_1_fatfs_1_ff.c **** #error Wrong include file (ff.h).
 100:.\Generated_Source\PSoC5/sdlogger_1_fatfs_1_ff.c **** #endif
 101:.\Generated_Source\PSoC5/sdlogger_1_fatfs_1_ff.c **** 
 102:.\Generated_Source\PSoC5/sdlogger_1_fatfs_1_ff.c **** 
 103:.\Generated_Source\PSoC5/sdlogger_1_fatfs_1_ff.c **** /* Definitions on sector size */
 104:.\Generated_Source\PSoC5/sdlogger_1_fatfs_1_ff.c **** #if _MAX_SS != 512 && _MAX_SS != 1024 && _MAX_SS != 2048 && _MAX_SS != 4096
 105:.\Generated_Source\PSoC5/sdlogger_1_fatfs_1_ff.c **** #error Wrong sector size.
 106:.\Generated_Source\PSoC5/sdlogger_1_fatfs_1_ff.c **** #endif
 107:.\Generated_Source\PSoC5/sdlogger_1_fatfs_1_ff.c **** #if _MAX_SS != 512
 108:.\Generated_Source\PSoC5/sdlogger_1_fatfs_1_ff.c **** #define	SS(fs)	((fs)->ssize)	/* Multiple sector size */
 109:.\Generated_Source\PSoC5/sdlogger_1_fatfs_1_ff.c **** #else
 110:.\Generated_Source\PSoC5/sdlogger_1_fatfs_1_ff.c **** #define	SS(fs)	512U			/* Fixed sector size */
 111:.\Generated_Source\PSoC5/sdlogger_1_fatfs_1_ff.c **** #endif
 112:.\Generated_Source\PSoC5/sdlogger_1_fatfs_1_ff.c **** 
 113:.\Generated_Source\PSoC5/sdlogger_1_fatfs_1_ff.c **** 
 114:.\Generated_Source\PSoC5/sdlogger_1_fatfs_1_ff.c **** /* Reentrancy related */
 115:.\Generated_Source\PSoC5/sdlogger_1_fatfs_1_ff.c **** #if _FS_REENTRANT
 116:.\Generated_Source\PSoC5/sdlogger_1_fatfs_1_ff.c **** #if _USE_LFN == 1
 117:.\Generated_Source\PSoC5/sdlogger_1_fatfs_1_ff.c **** #error Static LFN work area must not be used in re-entrant configuration.
 118:.\Generated_Source\PSoC5/sdlogger_1_fatfs_1_ff.c **** #endif
 119:.\Generated_Source\PSoC5/sdlogger_1_fatfs_1_ff.c **** #define	ENTER_FF(fs)		{ if (!lock_fs(fs)) return FR_TIMEOUT; }
 120:.\Generated_Source\PSoC5/sdlogger_1_fatfs_1_ff.c **** #define	LEAVE_FF(fs, res)	{ unlock_fs(fs, res); return res; }
 121:.\Generated_Source\PSoC5/sdlogger_1_fatfs_1_ff.c **** #else
 122:.\Generated_Source\PSoC5/sdlogger_1_fatfs_1_ff.c **** #define	ENTER_FF(fs)
 123:.\Generated_Source\PSoC5/sdlogger_1_fatfs_1_ff.c **** #define LEAVE_FF(fs, res)	return res
 124:.\Generated_Source\PSoC5/sdlogger_1_fatfs_1_ff.c **** #endif
 125:.\Generated_Source\PSoC5/sdlogger_1_fatfs_1_ff.c **** 
 126:.\Generated_Source\PSoC5/sdlogger_1_fatfs_1_ff.c **** #define	ABORT(fs, res)		{ fp->flag |= FA__ERROR; LEAVE_FF(fs, res); }
 127:.\Generated_Source\PSoC5/sdlogger_1_fatfs_1_ff.c **** 
 128:.\Generated_Source\PSoC5/sdlogger_1_fatfs_1_ff.c **** 
ARM GAS  C:\Users\SUZUKI~1\AppData\Local\Temp\ccJaA83q.s 			page 4


 129:.\Generated_Source\PSoC5/sdlogger_1_fatfs_1_ff.c **** /* File shareing feature */
 130:.\Generated_Source\PSoC5/sdlogger_1_fatfs_1_ff.c **** #if _FS_SHARE
 131:.\Generated_Source\PSoC5/sdlogger_1_fatfs_1_ff.c **** #if _FS_READONLY
 132:.\Generated_Source\PSoC5/sdlogger_1_fatfs_1_ff.c **** #error _FS_SHARE must be 0 on read-only cfg.
 133:.\Generated_Source\PSoC5/sdlogger_1_fatfs_1_ff.c **** #endif
 134:.\Generated_Source\PSoC5/sdlogger_1_fatfs_1_ff.c **** typedef struct {
 135:.\Generated_Source\PSoC5/sdlogger_1_fatfs_1_ff.c **** 	FATFS *fs;				/* File ID 1, volume (NULL:blank entry) */
 136:.\Generated_Source\PSoC5/sdlogger_1_fatfs_1_ff.c **** 	DWORD clu;				/* File ID 2, directory */
 137:.\Generated_Source\PSoC5/sdlogger_1_fatfs_1_ff.c **** 	WORD idx;				/* File ID 3, directory index */
 138:.\Generated_Source\PSoC5/sdlogger_1_fatfs_1_ff.c **** 	WORD ctr;				/* File open counter, 0:none, 0x01..0xFF:read open count, 0x100:write mode */
 139:.\Generated_Source\PSoC5/sdlogger_1_fatfs_1_ff.c **** } FILESEM;
 140:.\Generated_Source\PSoC5/sdlogger_1_fatfs_1_ff.c **** #endif
 141:.\Generated_Source\PSoC5/sdlogger_1_fatfs_1_ff.c **** 
 142:.\Generated_Source\PSoC5/sdlogger_1_fatfs_1_ff.c **** 
 143:.\Generated_Source\PSoC5/sdlogger_1_fatfs_1_ff.c **** /* Misc definitions */
 144:.\Generated_Source\PSoC5/sdlogger_1_fatfs_1_ff.c **** #define LD_CLUST(dir)	(((DWORD)LD_WORD(dir+DIR_FstClusHI)<<16) | LD_WORD(dir+DIR_FstClusLO))
 145:.\Generated_Source\PSoC5/sdlogger_1_fatfs_1_ff.c **** #define ST_CLUST(dir,cl) {ST_WORD(dir+DIR_FstClusLO, cl); ST_WORD(dir+DIR_FstClusHI, (DWORD)cl>>16)
 146:.\Generated_Source\PSoC5/sdlogger_1_fatfs_1_ff.c **** 
 147:.\Generated_Source\PSoC5/sdlogger_1_fatfs_1_ff.c **** 
 148:.\Generated_Source\PSoC5/sdlogger_1_fatfs_1_ff.c **** /* Character code support macros */
 149:.\Generated_Source\PSoC5/sdlogger_1_fatfs_1_ff.c **** #define IsUpper(c)	(((c)>='A')&&((c)<='Z'))
 150:.\Generated_Source\PSoC5/sdlogger_1_fatfs_1_ff.c **** #define IsLower(c)	(((c)>='a')&&((c)<='z'))
 151:.\Generated_Source\PSoC5/sdlogger_1_fatfs_1_ff.c **** #define IsDigit(c)	(((c)>='0')&&((c)<='9'))
 152:.\Generated_Source\PSoC5/sdlogger_1_fatfs_1_ff.c **** 
 153:.\Generated_Source\PSoC5/sdlogger_1_fatfs_1_ff.c **** #if _DF1S		/* Code page is DBCS */
 154:.\Generated_Source\PSoC5/sdlogger_1_fatfs_1_ff.c **** 
 155:.\Generated_Source\PSoC5/sdlogger_1_fatfs_1_ff.c **** #ifdef _DF2S	/* Two 1st byte areas */
 156:.\Generated_Source\PSoC5/sdlogger_1_fatfs_1_ff.c **** #define IsDBCS1(c)	(((BYTE)(c) >= _DF1S && (BYTE)(c) <= _DF1E) || ((BYTE)(c) >= _DF2S && (BYTE)(c) 
 157:.\Generated_Source\PSoC5/sdlogger_1_fatfs_1_ff.c **** #else			/* One 1st byte area */
 158:.\Generated_Source\PSoC5/sdlogger_1_fatfs_1_ff.c **** #define IsDBCS1(c)	((BYTE)(c) >= _DF1S && (BYTE)(c) <= _DF1E)
 159:.\Generated_Source\PSoC5/sdlogger_1_fatfs_1_ff.c **** #endif
 160:.\Generated_Source\PSoC5/sdlogger_1_fatfs_1_ff.c **** 
 161:.\Generated_Source\PSoC5/sdlogger_1_fatfs_1_ff.c **** #ifdef _DS3S	/* Three 2nd byte areas */
 162:.\Generated_Source\PSoC5/sdlogger_1_fatfs_1_ff.c **** #define IsDBCS2(c)	(((BYTE)(c) >= _DS1S && (BYTE)(c) <= _DS1E) || ((BYTE)(c) >= _DS2S && (BYTE)(c) 
 163:.\Generated_Source\PSoC5/sdlogger_1_fatfs_1_ff.c **** #else			/* Two 2nd byte areas */
 164:.\Generated_Source\PSoC5/sdlogger_1_fatfs_1_ff.c **** #define IsDBCS2(c)	(((BYTE)(c) >= _DS1S && (BYTE)(c) <= _DS1E) || ((BYTE)(c) >= _DS2S && (BYTE)(c) 
 165:.\Generated_Source\PSoC5/sdlogger_1_fatfs_1_ff.c **** #endif
 166:.\Generated_Source\PSoC5/sdlogger_1_fatfs_1_ff.c **** 
 167:.\Generated_Source\PSoC5/sdlogger_1_fatfs_1_ff.c **** #else			/* Code page is SBCS */
 168:.\Generated_Source\PSoC5/sdlogger_1_fatfs_1_ff.c **** 
 169:.\Generated_Source\PSoC5/sdlogger_1_fatfs_1_ff.c **** #define IsDBCS1(c)	0
 170:.\Generated_Source\PSoC5/sdlogger_1_fatfs_1_ff.c **** #define IsDBCS2(c)	0
 171:.\Generated_Source\PSoC5/sdlogger_1_fatfs_1_ff.c **** 
 172:.\Generated_Source\PSoC5/sdlogger_1_fatfs_1_ff.c **** #endif /* _DF1S */
 173:.\Generated_Source\PSoC5/sdlogger_1_fatfs_1_ff.c **** 
 174:.\Generated_Source\PSoC5/sdlogger_1_fatfs_1_ff.c **** 
 175:.\Generated_Source\PSoC5/sdlogger_1_fatfs_1_ff.c **** /* Name status flags */
 176:.\Generated_Source\PSoC5/sdlogger_1_fatfs_1_ff.c **** #define NS			11		/* Offset of name status byte */
 177:.\Generated_Source\PSoC5/sdlogger_1_fatfs_1_ff.c **** #define NS_LOSS		0x01	/* Out of 8.3 format */
 178:.\Generated_Source\PSoC5/sdlogger_1_fatfs_1_ff.c **** #define NS_LFN		0x02	/* Force to create LFN entry */
 179:.\Generated_Source\PSoC5/sdlogger_1_fatfs_1_ff.c **** #define NS_LAST		0x04	/* Last segment */
 180:.\Generated_Source\PSoC5/sdlogger_1_fatfs_1_ff.c **** #define NS_BODY		0x08	/* Lower case flag (body) */
 181:.\Generated_Source\PSoC5/sdlogger_1_fatfs_1_ff.c **** #define NS_EXT		0x10	/* Lower case flag (ext) */
 182:.\Generated_Source\PSoC5/sdlogger_1_fatfs_1_ff.c **** #define NS_DOT		0x20	/* Dot entry */
 183:.\Generated_Source\PSoC5/sdlogger_1_fatfs_1_ff.c **** 
 184:.\Generated_Source\PSoC5/sdlogger_1_fatfs_1_ff.c **** 
 185:.\Generated_Source\PSoC5/sdlogger_1_fatfs_1_ff.c **** /* FAT sub-type boundaries */
ARM GAS  C:\Users\SUZUKI~1\AppData\Local\Temp\ccJaA83q.s 			page 5


 186:.\Generated_Source\PSoC5/sdlogger_1_fatfs_1_ff.c **** /* Note that the FAT spec by Microsoft says 4085 but Windows works with 4087! */
 187:.\Generated_Source\PSoC5/sdlogger_1_fatfs_1_ff.c **** #define MIN_FAT16	4086	/* Minimum number of clusters for FAT16 */
 188:.\Generated_Source\PSoC5/sdlogger_1_fatfs_1_ff.c **** #define	MIN_FAT32	65526	/* Minimum number of clusters for FAT32 */
 189:.\Generated_Source\PSoC5/sdlogger_1_fatfs_1_ff.c **** 
 190:.\Generated_Source\PSoC5/sdlogger_1_fatfs_1_ff.c **** 
 191:.\Generated_Source\PSoC5/sdlogger_1_fatfs_1_ff.c **** /* FatFs refers the members in the FAT structures as byte array instead of
 192:.\Generated_Source\PSoC5/sdlogger_1_fatfs_1_ff.c **** / structure member because there are incompatibility of the packing option
 193:.\Generated_Source\PSoC5/sdlogger_1_fatfs_1_ff.c **** / between compilers. */
 194:.\Generated_Source\PSoC5/sdlogger_1_fatfs_1_ff.c **** 
 195:.\Generated_Source\PSoC5/sdlogger_1_fatfs_1_ff.c **** #define BS_jmpBoot			0
 196:.\Generated_Source\PSoC5/sdlogger_1_fatfs_1_ff.c **** #define BS_OEMName			3
 197:.\Generated_Source\PSoC5/sdlogger_1_fatfs_1_ff.c **** #define BPB_BytsPerSec		11
 198:.\Generated_Source\PSoC5/sdlogger_1_fatfs_1_ff.c **** #define BPB_SecPerClus		13
 199:.\Generated_Source\PSoC5/sdlogger_1_fatfs_1_ff.c **** #define BPB_RsvdSecCnt		14
 200:.\Generated_Source\PSoC5/sdlogger_1_fatfs_1_ff.c **** #define BPB_NumFATs			16
 201:.\Generated_Source\PSoC5/sdlogger_1_fatfs_1_ff.c **** #define BPB_RootEntCnt		17
 202:.\Generated_Source\PSoC5/sdlogger_1_fatfs_1_ff.c **** #define BPB_TotSec16		19
 203:.\Generated_Source\PSoC5/sdlogger_1_fatfs_1_ff.c **** #define BPB_Media			21
 204:.\Generated_Source\PSoC5/sdlogger_1_fatfs_1_ff.c **** #define BPB_FATSz16			22
 205:.\Generated_Source\PSoC5/sdlogger_1_fatfs_1_ff.c **** #define BPB_SecPerTrk		24
 206:.\Generated_Source\PSoC5/sdlogger_1_fatfs_1_ff.c **** #define BPB_NumHeads		26
 207:.\Generated_Source\PSoC5/sdlogger_1_fatfs_1_ff.c **** #define BPB_HiddSec			28
 208:.\Generated_Source\PSoC5/sdlogger_1_fatfs_1_ff.c **** #define BPB_TotSec32		32
 209:.\Generated_Source\PSoC5/sdlogger_1_fatfs_1_ff.c **** #define BS_DrvNum			36
 210:.\Generated_Source\PSoC5/sdlogger_1_fatfs_1_ff.c **** #define BS_BootSig			38
 211:.\Generated_Source\PSoC5/sdlogger_1_fatfs_1_ff.c **** #define BS_VolID			39
 212:.\Generated_Source\PSoC5/sdlogger_1_fatfs_1_ff.c **** #define BS_VolLab			43
 213:.\Generated_Source\PSoC5/sdlogger_1_fatfs_1_ff.c **** #define BS_FilSysType		54
 214:.\Generated_Source\PSoC5/sdlogger_1_fatfs_1_ff.c **** #define BPB_FATSz32			36
 215:.\Generated_Source\PSoC5/sdlogger_1_fatfs_1_ff.c **** #define BPB_ExtFlags		40
 216:.\Generated_Source\PSoC5/sdlogger_1_fatfs_1_ff.c **** #define BPB_FSVer			42
 217:.\Generated_Source\PSoC5/sdlogger_1_fatfs_1_ff.c **** #define BPB_RootClus		44
 218:.\Generated_Source\PSoC5/sdlogger_1_fatfs_1_ff.c **** #define BPB_FSInfo			48
 219:.\Generated_Source\PSoC5/sdlogger_1_fatfs_1_ff.c **** #define BPB_BkBootSec		50
 220:.\Generated_Source\PSoC5/sdlogger_1_fatfs_1_ff.c **** #define BS_DrvNum32			64
 221:.\Generated_Source\PSoC5/sdlogger_1_fatfs_1_ff.c **** #define BS_BootSig32		66
 222:.\Generated_Source\PSoC5/sdlogger_1_fatfs_1_ff.c **** #define BS_VolID32			67
 223:.\Generated_Source\PSoC5/sdlogger_1_fatfs_1_ff.c **** #define BS_VolLab32			71
 224:.\Generated_Source\PSoC5/sdlogger_1_fatfs_1_ff.c **** #define BS_FilSysType32		82
 225:.\Generated_Source\PSoC5/sdlogger_1_fatfs_1_ff.c **** #define	FSI_LeadSig			0
 226:.\Generated_Source\PSoC5/sdlogger_1_fatfs_1_ff.c **** #define	FSI_StrucSig		484
 227:.\Generated_Source\PSoC5/sdlogger_1_fatfs_1_ff.c **** #define	FSI_Free_Count		488
 228:.\Generated_Source\PSoC5/sdlogger_1_fatfs_1_ff.c **** #define	FSI_Nxt_Free		492
 229:.\Generated_Source\PSoC5/sdlogger_1_fatfs_1_ff.c **** #define MBR_Table			446
 230:.\Generated_Source\PSoC5/sdlogger_1_fatfs_1_ff.c **** #define BS_55AA				510
 231:.\Generated_Source\PSoC5/sdlogger_1_fatfs_1_ff.c **** 
 232:.\Generated_Source\PSoC5/sdlogger_1_fatfs_1_ff.c **** #define	DIR_Name			0
 233:.\Generated_Source\PSoC5/sdlogger_1_fatfs_1_ff.c **** #define	DIR_Attr			11
 234:.\Generated_Source\PSoC5/sdlogger_1_fatfs_1_ff.c **** #define	DIR_NTres			12
 235:.\Generated_Source\PSoC5/sdlogger_1_fatfs_1_ff.c **** #define	DIR_CrtTime			14
 236:.\Generated_Source\PSoC5/sdlogger_1_fatfs_1_ff.c **** #define	DIR_CrtDate			16
 237:.\Generated_Source\PSoC5/sdlogger_1_fatfs_1_ff.c **** #define	DIR_FstClusHI		20
 238:.\Generated_Source\PSoC5/sdlogger_1_fatfs_1_ff.c **** #define	DIR_WrtTime			22
 239:.\Generated_Source\PSoC5/sdlogger_1_fatfs_1_ff.c **** #define	DIR_WrtDate			24
 240:.\Generated_Source\PSoC5/sdlogger_1_fatfs_1_ff.c **** #define	DIR_FstClusLO		26
 241:.\Generated_Source\PSoC5/sdlogger_1_fatfs_1_ff.c **** #define	DIR_FileSize		28
 242:.\Generated_Source\PSoC5/sdlogger_1_fatfs_1_ff.c **** #define	LDIR_Ord			0
ARM GAS  C:\Users\SUZUKI~1\AppData\Local\Temp\ccJaA83q.s 			page 6


 243:.\Generated_Source\PSoC5/sdlogger_1_fatfs_1_ff.c **** #define	LDIR_Attr			11
 244:.\Generated_Source\PSoC5/sdlogger_1_fatfs_1_ff.c **** #define	LDIR_Type			12
 245:.\Generated_Source\PSoC5/sdlogger_1_fatfs_1_ff.c **** #define	LDIR_Chksum			13
 246:.\Generated_Source\PSoC5/sdlogger_1_fatfs_1_ff.c **** #define	LDIR_FstClusLO		26
 247:.\Generated_Source\PSoC5/sdlogger_1_fatfs_1_ff.c **** 
 248:.\Generated_Source\PSoC5/sdlogger_1_fatfs_1_ff.c **** 
 249:.\Generated_Source\PSoC5/sdlogger_1_fatfs_1_ff.c **** 
 250:.\Generated_Source\PSoC5/sdlogger_1_fatfs_1_ff.c **** /*------------------------------------------------------------*/
 251:.\Generated_Source\PSoC5/sdlogger_1_fatfs_1_ff.c **** /* Work area                                                  */
 252:.\Generated_Source\PSoC5/sdlogger_1_fatfs_1_ff.c **** 
 253:.\Generated_Source\PSoC5/sdlogger_1_fatfs_1_ff.c **** #if _VOLUMES
 254:.\Generated_Source\PSoC5/sdlogger_1_fatfs_1_ff.c **** static
 255:.\Generated_Source\PSoC5/sdlogger_1_fatfs_1_ff.c **** FATFS *FatFs[_VOLUMES];	/* Pointer to the file system objects (logical drives) */
 256:.\Generated_Source\PSoC5/sdlogger_1_fatfs_1_ff.c **** #else
 257:.\Generated_Source\PSoC5/sdlogger_1_fatfs_1_ff.c **** #error Number of drives must not be 0.
 258:.\Generated_Source\PSoC5/sdlogger_1_fatfs_1_ff.c **** #endif
 259:.\Generated_Source\PSoC5/sdlogger_1_fatfs_1_ff.c **** 
 260:.\Generated_Source\PSoC5/sdlogger_1_fatfs_1_ff.c **** static
 261:.\Generated_Source\PSoC5/sdlogger_1_fatfs_1_ff.c **** WORD Fsid;				/* File system mount ID */
 262:.\Generated_Source\PSoC5/sdlogger_1_fatfs_1_ff.c **** 
 263:.\Generated_Source\PSoC5/sdlogger_1_fatfs_1_ff.c **** #if _FS_RPATH
 264:.\Generated_Source\PSoC5/sdlogger_1_fatfs_1_ff.c **** static
 265:.\Generated_Source\PSoC5/sdlogger_1_fatfs_1_ff.c **** BYTE CurrVol;			/* Current drive */
 266:.\Generated_Source\PSoC5/sdlogger_1_fatfs_1_ff.c **** #endif
 267:.\Generated_Source\PSoC5/sdlogger_1_fatfs_1_ff.c **** 
 268:.\Generated_Source\PSoC5/sdlogger_1_fatfs_1_ff.c **** #if _FS_SHARE
 269:.\Generated_Source\PSoC5/sdlogger_1_fatfs_1_ff.c **** static
 270:.\Generated_Source\PSoC5/sdlogger_1_fatfs_1_ff.c **** FILESEM	Files[_FS_SHARE];	/* File lock semaphores */
 271:.\Generated_Source\PSoC5/sdlogger_1_fatfs_1_ff.c **** #endif
 272:.\Generated_Source\PSoC5/sdlogger_1_fatfs_1_ff.c **** 
 273:.\Generated_Source\PSoC5/sdlogger_1_fatfs_1_ff.c **** #if _USE_LFN == 0			/* No LFN */
 274:.\Generated_Source\PSoC5/sdlogger_1_fatfs_1_ff.c **** #define	DEF_NAMEBUF			BYTE sfn[12]
 275:.\Generated_Source\PSoC5/sdlogger_1_fatfs_1_ff.c **** #define INIT_BUF(dobj)		(dobj).fn = sfn
 276:.\Generated_Source\PSoC5/sdlogger_1_fatfs_1_ff.c **** #define	FREE_BUF()
 277:.\Generated_Source\PSoC5/sdlogger_1_fatfs_1_ff.c **** 
 278:.\Generated_Source\PSoC5/sdlogger_1_fatfs_1_ff.c **** #elif _USE_LFN == 1			/* LFN with static LFN working buffer */
 279:.\Generated_Source\PSoC5/sdlogger_1_fatfs_1_ff.c **** static WCHAR LfnBuf[_MAX_LFN+1];
 280:.\Generated_Source\PSoC5/sdlogger_1_fatfs_1_ff.c **** #define	DEF_NAMEBUF			BYTE sfn[12]
 281:.\Generated_Source\PSoC5/sdlogger_1_fatfs_1_ff.c **** #define INIT_BUF(dobj)		{ (dobj).fn = sfn; (dobj).lfn = LfnBuf; }
 282:.\Generated_Source\PSoC5/sdlogger_1_fatfs_1_ff.c **** #define	FREE_BUF()
 283:.\Generated_Source\PSoC5/sdlogger_1_fatfs_1_ff.c **** 
 284:.\Generated_Source\PSoC5/sdlogger_1_fatfs_1_ff.c **** #elif _USE_LFN == 2 		/* LFN with dynamic LFN working buffer on the stack */
 285:.\Generated_Source\PSoC5/sdlogger_1_fatfs_1_ff.c **** #define	DEF_NAMEBUF			BYTE sfn[12]; WCHAR lbuf[_MAX_LFN+1]
 286:.\Generated_Source\PSoC5/sdlogger_1_fatfs_1_ff.c **** #define INIT_BUF(dobj)		{ (dobj).fn = sfn; (dobj).lfn = lbuf; }
 287:.\Generated_Source\PSoC5/sdlogger_1_fatfs_1_ff.c **** #define	FREE_BUF()
 288:.\Generated_Source\PSoC5/sdlogger_1_fatfs_1_ff.c **** 
 289:.\Generated_Source\PSoC5/sdlogger_1_fatfs_1_ff.c **** #elif _USE_LFN == 3 		/* LFN with dynamic LFN working buffer on the heap */
 290:.\Generated_Source\PSoC5/sdlogger_1_fatfs_1_ff.c **** #define	DEF_NAMEBUF			BYTE sfn[12]; WCHAR *lfn
 291:.\Generated_Source\PSoC5/sdlogger_1_fatfs_1_ff.c **** #define INIT_BUF(dobj)		{ lfn = ff_memalloc((_MAX_LFN + 1) * 2); \
 292:.\Generated_Source\PSoC5/sdlogger_1_fatfs_1_ff.c **** 							  if (!lfn) LEAVE_FF((dobj).fs, FR_NOT_ENOUGH_CORE); \
 293:.\Generated_Source\PSoC5/sdlogger_1_fatfs_1_ff.c **** 							  (dobj).lfn = lfn;	(dobj).fn = sfn; }
 294:.\Generated_Source\PSoC5/sdlogger_1_fatfs_1_ff.c **** #define	FREE_BUF()			ff_memfree(lfn)
 295:.\Generated_Source\PSoC5/sdlogger_1_fatfs_1_ff.c **** 
 296:.\Generated_Source\PSoC5/sdlogger_1_fatfs_1_ff.c **** #else
 297:.\Generated_Source\PSoC5/sdlogger_1_fatfs_1_ff.c **** #error Wrong LFN configuration.
 298:.\Generated_Source\PSoC5/sdlogger_1_fatfs_1_ff.c **** #endif
 299:.\Generated_Source\PSoC5/sdlogger_1_fatfs_1_ff.c **** 
ARM GAS  C:\Users\SUZUKI~1\AppData\Local\Temp\ccJaA83q.s 			page 7


 300:.\Generated_Source\PSoC5/sdlogger_1_fatfs_1_ff.c **** 
 301:.\Generated_Source\PSoC5/sdlogger_1_fatfs_1_ff.c **** 
 302:.\Generated_Source\PSoC5/sdlogger_1_fatfs_1_ff.c **** 
 303:.\Generated_Source\PSoC5/sdlogger_1_fatfs_1_ff.c **** /*--------------------------------------------------------------------------
 304:.\Generated_Source\PSoC5/sdlogger_1_fatfs_1_ff.c **** 
 305:.\Generated_Source\PSoC5/sdlogger_1_fatfs_1_ff.c ****    Module Private Functions
 306:.\Generated_Source\PSoC5/sdlogger_1_fatfs_1_ff.c **** 
 307:.\Generated_Source\PSoC5/sdlogger_1_fatfs_1_ff.c **** ---------------------------------------------------------------------------*/
 308:.\Generated_Source\PSoC5/sdlogger_1_fatfs_1_ff.c **** 
 309:.\Generated_Source\PSoC5/sdlogger_1_fatfs_1_ff.c **** 
 310:.\Generated_Source\PSoC5/sdlogger_1_fatfs_1_ff.c **** /*-----------------------------------------------------------------------*/
 311:.\Generated_Source\PSoC5/sdlogger_1_fatfs_1_ff.c **** /* String functions                                                      */
 312:.\Generated_Source\PSoC5/sdlogger_1_fatfs_1_ff.c **** /*-----------------------------------------------------------------------*/
 313:.\Generated_Source\PSoC5/sdlogger_1_fatfs_1_ff.c **** 
 314:.\Generated_Source\PSoC5/sdlogger_1_fatfs_1_ff.c **** /* Copy memory to memory */
 315:.\Generated_Source\PSoC5/sdlogger_1_fatfs_1_ff.c **** static
 316:.\Generated_Source\PSoC5/sdlogger_1_fatfs_1_ff.c **** void mem_cpy (void* dst, const void* src, UINT cnt) {
  40              		.loc 1 316 0
  41              		.cfi_startproc
  42              		@ args = 0, pretend = 0, frame = 24
  43              		@ frame_needed = 1, uses_anonymous_args = 0
  44              		@ link register save eliminated.
  45 0000 80B4     		push	{r7}
  46              	.LCFI0:
  47              		.cfi_def_cfa_offset 4
  48 0002 87B0     		sub	sp, sp, #28
  49              	.LCFI1:
  50              		.cfi_def_cfa_offset 32
  51 0004 00AF     		add	r7, sp, #0
  52              		.cfi_offset 7, -4
  53              	.LCFI2:
  54              		.cfi_def_cfa_register 7
  55 0006 F860     		str	r0, [r7, #12]
  56 0008 B960     		str	r1, [r7, #8]
  57 000a 7A60     		str	r2, [r7, #4]
 317:.\Generated_Source\PSoC5/sdlogger_1_fatfs_1_ff.c **** 	BYTE *d = (BYTE*)dst;
  58              		.loc 1 317 0
  59 000c FB68     		ldr	r3, [r7, #12]
  60 000e 3B61     		str	r3, [r7, #16]
 318:.\Generated_Source\PSoC5/sdlogger_1_fatfs_1_ff.c **** 	const BYTE *s = (const BYTE*)src;
  61              		.loc 1 318 0
  62 0010 BB68     		ldr	r3, [r7, #8]
  63 0012 7B61     		str	r3, [r7, #20]
 319:.\Generated_Source\PSoC5/sdlogger_1_fatfs_1_ff.c **** 
 320:.\Generated_Source\PSoC5/sdlogger_1_fatfs_1_ff.c **** #if _WORD_ACCESS == 1
 321:.\Generated_Source\PSoC5/sdlogger_1_fatfs_1_ff.c **** 	while (cnt >= sizeof(int)) {
 322:.\Generated_Source\PSoC5/sdlogger_1_fatfs_1_ff.c **** 		*(int*)d = *(int*)s;
 323:.\Generated_Source\PSoC5/sdlogger_1_fatfs_1_ff.c **** 		d += sizeof(int); s += sizeof(int);
 324:.\Generated_Source\PSoC5/sdlogger_1_fatfs_1_ff.c **** 		cnt -= sizeof(int);
 325:.\Generated_Source\PSoC5/sdlogger_1_fatfs_1_ff.c **** 	}
 326:.\Generated_Source\PSoC5/sdlogger_1_fatfs_1_ff.c **** #endif
 327:.\Generated_Source\PSoC5/sdlogger_1_fatfs_1_ff.c **** 	while (cnt--)
  64              		.loc 1 327 0
  65 0014 0BE0     		b	.L2
  66              	.L3:
 328:.\Generated_Source\PSoC5/sdlogger_1_fatfs_1_ff.c **** 		*d++ = *s++;
  67              		.loc 1 328 0
ARM GAS  C:\Users\SUZUKI~1\AppData\Local\Temp\ccJaA83q.s 			page 8


  68 0016 7B69     		ldr	r3, [r7, #20]
  69 0018 1A78     		ldrb	r2, [r3, #0]	@ zero_extendqisi2
  70 001a 3B69     		ldr	r3, [r7, #16]
  71 001c 1A70     		strb	r2, [r3, #0]
  72 001e 3B69     		ldr	r3, [r7, #16]
  73 0020 03F10103 		add	r3, r3, #1
  74 0024 3B61     		str	r3, [r7, #16]
  75 0026 7B69     		ldr	r3, [r7, #20]
  76 0028 03F10103 		add	r3, r3, #1
  77 002c 7B61     		str	r3, [r7, #20]
  78              	.L2:
  79              		.loc 1 327 0
  80 002e 7B68     		ldr	r3, [r7, #4]
  81 0030 002B     		cmp	r3, #0
  82 0032 0CBF     		ite	eq
  83 0034 0023     		moveq	r3, #0
  84 0036 0123     		movne	r3, #1
  85 0038 DBB2     		uxtb	r3, r3
  86 003a 7A68     		ldr	r2, [r7, #4]
  87 003c 02F1FF32 		add	r2, r2, #-1
  88 0040 7A60     		str	r2, [r7, #4]
  89 0042 002B     		cmp	r3, #0
  90 0044 E7D1     		bne	.L3
 329:.\Generated_Source\PSoC5/sdlogger_1_fatfs_1_ff.c **** }
  91              		.loc 1 329 0
  92 0046 07F11C07 		add	r7, r7, #28
  93 004a BD46     		mov	sp, r7
  94 004c 80BC     		pop	{r7}
  95 004e 7047     		bx	lr
  96              		.cfi_endproc
  97              	.LFE0:
  98              		.size	mem_cpy, .-mem_cpy
  99              		.section	.text.mem_set,"ax",%progbits
 100              		.align	2
 101              		.thumb
 102              		.thumb_func
 103              		.type	mem_set, %function
 104              	mem_set:
 105              	.LFB1:
 330:.\Generated_Source\PSoC5/sdlogger_1_fatfs_1_ff.c **** 
 331:.\Generated_Source\PSoC5/sdlogger_1_fatfs_1_ff.c **** /* Fill memory */
 332:.\Generated_Source\PSoC5/sdlogger_1_fatfs_1_ff.c **** static
 333:.\Generated_Source\PSoC5/sdlogger_1_fatfs_1_ff.c **** void mem_set (void* dst, int val, UINT cnt) {
 106              		.loc 1 333 0
 107              		.cfi_startproc
 108              		@ args = 0, pretend = 0, frame = 24
 109              		@ frame_needed = 1, uses_anonymous_args = 0
 110              		@ link register save eliminated.
 111 0000 80B4     		push	{r7}
 112              	.LCFI3:
 113              		.cfi_def_cfa_offset 4
 114 0002 87B0     		sub	sp, sp, #28
 115              	.LCFI4:
 116              		.cfi_def_cfa_offset 32
 117 0004 00AF     		add	r7, sp, #0
 118              		.cfi_offset 7, -4
 119              	.LCFI5:
ARM GAS  C:\Users\SUZUKI~1\AppData\Local\Temp\ccJaA83q.s 			page 9


 120              		.cfi_def_cfa_register 7
 121 0006 F860     		str	r0, [r7, #12]
 122 0008 B960     		str	r1, [r7, #8]
 123 000a 7A60     		str	r2, [r7, #4]
 334:.\Generated_Source\PSoC5/sdlogger_1_fatfs_1_ff.c **** 	BYTE *d = (BYTE*)dst;
 124              		.loc 1 334 0
 125 000c FB68     		ldr	r3, [r7, #12]
 126 000e 7B61     		str	r3, [r7, #20]
 335:.\Generated_Source\PSoC5/sdlogger_1_fatfs_1_ff.c **** 
 336:.\Generated_Source\PSoC5/sdlogger_1_fatfs_1_ff.c **** 	while (cnt--)
 127              		.loc 1 336 0
 128 0010 07E0     		b	.L6
 129              	.L7:
 337:.\Generated_Source\PSoC5/sdlogger_1_fatfs_1_ff.c **** 		*d++ = (BYTE)val;
 130              		.loc 1 337 0
 131 0012 BB68     		ldr	r3, [r7, #8]
 132 0014 DAB2     		uxtb	r2, r3
 133 0016 7B69     		ldr	r3, [r7, #20]
 134 0018 1A70     		strb	r2, [r3, #0]
 135 001a 7B69     		ldr	r3, [r7, #20]
 136 001c 03F10103 		add	r3, r3, #1
 137 0020 7B61     		str	r3, [r7, #20]
 138              	.L6:
 139              		.loc 1 336 0
 140 0022 7B68     		ldr	r3, [r7, #4]
 141 0024 002B     		cmp	r3, #0
 142 0026 0CBF     		ite	eq
 143 0028 0023     		moveq	r3, #0
 144 002a 0123     		movne	r3, #1
 145 002c DBB2     		uxtb	r3, r3
 146 002e 7A68     		ldr	r2, [r7, #4]
 147 0030 02F1FF32 		add	r2, r2, #-1
 148 0034 7A60     		str	r2, [r7, #4]
 149 0036 002B     		cmp	r3, #0
 150 0038 EBD1     		bne	.L7
 338:.\Generated_Source\PSoC5/sdlogger_1_fatfs_1_ff.c **** }
 151              		.loc 1 338 0
 152 003a 07F11C07 		add	r7, r7, #28
 153 003e BD46     		mov	sp, r7
 154 0040 80BC     		pop	{r7}
 155 0042 7047     		bx	lr
 156              		.cfi_endproc
 157              	.LFE1:
 158              		.size	mem_set, .-mem_set
 159              		.section	.text.mem_cmp,"ax",%progbits
 160              		.align	2
 161              		.thumb
 162              		.thumb_func
 163              		.type	mem_cmp, %function
 164              	mem_cmp:
 165              	.LFB2:
 339:.\Generated_Source\PSoC5/sdlogger_1_fatfs_1_ff.c **** 
 340:.\Generated_Source\PSoC5/sdlogger_1_fatfs_1_ff.c **** /* Compare memory to memory */
 341:.\Generated_Source\PSoC5/sdlogger_1_fatfs_1_ff.c **** static
 342:.\Generated_Source\PSoC5/sdlogger_1_fatfs_1_ff.c **** int mem_cmp (const void* dst, const void* src, UINT cnt) {
 166              		.loc 1 342 0
 167              		.cfi_startproc
ARM GAS  C:\Users\SUZUKI~1\AppData\Local\Temp\ccJaA83q.s 			page 10


 168              		@ args = 0, pretend = 0, frame = 32
 169              		@ frame_needed = 1, uses_anonymous_args = 0
 170              		@ link register save eliminated.
 171 0000 80B4     		push	{r7}
 172              	.LCFI6:
 173              		.cfi_def_cfa_offset 4
 174 0002 89B0     		sub	sp, sp, #36
 175              	.LCFI7:
 176              		.cfi_def_cfa_offset 40
 177 0004 00AF     		add	r7, sp, #0
 178              		.cfi_offset 7, -4
 179              	.LCFI8:
 180              		.cfi_def_cfa_register 7
 181 0006 F860     		str	r0, [r7, #12]
 182 0008 B960     		str	r1, [r7, #8]
 183 000a 7A60     		str	r2, [r7, #4]
 343:.\Generated_Source\PSoC5/sdlogger_1_fatfs_1_ff.c **** 	const BYTE *d = (const BYTE *)dst, *s = (const BYTE *)src;
 184              		.loc 1 343 0
 185 000c FB68     		ldr	r3, [r7, #12]
 186 000e 7B61     		str	r3, [r7, #20]
 187 0010 BB68     		ldr	r3, [r7, #8]
 188 0012 BB61     		str	r3, [r7, #24]
 344:.\Generated_Source\PSoC5/sdlogger_1_fatfs_1_ff.c **** 	int r = 0;
 189              		.loc 1 344 0
 190 0014 4FF00003 		mov	r3, #0
 191 0018 FB61     		str	r3, [r7, #28]
 192              	.L11:
 345:.\Generated_Source\PSoC5/sdlogger_1_fatfs_1_ff.c **** 
 346:.\Generated_Source\PSoC5/sdlogger_1_fatfs_1_ff.c **** 	while (cnt-- && (r = *d++ - *s++) == 0) ;
 193              		.loc 1 346 0
 194 001a 7B68     		ldr	r3, [r7, #4]
 195 001c 002B     		cmp	r3, #0
 196 001e 0CBF     		ite	eq
 197 0020 0023     		moveq	r3, #0
 198 0022 0123     		movne	r3, #1
 199 0024 DBB2     		uxtb	r3, r3
 200 0026 7A68     		ldr	r2, [r7, #4]
 201 0028 02F1FF32 		add	r2, r2, #-1
 202 002c 7A60     		str	r2, [r7, #4]
 203 002e 002B     		cmp	r3, #0
 204 0030 17D0     		beq	.L10
 205 0032 7B69     		ldr	r3, [r7, #20]
 206 0034 1B78     		ldrb	r3, [r3, #0]	@ zero_extendqisi2
 207 0036 1A46     		mov	r2, r3
 208 0038 BB69     		ldr	r3, [r7, #24]
 209 003a 1B78     		ldrb	r3, [r3, #0]	@ zero_extendqisi2
 210 003c C3EB0203 		rsb	r3, r3, r2
 211 0040 FB61     		str	r3, [r7, #28]
 212 0042 FB69     		ldr	r3, [r7, #28]
 213 0044 002B     		cmp	r3, #0
 214 0046 14BF     		ite	ne
 215 0048 0023     		movne	r3, #0
 216 004a 0123     		moveq	r3, #1
 217 004c DBB2     		uxtb	r3, r3
 218 004e 7A69     		ldr	r2, [r7, #20]
 219 0050 02F10102 		add	r2, r2, #1
 220 0054 7A61     		str	r2, [r7, #20]
ARM GAS  C:\Users\SUZUKI~1\AppData\Local\Temp\ccJaA83q.s 			page 11


 221 0056 BA69     		ldr	r2, [r7, #24]
 222 0058 02F10102 		add	r2, r2, #1
 223 005c BA61     		str	r2, [r7, #24]
 224 005e 002B     		cmp	r3, #0
 225 0060 DBD1     		bne	.L11
 226              	.L10:
 347:.\Generated_Source\PSoC5/sdlogger_1_fatfs_1_ff.c **** 	return r;
 227              		.loc 1 347 0
 228 0062 FB69     		ldr	r3, [r7, #28]
 348:.\Generated_Source\PSoC5/sdlogger_1_fatfs_1_ff.c **** }
 229              		.loc 1 348 0
 230 0064 1846     		mov	r0, r3
 231 0066 07F12407 		add	r7, r7, #36
 232 006a BD46     		mov	sp, r7
 233 006c 80BC     		pop	{r7}
 234 006e 7047     		bx	lr
 235              		.cfi_endproc
 236              	.LFE2:
 237              		.size	mem_cmp, .-mem_cmp
 238              		.section	.text.chk_chr,"ax",%progbits
 239              		.align	2
 240              		.thumb
 241              		.thumb_func
 242              		.type	chk_chr, %function
 243              	chk_chr:
 244              	.LFB3:
 349:.\Generated_Source\PSoC5/sdlogger_1_fatfs_1_ff.c **** 
 350:.\Generated_Source\PSoC5/sdlogger_1_fatfs_1_ff.c **** /* Check if chr is contained in the string */
 351:.\Generated_Source\PSoC5/sdlogger_1_fatfs_1_ff.c **** static
 352:.\Generated_Source\PSoC5/sdlogger_1_fatfs_1_ff.c **** int chk_chr (const char* str, int chr) {
 245              		.loc 1 352 0
 246              		.cfi_startproc
 247              		@ args = 0, pretend = 0, frame = 8
 248              		@ frame_needed = 1, uses_anonymous_args = 0
 249              		@ link register save eliminated.
 250 0000 80B4     		push	{r7}
 251              	.LCFI9:
 252              		.cfi_def_cfa_offset 4
 253 0002 83B0     		sub	sp, sp, #12
 254              	.LCFI10:
 255              		.cfi_def_cfa_offset 16
 256 0004 00AF     		add	r7, sp, #0
 257              		.cfi_offset 7, -4
 258              	.LCFI11:
 259              		.cfi_def_cfa_register 7
 260 0006 7860     		str	r0, [r7, #4]
 261 0008 3960     		str	r1, [r7, #0]
 353:.\Generated_Source\PSoC5/sdlogger_1_fatfs_1_ff.c **** 	while (*str && *str != chr) str++;
 262              		.loc 1 353 0
 263 000a 03E0     		b	.L14
 264              	.L16:
 265 000c 7B68     		ldr	r3, [r7, #4]
 266 000e 03F10103 		add	r3, r3, #1
 267 0012 7B60     		str	r3, [r7, #4]
 268              	.L14:
 269 0014 7B68     		ldr	r3, [r7, #4]
 270 0016 1B78     		ldrb	r3, [r3, #0]	@ zero_extendqisi2
ARM GAS  C:\Users\SUZUKI~1\AppData\Local\Temp\ccJaA83q.s 			page 12


 271 0018 002B     		cmp	r3, #0
 272 001a 05D0     		beq	.L15
 273 001c 7B68     		ldr	r3, [r7, #4]
 274 001e 1B78     		ldrb	r3, [r3, #0]	@ zero_extendqisi2
 275 0020 1A46     		mov	r2, r3
 276 0022 3B68     		ldr	r3, [r7, #0]
 277 0024 9A42     		cmp	r2, r3
 278 0026 F1D1     		bne	.L16
 279              	.L15:
 354:.\Generated_Source\PSoC5/sdlogger_1_fatfs_1_ff.c **** 	return *str;
 280              		.loc 1 354 0
 281 0028 7B68     		ldr	r3, [r7, #4]
 282 002a 1B78     		ldrb	r3, [r3, #0]	@ zero_extendqisi2
 355:.\Generated_Source\PSoC5/sdlogger_1_fatfs_1_ff.c **** }
 283              		.loc 1 355 0
 284 002c 1846     		mov	r0, r3
 285 002e 07F10C07 		add	r7, r7, #12
 286 0032 BD46     		mov	sp, r7
 287 0034 80BC     		pop	{r7}
 288 0036 7047     		bx	lr
 289              		.cfi_endproc
 290              	.LFE3:
 291              		.size	chk_chr, .-chk_chr
 292              		.section	.text.move_window,"ax",%progbits
 293              		.align	2
 294              		.thumb
 295              		.thumb_func
 296              		.type	move_window, %function
 297              	move_window:
 298              	.LFB4:
 356:.\Generated_Source\PSoC5/sdlogger_1_fatfs_1_ff.c **** 
 357:.\Generated_Source\PSoC5/sdlogger_1_fatfs_1_ff.c **** 
 358:.\Generated_Source\PSoC5/sdlogger_1_fatfs_1_ff.c **** 
 359:.\Generated_Source\PSoC5/sdlogger_1_fatfs_1_ff.c **** /*-----------------------------------------------------------------------*/
 360:.\Generated_Source\PSoC5/sdlogger_1_fatfs_1_ff.c **** /* Request/Release grant to access the volume                            */
 361:.\Generated_Source\PSoC5/sdlogger_1_fatfs_1_ff.c **** /*-----------------------------------------------------------------------*/
 362:.\Generated_Source\PSoC5/sdlogger_1_fatfs_1_ff.c **** #if _FS_REENTRANT
 363:.\Generated_Source\PSoC5/sdlogger_1_fatfs_1_ff.c **** 
 364:.\Generated_Source\PSoC5/sdlogger_1_fatfs_1_ff.c **** static
 365:.\Generated_Source\PSoC5/sdlogger_1_fatfs_1_ff.c **** int lock_fs (
 366:.\Generated_Source\PSoC5/sdlogger_1_fatfs_1_ff.c **** 	FATFS *fs		/* File system object */
 367:.\Generated_Source\PSoC5/sdlogger_1_fatfs_1_ff.c **** )
 368:.\Generated_Source\PSoC5/sdlogger_1_fatfs_1_ff.c **** {
 369:.\Generated_Source\PSoC5/sdlogger_1_fatfs_1_ff.c **** 	return ff_req_grant(fs->sobj);
 370:.\Generated_Source\PSoC5/sdlogger_1_fatfs_1_ff.c **** }
 371:.\Generated_Source\PSoC5/sdlogger_1_fatfs_1_ff.c **** 
 372:.\Generated_Source\PSoC5/sdlogger_1_fatfs_1_ff.c **** 
 373:.\Generated_Source\PSoC5/sdlogger_1_fatfs_1_ff.c **** static
 374:.\Generated_Source\PSoC5/sdlogger_1_fatfs_1_ff.c **** void unlock_fs (
 375:.\Generated_Source\PSoC5/sdlogger_1_fatfs_1_ff.c **** 	FATFS *fs,		/* File system object */
 376:.\Generated_Source\PSoC5/sdlogger_1_fatfs_1_ff.c **** 	FRESULT res		/* Result code to be returned */
 377:.\Generated_Source\PSoC5/sdlogger_1_fatfs_1_ff.c **** )
 378:.\Generated_Source\PSoC5/sdlogger_1_fatfs_1_ff.c **** {
 379:.\Generated_Source\PSoC5/sdlogger_1_fatfs_1_ff.c **** 	if (res != FR_NOT_ENABLED &&
 380:.\Generated_Source\PSoC5/sdlogger_1_fatfs_1_ff.c **** 		res != FR_INVALID_DRIVE &&
 381:.\Generated_Source\PSoC5/sdlogger_1_fatfs_1_ff.c **** 		res != FR_INVALID_OBJECT &&
 382:.\Generated_Source\PSoC5/sdlogger_1_fatfs_1_ff.c **** 		res != FR_TIMEOUT) {
ARM GAS  C:\Users\SUZUKI~1\AppData\Local\Temp\ccJaA83q.s 			page 13


 383:.\Generated_Source\PSoC5/sdlogger_1_fatfs_1_ff.c **** 		ff_rel_grant(fs->sobj);
 384:.\Generated_Source\PSoC5/sdlogger_1_fatfs_1_ff.c **** 	}
 385:.\Generated_Source\PSoC5/sdlogger_1_fatfs_1_ff.c **** }
 386:.\Generated_Source\PSoC5/sdlogger_1_fatfs_1_ff.c **** #endif
 387:.\Generated_Source\PSoC5/sdlogger_1_fatfs_1_ff.c **** 
 388:.\Generated_Source\PSoC5/sdlogger_1_fatfs_1_ff.c **** 
 389:.\Generated_Source\PSoC5/sdlogger_1_fatfs_1_ff.c **** 
 390:.\Generated_Source\PSoC5/sdlogger_1_fatfs_1_ff.c **** /*-----------------------------------------------------------------------*/
 391:.\Generated_Source\PSoC5/sdlogger_1_fatfs_1_ff.c **** /* File shareing control functions                                       */
 392:.\Generated_Source\PSoC5/sdlogger_1_fatfs_1_ff.c **** /*-----------------------------------------------------------------------*/
 393:.\Generated_Source\PSoC5/sdlogger_1_fatfs_1_ff.c **** #if _FS_SHARE
 394:.\Generated_Source\PSoC5/sdlogger_1_fatfs_1_ff.c **** 
 395:.\Generated_Source\PSoC5/sdlogger_1_fatfs_1_ff.c **** static
 396:.\Generated_Source\PSoC5/sdlogger_1_fatfs_1_ff.c **** FRESULT chk_lock (	/* Check if the file can be accessed */
 397:.\Generated_Source\PSoC5/sdlogger_1_fatfs_1_ff.c **** 	DIR* dj,		/* Directory object pointing the file to be checked */
 398:.\Generated_Source\PSoC5/sdlogger_1_fatfs_1_ff.c **** 	int acc			/* Desired access (0:Read, 1:Write, 2:Delete/Rename) */
 399:.\Generated_Source\PSoC5/sdlogger_1_fatfs_1_ff.c **** )
 400:.\Generated_Source\PSoC5/sdlogger_1_fatfs_1_ff.c **** {
 401:.\Generated_Source\PSoC5/sdlogger_1_fatfs_1_ff.c **** 	UINT i, be;
 402:.\Generated_Source\PSoC5/sdlogger_1_fatfs_1_ff.c **** 
 403:.\Generated_Source\PSoC5/sdlogger_1_fatfs_1_ff.c **** 	/* Search file semaphore table */
 404:.\Generated_Source\PSoC5/sdlogger_1_fatfs_1_ff.c **** 	for (i = be = 0; i < _FS_SHARE; i++) {
 405:.\Generated_Source\PSoC5/sdlogger_1_fatfs_1_ff.c **** 		if (Files[i].fs) {	/* Existing entry */
 406:.\Generated_Source\PSoC5/sdlogger_1_fatfs_1_ff.c **** 			if (Files[i].fs == dj->fs &&	 	/* Check if the file matched with an open file */
 407:.\Generated_Source\PSoC5/sdlogger_1_fatfs_1_ff.c **** 				Files[i].clu == dj->sclust &&
 408:.\Generated_Source\PSoC5/sdlogger_1_fatfs_1_ff.c **** 				Files[i].idx == dj->index) break;
 409:.\Generated_Source\PSoC5/sdlogger_1_fatfs_1_ff.c **** 		} else {			/* Blank entry */
 410:.\Generated_Source\PSoC5/sdlogger_1_fatfs_1_ff.c **** 			be++;
 411:.\Generated_Source\PSoC5/sdlogger_1_fatfs_1_ff.c **** 		}
 412:.\Generated_Source\PSoC5/sdlogger_1_fatfs_1_ff.c **** 	}
 413:.\Generated_Source\PSoC5/sdlogger_1_fatfs_1_ff.c **** 	if (i == _FS_SHARE)	/* The file is not opened */
 414:.\Generated_Source\PSoC5/sdlogger_1_fatfs_1_ff.c **** 		return (be || acc == 2) ? FR_OK : FR_TOO_MANY_OPEN_FILES;	/* Is there a blank entry for new file?
 415:.\Generated_Source\PSoC5/sdlogger_1_fatfs_1_ff.c **** 
 416:.\Generated_Source\PSoC5/sdlogger_1_fatfs_1_ff.c **** 	/* The file has been opened. Reject any open against writing file and all write mode open */
 417:.\Generated_Source\PSoC5/sdlogger_1_fatfs_1_ff.c **** 	return (acc || Files[i].ctr == 0x100) ? FR_LOCKED : FR_OK;
 418:.\Generated_Source\PSoC5/sdlogger_1_fatfs_1_ff.c **** }
 419:.\Generated_Source\PSoC5/sdlogger_1_fatfs_1_ff.c **** 
 420:.\Generated_Source\PSoC5/sdlogger_1_fatfs_1_ff.c **** 
 421:.\Generated_Source\PSoC5/sdlogger_1_fatfs_1_ff.c **** static
 422:.\Generated_Source\PSoC5/sdlogger_1_fatfs_1_ff.c **** int enq_lock (	/* Check if an entry is available for a new file */
 423:.\Generated_Source\PSoC5/sdlogger_1_fatfs_1_ff.c **** 	FATFS* fs	/* File system object */
 424:.\Generated_Source\PSoC5/sdlogger_1_fatfs_1_ff.c **** )
 425:.\Generated_Source\PSoC5/sdlogger_1_fatfs_1_ff.c **** {
 426:.\Generated_Source\PSoC5/sdlogger_1_fatfs_1_ff.c **** 	UINT i;
 427:.\Generated_Source\PSoC5/sdlogger_1_fatfs_1_ff.c **** 
 428:.\Generated_Source\PSoC5/sdlogger_1_fatfs_1_ff.c **** 	for (i = 0; i < _FS_SHARE && Files[i].fs; i++) ;
 429:.\Generated_Source\PSoC5/sdlogger_1_fatfs_1_ff.c **** 	return (i == _FS_SHARE) ? 0 : 1;
 430:.\Generated_Source\PSoC5/sdlogger_1_fatfs_1_ff.c **** }
 431:.\Generated_Source\PSoC5/sdlogger_1_fatfs_1_ff.c **** 
 432:.\Generated_Source\PSoC5/sdlogger_1_fatfs_1_ff.c **** 
 433:.\Generated_Source\PSoC5/sdlogger_1_fatfs_1_ff.c **** static
 434:.\Generated_Source\PSoC5/sdlogger_1_fatfs_1_ff.c **** UINT inc_lock (	/* Increment file open counter and returns its index (0:int error) */
 435:.\Generated_Source\PSoC5/sdlogger_1_fatfs_1_ff.c **** 	DIR* dj,	/* Directory object pointing the file to register or increment */
 436:.\Generated_Source\PSoC5/sdlogger_1_fatfs_1_ff.c **** 	int acc		/* Desired access mode (0:Read, !0:Write) */
 437:.\Generated_Source\PSoC5/sdlogger_1_fatfs_1_ff.c **** )
 438:.\Generated_Source\PSoC5/sdlogger_1_fatfs_1_ff.c **** {
 439:.\Generated_Source\PSoC5/sdlogger_1_fatfs_1_ff.c **** 	UINT i;
ARM GAS  C:\Users\SUZUKI~1\AppData\Local\Temp\ccJaA83q.s 			page 14


 440:.\Generated_Source\PSoC5/sdlogger_1_fatfs_1_ff.c **** 
 441:.\Generated_Source\PSoC5/sdlogger_1_fatfs_1_ff.c **** 
 442:.\Generated_Source\PSoC5/sdlogger_1_fatfs_1_ff.c **** 	for (i = 0; i < _FS_SHARE; i++) {	/* Find the file */
 443:.\Generated_Source\PSoC5/sdlogger_1_fatfs_1_ff.c **** 		if (Files[i].fs == dj->fs &&
 444:.\Generated_Source\PSoC5/sdlogger_1_fatfs_1_ff.c **** 			Files[i].clu == dj->sclust &&
 445:.\Generated_Source\PSoC5/sdlogger_1_fatfs_1_ff.c **** 			Files[i].idx == dj->index) break;
 446:.\Generated_Source\PSoC5/sdlogger_1_fatfs_1_ff.c **** 	}
 447:.\Generated_Source\PSoC5/sdlogger_1_fatfs_1_ff.c **** 
 448:.\Generated_Source\PSoC5/sdlogger_1_fatfs_1_ff.c **** 	if (i == _FS_SHARE) {				/* Not opened. Register it as new. */
 449:.\Generated_Source\PSoC5/sdlogger_1_fatfs_1_ff.c **** 		for (i = 0; i < _FS_SHARE && Files[i].fs; i++) ;
 450:.\Generated_Source\PSoC5/sdlogger_1_fatfs_1_ff.c **** 		if (i == _FS_SHARE) return 0;	/* No space to register (int err) */
 451:.\Generated_Source\PSoC5/sdlogger_1_fatfs_1_ff.c **** 		Files[i].fs = dj->fs;
 452:.\Generated_Source\PSoC5/sdlogger_1_fatfs_1_ff.c **** 		Files[i].clu = dj->sclust;
 453:.\Generated_Source\PSoC5/sdlogger_1_fatfs_1_ff.c **** 		Files[i].idx = dj->index;
 454:.\Generated_Source\PSoC5/sdlogger_1_fatfs_1_ff.c **** 		Files[i].ctr = 0;
 455:.\Generated_Source\PSoC5/sdlogger_1_fatfs_1_ff.c **** 	}
 456:.\Generated_Source\PSoC5/sdlogger_1_fatfs_1_ff.c **** 
 457:.\Generated_Source\PSoC5/sdlogger_1_fatfs_1_ff.c **** 	if (acc && Files[i].ctr) return 0;	/* Access violation (int err) */
 458:.\Generated_Source\PSoC5/sdlogger_1_fatfs_1_ff.c **** 
 459:.\Generated_Source\PSoC5/sdlogger_1_fatfs_1_ff.c **** 	Files[i].ctr = acc ? 0x100 : Files[i].ctr + 1;	/* Set semaphore value */
 460:.\Generated_Source\PSoC5/sdlogger_1_fatfs_1_ff.c **** 
 461:.\Generated_Source\PSoC5/sdlogger_1_fatfs_1_ff.c **** 	return i + 1;
 462:.\Generated_Source\PSoC5/sdlogger_1_fatfs_1_ff.c **** }
 463:.\Generated_Source\PSoC5/sdlogger_1_fatfs_1_ff.c **** 
 464:.\Generated_Source\PSoC5/sdlogger_1_fatfs_1_ff.c **** 
 465:.\Generated_Source\PSoC5/sdlogger_1_fatfs_1_ff.c **** static
 466:.\Generated_Source\PSoC5/sdlogger_1_fatfs_1_ff.c **** FRESULT dec_lock (	/* Decrement file open counter */
 467:.\Generated_Source\PSoC5/sdlogger_1_fatfs_1_ff.c **** 	UINT i			/* Semaphore index */
 468:.\Generated_Source\PSoC5/sdlogger_1_fatfs_1_ff.c **** )
 469:.\Generated_Source\PSoC5/sdlogger_1_fatfs_1_ff.c **** {
 470:.\Generated_Source\PSoC5/sdlogger_1_fatfs_1_ff.c **** 	WORD n;
 471:.\Generated_Source\PSoC5/sdlogger_1_fatfs_1_ff.c **** 	FRESULT res;
 472:.\Generated_Source\PSoC5/sdlogger_1_fatfs_1_ff.c **** 
 473:.\Generated_Source\PSoC5/sdlogger_1_fatfs_1_ff.c **** 
 474:.\Generated_Source\PSoC5/sdlogger_1_fatfs_1_ff.c **** 	if (--i < _FS_SHARE) {
 475:.\Generated_Source\PSoC5/sdlogger_1_fatfs_1_ff.c **** 		n = Files[i].ctr;
 476:.\Generated_Source\PSoC5/sdlogger_1_fatfs_1_ff.c **** 		if (n == 0x100) n = 0;
 477:.\Generated_Source\PSoC5/sdlogger_1_fatfs_1_ff.c **** 		if (n) n--;
 478:.\Generated_Source\PSoC5/sdlogger_1_fatfs_1_ff.c **** 		Files[i].ctr = n;
 479:.\Generated_Source\PSoC5/sdlogger_1_fatfs_1_ff.c **** 		if (!n) Files[i].fs = 0;
 480:.\Generated_Source\PSoC5/sdlogger_1_fatfs_1_ff.c **** 		res = FR_OK;
 481:.\Generated_Source\PSoC5/sdlogger_1_fatfs_1_ff.c **** 	} else {
 482:.\Generated_Source\PSoC5/sdlogger_1_fatfs_1_ff.c **** 		res = FR_INT_ERR;
 483:.\Generated_Source\PSoC5/sdlogger_1_fatfs_1_ff.c **** 	}
 484:.\Generated_Source\PSoC5/sdlogger_1_fatfs_1_ff.c **** 	return res;
 485:.\Generated_Source\PSoC5/sdlogger_1_fatfs_1_ff.c **** }
 486:.\Generated_Source\PSoC5/sdlogger_1_fatfs_1_ff.c **** 
 487:.\Generated_Source\PSoC5/sdlogger_1_fatfs_1_ff.c **** 
 488:.\Generated_Source\PSoC5/sdlogger_1_fatfs_1_ff.c **** static
 489:.\Generated_Source\PSoC5/sdlogger_1_fatfs_1_ff.c **** void clear_lock (	/* Clear lock entries of the volume */
 490:.\Generated_Source\PSoC5/sdlogger_1_fatfs_1_ff.c **** 	FATFS *fs
 491:.\Generated_Source\PSoC5/sdlogger_1_fatfs_1_ff.c **** )
 492:.\Generated_Source\PSoC5/sdlogger_1_fatfs_1_ff.c **** {
 493:.\Generated_Source\PSoC5/sdlogger_1_fatfs_1_ff.c **** 	UINT i;
 494:.\Generated_Source\PSoC5/sdlogger_1_fatfs_1_ff.c **** 
 495:.\Generated_Source\PSoC5/sdlogger_1_fatfs_1_ff.c **** 	for (i = 0; i < _FS_SHARE; i++) {
 496:.\Generated_Source\PSoC5/sdlogger_1_fatfs_1_ff.c **** 		if (Files[i].fs == fs) Files[i].fs = 0;
ARM GAS  C:\Users\SUZUKI~1\AppData\Local\Temp\ccJaA83q.s 			page 15


 497:.\Generated_Source\PSoC5/sdlogger_1_fatfs_1_ff.c **** 	}
 498:.\Generated_Source\PSoC5/sdlogger_1_fatfs_1_ff.c **** }
 499:.\Generated_Source\PSoC5/sdlogger_1_fatfs_1_ff.c **** #endif
 500:.\Generated_Source\PSoC5/sdlogger_1_fatfs_1_ff.c **** 
 501:.\Generated_Source\PSoC5/sdlogger_1_fatfs_1_ff.c **** 
 502:.\Generated_Source\PSoC5/sdlogger_1_fatfs_1_ff.c **** 
 503:.\Generated_Source\PSoC5/sdlogger_1_fatfs_1_ff.c **** /*-----------------------------------------------------------------------*/
 504:.\Generated_Source\PSoC5/sdlogger_1_fatfs_1_ff.c **** /* Change window offset                                                  */
 505:.\Generated_Source\PSoC5/sdlogger_1_fatfs_1_ff.c **** /*-----------------------------------------------------------------------*/
 506:.\Generated_Source\PSoC5/sdlogger_1_fatfs_1_ff.c **** 
 507:.\Generated_Source\PSoC5/sdlogger_1_fatfs_1_ff.c **** static
 508:.\Generated_Source\PSoC5/sdlogger_1_fatfs_1_ff.c **** FRESULT move_window (
 509:.\Generated_Source\PSoC5/sdlogger_1_fatfs_1_ff.c **** 	FATFS *fs,		/* File system object */
 510:.\Generated_Source\PSoC5/sdlogger_1_fatfs_1_ff.c **** 	DWORD sector	/* Sector number to make appearance in the fs->win[] */
 511:.\Generated_Source\PSoC5/sdlogger_1_fatfs_1_ff.c **** )					/* Move to zero only writes back dirty window */
 512:.\Generated_Source\PSoC5/sdlogger_1_fatfs_1_ff.c **** {
 299              		.loc 1 512 0
 300              		.cfi_startproc
 301              		@ args = 0, pretend = 0, frame = 16
 302              		@ frame_needed = 1, uses_anonymous_args = 0
 303 0000 80B5     		push	{r7, lr}
 304              	.LCFI12:
 305              		.cfi_def_cfa_offset 8
 306 0002 84B0     		sub	sp, sp, #16
 307              	.LCFI13:
 308              		.cfi_def_cfa_offset 24
 309 0004 00AF     		add	r7, sp, #0
 310              		.cfi_offset 14, -4
 311              		.cfi_offset 7, -8
 312              	.LCFI14:
 313              		.cfi_def_cfa_register 7
 314 0006 7860     		str	r0, [r7, #4]
 315 0008 3960     		str	r1, [r7, #0]
 513:.\Generated_Source\PSoC5/sdlogger_1_fatfs_1_ff.c **** 	DWORD wsect;
 514:.\Generated_Source\PSoC5/sdlogger_1_fatfs_1_ff.c **** 
 515:.\Generated_Source\PSoC5/sdlogger_1_fatfs_1_ff.c **** 
 516:.\Generated_Source\PSoC5/sdlogger_1_fatfs_1_ff.c **** 	wsect = fs->winsect;
 316              		.loc 1 516 0
 317 000a 7B68     		ldr	r3, [r7, #4]
 318 000c 1B6B     		ldr	r3, [r3, #48]
 319 000e BB60     		str	r3, [r7, #8]
 517:.\Generated_Source\PSoC5/sdlogger_1_fatfs_1_ff.c **** 	if (wsect != sector) {	/* Changed current window */
 320              		.loc 1 517 0
 321 0010 BA68     		ldr	r2, [r7, #8]
 322 0012 3B68     		ldr	r3, [r7, #0]
 323 0014 9A42     		cmp	r2, r3
 324 0016 55D0     		beq	.L19
 518:.\Generated_Source\PSoC5/sdlogger_1_fatfs_1_ff.c **** #if !_FS_READONLY
 519:.\Generated_Source\PSoC5/sdlogger_1_fatfs_1_ff.c **** 		if (fs->wflag) {	/* Write back dirty window if needed */
 325              		.loc 1 519 0
 326 0018 7B68     		ldr	r3, [r7, #4]
 327 001a 1B79     		ldrb	r3, [r3, #4]	@ zero_extendqisi2
 328 001c 002B     		cmp	r3, #0
 329 001e 39D0     		beq	.L20
 520:.\Generated_Source\PSoC5/sdlogger_1_fatfs_1_ff.c **** 			if (disk_write(fs->drv, fs->win, wsect, 1) != RES_OK)
 330              		.loc 1 520 0
 331 0020 7B68     		ldr	r3, [r7, #4]
ARM GAS  C:\Users\SUZUKI~1\AppData\Local\Temp\ccJaA83q.s 			page 16


 332 0022 5A78     		ldrb	r2, [r3, #1]	@ zero_extendqisi2
 333 0024 7B68     		ldr	r3, [r7, #4]
 334 0026 03F13403 		add	r3, r3, #52
 335 002a 1046     		mov	r0, r2
 336 002c 1946     		mov	r1, r3
 337 002e BA68     		ldr	r2, [r7, #8]
 338 0030 4FF00103 		mov	r3, #1
 339 0034 FFF7FEFF 		bl	disk_write
 340 0038 0346     		mov	r3, r0
 341 003a 002B     		cmp	r3, #0
 342 003c 02D0     		beq	.L21
 521:.\Generated_Source\PSoC5/sdlogger_1_fatfs_1_ff.c **** 				return FR_DISK_ERR;
 343              		.loc 1 521 0
 344 003e 4FF00103 		mov	r3, #1
 345 0042 41E0     		b	.L22
 346              	.L21:
 522:.\Generated_Source\PSoC5/sdlogger_1_fatfs_1_ff.c **** 			fs->wflag = 0;
 347              		.loc 1 522 0
 348 0044 7B68     		ldr	r3, [r7, #4]
 349 0046 4FF00002 		mov	r2, #0
 350 004a 1A71     		strb	r2, [r3, #4]
 523:.\Generated_Source\PSoC5/sdlogger_1_fatfs_1_ff.c **** 			if (wsect < (fs->fatbase + fs->fsize)) {	/* In FAT area */
 351              		.loc 1 523 0
 352 004c 7B68     		ldr	r3, [r7, #4]
 353 004e 5A6A     		ldr	r2, [r3, #36]
 354 0050 7B68     		ldr	r3, [r7, #4]
 355 0052 1B6A     		ldr	r3, [r3, #32]
 356 0054 1A44     		add	r2, r2, r3
 357 0056 BB68     		ldr	r3, [r7, #8]
 358 0058 9A42     		cmp	r2, r3
 359 005a 1BD9     		bls	.L20
 360              	.LBB2:
 524:.\Generated_Source\PSoC5/sdlogger_1_fatfs_1_ff.c **** 				BYTE nf;
 525:.\Generated_Source\PSoC5/sdlogger_1_fatfs_1_ff.c **** 				for (nf = fs->n_fats; nf > 1; nf--) {	/* Reflect the change to all FAT copies */
 361              		.loc 1 525 0
 362 005c 7B68     		ldr	r3, [r7, #4]
 363 005e DB78     		ldrb	r3, [r3, #3]
 364 0060 FB73     		strb	r3, [r7, #15]
 365 0062 14E0     		b	.L23
 366              	.L24:
 526:.\Generated_Source\PSoC5/sdlogger_1_fatfs_1_ff.c **** 					wsect += fs->fsize;
 367              		.loc 1 526 0
 368 0064 7B68     		ldr	r3, [r7, #4]
 369 0066 1B6A     		ldr	r3, [r3, #32]
 370 0068 BA68     		ldr	r2, [r7, #8]
 371 006a 1344     		add	r3, r2, r3
 372 006c BB60     		str	r3, [r7, #8]
 527:.\Generated_Source\PSoC5/sdlogger_1_fatfs_1_ff.c **** 					disk_write(fs->drv, fs->win, wsect, 1);
 373              		.loc 1 527 0
 374 006e 7B68     		ldr	r3, [r7, #4]
 375 0070 5A78     		ldrb	r2, [r3, #1]	@ zero_extendqisi2
 376 0072 7B68     		ldr	r3, [r7, #4]
 377 0074 03F13403 		add	r3, r3, #52
 378 0078 1046     		mov	r0, r2
 379 007a 1946     		mov	r1, r3
 380 007c BA68     		ldr	r2, [r7, #8]
 381 007e 4FF00103 		mov	r3, #1
ARM GAS  C:\Users\SUZUKI~1\AppData\Local\Temp\ccJaA83q.s 			page 17


 382 0082 FFF7FEFF 		bl	disk_write
 383              		.loc 1 525 0
 384 0086 FB7B     		ldrb	r3, [r7, #15]
 385 0088 03F1FF33 		add	r3, r3, #-1
 386 008c FB73     		strb	r3, [r7, #15]
 387              	.L23:
 388 008e FB7B     		ldrb	r3, [r7, #15]	@ zero_extendqisi2
 389 0090 012B     		cmp	r3, #1
 390 0092 E7D8     		bhi	.L24
 391              	.L20:
 392              	.LBE2:
 528:.\Generated_Source\PSoC5/sdlogger_1_fatfs_1_ff.c **** 				}
 529:.\Generated_Source\PSoC5/sdlogger_1_fatfs_1_ff.c **** 			}
 530:.\Generated_Source\PSoC5/sdlogger_1_fatfs_1_ff.c **** 		}
 531:.\Generated_Source\PSoC5/sdlogger_1_fatfs_1_ff.c **** #endif
 532:.\Generated_Source\PSoC5/sdlogger_1_fatfs_1_ff.c **** 		if (sector) {
 393              		.loc 1 532 0
 394 0094 3B68     		ldr	r3, [r7, #0]
 395 0096 002B     		cmp	r3, #0
 396 0098 14D0     		beq	.L19
 533:.\Generated_Source\PSoC5/sdlogger_1_fatfs_1_ff.c **** 			if (disk_read(fs->drv, fs->win, sector, 1) != RES_OK)
 397              		.loc 1 533 0
 398 009a 7B68     		ldr	r3, [r7, #4]
 399 009c 5A78     		ldrb	r2, [r3, #1]	@ zero_extendqisi2
 400 009e 7B68     		ldr	r3, [r7, #4]
 401 00a0 03F13403 		add	r3, r3, #52
 402 00a4 1046     		mov	r0, r2
 403 00a6 1946     		mov	r1, r3
 404 00a8 3A68     		ldr	r2, [r7, #0]
 405 00aa 4FF00103 		mov	r3, #1
 406 00ae FFF7FEFF 		bl	disk_read
 407 00b2 0346     		mov	r3, r0
 408 00b4 002B     		cmp	r3, #0
 409 00b6 02D0     		beq	.L25
 534:.\Generated_Source\PSoC5/sdlogger_1_fatfs_1_ff.c **** 				return FR_DISK_ERR;
 410              		.loc 1 534 0
 411 00b8 4FF00103 		mov	r3, #1
 412 00bc 04E0     		b	.L22
 413              	.L25:
 535:.\Generated_Source\PSoC5/sdlogger_1_fatfs_1_ff.c **** 			fs->winsect = sector;
 414              		.loc 1 535 0
 415 00be 7B68     		ldr	r3, [r7, #4]
 416 00c0 3A68     		ldr	r2, [r7, #0]
 417 00c2 1A63     		str	r2, [r3, #48]
 418              	.L19:
 536:.\Generated_Source\PSoC5/sdlogger_1_fatfs_1_ff.c **** 		}
 537:.\Generated_Source\PSoC5/sdlogger_1_fatfs_1_ff.c **** 	}
 538:.\Generated_Source\PSoC5/sdlogger_1_fatfs_1_ff.c **** 
 539:.\Generated_Source\PSoC5/sdlogger_1_fatfs_1_ff.c **** 	return FR_OK;
 419              		.loc 1 539 0
 420 00c4 4FF00003 		mov	r3, #0
 421              	.L22:
 540:.\Generated_Source\PSoC5/sdlogger_1_fatfs_1_ff.c **** }
 422              		.loc 1 540 0
 423 00c8 1846     		mov	r0, r3
 424 00ca 07F11007 		add	r7, r7, #16
 425 00ce BD46     		mov	sp, r7
ARM GAS  C:\Users\SUZUKI~1\AppData\Local\Temp\ccJaA83q.s 			page 18


 426 00d0 80BD     		pop	{r7, pc}
 427              		.cfi_endproc
 428              	.LFE4:
 429              		.size	move_window, .-move_window
 430 00d2 00BF     		.section	.text.sync,"ax",%progbits
 431              		.align	2
 432              		.thumb
 433              		.thumb_func
 434              		.type	sync, %function
 435              	sync:
 436              	.LFB5:
 541:.\Generated_Source\PSoC5/sdlogger_1_fatfs_1_ff.c **** 
 542:.\Generated_Source\PSoC5/sdlogger_1_fatfs_1_ff.c **** 
 543:.\Generated_Source\PSoC5/sdlogger_1_fatfs_1_ff.c **** 
 544:.\Generated_Source\PSoC5/sdlogger_1_fatfs_1_ff.c **** 
 545:.\Generated_Source\PSoC5/sdlogger_1_fatfs_1_ff.c **** /*-----------------------------------------------------------------------*/
 546:.\Generated_Source\PSoC5/sdlogger_1_fatfs_1_ff.c **** /* Clean-up cached data                                                  */
 547:.\Generated_Source\PSoC5/sdlogger_1_fatfs_1_ff.c **** /*-----------------------------------------------------------------------*/
 548:.\Generated_Source\PSoC5/sdlogger_1_fatfs_1_ff.c **** #if !_FS_READONLY
 549:.\Generated_Source\PSoC5/sdlogger_1_fatfs_1_ff.c **** static
 550:.\Generated_Source\PSoC5/sdlogger_1_fatfs_1_ff.c **** FRESULT sync (	/* FR_OK: successful, FR_DISK_ERR: failed */
 551:.\Generated_Source\PSoC5/sdlogger_1_fatfs_1_ff.c **** 	FATFS *fs	/* File system object */
 552:.\Generated_Source\PSoC5/sdlogger_1_fatfs_1_ff.c **** )
 553:.\Generated_Source\PSoC5/sdlogger_1_fatfs_1_ff.c **** {
 437              		.loc 1 553 0
 438              		.cfi_startproc
 439              		@ args = 0, pretend = 0, frame = 16
 440              		@ frame_needed = 1, uses_anonymous_args = 0
 441 0000 80B5     		push	{r7, lr}
 442              	.LCFI15:
 443              		.cfi_def_cfa_offset 8
 444 0002 84B0     		sub	sp, sp, #16
 445              	.LCFI16:
 446              		.cfi_def_cfa_offset 24
 447 0004 00AF     		add	r7, sp, #0
 448              		.cfi_offset 14, -4
 449              		.cfi_offset 7, -8
 450              	.LCFI17:
 451              		.cfi_def_cfa_register 7
 452 0006 7860     		str	r0, [r7, #4]
 554:.\Generated_Source\PSoC5/sdlogger_1_fatfs_1_ff.c **** 	FRESULT res;
 555:.\Generated_Source\PSoC5/sdlogger_1_fatfs_1_ff.c **** 
 556:.\Generated_Source\PSoC5/sdlogger_1_fatfs_1_ff.c **** 
 557:.\Generated_Source\PSoC5/sdlogger_1_fatfs_1_ff.c **** 	res = move_window(fs, 0);
 453              		.loc 1 557 0
 454 0008 7868     		ldr	r0, [r7, #4]
 455 000a 4FF00001 		mov	r1, #0
 456 000e FFF7FEFF 		bl	move_window
 457 0012 0346     		mov	r3, r0
 458 0014 FB73     		strb	r3, [r7, #15]
 558:.\Generated_Source\PSoC5/sdlogger_1_fatfs_1_ff.c **** 	if (res == FR_OK) {
 459              		.loc 1 558 0
 460 0016 FB7B     		ldrb	r3, [r7, #15]	@ zero_extendqisi2
 461 0018 002B     		cmp	r3, #0
 462 001a 40F0D280 		bne	.L28
 559:.\Generated_Source\PSoC5/sdlogger_1_fatfs_1_ff.c **** 		/* Update FSInfo sector if needed */
 560:.\Generated_Source\PSoC5/sdlogger_1_fatfs_1_ff.c **** 		if (fs->fs_type == FS_FAT32 && fs->fsi_flag) {
ARM GAS  C:\Users\SUZUKI~1\AppData\Local\Temp\ccJaA83q.s 			page 19


 463              		.loc 1 560 0
 464 001e 7B68     		ldr	r3, [r7, #4]
 465 0020 1B78     		ldrb	r3, [r3, #0]	@ zero_extendqisi2
 466 0022 032B     		cmp	r3, #3
 467 0024 40F0BE80 		bne	.L29
 468 0028 7B68     		ldr	r3, [r7, #4]
 469 002a 5B79     		ldrb	r3, [r3, #5]	@ zero_extendqisi2
 470 002c 002B     		cmp	r3, #0
 471 002e 00F0B980 		beq	.L29
 561:.\Generated_Source\PSoC5/sdlogger_1_fatfs_1_ff.c **** 			fs->winsect = 0;
 472              		.loc 1 561 0
 473 0032 7B68     		ldr	r3, [r7, #4]
 474 0034 4FF00002 		mov	r2, #0
 475 0038 1A63     		str	r2, [r3, #48]
 562:.\Generated_Source\PSoC5/sdlogger_1_fatfs_1_ff.c **** 			mem_set(fs->win, 0, 512);
 476              		.loc 1 562 0
 477 003a 7B68     		ldr	r3, [r7, #4]
 478 003c 03F13403 		add	r3, r3, #52
 479 0040 1846     		mov	r0, r3
 480 0042 4FF00001 		mov	r1, #0
 481 0046 4FF40072 		mov	r2, #512
 482 004a FFF7FEFF 		bl	mem_set
 563:.\Generated_Source\PSoC5/sdlogger_1_fatfs_1_ff.c **** 			ST_WORD(fs->win+BS_55AA, 0xAA55);
 483              		.loc 1 563 0
 484 004e 7B68     		ldr	r3, [r7, #4]
 485 0050 03F50C73 		add	r3, r3, #560
 486 0054 03F10203 		add	r3, r3, #2
 487 0058 4FF05502 		mov	r2, #85
 488 005c 1A70     		strb	r2, [r3, #0]
 489 005e 7B68     		ldr	r3, [r7, #4]
 490 0060 03F50C73 		add	r3, r3, #560
 491 0064 03F10303 		add	r3, r3, #3
 492 0068 6FF05502 		mvn	r2, #85
 493 006c 1A70     		strb	r2, [r3, #0]
 564:.\Generated_Source\PSoC5/sdlogger_1_fatfs_1_ff.c **** 			ST_DWORD(fs->win+FSI_LeadSig, 0x41615252);
 494              		.loc 1 564 0
 495 006e 7B68     		ldr	r3, [r7, #4]
 496 0070 4FF05202 		mov	r2, #82
 497 0074 83F83420 		strb	r2, [r3, #52]
 498 0078 7B68     		ldr	r3, [r7, #4]
 499 007a 03F13503 		add	r3, r3, #53
 500 007e 4FF05202 		mov	r2, #82
 501 0082 1A70     		strb	r2, [r3, #0]
 502 0084 7B68     		ldr	r3, [r7, #4]
 503 0086 03F13603 		add	r3, r3, #54
 504 008a 4FF06102 		mov	r2, #97
 505 008e 1A70     		strb	r2, [r3, #0]
 506 0090 7B68     		ldr	r3, [r7, #4]
 507 0092 03F13703 		add	r3, r3, #55
 508 0096 4FF04102 		mov	r2, #65
 509 009a 1A70     		strb	r2, [r3, #0]
 565:.\Generated_Source\PSoC5/sdlogger_1_fatfs_1_ff.c **** 			ST_DWORD(fs->win+FSI_StrucSig, 0x61417272);
 510              		.loc 1 565 0
 511 009c 7B68     		ldr	r3, [r7, #4]
 512 009e 03F50673 		add	r3, r3, #536
 513 00a2 4FF07202 		mov	r2, #114
 514 00a6 1A70     		strb	r2, [r3, #0]
ARM GAS  C:\Users\SUZUKI~1\AppData\Local\Temp\ccJaA83q.s 			page 20


 515 00a8 7B68     		ldr	r3, [r7, #4]
 516 00aa 03F50673 		add	r3, r3, #536
 517 00ae 03F10103 		add	r3, r3, #1
 518 00b2 4FF07202 		mov	r2, #114
 519 00b6 1A70     		strb	r2, [r3, #0]
 520 00b8 7B68     		ldr	r3, [r7, #4]
 521 00ba 03F50673 		add	r3, r3, #536
 522 00be 03F10203 		add	r3, r3, #2
 523 00c2 4FF04102 		mov	r2, #65
 524 00c6 1A70     		strb	r2, [r3, #0]
 525 00c8 7B68     		ldr	r3, [r7, #4]
 526 00ca 03F50673 		add	r3, r3, #536
 527 00ce 03F10303 		add	r3, r3, #3
 528 00d2 4FF06102 		mov	r2, #97
 529 00d6 1A70     		strb	r2, [r3, #0]
 566:.\Generated_Source\PSoC5/sdlogger_1_fatfs_1_ff.c **** 			ST_DWORD(fs->win+FSI_Free_Count, fs->free_clust);
 530              		.loc 1 566 0
 531 00d8 7B68     		ldr	r3, [r7, #4]
 532 00da 03F50773 		add	r3, r3, #540
 533 00de 7A68     		ldr	r2, [r7, #4]
 534 00e0 1269     		ldr	r2, [r2, #16]
 535 00e2 D2B2     		uxtb	r2, r2
 536 00e4 1A70     		strb	r2, [r3, #0]
 537 00e6 7B68     		ldr	r3, [r7, #4]
 538 00e8 03F50673 		add	r3, r3, #536
 539 00ec 03F10503 		add	r3, r3, #5
 540 00f0 7A68     		ldr	r2, [r7, #4]
 541 00f2 1269     		ldr	r2, [r2, #16]
 542 00f4 92B2     		uxth	r2, r2
 543 00f6 4FEA1222 		lsr	r2, r2, #8
 544 00fa 92B2     		uxth	r2, r2
 545 00fc D2B2     		uxtb	r2, r2
 546 00fe 1A70     		strb	r2, [r3, #0]
 547 0100 7B68     		ldr	r3, [r7, #4]
 548 0102 03F50673 		add	r3, r3, #536
 549 0106 03F10603 		add	r3, r3, #6
 550 010a 7A68     		ldr	r2, [r7, #4]
 551 010c 1269     		ldr	r2, [r2, #16]
 552 010e 4FEA1242 		lsr	r2, r2, #16
 553 0112 D2B2     		uxtb	r2, r2
 554 0114 1A70     		strb	r2, [r3, #0]
 555 0116 7B68     		ldr	r3, [r7, #4]
 556 0118 03F50673 		add	r3, r3, #536
 557 011c 03F10703 		add	r3, r3, #7
 558 0120 7A68     		ldr	r2, [r7, #4]
 559 0122 1269     		ldr	r2, [r2, #16]
 560 0124 4FEA1262 		lsr	r2, r2, #24
 561 0128 D2B2     		uxtb	r2, r2
 562 012a 1A70     		strb	r2, [r3, #0]
 567:.\Generated_Source\PSoC5/sdlogger_1_fatfs_1_ff.c **** 			ST_DWORD(fs->win+FSI_Nxt_Free, fs->last_clust);
 563              		.loc 1 567 0
 564 012c 7B68     		ldr	r3, [r7, #4]
 565 012e 03F50873 		add	r3, r3, #544
 566 0132 7A68     		ldr	r2, [r7, #4]
 567 0134 D268     		ldr	r2, [r2, #12]
 568 0136 D2B2     		uxtb	r2, r2
 569 0138 1A70     		strb	r2, [r3, #0]
ARM GAS  C:\Users\SUZUKI~1\AppData\Local\Temp\ccJaA83q.s 			page 21


 570 013a 7B68     		ldr	r3, [r7, #4]
 571 013c 03F50873 		add	r3, r3, #544
 572 0140 03F10103 		add	r3, r3, #1
 573 0144 7A68     		ldr	r2, [r7, #4]
 574 0146 D268     		ldr	r2, [r2, #12]
 575 0148 92B2     		uxth	r2, r2
 576 014a 4FEA1222 		lsr	r2, r2, #8
 577 014e 92B2     		uxth	r2, r2
 578 0150 D2B2     		uxtb	r2, r2
 579 0152 1A70     		strb	r2, [r3, #0]
 580 0154 7B68     		ldr	r3, [r7, #4]
 581 0156 03F50873 		add	r3, r3, #544
 582 015a 03F10203 		add	r3, r3, #2
 583 015e 7A68     		ldr	r2, [r7, #4]
 584 0160 D268     		ldr	r2, [r2, #12]
 585 0162 4FEA1242 		lsr	r2, r2, #16
 586 0166 D2B2     		uxtb	r2, r2
 587 0168 1A70     		strb	r2, [r3, #0]
 588 016a 7B68     		ldr	r3, [r7, #4]
 589 016c 03F50873 		add	r3, r3, #544
 590 0170 03F10303 		add	r3, r3, #3
 591 0174 7A68     		ldr	r2, [r7, #4]
 592 0176 D268     		ldr	r2, [r2, #12]
 593 0178 4FEA1262 		lsr	r2, r2, #24
 594 017c D2B2     		uxtb	r2, r2
 595 017e 1A70     		strb	r2, [r3, #0]
 568:.\Generated_Source\PSoC5/sdlogger_1_fatfs_1_ff.c **** 			disk_write(fs->drv, fs->win, fs->fsi_sector, 1);
 596              		.loc 1 568 0
 597 0180 7B68     		ldr	r3, [r7, #4]
 598 0182 5978     		ldrb	r1, [r3, #1]	@ zero_extendqisi2
 599 0184 7B68     		ldr	r3, [r7, #4]
 600 0186 03F13402 		add	r2, r3, #52
 601 018a 7B68     		ldr	r3, [r7, #4]
 602 018c 5B69     		ldr	r3, [r3, #20]
 603 018e 0846     		mov	r0, r1
 604 0190 1146     		mov	r1, r2
 605 0192 1A46     		mov	r2, r3
 606 0194 4FF00103 		mov	r3, #1
 607 0198 FFF7FEFF 		bl	disk_write
 569:.\Generated_Source\PSoC5/sdlogger_1_fatfs_1_ff.c **** 			fs->fsi_flag = 0;
 608              		.loc 1 569 0
 609 019c 7B68     		ldr	r3, [r7, #4]
 610 019e 4FF00002 		mov	r2, #0
 611 01a2 5A71     		strb	r2, [r3, #5]
 612              	.L29:
 570:.\Generated_Source\PSoC5/sdlogger_1_fatfs_1_ff.c **** 		}
 571:.\Generated_Source\PSoC5/sdlogger_1_fatfs_1_ff.c **** 		/* Make sure that no pending write process in the physical drive */
 572:.\Generated_Source\PSoC5/sdlogger_1_fatfs_1_ff.c **** 		if (disk_ioctl(fs->drv, CTRL_SYNC, (void*)0) != RES_OK)
 613              		.loc 1 572 0
 614 01a4 7B68     		ldr	r3, [r7, #4]
 615 01a6 5B78     		ldrb	r3, [r3, #1]	@ zero_extendqisi2
 616 01a8 1846     		mov	r0, r3
 617 01aa 4FF00001 		mov	r1, #0
 618 01ae 4FF00002 		mov	r2, #0
 619 01b2 FFF7FEFF 		bl	disk_ioctl
 620 01b6 0346     		mov	r3, r0
 621 01b8 002B     		cmp	r3, #0
ARM GAS  C:\Users\SUZUKI~1\AppData\Local\Temp\ccJaA83q.s 			page 22


 622 01ba 02D0     		beq	.L28
 573:.\Generated_Source\PSoC5/sdlogger_1_fatfs_1_ff.c **** 			res = FR_DISK_ERR;
 623              		.loc 1 573 0
 624 01bc 4FF00103 		mov	r3, #1
 625 01c0 FB73     		strb	r3, [r7, #15]
 626              	.L28:
 574:.\Generated_Source\PSoC5/sdlogger_1_fatfs_1_ff.c **** 	}
 575:.\Generated_Source\PSoC5/sdlogger_1_fatfs_1_ff.c **** 
 576:.\Generated_Source\PSoC5/sdlogger_1_fatfs_1_ff.c **** 	return res;
 627              		.loc 1 576 0
 628 01c2 FB7B     		ldrb	r3, [r7, #15]	@ zero_extendqisi2
 577:.\Generated_Source\PSoC5/sdlogger_1_fatfs_1_ff.c **** }
 629              		.loc 1 577 0
 630 01c4 1846     		mov	r0, r3
 631 01c6 07F11007 		add	r7, r7, #16
 632 01ca BD46     		mov	sp, r7
 633 01cc 80BD     		pop	{r7, pc}
 634              		.cfi_endproc
 635              	.LFE5:
 636              		.size	sync, .-sync
 637 01ce 00BF     		.section	.text.clust2sect,"ax",%progbits
 638              		.align	2
 639              		.global	clust2sect
 640              		.thumb
 641              		.thumb_func
 642              		.type	clust2sect, %function
 643              	clust2sect:
 644              	.LFB6:
 578:.\Generated_Source\PSoC5/sdlogger_1_fatfs_1_ff.c **** #endif
 579:.\Generated_Source\PSoC5/sdlogger_1_fatfs_1_ff.c **** 
 580:.\Generated_Source\PSoC5/sdlogger_1_fatfs_1_ff.c **** 
 581:.\Generated_Source\PSoC5/sdlogger_1_fatfs_1_ff.c **** 
 582:.\Generated_Source\PSoC5/sdlogger_1_fatfs_1_ff.c **** 
 583:.\Generated_Source\PSoC5/sdlogger_1_fatfs_1_ff.c **** /*-----------------------------------------------------------------------*/
 584:.\Generated_Source\PSoC5/sdlogger_1_fatfs_1_ff.c **** /* Get sector# from cluster#                                             */
 585:.\Generated_Source\PSoC5/sdlogger_1_fatfs_1_ff.c **** /*-----------------------------------------------------------------------*/
 586:.\Generated_Source\PSoC5/sdlogger_1_fatfs_1_ff.c **** 
 587:.\Generated_Source\PSoC5/sdlogger_1_fatfs_1_ff.c **** 
 588:.\Generated_Source\PSoC5/sdlogger_1_fatfs_1_ff.c **** DWORD clust2sect (	/* !=0: Sector number, 0: Failed - invalid cluster# */
 589:.\Generated_Source\PSoC5/sdlogger_1_fatfs_1_ff.c **** 	FATFS *fs,		/* File system object */
 590:.\Generated_Source\PSoC5/sdlogger_1_fatfs_1_ff.c **** 	DWORD clst		/* Cluster# to be converted */
 591:.\Generated_Source\PSoC5/sdlogger_1_fatfs_1_ff.c **** )
 592:.\Generated_Source\PSoC5/sdlogger_1_fatfs_1_ff.c **** {
 645              		.loc 1 592 0
 646              		.cfi_startproc
 647              		@ args = 0, pretend = 0, frame = 8
 648              		@ frame_needed = 1, uses_anonymous_args = 0
 649              		@ link register save eliminated.
 650 0000 80B4     		push	{r7}
 651              	.LCFI18:
 652              		.cfi_def_cfa_offset 4
 653 0002 83B0     		sub	sp, sp, #12
 654              	.LCFI19:
 655              		.cfi_def_cfa_offset 16
 656 0004 00AF     		add	r7, sp, #0
 657              		.cfi_offset 7, -4
 658              	.LCFI20:
ARM GAS  C:\Users\SUZUKI~1\AppData\Local\Temp\ccJaA83q.s 			page 23


 659              		.cfi_def_cfa_register 7
 660 0006 7860     		str	r0, [r7, #4]
 661 0008 3960     		str	r1, [r7, #0]
 593:.\Generated_Source\PSoC5/sdlogger_1_fatfs_1_ff.c **** 	clst -= 2;
 662              		.loc 1 593 0
 663 000a 3B68     		ldr	r3, [r7, #0]
 664 000c A3F10203 		sub	r3, r3, #2
 665 0010 3B60     		str	r3, [r7, #0]
 594:.\Generated_Source\PSoC5/sdlogger_1_fatfs_1_ff.c **** 	if (clst >= (fs->n_fatent - 2)) return 0;		/* Invalid cluster# */
 666              		.loc 1 594 0
 667 0012 7B68     		ldr	r3, [r7, #4]
 668 0014 DB69     		ldr	r3, [r3, #28]
 669 0016 A3F10202 		sub	r2, r3, #2
 670 001a 3B68     		ldr	r3, [r7, #0]
 671 001c 9A42     		cmp	r2, r3
 672 001e 02D8     		bhi	.L32
 673 0020 4FF00003 		mov	r3, #0
 674 0024 07E0     		b	.L33
 675              	.L32:
 595:.\Generated_Source\PSoC5/sdlogger_1_fatfs_1_ff.c **** 	return clst * fs->csize + fs->database;
 676              		.loc 1 595 0
 677 0026 7B68     		ldr	r3, [r7, #4]
 678 0028 9B78     		ldrb	r3, [r3, #2]	@ zero_extendqisi2
 679 002a 3A68     		ldr	r2, [r7, #0]
 680 002c 02FB03F2 		mul	r2, r2, r3
 681 0030 7B68     		ldr	r3, [r7, #4]
 682 0032 DB6A     		ldr	r3, [r3, #44]
 683 0034 1344     		add	r3, r2, r3
 684              	.L33:
 596:.\Generated_Source\PSoC5/sdlogger_1_fatfs_1_ff.c **** }
 685              		.loc 1 596 0
 686 0036 1846     		mov	r0, r3
 687 0038 07F10C07 		add	r7, r7, #12
 688 003c BD46     		mov	sp, r7
 689 003e 80BC     		pop	{r7}
 690 0040 7047     		bx	lr
 691              		.cfi_endproc
 692              	.LFE6:
 693              		.size	clust2sect, .-clust2sect
 694 0042 00BF     		.section	.text.get_fat,"ax",%progbits
 695              		.align	2
 696              		.global	get_fat
 697              		.thumb
 698              		.thumb_func
 699              		.type	get_fat, %function
 700              	get_fat:
 701              	.LFB7:
 597:.\Generated_Source\PSoC5/sdlogger_1_fatfs_1_ff.c **** 
 598:.\Generated_Source\PSoC5/sdlogger_1_fatfs_1_ff.c **** 
 599:.\Generated_Source\PSoC5/sdlogger_1_fatfs_1_ff.c **** 
 600:.\Generated_Source\PSoC5/sdlogger_1_fatfs_1_ff.c **** 
 601:.\Generated_Source\PSoC5/sdlogger_1_fatfs_1_ff.c **** /*-----------------------------------------------------------------------*/
 602:.\Generated_Source\PSoC5/sdlogger_1_fatfs_1_ff.c **** /* FAT access - Read value of a FAT entry                                */
 603:.\Generated_Source\PSoC5/sdlogger_1_fatfs_1_ff.c **** /*-----------------------------------------------------------------------*/
 604:.\Generated_Source\PSoC5/sdlogger_1_fatfs_1_ff.c **** 
 605:.\Generated_Source\PSoC5/sdlogger_1_fatfs_1_ff.c **** 
 606:.\Generated_Source\PSoC5/sdlogger_1_fatfs_1_ff.c **** DWORD get_fat (	/* 0xFFFFFFFF:Disk error, 1:Internal error, Else:Cluster status */
ARM GAS  C:\Users\SUZUKI~1\AppData\Local\Temp\ccJaA83q.s 			page 24


 607:.\Generated_Source\PSoC5/sdlogger_1_fatfs_1_ff.c **** 	FATFS *fs,	/* File system object */
 608:.\Generated_Source\PSoC5/sdlogger_1_fatfs_1_ff.c **** 	DWORD clst	/* Cluster# to get the link information */
 609:.\Generated_Source\PSoC5/sdlogger_1_fatfs_1_ff.c **** )
 610:.\Generated_Source\PSoC5/sdlogger_1_fatfs_1_ff.c **** {
 702              		.loc 1 610 0
 703              		.cfi_startproc
 704              		@ args = 0, pretend = 0, frame = 24
 705              		@ frame_needed = 1, uses_anonymous_args = 0
 706 0000 80B5     		push	{r7, lr}
 707              	.LCFI21:
 708              		.cfi_def_cfa_offset 8
 709 0002 86B0     		sub	sp, sp, #24
 710              	.LCFI22:
 711              		.cfi_def_cfa_offset 32
 712 0004 00AF     		add	r7, sp, #0
 713              		.cfi_offset 14, -4
 714              		.cfi_offset 7, -8
 715              	.LCFI23:
 716              		.cfi_def_cfa_register 7
 717 0006 7860     		str	r0, [r7, #4]
 718 0008 3960     		str	r1, [r7, #0]
 611:.\Generated_Source\PSoC5/sdlogger_1_fatfs_1_ff.c **** 	UINT wc, bc;
 612:.\Generated_Source\PSoC5/sdlogger_1_fatfs_1_ff.c **** 	BYTE *p;
 613:.\Generated_Source\PSoC5/sdlogger_1_fatfs_1_ff.c **** 
 614:.\Generated_Source\PSoC5/sdlogger_1_fatfs_1_ff.c **** 
 615:.\Generated_Source\PSoC5/sdlogger_1_fatfs_1_ff.c **** 	if (clst < 2 || clst >= fs->n_fatent)	/* Chack range */
 719              		.loc 1 615 0
 720 000a 3B68     		ldr	r3, [r7, #0]
 721 000c 012B     		cmp	r3, #1
 722 000e 04D9     		bls	.L36
 723 0010 7B68     		ldr	r3, [r7, #4]
 724 0012 DA69     		ldr	r2, [r3, #28]
 725 0014 3B68     		ldr	r3, [r7, #0]
 726 0016 9A42     		cmp	r2, r3
 727 0018 02D8     		bhi	.L37
 728              	.L36:
 616:.\Generated_Source\PSoC5/sdlogger_1_fatfs_1_ff.c **** 		return 1;
 729              		.loc 1 616 0
 730 001a 4FF00103 		mov	r3, #1
 731 001e BEE0     		b	.L38
 732              	.L37:
 617:.\Generated_Source\PSoC5/sdlogger_1_fatfs_1_ff.c **** 
 618:.\Generated_Source\PSoC5/sdlogger_1_fatfs_1_ff.c **** 	switch (fs->fs_type) {
 733              		.loc 1 618 0
 734 0020 7B68     		ldr	r3, [r7, #4]
 735 0022 1B78     		ldrb	r3, [r3, #0]	@ zero_extendqisi2
 736 0024 022B     		cmp	r3, #2
 737 0026 54D0     		beq	.L41
 738 0028 032B     		cmp	r3, #3
 739 002a 79D0     		beq	.L42
 740 002c 012B     		cmp	r3, #1
 741 002e 40F0B480 		bne	.L39
 742              	.L40:
 619:.\Generated_Source\PSoC5/sdlogger_1_fatfs_1_ff.c **** 	case FS_FAT12 :
 620:.\Generated_Source\PSoC5/sdlogger_1_fatfs_1_ff.c **** 		bc = (UINT)clst; bc += bc / 2;
 743              		.loc 1 620 0
 744 0032 3B68     		ldr	r3, [r7, #0]
ARM GAS  C:\Users\SUZUKI~1\AppData\Local\Temp\ccJaA83q.s 			page 25


 745 0034 3B61     		str	r3, [r7, #16]
 746 0036 3B69     		ldr	r3, [r7, #16]
 747 0038 4FEA5303 		lsr	r3, r3, #1
 748 003c 3A69     		ldr	r2, [r7, #16]
 749 003e 1344     		add	r3, r2, r3
 750 0040 3B61     		str	r3, [r7, #16]
 621:.\Generated_Source\PSoC5/sdlogger_1_fatfs_1_ff.c **** 		if (move_window(fs, fs->fatbase + (bc / SS(fs)))) break;
 751              		.loc 1 621 0
 752 0042 7B68     		ldr	r3, [r7, #4]
 753 0044 5A6A     		ldr	r2, [r3, #36]
 754 0046 3B69     		ldr	r3, [r7, #16]
 755 0048 4FEA5323 		lsr	r3, r3, #9
 756 004c 1344     		add	r3, r2, r3
 757 004e 7868     		ldr	r0, [r7, #4]
 758 0050 1946     		mov	r1, r3
 759 0052 FFF7FEFF 		bl	move_window
 760 0056 0346     		mov	r3, r0
 761 0058 002B     		cmp	r3, #0
 762 005a 40F09780 		bne	.L50
 763              	.L43:
 622:.\Generated_Source\PSoC5/sdlogger_1_fatfs_1_ff.c **** 		wc = fs->win[bc % SS(fs)]; bc++;
 764              		.loc 1 622 0
 765 005e 3B69     		ldr	r3, [r7, #16]
 766 0060 4FEAC353 		lsl	r3, r3, #23
 767 0064 4FEAD353 		lsr	r3, r3, #23
 768 0068 7A68     		ldr	r2, [r7, #4]
 769 006a 1344     		add	r3, r3, r2
 770 006c 93F83430 		ldrb	r3, [r3, #52]	@ zero_extendqisi2
 771 0070 FB60     		str	r3, [r7, #12]
 772 0072 3B69     		ldr	r3, [r7, #16]
 773 0074 03F10103 		add	r3, r3, #1
 774 0078 3B61     		str	r3, [r7, #16]
 623:.\Generated_Source\PSoC5/sdlogger_1_fatfs_1_ff.c **** 		if (move_window(fs, fs->fatbase + (bc / SS(fs)))) break;
 775              		.loc 1 623 0
 776 007a 7B68     		ldr	r3, [r7, #4]
 777 007c 5A6A     		ldr	r2, [r3, #36]
 778 007e 3B69     		ldr	r3, [r7, #16]
 779 0080 4FEA5323 		lsr	r3, r3, #9
 780 0084 1344     		add	r3, r2, r3
 781 0086 7868     		ldr	r0, [r7, #4]
 782 0088 1946     		mov	r1, r3
 783 008a FFF7FEFF 		bl	move_window
 784 008e 0346     		mov	r3, r0
 785 0090 002B     		cmp	r3, #0
 786 0092 7DD1     		bne	.L51
 787              	.L44:
 624:.\Generated_Source\PSoC5/sdlogger_1_fatfs_1_ff.c **** 		wc |= fs->win[bc % SS(fs)] << 8;
 788              		.loc 1 624 0
 789 0094 3B69     		ldr	r3, [r7, #16]
 790 0096 4FEAC353 		lsl	r3, r3, #23
 791 009a 4FEAD353 		lsr	r3, r3, #23
 792 009e 7A68     		ldr	r2, [r7, #4]
 793 00a0 1344     		add	r3, r3, r2
 794 00a2 93F83430 		ldrb	r3, [r3, #52]	@ zero_extendqisi2
 795 00a6 4FEA0323 		lsl	r3, r3, #8
 796 00aa FA68     		ldr	r2, [r7, #12]
 797 00ac 42EA0303 		orr	r3, r2, r3
ARM GAS  C:\Users\SUZUKI~1\AppData\Local\Temp\ccJaA83q.s 			page 26


 798 00b0 FB60     		str	r3, [r7, #12]
 625:.\Generated_Source\PSoC5/sdlogger_1_fatfs_1_ff.c **** 		return (clst & 1) ? (wc >> 4) : (wc & 0xFFF);
 799              		.loc 1 625 0
 800 00b2 3B68     		ldr	r3, [r7, #0]
 801 00b4 03F00103 		and	r3, r3, #1
 802 00b8 DBB2     		uxtb	r3, r3
 803 00ba 002B     		cmp	r3, #0
 804 00bc 03D0     		beq	.L45
 805 00be FB68     		ldr	r3, [r7, #12]
 806 00c0 4FEA1313 		lsr	r3, r3, #4
 807 00c4 04E0     		b	.L46
 808              	.L45:
 809 00c6 FB68     		ldr	r3, [r7, #12]
 810 00c8 4FEA0353 		lsl	r3, r3, #20
 811 00cc 4FEA1353 		lsr	r3, r3, #20
 812              	.L46:
 813 00d0 65E0     		b	.L38
 814              	.L41:
 626:.\Generated_Source\PSoC5/sdlogger_1_fatfs_1_ff.c **** 
 627:.\Generated_Source\PSoC5/sdlogger_1_fatfs_1_ff.c **** 	case FS_FAT16 :
 628:.\Generated_Source\PSoC5/sdlogger_1_fatfs_1_ff.c **** 		if (move_window(fs, fs->fatbase + (clst / (SS(fs) / 2)))) break;
 815              		.loc 1 628 0
 816 00d2 7B68     		ldr	r3, [r7, #4]
 817 00d4 5A6A     		ldr	r2, [r3, #36]
 818 00d6 3B68     		ldr	r3, [r7, #0]
 819 00d8 4FEA1323 		lsr	r3, r3, #8
 820 00dc 1344     		add	r3, r2, r3
 821 00de 7868     		ldr	r0, [r7, #4]
 822 00e0 1946     		mov	r1, r3
 823 00e2 FFF7FEFF 		bl	move_window
 824 00e6 0346     		mov	r3, r0
 825 00e8 002B     		cmp	r3, #0
 826 00ea 53D1     		bne	.L52
 827              	.L47:
 629:.\Generated_Source\PSoC5/sdlogger_1_fatfs_1_ff.c **** 		p = &fs->win[clst * 2 % SS(fs)];
 828              		.loc 1 629 0
 829 00ec 7B68     		ldr	r3, [r7, #4]
 830 00ee 03F13402 		add	r2, r3, #52
 831 00f2 3B68     		ldr	r3, [r7, #0]
 832 00f4 4FEA4303 		lsl	r3, r3, #1
 833 00f8 4FEAC353 		lsl	r3, r3, #23
 834 00fc 4FEAD353 		lsr	r3, r3, #23
 835 0100 1344     		add	r3, r2, r3
 836 0102 7B61     		str	r3, [r7, #20]
 630:.\Generated_Source\PSoC5/sdlogger_1_fatfs_1_ff.c **** 		return LD_WORD(p);
 837              		.loc 1 630 0
 838 0104 7B69     		ldr	r3, [r7, #20]
 839 0106 03F10103 		add	r3, r3, #1
 840 010a 1B78     		ldrb	r3, [r3, #0]	@ zero_extendqisi2
 841 010c 4FEA0323 		lsl	r3, r3, #8
 842 0110 9AB2     		uxth	r2, r3
 843 0112 7B69     		ldr	r3, [r7, #20]
 844 0114 1B78     		ldrb	r3, [r3, #0]	@ zero_extendqisi2
 845 0116 42EA0303 		orr	r3, r2, r3
 846 011a 9BB2     		uxth	r3, r3
 847 011c 9BB2     		uxth	r3, r3
 848 011e 3EE0     		b	.L38
ARM GAS  C:\Users\SUZUKI~1\AppData\Local\Temp\ccJaA83q.s 			page 27


 849              	.L42:
 631:.\Generated_Source\PSoC5/sdlogger_1_fatfs_1_ff.c **** 
 632:.\Generated_Source\PSoC5/sdlogger_1_fatfs_1_ff.c **** 	case FS_FAT32 :
 633:.\Generated_Source\PSoC5/sdlogger_1_fatfs_1_ff.c **** 		if (move_window(fs, fs->fatbase + (clst / (SS(fs) / 4)))) break;
 850              		.loc 1 633 0
 851 0120 7B68     		ldr	r3, [r7, #4]
 852 0122 5A6A     		ldr	r2, [r3, #36]
 853 0124 3B68     		ldr	r3, [r7, #0]
 854 0126 4FEAD313 		lsr	r3, r3, #7
 855 012a 1344     		add	r3, r2, r3
 856 012c 7868     		ldr	r0, [r7, #4]
 857 012e 1946     		mov	r1, r3
 858 0130 FFF7FEFF 		bl	move_window
 859 0134 0346     		mov	r3, r0
 860 0136 002B     		cmp	r3, #0
 861 0138 2ED1     		bne	.L53
 862              	.L48:
 634:.\Generated_Source\PSoC5/sdlogger_1_fatfs_1_ff.c **** 		p = &fs->win[clst * 4 % SS(fs)];
 863              		.loc 1 634 0
 864 013a 7B68     		ldr	r3, [r7, #4]
 865 013c 03F13402 		add	r2, r3, #52
 866 0140 3B68     		ldr	r3, [r7, #0]
 867 0142 4FEA8303 		lsl	r3, r3, #2
 868 0146 4FEAC353 		lsl	r3, r3, #23
 869 014a 4FEAD353 		lsr	r3, r3, #23
 870 014e 1344     		add	r3, r2, r3
 871 0150 7B61     		str	r3, [r7, #20]
 635:.\Generated_Source\PSoC5/sdlogger_1_fatfs_1_ff.c **** 		return LD_DWORD(p) & 0x0FFFFFFF;
 872              		.loc 1 635 0
 873 0152 7B69     		ldr	r3, [r7, #20]
 874 0154 03F10303 		add	r3, r3, #3
 875 0158 1B78     		ldrb	r3, [r3, #0]	@ zero_extendqisi2
 876 015a 4FEA0362 		lsl	r2, r3, #24
 877 015e 7B69     		ldr	r3, [r7, #20]
 878 0160 03F10203 		add	r3, r3, #2
 879 0164 1B78     		ldrb	r3, [r3, #0]	@ zero_extendqisi2
 880 0166 4FEA0343 		lsl	r3, r3, #16
 881 016a 42EA0302 		orr	r2, r2, r3
 882 016e 7B69     		ldr	r3, [r7, #20]
 883 0170 03F10103 		add	r3, r3, #1
 884 0174 1B78     		ldrb	r3, [r3, #0]	@ zero_extendqisi2
 885 0176 4FEA0323 		lsl	r3, r3, #8
 886 017a 42EA0302 		orr	r2, r2, r3
 887 017e 7B69     		ldr	r3, [r7, #20]
 888 0180 1B78     		ldrb	r3, [r3, #0]	@ zero_extendqisi2
 889 0182 42EA0303 		orr	r3, r2, r3
 890 0186 23F07043 		bic	r3, r3, #-268435456
 891 018a 08E0     		b	.L38
 892              	.L50:
 893              		.loc 1 621 0
 894 018c 00BF     		nop
 895 018e 04E0     		b	.L39
 896              	.L51:
 897              		.loc 1 623 0
 898 0190 00BF     		nop
 899 0192 02E0     		b	.L39
 900              	.L52:
ARM GAS  C:\Users\SUZUKI~1\AppData\Local\Temp\ccJaA83q.s 			page 28


 901              		.loc 1 628 0
 902 0194 00BF     		nop
 903 0196 00E0     		b	.L39
 904              	.L53:
 905              		.loc 1 633 0
 906 0198 00BF     		nop
 907              	.L39:
 636:.\Generated_Source\PSoC5/sdlogger_1_fatfs_1_ff.c **** 	}
 637:.\Generated_Source\PSoC5/sdlogger_1_fatfs_1_ff.c **** 
 638:.\Generated_Source\PSoC5/sdlogger_1_fatfs_1_ff.c **** 	return 0xFFFFFFFF;	/* An error occurred at the disk I/O layer */
 908              		.loc 1 638 0
 909 019a 4FF0FF33 		mov	r3, #-1
 910              	.L38:
 639:.\Generated_Source\PSoC5/sdlogger_1_fatfs_1_ff.c **** }
 911              		.loc 1 639 0
 912 019e 1846     		mov	r0, r3
 913 01a0 07F11807 		add	r7, r7, #24
 914 01a4 BD46     		mov	sp, r7
 915 01a6 80BD     		pop	{r7, pc}
 916              		.cfi_endproc
 917              	.LFE7:
 918              		.size	get_fat, .-get_fat
 919              		.section	.text.put_fat,"ax",%progbits
 920              		.align	2
 921              		.global	put_fat
 922              		.thumb
 923              		.thumb_func
 924              		.type	put_fat, %function
 925              	put_fat:
 926              	.LFB8:
 640:.\Generated_Source\PSoC5/sdlogger_1_fatfs_1_ff.c **** 
 641:.\Generated_Source\PSoC5/sdlogger_1_fatfs_1_ff.c **** 
 642:.\Generated_Source\PSoC5/sdlogger_1_fatfs_1_ff.c **** 
 643:.\Generated_Source\PSoC5/sdlogger_1_fatfs_1_ff.c **** 
 644:.\Generated_Source\PSoC5/sdlogger_1_fatfs_1_ff.c **** /*-----------------------------------------------------------------------*/
 645:.\Generated_Source\PSoC5/sdlogger_1_fatfs_1_ff.c **** /* FAT access - Change value of a FAT entry                              */
 646:.\Generated_Source\PSoC5/sdlogger_1_fatfs_1_ff.c **** /*-----------------------------------------------------------------------*/
 647:.\Generated_Source\PSoC5/sdlogger_1_fatfs_1_ff.c **** #if !_FS_READONLY
 648:.\Generated_Source\PSoC5/sdlogger_1_fatfs_1_ff.c **** 
 649:.\Generated_Source\PSoC5/sdlogger_1_fatfs_1_ff.c **** FRESULT put_fat (
 650:.\Generated_Source\PSoC5/sdlogger_1_fatfs_1_ff.c **** 	FATFS *fs,	/* File system object */
 651:.\Generated_Source\PSoC5/sdlogger_1_fatfs_1_ff.c **** 	DWORD clst,	/* Cluster# to be changed in range of 2 to fs->n_fatent - 1 */
 652:.\Generated_Source\PSoC5/sdlogger_1_fatfs_1_ff.c **** 	DWORD val	/* New value to mark the cluster */
 653:.\Generated_Source\PSoC5/sdlogger_1_fatfs_1_ff.c **** )
 654:.\Generated_Source\PSoC5/sdlogger_1_fatfs_1_ff.c **** {
 927              		.loc 1 654 0
 928              		.cfi_startproc
 929              		@ args = 0, pretend = 0, frame = 32
 930              		@ frame_needed = 1, uses_anonymous_args = 0
 931 0000 80B5     		push	{r7, lr}
 932              	.LCFI24:
 933              		.cfi_def_cfa_offset 8
 934 0002 88B0     		sub	sp, sp, #32
 935              	.LCFI25:
 936              		.cfi_def_cfa_offset 40
 937 0004 00AF     		add	r7, sp, #0
 938              		.cfi_offset 14, -4
ARM GAS  C:\Users\SUZUKI~1\AppData\Local\Temp\ccJaA83q.s 			page 29


 939              		.cfi_offset 7, -8
 940              	.LCFI26:
 941              		.cfi_def_cfa_register 7
 942 0006 F860     		str	r0, [r7, #12]
 943 0008 B960     		str	r1, [r7, #8]
 944 000a 7A60     		str	r2, [r7, #4]
 655:.\Generated_Source\PSoC5/sdlogger_1_fatfs_1_ff.c **** 	UINT bc;
 656:.\Generated_Source\PSoC5/sdlogger_1_fatfs_1_ff.c **** 	BYTE *p;
 657:.\Generated_Source\PSoC5/sdlogger_1_fatfs_1_ff.c **** 	FRESULT res;
 658:.\Generated_Source\PSoC5/sdlogger_1_fatfs_1_ff.c **** 
 659:.\Generated_Source\PSoC5/sdlogger_1_fatfs_1_ff.c **** 
 660:.\Generated_Source\PSoC5/sdlogger_1_fatfs_1_ff.c **** 	if (clst < 2 || clst >= fs->n_fatent) {	/* Check range */
 945              		.loc 1 660 0
 946 000c BB68     		ldr	r3, [r7, #8]
 947 000e 012B     		cmp	r3, #1
 948 0010 04D9     		bls	.L55
 949 0012 FB68     		ldr	r3, [r7, #12]
 950 0014 DA69     		ldr	r2, [r3, #28]
 951 0016 BB68     		ldr	r3, [r7, #8]
 952 0018 9A42     		cmp	r2, r3
 953 001a 03D8     		bhi	.L56
 954              	.L55:
 661:.\Generated_Source\PSoC5/sdlogger_1_fatfs_1_ff.c **** 		res = FR_INT_ERR;
 955              		.loc 1 661 0
 956 001c 4FF00203 		mov	r3, #2
 957 0020 FB77     		strb	r3, [r7, #31]
 958              		.loc 1 660 0
 959 0022 1AE1     		b	.L57
 960              	.L56:
 662:.\Generated_Source\PSoC5/sdlogger_1_fatfs_1_ff.c **** 
 663:.\Generated_Source\PSoC5/sdlogger_1_fatfs_1_ff.c **** 	} else {
 664:.\Generated_Source\PSoC5/sdlogger_1_fatfs_1_ff.c **** 		switch (fs->fs_type) {
 961              		.loc 1 664 0
 962 0024 FB68     		ldr	r3, [r7, #12]
 963 0026 1B78     		ldrb	r3, [r3, #0]	@ zero_extendqisi2
 964 0028 022B     		cmp	r3, #2
 965 002a 00F08380 		beq	.L60
 966 002e 032B     		cmp	r3, #3
 967 0030 00F0AA80 		beq	.L61
 968 0034 012B     		cmp	r3, #1
 969 0036 40F00181 		bne	.L72
 970              	.L59:
 665:.\Generated_Source\PSoC5/sdlogger_1_fatfs_1_ff.c **** 		case FS_FAT12 :
 666:.\Generated_Source\PSoC5/sdlogger_1_fatfs_1_ff.c **** 			bc = clst; bc += bc / 2;
 971              		.loc 1 666 0
 972 003a BB68     		ldr	r3, [r7, #8]
 973 003c 7B61     		str	r3, [r7, #20]
 974 003e 7B69     		ldr	r3, [r7, #20]
 975 0040 4FEA5303 		lsr	r3, r3, #1
 976 0044 7A69     		ldr	r2, [r7, #20]
 977 0046 1344     		add	r3, r2, r3
 978 0048 7B61     		str	r3, [r7, #20]
 667:.\Generated_Source\PSoC5/sdlogger_1_fatfs_1_ff.c **** 			res = move_window(fs, fs->fatbase + (bc / SS(fs)));
 979              		.loc 1 667 0
 980 004a FB68     		ldr	r3, [r7, #12]
 981 004c 5A6A     		ldr	r2, [r3, #36]
 982 004e 7B69     		ldr	r3, [r7, #20]
ARM GAS  C:\Users\SUZUKI~1\AppData\Local\Temp\ccJaA83q.s 			page 30


 983 0050 4FEA5323 		lsr	r3, r3, #9
 984 0054 1344     		add	r3, r2, r3
 985 0056 F868     		ldr	r0, [r7, #12]
 986 0058 1946     		mov	r1, r3
 987 005a FFF7FEFF 		bl	move_window
 988 005e 0346     		mov	r3, r0
 989 0060 FB77     		strb	r3, [r7, #31]
 668:.\Generated_Source\PSoC5/sdlogger_1_fatfs_1_ff.c **** 			if (res != FR_OK) break;
 990              		.loc 1 668 0
 991 0062 FB7F     		ldrb	r3, [r7, #31]	@ zero_extendqisi2
 992 0064 002B     		cmp	r3, #0
 993 0066 40F0ED80 		bne	.L73
 994              	.L62:
 669:.\Generated_Source\PSoC5/sdlogger_1_fatfs_1_ff.c **** 			p = &fs->win[bc % SS(fs)];
 995              		.loc 1 669 0
 996 006a FB68     		ldr	r3, [r7, #12]
 997 006c 03F13402 		add	r2, r3, #52
 998 0070 7B69     		ldr	r3, [r7, #20]
 999 0072 4FEAC353 		lsl	r3, r3, #23
 1000 0076 4FEAD353 		lsr	r3, r3, #23
 1001 007a 1344     		add	r3, r2, r3
 1002 007c BB61     		str	r3, [r7, #24]
 670:.\Generated_Source\PSoC5/sdlogger_1_fatfs_1_ff.c **** 			*p = (clst & 1) ? ((*p & 0x0F) | ((BYTE)val << 4)) : (BYTE)val;
 1003              		.loc 1 670 0
 1004 007e BB68     		ldr	r3, [r7, #8]
 1005 0080 03F00103 		and	r3, r3, #1
 1006 0084 DBB2     		uxtb	r3, r3
 1007 0086 002B     		cmp	r3, #0
 1008 0088 10D0     		beq	.L64
 1009 008a BB69     		ldr	r3, [r7, #24]
 1010 008c 1B78     		ldrb	r3, [r3, #0]	@ zero_extendqisi2
 1011 008e DBB2     		uxtb	r3, r3
 1012 0090 03F00F03 		and	r3, r3, #15
 1013 0094 7A68     		ldr	r2, [r7, #4]
 1014 0096 D2B2     		uxtb	r2, r2
 1015 0098 4FEA0212 		lsl	r2, r2, #4
 1016 009c D1B2     		uxtb	r1, r2
 1017 009e 1A46     		mov	r2, r3
 1018 00a0 0B46     		mov	r3, r1
 1019 00a2 42EA0303 		orr	r3, r2, r3
 1020 00a6 DBB2     		uxtb	r3, r3
 1021 00a8 DBB2     		uxtb	r3, r3
 1022 00aa 01E0     		b	.L65
 1023              	.L64:
 1024 00ac 7B68     		ldr	r3, [r7, #4]
 1025 00ae DBB2     		uxtb	r3, r3
 1026              	.L65:
 1027 00b0 BA69     		ldr	r2, [r7, #24]
 1028 00b2 1370     		strb	r3, [r2, #0]
 671:.\Generated_Source\PSoC5/sdlogger_1_fatfs_1_ff.c **** 			bc++;
 1029              		.loc 1 671 0
 1030 00b4 7B69     		ldr	r3, [r7, #20]
 1031 00b6 03F10103 		add	r3, r3, #1
 1032 00ba 7B61     		str	r3, [r7, #20]
 672:.\Generated_Source\PSoC5/sdlogger_1_fatfs_1_ff.c **** 			fs->wflag = 1;
 1033              		.loc 1 672 0
 1034 00bc FB68     		ldr	r3, [r7, #12]
ARM GAS  C:\Users\SUZUKI~1\AppData\Local\Temp\ccJaA83q.s 			page 31


 1035 00be 4FF00102 		mov	r2, #1
 1036 00c2 1A71     		strb	r2, [r3, #4]
 673:.\Generated_Source\PSoC5/sdlogger_1_fatfs_1_ff.c **** 			res = move_window(fs, fs->fatbase + (bc / SS(fs)));
 1037              		.loc 1 673 0
 1038 00c4 FB68     		ldr	r3, [r7, #12]
 1039 00c6 5A6A     		ldr	r2, [r3, #36]
 1040 00c8 7B69     		ldr	r3, [r7, #20]
 1041 00ca 4FEA5323 		lsr	r3, r3, #9
 1042 00ce 1344     		add	r3, r2, r3
 1043 00d0 F868     		ldr	r0, [r7, #12]
 1044 00d2 1946     		mov	r1, r3
 1045 00d4 FFF7FEFF 		bl	move_window
 1046 00d8 0346     		mov	r3, r0
 1047 00da FB77     		strb	r3, [r7, #31]
 674:.\Generated_Source\PSoC5/sdlogger_1_fatfs_1_ff.c **** 			if (res != FR_OK) break;
 1048              		.loc 1 674 0
 1049 00dc FB7F     		ldrb	r3, [r7, #31]	@ zero_extendqisi2
 1050 00de 002B     		cmp	r3, #0
 1051 00e0 40F0B280 		bne	.L74
 1052              	.L66:
 675:.\Generated_Source\PSoC5/sdlogger_1_fatfs_1_ff.c **** 			p = &fs->win[bc % SS(fs)];
 1053              		.loc 1 675 0
 1054 00e4 FB68     		ldr	r3, [r7, #12]
 1055 00e6 03F13402 		add	r2, r3, #52
 1056 00ea 7B69     		ldr	r3, [r7, #20]
 1057 00ec 4FEAC353 		lsl	r3, r3, #23
 1058 00f0 4FEAD353 		lsr	r3, r3, #23
 1059 00f4 1344     		add	r3, r2, r3
 1060 00f6 BB61     		str	r3, [r7, #24]
 676:.\Generated_Source\PSoC5/sdlogger_1_fatfs_1_ff.c **** 			*p = (clst & 1) ? (BYTE)(val >> 4) : ((*p & 0xF0) | ((BYTE)(val >> 8) & 0x0F));
 1061              		.loc 1 676 0
 1062 00f8 BB68     		ldr	r3, [r7, #8]
 1063 00fa 03F00103 		and	r3, r3, #1
 1064 00fe DBB2     		uxtb	r3, r3
 1065 0100 002B     		cmp	r3, #0
 1066 0102 04D0     		beq	.L67
 1067 0104 7B68     		ldr	r3, [r7, #4]
 1068 0106 4FEA1313 		lsr	r3, r3, #4
 1069 010a DBB2     		uxtb	r3, r3
 1070 010c 0FE0     		b	.L68
 1071              	.L67:
 1072 010e BB69     		ldr	r3, [r7, #24]
 1073 0110 1B78     		ldrb	r3, [r3, #0]	@ zero_extendqisi2
 1074 0112 DAB2     		uxtb	r2, r3
 1075 0114 02F0F002 		and	r2, r2, #240
 1076 0118 7B68     		ldr	r3, [r7, #4]
 1077 011a 4FEA1323 		lsr	r3, r3, #8
 1078 011e DBB2     		uxtb	r3, r3
 1079 0120 DBB2     		uxtb	r3, r3
 1080 0122 03F00F03 		and	r3, r3, #15
 1081 0126 42EA0303 		orr	r3, r2, r3
 1082 012a DBB2     		uxtb	r3, r3
 1083 012c DBB2     		uxtb	r3, r3
 1084              	.L68:
 1085 012e BA69     		ldr	r2, [r7, #24]
 1086 0130 1370     		strb	r3, [r2, #0]
 677:.\Generated_Source\PSoC5/sdlogger_1_fatfs_1_ff.c **** 			break;
ARM GAS  C:\Users\SUZUKI~1\AppData\Local\Temp\ccJaA83q.s 			page 32


 1087              		.loc 1 677 0
 1088 0132 8EE0     		b	.L63
 1089              	.L60:
 678:.\Generated_Source\PSoC5/sdlogger_1_fatfs_1_ff.c **** 
 679:.\Generated_Source\PSoC5/sdlogger_1_fatfs_1_ff.c **** 		case FS_FAT16 :
 680:.\Generated_Source\PSoC5/sdlogger_1_fatfs_1_ff.c **** 			res = move_window(fs, fs->fatbase + (clst / (SS(fs) / 2)));
 1090              		.loc 1 680 0
 1091 0134 FB68     		ldr	r3, [r7, #12]
 1092 0136 5A6A     		ldr	r2, [r3, #36]
 1093 0138 BB68     		ldr	r3, [r7, #8]
 1094 013a 4FEA1323 		lsr	r3, r3, #8
 1095 013e 1344     		add	r3, r2, r3
 1096 0140 F868     		ldr	r0, [r7, #12]
 1097 0142 1946     		mov	r1, r3
 1098 0144 FFF7FEFF 		bl	move_window
 1099 0148 0346     		mov	r3, r0
 1100 014a FB77     		strb	r3, [r7, #31]
 681:.\Generated_Source\PSoC5/sdlogger_1_fatfs_1_ff.c **** 			if (res != FR_OK) break;
 1101              		.loc 1 681 0
 1102 014c FB7F     		ldrb	r3, [r7, #31]	@ zero_extendqisi2
 1103 014e 002B     		cmp	r3, #0
 1104 0150 7CD1     		bne	.L75
 1105              	.L69:
 682:.\Generated_Source\PSoC5/sdlogger_1_fatfs_1_ff.c **** 			p = &fs->win[clst * 2 % SS(fs)];
 1106              		.loc 1 682 0
 1107 0152 FB68     		ldr	r3, [r7, #12]
 1108 0154 03F13402 		add	r2, r3, #52
 1109 0158 BB68     		ldr	r3, [r7, #8]
 1110 015a 4FEA4303 		lsl	r3, r3, #1
 1111 015e 4FEAC353 		lsl	r3, r3, #23
 1112 0162 4FEAD353 		lsr	r3, r3, #23
 1113 0166 1344     		add	r3, r2, r3
 1114 0168 BB61     		str	r3, [r7, #24]
 683:.\Generated_Source\PSoC5/sdlogger_1_fatfs_1_ff.c **** 			ST_WORD(p, (WORD)val);
 1115              		.loc 1 683 0
 1116 016a 7B68     		ldr	r3, [r7, #4]
 1117 016c DAB2     		uxtb	r2, r3
 1118 016e BB69     		ldr	r3, [r7, #24]
 1119 0170 1A70     		strb	r2, [r3, #0]
 1120 0172 BB69     		ldr	r3, [r7, #24]
 1121 0174 03F10103 		add	r3, r3, #1
 1122 0178 7A68     		ldr	r2, [r7, #4]
 1123 017a 92B2     		uxth	r2, r2
 1124 017c 4FEA1222 		lsr	r2, r2, #8
 1125 0180 92B2     		uxth	r2, r2
 1126 0182 D2B2     		uxtb	r2, r2
 1127 0184 1A70     		strb	r2, [r3, #0]
 684:.\Generated_Source\PSoC5/sdlogger_1_fatfs_1_ff.c **** 			break;
 1128              		.loc 1 684 0
 1129 0186 64E0     		b	.L63
 1130              	.L61:
 685:.\Generated_Source\PSoC5/sdlogger_1_fatfs_1_ff.c **** 
 686:.\Generated_Source\PSoC5/sdlogger_1_fatfs_1_ff.c **** 		case FS_FAT32 :
 687:.\Generated_Source\PSoC5/sdlogger_1_fatfs_1_ff.c **** 			res = move_window(fs, fs->fatbase + (clst / (SS(fs) / 4)));
 1131              		.loc 1 687 0
 1132 0188 FB68     		ldr	r3, [r7, #12]
 1133 018a 5A6A     		ldr	r2, [r3, #36]
ARM GAS  C:\Users\SUZUKI~1\AppData\Local\Temp\ccJaA83q.s 			page 33


 1134 018c BB68     		ldr	r3, [r7, #8]
 1135 018e 4FEAD313 		lsr	r3, r3, #7
 1136 0192 1344     		add	r3, r2, r3
 1137 0194 F868     		ldr	r0, [r7, #12]
 1138 0196 1946     		mov	r1, r3
 1139 0198 FFF7FEFF 		bl	move_window
 1140 019c 0346     		mov	r3, r0
 1141 019e FB77     		strb	r3, [r7, #31]
 688:.\Generated_Source\PSoC5/sdlogger_1_fatfs_1_ff.c **** 			if (res != FR_OK) break;
 1142              		.loc 1 688 0
 1143 01a0 FB7F     		ldrb	r3, [r7, #31]	@ zero_extendqisi2
 1144 01a2 002B     		cmp	r3, #0
 1145 01a4 54D1     		bne	.L76
 1146              	.L70:
 689:.\Generated_Source\PSoC5/sdlogger_1_fatfs_1_ff.c **** 			p = &fs->win[clst * 4 % SS(fs)];
 1147              		.loc 1 689 0
 1148 01a6 FB68     		ldr	r3, [r7, #12]
 1149 01a8 03F13402 		add	r2, r3, #52
 1150 01ac BB68     		ldr	r3, [r7, #8]
 1151 01ae 4FEA8303 		lsl	r3, r3, #2
 1152 01b2 4FEAC353 		lsl	r3, r3, #23
 1153 01b6 4FEAD353 		lsr	r3, r3, #23
 1154 01ba 1344     		add	r3, r2, r3
 1155 01bc BB61     		str	r3, [r7, #24]
 690:.\Generated_Source\PSoC5/sdlogger_1_fatfs_1_ff.c **** 			val |= LD_DWORD(p) & 0xF0000000;
 1156              		.loc 1 690 0
 1157 01be BB69     		ldr	r3, [r7, #24]
 1158 01c0 03F10303 		add	r3, r3, #3
 1159 01c4 1B78     		ldrb	r3, [r3, #0]	@ zero_extendqisi2
 1160 01c6 4FEA0362 		lsl	r2, r3, #24
 1161 01ca BB69     		ldr	r3, [r7, #24]
 1162 01cc 03F10203 		add	r3, r3, #2
 1163 01d0 1B78     		ldrb	r3, [r3, #0]	@ zero_extendqisi2
 1164 01d2 4FEA0343 		lsl	r3, r3, #16
 1165 01d6 42EA0302 		orr	r2, r2, r3
 1166 01da BB69     		ldr	r3, [r7, #24]
 1167 01dc 03F10103 		add	r3, r3, #1
 1168 01e0 1B78     		ldrb	r3, [r3, #0]	@ zero_extendqisi2
 1169 01e2 4FEA0323 		lsl	r3, r3, #8
 1170 01e6 42EA0302 		orr	r2, r2, r3
 1171 01ea BB69     		ldr	r3, [r7, #24]
 1172 01ec 1B78     		ldrb	r3, [r3, #0]	@ zero_extendqisi2
 1173 01ee 42EA0303 		orr	r3, r2, r3
 1174 01f2 03F07043 		and	r3, r3, #-268435456
 1175 01f6 7A68     		ldr	r2, [r7, #4]
 1176 01f8 42EA0303 		orr	r3, r2, r3
 1177 01fc 7B60     		str	r3, [r7, #4]
 691:.\Generated_Source\PSoC5/sdlogger_1_fatfs_1_ff.c **** 			ST_DWORD(p, val);
 1178              		.loc 1 691 0
 1179 01fe 7B68     		ldr	r3, [r7, #4]
 1180 0200 DAB2     		uxtb	r2, r3
 1181 0202 BB69     		ldr	r3, [r7, #24]
 1182 0204 1A70     		strb	r2, [r3, #0]
 1183 0206 BB69     		ldr	r3, [r7, #24]
 1184 0208 03F10103 		add	r3, r3, #1
 1185 020c 7A68     		ldr	r2, [r7, #4]
 1186 020e 92B2     		uxth	r2, r2
ARM GAS  C:\Users\SUZUKI~1\AppData\Local\Temp\ccJaA83q.s 			page 34


 1187 0210 4FEA1222 		lsr	r2, r2, #8
 1188 0214 92B2     		uxth	r2, r2
 1189 0216 D2B2     		uxtb	r2, r2
 1190 0218 1A70     		strb	r2, [r3, #0]
 1191 021a BB69     		ldr	r3, [r7, #24]
 1192 021c 03F10203 		add	r3, r3, #2
 1193 0220 7A68     		ldr	r2, [r7, #4]
 1194 0222 4FEA1242 		lsr	r2, r2, #16
 1195 0226 D2B2     		uxtb	r2, r2
 1196 0228 1A70     		strb	r2, [r3, #0]
 1197 022a BB69     		ldr	r3, [r7, #24]
 1198 022c 03F10303 		add	r3, r3, #3
 1199 0230 7A68     		ldr	r2, [r7, #4]
 1200 0232 4FEA1262 		lsr	r2, r2, #24
 1201 0236 D2B2     		uxtb	r2, r2
 1202 0238 1A70     		strb	r2, [r3, #0]
 692:.\Generated_Source\PSoC5/sdlogger_1_fatfs_1_ff.c **** 			break;
 1203              		.loc 1 692 0
 1204 023a 0AE0     		b	.L63
 1205              	.L72:
 693:.\Generated_Source\PSoC5/sdlogger_1_fatfs_1_ff.c **** 
 694:.\Generated_Source\PSoC5/sdlogger_1_fatfs_1_ff.c **** 		default :
 695:.\Generated_Source\PSoC5/sdlogger_1_fatfs_1_ff.c **** 			res = FR_INT_ERR;
 1206              		.loc 1 695 0
 1207 023c 4FF00203 		mov	r3, #2
 1208 0240 FB77     		strb	r3, [r7, #31]
 1209 0242 06E0     		b	.L63
 1210              	.L73:
 1211              		.loc 1 668 0
 1212 0244 00BF     		nop
 1213 0246 04E0     		b	.L63
 1214              	.L74:
 1215              		.loc 1 674 0
 1216 0248 00BF     		nop
 1217 024a 02E0     		b	.L63
 1218              	.L75:
 1219              		.loc 1 681 0
 1220 024c 00BF     		nop
 1221 024e 00E0     		b	.L63
 1222              	.L76:
 1223              		.loc 1 688 0
 1224 0250 00BF     		nop
 1225              	.L63:
 696:.\Generated_Source\PSoC5/sdlogger_1_fatfs_1_ff.c **** 		}
 697:.\Generated_Source\PSoC5/sdlogger_1_fatfs_1_ff.c **** 		fs->wflag = 1;
 1226              		.loc 1 697 0
 1227 0252 FB68     		ldr	r3, [r7, #12]
 1228 0254 4FF00102 		mov	r2, #1
 1229 0258 1A71     		strb	r2, [r3, #4]
 1230              	.L57:
 698:.\Generated_Source\PSoC5/sdlogger_1_fatfs_1_ff.c **** 	}
 699:.\Generated_Source\PSoC5/sdlogger_1_fatfs_1_ff.c **** 
 700:.\Generated_Source\PSoC5/sdlogger_1_fatfs_1_ff.c **** 	return res;
 1231              		.loc 1 700 0
 1232 025a FB7F     		ldrb	r3, [r7, #31]	@ zero_extendqisi2
 701:.\Generated_Source\PSoC5/sdlogger_1_fatfs_1_ff.c **** }
 1233              		.loc 1 701 0
ARM GAS  C:\Users\SUZUKI~1\AppData\Local\Temp\ccJaA83q.s 			page 35


 1234 025c 1846     		mov	r0, r3
 1235 025e 07F12007 		add	r7, r7, #32
 1236 0262 BD46     		mov	sp, r7
 1237 0264 80BD     		pop	{r7, pc}
 1238              		.cfi_endproc
 1239              	.LFE8:
 1240              		.size	put_fat, .-put_fat
 1241 0266 00BF     		.section	.text.remove_chain,"ax",%progbits
 1242              		.align	2
 1243              		.thumb
 1244              		.thumb_func
 1245              		.type	remove_chain, %function
 1246              	remove_chain:
 1247              	.LFB9:
 702:.\Generated_Source\PSoC5/sdlogger_1_fatfs_1_ff.c **** #endif /* !_FS_READONLY */
 703:.\Generated_Source\PSoC5/sdlogger_1_fatfs_1_ff.c **** 
 704:.\Generated_Source\PSoC5/sdlogger_1_fatfs_1_ff.c **** 
 705:.\Generated_Source\PSoC5/sdlogger_1_fatfs_1_ff.c **** 
 706:.\Generated_Source\PSoC5/sdlogger_1_fatfs_1_ff.c **** 
 707:.\Generated_Source\PSoC5/sdlogger_1_fatfs_1_ff.c **** /*-----------------------------------------------------------------------*/
 708:.\Generated_Source\PSoC5/sdlogger_1_fatfs_1_ff.c **** /* FAT handling - Remove a cluster chain                                 */
 709:.\Generated_Source\PSoC5/sdlogger_1_fatfs_1_ff.c **** /*-----------------------------------------------------------------------*/
 710:.\Generated_Source\PSoC5/sdlogger_1_fatfs_1_ff.c **** #if !_FS_READONLY
 711:.\Generated_Source\PSoC5/sdlogger_1_fatfs_1_ff.c **** static
 712:.\Generated_Source\PSoC5/sdlogger_1_fatfs_1_ff.c **** FRESULT remove_chain (
 713:.\Generated_Source\PSoC5/sdlogger_1_fatfs_1_ff.c **** 	FATFS *fs,			/* File system object */
 714:.\Generated_Source\PSoC5/sdlogger_1_fatfs_1_ff.c **** 	DWORD clst			/* Cluster# to remove a chain from */
 715:.\Generated_Source\PSoC5/sdlogger_1_fatfs_1_ff.c **** )
 716:.\Generated_Source\PSoC5/sdlogger_1_fatfs_1_ff.c **** {
 1248              		.loc 1 716 0
 1249              		.cfi_startproc
 1250              		@ args = 0, pretend = 0, frame = 16
 1251              		@ frame_needed = 1, uses_anonymous_args = 0
 1252 0000 80B5     		push	{r7, lr}
 1253              	.LCFI27:
 1254              		.cfi_def_cfa_offset 8
 1255 0002 84B0     		sub	sp, sp, #16
 1256              	.LCFI28:
 1257              		.cfi_def_cfa_offset 24
 1258 0004 00AF     		add	r7, sp, #0
 1259              		.cfi_offset 14, -4
 1260              		.cfi_offset 7, -8
 1261              	.LCFI29:
 1262              		.cfi_def_cfa_register 7
 1263 0006 7860     		str	r0, [r7, #4]
 1264 0008 3960     		str	r1, [r7, #0]
 717:.\Generated_Source\PSoC5/sdlogger_1_fatfs_1_ff.c **** 	FRESULT res;
 718:.\Generated_Source\PSoC5/sdlogger_1_fatfs_1_ff.c **** 	DWORD nxt;
 719:.\Generated_Source\PSoC5/sdlogger_1_fatfs_1_ff.c **** #if _USE_ERASE
 720:.\Generated_Source\PSoC5/sdlogger_1_fatfs_1_ff.c **** 	DWORD scl = clst, ecl = clst, resion[2];
 721:.\Generated_Source\PSoC5/sdlogger_1_fatfs_1_ff.c **** #endif
 722:.\Generated_Source\PSoC5/sdlogger_1_fatfs_1_ff.c **** 
 723:.\Generated_Source\PSoC5/sdlogger_1_fatfs_1_ff.c **** 	if (clst < 2 || clst >= fs->n_fatent) {	/* Check range */
 1265              		.loc 1 723 0
 1266 000a 3B68     		ldr	r3, [r7, #0]
 1267 000c 012B     		cmp	r3, #1
 1268 000e 04D9     		bls	.L78
ARM GAS  C:\Users\SUZUKI~1\AppData\Local\Temp\ccJaA83q.s 			page 36


 1269 0010 7B68     		ldr	r3, [r7, #4]
 1270 0012 DA69     		ldr	r2, [r3, #28]
 1271 0014 3B68     		ldr	r3, [r7, #0]
 1272 0016 9A42     		cmp	r2, r3
 1273 0018 03D8     		bhi	.L79
 1274              	.L78:
 724:.\Generated_Source\PSoC5/sdlogger_1_fatfs_1_ff.c **** 		res = FR_INT_ERR;
 1275              		.loc 1 724 0
 1276 001a 4FF00203 		mov	r3, #2
 1277 001e FB72     		strb	r3, [r7, #11]
 1278              		.loc 1 723 0
 1279 0020 40E0     		b	.L80
 1280              	.L79:
 725:.\Generated_Source\PSoC5/sdlogger_1_fatfs_1_ff.c **** 
 726:.\Generated_Source\PSoC5/sdlogger_1_fatfs_1_ff.c **** 	} else {
 727:.\Generated_Source\PSoC5/sdlogger_1_fatfs_1_ff.c **** 		res = FR_OK;
 1281              		.loc 1 727 0
 1282 0022 4FF00003 		mov	r3, #0
 1283 0026 FB72     		strb	r3, [r7, #11]
 728:.\Generated_Source\PSoC5/sdlogger_1_fatfs_1_ff.c **** 		while (clst < fs->n_fatent) {			/* Not a last link? */
 1284              		.loc 1 728 0
 1285 0028 33E0     		b	.L81
 1286              	.L87:
 729:.\Generated_Source\PSoC5/sdlogger_1_fatfs_1_ff.c **** 			nxt = get_fat(fs, clst);			/* Get cluster status */
 1287              		.loc 1 729 0
 1288 002a 7868     		ldr	r0, [r7, #4]
 1289 002c 3968     		ldr	r1, [r7, #0]
 1290 002e FFF7FEFF 		bl	get_fat
 1291 0032 0346     		mov	r3, r0
 1292 0034 FB60     		str	r3, [r7, #12]
 730:.\Generated_Source\PSoC5/sdlogger_1_fatfs_1_ff.c **** 			if (nxt == 0) break;				/* Empty cluster? */
 1293              		.loc 1 730 0
 1294 0036 FB68     		ldr	r3, [r7, #12]
 1295 0038 002B     		cmp	r3, #0
 1296 003a 30D0     		beq	.L89
 1297              	.L82:
 731:.\Generated_Source\PSoC5/sdlogger_1_fatfs_1_ff.c **** 			if (nxt == 1) { res = FR_INT_ERR; break; }	/* Internal error? */
 1298              		.loc 1 731 0
 1299 003c FB68     		ldr	r3, [r7, #12]
 1300 003e 012B     		cmp	r3, #1
 1301 0040 03D1     		bne	.L83
 1302 0042 4FF00203 		mov	r3, #2
 1303 0046 FB72     		strb	r3, [r7, #11]
 1304 0048 2CE0     		b	.L80
 1305              	.L83:
 732:.\Generated_Source\PSoC5/sdlogger_1_fatfs_1_ff.c **** 			if (nxt == 0xFFFFFFFF) { res = FR_DISK_ERR; break; }	/* Disk error? */
 1306              		.loc 1 732 0
 1307 004a FB68     		ldr	r3, [r7, #12]
 1308 004c B3F1FF3F 		cmp	r3, #-1
 1309 0050 03D1     		bne	.L84
 1310 0052 4FF00103 		mov	r3, #1
 1311 0056 FB72     		strb	r3, [r7, #11]
 1312 0058 24E0     		b	.L80
 1313              	.L84:
 733:.\Generated_Source\PSoC5/sdlogger_1_fatfs_1_ff.c **** 			res = put_fat(fs, clst, 0);			/* Mark the cluster "empty" */
 1314              		.loc 1 733 0
 1315 005a 7868     		ldr	r0, [r7, #4]
ARM GAS  C:\Users\SUZUKI~1\AppData\Local\Temp\ccJaA83q.s 			page 37


 1316 005c 3968     		ldr	r1, [r7, #0]
 1317 005e 4FF00002 		mov	r2, #0
 1318 0062 FFF7FEFF 		bl	put_fat
 1319 0066 0346     		mov	r3, r0
 1320 0068 FB72     		strb	r3, [r7, #11]
 734:.\Generated_Source\PSoC5/sdlogger_1_fatfs_1_ff.c **** 			if (res != FR_OK) break;
 1321              		.loc 1 734 0
 1322 006a FB7A     		ldrb	r3, [r7, #11]	@ zero_extendqisi2
 1323 006c 002B     		cmp	r3, #0
 1324 006e 18D1     		bne	.L90
 1325              	.L85:
 735:.\Generated_Source\PSoC5/sdlogger_1_fatfs_1_ff.c **** 			if (fs->free_clust != 0xFFFFFFFF) {	/* Update FSInfo */
 1326              		.loc 1 735 0
 1327 0070 7B68     		ldr	r3, [r7, #4]
 1328 0072 1B69     		ldr	r3, [r3, #16]
 1329 0074 B3F1FF3F 		cmp	r3, #-1
 1330 0078 09D0     		beq	.L86
 736:.\Generated_Source\PSoC5/sdlogger_1_fatfs_1_ff.c **** 				fs->free_clust++;
 1331              		.loc 1 736 0
 1332 007a 7B68     		ldr	r3, [r7, #4]
 1333 007c 1B69     		ldr	r3, [r3, #16]
 1334 007e 03F10102 		add	r2, r3, #1
 1335 0082 7B68     		ldr	r3, [r7, #4]
 1336 0084 1A61     		str	r2, [r3, #16]
 737:.\Generated_Source\PSoC5/sdlogger_1_fatfs_1_ff.c **** 				fs->fsi_flag = 1;
 1337              		.loc 1 737 0
 1338 0086 7B68     		ldr	r3, [r7, #4]
 1339 0088 4FF00102 		mov	r2, #1
 1340 008c 5A71     		strb	r2, [r3, #5]
 1341              	.L86:
 738:.\Generated_Source\PSoC5/sdlogger_1_fatfs_1_ff.c **** 			}
 739:.\Generated_Source\PSoC5/sdlogger_1_fatfs_1_ff.c **** #if _USE_ERASE
 740:.\Generated_Source\PSoC5/sdlogger_1_fatfs_1_ff.c **** 			if (ecl + 1 == nxt) {	/* Next cluster is contiguous */
 741:.\Generated_Source\PSoC5/sdlogger_1_fatfs_1_ff.c **** 				ecl = nxt;
 742:.\Generated_Source\PSoC5/sdlogger_1_fatfs_1_ff.c **** 			} else {				/* End of contiguous clusters */ 
 743:.\Generated_Source\PSoC5/sdlogger_1_fatfs_1_ff.c **** 				resion[0] = clust2sect(fs, scl);					/* Start sector */
 744:.\Generated_Source\PSoC5/sdlogger_1_fatfs_1_ff.c **** 				resion[1] = clust2sect(fs, ecl) + fs->csize - 1;	/* End sector */
 745:.\Generated_Source\PSoC5/sdlogger_1_fatfs_1_ff.c **** 				disk_ioctl(fs->drv, CTRL_ERASE_SECTOR, resion);		/* Erase the block */
 746:.\Generated_Source\PSoC5/sdlogger_1_fatfs_1_ff.c **** 				scl = ecl = nxt;
 747:.\Generated_Source\PSoC5/sdlogger_1_fatfs_1_ff.c **** 			}
 748:.\Generated_Source\PSoC5/sdlogger_1_fatfs_1_ff.c **** #endif
 749:.\Generated_Source\PSoC5/sdlogger_1_fatfs_1_ff.c **** 			clst = nxt;	/* Next cluster */
 1342              		.loc 1 749 0
 1343 008e FB68     		ldr	r3, [r7, #12]
 1344 0090 3B60     		str	r3, [r7, #0]
 1345              	.L81:
 1346              		.loc 1 728 0
 1347 0092 7B68     		ldr	r3, [r7, #4]
 1348 0094 DA69     		ldr	r2, [r3, #28]
 1349 0096 3B68     		ldr	r3, [r7, #0]
 1350 0098 9A42     		cmp	r2, r3
 1351 009a C6D8     		bhi	.L87
 1352 009c 02E0     		b	.L80
 1353              	.L89:
 1354              		.loc 1 730 0
 1355 009e 00BF     		nop
 1356 00a0 00E0     		b	.L80
ARM GAS  C:\Users\SUZUKI~1\AppData\Local\Temp\ccJaA83q.s 			page 38


 1357              	.L90:
 1358              		.loc 1 734 0
 1359 00a2 00BF     		nop
 1360              	.L80:
 750:.\Generated_Source\PSoC5/sdlogger_1_fatfs_1_ff.c **** 		}
 751:.\Generated_Source\PSoC5/sdlogger_1_fatfs_1_ff.c **** 	}
 752:.\Generated_Source\PSoC5/sdlogger_1_fatfs_1_ff.c **** 
 753:.\Generated_Source\PSoC5/sdlogger_1_fatfs_1_ff.c **** 	return res;
 1361              		.loc 1 753 0
 1362 00a4 FB7A     		ldrb	r3, [r7, #11]	@ zero_extendqisi2
 754:.\Generated_Source\PSoC5/sdlogger_1_fatfs_1_ff.c **** }
 1363              		.loc 1 754 0
 1364 00a6 1846     		mov	r0, r3
 1365 00a8 07F11007 		add	r7, r7, #16
 1366 00ac BD46     		mov	sp, r7
 1367 00ae 80BD     		pop	{r7, pc}
 1368              		.cfi_endproc
 1369              	.LFE9:
 1370              		.size	remove_chain, .-remove_chain
 1371              		.section	.text.create_chain,"ax",%progbits
 1372              		.align	2
 1373              		.thumb
 1374              		.thumb_func
 1375              		.type	create_chain, %function
 1376              	create_chain:
 1377              	.LFB10:
 755:.\Generated_Source\PSoC5/sdlogger_1_fatfs_1_ff.c **** #endif
 756:.\Generated_Source\PSoC5/sdlogger_1_fatfs_1_ff.c **** 
 757:.\Generated_Source\PSoC5/sdlogger_1_fatfs_1_ff.c **** 
 758:.\Generated_Source\PSoC5/sdlogger_1_fatfs_1_ff.c **** 
 759:.\Generated_Source\PSoC5/sdlogger_1_fatfs_1_ff.c **** 
 760:.\Generated_Source\PSoC5/sdlogger_1_fatfs_1_ff.c **** /*-----------------------------------------------------------------------*/
 761:.\Generated_Source\PSoC5/sdlogger_1_fatfs_1_ff.c **** /* FAT handling - Stretch or Create a cluster chain                      */
 762:.\Generated_Source\PSoC5/sdlogger_1_fatfs_1_ff.c **** /*-----------------------------------------------------------------------*/
 763:.\Generated_Source\PSoC5/sdlogger_1_fatfs_1_ff.c **** #if !_FS_READONLY
 764:.\Generated_Source\PSoC5/sdlogger_1_fatfs_1_ff.c **** static
 765:.\Generated_Source\PSoC5/sdlogger_1_fatfs_1_ff.c **** DWORD create_chain (	/* 0:No free cluster, 1:Internal error, 0xFFFFFFFF:Disk error, >=2:New cluster
 766:.\Generated_Source\PSoC5/sdlogger_1_fatfs_1_ff.c **** 	FATFS *fs,			/* File system object */
 767:.\Generated_Source\PSoC5/sdlogger_1_fatfs_1_ff.c **** 	DWORD clst			/* Cluster# to stretch. 0 means create a new chain. */
 768:.\Generated_Source\PSoC5/sdlogger_1_fatfs_1_ff.c **** )
 769:.\Generated_Source\PSoC5/sdlogger_1_fatfs_1_ff.c **** {
 1378              		.loc 1 769 0
 1379              		.cfi_startproc
 1380              		@ args = 0, pretend = 0, frame = 24
 1381              		@ frame_needed = 1, uses_anonymous_args = 0
 1382 0000 80B5     		push	{r7, lr}
 1383              	.LCFI30:
 1384              		.cfi_def_cfa_offset 8
 1385 0002 86B0     		sub	sp, sp, #24
 1386              	.LCFI31:
 1387              		.cfi_def_cfa_offset 32
 1388 0004 00AF     		add	r7, sp, #0
 1389              		.cfi_offset 14, -4
 1390              		.cfi_offset 7, -8
 1391              	.LCFI32:
 1392              		.cfi_def_cfa_register 7
 1393 0006 7860     		str	r0, [r7, #4]
ARM GAS  C:\Users\SUZUKI~1\AppData\Local\Temp\ccJaA83q.s 			page 39


 1394 0008 3960     		str	r1, [r7, #0]
 770:.\Generated_Source\PSoC5/sdlogger_1_fatfs_1_ff.c **** 	DWORD cs, ncl, scl;
 771:.\Generated_Source\PSoC5/sdlogger_1_fatfs_1_ff.c **** 	FRESULT res;
 772:.\Generated_Source\PSoC5/sdlogger_1_fatfs_1_ff.c **** 
 773:.\Generated_Source\PSoC5/sdlogger_1_fatfs_1_ff.c **** 
 774:.\Generated_Source\PSoC5/sdlogger_1_fatfs_1_ff.c **** 	if (clst == 0) {		/* Create a new chain */
 1395              		.loc 1 774 0
 1396 000a 3B68     		ldr	r3, [r7, #0]
 1397 000c 002B     		cmp	r3, #0
 1398 000e 0ED1     		bne	.L92
 775:.\Generated_Source\PSoC5/sdlogger_1_fatfs_1_ff.c **** 		scl = fs->last_clust;			/* Get suggested start point */
 1399              		.loc 1 775 0
 1400 0010 7B68     		ldr	r3, [r7, #4]
 1401 0012 DB68     		ldr	r3, [r3, #12]
 1402 0014 3B61     		str	r3, [r7, #16]
 776:.\Generated_Source\PSoC5/sdlogger_1_fatfs_1_ff.c **** 		if (!scl || scl >= fs->n_fatent) scl = 1;
 1403              		.loc 1 776 0
 1404 0016 3B69     		ldr	r3, [r7, #16]
 1405 0018 002B     		cmp	r3, #0
 1406 001a 04D0     		beq	.L93
 1407 001c 7B68     		ldr	r3, [r7, #4]
 1408 001e DA69     		ldr	r2, [r3, #28]
 1409 0020 3B69     		ldr	r3, [r7, #16]
 1410 0022 9A42     		cmp	r2, r3
 1411 0024 19D8     		bhi	.L113
 1412              	.L93:
 1413 0026 4FF00103 		mov	r3, #1
 1414 002a 3B61     		str	r3, [r7, #16]
 1415 002c 16E0     		b	.L95
 1416              	.L92:
 777:.\Generated_Source\PSoC5/sdlogger_1_fatfs_1_ff.c **** 	}
 778:.\Generated_Source\PSoC5/sdlogger_1_fatfs_1_ff.c **** 	else {					/* Stretch the current chain */
 779:.\Generated_Source\PSoC5/sdlogger_1_fatfs_1_ff.c **** 		cs = get_fat(fs, clst);			/* Check the cluster status */
 1417              		.loc 1 779 0
 1418 002e 7868     		ldr	r0, [r7, #4]
 1419 0030 3968     		ldr	r1, [r7, #0]
 1420 0032 FFF7FEFF 		bl	get_fat
 1421 0036 0346     		mov	r3, r0
 1422 0038 BB60     		str	r3, [r7, #8]
 780:.\Generated_Source\PSoC5/sdlogger_1_fatfs_1_ff.c **** 		if (cs < 2) return 1;			/* It is an invalid cluster */
 1423              		.loc 1 780 0
 1424 003a BB68     		ldr	r3, [r7, #8]
 1425 003c 012B     		cmp	r3, #1
 1426 003e 02D8     		bhi	.L96
 1427 0040 4FF00103 		mov	r3, #1
 1428 0044 72E0     		b	.L97
 1429              	.L96:
 781:.\Generated_Source\PSoC5/sdlogger_1_fatfs_1_ff.c **** 		if (cs < fs->n_fatent) return cs;	/* It is already followed by next cluster */
 1430              		.loc 1 781 0
 1431 0046 7B68     		ldr	r3, [r7, #4]
 1432 0048 DA69     		ldr	r2, [r3, #28]
 1433 004a BB68     		ldr	r3, [r7, #8]
 1434 004c 9A42     		cmp	r2, r3
 1435 004e 01D9     		bls	.L98
 1436 0050 BB68     		ldr	r3, [r7, #8]
 1437 0052 6BE0     		b	.L97
 1438              	.L98:
ARM GAS  C:\Users\SUZUKI~1\AppData\Local\Temp\ccJaA83q.s 			page 40


 782:.\Generated_Source\PSoC5/sdlogger_1_fatfs_1_ff.c **** 		scl = clst;
 1439              		.loc 1 782 0
 1440 0054 3B68     		ldr	r3, [r7, #0]
 1441 0056 3B61     		str	r3, [r7, #16]
 1442 0058 00E0     		b	.L95
 1443              	.L113:
 1444              		.loc 1 776 0
 1445 005a 00BF     		nop
 1446              	.L95:
 783:.\Generated_Source\PSoC5/sdlogger_1_fatfs_1_ff.c **** 	}
 784:.\Generated_Source\PSoC5/sdlogger_1_fatfs_1_ff.c **** 
 785:.\Generated_Source\PSoC5/sdlogger_1_fatfs_1_ff.c **** 	ncl = scl;				/* Start cluster */
 1447              		.loc 1 785 0
 1448 005c 3B69     		ldr	r3, [r7, #16]
 1449 005e FB60     		str	r3, [r7, #12]
 1450 0060 00E0     		b	.L106
 1451              	.L114:
 786:.\Generated_Source\PSoC5/sdlogger_1_fatfs_1_ff.c **** 	for (;;) {
 787:.\Generated_Source\PSoC5/sdlogger_1_fatfs_1_ff.c **** 		ncl++;							/* Next cluster */
 788:.\Generated_Source\PSoC5/sdlogger_1_fatfs_1_ff.c **** 		if (ncl >= fs->n_fatent) {		/* Wrap around */
 789:.\Generated_Source\PSoC5/sdlogger_1_fatfs_1_ff.c **** 			ncl = 2;
 790:.\Generated_Source\PSoC5/sdlogger_1_fatfs_1_ff.c **** 			if (ncl > scl) return 0;	/* No free cluster */
 791:.\Generated_Source\PSoC5/sdlogger_1_fatfs_1_ff.c **** 		}
 792:.\Generated_Source\PSoC5/sdlogger_1_fatfs_1_ff.c **** 		cs = get_fat(fs, ncl);			/* Get the cluster status */
 793:.\Generated_Source\PSoC5/sdlogger_1_fatfs_1_ff.c **** 		if (cs == 0) break;				/* Found a free cluster */
 794:.\Generated_Source\PSoC5/sdlogger_1_fatfs_1_ff.c **** 		if (cs == 0xFFFFFFFF || cs == 1)/* An error occurred */
 795:.\Generated_Source\PSoC5/sdlogger_1_fatfs_1_ff.c **** 			return cs;
 796:.\Generated_Source\PSoC5/sdlogger_1_fatfs_1_ff.c **** 		if (ncl == scl) return 0;		/* No free cluster */
 797:.\Generated_Source\PSoC5/sdlogger_1_fatfs_1_ff.c **** 	}
 1452              		.loc 1 797 0
 1453 0062 00BF     		nop
 1454              	.L106:
 1455              		.loc 1 787 0
 1456 0064 FB68     		ldr	r3, [r7, #12]
 1457 0066 03F10103 		add	r3, r3, #1
 1458 006a FB60     		str	r3, [r7, #12]
 1459              		.loc 1 788 0
 1460 006c 7B68     		ldr	r3, [r7, #4]
 1461 006e DA69     		ldr	r2, [r3, #28]
 1462 0070 FB68     		ldr	r3, [r7, #12]
 1463 0072 9A42     		cmp	r2, r3
 1464 0074 09D8     		bhi	.L99
 1465              		.loc 1 789 0
 1466 0076 4FF00203 		mov	r3, #2
 1467 007a FB60     		str	r3, [r7, #12]
 1468              		.loc 1 790 0
 1469 007c FA68     		ldr	r2, [r7, #12]
 1470 007e 3B69     		ldr	r3, [r7, #16]
 1471 0080 9A42     		cmp	r2, r3
 1472 0082 02D9     		bls	.L99
 1473 0084 4FF00003 		mov	r3, #0
 1474 0088 50E0     		b	.L97
 1475              	.L99:
 1476              		.loc 1 792 0
 1477 008a 7868     		ldr	r0, [r7, #4]
 1478 008c F968     		ldr	r1, [r7, #12]
 1479 008e FFF7FEFF 		bl	get_fat
ARM GAS  C:\Users\SUZUKI~1\AppData\Local\Temp\ccJaA83q.s 			page 41


 1480 0092 0346     		mov	r3, r0
 1481 0094 BB60     		str	r3, [r7, #8]
 1482              		.loc 1 793 0
 1483 0096 BB68     		ldr	r3, [r7, #8]
 1484 0098 002B     		cmp	r3, #0
 1485 009a 0BD1     		bne	.L100
 798:.\Generated_Source\PSoC5/sdlogger_1_fatfs_1_ff.c **** 
 799:.\Generated_Source\PSoC5/sdlogger_1_fatfs_1_ff.c **** 	res = put_fat(fs, ncl, 0x0FFFFFFF);	/* Mark the new cluster "last link" */
 1486              		.loc 1 799 0
 1487 009c 7868     		ldr	r0, [r7, #4]
 1488 009e F968     		ldr	r1, [r7, #12]
 1489 00a0 6FF07042 		mvn	r2, #-268435456
 1490 00a4 FFF7FEFF 		bl	put_fat
 1491 00a8 0346     		mov	r3, r0
 1492 00aa FB75     		strb	r3, [r7, #23]
 800:.\Generated_Source\PSoC5/sdlogger_1_fatfs_1_ff.c **** 	if (res == FR_OK && clst != 0) {
 1493              		.loc 1 800 0
 1494 00ac FB7D     		ldrb	r3, [r7, #23]	@ zero_extendqisi2
 1495 00ae 002B     		cmp	r3, #0
 1496 00b0 10D0     		beq	.L101
 1497 00b2 19E0     		b	.L102
 1498              	.L100:
 1499              		.loc 1 794 0
 1500 00b4 BB68     		ldr	r3, [r7, #8]
 1501 00b6 B3F1FF3F 		cmp	r3, #-1
 1502 00ba 02D0     		beq	.L103
 1503 00bc BB68     		ldr	r3, [r7, #8]
 1504 00be 012B     		cmp	r3, #1
 1505 00c0 01D1     		bne	.L104
 1506              	.L103:
 1507              		.loc 1 795 0
 1508 00c2 BB68     		ldr	r3, [r7, #8]
 1509 00c4 32E0     		b	.L97
 1510              	.L104:
 1511              		.loc 1 796 0
 1512 00c6 FA68     		ldr	r2, [r7, #12]
 1513 00c8 3B69     		ldr	r3, [r7, #16]
 1514 00ca 9A42     		cmp	r2, r3
 1515 00cc C9D1     		bne	.L114
 1516 00ce 4FF00003 		mov	r3, #0
 1517 00d2 2BE0     		b	.L97
 1518              	.L101:
 1519              		.loc 1 800 0
 1520 00d4 3B68     		ldr	r3, [r7, #0]
 1521 00d6 002B     		cmp	r3, #0
 1522 00d8 06D0     		beq	.L102
 801:.\Generated_Source\PSoC5/sdlogger_1_fatfs_1_ff.c **** 		res = put_fat(fs, clst, ncl);	/* Link it to the previous one if needed */
 1523              		.loc 1 801 0
 1524 00da 7868     		ldr	r0, [r7, #4]
 1525 00dc 3968     		ldr	r1, [r7, #0]
 1526 00de FA68     		ldr	r2, [r7, #12]
 1527 00e0 FFF7FEFF 		bl	put_fat
 1528 00e4 0346     		mov	r3, r0
 1529 00e6 FB75     		strb	r3, [r7, #23]
 1530              	.L102:
 802:.\Generated_Source\PSoC5/sdlogger_1_fatfs_1_ff.c **** 	}
 803:.\Generated_Source\PSoC5/sdlogger_1_fatfs_1_ff.c **** 	if (res == FR_OK) {
ARM GAS  C:\Users\SUZUKI~1\AppData\Local\Temp\ccJaA83q.s 			page 42


 1531              		.loc 1 803 0
 1532 00e8 FB7D     		ldrb	r3, [r7, #23]	@ zero_extendqisi2
 1533 00ea 002B     		cmp	r3, #0
 1534 00ec 12D1     		bne	.L107
 804:.\Generated_Source\PSoC5/sdlogger_1_fatfs_1_ff.c **** 		fs->last_clust = ncl;			/* Update FSINFO */
 1535              		.loc 1 804 0
 1536 00ee 7B68     		ldr	r3, [r7, #4]
 1537 00f0 FA68     		ldr	r2, [r7, #12]
 1538 00f2 DA60     		str	r2, [r3, #12]
 805:.\Generated_Source\PSoC5/sdlogger_1_fatfs_1_ff.c **** 		if (fs->free_clust != 0xFFFFFFFF) {
 1539              		.loc 1 805 0
 1540 00f4 7B68     		ldr	r3, [r7, #4]
 1541 00f6 1B69     		ldr	r3, [r3, #16]
 1542 00f8 B3F1FF3F 		cmp	r3, #-1
 1543 00fc 14D0     		beq	.L115
 806:.\Generated_Source\PSoC5/sdlogger_1_fatfs_1_ff.c **** 			fs->free_clust--;
 1544              		.loc 1 806 0
 1545 00fe 7B68     		ldr	r3, [r7, #4]
 1546 0100 1B69     		ldr	r3, [r3, #16]
 1547 0102 03F1FF32 		add	r2, r3, #-1
 1548 0106 7B68     		ldr	r3, [r7, #4]
 1549 0108 1A61     		str	r2, [r3, #16]
 807:.\Generated_Source\PSoC5/sdlogger_1_fatfs_1_ff.c **** 			fs->fsi_flag = 1;
 1550              		.loc 1 807 0
 1551 010a 7B68     		ldr	r3, [r7, #4]
 1552 010c 4FF00102 		mov	r2, #1
 1553 0110 5A71     		strb	r2, [r3, #5]
 1554 0112 0AE0     		b	.L109
 1555              	.L107:
 808:.\Generated_Source\PSoC5/sdlogger_1_fatfs_1_ff.c **** 		}
 809:.\Generated_Source\PSoC5/sdlogger_1_fatfs_1_ff.c **** 	} else {
 810:.\Generated_Source\PSoC5/sdlogger_1_fatfs_1_ff.c **** 		ncl = (res == FR_DISK_ERR) ? 0xFFFFFFFF : 1;
 1556              		.loc 1 810 0
 1557 0114 FB7D     		ldrb	r3, [r7, #23]	@ zero_extendqisi2
 1558 0116 012B     		cmp	r3, #1
 1559 0118 02D1     		bne	.L110
 1560 011a 4FF0FF33 		mov	r3, #-1
 1561 011e 01E0     		b	.L111
 1562              	.L110:
 1563 0120 4FF00103 		mov	r3, #1
 1564              	.L111:
 1565 0124 FB60     		str	r3, [r7, #12]
 1566 0126 00E0     		b	.L109
 1567              	.L115:
 1568              		.loc 1 807 0
 1569 0128 00BF     		nop
 1570              	.L109:
 811:.\Generated_Source\PSoC5/sdlogger_1_fatfs_1_ff.c **** 	}
 812:.\Generated_Source\PSoC5/sdlogger_1_fatfs_1_ff.c **** 
 813:.\Generated_Source\PSoC5/sdlogger_1_fatfs_1_ff.c **** 	return ncl;		/* Return new cluster number or error code */
 1571              		.loc 1 813 0
 1572 012a FB68     		ldr	r3, [r7, #12]
 1573              	.L97:
 814:.\Generated_Source\PSoC5/sdlogger_1_fatfs_1_ff.c **** }
 1574              		.loc 1 814 0
 1575 012c 1846     		mov	r0, r3
 1576 012e 07F11807 		add	r7, r7, #24
ARM GAS  C:\Users\SUZUKI~1\AppData\Local\Temp\ccJaA83q.s 			page 43


 1577 0132 BD46     		mov	sp, r7
 1578 0134 80BD     		pop	{r7, pc}
 1579              		.cfi_endproc
 1580              	.LFE10:
 1581              		.size	create_chain, .-create_chain
 1582 0136 00BF     		.section	.text.dir_sdi,"ax",%progbits
 1583              		.align	2
 1584              		.thumb
 1585              		.thumb_func
 1586              		.type	dir_sdi, %function
 1587              	dir_sdi:
 1588              	.LFB11:
 815:.\Generated_Source\PSoC5/sdlogger_1_fatfs_1_ff.c **** #endif /* !_FS_READONLY */
 816:.\Generated_Source\PSoC5/sdlogger_1_fatfs_1_ff.c **** 
 817:.\Generated_Source\PSoC5/sdlogger_1_fatfs_1_ff.c **** 
 818:.\Generated_Source\PSoC5/sdlogger_1_fatfs_1_ff.c **** 
 819:.\Generated_Source\PSoC5/sdlogger_1_fatfs_1_ff.c **** 
 820:.\Generated_Source\PSoC5/sdlogger_1_fatfs_1_ff.c **** /*-----------------------------------------------------------------------*/
 821:.\Generated_Source\PSoC5/sdlogger_1_fatfs_1_ff.c **** /* Directory handling - Set directory index                              */
 822:.\Generated_Source\PSoC5/sdlogger_1_fatfs_1_ff.c **** /*-----------------------------------------------------------------------*/
 823:.\Generated_Source\PSoC5/sdlogger_1_fatfs_1_ff.c **** 
 824:.\Generated_Source\PSoC5/sdlogger_1_fatfs_1_ff.c **** static
 825:.\Generated_Source\PSoC5/sdlogger_1_fatfs_1_ff.c **** FRESULT dir_sdi (
 826:.\Generated_Source\PSoC5/sdlogger_1_fatfs_1_ff.c **** 	DIR *dj,		/* Pointer to directory object */
 827:.\Generated_Source\PSoC5/sdlogger_1_fatfs_1_ff.c **** 	WORD idx		/* Directory index number */
 828:.\Generated_Source\PSoC5/sdlogger_1_fatfs_1_ff.c **** )
 829:.\Generated_Source\PSoC5/sdlogger_1_fatfs_1_ff.c **** {
 1589              		.loc 1 829 0
 1590              		.cfi_startproc
 1591              		@ args = 0, pretend = 0, frame = 16
 1592              		@ frame_needed = 1, uses_anonymous_args = 0
 1593 0000 80B5     		push	{r7, lr}
 1594              	.LCFI33:
 1595              		.cfi_def_cfa_offset 8
 1596 0002 84B0     		sub	sp, sp, #16
 1597              	.LCFI34:
 1598              		.cfi_def_cfa_offset 24
 1599 0004 00AF     		add	r7, sp, #0
 1600              		.cfi_offset 14, -4
 1601              		.cfi_offset 7, -8
 1602              	.LCFI35:
 1603              		.cfi_def_cfa_register 7
 1604 0006 7860     		str	r0, [r7, #4]
 1605 0008 0B46     		mov	r3, r1
 1606 000a 7B80     		strh	r3, [r7, #2]	@ movhi
 830:.\Generated_Source\PSoC5/sdlogger_1_fatfs_1_ff.c **** 	DWORD clst;
 831:.\Generated_Source\PSoC5/sdlogger_1_fatfs_1_ff.c **** 	WORD ic;
 832:.\Generated_Source\PSoC5/sdlogger_1_fatfs_1_ff.c **** 
 833:.\Generated_Source\PSoC5/sdlogger_1_fatfs_1_ff.c **** 
 834:.\Generated_Source\PSoC5/sdlogger_1_fatfs_1_ff.c **** 	dj->index = idx;
 1607              		.loc 1 834 0
 1608 000c 7B68     		ldr	r3, [r7, #4]
 1609 000e 7A88     		ldrh	r2, [r7, #2]	@ movhi
 1610 0010 DA80     		strh	r2, [r3, #6]	@ movhi
 835:.\Generated_Source\PSoC5/sdlogger_1_fatfs_1_ff.c **** 	clst = dj->sclust;
 1611              		.loc 1 835 0
 1612 0012 7B68     		ldr	r3, [r7, #4]
ARM GAS  C:\Users\SUZUKI~1\AppData\Local\Temp\ccJaA83q.s 			page 44


 1613 0014 9B68     		ldr	r3, [r3, #8]
 1614 0016 BB60     		str	r3, [r7, #8]
 836:.\Generated_Source\PSoC5/sdlogger_1_fatfs_1_ff.c **** 	if (clst == 1 || clst >= dj->fs->n_fatent)	/* Check start cluster range */
 1615              		.loc 1 836 0
 1616 0018 BB68     		ldr	r3, [r7, #8]
 1617 001a 012B     		cmp	r3, #1
 1618 001c 05D0     		beq	.L117
 1619 001e 7B68     		ldr	r3, [r7, #4]
 1620 0020 1B68     		ldr	r3, [r3, #0]
 1621 0022 DA69     		ldr	r2, [r3, #28]
 1622 0024 BB68     		ldr	r3, [r7, #8]
 1623 0026 9A42     		cmp	r2, r3
 1624 0028 02D8     		bhi	.L118
 1625              	.L117:
 837:.\Generated_Source\PSoC5/sdlogger_1_fatfs_1_ff.c **** 		return FR_INT_ERR;
 1626              		.loc 1 837 0
 1627 002a 4FF00203 		mov	r3, #2
 1628 002e 6FE0     		b	.L119
 1629              	.L118:
 838:.\Generated_Source\PSoC5/sdlogger_1_fatfs_1_ff.c **** 	if (!clst && dj->fs->fs_type == FS_FAT32)	/* Replace cluster# 0 with root cluster# if in FAT32 */
 1630              		.loc 1 838 0
 1631 0030 BB68     		ldr	r3, [r7, #8]
 1632 0032 002B     		cmp	r3, #0
 1633 0034 08D1     		bne	.L120
 1634 0036 7B68     		ldr	r3, [r7, #4]
 1635 0038 1B68     		ldr	r3, [r3, #0]
 1636 003a 1B78     		ldrb	r3, [r3, #0]	@ zero_extendqisi2
 1637 003c 032B     		cmp	r3, #3
 1638 003e 03D1     		bne	.L120
 839:.\Generated_Source\PSoC5/sdlogger_1_fatfs_1_ff.c **** 		clst = dj->fs->dirbase;
 1639              		.loc 1 839 0
 1640 0040 7B68     		ldr	r3, [r7, #4]
 1641 0042 1B68     		ldr	r3, [r3, #0]
 1642 0044 9B6A     		ldr	r3, [r3, #40]
 1643 0046 BB60     		str	r3, [r7, #8]
 1644              	.L120:
 840:.\Generated_Source\PSoC5/sdlogger_1_fatfs_1_ff.c **** 
 841:.\Generated_Source\PSoC5/sdlogger_1_fatfs_1_ff.c **** 	if (clst == 0) {	/* Static table (root-dir in FAT12/16) */
 1645              		.loc 1 841 0
 1646 0048 BB68     		ldr	r3, [r7, #8]
 1647 004a 002B     		cmp	r3, #0
 1648 004c 16D1     		bne	.L121
 842:.\Generated_Source\PSoC5/sdlogger_1_fatfs_1_ff.c **** 		dj->clust = clst;
 1649              		.loc 1 842 0
 1650 004e 7B68     		ldr	r3, [r7, #4]
 1651 0050 BA68     		ldr	r2, [r7, #8]
 1652 0052 DA60     		str	r2, [r3, #12]
 843:.\Generated_Source\PSoC5/sdlogger_1_fatfs_1_ff.c **** 		if (idx >= dj->fs->n_rootdir)		/* Index is out of range */
 1653              		.loc 1 843 0
 1654 0054 7B68     		ldr	r3, [r7, #4]
 1655 0056 1B68     		ldr	r3, [r3, #0]
 1656 0058 1B89     		ldrh	r3, [r3, #8]
 1657 005a 7A88     		ldrh	r2, [r7, #2]
 1658 005c 9A42     		cmp	r2, r3
 1659 005e 02D3     		bcc	.L122
 844:.\Generated_Source\PSoC5/sdlogger_1_fatfs_1_ff.c **** 			return FR_INT_ERR;
 1660              		.loc 1 844 0
ARM GAS  C:\Users\SUZUKI~1\AppData\Local\Temp\ccJaA83q.s 			page 45


 1661 0060 4FF00203 		mov	r3, #2
 1662 0064 54E0     		b	.L119
 1663              	.L122:
 845:.\Generated_Source\PSoC5/sdlogger_1_fatfs_1_ff.c **** 		dj->sect = dj->fs->dirbase + idx / (SS(dj->fs) / 32);	/* Sector# */
 1664              		.loc 1 845 0
 1665 0066 7B68     		ldr	r3, [r7, #4]
 1666 0068 1B68     		ldr	r3, [r3, #0]
 1667 006a 9A6A     		ldr	r2, [r3, #40]
 1668 006c 7B88     		ldrh	r3, [r7, #2]
 1669 006e 4FEA1313 		lsr	r3, r3, #4
 1670 0072 9BB2     		uxth	r3, r3
 1671 0074 1A44     		add	r2, r2, r3
 1672 0076 7B68     		ldr	r3, [r7, #4]
 1673 0078 1A61     		str	r2, [r3, #16]
 1674 007a 3BE0     		b	.L123
 1675              	.L121:
 846:.\Generated_Source\PSoC5/sdlogger_1_fatfs_1_ff.c **** 	}
 847:.\Generated_Source\PSoC5/sdlogger_1_fatfs_1_ff.c **** 	else {				/* Dynamic table (sub-dirs or root-dir in FAT32) */
 848:.\Generated_Source\PSoC5/sdlogger_1_fatfs_1_ff.c **** 		ic = SS(dj->fs) / 32 * dj->fs->csize;	/* Entries per cluster */
 1676              		.loc 1 848 0
 1677 007c 7B68     		ldr	r3, [r7, #4]
 1678 007e 1B68     		ldr	r3, [r3, #0]
 1679 0080 9B78     		ldrb	r3, [r3, #2]	@ zero_extendqisi2
 1680 0082 4FEA0313 		lsl	r3, r3, #4
 1681 0086 FB81     		strh	r3, [r7, #14]	@ movhi
 849:.\Generated_Source\PSoC5/sdlogger_1_fatfs_1_ff.c **** 		while (idx >= ic) {	/* Follow cluster chain */
 1682              		.loc 1 849 0
 1683 0088 1FE0     		b	.L124
 1684              	.L128:
 850:.\Generated_Source\PSoC5/sdlogger_1_fatfs_1_ff.c **** 			clst = get_fat(dj->fs, clst);				/* Get next cluster */
 1685              		.loc 1 850 0
 1686 008a 7B68     		ldr	r3, [r7, #4]
 1687 008c 1B68     		ldr	r3, [r3, #0]
 1688 008e 1846     		mov	r0, r3
 1689 0090 B968     		ldr	r1, [r7, #8]
 1690 0092 FFF7FEFF 		bl	get_fat
 1691 0096 0346     		mov	r3, r0
 1692 0098 BB60     		str	r3, [r7, #8]
 851:.\Generated_Source\PSoC5/sdlogger_1_fatfs_1_ff.c **** 			if (clst == 0xFFFFFFFF) return FR_DISK_ERR;	/* Disk error */
 1693              		.loc 1 851 0
 1694 009a BB68     		ldr	r3, [r7, #8]
 1695 009c B3F1FF3F 		cmp	r3, #-1
 1696 00a0 02D1     		bne	.L125
 1697 00a2 4FF00103 		mov	r3, #1
 1698 00a6 33E0     		b	.L119
 1699              	.L125:
 852:.\Generated_Source\PSoC5/sdlogger_1_fatfs_1_ff.c **** 			if (clst < 2 || clst >= dj->fs->n_fatent)	/* Reached to end of table or int error */
 1700              		.loc 1 852 0
 1701 00a8 BB68     		ldr	r3, [r7, #8]
 1702 00aa 012B     		cmp	r3, #1
 1703 00ac 05D9     		bls	.L126
 1704 00ae 7B68     		ldr	r3, [r7, #4]
 1705 00b0 1B68     		ldr	r3, [r3, #0]
 1706 00b2 DA69     		ldr	r2, [r3, #28]
 1707 00b4 BB68     		ldr	r3, [r7, #8]
 1708 00b6 9A42     		cmp	r2, r3
 1709 00b8 02D8     		bhi	.L127
ARM GAS  C:\Users\SUZUKI~1\AppData\Local\Temp\ccJaA83q.s 			page 46


 1710              	.L126:
 853:.\Generated_Source\PSoC5/sdlogger_1_fatfs_1_ff.c **** 				return FR_INT_ERR;
 1711              		.loc 1 853 0
 1712 00ba 4FF00203 		mov	r3, #2
 1713 00be 27E0     		b	.L119
 1714              	.L127:
 854:.\Generated_Source\PSoC5/sdlogger_1_fatfs_1_ff.c **** 			idx -= ic;
 1715              		.loc 1 854 0
 1716 00c0 7A88     		ldrh	r2, [r7, #2]	@ movhi
 1717 00c2 FB89     		ldrh	r3, [r7, #14]	@ movhi
 1718 00c4 C3EB0203 		rsb	r3, r3, r2
 1719 00c8 7B80     		strh	r3, [r7, #2]	@ movhi
 1720              	.L124:
 1721              		.loc 1 849 0
 1722 00ca 7A88     		ldrh	r2, [r7, #2]
 1723 00cc FB89     		ldrh	r3, [r7, #14]
 1724 00ce 9A42     		cmp	r2, r3
 1725 00d0 DBD2     		bcs	.L128
 855:.\Generated_Source\PSoC5/sdlogger_1_fatfs_1_ff.c **** 		}
 856:.\Generated_Source\PSoC5/sdlogger_1_fatfs_1_ff.c **** 		dj->clust = clst;
 1726              		.loc 1 856 0
 1727 00d2 7B68     		ldr	r3, [r7, #4]
 1728 00d4 BA68     		ldr	r2, [r7, #8]
 1729 00d6 DA60     		str	r2, [r3, #12]
 857:.\Generated_Source\PSoC5/sdlogger_1_fatfs_1_ff.c **** 		dj->sect = clust2sect(dj->fs, clst) + idx / (SS(dj->fs) / 32);	/* Sector# */
 1730              		.loc 1 857 0
 1731 00d8 7B68     		ldr	r3, [r7, #4]
 1732 00da 1B68     		ldr	r3, [r3, #0]
 1733 00dc 1846     		mov	r0, r3
 1734 00de B968     		ldr	r1, [r7, #8]
 1735 00e0 FFF7FEFF 		bl	clust2sect
 1736 00e4 0246     		mov	r2, r0
 1737 00e6 7B88     		ldrh	r3, [r7, #2]
 1738 00e8 4FEA1313 		lsr	r3, r3, #4
 1739 00ec 9BB2     		uxth	r3, r3
 1740 00ee 1A44     		add	r2, r2, r3
 1741 00f0 7B68     		ldr	r3, [r7, #4]
 1742 00f2 1A61     		str	r2, [r3, #16]
 1743              	.L123:
 858:.\Generated_Source\PSoC5/sdlogger_1_fatfs_1_ff.c **** 	}
 859:.\Generated_Source\PSoC5/sdlogger_1_fatfs_1_ff.c **** 
 860:.\Generated_Source\PSoC5/sdlogger_1_fatfs_1_ff.c **** 	dj->dir = dj->fs->win + (idx % (SS(dj->fs) / 32)) * 32;	/* Ptr to the entry in the sector */
 1744              		.loc 1 860 0
 1745 00f4 7B68     		ldr	r3, [r7, #4]
 1746 00f6 1B68     		ldr	r3, [r3, #0]
 1747 00f8 03F13402 		add	r2, r3, #52
 1748 00fc 7B88     		ldrh	r3, [r7, #2]
 1749 00fe 03F00F03 		and	r3, r3, #15
 1750 0102 4FEA4313 		lsl	r3, r3, #5
 1751 0106 1A44     		add	r2, r2, r3
 1752 0108 7B68     		ldr	r3, [r7, #4]
 1753 010a 5A61     		str	r2, [r3, #20]
 861:.\Generated_Source\PSoC5/sdlogger_1_fatfs_1_ff.c **** 
 862:.\Generated_Source\PSoC5/sdlogger_1_fatfs_1_ff.c **** 	return FR_OK;	/* Seek succeeded */
 1754              		.loc 1 862 0
 1755 010c 4FF00003 		mov	r3, #0
 1756              	.L119:
ARM GAS  C:\Users\SUZUKI~1\AppData\Local\Temp\ccJaA83q.s 			page 47


 863:.\Generated_Source\PSoC5/sdlogger_1_fatfs_1_ff.c **** }
 1757              		.loc 1 863 0
 1758 0110 1846     		mov	r0, r3
 1759 0112 07F11007 		add	r7, r7, #16
 1760 0116 BD46     		mov	sp, r7
 1761 0118 80BD     		pop	{r7, pc}
 1762              		.cfi_endproc
 1763              	.LFE11:
 1764              		.size	dir_sdi, .-dir_sdi
 1765 011a 00BF     		.section	.text.dir_next,"ax",%progbits
 1766              		.align	2
 1767              		.thumb
 1768              		.thumb_func
 1769              		.type	dir_next, %function
 1770              	dir_next:
 1771              	.LFB12:
 864:.\Generated_Source\PSoC5/sdlogger_1_fatfs_1_ff.c **** 
 865:.\Generated_Source\PSoC5/sdlogger_1_fatfs_1_ff.c **** 
 866:.\Generated_Source\PSoC5/sdlogger_1_fatfs_1_ff.c **** 
 867:.\Generated_Source\PSoC5/sdlogger_1_fatfs_1_ff.c **** 
 868:.\Generated_Source\PSoC5/sdlogger_1_fatfs_1_ff.c **** /*-----------------------------------------------------------------------*/
 869:.\Generated_Source\PSoC5/sdlogger_1_fatfs_1_ff.c **** /* Directory handling - Move directory index next                        */
 870:.\Generated_Source\PSoC5/sdlogger_1_fatfs_1_ff.c **** /*-----------------------------------------------------------------------*/
 871:.\Generated_Source\PSoC5/sdlogger_1_fatfs_1_ff.c **** 
 872:.\Generated_Source\PSoC5/sdlogger_1_fatfs_1_ff.c **** static
 873:.\Generated_Source\PSoC5/sdlogger_1_fatfs_1_ff.c **** FRESULT dir_next (	/* FR_OK:Succeeded, FR_NO_FILE:End of table, FR_DENIED:EOT and could not stretch
 874:.\Generated_Source\PSoC5/sdlogger_1_fatfs_1_ff.c **** 	DIR *dj,		/* Pointer to directory object */
 875:.\Generated_Source\PSoC5/sdlogger_1_fatfs_1_ff.c **** 	int stretch		/* 0: Do not stretch table, 1: Stretch table if needed */
 876:.\Generated_Source\PSoC5/sdlogger_1_fatfs_1_ff.c **** )
 877:.\Generated_Source\PSoC5/sdlogger_1_fatfs_1_ff.c **** {
 1772              		.loc 1 877 0
 1773              		.cfi_startproc
 1774              		@ args = 0, pretend = 0, frame = 16
 1775              		@ frame_needed = 1, uses_anonymous_args = 0
 1776 0000 90B5     		push	{r4, r7, lr}
 1777              	.LCFI36:
 1778              		.cfi_def_cfa_offset 12
 1779 0002 85B0     		sub	sp, sp, #20
 1780              	.LCFI37:
 1781              		.cfi_def_cfa_offset 32
 1782 0004 00AF     		add	r7, sp, #0
 1783              		.cfi_offset 14, -4
 1784              		.cfi_offset 7, -8
 1785              		.cfi_offset 4, -12
 1786              	.LCFI38:
 1787              		.cfi_def_cfa_register 7
 1788 0006 7860     		str	r0, [r7, #4]
 1789 0008 3960     		str	r1, [r7, #0]
 878:.\Generated_Source\PSoC5/sdlogger_1_fatfs_1_ff.c **** 	DWORD clst;
 879:.\Generated_Source\PSoC5/sdlogger_1_fatfs_1_ff.c **** 	WORD i;
 880:.\Generated_Source\PSoC5/sdlogger_1_fatfs_1_ff.c **** 
 881:.\Generated_Source\PSoC5/sdlogger_1_fatfs_1_ff.c **** 
 882:.\Generated_Source\PSoC5/sdlogger_1_fatfs_1_ff.c **** 	i = dj->index + 1;
 1790              		.loc 1 882 0
 1791 000a 7B68     		ldr	r3, [r7, #4]
 1792 000c DB88     		ldrh	r3, [r3, #6]
 1793 000e 03F10103 		add	r3, r3, #1
ARM GAS  C:\Users\SUZUKI~1\AppData\Local\Temp\ccJaA83q.s 			page 48


 1794 0012 BB81     		strh	r3, [r7, #12]	@ movhi
 883:.\Generated_Source\PSoC5/sdlogger_1_fatfs_1_ff.c **** 	if (!i || !dj->sect)	/* Report EOT when index has reached 65535 */
 1795              		.loc 1 883 0
 1796 0014 BB89     		ldrh	r3, [r7, #12]
 1797 0016 002B     		cmp	r3, #0
 1798 0018 03D0     		beq	.L131
 1799 001a 7B68     		ldr	r3, [r7, #4]
 1800 001c 1B69     		ldr	r3, [r3, #16]
 1801 001e 002B     		cmp	r3, #0
 1802 0020 02D1     		bne	.L132
 1803              	.L131:
 884:.\Generated_Source\PSoC5/sdlogger_1_fatfs_1_ff.c **** 		return FR_NO_FILE;
 1804              		.loc 1 884 0
 1805 0022 4FF00403 		mov	r3, #4
 1806 0026 D8E0     		b	.L133
 1807              	.L132:
 885:.\Generated_Source\PSoC5/sdlogger_1_fatfs_1_ff.c **** 
 886:.\Generated_Source\PSoC5/sdlogger_1_fatfs_1_ff.c **** 	if (!(i % (SS(dj->fs) / 32))) {	/* Sector changed? */
 1808              		.loc 1 886 0
 1809 0028 BB89     		ldrh	r3, [r7, #12]
 1810 002a 03F00F03 		and	r3, r3, #15
 1811 002e 002B     		cmp	r3, #0
 1812 0030 40F0C280 		bne	.L134
 887:.\Generated_Source\PSoC5/sdlogger_1_fatfs_1_ff.c **** 		dj->sect++;					/* Next sector */
 1813              		.loc 1 887 0
 1814 0034 7B68     		ldr	r3, [r7, #4]
 1815 0036 1B69     		ldr	r3, [r3, #16]
 1816 0038 03F10102 		add	r2, r3, #1
 1817 003c 7B68     		ldr	r3, [r7, #4]
 1818 003e 1A61     		str	r2, [r3, #16]
 888:.\Generated_Source\PSoC5/sdlogger_1_fatfs_1_ff.c **** 
 889:.\Generated_Source\PSoC5/sdlogger_1_fatfs_1_ff.c **** 		if (dj->clust == 0) {	/* Static table */
 1819              		.loc 1 889 0
 1820 0040 7B68     		ldr	r3, [r7, #4]
 1821 0042 DB68     		ldr	r3, [r3, #12]
 1822 0044 002B     		cmp	r3, #0
 1823 0046 09D1     		bne	.L135
 890:.\Generated_Source\PSoC5/sdlogger_1_fatfs_1_ff.c **** 			if (i >= dj->fs->n_rootdir)	/* Report EOT when end of table */
 1824              		.loc 1 890 0
 1825 0048 7B68     		ldr	r3, [r7, #4]
 1826 004a 1B68     		ldr	r3, [r3, #0]
 1827 004c 1B89     		ldrh	r3, [r3, #8]
 1828 004e BA89     		ldrh	r2, [r7, #12]
 1829 0050 9A42     		cmp	r2, r3
 1830 0052 C0F0B080 		bcc	.L149
 891:.\Generated_Source\PSoC5/sdlogger_1_fatfs_1_ff.c **** 				return FR_NO_FILE;
 1831              		.loc 1 891 0
 1832 0056 4FF00403 		mov	r3, #4
 1833 005a BEE0     		b	.L133
 1834              	.L135:
 892:.\Generated_Source\PSoC5/sdlogger_1_fatfs_1_ff.c **** 		}
 893:.\Generated_Source\PSoC5/sdlogger_1_fatfs_1_ff.c **** 		else {					/* Dynamic table */
 894:.\Generated_Source\PSoC5/sdlogger_1_fatfs_1_ff.c **** 			if (((i / (SS(dj->fs) / 32)) & (dj->fs->csize - 1)) == 0) {	/* Cluster changed? */
 1835              		.loc 1 894 0
 1836 005c BB89     		ldrh	r3, [r7, #12]
 1837 005e 4FEA1313 		lsr	r3, r3, #4
 1838 0062 9BB2     		uxth	r3, r3
ARM GAS  C:\Users\SUZUKI~1\AppData\Local\Temp\ccJaA83q.s 			page 49


 1839 0064 1A46     		mov	r2, r3
 1840 0066 7B68     		ldr	r3, [r7, #4]
 1841 0068 1B68     		ldr	r3, [r3, #0]
 1842 006a 9B78     		ldrb	r3, [r3, #2]	@ zero_extendqisi2
 1843 006c 03F1FF33 		add	r3, r3, #-1
 1844 0070 02EA0303 		and	r3, r2, r3
 1845 0074 002B     		cmp	r3, #0
 1846 0076 40F09F80 		bne	.L134
 895:.\Generated_Source\PSoC5/sdlogger_1_fatfs_1_ff.c **** 				clst = get_fat(dj->fs, dj->clust);				/* Get next cluster */
 1847              		.loc 1 895 0
 1848 007a 7B68     		ldr	r3, [r7, #4]
 1849 007c 1A68     		ldr	r2, [r3, #0]
 1850 007e 7B68     		ldr	r3, [r7, #4]
 1851 0080 DB68     		ldr	r3, [r3, #12]
 1852 0082 1046     		mov	r0, r2
 1853 0084 1946     		mov	r1, r3
 1854 0086 FFF7FEFF 		bl	get_fat
 1855 008a 0346     		mov	r3, r0
 1856 008c BB60     		str	r3, [r7, #8]
 896:.\Generated_Source\PSoC5/sdlogger_1_fatfs_1_ff.c **** 				if (clst <= 1) return FR_INT_ERR;
 1857              		.loc 1 896 0
 1858 008e BB68     		ldr	r3, [r7, #8]
 1859 0090 012B     		cmp	r3, #1
 1860 0092 02D8     		bhi	.L137
 1861 0094 4FF00203 		mov	r3, #2
 1862 0098 9FE0     		b	.L133
 1863              	.L137:
 897:.\Generated_Source\PSoC5/sdlogger_1_fatfs_1_ff.c **** 				if (clst == 0xFFFFFFFF) return FR_DISK_ERR;
 1864              		.loc 1 897 0
 1865 009a BB68     		ldr	r3, [r7, #8]
 1866 009c B3F1FF3F 		cmp	r3, #-1
 1867 00a0 02D1     		bne	.L138
 1868 00a2 4FF00103 		mov	r3, #1
 1869 00a6 98E0     		b	.L133
 1870              	.L138:
 898:.\Generated_Source\PSoC5/sdlogger_1_fatfs_1_ff.c **** 				if (clst >= dj->fs->n_fatent) {					/* When it reached end of dynamic table */
 1871              		.loc 1 898 0
 1872 00a8 7B68     		ldr	r3, [r7, #4]
 1873 00aa 1B68     		ldr	r3, [r3, #0]
 1874 00ac DA69     		ldr	r2, [r3, #28]
 1875 00ae BB68     		ldr	r3, [r7, #8]
 1876 00b0 9A42     		cmp	r2, r3
 1877 00b2 73D8     		bhi	.L139
 1878              	.LBB3:
 899:.\Generated_Source\PSoC5/sdlogger_1_fatfs_1_ff.c **** #if !_FS_READONLY
 900:.\Generated_Source\PSoC5/sdlogger_1_fatfs_1_ff.c **** 					BYTE c;
 901:.\Generated_Source\PSoC5/sdlogger_1_fatfs_1_ff.c **** 					if (!stretch) return FR_NO_FILE;			/* When do not stretch, report EOT */
 1879              		.loc 1 901 0
 1880 00b4 3B68     		ldr	r3, [r7, #0]
 1881 00b6 002B     		cmp	r3, #0
 1882 00b8 02D1     		bne	.L140
 1883 00ba 4FF00403 		mov	r3, #4
 1884 00be 8CE0     		b	.L133
 1885              	.L140:
 902:.\Generated_Source\PSoC5/sdlogger_1_fatfs_1_ff.c **** 					clst = create_chain(dj->fs, dj->clust);		/* Stretch cluster chain */
 1886              		.loc 1 902 0
 1887 00c0 7B68     		ldr	r3, [r7, #4]
ARM GAS  C:\Users\SUZUKI~1\AppData\Local\Temp\ccJaA83q.s 			page 50


 1888 00c2 1A68     		ldr	r2, [r3, #0]
 1889 00c4 7B68     		ldr	r3, [r7, #4]
 1890 00c6 DB68     		ldr	r3, [r3, #12]
 1891 00c8 1046     		mov	r0, r2
 1892 00ca 1946     		mov	r1, r3
 1893 00cc FFF7FEFF 		bl	create_chain
 1894 00d0 0346     		mov	r3, r0
 1895 00d2 BB60     		str	r3, [r7, #8]
 903:.\Generated_Source\PSoC5/sdlogger_1_fatfs_1_ff.c **** 					if (clst == 0) return FR_DENIED;			/* No free cluster */
 1896              		.loc 1 903 0
 1897 00d4 BB68     		ldr	r3, [r7, #8]
 1898 00d6 002B     		cmp	r3, #0
 1899 00d8 02D1     		bne	.L141
 1900 00da 4FF00703 		mov	r3, #7
 1901 00de 7CE0     		b	.L133
 1902              	.L141:
 904:.\Generated_Source\PSoC5/sdlogger_1_fatfs_1_ff.c **** 					if (clst == 1) return FR_INT_ERR;
 1903              		.loc 1 904 0
 1904 00e0 BB68     		ldr	r3, [r7, #8]
 1905 00e2 012B     		cmp	r3, #1
 1906 00e4 02D1     		bne	.L142
 1907 00e6 4FF00203 		mov	r3, #2
 1908 00ea 76E0     		b	.L133
 1909              	.L142:
 905:.\Generated_Source\PSoC5/sdlogger_1_fatfs_1_ff.c **** 					if (clst == 0xFFFFFFFF) return FR_DISK_ERR;
 1910              		.loc 1 905 0
 1911 00ec BB68     		ldr	r3, [r7, #8]
 1912 00ee B3F1FF3F 		cmp	r3, #-1
 1913 00f2 02D1     		bne	.L143
 1914 00f4 4FF00103 		mov	r3, #1
 1915 00f8 6FE0     		b	.L133
 1916              	.L143:
 906:.\Generated_Source\PSoC5/sdlogger_1_fatfs_1_ff.c **** 					/* Clean-up stretched table */
 907:.\Generated_Source\PSoC5/sdlogger_1_fatfs_1_ff.c **** 					if (move_window(dj->fs, 0)) return FR_DISK_ERR;	/* Flush active window */
 1917              		.loc 1 907 0
 1918 00fa 7B68     		ldr	r3, [r7, #4]
 1919 00fc 1B68     		ldr	r3, [r3, #0]
 1920 00fe 1846     		mov	r0, r3
 1921 0100 4FF00001 		mov	r1, #0
 1922 0104 FFF7FEFF 		bl	move_window
 1923 0108 0346     		mov	r3, r0
 1924 010a 002B     		cmp	r3, #0
 1925 010c 02D0     		beq	.L144
 1926 010e 4FF00103 		mov	r3, #1
 1927 0112 62E0     		b	.L133
 1928              	.L144:
 908:.\Generated_Source\PSoC5/sdlogger_1_fatfs_1_ff.c **** 					mem_set(dj->fs->win, 0, SS(dj->fs));			/* Clear window buffer */
 1929              		.loc 1 908 0
 1930 0114 7B68     		ldr	r3, [r7, #4]
 1931 0116 1B68     		ldr	r3, [r3, #0]
 1932 0118 03F13403 		add	r3, r3, #52
 1933 011c 1846     		mov	r0, r3
 1934 011e 4FF00001 		mov	r1, #0
 1935 0122 4FF40072 		mov	r2, #512
 1936 0126 FFF7FEFF 		bl	mem_set
 909:.\Generated_Source\PSoC5/sdlogger_1_fatfs_1_ff.c **** 					dj->fs->winsect = clust2sect(dj->fs, clst);	/* Cluster start sector */
 1937              		.loc 1 909 0
ARM GAS  C:\Users\SUZUKI~1\AppData\Local\Temp\ccJaA83q.s 			page 51


 1938 012a 7B68     		ldr	r3, [r7, #4]
 1939 012c 1C68     		ldr	r4, [r3, #0]
 1940 012e 7B68     		ldr	r3, [r7, #4]
 1941 0130 1B68     		ldr	r3, [r3, #0]
 1942 0132 1846     		mov	r0, r3
 1943 0134 B968     		ldr	r1, [r7, #8]
 1944 0136 FFF7FEFF 		bl	clust2sect
 1945 013a 0346     		mov	r3, r0
 1946 013c 2363     		str	r3, [r4, #48]
 910:.\Generated_Source\PSoC5/sdlogger_1_fatfs_1_ff.c **** 					for (c = 0; c < dj->fs->csize; c++) {		/* Fill the new cluster with 0 */
 1947              		.loc 1 910 0
 1948 013e 4FF00003 		mov	r3, #0
 1949 0142 FB73     		strb	r3, [r7, #15]
 1950 0144 1BE0     		b	.L145
 1951              	.L147:
 911:.\Generated_Source\PSoC5/sdlogger_1_fatfs_1_ff.c **** 						dj->fs->wflag = 1;
 1952              		.loc 1 911 0
 1953 0146 7B68     		ldr	r3, [r7, #4]
 1954 0148 1B68     		ldr	r3, [r3, #0]
 1955 014a 4FF00102 		mov	r2, #1
 1956 014e 1A71     		strb	r2, [r3, #4]
 912:.\Generated_Source\PSoC5/sdlogger_1_fatfs_1_ff.c **** 						if (move_window(dj->fs, 0)) return FR_DISK_ERR;
 1957              		.loc 1 912 0
 1958 0150 7B68     		ldr	r3, [r7, #4]
 1959 0152 1B68     		ldr	r3, [r3, #0]
 1960 0154 1846     		mov	r0, r3
 1961 0156 4FF00001 		mov	r1, #0
 1962 015a FFF7FEFF 		bl	move_window
 1963 015e 0346     		mov	r3, r0
 1964 0160 002B     		cmp	r3, #0
 1965 0162 02D0     		beq	.L146
 1966 0164 4FF00103 		mov	r3, #1
 1967 0168 37E0     		b	.L133
 1968              	.L146:
 913:.\Generated_Source\PSoC5/sdlogger_1_fatfs_1_ff.c **** 						dj->fs->winsect++;
 1969              		.loc 1 913 0
 1970 016a 7B68     		ldr	r3, [r7, #4]
 1971 016c 1B68     		ldr	r3, [r3, #0]
 1972 016e 1A6B     		ldr	r2, [r3, #48]
 1973 0170 02F10102 		add	r2, r2, #1
 1974 0174 1A63     		str	r2, [r3, #48]
 1975              		.loc 1 910 0
 1976 0176 FB7B     		ldrb	r3, [r7, #15]
 1977 0178 03F10103 		add	r3, r3, #1
 1978 017c FB73     		strb	r3, [r7, #15]
 1979              	.L145:
 1980 017e 7B68     		ldr	r3, [r7, #4]
 1981 0180 1B68     		ldr	r3, [r3, #0]
 1982 0182 9B78     		ldrb	r3, [r3, #2]	@ zero_extendqisi2
 1983 0184 FA7B     		ldrb	r2, [r7, #15]	@ zero_extendqisi2
 1984 0186 9A42     		cmp	r2, r3
 1985 0188 DDD3     		bcc	.L147
 914:.\Generated_Source\PSoC5/sdlogger_1_fatfs_1_ff.c **** 					}
 915:.\Generated_Source\PSoC5/sdlogger_1_fatfs_1_ff.c **** 					dj->fs->winsect -= c;						/* Rewind window address */
 1986              		.loc 1 915 0
 1987 018a 7B68     		ldr	r3, [r7, #4]
 1988 018c 1B68     		ldr	r3, [r3, #0]
ARM GAS  C:\Users\SUZUKI~1\AppData\Local\Temp\ccJaA83q.s 			page 52


 1989 018e 7A68     		ldr	r2, [r7, #4]
 1990 0190 1268     		ldr	r2, [r2, #0]
 1991 0192 116B     		ldr	r1, [r2, #48]
 1992 0194 FA7B     		ldrb	r2, [r7, #15]	@ zero_extendqisi2
 1993 0196 C2EB0102 		rsb	r2, r2, r1
 1994 019a 1A63     		str	r2, [r3, #48]
 1995              	.L139:
 1996              	.LBE3:
 916:.\Generated_Source\PSoC5/sdlogger_1_fatfs_1_ff.c **** #else
 917:.\Generated_Source\PSoC5/sdlogger_1_fatfs_1_ff.c **** 					return FR_NO_FILE;			/* Report EOT */
 918:.\Generated_Source\PSoC5/sdlogger_1_fatfs_1_ff.c **** #endif
 919:.\Generated_Source\PSoC5/sdlogger_1_fatfs_1_ff.c **** 				}
 920:.\Generated_Source\PSoC5/sdlogger_1_fatfs_1_ff.c **** 				dj->clust = clst;				/* Initialize data for new cluster */
 1997              		.loc 1 920 0
 1998 019c 7B68     		ldr	r3, [r7, #4]
 1999 019e BA68     		ldr	r2, [r7, #8]
 2000 01a0 DA60     		str	r2, [r3, #12]
 921:.\Generated_Source\PSoC5/sdlogger_1_fatfs_1_ff.c **** 				dj->sect = clust2sect(dj->fs, clst);
 2001              		.loc 1 921 0
 2002 01a2 7B68     		ldr	r3, [r7, #4]
 2003 01a4 1B68     		ldr	r3, [r3, #0]
 2004 01a6 1846     		mov	r0, r3
 2005 01a8 B968     		ldr	r1, [r7, #8]
 2006 01aa FFF7FEFF 		bl	clust2sect
 2007 01ae 0246     		mov	r2, r0
 2008 01b0 7B68     		ldr	r3, [r7, #4]
 2009 01b2 1A61     		str	r2, [r3, #16]
 2010 01b4 00E0     		b	.L134
 2011              	.L149:
 2012              		.loc 1 891 0
 2013 01b6 00BF     		nop
 2014              	.L134:
 922:.\Generated_Source\PSoC5/sdlogger_1_fatfs_1_ff.c **** 			}
 923:.\Generated_Source\PSoC5/sdlogger_1_fatfs_1_ff.c **** 		}
 924:.\Generated_Source\PSoC5/sdlogger_1_fatfs_1_ff.c **** 	}
 925:.\Generated_Source\PSoC5/sdlogger_1_fatfs_1_ff.c **** 
 926:.\Generated_Source\PSoC5/sdlogger_1_fatfs_1_ff.c **** 	dj->index = i;
 2015              		.loc 1 926 0
 2016 01b8 7B68     		ldr	r3, [r7, #4]
 2017 01ba BA89     		ldrh	r2, [r7, #12]	@ movhi
 2018 01bc DA80     		strh	r2, [r3, #6]	@ movhi
 927:.\Generated_Source\PSoC5/sdlogger_1_fatfs_1_ff.c **** 	dj->dir = dj->fs->win + (i % (SS(dj->fs) / 32)) * 32;
 2019              		.loc 1 927 0
 2020 01be 7B68     		ldr	r3, [r7, #4]
 2021 01c0 1B68     		ldr	r3, [r3, #0]
 2022 01c2 03F13402 		add	r2, r3, #52
 2023 01c6 BB89     		ldrh	r3, [r7, #12]
 2024 01c8 03F00F03 		and	r3, r3, #15
 2025 01cc 4FEA4313 		lsl	r3, r3, #5
 2026 01d0 1A44     		add	r2, r2, r3
 2027 01d2 7B68     		ldr	r3, [r7, #4]
 2028 01d4 5A61     		str	r2, [r3, #20]
 928:.\Generated_Source\PSoC5/sdlogger_1_fatfs_1_ff.c **** 
 929:.\Generated_Source\PSoC5/sdlogger_1_fatfs_1_ff.c **** 	return FR_OK;
 2029              		.loc 1 929 0
 2030 01d6 4FF00003 		mov	r3, #0
 2031              	.L133:
ARM GAS  C:\Users\SUZUKI~1\AppData\Local\Temp\ccJaA83q.s 			page 53


 930:.\Generated_Source\PSoC5/sdlogger_1_fatfs_1_ff.c **** }
 2032              		.loc 1 930 0
 2033 01da 1846     		mov	r0, r3
 2034 01dc 07F11407 		add	r7, r7, #20
 2035 01e0 BD46     		mov	sp, r7
 2036 01e2 90BD     		pop	{r4, r7, pc}
 2037              		.cfi_endproc
 2038              	.LFE12:
 2039              		.size	dir_next, .-dir_next
 2040              		.section	.text.dir_find,"ax",%progbits
 2041              		.align	2
 2042              		.thumb
 2043              		.thumb_func
 2044              		.type	dir_find, %function
 2045              	dir_find:
 2046              	.LFB13:
 931:.\Generated_Source\PSoC5/sdlogger_1_fatfs_1_ff.c **** 
 932:.\Generated_Source\PSoC5/sdlogger_1_fatfs_1_ff.c **** 
 933:.\Generated_Source\PSoC5/sdlogger_1_fatfs_1_ff.c **** 
 934:.\Generated_Source\PSoC5/sdlogger_1_fatfs_1_ff.c **** 
 935:.\Generated_Source\PSoC5/sdlogger_1_fatfs_1_ff.c **** /*-----------------------------------------------------------------------*/
 936:.\Generated_Source\PSoC5/sdlogger_1_fatfs_1_ff.c **** /* LFN handling - Test/Pick/Fit an LFN segment from/to directory entry   */
 937:.\Generated_Source\PSoC5/sdlogger_1_fatfs_1_ff.c **** /*-----------------------------------------------------------------------*/
 938:.\Generated_Source\PSoC5/sdlogger_1_fatfs_1_ff.c **** #if _USE_LFN
 939:.\Generated_Source\PSoC5/sdlogger_1_fatfs_1_ff.c **** static
 940:.\Generated_Source\PSoC5/sdlogger_1_fatfs_1_ff.c **** const BYTE LfnOfs[] = {1,3,5,7,9,14,16,18,20,22,24,28,30};	/* Offset of LFN chars in the directory 
 941:.\Generated_Source\PSoC5/sdlogger_1_fatfs_1_ff.c **** 
 942:.\Generated_Source\PSoC5/sdlogger_1_fatfs_1_ff.c **** 
 943:.\Generated_Source\PSoC5/sdlogger_1_fatfs_1_ff.c **** static
 944:.\Generated_Source\PSoC5/sdlogger_1_fatfs_1_ff.c **** int cmp_lfn (			/* 1:Matched, 0:Not matched */
 945:.\Generated_Source\PSoC5/sdlogger_1_fatfs_1_ff.c **** 	WCHAR *lfnbuf,		/* Pointer to the LFN to be compared */
 946:.\Generated_Source\PSoC5/sdlogger_1_fatfs_1_ff.c **** 	BYTE *dir			/* Pointer to the directory entry containing a part of LFN */
 947:.\Generated_Source\PSoC5/sdlogger_1_fatfs_1_ff.c **** )
 948:.\Generated_Source\PSoC5/sdlogger_1_fatfs_1_ff.c **** {
 949:.\Generated_Source\PSoC5/sdlogger_1_fatfs_1_ff.c **** 	UINT i, s;
 950:.\Generated_Source\PSoC5/sdlogger_1_fatfs_1_ff.c **** 	WCHAR wc, uc;
 951:.\Generated_Source\PSoC5/sdlogger_1_fatfs_1_ff.c **** 
 952:.\Generated_Source\PSoC5/sdlogger_1_fatfs_1_ff.c **** 
 953:.\Generated_Source\PSoC5/sdlogger_1_fatfs_1_ff.c **** 	i = ((dir[LDIR_Ord] & 0xBF) - 1) * 13;	/* Get offset in the LFN buffer */
 954:.\Generated_Source\PSoC5/sdlogger_1_fatfs_1_ff.c **** 	s = 0; wc = 1;
 955:.\Generated_Source\PSoC5/sdlogger_1_fatfs_1_ff.c **** 	do {
 956:.\Generated_Source\PSoC5/sdlogger_1_fatfs_1_ff.c **** 		uc = LD_WORD(dir+LfnOfs[s]);	/* Pick an LFN character from the entry */
 957:.\Generated_Source\PSoC5/sdlogger_1_fatfs_1_ff.c **** 		if (wc) {	/* Last char has not been processed */
 958:.\Generated_Source\PSoC5/sdlogger_1_fatfs_1_ff.c **** 			wc = ff_wtoupper(uc);		/* Convert it to upper case */
 959:.\Generated_Source\PSoC5/sdlogger_1_fatfs_1_ff.c **** 			if (i >= _MAX_LFN || wc != ff_wtoupper(lfnbuf[i++]))	/* Compare it */
 960:.\Generated_Source\PSoC5/sdlogger_1_fatfs_1_ff.c **** 				return 0;				/* Not matched */
 961:.\Generated_Source\PSoC5/sdlogger_1_fatfs_1_ff.c **** 		} else {
 962:.\Generated_Source\PSoC5/sdlogger_1_fatfs_1_ff.c **** 			if (uc != 0xFFFF) return 0;	/* Check filler */
 963:.\Generated_Source\PSoC5/sdlogger_1_fatfs_1_ff.c **** 		}
 964:.\Generated_Source\PSoC5/sdlogger_1_fatfs_1_ff.c **** 	} while (++s < 13);				/* Repeat until all chars in the entry are checked */
 965:.\Generated_Source\PSoC5/sdlogger_1_fatfs_1_ff.c **** 
 966:.\Generated_Source\PSoC5/sdlogger_1_fatfs_1_ff.c **** 	if ((dir[LDIR_Ord] & 0x40) && wc && lfnbuf[i])	/* Last segment matched but different length */
 967:.\Generated_Source\PSoC5/sdlogger_1_fatfs_1_ff.c **** 		return 0;
 968:.\Generated_Source\PSoC5/sdlogger_1_fatfs_1_ff.c **** 
 969:.\Generated_Source\PSoC5/sdlogger_1_fatfs_1_ff.c **** 	return 1;						/* The part of LFN matched */
 970:.\Generated_Source\PSoC5/sdlogger_1_fatfs_1_ff.c **** }
 971:.\Generated_Source\PSoC5/sdlogger_1_fatfs_1_ff.c **** 
ARM GAS  C:\Users\SUZUKI~1\AppData\Local\Temp\ccJaA83q.s 			page 54


 972:.\Generated_Source\PSoC5/sdlogger_1_fatfs_1_ff.c **** 
 973:.\Generated_Source\PSoC5/sdlogger_1_fatfs_1_ff.c **** 
 974:.\Generated_Source\PSoC5/sdlogger_1_fatfs_1_ff.c **** static
 975:.\Generated_Source\PSoC5/sdlogger_1_fatfs_1_ff.c **** int pick_lfn (			/* 1:Succeeded, 0:Buffer overflow */
 976:.\Generated_Source\PSoC5/sdlogger_1_fatfs_1_ff.c **** 	WCHAR *lfnbuf,		/* Pointer to the Unicode-LFN buffer */
 977:.\Generated_Source\PSoC5/sdlogger_1_fatfs_1_ff.c **** 	BYTE *dir			/* Pointer to the directory entry */
 978:.\Generated_Source\PSoC5/sdlogger_1_fatfs_1_ff.c **** )
 979:.\Generated_Source\PSoC5/sdlogger_1_fatfs_1_ff.c **** {
 980:.\Generated_Source\PSoC5/sdlogger_1_fatfs_1_ff.c **** 	UINT i, s;
 981:.\Generated_Source\PSoC5/sdlogger_1_fatfs_1_ff.c **** 	WCHAR wc, uc;
 982:.\Generated_Source\PSoC5/sdlogger_1_fatfs_1_ff.c **** 
 983:.\Generated_Source\PSoC5/sdlogger_1_fatfs_1_ff.c **** 
 984:.\Generated_Source\PSoC5/sdlogger_1_fatfs_1_ff.c **** 	i = ((dir[LDIR_Ord] & 0x3F) - 1) * 13;	/* Offset in the LFN buffer */
 985:.\Generated_Source\PSoC5/sdlogger_1_fatfs_1_ff.c **** 
 986:.\Generated_Source\PSoC5/sdlogger_1_fatfs_1_ff.c **** 	s = 0; wc = 1;
 987:.\Generated_Source\PSoC5/sdlogger_1_fatfs_1_ff.c **** 	do {
 988:.\Generated_Source\PSoC5/sdlogger_1_fatfs_1_ff.c **** 		uc = LD_WORD(dir+LfnOfs[s]);		/* Pick an LFN character from the entry */
 989:.\Generated_Source\PSoC5/sdlogger_1_fatfs_1_ff.c **** 		if (wc) {	/* Last char has not been processed */
 990:.\Generated_Source\PSoC5/sdlogger_1_fatfs_1_ff.c **** 			if (i >= _MAX_LFN) return 0;	/* Buffer overflow? */
 991:.\Generated_Source\PSoC5/sdlogger_1_fatfs_1_ff.c **** 			lfnbuf[i++] = wc = uc;			/* Store it */
 992:.\Generated_Source\PSoC5/sdlogger_1_fatfs_1_ff.c **** 		} else {
 993:.\Generated_Source\PSoC5/sdlogger_1_fatfs_1_ff.c **** 			if (uc != 0xFFFF) return 0;		/* Check filler */
 994:.\Generated_Source\PSoC5/sdlogger_1_fatfs_1_ff.c **** 		}
 995:.\Generated_Source\PSoC5/sdlogger_1_fatfs_1_ff.c **** 	} while (++s < 13);						/* Read all character in the entry */
 996:.\Generated_Source\PSoC5/sdlogger_1_fatfs_1_ff.c **** 
 997:.\Generated_Source\PSoC5/sdlogger_1_fatfs_1_ff.c **** 	if (dir[LDIR_Ord] & 0x40) {				/* Put terminator if it is the last LFN part */
 998:.\Generated_Source\PSoC5/sdlogger_1_fatfs_1_ff.c **** 		if (i >= _MAX_LFN) return 0;		/* Buffer overflow? */
 999:.\Generated_Source\PSoC5/sdlogger_1_fatfs_1_ff.c **** 		lfnbuf[i] = 0;
1000:.\Generated_Source\PSoC5/sdlogger_1_fatfs_1_ff.c **** 	}
1001:.\Generated_Source\PSoC5/sdlogger_1_fatfs_1_ff.c **** 
1002:.\Generated_Source\PSoC5/sdlogger_1_fatfs_1_ff.c **** 	return 1;
1003:.\Generated_Source\PSoC5/sdlogger_1_fatfs_1_ff.c **** }
1004:.\Generated_Source\PSoC5/sdlogger_1_fatfs_1_ff.c **** 
1005:.\Generated_Source\PSoC5/sdlogger_1_fatfs_1_ff.c **** 
1006:.\Generated_Source\PSoC5/sdlogger_1_fatfs_1_ff.c **** #if !_FS_READONLY
1007:.\Generated_Source\PSoC5/sdlogger_1_fatfs_1_ff.c **** static
1008:.\Generated_Source\PSoC5/sdlogger_1_fatfs_1_ff.c **** void fit_lfn (
1009:.\Generated_Source\PSoC5/sdlogger_1_fatfs_1_ff.c **** 	const WCHAR *lfnbuf,	/* Pointer to the LFN buffer */
1010:.\Generated_Source\PSoC5/sdlogger_1_fatfs_1_ff.c **** 	BYTE *dir,				/* Pointer to the directory entry */
1011:.\Generated_Source\PSoC5/sdlogger_1_fatfs_1_ff.c **** 	BYTE ord,				/* LFN order (1-20) */
1012:.\Generated_Source\PSoC5/sdlogger_1_fatfs_1_ff.c **** 	BYTE sum				/* SFN sum */
1013:.\Generated_Source\PSoC5/sdlogger_1_fatfs_1_ff.c **** )
1014:.\Generated_Source\PSoC5/sdlogger_1_fatfs_1_ff.c **** {
1015:.\Generated_Source\PSoC5/sdlogger_1_fatfs_1_ff.c **** 	UINT i, s;
1016:.\Generated_Source\PSoC5/sdlogger_1_fatfs_1_ff.c **** 	WCHAR wc;
1017:.\Generated_Source\PSoC5/sdlogger_1_fatfs_1_ff.c **** 
1018:.\Generated_Source\PSoC5/sdlogger_1_fatfs_1_ff.c **** 
1019:.\Generated_Source\PSoC5/sdlogger_1_fatfs_1_ff.c **** 	dir[LDIR_Chksum] = sum;			/* Set check sum */
1020:.\Generated_Source\PSoC5/sdlogger_1_fatfs_1_ff.c **** 	dir[LDIR_Attr] = AM_LFN;		/* Set attribute. LFN entry */
1021:.\Generated_Source\PSoC5/sdlogger_1_fatfs_1_ff.c **** 	dir[LDIR_Type] = 0;
1022:.\Generated_Source\PSoC5/sdlogger_1_fatfs_1_ff.c **** 	ST_WORD(dir+LDIR_FstClusLO, 0);
1023:.\Generated_Source\PSoC5/sdlogger_1_fatfs_1_ff.c **** 
1024:.\Generated_Source\PSoC5/sdlogger_1_fatfs_1_ff.c **** 	i = (ord - 1) * 13;				/* Get offset in the LFN buffer */
1025:.\Generated_Source\PSoC5/sdlogger_1_fatfs_1_ff.c **** 	s = wc = 0;
1026:.\Generated_Source\PSoC5/sdlogger_1_fatfs_1_ff.c **** 	do {
1027:.\Generated_Source\PSoC5/sdlogger_1_fatfs_1_ff.c **** 		if (wc != 0xFFFF) wc = lfnbuf[i++];	/* Get an effective char */
1028:.\Generated_Source\PSoC5/sdlogger_1_fatfs_1_ff.c **** 		ST_WORD(dir+LfnOfs[s], wc);	/* Put it */
ARM GAS  C:\Users\SUZUKI~1\AppData\Local\Temp\ccJaA83q.s 			page 55


1029:.\Generated_Source\PSoC5/sdlogger_1_fatfs_1_ff.c **** 		if (!wc) wc = 0xFFFF;		/* Padding chars following last char */
1030:.\Generated_Source\PSoC5/sdlogger_1_fatfs_1_ff.c **** 	} while (++s < 13);
1031:.\Generated_Source\PSoC5/sdlogger_1_fatfs_1_ff.c **** 	if (wc == 0xFFFF || !lfnbuf[i]) ord |= 0x40;	/* Bottom LFN part is the start of LFN sequence */
1032:.\Generated_Source\PSoC5/sdlogger_1_fatfs_1_ff.c **** 	dir[LDIR_Ord] = ord;			/* Set the LFN order */
1033:.\Generated_Source\PSoC5/sdlogger_1_fatfs_1_ff.c **** }
1034:.\Generated_Source\PSoC5/sdlogger_1_fatfs_1_ff.c **** 
1035:.\Generated_Source\PSoC5/sdlogger_1_fatfs_1_ff.c **** #endif
1036:.\Generated_Source\PSoC5/sdlogger_1_fatfs_1_ff.c **** #endif
1037:.\Generated_Source\PSoC5/sdlogger_1_fatfs_1_ff.c **** 
1038:.\Generated_Source\PSoC5/sdlogger_1_fatfs_1_ff.c **** 
1039:.\Generated_Source\PSoC5/sdlogger_1_fatfs_1_ff.c **** 
1040:.\Generated_Source\PSoC5/sdlogger_1_fatfs_1_ff.c **** /*-----------------------------------------------------------------------*/
1041:.\Generated_Source\PSoC5/sdlogger_1_fatfs_1_ff.c **** /* Create numbered name                                                  */
1042:.\Generated_Source\PSoC5/sdlogger_1_fatfs_1_ff.c **** /*-----------------------------------------------------------------------*/
1043:.\Generated_Source\PSoC5/sdlogger_1_fatfs_1_ff.c **** #if _USE_LFN
1044:.\Generated_Source\PSoC5/sdlogger_1_fatfs_1_ff.c **** void gen_numname (
1045:.\Generated_Source\PSoC5/sdlogger_1_fatfs_1_ff.c **** 	BYTE *dst,			/* Pointer to generated SFN */
1046:.\Generated_Source\PSoC5/sdlogger_1_fatfs_1_ff.c **** 	const BYTE *src,	/* Pointer to source SFN to be modified */
1047:.\Generated_Source\PSoC5/sdlogger_1_fatfs_1_ff.c **** 	const WCHAR *lfn,	/* Pointer to LFN */
1048:.\Generated_Source\PSoC5/sdlogger_1_fatfs_1_ff.c **** 	WORD seq			/* Sequence number */
1049:.\Generated_Source\PSoC5/sdlogger_1_fatfs_1_ff.c **** )
1050:.\Generated_Source\PSoC5/sdlogger_1_fatfs_1_ff.c **** {
1051:.\Generated_Source\PSoC5/sdlogger_1_fatfs_1_ff.c **** 	BYTE ns[8], c;
1052:.\Generated_Source\PSoC5/sdlogger_1_fatfs_1_ff.c **** 	UINT i, j;
1053:.\Generated_Source\PSoC5/sdlogger_1_fatfs_1_ff.c **** 
1054:.\Generated_Source\PSoC5/sdlogger_1_fatfs_1_ff.c **** 
1055:.\Generated_Source\PSoC5/sdlogger_1_fatfs_1_ff.c **** 	mem_cpy(dst, src, 11);
1056:.\Generated_Source\PSoC5/sdlogger_1_fatfs_1_ff.c **** 
1057:.\Generated_Source\PSoC5/sdlogger_1_fatfs_1_ff.c **** 	if (seq > 5) {	/* On many collisions, generate a hash number instead of sequential number */
1058:.\Generated_Source\PSoC5/sdlogger_1_fatfs_1_ff.c **** 		do seq = (seq >> 1) + (seq << 15) + (WORD)*lfn++; while (*lfn);
1059:.\Generated_Source\PSoC5/sdlogger_1_fatfs_1_ff.c **** 	}
1060:.\Generated_Source\PSoC5/sdlogger_1_fatfs_1_ff.c **** 
1061:.\Generated_Source\PSoC5/sdlogger_1_fatfs_1_ff.c **** 	/* itoa */
1062:.\Generated_Source\PSoC5/sdlogger_1_fatfs_1_ff.c **** 	i = 7;
1063:.\Generated_Source\PSoC5/sdlogger_1_fatfs_1_ff.c **** 	do {
1064:.\Generated_Source\PSoC5/sdlogger_1_fatfs_1_ff.c **** 		c = (seq % 16) + '0';
1065:.\Generated_Source\PSoC5/sdlogger_1_fatfs_1_ff.c **** 		if (c > '9') c += 7;
1066:.\Generated_Source\PSoC5/sdlogger_1_fatfs_1_ff.c **** 		ns[i--] = c;
1067:.\Generated_Source\PSoC5/sdlogger_1_fatfs_1_ff.c **** 		seq /= 16;
1068:.\Generated_Source\PSoC5/sdlogger_1_fatfs_1_ff.c **** 	} while (seq);
1069:.\Generated_Source\PSoC5/sdlogger_1_fatfs_1_ff.c **** 	ns[i] = '~';
1070:.\Generated_Source\PSoC5/sdlogger_1_fatfs_1_ff.c **** 
1071:.\Generated_Source\PSoC5/sdlogger_1_fatfs_1_ff.c **** 	/* Append the number */
1072:.\Generated_Source\PSoC5/sdlogger_1_fatfs_1_ff.c **** 	for (j = 0; j < i && dst[j] != ' '; j++) {
1073:.\Generated_Source\PSoC5/sdlogger_1_fatfs_1_ff.c **** 		if (IsDBCS1(dst[j])) {
1074:.\Generated_Source\PSoC5/sdlogger_1_fatfs_1_ff.c **** 			if (j == i - 1) break;
1075:.\Generated_Source\PSoC5/sdlogger_1_fatfs_1_ff.c **** 			j++;
1076:.\Generated_Source\PSoC5/sdlogger_1_fatfs_1_ff.c **** 		}
1077:.\Generated_Source\PSoC5/sdlogger_1_fatfs_1_ff.c **** 	}
1078:.\Generated_Source\PSoC5/sdlogger_1_fatfs_1_ff.c **** 	do {
1079:.\Generated_Source\PSoC5/sdlogger_1_fatfs_1_ff.c **** 		dst[j++] = (i < 8) ? ns[i++] : ' ';
1080:.\Generated_Source\PSoC5/sdlogger_1_fatfs_1_ff.c **** 	} while (j < 8);
1081:.\Generated_Source\PSoC5/sdlogger_1_fatfs_1_ff.c **** }
1082:.\Generated_Source\PSoC5/sdlogger_1_fatfs_1_ff.c **** #endif
1083:.\Generated_Source\PSoC5/sdlogger_1_fatfs_1_ff.c **** 
1084:.\Generated_Source\PSoC5/sdlogger_1_fatfs_1_ff.c **** 
1085:.\Generated_Source\PSoC5/sdlogger_1_fatfs_1_ff.c **** 
ARM GAS  C:\Users\SUZUKI~1\AppData\Local\Temp\ccJaA83q.s 			page 56


1086:.\Generated_Source\PSoC5/sdlogger_1_fatfs_1_ff.c **** 
1087:.\Generated_Source\PSoC5/sdlogger_1_fatfs_1_ff.c **** /*-----------------------------------------------------------------------*/
1088:.\Generated_Source\PSoC5/sdlogger_1_fatfs_1_ff.c **** /* Calculate sum of an SFN                                               */
1089:.\Generated_Source\PSoC5/sdlogger_1_fatfs_1_ff.c **** /*-----------------------------------------------------------------------*/
1090:.\Generated_Source\PSoC5/sdlogger_1_fatfs_1_ff.c **** #if _USE_LFN
1091:.\Generated_Source\PSoC5/sdlogger_1_fatfs_1_ff.c **** static
1092:.\Generated_Source\PSoC5/sdlogger_1_fatfs_1_ff.c **** BYTE sum_sfn (
1093:.\Generated_Source\PSoC5/sdlogger_1_fatfs_1_ff.c **** 	const BYTE *dir		/* Ptr to directory entry */
1094:.\Generated_Source\PSoC5/sdlogger_1_fatfs_1_ff.c **** )
1095:.\Generated_Source\PSoC5/sdlogger_1_fatfs_1_ff.c **** {
1096:.\Generated_Source\PSoC5/sdlogger_1_fatfs_1_ff.c **** 	BYTE sum = 0;
1097:.\Generated_Source\PSoC5/sdlogger_1_fatfs_1_ff.c **** 	UINT n = 11;
1098:.\Generated_Source\PSoC5/sdlogger_1_fatfs_1_ff.c **** 
1099:.\Generated_Source\PSoC5/sdlogger_1_fatfs_1_ff.c **** 	do sum = (sum >> 1) + (sum << 7) + *dir++; while (--n);
1100:.\Generated_Source\PSoC5/sdlogger_1_fatfs_1_ff.c **** 	return sum;
1101:.\Generated_Source\PSoC5/sdlogger_1_fatfs_1_ff.c **** }
1102:.\Generated_Source\PSoC5/sdlogger_1_fatfs_1_ff.c **** #endif
1103:.\Generated_Source\PSoC5/sdlogger_1_fatfs_1_ff.c **** 
1104:.\Generated_Source\PSoC5/sdlogger_1_fatfs_1_ff.c **** 
1105:.\Generated_Source\PSoC5/sdlogger_1_fatfs_1_ff.c **** 
1106:.\Generated_Source\PSoC5/sdlogger_1_fatfs_1_ff.c **** 
1107:.\Generated_Source\PSoC5/sdlogger_1_fatfs_1_ff.c **** /*-----------------------------------------------------------------------*/
1108:.\Generated_Source\PSoC5/sdlogger_1_fatfs_1_ff.c **** /* Directory handling - Find an object in the directory                  */
1109:.\Generated_Source\PSoC5/sdlogger_1_fatfs_1_ff.c **** /*-----------------------------------------------------------------------*/
1110:.\Generated_Source\PSoC5/sdlogger_1_fatfs_1_ff.c **** 
1111:.\Generated_Source\PSoC5/sdlogger_1_fatfs_1_ff.c **** static
1112:.\Generated_Source\PSoC5/sdlogger_1_fatfs_1_ff.c **** FRESULT dir_find (
1113:.\Generated_Source\PSoC5/sdlogger_1_fatfs_1_ff.c **** 	DIR *dj			/* Pointer to the directory object linked to the file name */
1114:.\Generated_Source\PSoC5/sdlogger_1_fatfs_1_ff.c **** )
1115:.\Generated_Source\PSoC5/sdlogger_1_fatfs_1_ff.c **** {
 2047              		.loc 1 1115 0
 2048              		.cfi_startproc
 2049              		@ args = 0, pretend = 0, frame = 16
 2050              		@ frame_needed = 1, uses_anonymous_args = 0
 2051 0000 80B5     		push	{r7, lr}
 2052              	.LCFI39:
 2053              		.cfi_def_cfa_offset 8
 2054 0002 84B0     		sub	sp, sp, #16
 2055              	.LCFI40:
 2056              		.cfi_def_cfa_offset 24
 2057 0004 00AF     		add	r7, sp, #0
 2058              		.cfi_offset 14, -4
 2059              		.cfi_offset 7, -8
 2060              	.LCFI41:
 2061              		.cfi_def_cfa_register 7
 2062 0006 7860     		str	r0, [r7, #4]
1116:.\Generated_Source\PSoC5/sdlogger_1_fatfs_1_ff.c **** 	FRESULT res;
1117:.\Generated_Source\PSoC5/sdlogger_1_fatfs_1_ff.c **** 	BYTE c, *dir;
1118:.\Generated_Source\PSoC5/sdlogger_1_fatfs_1_ff.c **** #if _USE_LFN
1119:.\Generated_Source\PSoC5/sdlogger_1_fatfs_1_ff.c **** 	BYTE a, ord, sum;
1120:.\Generated_Source\PSoC5/sdlogger_1_fatfs_1_ff.c **** #endif
1121:.\Generated_Source\PSoC5/sdlogger_1_fatfs_1_ff.c **** 
1122:.\Generated_Source\PSoC5/sdlogger_1_fatfs_1_ff.c **** 	res = dir_sdi(dj, 0);			/* Rewind directory object */
 2063              		.loc 1 1122 0
 2064 0008 7868     		ldr	r0, [r7, #4]
 2065 000a 4FF00001 		mov	r1, #0
 2066 000e FFF7FEFF 		bl	dir_sdi
ARM GAS  C:\Users\SUZUKI~1\AppData\Local\Temp\ccJaA83q.s 			page 57


 2067 0012 0346     		mov	r3, r0
 2068 0014 BB72     		strb	r3, [r7, #10]
1123:.\Generated_Source\PSoC5/sdlogger_1_fatfs_1_ff.c **** 	if (res != FR_OK) return res;
 2069              		.loc 1 1123 0
 2070 0016 BB7A     		ldrb	r3, [r7, #10]	@ zero_extendqisi2
 2071 0018 002B     		cmp	r3, #0
 2072 001a 01D0     		beq	.L151
 2073 001c BB7A     		ldrb	r3, [r7, #10]	@ zero_extendqisi2
 2074 001e 3BE0     		b	.L152
 2075              	.L151:
1124:.\Generated_Source\PSoC5/sdlogger_1_fatfs_1_ff.c **** 
1125:.\Generated_Source\PSoC5/sdlogger_1_fatfs_1_ff.c **** #if _USE_LFN
1126:.\Generated_Source\PSoC5/sdlogger_1_fatfs_1_ff.c **** 	ord = sum = 0xFF;
1127:.\Generated_Source\PSoC5/sdlogger_1_fatfs_1_ff.c **** #endif
1128:.\Generated_Source\PSoC5/sdlogger_1_fatfs_1_ff.c **** 	do {
1129:.\Generated_Source\PSoC5/sdlogger_1_fatfs_1_ff.c **** 		res = move_window(dj->fs, dj->sect);
 2076              		.loc 1 1129 0
 2077 0020 7B68     		ldr	r3, [r7, #4]
 2078 0022 1A68     		ldr	r2, [r3, #0]
 2079 0024 7B68     		ldr	r3, [r7, #4]
 2080 0026 1B69     		ldr	r3, [r3, #16]
 2081 0028 1046     		mov	r0, r2
 2082 002a 1946     		mov	r1, r3
 2083 002c FFF7FEFF 		bl	move_window
 2084 0030 0346     		mov	r3, r0
 2085 0032 BB72     		strb	r3, [r7, #10]
1130:.\Generated_Source\PSoC5/sdlogger_1_fatfs_1_ff.c **** 		if (res != FR_OK) break;
 2086              		.loc 1 1130 0
 2087 0034 BB7A     		ldrb	r3, [r7, #10]	@ zero_extendqisi2
 2088 0036 002B     		cmp	r3, #0
 2089 0038 2AD1     		bne	.L158
 2090              	.L153:
1131:.\Generated_Source\PSoC5/sdlogger_1_fatfs_1_ff.c **** 		dir = dj->dir;					/* Ptr to the directory entry of current index */
 2091              		.loc 1 1131 0
 2092 003a 7B68     		ldr	r3, [r7, #4]
 2093 003c 5B69     		ldr	r3, [r3, #20]
 2094 003e FB60     		str	r3, [r7, #12]
1132:.\Generated_Source\PSoC5/sdlogger_1_fatfs_1_ff.c **** 		c = dir[DIR_Name];
 2095              		.loc 1 1132 0
 2096 0040 FB68     		ldr	r3, [r7, #12]
 2097 0042 1B78     		ldrb	r3, [r3, #0]
 2098 0044 FB72     		strb	r3, [r7, #11]
1133:.\Generated_Source\PSoC5/sdlogger_1_fatfs_1_ff.c **** 		if (c == 0) { res = FR_NO_FILE; break; }	/* Reached to end of table */
 2099              		.loc 1 1133 0
 2100 0046 FB7A     		ldrb	r3, [r7, #11]	@ zero_extendqisi2
 2101 0048 002B     		cmp	r3, #0
 2102 004a 03D1     		bne	.L155
 2103 004c 4FF00403 		mov	r3, #4
 2104 0050 BB72     		strb	r3, [r7, #10]
 2105 0052 20E0     		b	.L154
 2106              	.L155:
1134:.\Generated_Source\PSoC5/sdlogger_1_fatfs_1_ff.c **** #if _USE_LFN	/* LFN configuration */
1135:.\Generated_Source\PSoC5/sdlogger_1_fatfs_1_ff.c **** 		a = dir[DIR_Attr] & AM_MASK;
1136:.\Generated_Source\PSoC5/sdlogger_1_fatfs_1_ff.c **** 		if (c == 0xE5 || ((a & AM_VOL) && a != AM_LFN)) {	/* An entry without valid data */
1137:.\Generated_Source\PSoC5/sdlogger_1_fatfs_1_ff.c **** 			ord = 0xFF;
1138:.\Generated_Source\PSoC5/sdlogger_1_fatfs_1_ff.c **** 		} else {
1139:.\Generated_Source\PSoC5/sdlogger_1_fatfs_1_ff.c **** 			if (a == AM_LFN) {			/* An LFN entry is found */
ARM GAS  C:\Users\SUZUKI~1\AppData\Local\Temp\ccJaA83q.s 			page 58


1140:.\Generated_Source\PSoC5/sdlogger_1_fatfs_1_ff.c **** 				if (dj->lfn) {
1141:.\Generated_Source\PSoC5/sdlogger_1_fatfs_1_ff.c **** 					if (c & 0x40) {		/* Is it start of LFN sequence? */
1142:.\Generated_Source\PSoC5/sdlogger_1_fatfs_1_ff.c **** 						sum = dir[LDIR_Chksum];
1143:.\Generated_Source\PSoC5/sdlogger_1_fatfs_1_ff.c **** 						c &= 0xBF; ord = c;	/* LFN start order */
1144:.\Generated_Source\PSoC5/sdlogger_1_fatfs_1_ff.c **** 						dj->lfn_idx = dj->index;
1145:.\Generated_Source\PSoC5/sdlogger_1_fatfs_1_ff.c **** 					}
1146:.\Generated_Source\PSoC5/sdlogger_1_fatfs_1_ff.c **** 					/* Check validity of the LFN entry and compare it with given name */
1147:.\Generated_Source\PSoC5/sdlogger_1_fatfs_1_ff.c **** 					ord = (c == ord && sum == dir[LDIR_Chksum] && cmp_lfn(dj->lfn, dir)) ? ord - 1 : 0xFF;
1148:.\Generated_Source\PSoC5/sdlogger_1_fatfs_1_ff.c **** 				}
1149:.\Generated_Source\PSoC5/sdlogger_1_fatfs_1_ff.c **** 			} else {					/* An SFN entry is found */
1150:.\Generated_Source\PSoC5/sdlogger_1_fatfs_1_ff.c **** 				if (!ord && sum == sum_sfn(dir)) break;	/* LFN matched? */
1151:.\Generated_Source\PSoC5/sdlogger_1_fatfs_1_ff.c **** 				ord = 0xFF; dj->lfn_idx = 0xFFFF;	/* Reset LFN sequence */
1152:.\Generated_Source\PSoC5/sdlogger_1_fatfs_1_ff.c **** 				if (!(dj->fn[NS] & NS_LOSS) && !mem_cmp(dir, dj->fn, 11)) break;	/* SFN matched? */
1153:.\Generated_Source\PSoC5/sdlogger_1_fatfs_1_ff.c **** 			}
1154:.\Generated_Source\PSoC5/sdlogger_1_fatfs_1_ff.c **** 		}
1155:.\Generated_Source\PSoC5/sdlogger_1_fatfs_1_ff.c **** #else		/* Non LFN configuration */
1156:.\Generated_Source\PSoC5/sdlogger_1_fatfs_1_ff.c **** 		if (!(dir[DIR_Attr] & AM_VOL) && !mem_cmp(dir, dj->fn, 11)) /* Is it a valid entry? */
 2107              		.loc 1 1156 0
 2108 0054 FB68     		ldr	r3, [r7, #12]
 2109 0056 03F10B03 		add	r3, r3, #11
 2110 005a 1B78     		ldrb	r3, [r3, #0]	@ zero_extendqisi2
 2111 005c 03F00803 		and	r3, r3, #8
 2112 0060 002B     		cmp	r3, #0
 2113 0062 0AD1     		bne	.L156
 2114 0064 7B68     		ldr	r3, [r7, #4]
 2115 0066 9B69     		ldr	r3, [r3, #24]
 2116 0068 F868     		ldr	r0, [r7, #12]
 2117 006a 1946     		mov	r1, r3
 2118 006c 4FF00B02 		mov	r2, #11
 2119 0070 FFF7FEFF 		bl	mem_cmp
 2120 0074 0346     		mov	r3, r0
 2121 0076 002B     		cmp	r3, #0
 2122 0078 0CD0     		beq	.L159
 2123              	.L156:
1157:.\Generated_Source\PSoC5/sdlogger_1_fatfs_1_ff.c **** 			break;
1158:.\Generated_Source\PSoC5/sdlogger_1_fatfs_1_ff.c **** #endif
1159:.\Generated_Source\PSoC5/sdlogger_1_fatfs_1_ff.c **** 		res = dir_next(dj, 0);		/* Next entry */
 2124              		.loc 1 1159 0
 2125 007a 7868     		ldr	r0, [r7, #4]
 2126 007c 4FF00001 		mov	r1, #0
 2127 0080 FFF7FEFF 		bl	dir_next
 2128 0084 0346     		mov	r3, r0
 2129 0086 BB72     		strb	r3, [r7, #10]
1160:.\Generated_Source\PSoC5/sdlogger_1_fatfs_1_ff.c **** 	} while (res == FR_OK);
 2130              		.loc 1 1160 0
 2131 0088 BB7A     		ldrb	r3, [r7, #10]	@ zero_extendqisi2
 2132 008a 002B     		cmp	r3, #0
 2133 008c C8D0     		beq	.L151
 2134 008e 02E0     		b	.L154
 2135              	.L158:
 2136              		.loc 1 1130 0
 2137 0090 00BF     		nop
 2138 0092 00E0     		b	.L154
 2139              	.L159:
 2140              		.loc 1 1157 0
 2141 0094 00BF     		nop
 2142              	.L154:
ARM GAS  C:\Users\SUZUKI~1\AppData\Local\Temp\ccJaA83q.s 			page 59


1161:.\Generated_Source\PSoC5/sdlogger_1_fatfs_1_ff.c **** 
1162:.\Generated_Source\PSoC5/sdlogger_1_fatfs_1_ff.c **** 	return res;
 2143              		.loc 1 1162 0
 2144 0096 BB7A     		ldrb	r3, [r7, #10]	@ zero_extendqisi2
 2145              	.L152:
1163:.\Generated_Source\PSoC5/sdlogger_1_fatfs_1_ff.c **** }
 2146              		.loc 1 1163 0
 2147 0098 1846     		mov	r0, r3
 2148 009a 07F11007 		add	r7, r7, #16
 2149 009e BD46     		mov	sp, r7
 2150 00a0 80BD     		pop	{r7, pc}
 2151              		.cfi_endproc
 2152              	.LFE13:
 2153              		.size	dir_find, .-dir_find
 2154 00a2 00BF     		.section	.text.dir_read,"ax",%progbits
 2155              		.align	2
 2156              		.thumb
 2157              		.thumb_func
 2158              		.type	dir_read, %function
 2159              	dir_read:
 2160              	.LFB14:
1164:.\Generated_Source\PSoC5/sdlogger_1_fatfs_1_ff.c **** 
1165:.\Generated_Source\PSoC5/sdlogger_1_fatfs_1_ff.c **** 
1166:.\Generated_Source\PSoC5/sdlogger_1_fatfs_1_ff.c **** 
1167:.\Generated_Source\PSoC5/sdlogger_1_fatfs_1_ff.c **** 
1168:.\Generated_Source\PSoC5/sdlogger_1_fatfs_1_ff.c **** /*-----------------------------------------------------------------------*/
1169:.\Generated_Source\PSoC5/sdlogger_1_fatfs_1_ff.c **** /* Read an object from the directory                                     */
1170:.\Generated_Source\PSoC5/sdlogger_1_fatfs_1_ff.c **** /*-----------------------------------------------------------------------*/
1171:.\Generated_Source\PSoC5/sdlogger_1_fatfs_1_ff.c **** #if _FS_MINIMIZE <= 1
1172:.\Generated_Source\PSoC5/sdlogger_1_fatfs_1_ff.c **** static
1173:.\Generated_Source\PSoC5/sdlogger_1_fatfs_1_ff.c **** FRESULT dir_read (
1174:.\Generated_Source\PSoC5/sdlogger_1_fatfs_1_ff.c **** 	DIR *dj			/* Pointer to the directory object that pointing the entry to be read */
1175:.\Generated_Source\PSoC5/sdlogger_1_fatfs_1_ff.c **** )
1176:.\Generated_Source\PSoC5/sdlogger_1_fatfs_1_ff.c **** {
 2161              		.loc 1 1176 0
 2162              		.cfi_startproc
 2163              		@ args = 0, pretend = 0, frame = 16
 2164              		@ frame_needed = 1, uses_anonymous_args = 0
 2165 0000 80B5     		push	{r7, lr}
 2166              	.LCFI42:
 2167              		.cfi_def_cfa_offset 8
 2168 0002 84B0     		sub	sp, sp, #16
 2169              	.LCFI43:
 2170              		.cfi_def_cfa_offset 24
 2171 0004 00AF     		add	r7, sp, #0
 2172              		.cfi_offset 14, -4
 2173              		.cfi_offset 7, -8
 2174              	.LCFI44:
 2175              		.cfi_def_cfa_register 7
 2176 0006 7860     		str	r0, [r7, #4]
1177:.\Generated_Source\PSoC5/sdlogger_1_fatfs_1_ff.c **** 	FRESULT res;
1178:.\Generated_Source\PSoC5/sdlogger_1_fatfs_1_ff.c **** 	BYTE c, *dir;
1179:.\Generated_Source\PSoC5/sdlogger_1_fatfs_1_ff.c **** #if _USE_LFN
1180:.\Generated_Source\PSoC5/sdlogger_1_fatfs_1_ff.c **** 	BYTE a, ord = 0xFF, sum = 0xFF;
1181:.\Generated_Source\PSoC5/sdlogger_1_fatfs_1_ff.c **** #endif
1182:.\Generated_Source\PSoC5/sdlogger_1_fatfs_1_ff.c **** 
1183:.\Generated_Source\PSoC5/sdlogger_1_fatfs_1_ff.c **** 	res = FR_NO_FILE;
ARM GAS  C:\Users\SUZUKI~1\AppData\Local\Temp\ccJaA83q.s 			page 60


 2177              		.loc 1 1183 0
 2178 0008 4FF00403 		mov	r3, #4
 2179 000c BB72     		strb	r3, [r7, #10]
1184:.\Generated_Source\PSoC5/sdlogger_1_fatfs_1_ff.c **** 	while (dj->sect) {
 2180              		.loc 1 1184 0
 2181 000e 2EE0     		b	.L161
 2182              	.L166:
1185:.\Generated_Source\PSoC5/sdlogger_1_fatfs_1_ff.c **** 		res = move_window(dj->fs, dj->sect);
 2183              		.loc 1 1185 0
 2184 0010 7B68     		ldr	r3, [r7, #4]
 2185 0012 1A68     		ldr	r2, [r3, #0]
 2186 0014 7B68     		ldr	r3, [r7, #4]
 2187 0016 1B69     		ldr	r3, [r3, #16]
 2188 0018 1046     		mov	r0, r2
 2189 001a 1946     		mov	r1, r3
 2190 001c FFF7FEFF 		bl	move_window
 2191 0020 0346     		mov	r3, r0
 2192 0022 BB72     		strb	r3, [r7, #10]
1186:.\Generated_Source\PSoC5/sdlogger_1_fatfs_1_ff.c **** 		if (res != FR_OK) break;
 2193              		.loc 1 1186 0
 2194 0024 BB7A     		ldrb	r3, [r7, #10]	@ zero_extendqisi2
 2195 0026 002B     		cmp	r3, #0
 2196 0028 26D1     		bne	.L169
 2197              	.L162:
1187:.\Generated_Source\PSoC5/sdlogger_1_fatfs_1_ff.c **** 		dir = dj->dir;					/* Ptr to the directory entry of current index */
 2198              		.loc 1 1187 0
 2199 002a 7B68     		ldr	r3, [r7, #4]
 2200 002c 5B69     		ldr	r3, [r3, #20]
 2201 002e FB60     		str	r3, [r7, #12]
1188:.\Generated_Source\PSoC5/sdlogger_1_fatfs_1_ff.c **** 		c = dir[DIR_Name];
 2202              		.loc 1 1188 0
 2203 0030 FB68     		ldr	r3, [r7, #12]
 2204 0032 1B78     		ldrb	r3, [r3, #0]
 2205 0034 FB72     		strb	r3, [r7, #11]
1189:.\Generated_Source\PSoC5/sdlogger_1_fatfs_1_ff.c **** 		if (c == 0) { res = FR_NO_FILE; break; }	/* Reached to end of table */
 2206              		.loc 1 1189 0
 2207 0036 FB7A     		ldrb	r3, [r7, #11]	@ zero_extendqisi2
 2208 0038 002B     		cmp	r3, #0
 2209 003a 03D1     		bne	.L164
 2210 003c 4FF00403 		mov	r3, #4
 2211 0040 BB72     		strb	r3, [r7, #10]
 2212 0042 1EE0     		b	.L163
 2213              	.L164:
1190:.\Generated_Source\PSoC5/sdlogger_1_fatfs_1_ff.c **** #if _USE_LFN	/* LFN configuration */
1191:.\Generated_Source\PSoC5/sdlogger_1_fatfs_1_ff.c **** 		a = dir[DIR_Attr] & AM_MASK;
1192:.\Generated_Source\PSoC5/sdlogger_1_fatfs_1_ff.c **** 		if (c == 0xE5 || (!_FS_RPATH && c == '.') || ((a & AM_VOL) && a != AM_LFN)) {	/* An entry without
1193:.\Generated_Source\PSoC5/sdlogger_1_fatfs_1_ff.c **** 			ord = 0xFF;
1194:.\Generated_Source\PSoC5/sdlogger_1_fatfs_1_ff.c **** 		} else {
1195:.\Generated_Source\PSoC5/sdlogger_1_fatfs_1_ff.c **** 			if (a == AM_LFN) {			/* An LFN entry is found */
1196:.\Generated_Source\PSoC5/sdlogger_1_fatfs_1_ff.c **** 				if (c & 0x40) {			/* Is it start of LFN sequence? */
1197:.\Generated_Source\PSoC5/sdlogger_1_fatfs_1_ff.c **** 					sum = dir[LDIR_Chksum];
1198:.\Generated_Source\PSoC5/sdlogger_1_fatfs_1_ff.c **** 					c &= 0xBF; ord = c;
1199:.\Generated_Source\PSoC5/sdlogger_1_fatfs_1_ff.c **** 					dj->lfn_idx = dj->index;
1200:.\Generated_Source\PSoC5/sdlogger_1_fatfs_1_ff.c **** 				}
1201:.\Generated_Source\PSoC5/sdlogger_1_fatfs_1_ff.c **** 				/* Check LFN validity and capture it */
1202:.\Generated_Source\PSoC5/sdlogger_1_fatfs_1_ff.c **** 				ord = (c == ord && sum == dir[LDIR_Chksum] && pick_lfn(dj->lfn, dir)) ? ord - 1 : 0xFF;
1203:.\Generated_Source\PSoC5/sdlogger_1_fatfs_1_ff.c **** 			} else {					/* An SFN entry is found */
ARM GAS  C:\Users\SUZUKI~1\AppData\Local\Temp\ccJaA83q.s 			page 61


1204:.\Generated_Source\PSoC5/sdlogger_1_fatfs_1_ff.c **** 				if (ord || sum != sum_sfn(dir))	/* Is there a valid LFN? */
1205:.\Generated_Source\PSoC5/sdlogger_1_fatfs_1_ff.c **** 					dj->lfn_idx = 0xFFFF;		/* It has no LFN. */
1206:.\Generated_Source\PSoC5/sdlogger_1_fatfs_1_ff.c **** 				break;
1207:.\Generated_Source\PSoC5/sdlogger_1_fatfs_1_ff.c **** 			}
1208:.\Generated_Source\PSoC5/sdlogger_1_fatfs_1_ff.c **** 		}
1209:.\Generated_Source\PSoC5/sdlogger_1_fatfs_1_ff.c **** #else		/* Non LFN configuration */
1210:.\Generated_Source\PSoC5/sdlogger_1_fatfs_1_ff.c **** 		if (c != 0xE5 && (_FS_RPATH || c != '.') && !(dir[DIR_Attr] & AM_VOL))	/* Is it a valid entry? */
 2214              		.loc 1 1210 0
 2215 0044 FB7A     		ldrb	r3, [r7, #11]	@ zero_extendqisi2
 2216 0046 E52B     		cmp	r3, #229
 2217 0048 07D0     		beq	.L165
 2218 004a FB68     		ldr	r3, [r7, #12]
 2219 004c 03F10B03 		add	r3, r3, #11
 2220 0050 1B78     		ldrb	r3, [r3, #0]	@ zero_extendqisi2
 2221 0052 03F00803 		and	r3, r3, #8
 2222 0056 002B     		cmp	r3, #0
 2223 0058 10D0     		beq	.L170
 2224              	.L165:
1211:.\Generated_Source\PSoC5/sdlogger_1_fatfs_1_ff.c **** 			break;
1212:.\Generated_Source\PSoC5/sdlogger_1_fatfs_1_ff.c **** #endif
1213:.\Generated_Source\PSoC5/sdlogger_1_fatfs_1_ff.c **** 		res = dir_next(dj, 0);				/* Next entry */
 2225              		.loc 1 1213 0
 2226 005a 7868     		ldr	r0, [r7, #4]
 2227 005c 4FF00001 		mov	r1, #0
 2228 0060 FFF7FEFF 		bl	dir_next
 2229 0064 0346     		mov	r3, r0
 2230 0066 BB72     		strb	r3, [r7, #10]
1214:.\Generated_Source\PSoC5/sdlogger_1_fatfs_1_ff.c **** 		if (res != FR_OK) break;
 2231              		.loc 1 1214 0
 2232 0068 BB7A     		ldrb	r3, [r7, #10]	@ zero_extendqisi2
 2233 006a 002B     		cmp	r3, #0
 2234 006c 08D1     		bne	.L171
 2235              	.L161:
 2236              		.loc 1 1184 0
 2237 006e 7B68     		ldr	r3, [r7, #4]
 2238 0070 1B69     		ldr	r3, [r3, #16]
 2239 0072 002B     		cmp	r3, #0
 2240 0074 CCD1     		bne	.L166
 2241 0076 04E0     		b	.L163
 2242              	.L169:
 2243              		.loc 1 1186 0
 2244 0078 00BF     		nop
 2245 007a 02E0     		b	.L163
 2246              	.L170:
 2247              		.loc 1 1211 0
 2248 007c 00BF     		nop
 2249 007e 00E0     		b	.L163
 2250              	.L171:
 2251              		.loc 1 1214 0
 2252 0080 00BF     		nop
 2253              	.L163:
1215:.\Generated_Source\PSoC5/sdlogger_1_fatfs_1_ff.c **** 	}
1216:.\Generated_Source\PSoC5/sdlogger_1_fatfs_1_ff.c **** 
1217:.\Generated_Source\PSoC5/sdlogger_1_fatfs_1_ff.c **** 	if (res != FR_OK) dj->sect = 0;
 2254              		.loc 1 1217 0
 2255 0082 BB7A     		ldrb	r3, [r7, #10]	@ zero_extendqisi2
 2256 0084 002B     		cmp	r3, #0
ARM GAS  C:\Users\SUZUKI~1\AppData\Local\Temp\ccJaA83q.s 			page 62


 2257 0086 03D0     		beq	.L167
 2258 0088 7B68     		ldr	r3, [r7, #4]
 2259 008a 4FF00002 		mov	r2, #0
 2260 008e 1A61     		str	r2, [r3, #16]
 2261              	.L167:
1218:.\Generated_Source\PSoC5/sdlogger_1_fatfs_1_ff.c **** 
1219:.\Generated_Source\PSoC5/sdlogger_1_fatfs_1_ff.c **** 	return res;
 2262              		.loc 1 1219 0
 2263 0090 BB7A     		ldrb	r3, [r7, #10]	@ zero_extendqisi2
1220:.\Generated_Source\PSoC5/sdlogger_1_fatfs_1_ff.c **** }
 2264              		.loc 1 1220 0
 2265 0092 1846     		mov	r0, r3
 2266 0094 07F11007 		add	r7, r7, #16
 2267 0098 BD46     		mov	sp, r7
 2268 009a 80BD     		pop	{r7, pc}
 2269              		.cfi_endproc
 2270              	.LFE14:
 2271              		.size	dir_read, .-dir_read
 2272              		.section	.text.dir_register,"ax",%progbits
 2273              		.align	2
 2274              		.thumb
 2275              		.thumb_func
 2276              		.type	dir_register, %function
 2277              	dir_register:
 2278              	.LFB15:
1221:.\Generated_Source\PSoC5/sdlogger_1_fatfs_1_ff.c **** #endif
1222:.\Generated_Source\PSoC5/sdlogger_1_fatfs_1_ff.c **** 
1223:.\Generated_Source\PSoC5/sdlogger_1_fatfs_1_ff.c **** 
1224:.\Generated_Source\PSoC5/sdlogger_1_fatfs_1_ff.c **** 
1225:.\Generated_Source\PSoC5/sdlogger_1_fatfs_1_ff.c **** /*-----------------------------------------------------------------------*/
1226:.\Generated_Source\PSoC5/sdlogger_1_fatfs_1_ff.c **** /* Register an object to the directory                                   */
1227:.\Generated_Source\PSoC5/sdlogger_1_fatfs_1_ff.c **** /*-----------------------------------------------------------------------*/
1228:.\Generated_Source\PSoC5/sdlogger_1_fatfs_1_ff.c **** #if !_FS_READONLY
1229:.\Generated_Source\PSoC5/sdlogger_1_fatfs_1_ff.c **** static
1230:.\Generated_Source\PSoC5/sdlogger_1_fatfs_1_ff.c **** FRESULT dir_register (	/* FR_OK:Successful, FR_DENIED:No free entry or too many SFN collision, FR_D
1231:.\Generated_Source\PSoC5/sdlogger_1_fatfs_1_ff.c **** 	DIR *dj				/* Target directory with object name to be created */
1232:.\Generated_Source\PSoC5/sdlogger_1_fatfs_1_ff.c **** )
1233:.\Generated_Source\PSoC5/sdlogger_1_fatfs_1_ff.c **** {
 2279              		.loc 1 1233 0
 2280              		.cfi_startproc
 2281              		@ args = 0, pretend = 0, frame = 16
 2282              		@ frame_needed = 1, uses_anonymous_args = 0
 2283 0000 80B5     		push	{r7, lr}
 2284              	.LCFI45:
 2285              		.cfi_def_cfa_offset 8
 2286 0002 84B0     		sub	sp, sp, #16
 2287              	.LCFI46:
 2288              		.cfi_def_cfa_offset 24
