ARM GAS  C:\Users\SUZUKI~1\AppData\Local\Temp\cclMukjO.s 			page 1


   1              		.syntax unified
   2              		.cpu cortex-m3
   3              		.fpu softvfp
   4              		.eabi_attribute 20, 1
   5              		.eabi_attribute 21, 1
   6              		.eabi_attribute 23, 3
   7              		.eabi_attribute 24, 1
   8              		.eabi_attribute 25, 1
   9              		.eabi_attribute 26, 1
  10              		.eabi_attribute 30, 6
  11              		.eabi_attribute 18, 4
  12              		.thumb
  13              		.file	"sdlogger_1_sdspi_1_Timer_IRQ.c"
  14              		.section	.debug_abbrev,"",%progbits
  15              	.Ldebug_abbrev0:
  16              		.section	.debug_info,"",%progbits
  17              	.Ldebug_info0:
  18              		.section	.debug_line,"",%progbits
  19              	.Ldebug_line0:
  20 0000 6C010000 		.text
  20      02007400 
  20      00000201 
  20      FB0E0D00 
  20      01010101 
  21              	.Ltext0:
  22              		.cfi_sections	.debug_frame
  23              		.section	.text.sdlogger_1_sdspi_1_Timer_IRQ_Start,"ax",%progbits
  24              		.align	2
  25              		.global	sdlogger_1_sdspi_1_Timer_IRQ_Start
  26              		.thumb
  27              		.thumb_func
  28              		.type	sdlogger_1_sdspi_1_Timer_IRQ_Start, %function
  29              	sdlogger_1_sdspi_1_Timer_IRQ_Start:
  30              	.LFB0:
  31              		.file 1 ".\\Generated_Source\\PSoC5\\sdlogger_1_sdspi_1_Timer_IRQ.c"
   1:.\Generated_Source\PSoC5/sdlogger_1_sdspi_1_Timer_IRQ.c **** /*******************************************************************************
   2:.\Generated_Source\PSoC5/sdlogger_1_sdspi_1_Timer_IRQ.c **** * File Name: sdlogger_1_sdspi_1_Timer_IRQ.c  
   3:.\Generated_Source\PSoC5/sdlogger_1_sdspi_1_Timer_IRQ.c **** * Version 1.70
   4:.\Generated_Source\PSoC5/sdlogger_1_sdspi_1_Timer_IRQ.c **** *
   5:.\Generated_Source\PSoC5/sdlogger_1_sdspi_1_Timer_IRQ.c **** *  Description:
   6:.\Generated_Source\PSoC5/sdlogger_1_sdspi_1_Timer_IRQ.c **** *   API for controlling the state of an interrupt.
   7:.\Generated_Source\PSoC5/sdlogger_1_sdspi_1_Timer_IRQ.c **** *
   8:.\Generated_Source\PSoC5/sdlogger_1_sdspi_1_Timer_IRQ.c **** *
   9:.\Generated_Source\PSoC5/sdlogger_1_sdspi_1_Timer_IRQ.c **** *  Note:
  10:.\Generated_Source\PSoC5/sdlogger_1_sdspi_1_Timer_IRQ.c **** *
  11:.\Generated_Source\PSoC5/sdlogger_1_sdspi_1_Timer_IRQ.c **** ********************************************************************************
  12:.\Generated_Source\PSoC5/sdlogger_1_sdspi_1_Timer_IRQ.c **** * Copyright 2008-2012, Cypress Semiconductor Corporation.  All rights reserved.
  13:.\Generated_Source\PSoC5/sdlogger_1_sdspi_1_Timer_IRQ.c **** * You may use this file only in accordance with the license, terms, conditions, 
  14:.\Generated_Source\PSoC5/sdlogger_1_sdspi_1_Timer_IRQ.c **** * disclaimers, and limitations in the end user license agreement accompanying 
  15:.\Generated_Source\PSoC5/sdlogger_1_sdspi_1_Timer_IRQ.c **** * the software package with which this file was provided.
  16:.\Generated_Source\PSoC5/sdlogger_1_sdspi_1_Timer_IRQ.c **** *******************************************************************************/
  17:.\Generated_Source\PSoC5/sdlogger_1_sdspi_1_Timer_IRQ.c **** 
  18:.\Generated_Source\PSoC5/sdlogger_1_sdspi_1_Timer_IRQ.c **** 
  19:.\Generated_Source\PSoC5/sdlogger_1_sdspi_1_Timer_IRQ.c **** #include <CYDEVICE_TRM.H>
  20:.\Generated_Source\PSoC5/sdlogger_1_sdspi_1_Timer_IRQ.c **** #include <CYLIB.H>
  21:.\Generated_Source\PSoC5/sdlogger_1_sdspi_1_Timer_IRQ.c **** #include <sdlogger_1_sdspi_1_Timer_IRQ.H>
  22:.\Generated_Source\PSoC5/sdlogger_1_sdspi_1_Timer_IRQ.c **** 
ARM GAS  C:\Users\SUZUKI~1\AppData\Local\Temp\cclMukjO.s 			page 2


  23:.\Generated_Source\PSoC5/sdlogger_1_sdspi_1_Timer_IRQ.c **** #if !defined(sdlogger_1_sdspi_1_Timer_IRQ__REMOVED) /* Check for removal by optimization */
  24:.\Generated_Source\PSoC5/sdlogger_1_sdspi_1_Timer_IRQ.c **** 
  25:.\Generated_Source\PSoC5/sdlogger_1_sdspi_1_Timer_IRQ.c **** /*******************************************************************************
  26:.\Generated_Source\PSoC5/sdlogger_1_sdspi_1_Timer_IRQ.c **** *  Place your includes, defines and code here 
  27:.\Generated_Source\PSoC5/sdlogger_1_sdspi_1_Timer_IRQ.c **** ********************************************************************************/
  28:.\Generated_Source\PSoC5/sdlogger_1_sdspi_1_Timer_IRQ.c **** /* `#START sdlogger_1_sdspi_1_Timer_IRQ_intc` */
  29:.\Generated_Source\PSoC5/sdlogger_1_sdspi_1_Timer_IRQ.c **** 
  30:.\Generated_Source\PSoC5/sdlogger_1_sdspi_1_Timer_IRQ.c **** /* `#END` */
  31:.\Generated_Source\PSoC5/sdlogger_1_sdspi_1_Timer_IRQ.c **** 
  32:.\Generated_Source\PSoC5/sdlogger_1_sdspi_1_Timer_IRQ.c **** #ifndef CYINT_IRQ_BASE
  33:.\Generated_Source\PSoC5/sdlogger_1_sdspi_1_Timer_IRQ.c **** #define CYINT_IRQ_BASE      16
  34:.\Generated_Source\PSoC5/sdlogger_1_sdspi_1_Timer_IRQ.c **** #endif /* CYINT_IRQ_BASE */
  35:.\Generated_Source\PSoC5/sdlogger_1_sdspi_1_Timer_IRQ.c **** #ifndef CYINT_VECT_TABLE
  36:.\Generated_Source\PSoC5/sdlogger_1_sdspi_1_Timer_IRQ.c **** #define CYINT_VECT_TABLE    ((cyisraddress **) CYREG_NVIC_VECT_OFFSET)
  37:.\Generated_Source\PSoC5/sdlogger_1_sdspi_1_Timer_IRQ.c **** #endif /* CYINT_VECT_TABLE */
  38:.\Generated_Source\PSoC5/sdlogger_1_sdspi_1_Timer_IRQ.c **** 
  39:.\Generated_Source\PSoC5/sdlogger_1_sdspi_1_Timer_IRQ.c **** /* Declared in startup, used to set unused interrupts to. */
  40:.\Generated_Source\PSoC5/sdlogger_1_sdspi_1_Timer_IRQ.c **** CY_ISR_PROTO(IntDefaultHandler);
  41:.\Generated_Source\PSoC5/sdlogger_1_sdspi_1_Timer_IRQ.c **** 
  42:.\Generated_Source\PSoC5/sdlogger_1_sdspi_1_Timer_IRQ.c **** 
  43:.\Generated_Source\PSoC5/sdlogger_1_sdspi_1_Timer_IRQ.c **** /*******************************************************************************
  44:.\Generated_Source\PSoC5/sdlogger_1_sdspi_1_Timer_IRQ.c **** * Function Name: sdlogger_1_sdspi_1_Timer_IRQ_Start
  45:.\Generated_Source\PSoC5/sdlogger_1_sdspi_1_Timer_IRQ.c **** ********************************************************************************
  46:.\Generated_Source\PSoC5/sdlogger_1_sdspi_1_Timer_IRQ.c **** *
  47:.\Generated_Source\PSoC5/sdlogger_1_sdspi_1_Timer_IRQ.c **** * Summary:
  48:.\Generated_Source\PSoC5/sdlogger_1_sdspi_1_Timer_IRQ.c **** *  Set up the interrupt and enable it.
  49:.\Generated_Source\PSoC5/sdlogger_1_sdspi_1_Timer_IRQ.c **** *
  50:.\Generated_Source\PSoC5/sdlogger_1_sdspi_1_Timer_IRQ.c **** * Parameters:  
  51:.\Generated_Source\PSoC5/sdlogger_1_sdspi_1_Timer_IRQ.c **** *   None
  52:.\Generated_Source\PSoC5/sdlogger_1_sdspi_1_Timer_IRQ.c **** *
  53:.\Generated_Source\PSoC5/sdlogger_1_sdspi_1_Timer_IRQ.c **** * Return:
  54:.\Generated_Source\PSoC5/sdlogger_1_sdspi_1_Timer_IRQ.c **** *   None
  55:.\Generated_Source\PSoC5/sdlogger_1_sdspi_1_Timer_IRQ.c **** *
  56:.\Generated_Source\PSoC5/sdlogger_1_sdspi_1_Timer_IRQ.c **** *******************************************************************************/
  57:.\Generated_Source\PSoC5/sdlogger_1_sdspi_1_Timer_IRQ.c **** void sdlogger_1_sdspi_1_Timer_IRQ_Start(void)
  58:.\Generated_Source\PSoC5/sdlogger_1_sdspi_1_Timer_IRQ.c **** {
  32              		.loc 1 58 0
  33              		.cfi_startproc
  34              		@ args = 0, pretend = 0, frame = 0
  35              		@ frame_needed = 1, uses_anonymous_args = 0
  36 0000 80B5     		push	{r7, lr}
  37              	.LCFI0:
  38              		.cfi_def_cfa_offset 8
  39 0002 00AF     		add	r7, sp, #0
  40              		.cfi_offset 14, -4
  41              		.cfi_offset 7, -8
  42              	.LCFI1:
  43              		.cfi_def_cfa_register 7
  59:.\Generated_Source\PSoC5/sdlogger_1_sdspi_1_Timer_IRQ.c ****     /* For all we know the interrupt is active. */
  60:.\Generated_Source\PSoC5/sdlogger_1_sdspi_1_Timer_IRQ.c ****     sdlogger_1_sdspi_1_Timer_IRQ_Disable();
  44              		.loc 1 60 0
  45 0004 FFF7FEFF 		bl	sdlogger_1_sdspi_1_Timer_IRQ_Disable
  61:.\Generated_Source\PSoC5/sdlogger_1_sdspi_1_Timer_IRQ.c **** 
  62:.\Generated_Source\PSoC5/sdlogger_1_sdspi_1_Timer_IRQ.c ****     /* Set the ISR to point to the sdlogger_1_sdspi_1_Timer_IRQ Interrupt. */
  63:.\Generated_Source\PSoC5/sdlogger_1_sdspi_1_Timer_IRQ.c ****     sdlogger_1_sdspi_1_Timer_IRQ_SetVector(&sdlogger_1_sdspi_1_Timer_IRQ_Interrupt);
  46              		.loc 1 63 0
  47 0008 40F20000 		movw	r0, #:lower16:sdlogger_1_sdspi_1_Timer_IRQ_Interrupt
ARM GAS  C:\Users\SUZUKI~1\AppData\Local\Temp\cclMukjO.s 			page 3


  48 000c C0F20000 		movt	r0, #:upper16:sdlogger_1_sdspi_1_Timer_IRQ_Interrupt
  49 0010 FFF7FEFF 		bl	sdlogger_1_sdspi_1_Timer_IRQ_SetVector
  64:.\Generated_Source\PSoC5/sdlogger_1_sdspi_1_Timer_IRQ.c **** 
  65:.\Generated_Source\PSoC5/sdlogger_1_sdspi_1_Timer_IRQ.c ****     /* Set the priority. */
  66:.\Generated_Source\PSoC5/sdlogger_1_sdspi_1_Timer_IRQ.c ****     sdlogger_1_sdspi_1_Timer_IRQ_SetPriority((uint8)sdlogger_1_sdspi_1_Timer_IRQ_INTC_PRIOR_NUMBER)
  50              		.loc 1 66 0
  51 0014 4FF00500 		mov	r0, #5
  52 0018 FFF7FEFF 		bl	sdlogger_1_sdspi_1_Timer_IRQ_SetPriority
  67:.\Generated_Source\PSoC5/sdlogger_1_sdspi_1_Timer_IRQ.c **** 
  68:.\Generated_Source\PSoC5/sdlogger_1_sdspi_1_Timer_IRQ.c ****     /* Enable it. */
  69:.\Generated_Source\PSoC5/sdlogger_1_sdspi_1_Timer_IRQ.c ****     sdlogger_1_sdspi_1_Timer_IRQ_Enable();
  53              		.loc 1 69 0
  54 001c FFF7FEFF 		bl	sdlogger_1_sdspi_1_Timer_IRQ_Enable
  70:.\Generated_Source\PSoC5/sdlogger_1_sdspi_1_Timer_IRQ.c **** }
  55              		.loc 1 70 0
  56 0020 80BD     		pop	{r7, pc}
  57              		.cfi_endproc
  58              	.LFE0:
  59              		.size	sdlogger_1_sdspi_1_Timer_IRQ_Start, .-sdlogger_1_sdspi_1_Timer_IRQ_Start
  60 0022 00BF     		.section	.text.sdlogger_1_sdspi_1_Timer_IRQ_StartEx,"ax",%progbits
  61              		.align	2
  62              		.global	sdlogger_1_sdspi_1_Timer_IRQ_StartEx
  63              		.thumb
  64              		.thumb_func
  65              		.type	sdlogger_1_sdspi_1_Timer_IRQ_StartEx, %function
  66              	sdlogger_1_sdspi_1_Timer_IRQ_StartEx:
  67              	.LFB1:
  71:.\Generated_Source\PSoC5/sdlogger_1_sdspi_1_Timer_IRQ.c **** 
  72:.\Generated_Source\PSoC5/sdlogger_1_sdspi_1_Timer_IRQ.c **** 
  73:.\Generated_Source\PSoC5/sdlogger_1_sdspi_1_Timer_IRQ.c **** /*******************************************************************************
  74:.\Generated_Source\PSoC5/sdlogger_1_sdspi_1_Timer_IRQ.c **** * Function Name: sdlogger_1_sdspi_1_Timer_IRQ_StartEx
  75:.\Generated_Source\PSoC5/sdlogger_1_sdspi_1_Timer_IRQ.c **** ********************************************************************************
  76:.\Generated_Source\PSoC5/sdlogger_1_sdspi_1_Timer_IRQ.c **** *
  77:.\Generated_Source\PSoC5/sdlogger_1_sdspi_1_Timer_IRQ.c **** * Summary:
  78:.\Generated_Source\PSoC5/sdlogger_1_sdspi_1_Timer_IRQ.c **** *  Set up the interrupt and enable it.
  79:.\Generated_Source\PSoC5/sdlogger_1_sdspi_1_Timer_IRQ.c **** *
  80:.\Generated_Source\PSoC5/sdlogger_1_sdspi_1_Timer_IRQ.c **** * Parameters:  
  81:.\Generated_Source\PSoC5/sdlogger_1_sdspi_1_Timer_IRQ.c **** *   address: Address of the ISR to set in the interrupt vector table.
  82:.\Generated_Source\PSoC5/sdlogger_1_sdspi_1_Timer_IRQ.c **** *
  83:.\Generated_Source\PSoC5/sdlogger_1_sdspi_1_Timer_IRQ.c **** * Return:
  84:.\Generated_Source\PSoC5/sdlogger_1_sdspi_1_Timer_IRQ.c **** *   None
  85:.\Generated_Source\PSoC5/sdlogger_1_sdspi_1_Timer_IRQ.c **** *
  86:.\Generated_Source\PSoC5/sdlogger_1_sdspi_1_Timer_IRQ.c **** *******************************************************************************/
  87:.\Generated_Source\PSoC5/sdlogger_1_sdspi_1_Timer_IRQ.c **** void sdlogger_1_sdspi_1_Timer_IRQ_StartEx(cyisraddress address)
  88:.\Generated_Source\PSoC5/sdlogger_1_sdspi_1_Timer_IRQ.c **** {
  68              		.loc 1 88 0
  69              		.cfi_startproc
  70              		@ args = 0, pretend = 0, frame = 8
  71              		@ frame_needed = 1, uses_anonymous_args = 0
  72 0000 80B5     		push	{r7, lr}
  73              	.LCFI2:
  74              		.cfi_def_cfa_offset 8
  75 0002 82B0     		sub	sp, sp, #8
  76              	.LCFI3:
  77              		.cfi_def_cfa_offset 16
  78 0004 00AF     		add	r7, sp, #0
  79              		.cfi_offset 14, -4
ARM GAS  C:\Users\SUZUKI~1\AppData\Local\Temp\cclMukjO.s 			page 4


  80              		.cfi_offset 7, -8
  81              	.LCFI4:
  82              		.cfi_def_cfa_register 7
  83 0006 7860     		str	r0, [r7, #4]
  89:.\Generated_Source\PSoC5/sdlogger_1_sdspi_1_Timer_IRQ.c ****     /* For all we know the interrupt is active. */
  90:.\Generated_Source\PSoC5/sdlogger_1_sdspi_1_Timer_IRQ.c ****     sdlogger_1_sdspi_1_Timer_IRQ_Disable();
  84              		.loc 1 90 0
  85 0008 FFF7FEFF 		bl	sdlogger_1_sdspi_1_Timer_IRQ_Disable
  91:.\Generated_Source\PSoC5/sdlogger_1_sdspi_1_Timer_IRQ.c **** 
  92:.\Generated_Source\PSoC5/sdlogger_1_sdspi_1_Timer_IRQ.c ****     /* Set the ISR to point to the sdlogger_1_sdspi_1_Timer_IRQ Interrupt. */
  93:.\Generated_Source\PSoC5/sdlogger_1_sdspi_1_Timer_IRQ.c ****     sdlogger_1_sdspi_1_Timer_IRQ_SetVector(address);
  86              		.loc 1 93 0
  87 000c 7868     		ldr	r0, [r7, #4]
  88 000e FFF7FEFF 		bl	sdlogger_1_sdspi_1_Timer_IRQ_SetVector
  94:.\Generated_Source\PSoC5/sdlogger_1_sdspi_1_Timer_IRQ.c **** 
  95:.\Generated_Source\PSoC5/sdlogger_1_sdspi_1_Timer_IRQ.c ****     /* Set the priority. */
  96:.\Generated_Source\PSoC5/sdlogger_1_sdspi_1_Timer_IRQ.c ****     sdlogger_1_sdspi_1_Timer_IRQ_SetPriority((uint8)sdlogger_1_sdspi_1_Timer_IRQ_INTC_PRIOR_NUMBER)
  89              		.loc 1 96 0
  90 0012 4FF00500 		mov	r0, #5
  91 0016 FFF7FEFF 		bl	sdlogger_1_sdspi_1_Timer_IRQ_SetPriority
  97:.\Generated_Source\PSoC5/sdlogger_1_sdspi_1_Timer_IRQ.c **** 
  98:.\Generated_Source\PSoC5/sdlogger_1_sdspi_1_Timer_IRQ.c ****     /* Enable it. */
  99:.\Generated_Source\PSoC5/sdlogger_1_sdspi_1_Timer_IRQ.c ****     sdlogger_1_sdspi_1_Timer_IRQ_Enable();
  92              		.loc 1 99 0
  93 001a FFF7FEFF 		bl	sdlogger_1_sdspi_1_Timer_IRQ_Enable
 100:.\Generated_Source\PSoC5/sdlogger_1_sdspi_1_Timer_IRQ.c **** }
  94              		.loc 1 100 0
  95 001e 07F10807 		add	r7, r7, #8
  96 0022 BD46     		mov	sp, r7
  97 0024 80BD     		pop	{r7, pc}
  98              		.cfi_endproc
  99              	.LFE1:
 100              		.size	sdlogger_1_sdspi_1_Timer_IRQ_StartEx, .-sdlogger_1_sdspi_1_Timer_IRQ_StartEx
 101 0026 00BF     		.section	.text.sdlogger_1_sdspi_1_Timer_IRQ_Stop,"ax",%progbits
 102              		.align	2
 103              		.global	sdlogger_1_sdspi_1_Timer_IRQ_Stop
 104              		.thumb
 105              		.thumb_func
 106              		.type	sdlogger_1_sdspi_1_Timer_IRQ_Stop, %function
 107              	sdlogger_1_sdspi_1_Timer_IRQ_Stop:
 108              	.LFB2:
 101:.\Generated_Source\PSoC5/sdlogger_1_sdspi_1_Timer_IRQ.c **** 
 102:.\Generated_Source\PSoC5/sdlogger_1_sdspi_1_Timer_IRQ.c **** 
 103:.\Generated_Source\PSoC5/sdlogger_1_sdspi_1_Timer_IRQ.c **** /*******************************************************************************
 104:.\Generated_Source\PSoC5/sdlogger_1_sdspi_1_Timer_IRQ.c **** * Function Name: sdlogger_1_sdspi_1_Timer_IRQ_Stop
 105:.\Generated_Source\PSoC5/sdlogger_1_sdspi_1_Timer_IRQ.c **** ********************************************************************************
 106:.\Generated_Source\PSoC5/sdlogger_1_sdspi_1_Timer_IRQ.c **** *
 107:.\Generated_Source\PSoC5/sdlogger_1_sdspi_1_Timer_IRQ.c **** * Summary:
 108:.\Generated_Source\PSoC5/sdlogger_1_sdspi_1_Timer_IRQ.c **** *   Disables and removes the interrupt.
 109:.\Generated_Source\PSoC5/sdlogger_1_sdspi_1_Timer_IRQ.c **** *
 110:.\Generated_Source\PSoC5/sdlogger_1_sdspi_1_Timer_IRQ.c **** * Parameters:  
 111:.\Generated_Source\PSoC5/sdlogger_1_sdspi_1_Timer_IRQ.c **** *
 112:.\Generated_Source\PSoC5/sdlogger_1_sdspi_1_Timer_IRQ.c **** * Return:
 113:.\Generated_Source\PSoC5/sdlogger_1_sdspi_1_Timer_IRQ.c **** *   None
 114:.\Generated_Source\PSoC5/sdlogger_1_sdspi_1_Timer_IRQ.c **** *
 115:.\Generated_Source\PSoC5/sdlogger_1_sdspi_1_Timer_IRQ.c **** *******************************************************************************/
 116:.\Generated_Source\PSoC5/sdlogger_1_sdspi_1_Timer_IRQ.c **** void sdlogger_1_sdspi_1_Timer_IRQ_Stop(void)
ARM GAS  C:\Users\SUZUKI~1\AppData\Local\Temp\cclMukjO.s 			page 5


 117:.\Generated_Source\PSoC5/sdlogger_1_sdspi_1_Timer_IRQ.c **** {
 109              		.loc 1 117 0
 110              		.cfi_startproc
 111              		@ args = 0, pretend = 0, frame = 0
 112              		@ frame_needed = 1, uses_anonymous_args = 0
 113 0000 80B5     		push	{r7, lr}
 114              	.LCFI5:
 115              		.cfi_def_cfa_offset 8
 116 0002 00AF     		add	r7, sp, #0
 117              		.cfi_offset 14, -4
 118              		.cfi_offset 7, -8
 119              	.LCFI6:
 120              		.cfi_def_cfa_register 7
 118:.\Generated_Source\PSoC5/sdlogger_1_sdspi_1_Timer_IRQ.c ****     /* Disable this interrupt. */
 119:.\Generated_Source\PSoC5/sdlogger_1_sdspi_1_Timer_IRQ.c ****     sdlogger_1_sdspi_1_Timer_IRQ_Disable();
 121              		.loc 1 119 0
 122 0004 FFF7FEFF 		bl	sdlogger_1_sdspi_1_Timer_IRQ_Disable
 120:.\Generated_Source\PSoC5/sdlogger_1_sdspi_1_Timer_IRQ.c **** 
 121:.\Generated_Source\PSoC5/sdlogger_1_sdspi_1_Timer_IRQ.c ****     /* Set the ISR to point to the passive one. */
 122:.\Generated_Source\PSoC5/sdlogger_1_sdspi_1_Timer_IRQ.c ****     sdlogger_1_sdspi_1_Timer_IRQ_SetVector(&IntDefaultHandler);
 123              		.loc 1 122 0
 124 0008 40F20000 		movw	r0, #:lower16:IntDefaultHandler
 125 000c C0F20000 		movt	r0, #:upper16:IntDefaultHandler
 126 0010 FFF7FEFF 		bl	sdlogger_1_sdspi_1_Timer_IRQ_SetVector
 123:.\Generated_Source\PSoC5/sdlogger_1_sdspi_1_Timer_IRQ.c **** }
 127              		.loc 1 123 0
 128 0014 80BD     		pop	{r7, pc}
 129              		.cfi_endproc
 130              	.LFE2:
 131              		.size	sdlogger_1_sdspi_1_Timer_IRQ_Stop, .-sdlogger_1_sdspi_1_Timer_IRQ_Stop
 132 0016 00BF     		.section	.text.sdlogger_1_sdspi_1_Timer_IRQ_Interrupt,"ax",%progbits
 133              		.align	2
 134              		.global	sdlogger_1_sdspi_1_Timer_IRQ_Interrupt
 135              		.thumb
 136              		.thumb_func
 137              		.type	sdlogger_1_sdspi_1_Timer_IRQ_Interrupt, %function
 138              	sdlogger_1_sdspi_1_Timer_IRQ_Interrupt:
 139              	.LFB3:
 124:.\Generated_Source\PSoC5/sdlogger_1_sdspi_1_Timer_IRQ.c **** 
 125:.\Generated_Source\PSoC5/sdlogger_1_sdspi_1_Timer_IRQ.c **** 
 126:.\Generated_Source\PSoC5/sdlogger_1_sdspi_1_Timer_IRQ.c **** /*******************************************************************************
 127:.\Generated_Source\PSoC5/sdlogger_1_sdspi_1_Timer_IRQ.c **** * Function Name: sdlogger_1_sdspi_1_Timer_IRQ_Interrupt
 128:.\Generated_Source\PSoC5/sdlogger_1_sdspi_1_Timer_IRQ.c **** ********************************************************************************
 129:.\Generated_Source\PSoC5/sdlogger_1_sdspi_1_Timer_IRQ.c **** *
 130:.\Generated_Source\PSoC5/sdlogger_1_sdspi_1_Timer_IRQ.c **** * Summary:
 131:.\Generated_Source\PSoC5/sdlogger_1_sdspi_1_Timer_IRQ.c **** *   The default Interrupt Service Routine for sdlogger_1_sdspi_1_Timer_IRQ.
 132:.\Generated_Source\PSoC5/sdlogger_1_sdspi_1_Timer_IRQ.c **** *
 133:.\Generated_Source\PSoC5/sdlogger_1_sdspi_1_Timer_IRQ.c **** *   Add custom code between the coments to keep the next version of this file
 134:.\Generated_Source\PSoC5/sdlogger_1_sdspi_1_Timer_IRQ.c **** *   from over writting your code.
 135:.\Generated_Source\PSoC5/sdlogger_1_sdspi_1_Timer_IRQ.c **** *
 136:.\Generated_Source\PSoC5/sdlogger_1_sdspi_1_Timer_IRQ.c **** * Parameters:  
 137:.\Generated_Source\PSoC5/sdlogger_1_sdspi_1_Timer_IRQ.c **** *
 138:.\Generated_Source\PSoC5/sdlogger_1_sdspi_1_Timer_IRQ.c **** * Return:
 139:.\Generated_Source\PSoC5/sdlogger_1_sdspi_1_Timer_IRQ.c **** *   None
 140:.\Generated_Source\PSoC5/sdlogger_1_sdspi_1_Timer_IRQ.c **** *
 141:.\Generated_Source\PSoC5/sdlogger_1_sdspi_1_Timer_IRQ.c **** *******************************************************************************/
 142:.\Generated_Source\PSoC5/sdlogger_1_sdspi_1_Timer_IRQ.c **** CY_ISR(sdlogger_1_sdspi_1_Timer_IRQ_Interrupt)
ARM GAS  C:\Users\SUZUKI~1\AppData\Local\Temp\cclMukjO.s 			page 6


 143:.\Generated_Source\PSoC5/sdlogger_1_sdspi_1_Timer_IRQ.c **** {
 140              		.loc 1 143 0
 141              		.cfi_startproc
 142              		@ args = 0, pretend = 0, frame = 0
 143              		@ frame_needed = 1, uses_anonymous_args = 0
 144              		@ link register save eliminated.
 145 0000 80B4     		push	{r7}
 146              	.LCFI7:
 147              		.cfi_def_cfa_offset 4
 148 0002 00AF     		add	r7, sp, #0
 149              		.cfi_offset 7, -4
 150              	.LCFI8:
 151              		.cfi_def_cfa_register 7
 144:.\Generated_Source\PSoC5/sdlogger_1_sdspi_1_Timer_IRQ.c ****     /*  Place your Interrupt code here. */
 145:.\Generated_Source\PSoC5/sdlogger_1_sdspi_1_Timer_IRQ.c ****     /* `#START sdlogger_1_sdspi_1_Timer_IRQ_Interrupt` */
 146:.\Generated_Source\PSoC5/sdlogger_1_sdspi_1_Timer_IRQ.c **** 
 147:.\Generated_Source\PSoC5/sdlogger_1_sdspi_1_Timer_IRQ.c ****     /* `#END` */
 148:.\Generated_Source\PSoC5/sdlogger_1_sdspi_1_Timer_IRQ.c **** }
 152              		.loc 1 148 0
 153 0004 BD46     		mov	sp, r7
 154 0006 80BC     		pop	{r7}
 155 0008 7047     		bx	lr
 156              		.cfi_endproc
 157              	.LFE3:
 158              		.size	sdlogger_1_sdspi_1_Timer_IRQ_Interrupt, .-sdlogger_1_sdspi_1_Timer_IRQ_Interrupt
 159 000a 00BF     		.section	.text.sdlogger_1_sdspi_1_Timer_IRQ_SetVector,"ax",%progbits
 160              		.align	2
 161              		.global	sdlogger_1_sdspi_1_Timer_IRQ_SetVector
 162              		.thumb
 163              		.thumb_func
 164              		.type	sdlogger_1_sdspi_1_Timer_IRQ_SetVector, %function
 165              	sdlogger_1_sdspi_1_Timer_IRQ_SetVector:
 166              	.LFB4:
 149:.\Generated_Source\PSoC5/sdlogger_1_sdspi_1_Timer_IRQ.c **** 
 150:.\Generated_Source\PSoC5/sdlogger_1_sdspi_1_Timer_IRQ.c **** 
 151:.\Generated_Source\PSoC5/sdlogger_1_sdspi_1_Timer_IRQ.c **** /*******************************************************************************
 152:.\Generated_Source\PSoC5/sdlogger_1_sdspi_1_Timer_IRQ.c **** * Function Name: sdlogger_1_sdspi_1_Timer_IRQ_SetVector
 153:.\Generated_Source\PSoC5/sdlogger_1_sdspi_1_Timer_IRQ.c **** ********************************************************************************
 154:.\Generated_Source\PSoC5/sdlogger_1_sdspi_1_Timer_IRQ.c **** *
 155:.\Generated_Source\PSoC5/sdlogger_1_sdspi_1_Timer_IRQ.c **** * Summary:
 156:.\Generated_Source\PSoC5/sdlogger_1_sdspi_1_Timer_IRQ.c **** *   Change the ISR vector for the Interrupt. Note calling sdlogger_1_sdspi_1_Timer_IRQ_Start
 157:.\Generated_Source\PSoC5/sdlogger_1_sdspi_1_Timer_IRQ.c **** *   will override any effect this method would have had. To set the vector 
 158:.\Generated_Source\PSoC5/sdlogger_1_sdspi_1_Timer_IRQ.c **** *   before the component has been started use sdlogger_1_sdspi_1_Timer_IRQ_StartEx instead.
 159:.\Generated_Source\PSoC5/sdlogger_1_sdspi_1_Timer_IRQ.c **** *
 160:.\Generated_Source\PSoC5/sdlogger_1_sdspi_1_Timer_IRQ.c **** * Parameters:
 161:.\Generated_Source\PSoC5/sdlogger_1_sdspi_1_Timer_IRQ.c **** *   address: Address of the ISR to set in the interrupt vector table.
 162:.\Generated_Source\PSoC5/sdlogger_1_sdspi_1_Timer_IRQ.c **** *
 163:.\Generated_Source\PSoC5/sdlogger_1_sdspi_1_Timer_IRQ.c **** * Return:
 164:.\Generated_Source\PSoC5/sdlogger_1_sdspi_1_Timer_IRQ.c **** *   None
 165:.\Generated_Source\PSoC5/sdlogger_1_sdspi_1_Timer_IRQ.c **** *
 166:.\Generated_Source\PSoC5/sdlogger_1_sdspi_1_Timer_IRQ.c **** *******************************************************************************/
 167:.\Generated_Source\PSoC5/sdlogger_1_sdspi_1_Timer_IRQ.c **** void sdlogger_1_sdspi_1_Timer_IRQ_SetVector(cyisraddress address)
 168:.\Generated_Source\PSoC5/sdlogger_1_sdspi_1_Timer_IRQ.c **** {
 167              		.loc 1 168 0
 168              		.cfi_startproc
 169              		@ args = 0, pretend = 0, frame = 16
 170              		@ frame_needed = 1, uses_anonymous_args = 0
ARM GAS  C:\Users\SUZUKI~1\AppData\Local\Temp\cclMukjO.s 			page 7


 171              		@ link register save eliminated.
 172 0000 80B4     		push	{r7}
 173              	.LCFI9:
 174              		.cfi_def_cfa_offset 4
 175 0002 85B0     		sub	sp, sp, #20
 176              	.LCFI10:
 177              		.cfi_def_cfa_offset 24
 178 0004 00AF     		add	r7, sp, #0
 179              		.cfi_offset 7, -4
 180              	.LCFI11:
 181              		.cfi_def_cfa_register 7
 182 0006 7860     		str	r0, [r7, #4]
 169:.\Generated_Source\PSoC5/sdlogger_1_sdspi_1_Timer_IRQ.c ****     cyisraddress * ramVectorTable;
 170:.\Generated_Source\PSoC5/sdlogger_1_sdspi_1_Timer_IRQ.c **** 
 171:.\Generated_Source\PSoC5/sdlogger_1_sdspi_1_Timer_IRQ.c ****     ramVectorTable = (cyisraddress *) *CYINT_VECT_TABLE;
 183              		.loc 1 171 0
 184 0008 4EF60853 		movw	r3, #:lower16:-536810232
 185 000c CEF20003 		movt	r3, #:upper16:-536810232
 186 0010 1B68     		ldr	r3, [r3, #0]
 187 0012 FB60     		str	r3, [r7, #12]
 172:.\Generated_Source\PSoC5/sdlogger_1_sdspi_1_Timer_IRQ.c **** 
 173:.\Generated_Source\PSoC5/sdlogger_1_sdspi_1_Timer_IRQ.c ****     ramVectorTable[CYINT_IRQ_BASE + (uint32)sdlogger_1_sdspi_1_Timer_IRQ__INTC_NUMBER] = address;
 188              		.loc 1 173 0
 189 0014 FB68     		ldr	r3, [r7, #12]
 190 0016 03F14803 		add	r3, r3, #72
 191 001a 7A68     		ldr	r2, [r7, #4]
 192 001c 1A60     		str	r2, [r3, #0]
 174:.\Generated_Source\PSoC5/sdlogger_1_sdspi_1_Timer_IRQ.c **** }
 193              		.loc 1 174 0
 194 001e 07F11407 		add	r7, r7, #20
 195 0022 BD46     		mov	sp, r7
 196 0024 80BC     		pop	{r7}
 197 0026 7047     		bx	lr
 198              		.cfi_endproc
 199              	.LFE4:
 200              		.size	sdlogger_1_sdspi_1_Timer_IRQ_SetVector, .-sdlogger_1_sdspi_1_Timer_IRQ_SetVector
 201              		.section	.text.sdlogger_1_sdspi_1_Timer_IRQ_GetVector,"ax",%progbits
 202              		.align	2
 203              		.global	sdlogger_1_sdspi_1_Timer_IRQ_GetVector
 204              		.thumb
 205              		.thumb_func
 206              		.type	sdlogger_1_sdspi_1_Timer_IRQ_GetVector, %function
 207              	sdlogger_1_sdspi_1_Timer_IRQ_GetVector:
 208              	.LFB5:
 175:.\Generated_Source\PSoC5/sdlogger_1_sdspi_1_Timer_IRQ.c **** 
 176:.\Generated_Source\PSoC5/sdlogger_1_sdspi_1_Timer_IRQ.c **** 
 177:.\Generated_Source\PSoC5/sdlogger_1_sdspi_1_Timer_IRQ.c **** /*******************************************************************************
 178:.\Generated_Source\PSoC5/sdlogger_1_sdspi_1_Timer_IRQ.c **** * Function Name: sdlogger_1_sdspi_1_Timer_IRQ_GetVector
 179:.\Generated_Source\PSoC5/sdlogger_1_sdspi_1_Timer_IRQ.c **** ********************************************************************************
 180:.\Generated_Source\PSoC5/sdlogger_1_sdspi_1_Timer_IRQ.c **** *
 181:.\Generated_Source\PSoC5/sdlogger_1_sdspi_1_Timer_IRQ.c **** * Summary:
 182:.\Generated_Source\PSoC5/sdlogger_1_sdspi_1_Timer_IRQ.c **** *   Gets the "address" of the current ISR vector for the Interrupt.
 183:.\Generated_Source\PSoC5/sdlogger_1_sdspi_1_Timer_IRQ.c **** *
 184:.\Generated_Source\PSoC5/sdlogger_1_sdspi_1_Timer_IRQ.c **** * Parameters:
 185:.\Generated_Source\PSoC5/sdlogger_1_sdspi_1_Timer_IRQ.c **** *   None
 186:.\Generated_Source\PSoC5/sdlogger_1_sdspi_1_Timer_IRQ.c **** *
 187:.\Generated_Source\PSoC5/sdlogger_1_sdspi_1_Timer_IRQ.c **** * Return:
ARM GAS  C:\Users\SUZUKI~1\AppData\Local\Temp\cclMukjO.s 			page 8


 188:.\Generated_Source\PSoC5/sdlogger_1_sdspi_1_Timer_IRQ.c **** *   Address of the ISR in the interrupt vector table.
 189:.\Generated_Source\PSoC5/sdlogger_1_sdspi_1_Timer_IRQ.c **** *
 190:.\Generated_Source\PSoC5/sdlogger_1_sdspi_1_Timer_IRQ.c **** *******************************************************************************/
 191:.\Generated_Source\PSoC5/sdlogger_1_sdspi_1_Timer_IRQ.c **** cyisraddress sdlogger_1_sdspi_1_Timer_IRQ_GetVector(void)
 192:.\Generated_Source\PSoC5/sdlogger_1_sdspi_1_Timer_IRQ.c **** {
 209              		.loc 1 192 0
 210              		.cfi_startproc
 211              		@ args = 0, pretend = 0, frame = 8
 212              		@ frame_needed = 1, uses_anonymous_args = 0
 213              		@ link register save eliminated.
 214 0000 80B4     		push	{r7}
 215              	.LCFI12:
 216              		.cfi_def_cfa_offset 4
 217 0002 83B0     		sub	sp, sp, #12
 218              	.LCFI13:
 219              		.cfi_def_cfa_offset 16
 220 0004 00AF     		add	r7, sp, #0
 221              		.cfi_offset 7, -4
 222              	.LCFI14:
 223              		.cfi_def_cfa_register 7
 193:.\Generated_Source\PSoC5/sdlogger_1_sdspi_1_Timer_IRQ.c ****     cyisraddress * ramVectorTable;
 194:.\Generated_Source\PSoC5/sdlogger_1_sdspi_1_Timer_IRQ.c **** 
 195:.\Generated_Source\PSoC5/sdlogger_1_sdspi_1_Timer_IRQ.c ****     ramVectorTable = (cyisraddress *) *CYINT_VECT_TABLE;
 224              		.loc 1 195 0
 225 0006 4EF60853 		movw	r3, #:lower16:-536810232
 226 000a CEF20003 		movt	r3, #:upper16:-536810232
 227 000e 1B68     		ldr	r3, [r3, #0]
 228 0010 7B60     		str	r3, [r7, #4]
 196:.\Generated_Source\PSoC5/sdlogger_1_sdspi_1_Timer_IRQ.c **** 
 197:.\Generated_Source\PSoC5/sdlogger_1_sdspi_1_Timer_IRQ.c ****     return ramVectorTable[CYINT_IRQ_BASE + (uint32)sdlogger_1_sdspi_1_Timer_IRQ__INTC_NUMBER];
 229              		.loc 1 197 0
 230 0012 7B68     		ldr	r3, [r7, #4]
 231 0014 03F14803 		add	r3, r3, #72
 232 0018 1B68     		ldr	r3, [r3, #0]
 198:.\Generated_Source\PSoC5/sdlogger_1_sdspi_1_Timer_IRQ.c **** }
 233              		.loc 1 198 0
 234 001a 1846     		mov	r0, r3
 235 001c 07F10C07 		add	r7, r7, #12
 236 0020 BD46     		mov	sp, r7
 237 0022 80BC     		pop	{r7}
 238 0024 7047     		bx	lr
 239              		.cfi_endproc
 240              	.LFE5:
 241              		.size	sdlogger_1_sdspi_1_Timer_IRQ_GetVector, .-sdlogger_1_sdspi_1_Timer_IRQ_GetVector
 242 0026 00BF     		.section	.text.sdlogger_1_sdspi_1_Timer_IRQ_SetPriority,"ax",%progbits
 243              		.align	2
 244              		.global	sdlogger_1_sdspi_1_Timer_IRQ_SetPriority
 245              		.thumb
 246              		.thumb_func
 247              		.type	sdlogger_1_sdspi_1_Timer_IRQ_SetPriority, %function
 248              	sdlogger_1_sdspi_1_Timer_IRQ_SetPriority:
 249              	.LFB6:
 199:.\Generated_Source\PSoC5/sdlogger_1_sdspi_1_Timer_IRQ.c **** 
 200:.\Generated_Source\PSoC5/sdlogger_1_sdspi_1_Timer_IRQ.c **** 
 201:.\Generated_Source\PSoC5/sdlogger_1_sdspi_1_Timer_IRQ.c **** /*******************************************************************************
 202:.\Generated_Source\PSoC5/sdlogger_1_sdspi_1_Timer_IRQ.c **** * Function Name: sdlogger_1_sdspi_1_Timer_IRQ_SetPriority
 203:.\Generated_Source\PSoC5/sdlogger_1_sdspi_1_Timer_IRQ.c **** ********************************************************************************
ARM GAS  C:\Users\SUZUKI~1\AppData\Local\Temp\cclMukjO.s 			page 9


 204:.\Generated_Source\PSoC5/sdlogger_1_sdspi_1_Timer_IRQ.c **** *
 205:.\Generated_Source\PSoC5/sdlogger_1_sdspi_1_Timer_IRQ.c **** * Summary:
 206:.\Generated_Source\PSoC5/sdlogger_1_sdspi_1_Timer_IRQ.c **** *   Sets the Priority of the Interrupt. Note calling sdlogger_1_sdspi_1_Timer_IRQ_Start
 207:.\Generated_Source\PSoC5/sdlogger_1_sdspi_1_Timer_IRQ.c **** *   or sdlogger_1_sdspi_1_Timer_IRQ_StartEx will override any effect this method 
 208:.\Generated_Source\PSoC5/sdlogger_1_sdspi_1_Timer_IRQ.c **** *   would have had. This method should only be called after 
 209:.\Generated_Source\PSoC5/sdlogger_1_sdspi_1_Timer_IRQ.c **** *   sdlogger_1_sdspi_1_Timer_IRQ_Start or sdlogger_1_sdspi_1_Timer_IRQ_StartEx has been called. To 
 210:.\Generated_Source\PSoC5/sdlogger_1_sdspi_1_Timer_IRQ.c **** *   the initial priority for the component use the cydwr file in the tool.
 211:.\Generated_Source\PSoC5/sdlogger_1_sdspi_1_Timer_IRQ.c **** *
 212:.\Generated_Source\PSoC5/sdlogger_1_sdspi_1_Timer_IRQ.c **** * Parameters:
 213:.\Generated_Source\PSoC5/sdlogger_1_sdspi_1_Timer_IRQ.c **** *   priority: Priority of the interrupt. 0 - 7, 0 being the highest.
 214:.\Generated_Source\PSoC5/sdlogger_1_sdspi_1_Timer_IRQ.c **** *
 215:.\Generated_Source\PSoC5/sdlogger_1_sdspi_1_Timer_IRQ.c **** * Return:
 216:.\Generated_Source\PSoC5/sdlogger_1_sdspi_1_Timer_IRQ.c **** *   None
 217:.\Generated_Source\PSoC5/sdlogger_1_sdspi_1_Timer_IRQ.c **** *
 218:.\Generated_Source\PSoC5/sdlogger_1_sdspi_1_Timer_IRQ.c **** *******************************************************************************/
 219:.\Generated_Source\PSoC5/sdlogger_1_sdspi_1_Timer_IRQ.c **** void sdlogger_1_sdspi_1_Timer_IRQ_SetPriority(uint8 priority)
 220:.\Generated_Source\PSoC5/sdlogger_1_sdspi_1_Timer_IRQ.c **** {
 250              		.loc 1 220 0
 251              		.cfi_startproc
 252              		@ args = 0, pretend = 0, frame = 8
 253              		@ frame_needed = 1, uses_anonymous_args = 0
 254              		@ link register save eliminated.
 255 0000 80B4     		push	{r7}
 256              	.LCFI15:
 257              		.cfi_def_cfa_offset 4
 258 0002 83B0     		sub	sp, sp, #12
 259              	.LCFI16:
 260              		.cfi_def_cfa_offset 16
 261 0004 00AF     		add	r7, sp, #0
 262              		.cfi_offset 7, -4
 263              	.LCFI17:
 264              		.cfi_def_cfa_register 7
 265 0006 0346     		mov	r3, r0
 266 0008 FB71     		strb	r3, [r7, #7]
 221:.\Generated_Source\PSoC5/sdlogger_1_sdspi_1_Timer_IRQ.c ****     *sdlogger_1_sdspi_1_Timer_IRQ_INTC_PRIOR = priority << 5;
 267              		.loc 1 221 0
 268 000a 4EF20243 		movw	r3, #:lower16:-536812542
 269 000e CEF20003 		movt	r3, #:upper16:-536812542
 270 0012 FA79     		ldrb	r2, [r7, #7]
 271 0014 4FEA4212 		lsl	r2, r2, #5
 272 0018 D2B2     		uxtb	r2, r2
 273 001a 1A70     		strb	r2, [r3, #0]
 222:.\Generated_Source\PSoC5/sdlogger_1_sdspi_1_Timer_IRQ.c **** }
 274              		.loc 1 222 0
 275 001c 07F10C07 		add	r7, r7, #12
 276 0020 BD46     		mov	sp, r7
 277 0022 80BC     		pop	{r7}
 278 0024 7047     		bx	lr
 279              		.cfi_endproc
 280              	.LFE6:
 281              		.size	sdlogger_1_sdspi_1_Timer_IRQ_SetPriority, .-sdlogger_1_sdspi_1_Timer_IRQ_SetPriority
 282 0026 00BF     		.section	.text.sdlogger_1_sdspi_1_Timer_IRQ_GetPriority,"ax",%progbits
 283              		.align	2
 284              		.global	sdlogger_1_sdspi_1_Timer_IRQ_GetPriority
 285              		.thumb
 286              		.thumb_func
 287              		.type	sdlogger_1_sdspi_1_Timer_IRQ_GetPriority, %function
ARM GAS  C:\Users\SUZUKI~1\AppData\Local\Temp\cclMukjO.s 			page 10


 288              	sdlogger_1_sdspi_1_Timer_IRQ_GetPriority:
 289              	.LFB7:
 223:.\Generated_Source\PSoC5/sdlogger_1_sdspi_1_Timer_IRQ.c **** 
 224:.\Generated_Source\PSoC5/sdlogger_1_sdspi_1_Timer_IRQ.c **** 
 225:.\Generated_Source\PSoC5/sdlogger_1_sdspi_1_Timer_IRQ.c **** /*******************************************************************************
 226:.\Generated_Source\PSoC5/sdlogger_1_sdspi_1_Timer_IRQ.c **** * Function Name: sdlogger_1_sdspi_1_Timer_IRQ_GetPriority
 227:.\Generated_Source\PSoC5/sdlogger_1_sdspi_1_Timer_IRQ.c **** ********************************************************************************
 228:.\Generated_Source\PSoC5/sdlogger_1_sdspi_1_Timer_IRQ.c **** *
 229:.\Generated_Source\PSoC5/sdlogger_1_sdspi_1_Timer_IRQ.c **** * Summary:
 230:.\Generated_Source\PSoC5/sdlogger_1_sdspi_1_Timer_IRQ.c **** *   Gets the Priority of the Interrupt.
 231:.\Generated_Source\PSoC5/sdlogger_1_sdspi_1_Timer_IRQ.c **** *
 232:.\Generated_Source\PSoC5/sdlogger_1_sdspi_1_Timer_IRQ.c **** * Parameters:
 233:.\Generated_Source\PSoC5/sdlogger_1_sdspi_1_Timer_IRQ.c **** *   None
 234:.\Generated_Source\PSoC5/sdlogger_1_sdspi_1_Timer_IRQ.c **** *
 235:.\Generated_Source\PSoC5/sdlogger_1_sdspi_1_Timer_IRQ.c **** * Return:
 236:.\Generated_Source\PSoC5/sdlogger_1_sdspi_1_Timer_IRQ.c **** *   Priority of the interrupt. 0 - 7, 0 being the highest.
 237:.\Generated_Source\PSoC5/sdlogger_1_sdspi_1_Timer_IRQ.c **** *
 238:.\Generated_Source\PSoC5/sdlogger_1_sdspi_1_Timer_IRQ.c **** *******************************************************************************/
 239:.\Generated_Source\PSoC5/sdlogger_1_sdspi_1_Timer_IRQ.c **** uint8 sdlogger_1_sdspi_1_Timer_IRQ_GetPriority(void)
 240:.\Generated_Source\PSoC5/sdlogger_1_sdspi_1_Timer_IRQ.c **** {
 290              		.loc 1 240 0
 291              		.cfi_startproc
 292              		@ args = 0, pretend = 0, frame = 8
 293              		@ frame_needed = 1, uses_anonymous_args = 0
 294              		@ link register save eliminated.
 295 0000 80B4     		push	{r7}
 296              	.LCFI18:
 297              		.cfi_def_cfa_offset 4
 298 0002 83B0     		sub	sp, sp, #12
 299              	.LCFI19:
 300              		.cfi_def_cfa_offset 16
 301 0004 00AF     		add	r7, sp, #0
 302              		.cfi_offset 7, -4
 303              	.LCFI20:
 304              		.cfi_def_cfa_register 7
 241:.\Generated_Source\PSoC5/sdlogger_1_sdspi_1_Timer_IRQ.c ****     uint8 priority;
 242:.\Generated_Source\PSoC5/sdlogger_1_sdspi_1_Timer_IRQ.c **** 
 243:.\Generated_Source\PSoC5/sdlogger_1_sdspi_1_Timer_IRQ.c **** 
 244:.\Generated_Source\PSoC5/sdlogger_1_sdspi_1_Timer_IRQ.c ****     priority = *sdlogger_1_sdspi_1_Timer_IRQ_INTC_PRIOR >> 5;
 305              		.loc 1 244 0
 306 0006 4EF20243 		movw	r3, #:lower16:-536812542
 307 000a CEF20003 		movt	r3, #:upper16:-536812542
 308 000e 1B78     		ldrb	r3, [r3, #0]
 309 0010 DBB2     		uxtb	r3, r3
 310 0012 4FEA5313 		lsr	r3, r3, #5
 311 0016 FB71     		strb	r3, [r7, #7]
 245:.\Generated_Source\PSoC5/sdlogger_1_sdspi_1_Timer_IRQ.c **** 
 246:.\Generated_Source\PSoC5/sdlogger_1_sdspi_1_Timer_IRQ.c ****     return priority;
 312              		.loc 1 246 0
 313 0018 FB79     		ldrb	r3, [r7, #7]	@ zero_extendqisi2
 247:.\Generated_Source\PSoC5/sdlogger_1_sdspi_1_Timer_IRQ.c **** }
 314              		.loc 1 247 0
 315 001a 1846     		mov	r0, r3
 316 001c 07F10C07 		add	r7, r7, #12
 317 0020 BD46     		mov	sp, r7
 318 0022 80BC     		pop	{r7}
 319 0024 7047     		bx	lr
ARM GAS  C:\Users\SUZUKI~1\AppData\Local\Temp\cclMukjO.s 			page 11


 320              		.cfi_endproc
 321              	.LFE7:
 322              		.size	sdlogger_1_sdspi_1_Timer_IRQ_GetPriority, .-sdlogger_1_sdspi_1_Timer_IRQ_GetPriority
 323 0026 00BF     		.section	.text.sdlogger_1_sdspi_1_Timer_IRQ_Enable,"ax",%progbits
 324              		.align	2
 325              		.global	sdlogger_1_sdspi_1_Timer_IRQ_Enable
 326              		.thumb
 327              		.thumb_func
 328              		.type	sdlogger_1_sdspi_1_Timer_IRQ_Enable, %function
 329              	sdlogger_1_sdspi_1_Timer_IRQ_Enable:
 330              	.LFB8:
 248:.\Generated_Source\PSoC5/sdlogger_1_sdspi_1_Timer_IRQ.c **** 
 249:.\Generated_Source\PSoC5/sdlogger_1_sdspi_1_Timer_IRQ.c **** 
 250:.\Generated_Source\PSoC5/sdlogger_1_sdspi_1_Timer_IRQ.c **** /*******************************************************************************
 251:.\Generated_Source\PSoC5/sdlogger_1_sdspi_1_Timer_IRQ.c **** * Function Name: sdlogger_1_sdspi_1_Timer_IRQ_Enable
 252:.\Generated_Source\PSoC5/sdlogger_1_sdspi_1_Timer_IRQ.c **** ********************************************************************************
 253:.\Generated_Source\PSoC5/sdlogger_1_sdspi_1_Timer_IRQ.c **** *
 254:.\Generated_Source\PSoC5/sdlogger_1_sdspi_1_Timer_IRQ.c **** * Summary:
 255:.\Generated_Source\PSoC5/sdlogger_1_sdspi_1_Timer_IRQ.c **** *   Enables the interrupt.
 256:.\Generated_Source\PSoC5/sdlogger_1_sdspi_1_Timer_IRQ.c **** *
 257:.\Generated_Source\PSoC5/sdlogger_1_sdspi_1_Timer_IRQ.c **** * Parameters:
 258:.\Generated_Source\PSoC5/sdlogger_1_sdspi_1_Timer_IRQ.c **** *   None
 259:.\Generated_Source\PSoC5/sdlogger_1_sdspi_1_Timer_IRQ.c **** *
 260:.\Generated_Source\PSoC5/sdlogger_1_sdspi_1_Timer_IRQ.c **** * Return:
 261:.\Generated_Source\PSoC5/sdlogger_1_sdspi_1_Timer_IRQ.c **** *   None
 262:.\Generated_Source\PSoC5/sdlogger_1_sdspi_1_Timer_IRQ.c **** *
 263:.\Generated_Source\PSoC5/sdlogger_1_sdspi_1_Timer_IRQ.c **** *******************************************************************************/
 264:.\Generated_Source\PSoC5/sdlogger_1_sdspi_1_Timer_IRQ.c **** void sdlogger_1_sdspi_1_Timer_IRQ_Enable(void)
 265:.\Generated_Source\PSoC5/sdlogger_1_sdspi_1_Timer_IRQ.c **** {
 331              		.loc 1 265 0
 332              		.cfi_startproc
 333              		@ args = 0, pretend = 0, frame = 0
 334              		@ frame_needed = 1, uses_anonymous_args = 0
 335              		@ link register save eliminated.
 336 0000 80B4     		push	{r7}
 337              	.LCFI21:
 338              		.cfi_def_cfa_offset 4
 339 0002 00AF     		add	r7, sp, #0
 340              		.cfi_offset 7, -4
 341              	.LCFI22:
 342              		.cfi_def_cfa_register 7
 266:.\Generated_Source\PSoC5/sdlogger_1_sdspi_1_Timer_IRQ.c ****     /* Enable the general interrupt. */
 267:.\Generated_Source\PSoC5/sdlogger_1_sdspi_1_Timer_IRQ.c ****     *sdlogger_1_sdspi_1_Timer_IRQ_INTC_SET_EN = sdlogger_1_sdspi_1_Timer_IRQ__INTC_MASK;
 343              		.loc 1 267 0
 344 0004 4EF20013 		movw	r3, #:lower16:-536813312
 345 0008 CEF20003 		movt	r3, #:upper16:-536813312
 346 000c 4FF00402 		mov	r2, #4
 347 0010 1A60     		str	r2, [r3, #0]
 268:.\Generated_Source\PSoC5/sdlogger_1_sdspi_1_Timer_IRQ.c **** }
 348              		.loc 1 268 0
 349 0012 BD46     		mov	sp, r7
 350 0014 80BC     		pop	{r7}
 351 0016 7047     		bx	lr
 352              		.cfi_endproc
 353              	.LFE8:
 354              		.size	sdlogger_1_sdspi_1_Timer_IRQ_Enable, .-sdlogger_1_sdspi_1_Timer_IRQ_Enable
 355              		.section	.text.sdlogger_1_sdspi_1_Timer_IRQ_GetState,"ax",%progbits
ARM GAS  C:\Users\SUZUKI~1\AppData\Local\Temp\cclMukjO.s 			page 12


 356              		.align	2
 357              		.global	sdlogger_1_sdspi_1_Timer_IRQ_GetState
 358              		.thumb
 359              		.thumb_func
 360              		.type	sdlogger_1_sdspi_1_Timer_IRQ_GetState, %function
 361              	sdlogger_1_sdspi_1_Timer_IRQ_GetState:
 362              	.LFB9:
 269:.\Generated_Source\PSoC5/sdlogger_1_sdspi_1_Timer_IRQ.c **** 
 270:.\Generated_Source\PSoC5/sdlogger_1_sdspi_1_Timer_IRQ.c **** 
 271:.\Generated_Source\PSoC5/sdlogger_1_sdspi_1_Timer_IRQ.c **** /*******************************************************************************
 272:.\Generated_Source\PSoC5/sdlogger_1_sdspi_1_Timer_IRQ.c **** * Function Name: sdlogger_1_sdspi_1_Timer_IRQ_GetState
 273:.\Generated_Source\PSoC5/sdlogger_1_sdspi_1_Timer_IRQ.c **** ********************************************************************************
 274:.\Generated_Source\PSoC5/sdlogger_1_sdspi_1_Timer_IRQ.c **** *
 275:.\Generated_Source\PSoC5/sdlogger_1_sdspi_1_Timer_IRQ.c **** * Summary:
 276:.\Generated_Source\PSoC5/sdlogger_1_sdspi_1_Timer_IRQ.c **** *   Gets the state (enabled, disabled) of the Interrupt.
 277:.\Generated_Source\PSoC5/sdlogger_1_sdspi_1_Timer_IRQ.c **** *
 278:.\Generated_Source\PSoC5/sdlogger_1_sdspi_1_Timer_IRQ.c **** * Parameters:
 279:.\Generated_Source\PSoC5/sdlogger_1_sdspi_1_Timer_IRQ.c **** *   None
 280:.\Generated_Source\PSoC5/sdlogger_1_sdspi_1_Timer_IRQ.c **** *
 281:.\Generated_Source\PSoC5/sdlogger_1_sdspi_1_Timer_IRQ.c **** * Return:
 282:.\Generated_Source\PSoC5/sdlogger_1_sdspi_1_Timer_IRQ.c **** *   1 if enabled, 0 if disabled.
 283:.\Generated_Source\PSoC5/sdlogger_1_sdspi_1_Timer_IRQ.c **** *
 284:.\Generated_Source\PSoC5/sdlogger_1_sdspi_1_Timer_IRQ.c **** *******************************************************************************/
 285:.\Generated_Source\PSoC5/sdlogger_1_sdspi_1_Timer_IRQ.c **** uint8 sdlogger_1_sdspi_1_Timer_IRQ_GetState(void)
 286:.\Generated_Source\PSoC5/sdlogger_1_sdspi_1_Timer_IRQ.c **** {
 363              		.loc 1 286 0
 364              		.cfi_startproc
 365              		@ args = 0, pretend = 0, frame = 0
 366              		@ frame_needed = 1, uses_anonymous_args = 0
 367              		@ link register save eliminated.
 368 0000 80B4     		push	{r7}
 369              	.LCFI23:
 370              		.cfi_def_cfa_offset 4
 371 0002 00AF     		add	r7, sp, #0
 372              		.cfi_offset 7, -4
 373              	.LCFI24:
 374              		.cfi_def_cfa_register 7
 287:.\Generated_Source\PSoC5/sdlogger_1_sdspi_1_Timer_IRQ.c ****     /* Get the state of the general interrupt. */
 288:.\Generated_Source\PSoC5/sdlogger_1_sdspi_1_Timer_IRQ.c ****     return ((*sdlogger_1_sdspi_1_Timer_IRQ_INTC_SET_EN & (uint32)sdlogger_1_sdspi_1_Timer_IRQ__INTC
 375              		.loc 1 288 0
 376 0004 4EF20013 		movw	r3, #:lower16:-536813312
 377 0008 CEF20003 		movt	r3, #:upper16:-536813312
 378 000c 1B68     		ldr	r3, [r3, #0]
 379 000e 03F00403 		and	r3, r3, #4
 380 0012 002B     		cmp	r3, #0
 381 0014 02D0     		beq	.L20
 382 0016 4FF00103 		mov	r3, #1
 383 001a 01E0     		b	.L21
 384              	.L20:
 385 001c 4FF00003 		mov	r3, #0
 386              	.L21:
 289:.\Generated_Source\PSoC5/sdlogger_1_sdspi_1_Timer_IRQ.c **** }
 387              		.loc 1 289 0
 388 0020 1846     		mov	r0, r3
 389 0022 BD46     		mov	sp, r7
 390 0024 80BC     		pop	{r7}
 391 0026 7047     		bx	lr
ARM GAS  C:\Users\SUZUKI~1\AppData\Local\Temp\cclMukjO.s 			page 13


 392              		.cfi_endproc
 393              	.LFE9:
 394              		.size	sdlogger_1_sdspi_1_Timer_IRQ_GetState, .-sdlogger_1_sdspi_1_Timer_IRQ_GetState
 395              		.section	.text.sdlogger_1_sdspi_1_Timer_IRQ_Disable,"ax",%progbits
 396              		.align	2
 397              		.global	sdlogger_1_sdspi_1_Timer_IRQ_Disable
 398              		.thumb
 399              		.thumb_func
 400              		.type	sdlogger_1_sdspi_1_Timer_IRQ_Disable, %function
 401              	sdlogger_1_sdspi_1_Timer_IRQ_Disable:
 402              	.LFB10:
 290:.\Generated_Source\PSoC5/sdlogger_1_sdspi_1_Timer_IRQ.c **** 
 291:.\Generated_Source\PSoC5/sdlogger_1_sdspi_1_Timer_IRQ.c **** 
 292:.\Generated_Source\PSoC5/sdlogger_1_sdspi_1_Timer_IRQ.c **** /*******************************************************************************
 293:.\Generated_Source\PSoC5/sdlogger_1_sdspi_1_Timer_IRQ.c **** * Function Name: sdlogger_1_sdspi_1_Timer_IRQ_Disable
 294:.\Generated_Source\PSoC5/sdlogger_1_sdspi_1_Timer_IRQ.c **** ********************************************************************************
 295:.\Generated_Source\PSoC5/sdlogger_1_sdspi_1_Timer_IRQ.c **** *
 296:.\Generated_Source\PSoC5/sdlogger_1_sdspi_1_Timer_IRQ.c **** * Summary:
 297:.\Generated_Source\PSoC5/sdlogger_1_sdspi_1_Timer_IRQ.c **** *   Disables the Interrupt.
 298:.\Generated_Source\PSoC5/sdlogger_1_sdspi_1_Timer_IRQ.c **** *
 299:.\Generated_Source\PSoC5/sdlogger_1_sdspi_1_Timer_IRQ.c **** * Parameters:
 300:.\Generated_Source\PSoC5/sdlogger_1_sdspi_1_Timer_IRQ.c **** *   None
 301:.\Generated_Source\PSoC5/sdlogger_1_sdspi_1_Timer_IRQ.c **** *
 302:.\Generated_Source\PSoC5/sdlogger_1_sdspi_1_Timer_IRQ.c **** * Return:
 303:.\Generated_Source\PSoC5/sdlogger_1_sdspi_1_Timer_IRQ.c **** *   None
 304:.\Generated_Source\PSoC5/sdlogger_1_sdspi_1_Timer_IRQ.c **** *
 305:.\Generated_Source\PSoC5/sdlogger_1_sdspi_1_Timer_IRQ.c **** *******************************************************************************/
 306:.\Generated_Source\PSoC5/sdlogger_1_sdspi_1_Timer_IRQ.c **** void sdlogger_1_sdspi_1_Timer_IRQ_Disable(void)
 307:.\Generated_Source\PSoC5/sdlogger_1_sdspi_1_Timer_IRQ.c **** {
 403              		.loc 1 307 0
 404              		.cfi_startproc
 405              		@ args = 0, pretend = 0, frame = 0
 406              		@ frame_needed = 1, uses_anonymous_args = 0
 407              		@ link register save eliminated.
 408 0000 80B4     		push	{r7}
 409              	.LCFI25:
 410              		.cfi_def_cfa_offset 4
 411 0002 00AF     		add	r7, sp, #0
 412              		.cfi_offset 7, -4
 413              	.LCFI26:
 414              		.cfi_def_cfa_register 7
 308:.\Generated_Source\PSoC5/sdlogger_1_sdspi_1_Timer_IRQ.c ****     /* Disable the general interrupt. */
 309:.\Generated_Source\PSoC5/sdlogger_1_sdspi_1_Timer_IRQ.c ****     *sdlogger_1_sdspi_1_Timer_IRQ_INTC_CLR_EN = sdlogger_1_sdspi_1_Timer_IRQ__INTC_MASK;
 415              		.loc 1 309 0
 416 0004 4EF28013 		movw	r3, #:lower16:-536813184
 417 0008 CEF20003 		movt	r3, #:upper16:-536813184
 418 000c 4FF00402 		mov	r2, #4
 419 0010 1A60     		str	r2, [r3, #0]
 310:.\Generated_Source\PSoC5/sdlogger_1_sdspi_1_Timer_IRQ.c **** }
 420              		.loc 1 310 0
 421 0012 BD46     		mov	sp, r7
 422 0014 80BC     		pop	{r7}
 423 0016 7047     		bx	lr
 424              		.cfi_endproc
 425              	.LFE10:
 426              		.size	sdlogger_1_sdspi_1_Timer_IRQ_Disable, .-sdlogger_1_sdspi_1_Timer_IRQ_Disable
 427              		.section	.text.sdlogger_1_sdspi_1_Timer_IRQ_SetPending,"ax",%progbits
ARM GAS  C:\Users\SUZUKI~1\AppData\Local\Temp\cclMukjO.s 			page 14


 428              		.align	2
 429              		.global	sdlogger_1_sdspi_1_Timer_IRQ_SetPending
 430              		.thumb
 431              		.thumb_func
 432              		.type	sdlogger_1_sdspi_1_Timer_IRQ_SetPending, %function
 433              	sdlogger_1_sdspi_1_Timer_IRQ_SetPending:
 434              	.LFB11:
 311:.\Generated_Source\PSoC5/sdlogger_1_sdspi_1_Timer_IRQ.c **** 
 312:.\Generated_Source\PSoC5/sdlogger_1_sdspi_1_Timer_IRQ.c **** 
 313:.\Generated_Source\PSoC5/sdlogger_1_sdspi_1_Timer_IRQ.c **** /*******************************************************************************
 314:.\Generated_Source\PSoC5/sdlogger_1_sdspi_1_Timer_IRQ.c **** * Function Name: sdlogger_1_sdspi_1_Timer_IRQ_SetPending
 315:.\Generated_Source\PSoC5/sdlogger_1_sdspi_1_Timer_IRQ.c **** ********************************************************************************
 316:.\Generated_Source\PSoC5/sdlogger_1_sdspi_1_Timer_IRQ.c **** *
 317:.\Generated_Source\PSoC5/sdlogger_1_sdspi_1_Timer_IRQ.c **** * Summary:
 318:.\Generated_Source\PSoC5/sdlogger_1_sdspi_1_Timer_IRQ.c **** *   Causes the Interrupt to enter the pending state, a software method of
 319:.\Generated_Source\PSoC5/sdlogger_1_sdspi_1_Timer_IRQ.c **** *   generating the interrupt.
 320:.\Generated_Source\PSoC5/sdlogger_1_sdspi_1_Timer_IRQ.c **** *
 321:.\Generated_Source\PSoC5/sdlogger_1_sdspi_1_Timer_IRQ.c **** * Parameters:
 322:.\Generated_Source\PSoC5/sdlogger_1_sdspi_1_Timer_IRQ.c **** *   None
 323:.\Generated_Source\PSoC5/sdlogger_1_sdspi_1_Timer_IRQ.c **** *
 324:.\Generated_Source\PSoC5/sdlogger_1_sdspi_1_Timer_IRQ.c **** * Return:
 325:.\Generated_Source\PSoC5/sdlogger_1_sdspi_1_Timer_IRQ.c **** *   None
 326:.\Generated_Source\PSoC5/sdlogger_1_sdspi_1_Timer_IRQ.c **** *
 327:.\Generated_Source\PSoC5/sdlogger_1_sdspi_1_Timer_IRQ.c **** *******************************************************************************/
 328:.\Generated_Source\PSoC5/sdlogger_1_sdspi_1_Timer_IRQ.c **** void sdlogger_1_sdspi_1_Timer_IRQ_SetPending(void)
 329:.\Generated_Source\PSoC5/sdlogger_1_sdspi_1_Timer_IRQ.c **** {
 435              		.loc 1 329 0
 436              		.cfi_startproc
 437              		@ args = 0, pretend = 0, frame = 0
 438              		@ frame_needed = 1, uses_anonymous_args = 0
 439              		@ link register save eliminated.
 440 0000 80B4     		push	{r7}
 441              	.LCFI27:
 442              		.cfi_def_cfa_offset 4
 443 0002 00AF     		add	r7, sp, #0
 444              		.cfi_offset 7, -4
 445              	.LCFI28:
 446              		.cfi_def_cfa_register 7
 330:.\Generated_Source\PSoC5/sdlogger_1_sdspi_1_Timer_IRQ.c ****     *sdlogger_1_sdspi_1_Timer_IRQ_INTC_SET_PD = sdlogger_1_sdspi_1_Timer_IRQ__INTC_MASK;
 447              		.loc 1 330 0
 448 0004 4EF20023 		movw	r3, #:lower16:-536813056
 449 0008 CEF20003 		movt	r3, #:upper16:-536813056
 450 000c 4FF00402 		mov	r2, #4
 451 0010 1A60     		str	r2, [r3, #0]
 331:.\Generated_Source\PSoC5/sdlogger_1_sdspi_1_Timer_IRQ.c **** }
 452              		.loc 1 331 0
 453 0012 BD46     		mov	sp, r7
 454 0014 80BC     		pop	{r7}
 455 0016 7047     		bx	lr
 456              		.cfi_endproc
 457              	.LFE11:
 458              		.size	sdlogger_1_sdspi_1_Timer_IRQ_SetPending, .-sdlogger_1_sdspi_1_Timer_IRQ_SetPending
 459              		.section	.text.sdlogger_1_sdspi_1_Timer_IRQ_ClearPending,"ax",%progbits
 460              		.align	2
 461              		.global	sdlogger_1_sdspi_1_Timer_IRQ_ClearPending
 462              		.thumb
 463              		.thumb_func
ARM GAS  C:\Users\SUZUKI~1\AppData\Local\Temp\cclMukjO.s 			page 15


 464              		.type	sdlogger_1_sdspi_1_Timer_IRQ_ClearPending, %function
 465              	sdlogger_1_sdspi_1_Timer_IRQ_ClearPending:
 466              	.LFB12:
 332:.\Generated_Source\PSoC5/sdlogger_1_sdspi_1_Timer_IRQ.c **** 
 333:.\Generated_Source\PSoC5/sdlogger_1_sdspi_1_Timer_IRQ.c **** 
 334:.\Generated_Source\PSoC5/sdlogger_1_sdspi_1_Timer_IRQ.c **** /*******************************************************************************
 335:.\Generated_Source\PSoC5/sdlogger_1_sdspi_1_Timer_IRQ.c **** * Function Name: sdlogger_1_sdspi_1_Timer_IRQ_ClearPending
 336:.\Generated_Source\PSoC5/sdlogger_1_sdspi_1_Timer_IRQ.c **** ********************************************************************************
 337:.\Generated_Source\PSoC5/sdlogger_1_sdspi_1_Timer_IRQ.c **** *
 338:.\Generated_Source\PSoC5/sdlogger_1_sdspi_1_Timer_IRQ.c **** * Summary:
 339:.\Generated_Source\PSoC5/sdlogger_1_sdspi_1_Timer_IRQ.c **** *   Clears a pending interrupt.
 340:.\Generated_Source\PSoC5/sdlogger_1_sdspi_1_Timer_IRQ.c **** *
 341:.\Generated_Source\PSoC5/sdlogger_1_sdspi_1_Timer_IRQ.c **** * Parameters:
 342:.\Generated_Source\PSoC5/sdlogger_1_sdspi_1_Timer_IRQ.c **** *   None
 343:.\Generated_Source\PSoC5/sdlogger_1_sdspi_1_Timer_IRQ.c **** *
 344:.\Generated_Source\PSoC5/sdlogger_1_sdspi_1_Timer_IRQ.c **** * Return:
 345:.\Generated_Source\PSoC5/sdlogger_1_sdspi_1_Timer_IRQ.c **** *   None
 346:.\Generated_Source\PSoC5/sdlogger_1_sdspi_1_Timer_IRQ.c **** *
 347:.\Generated_Source\PSoC5/sdlogger_1_sdspi_1_Timer_IRQ.c **** *******************************************************************************/
 348:.\Generated_Source\PSoC5/sdlogger_1_sdspi_1_Timer_IRQ.c **** void sdlogger_1_sdspi_1_Timer_IRQ_ClearPending(void)
 349:.\Generated_Source\PSoC5/sdlogger_1_sdspi_1_Timer_IRQ.c **** {
 467              		.loc 1 349 0
 468              		.cfi_startproc
 469              		@ args = 0, pretend = 0, frame = 0
 470              		@ frame_needed = 1, uses_anonymous_args = 0
 471              		@ link register save eliminated.
 472 0000 80B4     		push	{r7}
 473              	.LCFI29:
 474              		.cfi_def_cfa_offset 4
 475 0002 00AF     		add	r7, sp, #0
 476              		.cfi_offset 7, -4
 477              	.LCFI30:
 478              		.cfi_def_cfa_register 7
 350:.\Generated_Source\PSoC5/sdlogger_1_sdspi_1_Timer_IRQ.c ****     *sdlogger_1_sdspi_1_Timer_IRQ_INTC_CLR_PD = sdlogger_1_sdspi_1_Timer_IRQ__INTC_MASK;
 479              		.loc 1 350 0
 480 0004 4EF28023 		movw	r3, #:lower16:-536812928
 481 0008 CEF20003 		movt	r3, #:upper16:-536812928
 482 000c 4FF00402 		mov	r2, #4
 483 0010 1A60     		str	r2, [r3, #0]
 351:.\Generated_Source\PSoC5/sdlogger_1_sdspi_1_Timer_IRQ.c **** }
 484              		.loc 1 351 0
 485 0012 BD46     		mov	sp, r7
 486 0014 80BC     		pop	{r7}
 487 0016 7047     		bx	lr
 488              		.cfi_endproc
 489              	.LFE12:
 490              		.size	sdlogger_1_sdspi_1_Timer_IRQ_ClearPending, .-sdlogger_1_sdspi_1_Timer_IRQ_ClearPending
 491              		.text
 492              	.Letext0:
