ARM GAS  C:\Users\SUZUKI~1\AppData\Local\Temp\ccHxXvUM.s 			page 1


   1              		.syntax unified
   2              		.cpu cortex-m3
   3              		.fpu softvfp
   4              		.eabi_attribute 20, 1
   5              		.eabi_attribute 21, 1
   6              		.eabi_attribute 23, 3
   7              		.eabi_attribute 24, 1
   8              		.eabi_attribute 25, 1
   9              		.eabi_attribute 26, 1
  10              		.eabi_attribute 30, 6
  11              		.eabi_attribute 18, 4
  12              		.thumb
  13              		.file	"sdspi_1_SPI.c"
  14              		.section	.debug_abbrev,"",%progbits
  15              	.Ldebug_abbrev0:
  16              		.section	.debug_info,"",%progbits
  17              	.Ldebug_info0:
  18              		.section	.debug_line,"",%progbits
  19              	.Ldebug_line0:
  20 0000 5F020000 		.text
  20      02006400 
  20      00000201 
  20      FB0E0D00 
  20      01010101 
  21              	.Ltext0:
  22              		.cfi_sections	.debug_frame
  23              		.global	sdspi_1_SPI_initVar
  24              		.bss
  25              		.type	sdspi_1_SPI_initVar, %object
  26              		.size	sdspi_1_SPI_initVar, 1
  27              	sdspi_1_SPI_initVar:
  28 0000 00       		.space	1
  29              		.comm	sdspi_1_SPI_swStatusTx,1,1
  30              		.comm	sdspi_1_SPI_swStatusRx,1,1
  31              		.section	.text.sdspi_1_SPI_Init,"ax",%progbits
  32              		.align	2
  33              		.global	sdspi_1_SPI_Init
  34              		.thumb
  35              		.thumb_func
  36              		.type	sdspi_1_SPI_Init, %function
  37              	sdspi_1_SPI_Init:
  38              	.LFB0:
  39              		.file 1 ".\\Generated_Source\\PSoC5\\sdspi_1_SPI.c"
   1:.\Generated_Source\PSoC5/sdspi_1_SPI.c **** /*******************************************************************************
   2:.\Generated_Source\PSoC5/sdspi_1_SPI.c **** * File Name: sdspi_1_SPI.c
   3:.\Generated_Source\PSoC5/sdspi_1_SPI.c **** * Version 2.40
   4:.\Generated_Source\PSoC5/sdspi_1_SPI.c **** *
   5:.\Generated_Source\PSoC5/sdspi_1_SPI.c **** * Description:
   6:.\Generated_Source\PSoC5/sdspi_1_SPI.c **** *  This file provides all API functionality of the SPI Master component.
   7:.\Generated_Source\PSoC5/sdspi_1_SPI.c **** *
   8:.\Generated_Source\PSoC5/sdspi_1_SPI.c **** * Note:
   9:.\Generated_Source\PSoC5/sdspi_1_SPI.c **** *  None.
  10:.\Generated_Source\PSoC5/sdspi_1_SPI.c **** *
  11:.\Generated_Source\PSoC5/sdspi_1_SPI.c **** ********************************************************************************
  12:.\Generated_Source\PSoC5/sdspi_1_SPI.c **** * Copyright 2008-2012, Cypress Semiconductor Corporation.  All rights reserved.
  13:.\Generated_Source\PSoC5/sdspi_1_SPI.c **** * You may use this file only in accordance with the license, terms, conditions,
  14:.\Generated_Source\PSoC5/sdspi_1_SPI.c **** * disclaimers, and limitations in the end user license agreement accompanying
ARM GAS  C:\Users\SUZUKI~1\AppData\Local\Temp\ccHxXvUM.s 			page 2


  15:.\Generated_Source\PSoC5/sdspi_1_SPI.c **** * the software package with which this file was provided.
  16:.\Generated_Source\PSoC5/sdspi_1_SPI.c **** *******************************************************************************/
  17:.\Generated_Source\PSoC5/sdspi_1_SPI.c **** 
  18:.\Generated_Source\PSoC5/sdspi_1_SPI.c **** #include "sdspi_1_SPI_PVT.h"
  19:.\Generated_Source\PSoC5/sdspi_1_SPI.c **** 
  20:.\Generated_Source\PSoC5/sdspi_1_SPI.c **** #if(sdspi_1_SPI_TX_SOFTWARE_BUF_ENABLED)
  21:.\Generated_Source\PSoC5/sdspi_1_SPI.c ****     volatile uint8 sdspi_1_SPI_txBuffer[sdspi_1_SPI_TX_BUFFER_SIZE] = {0u};
  22:.\Generated_Source\PSoC5/sdspi_1_SPI.c ****     volatile uint8 sdspi_1_SPI_txBufferFull;
  23:.\Generated_Source\PSoC5/sdspi_1_SPI.c ****     volatile uint8 sdspi_1_SPI_txBufferRead;
  24:.\Generated_Source\PSoC5/sdspi_1_SPI.c ****     volatile uint8 sdspi_1_SPI_txBufferWrite;
  25:.\Generated_Source\PSoC5/sdspi_1_SPI.c **** #endif /* (sdspi_1_SPI_TX_SOFTWARE_BUF_ENABLED) */
  26:.\Generated_Source\PSoC5/sdspi_1_SPI.c **** 
  27:.\Generated_Source\PSoC5/sdspi_1_SPI.c **** #if(sdspi_1_SPI_RX_SOFTWARE_BUF_ENABLED)
  28:.\Generated_Source\PSoC5/sdspi_1_SPI.c ****     volatile uint8 sdspi_1_SPI_rxBuffer[sdspi_1_SPI_RX_BUFFER_SIZE] = {0u};
  29:.\Generated_Source\PSoC5/sdspi_1_SPI.c ****     volatile uint8 sdspi_1_SPI_rxBufferFull;
  30:.\Generated_Source\PSoC5/sdspi_1_SPI.c ****     volatile uint8 sdspi_1_SPI_rxBufferRead;
  31:.\Generated_Source\PSoC5/sdspi_1_SPI.c ****     volatile uint8 sdspi_1_SPI_rxBufferWrite;
  32:.\Generated_Source\PSoC5/sdspi_1_SPI.c **** #endif /* (sdspi_1_SPI_RX_SOFTWARE_BUF_ENABLED) */
  33:.\Generated_Source\PSoC5/sdspi_1_SPI.c **** 
  34:.\Generated_Source\PSoC5/sdspi_1_SPI.c **** uint8 sdspi_1_SPI_initVar = 0u;
  35:.\Generated_Source\PSoC5/sdspi_1_SPI.c **** 
  36:.\Generated_Source\PSoC5/sdspi_1_SPI.c **** volatile uint8 sdspi_1_SPI_swStatusTx;
  37:.\Generated_Source\PSoC5/sdspi_1_SPI.c **** volatile uint8 sdspi_1_SPI_swStatusRx;
  38:.\Generated_Source\PSoC5/sdspi_1_SPI.c **** 
  39:.\Generated_Source\PSoC5/sdspi_1_SPI.c **** 
  40:.\Generated_Source\PSoC5/sdspi_1_SPI.c **** /*******************************************************************************
  41:.\Generated_Source\PSoC5/sdspi_1_SPI.c **** * Function Name: sdspi_1_SPI_Init
  42:.\Generated_Source\PSoC5/sdspi_1_SPI.c **** ********************************************************************************
  43:.\Generated_Source\PSoC5/sdspi_1_SPI.c **** *
  44:.\Generated_Source\PSoC5/sdspi_1_SPI.c **** * Summary:
  45:.\Generated_Source\PSoC5/sdspi_1_SPI.c **** *  Inits/Restores default SPIM configuration provided with customizer.
  46:.\Generated_Source\PSoC5/sdspi_1_SPI.c **** *
  47:.\Generated_Source\PSoC5/sdspi_1_SPI.c **** * Parameters:
  48:.\Generated_Source\PSoC5/sdspi_1_SPI.c **** *  None.
  49:.\Generated_Source\PSoC5/sdspi_1_SPI.c **** *
  50:.\Generated_Source\PSoC5/sdspi_1_SPI.c **** * Return:
  51:.\Generated_Source\PSoC5/sdspi_1_SPI.c **** *  None.
  52:.\Generated_Source\PSoC5/sdspi_1_SPI.c **** *
  53:.\Generated_Source\PSoC5/sdspi_1_SPI.c **** * Side Effects:
  54:.\Generated_Source\PSoC5/sdspi_1_SPI.c **** *  When this function is called it initializes all of the necessary parameters
  55:.\Generated_Source\PSoC5/sdspi_1_SPI.c **** *  for execution. i.e. setting the initial interrupt mask, configuring the
  56:.\Generated_Source\PSoC5/sdspi_1_SPI.c **** *  interrupt service routine, configuring the bit-counter parameters and
  57:.\Generated_Source\PSoC5/sdspi_1_SPI.c **** *  clearing the FIFO and Status Register.
  58:.\Generated_Source\PSoC5/sdspi_1_SPI.c **** *
  59:.\Generated_Source\PSoC5/sdspi_1_SPI.c **** * Reentrant:
  60:.\Generated_Source\PSoC5/sdspi_1_SPI.c **** *  No.
  61:.\Generated_Source\PSoC5/sdspi_1_SPI.c **** *
  62:.\Generated_Source\PSoC5/sdspi_1_SPI.c **** *******************************************************************************/
  63:.\Generated_Source\PSoC5/sdspi_1_SPI.c **** void sdspi_1_SPI_Init(void) 
  64:.\Generated_Source\PSoC5/sdspi_1_SPI.c **** {
  40              		.loc 1 64 0
  41              		.cfi_startproc
  42              		@ args = 0, pretend = 0, frame = 0
  43              		@ frame_needed = 1, uses_anonymous_args = 0
  44 0000 80B5     		push	{r7, lr}
  45              	.LCFI0:
  46              		.cfi_def_cfa_offset 8
ARM GAS  C:\Users\SUZUKI~1\AppData\Local\Temp\ccHxXvUM.s 			page 3


  47 0002 00AF     		add	r7, sp, #0
  48              		.cfi_offset 14, -4
  49              		.cfi_offset 7, -8
  50              	.LCFI1:
  51              		.cfi_def_cfa_register 7
  65:.\Generated_Source\PSoC5/sdspi_1_SPI.c ****     /* Initialize the Bit counter */
  66:.\Generated_Source\PSoC5/sdspi_1_SPI.c ****     sdspi_1_SPI_COUNTER_PERIOD_REG = sdspi_1_SPI_BITCTR_INIT;
  52              		.loc 1 66 0
  53 0004 46F28843 		movw	r3, #:lower16:1073767560
  54 0008 C4F20003 		movt	r3, #:upper16:1073767560
  55 000c 4FF00F02 		mov	r2, #15
  56 0010 1A70     		strb	r2, [r3, #0]
  67:.\Generated_Source\PSoC5/sdspi_1_SPI.c **** 
  68:.\Generated_Source\PSoC5/sdspi_1_SPI.c ****     /* Init TX ISR  */
  69:.\Generated_Source\PSoC5/sdspi_1_SPI.c ****     #if(0u != sdspi_1_SPI_INTERNAL_TX_INT_ENABLED)
  70:.\Generated_Source\PSoC5/sdspi_1_SPI.c ****         CyIntDisable         (sdspi_1_SPI_TX_ISR_NUMBER);
  71:.\Generated_Source\PSoC5/sdspi_1_SPI.c ****         CyIntSetPriority     (sdspi_1_SPI_TX_ISR_NUMBER,  sdspi_1_SPI_TX_ISR_PRIORITY);
  72:.\Generated_Source\PSoC5/sdspi_1_SPI.c ****         (void) CyIntSetVector(sdspi_1_SPI_TX_ISR_NUMBER, &sdspi_1_SPI_TX_ISR);
  73:.\Generated_Source\PSoC5/sdspi_1_SPI.c ****     #endif /* (0u != sdspi_1_SPI_INTERNAL_TX_INT_ENABLED) */
  74:.\Generated_Source\PSoC5/sdspi_1_SPI.c **** 
  75:.\Generated_Source\PSoC5/sdspi_1_SPI.c ****     /* Init RX ISR  */
  76:.\Generated_Source\PSoC5/sdspi_1_SPI.c ****     #if(0u != sdspi_1_SPI_INTERNAL_RX_INT_ENABLED)
  77:.\Generated_Source\PSoC5/sdspi_1_SPI.c ****         CyIntDisable         (sdspi_1_SPI_RX_ISR_NUMBER);
  78:.\Generated_Source\PSoC5/sdspi_1_SPI.c ****         CyIntSetPriority     (sdspi_1_SPI_RX_ISR_NUMBER,  sdspi_1_SPI_RX_ISR_PRIORITY);
  79:.\Generated_Source\PSoC5/sdspi_1_SPI.c ****         (void) CyIntSetVector(sdspi_1_SPI_RX_ISR_NUMBER, &sdspi_1_SPI_RX_ISR);
  80:.\Generated_Source\PSoC5/sdspi_1_SPI.c ****     #endif /* (0u != sdspi_1_SPI_INTERNAL_RX_INT_ENABLED) */
  81:.\Generated_Source\PSoC5/sdspi_1_SPI.c **** 
  82:.\Generated_Source\PSoC5/sdspi_1_SPI.c ****     /* Clear any stray data from the RX and TX FIFO */
  83:.\Generated_Source\PSoC5/sdspi_1_SPI.c ****     sdspi_1_SPI_ClearFIFO();
  57              		.loc 1 83 0
  58 0012 FFF7FEFF 		bl	sdspi_1_SPI_ClearFIFO
  84:.\Generated_Source\PSoC5/sdspi_1_SPI.c **** 
  85:.\Generated_Source\PSoC5/sdspi_1_SPI.c ****     #if(sdspi_1_SPI_RX_SOFTWARE_BUF_ENABLED)
  86:.\Generated_Source\PSoC5/sdspi_1_SPI.c ****         sdspi_1_SPI_rxBufferFull  = 0u;
  87:.\Generated_Source\PSoC5/sdspi_1_SPI.c ****         sdspi_1_SPI_rxBufferRead  = 0u;
  88:.\Generated_Source\PSoC5/sdspi_1_SPI.c ****         sdspi_1_SPI_rxBufferWrite = 0u;
  89:.\Generated_Source\PSoC5/sdspi_1_SPI.c ****     #endif /* (sdspi_1_SPI_RX_SOFTWARE_BUF_ENABLED) */
  90:.\Generated_Source\PSoC5/sdspi_1_SPI.c **** 
  91:.\Generated_Source\PSoC5/sdspi_1_SPI.c ****     #if(sdspi_1_SPI_TX_SOFTWARE_BUF_ENABLED)
  92:.\Generated_Source\PSoC5/sdspi_1_SPI.c ****         sdspi_1_SPI_txBufferFull  = 0u;
  93:.\Generated_Source\PSoC5/sdspi_1_SPI.c ****         sdspi_1_SPI_txBufferRead  = 0u;
  94:.\Generated_Source\PSoC5/sdspi_1_SPI.c ****         sdspi_1_SPI_txBufferWrite = 0u;
  95:.\Generated_Source\PSoC5/sdspi_1_SPI.c ****     #endif /* (sdspi_1_SPI_TX_SOFTWARE_BUF_ENABLED) */
  96:.\Generated_Source\PSoC5/sdspi_1_SPI.c **** 
  97:.\Generated_Source\PSoC5/sdspi_1_SPI.c ****     (void) sdspi_1_SPI_ReadTxStatus(); /* Clear Tx status and swStatusTx */
  59              		.loc 1 97 0
  60 0016 FFF7FEFF 		bl	sdspi_1_SPI_ReadTxStatus
  98:.\Generated_Source\PSoC5/sdspi_1_SPI.c ****     (void) sdspi_1_SPI_ReadRxStatus(); /* Clear Rx status and swStatusRx */
  61              		.loc 1 98 0
  62 001a FFF7FEFF 		bl	sdspi_1_SPI_ReadRxStatus
  99:.\Generated_Source\PSoC5/sdspi_1_SPI.c **** 
 100:.\Generated_Source\PSoC5/sdspi_1_SPI.c ****     /* Configure TX and RX interrupt mask */
 101:.\Generated_Source\PSoC5/sdspi_1_SPI.c ****     sdspi_1_SPI_TX_STATUS_MASK_REG = sdspi_1_SPI_TX_INIT_INTERRUPTS_MASK;
  63              		.loc 1 101 0
  64 001e 46F28443 		movw	r3, #:lower16:1073767556
  65 0022 C4F20003 		movt	r3, #:upper16:1073767556
  66 0026 4FF00002 		mov	r2, #0
ARM GAS  C:\Users\SUZUKI~1\AppData\Local\Temp\ccHxXvUM.s 			page 4


  67 002a 1A70     		strb	r2, [r3, #0]
 102:.\Generated_Source\PSoC5/sdspi_1_SPI.c ****     sdspi_1_SPI_RX_STATUS_MASK_REG = sdspi_1_SPI_RX_INIT_INTERRUPTS_MASK;
  68              		.loc 1 102 0
  69 002c 46F28943 		movw	r3, #:lower16:1073767561
  70 0030 C4F20003 		movt	r3, #:upper16:1073767561
  71 0034 4FF00002 		mov	r2, #0
  72 0038 1A70     		strb	r2, [r3, #0]
 103:.\Generated_Source\PSoC5/sdspi_1_SPI.c **** }
  73              		.loc 1 103 0
  74 003a 80BD     		pop	{r7, pc}
  75              		.cfi_endproc
  76              	.LFE0:
  77              		.size	sdspi_1_SPI_Init, .-sdspi_1_SPI_Init
  78              		.section	.text.sdspi_1_SPI_Enable,"ax",%progbits
  79              		.align	2
  80              		.global	sdspi_1_SPI_Enable
  81              		.thumb
  82              		.thumb_func
  83              		.type	sdspi_1_SPI_Enable, %function
  84              	sdspi_1_SPI_Enable:
  85              	.LFB1:
 104:.\Generated_Source\PSoC5/sdspi_1_SPI.c **** 
 105:.\Generated_Source\PSoC5/sdspi_1_SPI.c **** 
 106:.\Generated_Source\PSoC5/sdspi_1_SPI.c **** /*******************************************************************************
 107:.\Generated_Source\PSoC5/sdspi_1_SPI.c **** * Function Name: sdspi_1_SPI_Enable
 108:.\Generated_Source\PSoC5/sdspi_1_SPI.c **** ********************************************************************************
 109:.\Generated_Source\PSoC5/sdspi_1_SPI.c **** *
 110:.\Generated_Source\PSoC5/sdspi_1_SPI.c **** * Summary:
 111:.\Generated_Source\PSoC5/sdspi_1_SPI.c **** *  Enable SPIM component.
 112:.\Generated_Source\PSoC5/sdspi_1_SPI.c **** *
 113:.\Generated_Source\PSoC5/sdspi_1_SPI.c **** * Parameters:
 114:.\Generated_Source\PSoC5/sdspi_1_SPI.c **** *  None.
 115:.\Generated_Source\PSoC5/sdspi_1_SPI.c **** *
 116:.\Generated_Source\PSoC5/sdspi_1_SPI.c **** * Return:
 117:.\Generated_Source\PSoC5/sdspi_1_SPI.c **** *  None.
 118:.\Generated_Source\PSoC5/sdspi_1_SPI.c **** *
 119:.\Generated_Source\PSoC5/sdspi_1_SPI.c **** *******************************************************************************/
 120:.\Generated_Source\PSoC5/sdspi_1_SPI.c **** void sdspi_1_SPI_Enable(void) 
 121:.\Generated_Source\PSoC5/sdspi_1_SPI.c **** {
  86              		.loc 1 121 0
  87              		.cfi_startproc
  88              		@ args = 0, pretend = 0, frame = 8
  89              		@ frame_needed = 1, uses_anonymous_args = 0
  90 0000 80B5     		push	{r7, lr}
  91              	.LCFI2:
  92              		.cfi_def_cfa_offset 8
  93 0002 82B0     		sub	sp, sp, #8
  94              	.LCFI3:
  95              		.cfi_def_cfa_offset 16
  96 0004 00AF     		add	r7, sp, #0
  97              		.cfi_offset 14, -4
  98              		.cfi_offset 7, -8
  99              	.LCFI4:
 100              		.cfi_def_cfa_register 7
 122:.\Generated_Source\PSoC5/sdspi_1_SPI.c ****     uint8 enableInterrupts;
 123:.\Generated_Source\PSoC5/sdspi_1_SPI.c **** 
 124:.\Generated_Source\PSoC5/sdspi_1_SPI.c ****     enableInterrupts = CyEnterCriticalSection();
ARM GAS  C:\Users\SUZUKI~1\AppData\Local\Temp\ccHxXvUM.s 			page 5


 101              		.loc 1 124 0
 102 0006 FFF7FEFF 		bl	CyEnterCriticalSection
 103 000a 0346     		mov	r3, r0
 104 000c FB71     		strb	r3, [r7, #7]
 125:.\Generated_Source\PSoC5/sdspi_1_SPI.c ****     sdspi_1_SPI_COUNTER_CONTROL_REG |= sdspi_1_SPI_CNTR_ENABLE;
 105              		.loc 1 125 0
 106 000e 46F29843 		movw	r3, #:lower16:1073767576
 107 0012 C4F20003 		movt	r3, #:upper16:1073767576
 108 0016 46F29842 		movw	r2, #:lower16:1073767576
 109 001a C4F20002 		movt	r2, #:upper16:1073767576
 110 001e 1278     		ldrb	r2, [r2, #0]
 111 0020 D2B2     		uxtb	r2, r2
 112 0022 42F02002 		orr	r2, r2, #32
 113 0026 D2B2     		uxtb	r2, r2
 114 0028 1A70     		strb	r2, [r3, #0]
 126:.\Generated_Source\PSoC5/sdspi_1_SPI.c ****     sdspi_1_SPI_TX_STATUS_ACTL_REG  |= sdspi_1_SPI_INT_ENABLE;
 115              		.loc 1 126 0
 116 002a 46F29443 		movw	r3, #:lower16:1073767572
 117 002e C4F20003 		movt	r3, #:upper16:1073767572
 118 0032 46F29442 		movw	r2, #:lower16:1073767572
 119 0036 C4F20002 		movt	r2, #:upper16:1073767572
 120 003a 1278     		ldrb	r2, [r2, #0]
 121 003c D2B2     		uxtb	r2, r2
 122 003e 42F01002 		orr	r2, r2, #16
 123 0042 D2B2     		uxtb	r2, r2
 124 0044 1A70     		strb	r2, [r3, #0]
 127:.\Generated_Source\PSoC5/sdspi_1_SPI.c ****     sdspi_1_SPI_RX_STATUS_ACTL_REG  |= sdspi_1_SPI_INT_ENABLE;
 125              		.loc 1 127 0
 126 0046 46F29943 		movw	r3, #:lower16:1073767577
 127 004a C4F20003 		movt	r3, #:upper16:1073767577
 128 004e 46F29942 		movw	r2, #:lower16:1073767577
 129 0052 C4F20002 		movt	r2, #:upper16:1073767577
 130 0056 1278     		ldrb	r2, [r2, #0]
 131 0058 D2B2     		uxtb	r2, r2
 132 005a 42F01002 		orr	r2, r2, #16
 133 005e D2B2     		uxtb	r2, r2
 134 0060 1A70     		strb	r2, [r3, #0]
 128:.\Generated_Source\PSoC5/sdspi_1_SPI.c ****     CyExitCriticalSection(enableInterrupts);
 135              		.loc 1 128 0
 136 0062 FB79     		ldrb	r3, [r7, #7]	@ zero_extendqisi2
 137 0064 1846     		mov	r0, r3
 138 0066 FFF7FEFF 		bl	CyExitCriticalSection
 129:.\Generated_Source\PSoC5/sdspi_1_SPI.c **** 
 130:.\Generated_Source\PSoC5/sdspi_1_SPI.c ****     #if(0u != sdspi_1_SPI_INTERNAL_CLOCK)
 131:.\Generated_Source\PSoC5/sdspi_1_SPI.c ****         sdspi_1_SPI_IntClock_Enable();
 132:.\Generated_Source\PSoC5/sdspi_1_SPI.c ****     #endif /* (0u != sdspi_1_SPI_INTERNAL_CLOCK) */
 133:.\Generated_Source\PSoC5/sdspi_1_SPI.c **** 
 134:.\Generated_Source\PSoC5/sdspi_1_SPI.c ****     sdspi_1_SPI_EnableTxInt();
 139              		.loc 1 134 0
 140 006a FFF7FEFF 		bl	sdspi_1_SPI_EnableTxInt
 135:.\Generated_Source\PSoC5/sdspi_1_SPI.c ****     sdspi_1_SPI_EnableRxInt();
 141              		.loc 1 135 0
 142 006e FFF7FEFF 		bl	sdspi_1_SPI_EnableRxInt
 136:.\Generated_Source\PSoC5/sdspi_1_SPI.c **** }
 143              		.loc 1 136 0
 144 0072 07F10807 		add	r7, r7, #8
 145 0076 BD46     		mov	sp, r7
ARM GAS  C:\Users\SUZUKI~1\AppData\Local\Temp\ccHxXvUM.s 			page 6


 146 0078 80BD     		pop	{r7, pc}
 147              		.cfi_endproc
 148              	.LFE1:
 149              		.size	sdspi_1_SPI_Enable, .-sdspi_1_SPI_Enable
 150              		.section	.text.sdspi_1_SPI_Start,"ax",%progbits
 151              		.align	2
 152              		.global	sdspi_1_SPI_Start
 153              		.thumb
 154              		.thumb_func
 155              		.type	sdspi_1_SPI_Start, %function
 156              	sdspi_1_SPI_Start:
 157              	.LFB2:
 137:.\Generated_Source\PSoC5/sdspi_1_SPI.c **** 
 138:.\Generated_Source\PSoC5/sdspi_1_SPI.c **** 
 139:.\Generated_Source\PSoC5/sdspi_1_SPI.c **** /*******************************************************************************
 140:.\Generated_Source\PSoC5/sdspi_1_SPI.c **** * Function Name: sdspi_1_SPI_Start
 141:.\Generated_Source\PSoC5/sdspi_1_SPI.c **** ********************************************************************************
 142:.\Generated_Source\PSoC5/sdspi_1_SPI.c **** *
 143:.\Generated_Source\PSoC5/sdspi_1_SPI.c **** * Summary:
 144:.\Generated_Source\PSoC5/sdspi_1_SPI.c **** *  Initialize and Enable the SPI Master component.
 145:.\Generated_Source\PSoC5/sdspi_1_SPI.c **** *
 146:.\Generated_Source\PSoC5/sdspi_1_SPI.c **** * Parameters:
 147:.\Generated_Source\PSoC5/sdspi_1_SPI.c **** *  None.
 148:.\Generated_Source\PSoC5/sdspi_1_SPI.c **** *
 149:.\Generated_Source\PSoC5/sdspi_1_SPI.c **** * Return:
 150:.\Generated_Source\PSoC5/sdspi_1_SPI.c **** *  None.
 151:.\Generated_Source\PSoC5/sdspi_1_SPI.c **** *
 152:.\Generated_Source\PSoC5/sdspi_1_SPI.c **** * Global variables:
 153:.\Generated_Source\PSoC5/sdspi_1_SPI.c **** *  sdspi_1_SPI_initVar - used to check initial configuration, modified on
 154:.\Generated_Source\PSoC5/sdspi_1_SPI.c **** *  first function call.
 155:.\Generated_Source\PSoC5/sdspi_1_SPI.c **** *
 156:.\Generated_Source\PSoC5/sdspi_1_SPI.c **** * Theory:
 157:.\Generated_Source\PSoC5/sdspi_1_SPI.c **** *  Enable the clock input to enable operation.
 158:.\Generated_Source\PSoC5/sdspi_1_SPI.c **** *
 159:.\Generated_Source\PSoC5/sdspi_1_SPI.c **** * Reentrant:
 160:.\Generated_Source\PSoC5/sdspi_1_SPI.c **** *  No.
 161:.\Generated_Source\PSoC5/sdspi_1_SPI.c **** *
 162:.\Generated_Source\PSoC5/sdspi_1_SPI.c **** *******************************************************************************/
 163:.\Generated_Source\PSoC5/sdspi_1_SPI.c **** void sdspi_1_SPI_Start(void) 
 164:.\Generated_Source\PSoC5/sdspi_1_SPI.c **** {
 158              		.loc 1 164 0
 159              		.cfi_startproc
 160              		@ args = 0, pretend = 0, frame = 0
 161              		@ frame_needed = 1, uses_anonymous_args = 0
 162 0000 80B5     		push	{r7, lr}
 163              	.LCFI5:
 164              		.cfi_def_cfa_offset 8
 165 0002 00AF     		add	r7, sp, #0
 166              		.cfi_offset 14, -4
 167              		.cfi_offset 7, -8
 168              	.LCFI6:
 169              		.cfi_def_cfa_register 7
 165:.\Generated_Source\PSoC5/sdspi_1_SPI.c ****     if(0u == sdspi_1_SPI_initVar)
 170              		.loc 1 165 0
 171 0004 40F20003 		movw	r3, #:lower16:sdspi_1_SPI_initVar
 172 0008 C0F20003 		movt	r3, #:upper16:sdspi_1_SPI_initVar
 173 000c 1B78     		ldrb	r3, [r3, #0]	@ zero_extendqisi2
ARM GAS  C:\Users\SUZUKI~1\AppData\Local\Temp\ccHxXvUM.s 			page 7


 174 000e 002B     		cmp	r3, #0
 175 0010 08D1     		bne	.L6
 166:.\Generated_Source\PSoC5/sdspi_1_SPI.c ****     {
 167:.\Generated_Source\PSoC5/sdspi_1_SPI.c ****         sdspi_1_SPI_Init();
 176              		.loc 1 167 0
 177 0012 FFF7FEFF 		bl	sdspi_1_SPI_Init
 168:.\Generated_Source\PSoC5/sdspi_1_SPI.c ****         sdspi_1_SPI_initVar = 1u;
 178              		.loc 1 168 0
 179 0016 40F20003 		movw	r3, #:lower16:sdspi_1_SPI_initVar
 180 001a C0F20003 		movt	r3, #:upper16:sdspi_1_SPI_initVar
 181 001e 4FF00102 		mov	r2, #1
 182 0022 1A70     		strb	r2, [r3, #0]
 183              	.L6:
 169:.\Generated_Source\PSoC5/sdspi_1_SPI.c ****     }
 170:.\Generated_Source\PSoC5/sdspi_1_SPI.c **** 
 171:.\Generated_Source\PSoC5/sdspi_1_SPI.c ****     sdspi_1_SPI_Enable();
 184              		.loc 1 171 0
 185 0024 FFF7FEFF 		bl	sdspi_1_SPI_Enable
 172:.\Generated_Source\PSoC5/sdspi_1_SPI.c **** }
 186              		.loc 1 172 0
 187 0028 80BD     		pop	{r7, pc}
 188              		.cfi_endproc
 189              	.LFE2:
 190              		.size	sdspi_1_SPI_Start, .-sdspi_1_SPI_Start
 191 002a 00BF     		.section	.text.sdspi_1_SPI_Stop,"ax",%progbits
 192              		.align	2
 193              		.global	sdspi_1_SPI_Stop
 194              		.thumb
 195              		.thumb_func
 196              		.type	sdspi_1_SPI_Stop, %function
 197              	sdspi_1_SPI_Stop:
 198              	.LFB3:
 173:.\Generated_Source\PSoC5/sdspi_1_SPI.c **** 
 174:.\Generated_Source\PSoC5/sdspi_1_SPI.c **** 
 175:.\Generated_Source\PSoC5/sdspi_1_SPI.c **** /*******************************************************************************
 176:.\Generated_Source\PSoC5/sdspi_1_SPI.c **** * Function Name: sdspi_1_SPI_Stop
 177:.\Generated_Source\PSoC5/sdspi_1_SPI.c **** ********************************************************************************
 178:.\Generated_Source\PSoC5/sdspi_1_SPI.c **** *
 179:.\Generated_Source\PSoC5/sdspi_1_SPI.c **** * Summary:
 180:.\Generated_Source\PSoC5/sdspi_1_SPI.c **** *  Disable the SPI Master component.
 181:.\Generated_Source\PSoC5/sdspi_1_SPI.c **** *
 182:.\Generated_Source\PSoC5/sdspi_1_SPI.c **** * Parameters:
 183:.\Generated_Source\PSoC5/sdspi_1_SPI.c **** *  None.
 184:.\Generated_Source\PSoC5/sdspi_1_SPI.c **** *
 185:.\Generated_Source\PSoC5/sdspi_1_SPI.c **** * Return:
 186:.\Generated_Source\PSoC5/sdspi_1_SPI.c **** *  None.
 187:.\Generated_Source\PSoC5/sdspi_1_SPI.c **** *
 188:.\Generated_Source\PSoC5/sdspi_1_SPI.c **** * Theory:
 189:.\Generated_Source\PSoC5/sdspi_1_SPI.c **** *  Disable the clock input to enable operation.
 190:.\Generated_Source\PSoC5/sdspi_1_SPI.c **** *
 191:.\Generated_Source\PSoC5/sdspi_1_SPI.c **** *******************************************************************************/
 192:.\Generated_Source\PSoC5/sdspi_1_SPI.c **** void sdspi_1_SPI_Stop(void) 
 193:.\Generated_Source\PSoC5/sdspi_1_SPI.c **** {
 199              		.loc 1 193 0
 200              		.cfi_startproc
 201              		@ args = 0, pretend = 0, frame = 8
 202              		@ frame_needed = 1, uses_anonymous_args = 0
ARM GAS  C:\Users\SUZUKI~1\AppData\Local\Temp\ccHxXvUM.s 			page 8


 203 0000 80B5     		push	{r7, lr}
 204              	.LCFI7:
 205              		.cfi_def_cfa_offset 8
 206 0002 82B0     		sub	sp, sp, #8
 207              	.LCFI8:
 208              		.cfi_def_cfa_offset 16
 209 0004 00AF     		add	r7, sp, #0
 210              		.cfi_offset 14, -4
 211              		.cfi_offset 7, -8
 212              	.LCFI9:
 213              		.cfi_def_cfa_register 7
 194:.\Generated_Source\PSoC5/sdspi_1_SPI.c ****     uint8 enableInterrupts;
 195:.\Generated_Source\PSoC5/sdspi_1_SPI.c **** 
 196:.\Generated_Source\PSoC5/sdspi_1_SPI.c ****     enableInterrupts = CyEnterCriticalSection();
 214              		.loc 1 196 0
 215 0006 FFF7FEFF 		bl	CyEnterCriticalSection
 216 000a 0346     		mov	r3, r0
 217 000c FB71     		strb	r3, [r7, #7]
 197:.\Generated_Source\PSoC5/sdspi_1_SPI.c ****     sdspi_1_SPI_TX_STATUS_ACTL_REG &= ((uint8) ~sdspi_1_SPI_INT_ENABLE);
 218              		.loc 1 197 0
 219 000e 46F29443 		movw	r3, #:lower16:1073767572
 220 0012 C4F20003 		movt	r3, #:upper16:1073767572
 221 0016 46F29442 		movw	r2, #:lower16:1073767572
 222 001a C4F20002 		movt	r2, #:upper16:1073767572
 223 001e 1278     		ldrb	r2, [r2, #0]
 224 0020 D2B2     		uxtb	r2, r2
 225 0022 02F0EF02 		and	r2, r2, #239
 226 0026 1A70     		strb	r2, [r3, #0]
 198:.\Generated_Source\PSoC5/sdspi_1_SPI.c ****     sdspi_1_SPI_RX_STATUS_ACTL_REG &= ((uint8) ~sdspi_1_SPI_INT_ENABLE);
 227              		.loc 1 198 0
 228 0028 46F29943 		movw	r3, #:lower16:1073767577
 229 002c C4F20003 		movt	r3, #:upper16:1073767577
 230 0030 46F29942 		movw	r2, #:lower16:1073767577
 231 0034 C4F20002 		movt	r2, #:upper16:1073767577
 232 0038 1278     		ldrb	r2, [r2, #0]
 233 003a D2B2     		uxtb	r2, r2
 234 003c 02F0EF02 		and	r2, r2, #239
 235 0040 1A70     		strb	r2, [r3, #0]
 199:.\Generated_Source\PSoC5/sdspi_1_SPI.c ****     CyExitCriticalSection(enableInterrupts);
 236              		.loc 1 199 0
 237 0042 FB79     		ldrb	r3, [r7, #7]	@ zero_extendqisi2
 238 0044 1846     		mov	r0, r3
 239 0046 FFF7FEFF 		bl	CyExitCriticalSection
 200:.\Generated_Source\PSoC5/sdspi_1_SPI.c **** 
 201:.\Generated_Source\PSoC5/sdspi_1_SPI.c ****     #if(0u != sdspi_1_SPI_INTERNAL_CLOCK)
 202:.\Generated_Source\PSoC5/sdspi_1_SPI.c ****         sdspi_1_SPI_IntClock_Disable();
 203:.\Generated_Source\PSoC5/sdspi_1_SPI.c ****     #endif /* (0u != sdspi_1_SPI_INTERNAL_CLOCK) */
 204:.\Generated_Source\PSoC5/sdspi_1_SPI.c **** 
 205:.\Generated_Source\PSoC5/sdspi_1_SPI.c ****     sdspi_1_SPI_DisableTxInt();
 240              		.loc 1 205 0
 241 004a FFF7FEFF 		bl	sdspi_1_SPI_DisableTxInt
 206:.\Generated_Source\PSoC5/sdspi_1_SPI.c ****     sdspi_1_SPI_DisableRxInt();
 242              		.loc 1 206 0
 243 004e FFF7FEFF 		bl	sdspi_1_SPI_DisableRxInt
 207:.\Generated_Source\PSoC5/sdspi_1_SPI.c **** }
 244              		.loc 1 207 0
 245 0052 07F10807 		add	r7, r7, #8
ARM GAS  C:\Users\SUZUKI~1\AppData\Local\Temp\ccHxXvUM.s 			page 9


 246 0056 BD46     		mov	sp, r7
 247 0058 80BD     		pop	{r7, pc}
 248              		.cfi_endproc
 249              	.LFE3:
 250              		.size	sdspi_1_SPI_Stop, .-sdspi_1_SPI_Stop
 251 005a 00BF     		.section	.text.sdspi_1_SPI_EnableTxInt,"ax",%progbits
 252              		.align	2
 253              		.global	sdspi_1_SPI_EnableTxInt
 254              		.thumb
 255              		.thumb_func
 256              		.type	sdspi_1_SPI_EnableTxInt, %function
 257              	sdspi_1_SPI_EnableTxInt:
 258              	.LFB4:
 208:.\Generated_Source\PSoC5/sdspi_1_SPI.c **** 
 209:.\Generated_Source\PSoC5/sdspi_1_SPI.c **** 
 210:.\Generated_Source\PSoC5/sdspi_1_SPI.c **** /*******************************************************************************
 211:.\Generated_Source\PSoC5/sdspi_1_SPI.c **** * Function Name: sdspi_1_SPI_EnableTxInt
 212:.\Generated_Source\PSoC5/sdspi_1_SPI.c **** ********************************************************************************
 213:.\Generated_Source\PSoC5/sdspi_1_SPI.c **** *
 214:.\Generated_Source\PSoC5/sdspi_1_SPI.c **** * Summary:
 215:.\Generated_Source\PSoC5/sdspi_1_SPI.c **** *  Enable internal Tx interrupt generation.
 216:.\Generated_Source\PSoC5/sdspi_1_SPI.c **** *
 217:.\Generated_Source\PSoC5/sdspi_1_SPI.c **** * Parameters:
 218:.\Generated_Source\PSoC5/sdspi_1_SPI.c **** *  None.
 219:.\Generated_Source\PSoC5/sdspi_1_SPI.c **** *
 220:.\Generated_Source\PSoC5/sdspi_1_SPI.c **** * Return:
 221:.\Generated_Source\PSoC5/sdspi_1_SPI.c **** *  None.
 222:.\Generated_Source\PSoC5/sdspi_1_SPI.c **** *
 223:.\Generated_Source\PSoC5/sdspi_1_SPI.c **** * Theory:
 224:.\Generated_Source\PSoC5/sdspi_1_SPI.c **** *  Enable the internal Tx interrupt output -or- the interrupt component itself.
 225:.\Generated_Source\PSoC5/sdspi_1_SPI.c **** *
 226:.\Generated_Source\PSoC5/sdspi_1_SPI.c **** *******************************************************************************/
 227:.\Generated_Source\PSoC5/sdspi_1_SPI.c **** void sdspi_1_SPI_EnableTxInt(void) 
 228:.\Generated_Source\PSoC5/sdspi_1_SPI.c **** {
 259              		.loc 1 228 0
 260              		.cfi_startproc
 261              		@ args = 0, pretend = 0, frame = 0
 262              		@ frame_needed = 1, uses_anonymous_args = 0
 263              		@ link register save eliminated.
 264 0000 80B4     		push	{r7}
 265              	.LCFI10:
 266              		.cfi_def_cfa_offset 4
 267 0002 00AF     		add	r7, sp, #0
 268              		.cfi_offset 7, -4
 269              	.LCFI11:
 270              		.cfi_def_cfa_register 7
 229:.\Generated_Source\PSoC5/sdspi_1_SPI.c ****     #if(0u != sdspi_1_SPI_INTERNAL_TX_INT_ENABLED)
 230:.\Generated_Source\PSoC5/sdspi_1_SPI.c ****         CyIntEnable(sdspi_1_SPI_TX_ISR_NUMBER);
 231:.\Generated_Source\PSoC5/sdspi_1_SPI.c ****     #endif /* (0u != sdspi_1_SPI_INTERNAL_TX_INT_ENABLED) */
 232:.\Generated_Source\PSoC5/sdspi_1_SPI.c **** }
 271              		.loc 1 232 0
 272 0004 BD46     		mov	sp, r7
 273 0006 80BC     		pop	{r7}
 274 0008 7047     		bx	lr
 275              		.cfi_endproc
 276              	.LFE4:
 277              		.size	sdspi_1_SPI_EnableTxInt, .-sdspi_1_SPI_EnableTxInt
ARM GAS  C:\Users\SUZUKI~1\AppData\Local\Temp\ccHxXvUM.s 			page 10


 278 000a 00BF     		.section	.text.sdspi_1_SPI_EnableRxInt,"ax",%progbits
 279              		.align	2
 280              		.global	sdspi_1_SPI_EnableRxInt
 281              		.thumb
 282              		.thumb_func
 283              		.type	sdspi_1_SPI_EnableRxInt, %function
 284              	sdspi_1_SPI_EnableRxInt:
 285              	.LFB5:
 233:.\Generated_Source\PSoC5/sdspi_1_SPI.c **** 
 234:.\Generated_Source\PSoC5/sdspi_1_SPI.c **** 
 235:.\Generated_Source\PSoC5/sdspi_1_SPI.c **** /*******************************************************************************
 236:.\Generated_Source\PSoC5/sdspi_1_SPI.c **** * Function Name: sdspi_1_SPI_EnableRxInt
 237:.\Generated_Source\PSoC5/sdspi_1_SPI.c **** ********************************************************************************
 238:.\Generated_Source\PSoC5/sdspi_1_SPI.c **** *
 239:.\Generated_Source\PSoC5/sdspi_1_SPI.c **** * Summary:
 240:.\Generated_Source\PSoC5/sdspi_1_SPI.c **** *  Enable internal Rx interrupt generation.
 241:.\Generated_Source\PSoC5/sdspi_1_SPI.c **** *
 242:.\Generated_Source\PSoC5/sdspi_1_SPI.c **** * Parameters:
 243:.\Generated_Source\PSoC5/sdspi_1_SPI.c **** *  None.
 244:.\Generated_Source\PSoC5/sdspi_1_SPI.c **** *
 245:.\Generated_Source\PSoC5/sdspi_1_SPI.c **** * Return:
 246:.\Generated_Source\PSoC5/sdspi_1_SPI.c **** *  None.
 247:.\Generated_Source\PSoC5/sdspi_1_SPI.c **** *
 248:.\Generated_Source\PSoC5/sdspi_1_SPI.c **** * Theory:
 249:.\Generated_Source\PSoC5/sdspi_1_SPI.c **** *  Enable the internal Rx interrupt output -or- the interrupt component itself.
 250:.\Generated_Source\PSoC5/sdspi_1_SPI.c **** *
 251:.\Generated_Source\PSoC5/sdspi_1_SPI.c **** *******************************************************************************/
 252:.\Generated_Source\PSoC5/sdspi_1_SPI.c **** void sdspi_1_SPI_EnableRxInt(void) 
 253:.\Generated_Source\PSoC5/sdspi_1_SPI.c **** {
 286              		.loc 1 253 0
 287              		.cfi_startproc
 288              		@ args = 0, pretend = 0, frame = 0
 289              		@ frame_needed = 1, uses_anonymous_args = 0
 290              		@ link register save eliminated.
 291 0000 80B4     		push	{r7}
 292              	.LCFI12:
 293              		.cfi_def_cfa_offset 4
 294 0002 00AF     		add	r7, sp, #0
 295              		.cfi_offset 7, -4
 296              	.LCFI13:
 297              		.cfi_def_cfa_register 7
 254:.\Generated_Source\PSoC5/sdspi_1_SPI.c ****     #if(0u != sdspi_1_SPI_INTERNAL_RX_INT_ENABLED)
 255:.\Generated_Source\PSoC5/sdspi_1_SPI.c ****         CyIntEnable(sdspi_1_SPI_RX_ISR_NUMBER);
 256:.\Generated_Source\PSoC5/sdspi_1_SPI.c ****     #endif /* (0u != sdspi_1_SPI_INTERNAL_RX_INT_ENABLED) */
 257:.\Generated_Source\PSoC5/sdspi_1_SPI.c **** }
 298              		.loc 1 257 0
 299 0004 BD46     		mov	sp, r7
 300 0006 80BC     		pop	{r7}
 301 0008 7047     		bx	lr
 302              		.cfi_endproc
 303              	.LFE5:
 304              		.size	sdspi_1_SPI_EnableRxInt, .-sdspi_1_SPI_EnableRxInt
 305 000a 00BF     		.section	.text.sdspi_1_SPI_DisableTxInt,"ax",%progbits
 306              		.align	2
 307              		.global	sdspi_1_SPI_DisableTxInt
 308              		.thumb
 309              		.thumb_func
ARM GAS  C:\Users\SUZUKI~1\AppData\Local\Temp\ccHxXvUM.s 			page 11


 310              		.type	sdspi_1_SPI_DisableTxInt, %function
 311              	sdspi_1_SPI_DisableTxInt:
 312              	.LFB6:
 258:.\Generated_Source\PSoC5/sdspi_1_SPI.c **** 
 259:.\Generated_Source\PSoC5/sdspi_1_SPI.c **** 
 260:.\Generated_Source\PSoC5/sdspi_1_SPI.c **** /*******************************************************************************
 261:.\Generated_Source\PSoC5/sdspi_1_SPI.c **** * Function Name: sdspi_1_SPI_DisableTxInt
 262:.\Generated_Source\PSoC5/sdspi_1_SPI.c **** ********************************************************************************
 263:.\Generated_Source\PSoC5/sdspi_1_SPI.c **** *
 264:.\Generated_Source\PSoC5/sdspi_1_SPI.c **** * Summary:
 265:.\Generated_Source\PSoC5/sdspi_1_SPI.c **** *  Disable internal Tx interrupt generation.
 266:.\Generated_Source\PSoC5/sdspi_1_SPI.c **** *
 267:.\Generated_Source\PSoC5/sdspi_1_SPI.c **** * Parameters:
 268:.\Generated_Source\PSoC5/sdspi_1_SPI.c **** *  None.
 269:.\Generated_Source\PSoC5/sdspi_1_SPI.c **** *
 270:.\Generated_Source\PSoC5/sdspi_1_SPI.c **** * Return:
 271:.\Generated_Source\PSoC5/sdspi_1_SPI.c **** *  None.
 272:.\Generated_Source\PSoC5/sdspi_1_SPI.c **** *
 273:.\Generated_Source\PSoC5/sdspi_1_SPI.c **** * Theory:
 274:.\Generated_Source\PSoC5/sdspi_1_SPI.c **** *  Disable the internal Tx interrupt output -or- the interrupt component itself.
 275:.\Generated_Source\PSoC5/sdspi_1_SPI.c **** *
 276:.\Generated_Source\PSoC5/sdspi_1_SPI.c **** *******************************************************************************/
 277:.\Generated_Source\PSoC5/sdspi_1_SPI.c **** void sdspi_1_SPI_DisableTxInt(void) 
 278:.\Generated_Source\PSoC5/sdspi_1_SPI.c **** {
 313              		.loc 1 278 0
 314              		.cfi_startproc
 315              		@ args = 0, pretend = 0, frame = 0
 316              		@ frame_needed = 1, uses_anonymous_args = 0
 317              		@ link register save eliminated.
 318 0000 80B4     		push	{r7}
 319              	.LCFI14:
 320              		.cfi_def_cfa_offset 4
 321 0002 00AF     		add	r7, sp, #0
 322              		.cfi_offset 7, -4
 323              	.LCFI15:
 324              		.cfi_def_cfa_register 7
 279:.\Generated_Source\PSoC5/sdspi_1_SPI.c ****     #if(0u != sdspi_1_SPI_INTERNAL_TX_INT_ENABLED)
 280:.\Generated_Source\PSoC5/sdspi_1_SPI.c ****         CyIntDisable(sdspi_1_SPI_TX_ISR_NUMBER);
 281:.\Generated_Source\PSoC5/sdspi_1_SPI.c ****     #endif /* (0u != sdspi_1_SPI_INTERNAL_TX_INT_ENABLED) */
 282:.\Generated_Source\PSoC5/sdspi_1_SPI.c **** }
 325              		.loc 1 282 0
 326 0004 BD46     		mov	sp, r7
 327 0006 80BC     		pop	{r7}
 328 0008 7047     		bx	lr
 329              		.cfi_endproc
 330              	.LFE6:
 331              		.size	sdspi_1_SPI_DisableTxInt, .-sdspi_1_SPI_DisableTxInt
 332 000a 00BF     		.section	.text.sdspi_1_SPI_DisableRxInt,"ax",%progbits
 333              		.align	2
 334              		.global	sdspi_1_SPI_DisableRxInt
 335              		.thumb
 336              		.thumb_func
 337              		.type	sdspi_1_SPI_DisableRxInt, %function
 338              	sdspi_1_SPI_DisableRxInt:
 339              	.LFB7:
 283:.\Generated_Source\PSoC5/sdspi_1_SPI.c **** 
 284:.\Generated_Source\PSoC5/sdspi_1_SPI.c **** 
ARM GAS  C:\Users\SUZUKI~1\AppData\Local\Temp\ccHxXvUM.s 			page 12


 285:.\Generated_Source\PSoC5/sdspi_1_SPI.c **** /*******************************************************************************
 286:.\Generated_Source\PSoC5/sdspi_1_SPI.c **** * Function Name: sdspi_1_SPI_DisableRxInt
 287:.\Generated_Source\PSoC5/sdspi_1_SPI.c **** ********************************************************************************
 288:.\Generated_Source\PSoC5/sdspi_1_SPI.c **** *
 289:.\Generated_Source\PSoC5/sdspi_1_SPI.c **** * Summary:
 290:.\Generated_Source\PSoC5/sdspi_1_SPI.c **** *  Disable internal Rx interrupt generation.
 291:.\Generated_Source\PSoC5/sdspi_1_SPI.c **** *
 292:.\Generated_Source\PSoC5/sdspi_1_SPI.c **** * Parameters:
 293:.\Generated_Source\PSoC5/sdspi_1_SPI.c **** *  None.
 294:.\Generated_Source\PSoC5/sdspi_1_SPI.c **** *
 295:.\Generated_Source\PSoC5/sdspi_1_SPI.c **** * Return:
 296:.\Generated_Source\PSoC5/sdspi_1_SPI.c **** *  None.
 297:.\Generated_Source\PSoC5/sdspi_1_SPI.c **** *
 298:.\Generated_Source\PSoC5/sdspi_1_SPI.c **** * Theory:
 299:.\Generated_Source\PSoC5/sdspi_1_SPI.c **** *  Disable the internal Rx interrupt output -or- the interrupt component itself.
 300:.\Generated_Source\PSoC5/sdspi_1_SPI.c **** *
 301:.\Generated_Source\PSoC5/sdspi_1_SPI.c **** *******************************************************************************/
 302:.\Generated_Source\PSoC5/sdspi_1_SPI.c **** void sdspi_1_SPI_DisableRxInt(void) 
 303:.\Generated_Source\PSoC5/sdspi_1_SPI.c **** {
 340              		.loc 1 303 0
 341              		.cfi_startproc
 342              		@ args = 0, pretend = 0, frame = 0
 343              		@ frame_needed = 1, uses_anonymous_args = 0
 344              		@ link register save eliminated.
 345 0000 80B4     		push	{r7}
 346              	.LCFI16:
 347              		.cfi_def_cfa_offset 4
 348 0002 00AF     		add	r7, sp, #0
 349              		.cfi_offset 7, -4
 350              	.LCFI17:
 351              		.cfi_def_cfa_register 7
 304:.\Generated_Source\PSoC5/sdspi_1_SPI.c ****     #if(0u != sdspi_1_SPI_INTERNAL_RX_INT_ENABLED)
 305:.\Generated_Source\PSoC5/sdspi_1_SPI.c ****         CyIntDisable(sdspi_1_SPI_RX_ISR_NUMBER);
 306:.\Generated_Source\PSoC5/sdspi_1_SPI.c ****     #endif /* (0u != sdspi_1_SPI_INTERNAL_RX_INT_ENABLED) */
 307:.\Generated_Source\PSoC5/sdspi_1_SPI.c **** }
 352              		.loc 1 307 0
 353 0004 BD46     		mov	sp, r7
 354 0006 80BC     		pop	{r7}
 355 0008 7047     		bx	lr
 356              		.cfi_endproc
 357              	.LFE7:
 358              		.size	sdspi_1_SPI_DisableRxInt, .-sdspi_1_SPI_DisableRxInt
 359 000a 00BF     		.section	.text.sdspi_1_SPI_SetTxInterruptMode,"ax",%progbits
 360              		.align	2
 361              		.global	sdspi_1_SPI_SetTxInterruptMode
 362              		.thumb
 363              		.thumb_func
 364              		.type	sdspi_1_SPI_SetTxInterruptMode, %function
 365              	sdspi_1_SPI_SetTxInterruptMode:
 366              	.LFB8:
 308:.\Generated_Source\PSoC5/sdspi_1_SPI.c **** 
 309:.\Generated_Source\PSoC5/sdspi_1_SPI.c **** 
 310:.\Generated_Source\PSoC5/sdspi_1_SPI.c **** /*******************************************************************************
 311:.\Generated_Source\PSoC5/sdspi_1_SPI.c **** * Function Name: sdspi_1_SPI_SetTxInterruptMode
 312:.\Generated_Source\PSoC5/sdspi_1_SPI.c **** ********************************************************************************
 313:.\Generated_Source\PSoC5/sdspi_1_SPI.c **** *
 314:.\Generated_Source\PSoC5/sdspi_1_SPI.c **** * Summary:
ARM GAS  C:\Users\SUZUKI~1\AppData\Local\Temp\ccHxXvUM.s 			page 13


 315:.\Generated_Source\PSoC5/sdspi_1_SPI.c **** *  Configure which status bits trigger an interrupt event.
 316:.\Generated_Source\PSoC5/sdspi_1_SPI.c **** *
 317:.\Generated_Source\PSoC5/sdspi_1_SPI.c **** * Parameters:
 318:.\Generated_Source\PSoC5/sdspi_1_SPI.c **** *  intSrc: An or'd combination of the desired status bit masks (defined in the
 319:.\Generated_Source\PSoC5/sdspi_1_SPI.c **** *  header file).
 320:.\Generated_Source\PSoC5/sdspi_1_SPI.c **** *
 321:.\Generated_Source\PSoC5/sdspi_1_SPI.c **** * Return:
 322:.\Generated_Source\PSoC5/sdspi_1_SPI.c **** *  None.
 323:.\Generated_Source\PSoC5/sdspi_1_SPI.c **** *
 324:.\Generated_Source\PSoC5/sdspi_1_SPI.c **** * Theory:
 325:.\Generated_Source\PSoC5/sdspi_1_SPI.c **** *  Enables the output of specific status bits to the interrupt controller.
 326:.\Generated_Source\PSoC5/sdspi_1_SPI.c **** *
 327:.\Generated_Source\PSoC5/sdspi_1_SPI.c **** *******************************************************************************/
 328:.\Generated_Source\PSoC5/sdspi_1_SPI.c **** void sdspi_1_SPI_SetTxInterruptMode(uint8 intSrc) 
 329:.\Generated_Source\PSoC5/sdspi_1_SPI.c **** {
 367              		.loc 1 329 0
 368              		.cfi_startproc
 369              		@ args = 0, pretend = 0, frame = 8
 370              		@ frame_needed = 1, uses_anonymous_args = 0
 371              		@ link register save eliminated.
 372 0000 80B4     		push	{r7}
 373              	.LCFI18:
 374              		.cfi_def_cfa_offset 4
 375 0002 83B0     		sub	sp, sp, #12
 376              	.LCFI19:
 377              		.cfi_def_cfa_offset 16
 378 0004 00AF     		add	r7, sp, #0
 379              		.cfi_offset 7, -4
 380              	.LCFI20:
 381              		.cfi_def_cfa_register 7
 382 0006 0346     		mov	r3, r0
 383 0008 FB71     		strb	r3, [r7, #7]
 330:.\Generated_Source\PSoC5/sdspi_1_SPI.c ****     sdspi_1_SPI_TX_STATUS_MASK_REG = intSrc;
 384              		.loc 1 330 0
 385 000a 46F28443 		movw	r3, #:lower16:1073767556
 386 000e C4F20003 		movt	r3, #:upper16:1073767556
 387 0012 FA79     		ldrb	r2, [r7, #7]
 388 0014 1A70     		strb	r2, [r3, #0]
 331:.\Generated_Source\PSoC5/sdspi_1_SPI.c **** }
 389              		.loc 1 331 0
 390 0016 07F10C07 		add	r7, r7, #12
 391 001a BD46     		mov	sp, r7
 392 001c 80BC     		pop	{r7}
 393 001e 7047     		bx	lr
 394              		.cfi_endproc
 395              	.LFE8:
 396              		.size	sdspi_1_SPI_SetTxInterruptMode, .-sdspi_1_SPI_SetTxInterruptMode
 397              		.section	.text.sdspi_1_SPI_SetRxInterruptMode,"ax",%progbits
 398              		.align	2
 399              		.global	sdspi_1_SPI_SetRxInterruptMode
 400              		.thumb
 401              		.thumb_func
 402              		.type	sdspi_1_SPI_SetRxInterruptMode, %function
 403              	sdspi_1_SPI_SetRxInterruptMode:
 404              	.LFB9:
 332:.\Generated_Source\PSoC5/sdspi_1_SPI.c **** 
 333:.\Generated_Source\PSoC5/sdspi_1_SPI.c **** 
ARM GAS  C:\Users\SUZUKI~1\AppData\Local\Temp\ccHxXvUM.s 			page 14


 334:.\Generated_Source\PSoC5/sdspi_1_SPI.c **** /*******************************************************************************
 335:.\Generated_Source\PSoC5/sdspi_1_SPI.c **** * Function Name: sdspi_1_SPI_SetRxInterruptMode
 336:.\Generated_Source\PSoC5/sdspi_1_SPI.c **** ********************************************************************************
 337:.\Generated_Source\PSoC5/sdspi_1_SPI.c **** *
 338:.\Generated_Source\PSoC5/sdspi_1_SPI.c **** * Summary:
 339:.\Generated_Source\PSoC5/sdspi_1_SPI.c **** *  Configure which status bits trigger an interrupt event.
 340:.\Generated_Source\PSoC5/sdspi_1_SPI.c **** *
 341:.\Generated_Source\PSoC5/sdspi_1_SPI.c **** * Parameters:
 342:.\Generated_Source\PSoC5/sdspi_1_SPI.c **** *  intSrc: An or'd combination of the desired status bit masks (defined in the
 343:.\Generated_Source\PSoC5/sdspi_1_SPI.c **** *  header file).
 344:.\Generated_Source\PSoC5/sdspi_1_SPI.c **** *
 345:.\Generated_Source\PSoC5/sdspi_1_SPI.c **** * Return:
 346:.\Generated_Source\PSoC5/sdspi_1_SPI.c **** *  None.
 347:.\Generated_Source\PSoC5/sdspi_1_SPI.c **** *
 348:.\Generated_Source\PSoC5/sdspi_1_SPI.c **** * Theory:
 349:.\Generated_Source\PSoC5/sdspi_1_SPI.c **** *  Enables the output of specific status bits to the interrupt controller.
 350:.\Generated_Source\PSoC5/sdspi_1_SPI.c **** *
 351:.\Generated_Source\PSoC5/sdspi_1_SPI.c **** *******************************************************************************/
 352:.\Generated_Source\PSoC5/sdspi_1_SPI.c **** void sdspi_1_SPI_SetRxInterruptMode(uint8 intSrc) 
 353:.\Generated_Source\PSoC5/sdspi_1_SPI.c **** {
 405              		.loc 1 353 0
 406              		.cfi_startproc
 407              		@ args = 0, pretend = 0, frame = 8
 408              		@ frame_needed = 1, uses_anonymous_args = 0
 409              		@ link register save eliminated.
 410 0000 80B4     		push	{r7}
 411              	.LCFI21:
 412              		.cfi_def_cfa_offset 4
 413 0002 83B0     		sub	sp, sp, #12
 414              	.LCFI22:
 415              		.cfi_def_cfa_offset 16
 416 0004 00AF     		add	r7, sp, #0
 417              		.cfi_offset 7, -4
 418              	.LCFI23:
 419              		.cfi_def_cfa_register 7
 420 0006 0346     		mov	r3, r0
 421 0008 FB71     		strb	r3, [r7, #7]
 354:.\Generated_Source\PSoC5/sdspi_1_SPI.c ****     sdspi_1_SPI_RX_STATUS_MASK_REG  = intSrc;
 422              		.loc 1 354 0
 423 000a 46F28943 		movw	r3, #:lower16:1073767561
 424 000e C4F20003 		movt	r3, #:upper16:1073767561
 425 0012 FA79     		ldrb	r2, [r7, #7]
 426 0014 1A70     		strb	r2, [r3, #0]
 355:.\Generated_Source\PSoC5/sdspi_1_SPI.c **** }
 427              		.loc 1 355 0
 428 0016 07F10C07 		add	r7, r7, #12
 429 001a BD46     		mov	sp, r7
 430 001c 80BC     		pop	{r7}
 431 001e 7047     		bx	lr
 432              		.cfi_endproc
 433              	.LFE9:
 434              		.size	sdspi_1_SPI_SetRxInterruptMode, .-sdspi_1_SPI_SetRxInterruptMode
 435              		.section	.text.sdspi_1_SPI_ReadTxStatus,"ax",%progbits
 436              		.align	2
 437              		.global	sdspi_1_SPI_ReadTxStatus
 438              		.thumb
 439              		.thumb_func
ARM GAS  C:\Users\SUZUKI~1\AppData\Local\Temp\ccHxXvUM.s 			page 15


 440              		.type	sdspi_1_SPI_ReadTxStatus, %function
 441              	sdspi_1_SPI_ReadTxStatus:
 442              	.LFB10:
 356:.\Generated_Source\PSoC5/sdspi_1_SPI.c **** 
 357:.\Generated_Source\PSoC5/sdspi_1_SPI.c **** 
 358:.\Generated_Source\PSoC5/sdspi_1_SPI.c **** /*******************************************************************************
 359:.\Generated_Source\PSoC5/sdspi_1_SPI.c **** * Function Name: sdspi_1_SPI_ReadTxStatus
 360:.\Generated_Source\PSoC5/sdspi_1_SPI.c **** ********************************************************************************
 361:.\Generated_Source\PSoC5/sdspi_1_SPI.c **** *
 362:.\Generated_Source\PSoC5/sdspi_1_SPI.c **** * Summary:
 363:.\Generated_Source\PSoC5/sdspi_1_SPI.c **** *  Read the Tx status register for the component.
 364:.\Generated_Source\PSoC5/sdspi_1_SPI.c **** *
 365:.\Generated_Source\PSoC5/sdspi_1_SPI.c **** * Parameters:
 366:.\Generated_Source\PSoC5/sdspi_1_SPI.c **** *  None.
 367:.\Generated_Source\PSoC5/sdspi_1_SPI.c **** *
 368:.\Generated_Source\PSoC5/sdspi_1_SPI.c **** * Return:
 369:.\Generated_Source\PSoC5/sdspi_1_SPI.c **** *  Contents of the Tx status register.
 370:.\Generated_Source\PSoC5/sdspi_1_SPI.c **** *
 371:.\Generated_Source\PSoC5/sdspi_1_SPI.c **** * Global variables:
 372:.\Generated_Source\PSoC5/sdspi_1_SPI.c **** *  sdspi_1_SPI_swStatusTx - used to store in software status register,
 373:.\Generated_Source\PSoC5/sdspi_1_SPI.c **** *  modified every function call - resets to zero.
 374:.\Generated_Source\PSoC5/sdspi_1_SPI.c **** *
 375:.\Generated_Source\PSoC5/sdspi_1_SPI.c **** * Theory:
 376:.\Generated_Source\PSoC5/sdspi_1_SPI.c **** *  Allows the user and the API to read the Tx status register for error
 377:.\Generated_Source\PSoC5/sdspi_1_SPI.c **** *  detection and flow control.
 378:.\Generated_Source\PSoC5/sdspi_1_SPI.c **** *
 379:.\Generated_Source\PSoC5/sdspi_1_SPI.c **** * Side Effects:
 380:.\Generated_Source\PSoC5/sdspi_1_SPI.c **** *  Clear Tx status register of the component.
 381:.\Generated_Source\PSoC5/sdspi_1_SPI.c **** *
 382:.\Generated_Source\PSoC5/sdspi_1_SPI.c **** * Reentrant:
 383:.\Generated_Source\PSoC5/sdspi_1_SPI.c **** *  No.
 384:.\Generated_Source\PSoC5/sdspi_1_SPI.c **** *
 385:.\Generated_Source\PSoC5/sdspi_1_SPI.c **** *******************************************************************************/
 386:.\Generated_Source\PSoC5/sdspi_1_SPI.c **** uint8 sdspi_1_SPI_ReadTxStatus(void) 
 387:.\Generated_Source\PSoC5/sdspi_1_SPI.c **** {
 443              		.loc 1 387 0
 444              		.cfi_startproc
 445              		@ args = 0, pretend = 0, frame = 8
 446              		@ frame_needed = 1, uses_anonymous_args = 0
 447              		@ link register save eliminated.
 448 0000 80B4     		push	{r7}
 449              	.LCFI24:
 450              		.cfi_def_cfa_offset 4
 451 0002 83B0     		sub	sp, sp, #12
 452              	.LCFI25:
 453              		.cfi_def_cfa_offset 16
 454 0004 00AF     		add	r7, sp, #0
 455              		.cfi_offset 7, -4
 456              	.LCFI26:
 457              		.cfi_def_cfa_register 7
 388:.\Generated_Source\PSoC5/sdspi_1_SPI.c ****     uint8 tmpStatus;
 389:.\Generated_Source\PSoC5/sdspi_1_SPI.c **** 
 390:.\Generated_Source\PSoC5/sdspi_1_SPI.c ****     #if(sdspi_1_SPI_TX_SOFTWARE_BUF_ENABLED)
 391:.\Generated_Source\PSoC5/sdspi_1_SPI.c ****         /* Disable TX interrupt to protect global veriables */
 392:.\Generated_Source\PSoC5/sdspi_1_SPI.c ****         sdspi_1_SPI_DisableTxInt();
 393:.\Generated_Source\PSoC5/sdspi_1_SPI.c **** 
 394:.\Generated_Source\PSoC5/sdspi_1_SPI.c ****         tmpStatus = sdspi_1_SPI_GET_STATUS_TX(sdspi_1_SPI_swStatusTx);
ARM GAS  C:\Users\SUZUKI~1\AppData\Local\Temp\ccHxXvUM.s 			page 16


 395:.\Generated_Source\PSoC5/sdspi_1_SPI.c ****         sdspi_1_SPI_swStatusTx = 0u;
 396:.\Generated_Source\PSoC5/sdspi_1_SPI.c **** 
 397:.\Generated_Source\PSoC5/sdspi_1_SPI.c ****         sdspi_1_SPI_EnableTxInt();
 398:.\Generated_Source\PSoC5/sdspi_1_SPI.c **** 
 399:.\Generated_Source\PSoC5/sdspi_1_SPI.c ****     #else
 400:.\Generated_Source\PSoC5/sdspi_1_SPI.c **** 
 401:.\Generated_Source\PSoC5/sdspi_1_SPI.c ****         tmpStatus = sdspi_1_SPI_TX_STATUS_REG;
 458              		.loc 1 401 0
 459 0006 46F26443 		movw	r3, #:lower16:1073767524
 460 000a C4F20003 		movt	r3, #:upper16:1073767524
 461 000e 1B78     		ldrb	r3, [r3, #0]
 462 0010 FB71     		strb	r3, [r7, #7]
 402:.\Generated_Source\PSoC5/sdspi_1_SPI.c **** 
 403:.\Generated_Source\PSoC5/sdspi_1_SPI.c ****     #endif /* (sdspi_1_SPI_TX_SOFTWARE_BUF_ENABLED) */
 404:.\Generated_Source\PSoC5/sdspi_1_SPI.c **** 
 405:.\Generated_Source\PSoC5/sdspi_1_SPI.c ****     return(tmpStatus);
 463              		.loc 1 405 0
 464 0012 FB79     		ldrb	r3, [r7, #7]	@ zero_extendqisi2
 406:.\Generated_Source\PSoC5/sdspi_1_SPI.c **** }
 465              		.loc 1 406 0
 466 0014 1846     		mov	r0, r3
 467 0016 07F10C07 		add	r7, r7, #12
 468 001a BD46     		mov	sp, r7
 469 001c 80BC     		pop	{r7}
 470 001e 7047     		bx	lr
 471              		.cfi_endproc
 472              	.LFE10:
 473              		.size	sdspi_1_SPI_ReadTxStatus, .-sdspi_1_SPI_ReadTxStatus
 474              		.section	.text.sdspi_1_SPI_ReadRxStatus,"ax",%progbits
 475              		.align	2
 476              		.global	sdspi_1_SPI_ReadRxStatus
 477              		.thumb
 478              		.thumb_func
 479              		.type	sdspi_1_SPI_ReadRxStatus, %function
 480              	sdspi_1_SPI_ReadRxStatus:
 481              	.LFB11:
 407:.\Generated_Source\PSoC5/sdspi_1_SPI.c **** 
 408:.\Generated_Source\PSoC5/sdspi_1_SPI.c **** 
 409:.\Generated_Source\PSoC5/sdspi_1_SPI.c **** /*******************************************************************************
 410:.\Generated_Source\PSoC5/sdspi_1_SPI.c **** * Function Name: sdspi_1_SPI_ReadRxStatus
 411:.\Generated_Source\PSoC5/sdspi_1_SPI.c **** ********************************************************************************
 412:.\Generated_Source\PSoC5/sdspi_1_SPI.c **** *
 413:.\Generated_Source\PSoC5/sdspi_1_SPI.c **** * Summary:
 414:.\Generated_Source\PSoC5/sdspi_1_SPI.c **** *  Read the Rx status register for the component.
 415:.\Generated_Source\PSoC5/sdspi_1_SPI.c **** *
 416:.\Generated_Source\PSoC5/sdspi_1_SPI.c **** * Parameters:
 417:.\Generated_Source\PSoC5/sdspi_1_SPI.c **** *  None.
 418:.\Generated_Source\PSoC5/sdspi_1_SPI.c **** *
 419:.\Generated_Source\PSoC5/sdspi_1_SPI.c **** * Return:
 420:.\Generated_Source\PSoC5/sdspi_1_SPI.c **** *  Contents of the Rx status register.
 421:.\Generated_Source\PSoC5/sdspi_1_SPI.c **** *
 422:.\Generated_Source\PSoC5/sdspi_1_SPI.c **** * Global variables:
 423:.\Generated_Source\PSoC5/sdspi_1_SPI.c **** *  sdspi_1_SPI_swStatusRx - used to store in software Rx status register,
 424:.\Generated_Source\PSoC5/sdspi_1_SPI.c **** *  modified every function call - resets to zero.
 425:.\Generated_Source\PSoC5/sdspi_1_SPI.c **** *
 426:.\Generated_Source\PSoC5/sdspi_1_SPI.c **** * Theory:
 427:.\Generated_Source\PSoC5/sdspi_1_SPI.c **** *  Allows the user and the API to read the Rx status register for error
ARM GAS  C:\Users\SUZUKI~1\AppData\Local\Temp\ccHxXvUM.s 			page 17


 428:.\Generated_Source\PSoC5/sdspi_1_SPI.c **** *  detection and flow control.
 429:.\Generated_Source\PSoC5/sdspi_1_SPI.c **** *
 430:.\Generated_Source\PSoC5/sdspi_1_SPI.c **** * Side Effects:
 431:.\Generated_Source\PSoC5/sdspi_1_SPI.c **** *  Clear Rx status register of the component.
 432:.\Generated_Source\PSoC5/sdspi_1_SPI.c **** *
 433:.\Generated_Source\PSoC5/sdspi_1_SPI.c **** * Reentrant:
 434:.\Generated_Source\PSoC5/sdspi_1_SPI.c **** *  No.
 435:.\Generated_Source\PSoC5/sdspi_1_SPI.c **** *
 436:.\Generated_Source\PSoC5/sdspi_1_SPI.c **** *******************************************************************************/
 437:.\Generated_Source\PSoC5/sdspi_1_SPI.c **** uint8 sdspi_1_SPI_ReadRxStatus(void) 
 438:.\Generated_Source\PSoC5/sdspi_1_SPI.c **** {
 482              		.loc 1 438 0
 483              		.cfi_startproc
 484              		@ args = 0, pretend = 0, frame = 8
 485              		@ frame_needed = 1, uses_anonymous_args = 0
 486              		@ link register save eliminated.
 487 0000 80B4     		push	{r7}
 488              	.LCFI27:
 489              		.cfi_def_cfa_offset 4
 490 0002 83B0     		sub	sp, sp, #12
 491              	.LCFI28:
 492              		.cfi_def_cfa_offset 16
 493 0004 00AF     		add	r7, sp, #0
 494              		.cfi_offset 7, -4
 495              	.LCFI29:
 496              		.cfi_def_cfa_register 7
 439:.\Generated_Source\PSoC5/sdspi_1_SPI.c ****     uint8 tmpStatus;
 440:.\Generated_Source\PSoC5/sdspi_1_SPI.c **** 
 441:.\Generated_Source\PSoC5/sdspi_1_SPI.c ****     #if(sdspi_1_SPI_RX_SOFTWARE_BUF_ENABLED)
 442:.\Generated_Source\PSoC5/sdspi_1_SPI.c ****         /* Disable RX interrupt to protect global veriables */
 443:.\Generated_Source\PSoC5/sdspi_1_SPI.c ****         sdspi_1_SPI_DisableRxInt();
 444:.\Generated_Source\PSoC5/sdspi_1_SPI.c **** 
 445:.\Generated_Source\PSoC5/sdspi_1_SPI.c ****         tmpStatus = sdspi_1_SPI_GET_STATUS_RX(sdspi_1_SPI_swStatusRx);
 446:.\Generated_Source\PSoC5/sdspi_1_SPI.c ****         sdspi_1_SPI_swStatusRx = 0u;
 447:.\Generated_Source\PSoC5/sdspi_1_SPI.c **** 
 448:.\Generated_Source\PSoC5/sdspi_1_SPI.c ****         sdspi_1_SPI_EnableRxInt();
 449:.\Generated_Source\PSoC5/sdspi_1_SPI.c **** 
 450:.\Generated_Source\PSoC5/sdspi_1_SPI.c ****     #else
 451:.\Generated_Source\PSoC5/sdspi_1_SPI.c **** 
 452:.\Generated_Source\PSoC5/sdspi_1_SPI.c ****         tmpStatus = sdspi_1_SPI_RX_STATUS_REG;
 497              		.loc 1 452 0
 498 0006 46F26943 		movw	r3, #:lower16:1073767529
 499 000a C4F20003 		movt	r3, #:upper16:1073767529
 500 000e 1B78     		ldrb	r3, [r3, #0]
 501 0010 FB71     		strb	r3, [r7, #7]
 453:.\Generated_Source\PSoC5/sdspi_1_SPI.c **** 
 454:.\Generated_Source\PSoC5/sdspi_1_SPI.c ****     #endif /* (sdspi_1_SPI_RX_SOFTWARE_BUF_ENABLED) */
 455:.\Generated_Source\PSoC5/sdspi_1_SPI.c **** 
 456:.\Generated_Source\PSoC5/sdspi_1_SPI.c ****     return(tmpStatus);
 502              		.loc 1 456 0
 503 0012 FB79     		ldrb	r3, [r7, #7]	@ zero_extendqisi2
 457:.\Generated_Source\PSoC5/sdspi_1_SPI.c **** }
 504              		.loc 1 457 0
 505 0014 1846     		mov	r0, r3
 506 0016 07F10C07 		add	r7, r7, #12
 507 001a BD46     		mov	sp, r7
 508 001c 80BC     		pop	{r7}
ARM GAS  C:\Users\SUZUKI~1\AppData\Local\Temp\ccHxXvUM.s 			page 18


 509 001e 7047     		bx	lr
 510              		.cfi_endproc
 511              	.LFE11:
 512              		.size	sdspi_1_SPI_ReadRxStatus, .-sdspi_1_SPI_ReadRxStatus
 513              		.section	.text.sdspi_1_SPI_WriteTxData,"ax",%progbits
 514              		.align	2
 515              		.global	sdspi_1_SPI_WriteTxData
 516              		.thumb
 517              		.thumb_func
 518              		.type	sdspi_1_SPI_WriteTxData, %function
 519              	sdspi_1_SPI_WriteTxData:
 520              	.LFB12:
 458:.\Generated_Source\PSoC5/sdspi_1_SPI.c **** 
 459:.\Generated_Source\PSoC5/sdspi_1_SPI.c **** 
 460:.\Generated_Source\PSoC5/sdspi_1_SPI.c **** /*******************************************************************************
 461:.\Generated_Source\PSoC5/sdspi_1_SPI.c **** * Function Name: sdspi_1_SPI_WriteTxData
 462:.\Generated_Source\PSoC5/sdspi_1_SPI.c **** ********************************************************************************
 463:.\Generated_Source\PSoC5/sdspi_1_SPI.c **** *
 464:.\Generated_Source\PSoC5/sdspi_1_SPI.c **** * Summary:
 465:.\Generated_Source\PSoC5/sdspi_1_SPI.c **** *  Write a byte of data to be sent across the SPI.
 466:.\Generated_Source\PSoC5/sdspi_1_SPI.c **** *
 467:.\Generated_Source\PSoC5/sdspi_1_SPI.c **** * Parameters:
 468:.\Generated_Source\PSoC5/sdspi_1_SPI.c **** *  txDataByte: The data value to send across the SPI.
 469:.\Generated_Source\PSoC5/sdspi_1_SPI.c **** *
 470:.\Generated_Source\PSoC5/sdspi_1_SPI.c **** * Return:
 471:.\Generated_Source\PSoC5/sdspi_1_SPI.c **** *  None.
 472:.\Generated_Source\PSoC5/sdspi_1_SPI.c **** *
 473:.\Generated_Source\PSoC5/sdspi_1_SPI.c **** * Global variables:
 474:.\Generated_Source\PSoC5/sdspi_1_SPI.c **** *  sdspi_1_SPI_txBufferWrite - used for the account of the bytes which
 475:.\Generated_Source\PSoC5/sdspi_1_SPI.c **** *  have been written down in the TX software buffer, modified every function
 476:.\Generated_Source\PSoC5/sdspi_1_SPI.c **** *  call if TX Software Buffer is used.
 477:.\Generated_Source\PSoC5/sdspi_1_SPI.c **** *  sdspi_1_SPI_txBufferRead - used for the account of the bytes which
 478:.\Generated_Source\PSoC5/sdspi_1_SPI.c **** *  have been read from the TX software buffer.
 479:.\Generated_Source\PSoC5/sdspi_1_SPI.c **** *  sdspi_1_SPI_txBuffer[sdspi_1_SPI_TX_BUFFER_SIZE] - used to store
 480:.\Generated_Source\PSoC5/sdspi_1_SPI.c **** *  data to sending, modified every function call if TX Software Buffer is used.
 481:.\Generated_Source\PSoC5/sdspi_1_SPI.c **** *
 482:.\Generated_Source\PSoC5/sdspi_1_SPI.c **** * Theory:
 483:.\Generated_Source\PSoC5/sdspi_1_SPI.c **** *  Allows the user to transmit any byte of data in a single transfer.
 484:.\Generated_Source\PSoC5/sdspi_1_SPI.c **** *
 485:.\Generated_Source\PSoC5/sdspi_1_SPI.c **** * Side Effects:
 486:.\Generated_Source\PSoC5/sdspi_1_SPI.c **** *  If this function is called again before the previous byte is finished then
 487:.\Generated_Source\PSoC5/sdspi_1_SPI.c **** *  the next byte will be appended to the transfer with no time between
 488:.\Generated_Source\PSoC5/sdspi_1_SPI.c **** *  the byte transfers. Clear Tx status register of the component.
 489:.\Generated_Source\PSoC5/sdspi_1_SPI.c **** *
 490:.\Generated_Source\PSoC5/sdspi_1_SPI.c **** * Reentrant:
 491:.\Generated_Source\PSoC5/sdspi_1_SPI.c **** *  No.
 492:.\Generated_Source\PSoC5/sdspi_1_SPI.c **** *
 493:.\Generated_Source\PSoC5/sdspi_1_SPI.c **** *******************************************************************************/
 494:.\Generated_Source\PSoC5/sdspi_1_SPI.c **** void sdspi_1_SPI_WriteTxData(uint8 txData) 
 495:.\Generated_Source\PSoC5/sdspi_1_SPI.c **** {
 521              		.loc 1 495 0
 522              		.cfi_startproc
 523              		@ args = 0, pretend = 0, frame = 8
 524              		@ frame_needed = 1, uses_anonymous_args = 0
 525              		@ link register save eliminated.
 526 0000 80B4     		push	{r7}
 527              	.LCFI30:
ARM GAS  C:\Users\SUZUKI~1\AppData\Local\Temp\ccHxXvUM.s 			page 19


 528              		.cfi_def_cfa_offset 4
 529 0002 83B0     		sub	sp, sp, #12
 530              	.LCFI31:
 531              		.cfi_def_cfa_offset 16
 532 0004 00AF     		add	r7, sp, #0
 533              		.cfi_offset 7, -4
 534              	.LCFI32:
 535              		.cfi_def_cfa_register 7
 536 0006 0346     		mov	r3, r0
 537 0008 FB71     		strb	r3, [r7, #7]
 538              	.L27:
 496:.\Generated_Source\PSoC5/sdspi_1_SPI.c ****     #if(sdspi_1_SPI_TX_SOFTWARE_BUF_ENABLED)
 497:.\Generated_Source\PSoC5/sdspi_1_SPI.c **** 
 498:.\Generated_Source\PSoC5/sdspi_1_SPI.c ****         uint8 tempStatus;
 499:.\Generated_Source\PSoC5/sdspi_1_SPI.c ****         uint8 tmpTxBufferRead;
 500:.\Generated_Source\PSoC5/sdspi_1_SPI.c **** 
 501:.\Generated_Source\PSoC5/sdspi_1_SPI.c ****         /* Block if TX buffer is FULL: don't overwrite */
 502:.\Generated_Source\PSoC5/sdspi_1_SPI.c ****         do
 503:.\Generated_Source\PSoC5/sdspi_1_SPI.c ****         {
 504:.\Generated_Source\PSoC5/sdspi_1_SPI.c ****             tmpTxBufferRead = sdspi_1_SPI_txBufferRead;
 505:.\Generated_Source\PSoC5/sdspi_1_SPI.c ****             if(0u == tmpTxBufferRead)
 506:.\Generated_Source\PSoC5/sdspi_1_SPI.c ****             {
 507:.\Generated_Source\PSoC5/sdspi_1_SPI.c ****                 tmpTxBufferRead = (sdspi_1_SPI_TX_BUFFER_SIZE - 1u);
 508:.\Generated_Source\PSoC5/sdspi_1_SPI.c ****             }
 509:.\Generated_Source\PSoC5/sdspi_1_SPI.c ****             else
 510:.\Generated_Source\PSoC5/sdspi_1_SPI.c ****             {
 511:.\Generated_Source\PSoC5/sdspi_1_SPI.c ****                 tmpTxBufferRead--;
 512:.\Generated_Source\PSoC5/sdspi_1_SPI.c ****             }
 513:.\Generated_Source\PSoC5/sdspi_1_SPI.c **** 
 514:.\Generated_Source\PSoC5/sdspi_1_SPI.c ****         }while(tmpTxBufferRead == sdspi_1_SPI_txBufferWrite);
 515:.\Generated_Source\PSoC5/sdspi_1_SPI.c **** 
 516:.\Generated_Source\PSoC5/sdspi_1_SPI.c ****         /* Disable TX interrupt to protect global veriables */
 517:.\Generated_Source\PSoC5/sdspi_1_SPI.c ****         sdspi_1_SPI_DisableTxInt();
 518:.\Generated_Source\PSoC5/sdspi_1_SPI.c **** 
 519:.\Generated_Source\PSoC5/sdspi_1_SPI.c ****         tempStatus = sdspi_1_SPI_GET_STATUS_TX(sdspi_1_SPI_swStatusTx);
 520:.\Generated_Source\PSoC5/sdspi_1_SPI.c ****         sdspi_1_SPI_swStatusTx = tempStatus;
 521:.\Generated_Source\PSoC5/sdspi_1_SPI.c **** 
 522:.\Generated_Source\PSoC5/sdspi_1_SPI.c **** 
 523:.\Generated_Source\PSoC5/sdspi_1_SPI.c ****         if((sdspi_1_SPI_txBufferRead == sdspi_1_SPI_txBufferWrite) &&
 524:.\Generated_Source\PSoC5/sdspi_1_SPI.c ****            (0u != (sdspi_1_SPI_swStatusTx & sdspi_1_SPI_STS_TX_FIFO_NOT_FULL)))
 525:.\Generated_Source\PSoC5/sdspi_1_SPI.c ****         {
 526:.\Generated_Source\PSoC5/sdspi_1_SPI.c ****             /* Add directly to the TX FIFO */
 527:.\Generated_Source\PSoC5/sdspi_1_SPI.c ****             CY_SET_REG8(sdspi_1_SPI_TXDATA_PTR, txData);
 528:.\Generated_Source\PSoC5/sdspi_1_SPI.c ****         }
 529:.\Generated_Source\PSoC5/sdspi_1_SPI.c ****         else
 530:.\Generated_Source\PSoC5/sdspi_1_SPI.c ****         {
 531:.\Generated_Source\PSoC5/sdspi_1_SPI.c ****             /* Add to the TX software buffer */
 532:.\Generated_Source\PSoC5/sdspi_1_SPI.c ****             sdspi_1_SPI_txBufferWrite++;
 533:.\Generated_Source\PSoC5/sdspi_1_SPI.c ****             if(sdspi_1_SPI_txBufferWrite >= sdspi_1_SPI_TX_BUFFER_SIZE)
 534:.\Generated_Source\PSoC5/sdspi_1_SPI.c ****             {
 535:.\Generated_Source\PSoC5/sdspi_1_SPI.c ****                 sdspi_1_SPI_txBufferWrite = 0u;
 536:.\Generated_Source\PSoC5/sdspi_1_SPI.c ****             }
 537:.\Generated_Source\PSoC5/sdspi_1_SPI.c **** 
 538:.\Generated_Source\PSoC5/sdspi_1_SPI.c ****             if(sdspi_1_SPI_txBufferWrite == sdspi_1_SPI_txBufferRead)
 539:.\Generated_Source\PSoC5/sdspi_1_SPI.c ****             {
 540:.\Generated_Source\PSoC5/sdspi_1_SPI.c ****                 sdspi_1_SPI_txBufferRead++;
 541:.\Generated_Source\PSoC5/sdspi_1_SPI.c ****                 if(sdspi_1_SPI_txBufferRead >= sdspi_1_SPI_TX_BUFFER_SIZE)
ARM GAS  C:\Users\SUZUKI~1\AppData\Local\Temp\ccHxXvUM.s 			page 20


 542:.\Generated_Source\PSoC5/sdspi_1_SPI.c ****                 {
 543:.\Generated_Source\PSoC5/sdspi_1_SPI.c ****                     sdspi_1_SPI_txBufferRead = 0u;
 544:.\Generated_Source\PSoC5/sdspi_1_SPI.c ****                 }
 545:.\Generated_Source\PSoC5/sdspi_1_SPI.c ****                 sdspi_1_SPI_txBufferFull = 1u;
 546:.\Generated_Source\PSoC5/sdspi_1_SPI.c ****             }
 547:.\Generated_Source\PSoC5/sdspi_1_SPI.c **** 
 548:.\Generated_Source\PSoC5/sdspi_1_SPI.c ****             sdspi_1_SPI_txBuffer[sdspi_1_SPI_txBufferWrite] = txData;
 549:.\Generated_Source\PSoC5/sdspi_1_SPI.c **** 
 550:.\Generated_Source\PSoC5/sdspi_1_SPI.c ****             sdspi_1_SPI_TX_STATUS_MASK_REG |= sdspi_1_SPI_STS_TX_FIFO_NOT_FULL;
 551:.\Generated_Source\PSoC5/sdspi_1_SPI.c ****         }
 552:.\Generated_Source\PSoC5/sdspi_1_SPI.c **** 
 553:.\Generated_Source\PSoC5/sdspi_1_SPI.c ****         sdspi_1_SPI_EnableTxInt();
 554:.\Generated_Source\PSoC5/sdspi_1_SPI.c **** 
 555:.\Generated_Source\PSoC5/sdspi_1_SPI.c ****     #else
 556:.\Generated_Source\PSoC5/sdspi_1_SPI.c **** 
 557:.\Generated_Source\PSoC5/sdspi_1_SPI.c ****         while(0u == (sdspi_1_SPI_TX_STATUS_REG & sdspi_1_SPI_STS_TX_FIFO_NOT_FULL))
 539              		.loc 1 557 0
 540 000a 46F26443 		movw	r3, #:lower16:1073767524
 541 000e C4F20003 		movt	r3, #:upper16:1073767524
 542 0012 1B78     		ldrb	r3, [r3, #0]
 543 0014 DBB2     		uxtb	r3, r3
 544 0016 03F00403 		and	r3, r3, #4
 545 001a 002B     		cmp	r3, #0
 546 001c F5D0     		beq	.L27
 558:.\Generated_Source\PSoC5/sdspi_1_SPI.c ****         {
 559:.\Generated_Source\PSoC5/sdspi_1_SPI.c ****             ; /* Wait for room in FIFO */
 560:.\Generated_Source\PSoC5/sdspi_1_SPI.c ****         }
 561:.\Generated_Source\PSoC5/sdspi_1_SPI.c **** 
 562:.\Generated_Source\PSoC5/sdspi_1_SPI.c ****         /* Put byte in TX FIFO */
 563:.\Generated_Source\PSoC5/sdspi_1_SPI.c ****         CY_SET_REG8(sdspi_1_SPI_TXDATA_PTR, txData);
 547              		.loc 1 563 0
 548 001e 46F24943 		movw	r3, #:lower16:1073767497
 549 0022 C4F20003 		movt	r3, #:upper16:1073767497
 550 0026 FA79     		ldrb	r2, [r7, #7]
 551 0028 1A70     		strb	r2, [r3, #0]
 564:.\Generated_Source\PSoC5/sdspi_1_SPI.c **** 
 565:.\Generated_Source\PSoC5/sdspi_1_SPI.c ****     #endif /* (sdspi_1_SPI_TX_SOFTWARE_BUF_ENABLED) */
 566:.\Generated_Source\PSoC5/sdspi_1_SPI.c **** }
 552              		.loc 1 566 0
 553 002a 07F10C07 		add	r7, r7, #12
 554 002e BD46     		mov	sp, r7
 555 0030 80BC     		pop	{r7}
 556 0032 7047     		bx	lr
 557              		.cfi_endproc
 558              	.LFE12:
 559              		.size	sdspi_1_SPI_WriteTxData, .-sdspi_1_SPI_WriteTxData
 560              		.section	.text.sdspi_1_SPI_ReadRxData,"ax",%progbits
 561              		.align	2
 562              		.global	sdspi_1_SPI_ReadRxData
 563              		.thumb
 564              		.thumb_func
 565              		.type	sdspi_1_SPI_ReadRxData, %function
 566              	sdspi_1_SPI_ReadRxData:
 567              	.LFB13:
 567:.\Generated_Source\PSoC5/sdspi_1_SPI.c **** 
 568:.\Generated_Source\PSoC5/sdspi_1_SPI.c **** 
 569:.\Generated_Source\PSoC5/sdspi_1_SPI.c **** /*******************************************************************************
ARM GAS  C:\Users\SUZUKI~1\AppData\Local\Temp\ccHxXvUM.s 			page 21


 570:.\Generated_Source\PSoC5/sdspi_1_SPI.c **** * Function Name: sdspi_1_SPI_ReadRxData
 571:.\Generated_Source\PSoC5/sdspi_1_SPI.c **** ********************************************************************************
 572:.\Generated_Source\PSoC5/sdspi_1_SPI.c **** *
 573:.\Generated_Source\PSoC5/sdspi_1_SPI.c **** * Summary:
 574:.\Generated_Source\PSoC5/sdspi_1_SPI.c **** *  Read the next byte of data received across the SPI.
 575:.\Generated_Source\PSoC5/sdspi_1_SPI.c **** *
 576:.\Generated_Source\PSoC5/sdspi_1_SPI.c **** * Parameters:
 577:.\Generated_Source\PSoC5/sdspi_1_SPI.c **** *  None.
 578:.\Generated_Source\PSoC5/sdspi_1_SPI.c **** *
 579:.\Generated_Source\PSoC5/sdspi_1_SPI.c **** * Return:
 580:.\Generated_Source\PSoC5/sdspi_1_SPI.c **** *  The next byte of data read from the FIFO.
 581:.\Generated_Source\PSoC5/sdspi_1_SPI.c **** *
 582:.\Generated_Source\PSoC5/sdspi_1_SPI.c **** * Global variables:
 583:.\Generated_Source\PSoC5/sdspi_1_SPI.c **** *  sdspi_1_SPI_rxBufferWrite - used for the account of the bytes which
 584:.\Generated_Source\PSoC5/sdspi_1_SPI.c **** *  have been written down in the RX software buffer.
 585:.\Generated_Source\PSoC5/sdspi_1_SPI.c **** *  sdspi_1_SPI_rxBufferRead - used for the account of the bytes which
 586:.\Generated_Source\PSoC5/sdspi_1_SPI.c **** *  have been read from the RX software buffer, modified every function
 587:.\Generated_Source\PSoC5/sdspi_1_SPI.c **** *  call if RX Software Buffer is used.
 588:.\Generated_Source\PSoC5/sdspi_1_SPI.c **** *  sdspi_1_SPI_rxBuffer[sdspi_1_SPI_RX_BUFFER_SIZE] - used to store
 589:.\Generated_Source\PSoC5/sdspi_1_SPI.c **** *  received data.
 590:.\Generated_Source\PSoC5/sdspi_1_SPI.c **** *
 591:.\Generated_Source\PSoC5/sdspi_1_SPI.c **** * Theory:
 592:.\Generated_Source\PSoC5/sdspi_1_SPI.c **** *  Allows the user to read a byte of data received.
 593:.\Generated_Source\PSoC5/sdspi_1_SPI.c **** *
 594:.\Generated_Source\PSoC5/sdspi_1_SPI.c **** * Side Effects:
 595:.\Generated_Source\PSoC5/sdspi_1_SPI.c **** *  Will return invalid data if the FIFO is empty. The user should Call
 596:.\Generated_Source\PSoC5/sdspi_1_SPI.c **** *  GetRxBufferSize() and if it returns a non-zero value then it is safe to call
 597:.\Generated_Source\PSoC5/sdspi_1_SPI.c **** *  ReadByte() function.
 598:.\Generated_Source\PSoC5/sdspi_1_SPI.c **** *
 599:.\Generated_Source\PSoC5/sdspi_1_SPI.c **** * Reentrant:
 600:.\Generated_Source\PSoC5/sdspi_1_SPI.c **** *  No.
 601:.\Generated_Source\PSoC5/sdspi_1_SPI.c **** *
 602:.\Generated_Source\PSoC5/sdspi_1_SPI.c **** *******************************************************************************/
 603:.\Generated_Source\PSoC5/sdspi_1_SPI.c **** uint8 sdspi_1_SPI_ReadRxData(void) 
 604:.\Generated_Source\PSoC5/sdspi_1_SPI.c **** {
 568              		.loc 1 604 0
 569              		.cfi_startproc
 570              		@ args = 0, pretend = 0, frame = 8
 571              		@ frame_needed = 1, uses_anonymous_args = 0
 572              		@ link register save eliminated.
 573 0000 80B4     		push	{r7}
 574              	.LCFI33:
 575              		.cfi_def_cfa_offset 4
 576 0002 83B0     		sub	sp, sp, #12
 577              	.LCFI34:
 578              		.cfi_def_cfa_offset 16
 579 0004 00AF     		add	r7, sp, #0
 580              		.cfi_offset 7, -4
 581              	.LCFI35:
 582              		.cfi_def_cfa_register 7
 605:.\Generated_Source\PSoC5/sdspi_1_SPI.c ****     uint8 rxData;
 606:.\Generated_Source\PSoC5/sdspi_1_SPI.c **** 
 607:.\Generated_Source\PSoC5/sdspi_1_SPI.c ****     #if(sdspi_1_SPI_RX_SOFTWARE_BUF_ENABLED)
 608:.\Generated_Source\PSoC5/sdspi_1_SPI.c **** 
 609:.\Generated_Source\PSoC5/sdspi_1_SPI.c ****         /* Disable RX interrupt to protect global veriables */
 610:.\Generated_Source\PSoC5/sdspi_1_SPI.c ****         sdspi_1_SPI_DisableRxInt();
 611:.\Generated_Source\PSoC5/sdspi_1_SPI.c **** 
ARM GAS  C:\Users\SUZUKI~1\AppData\Local\Temp\ccHxXvUM.s 			page 22


 612:.\Generated_Source\PSoC5/sdspi_1_SPI.c ****         if(sdspi_1_SPI_rxBufferRead != sdspi_1_SPI_rxBufferWrite)
 613:.\Generated_Source\PSoC5/sdspi_1_SPI.c ****         {
 614:.\Generated_Source\PSoC5/sdspi_1_SPI.c ****             if(0u == sdspi_1_SPI_rxBufferFull)
 615:.\Generated_Source\PSoC5/sdspi_1_SPI.c ****             {
 616:.\Generated_Source\PSoC5/sdspi_1_SPI.c ****                 sdspi_1_SPI_rxBufferRead++;
 617:.\Generated_Source\PSoC5/sdspi_1_SPI.c ****                 if(sdspi_1_SPI_rxBufferRead >= sdspi_1_SPI_RX_BUFFER_SIZE)
 618:.\Generated_Source\PSoC5/sdspi_1_SPI.c ****                 {
 619:.\Generated_Source\PSoC5/sdspi_1_SPI.c ****                     sdspi_1_SPI_rxBufferRead = 0u;
 620:.\Generated_Source\PSoC5/sdspi_1_SPI.c ****                 }
 621:.\Generated_Source\PSoC5/sdspi_1_SPI.c ****             }
 622:.\Generated_Source\PSoC5/sdspi_1_SPI.c ****             else
 623:.\Generated_Source\PSoC5/sdspi_1_SPI.c ****             {
 624:.\Generated_Source\PSoC5/sdspi_1_SPI.c ****                 sdspi_1_SPI_rxBufferFull = 0u;
 625:.\Generated_Source\PSoC5/sdspi_1_SPI.c ****             }
 626:.\Generated_Source\PSoC5/sdspi_1_SPI.c ****         }
 627:.\Generated_Source\PSoC5/sdspi_1_SPI.c **** 
 628:.\Generated_Source\PSoC5/sdspi_1_SPI.c ****         rxData = sdspi_1_SPI_rxBuffer[sdspi_1_SPI_rxBufferRead];
 629:.\Generated_Source\PSoC5/sdspi_1_SPI.c **** 
 630:.\Generated_Source\PSoC5/sdspi_1_SPI.c ****         sdspi_1_SPI_EnableRxInt();
 631:.\Generated_Source\PSoC5/sdspi_1_SPI.c **** 
 632:.\Generated_Source\PSoC5/sdspi_1_SPI.c ****     #else
 633:.\Generated_Source\PSoC5/sdspi_1_SPI.c **** 
 634:.\Generated_Source\PSoC5/sdspi_1_SPI.c ****         rxData = CY_GET_REG8(sdspi_1_SPI_RXDATA_PTR);
 583              		.loc 1 634 0
 584 0006 46F25943 		movw	r3, #:lower16:1073767513
 585 000a C4F20003 		movt	r3, #:upper16:1073767513
 586 000e 1B78     		ldrb	r3, [r3, #0]
 587 0010 FB71     		strb	r3, [r7, #7]
 635:.\Generated_Source\PSoC5/sdspi_1_SPI.c **** 
 636:.\Generated_Source\PSoC5/sdspi_1_SPI.c ****     #endif /* (sdspi_1_SPI_RX_SOFTWARE_BUF_ENABLED) */
 637:.\Generated_Source\PSoC5/sdspi_1_SPI.c **** 
 638:.\Generated_Source\PSoC5/sdspi_1_SPI.c ****     return(rxData);
 588              		.loc 1 638 0
 589 0012 FB79     		ldrb	r3, [r7, #7]	@ zero_extendqisi2
 639:.\Generated_Source\PSoC5/sdspi_1_SPI.c **** }
 590              		.loc 1 639 0
 591 0014 1846     		mov	r0, r3
 592 0016 07F10C07 		add	r7, r7, #12
 593 001a BD46     		mov	sp, r7
 594 001c 80BC     		pop	{r7}
 595 001e 7047     		bx	lr
 596              		.cfi_endproc
 597              	.LFE13:
 598              		.size	sdspi_1_SPI_ReadRxData, .-sdspi_1_SPI_ReadRxData
 599              		.section	.text.sdspi_1_SPI_GetRxBufferSize,"ax",%progbits
 600              		.align	2
 601              		.global	sdspi_1_SPI_GetRxBufferSize
 602              		.thumb
 603              		.thumb_func
 604              		.type	sdspi_1_SPI_GetRxBufferSize, %function
 605              	sdspi_1_SPI_GetRxBufferSize:
 606              	.LFB14:
 640:.\Generated_Source\PSoC5/sdspi_1_SPI.c **** 
 641:.\Generated_Source\PSoC5/sdspi_1_SPI.c **** 
 642:.\Generated_Source\PSoC5/sdspi_1_SPI.c **** /*******************************************************************************
 643:.\Generated_Source\PSoC5/sdspi_1_SPI.c **** * Function Name: sdspi_1_SPI_GetRxBufferSize
 644:.\Generated_Source\PSoC5/sdspi_1_SPI.c **** ********************************************************************************
ARM GAS  C:\Users\SUZUKI~1\AppData\Local\Temp\ccHxXvUM.s 			page 23


 645:.\Generated_Source\PSoC5/sdspi_1_SPI.c **** *
 646:.\Generated_Source\PSoC5/sdspi_1_SPI.c **** * Summary:
 647:.\Generated_Source\PSoC5/sdspi_1_SPI.c **** *  Returns the number of bytes/words of data currently held in the RX buffer.
 648:.\Generated_Source\PSoC5/sdspi_1_SPI.c **** *  If RX Software Buffer not used then function return 0 if FIFO empty or 1 if
 649:.\Generated_Source\PSoC5/sdspi_1_SPI.c **** *  FIFO not empty. In another case function return size of RX Software Buffer.
 650:.\Generated_Source\PSoC5/sdspi_1_SPI.c **** *
 651:.\Generated_Source\PSoC5/sdspi_1_SPI.c **** * Parameters:
 652:.\Generated_Source\PSoC5/sdspi_1_SPI.c **** *  None.
 653:.\Generated_Source\PSoC5/sdspi_1_SPI.c **** *
 654:.\Generated_Source\PSoC5/sdspi_1_SPI.c **** * Return:
 655:.\Generated_Source\PSoC5/sdspi_1_SPI.c **** *  Integer count of the number of bytes/words in the RX buffer.
 656:.\Generated_Source\PSoC5/sdspi_1_SPI.c **** *
 657:.\Generated_Source\PSoC5/sdspi_1_SPI.c **** * Global variables:
 658:.\Generated_Source\PSoC5/sdspi_1_SPI.c **** *  sdspi_1_SPI_rxBufferWrite - used for the account of the bytes which
 659:.\Generated_Source\PSoC5/sdspi_1_SPI.c **** *  have been written down in the RX software buffer.
 660:.\Generated_Source\PSoC5/sdspi_1_SPI.c **** *  sdspi_1_SPI_rxBufferRead - used for the account of the bytes which
 661:.\Generated_Source\PSoC5/sdspi_1_SPI.c **** *  have been read from the RX software buffer.
 662:.\Generated_Source\PSoC5/sdspi_1_SPI.c **** *
 663:.\Generated_Source\PSoC5/sdspi_1_SPI.c **** * Side Effects:
 664:.\Generated_Source\PSoC5/sdspi_1_SPI.c **** *  Clear status register of the component.
 665:.\Generated_Source\PSoC5/sdspi_1_SPI.c **** *
 666:.\Generated_Source\PSoC5/sdspi_1_SPI.c **** *******************************************************************************/
 667:.\Generated_Source\PSoC5/sdspi_1_SPI.c **** uint8 sdspi_1_SPI_GetRxBufferSize(void) 
 668:.\Generated_Source\PSoC5/sdspi_1_SPI.c **** {
 607              		.loc 1 668 0
 608              		.cfi_startproc
 609              		@ args = 0, pretend = 0, frame = 8
 610              		@ frame_needed = 1, uses_anonymous_args = 0
 611              		@ link register save eliminated.
 612 0000 80B4     		push	{r7}
 613              	.LCFI36:
 614              		.cfi_def_cfa_offset 4
 615 0002 83B0     		sub	sp, sp, #12
 616              	.LCFI37:
 617              		.cfi_def_cfa_offset 16
 618 0004 00AF     		add	r7, sp, #0
 619              		.cfi_offset 7, -4
 620              	.LCFI38:
 621              		.cfi_def_cfa_register 7
 669:.\Generated_Source\PSoC5/sdspi_1_SPI.c ****     uint8 size;
 670:.\Generated_Source\PSoC5/sdspi_1_SPI.c **** 
 671:.\Generated_Source\PSoC5/sdspi_1_SPI.c ****     #if(sdspi_1_SPI_RX_SOFTWARE_BUF_ENABLED)
 672:.\Generated_Source\PSoC5/sdspi_1_SPI.c **** 
 673:.\Generated_Source\PSoC5/sdspi_1_SPI.c ****         /* Disable RX interrupt to protect global veriables */
 674:.\Generated_Source\PSoC5/sdspi_1_SPI.c ****         sdspi_1_SPI_DisableRxInt();
 675:.\Generated_Source\PSoC5/sdspi_1_SPI.c **** 
 676:.\Generated_Source\PSoC5/sdspi_1_SPI.c ****         if(sdspi_1_SPI_rxBufferRead == sdspi_1_SPI_rxBufferWrite)
 677:.\Generated_Source\PSoC5/sdspi_1_SPI.c ****         {
 678:.\Generated_Source\PSoC5/sdspi_1_SPI.c ****             size = 0u;
 679:.\Generated_Source\PSoC5/sdspi_1_SPI.c ****         }
 680:.\Generated_Source\PSoC5/sdspi_1_SPI.c ****         else if(sdspi_1_SPI_rxBufferRead < sdspi_1_SPI_rxBufferWrite)
 681:.\Generated_Source\PSoC5/sdspi_1_SPI.c ****         {
 682:.\Generated_Source\PSoC5/sdspi_1_SPI.c ****             size = (sdspi_1_SPI_rxBufferWrite - sdspi_1_SPI_rxBufferRead);
 683:.\Generated_Source\PSoC5/sdspi_1_SPI.c ****         }
 684:.\Generated_Source\PSoC5/sdspi_1_SPI.c ****         else
 685:.\Generated_Source\PSoC5/sdspi_1_SPI.c ****         {
 686:.\Generated_Source\PSoC5/sdspi_1_SPI.c ****             size = (sdspi_1_SPI_RX_BUFFER_SIZE - sdspi_1_SPI_rxBufferRead) + sdspi_1_SPI_rxBufferWr
ARM GAS  C:\Users\SUZUKI~1\AppData\Local\Temp\ccHxXvUM.s 			page 24


 687:.\Generated_Source\PSoC5/sdspi_1_SPI.c ****         }
 688:.\Generated_Source\PSoC5/sdspi_1_SPI.c **** 
 689:.\Generated_Source\PSoC5/sdspi_1_SPI.c ****         sdspi_1_SPI_EnableRxInt();
 690:.\Generated_Source\PSoC5/sdspi_1_SPI.c **** 
 691:.\Generated_Source\PSoC5/sdspi_1_SPI.c ****     #else
 692:.\Generated_Source\PSoC5/sdspi_1_SPI.c **** 
 693:.\Generated_Source\PSoC5/sdspi_1_SPI.c ****         /* We can only know if there is data in the RX FIFO */
 694:.\Generated_Source\PSoC5/sdspi_1_SPI.c ****         size = (0u != (sdspi_1_SPI_RX_STATUS_REG & sdspi_1_SPI_STS_RX_FIFO_NOT_EMPTY)) ? 1u : 0u;
 622              		.loc 1 694 0
 623 0006 46F26943 		movw	r3, #:lower16:1073767529
 624 000a C4F20003 		movt	r3, #:upper16:1073767529
 625 000e 1B78     		ldrb	r3, [r3, #0]
 626 0010 DBB2     		uxtb	r3, r3
 627 0012 03F02003 		and	r3, r3, #32
 628 0016 002B     		cmp	r3, #0
 629 0018 02D0     		beq	.L32
 630 001a 4FF00103 		mov	r3, #1
 631 001e 01E0     		b	.L33
 632              	.L32:
 633 0020 4FF00003 		mov	r3, #0
 634              	.L33:
 635 0024 FB71     		strb	r3, [r7, #7]
 695:.\Generated_Source\PSoC5/sdspi_1_SPI.c **** 
 696:.\Generated_Source\PSoC5/sdspi_1_SPI.c ****     #endif /* (sdspi_1_SPI_TX_SOFTWARE_BUF_ENABLED) */
 697:.\Generated_Source\PSoC5/sdspi_1_SPI.c **** 
 698:.\Generated_Source\PSoC5/sdspi_1_SPI.c ****     return(size);
 636              		.loc 1 698 0
 637 0026 FB79     		ldrb	r3, [r7, #7]	@ zero_extendqisi2
 699:.\Generated_Source\PSoC5/sdspi_1_SPI.c **** }
 638              		.loc 1 699 0
 639 0028 1846     		mov	r0, r3
 640 002a 07F10C07 		add	r7, r7, #12
 641 002e BD46     		mov	sp, r7
 642 0030 80BC     		pop	{r7}
 643 0032 7047     		bx	lr
 644              		.cfi_endproc
 645              	.LFE14:
 646              		.size	sdspi_1_SPI_GetRxBufferSize, .-sdspi_1_SPI_GetRxBufferSize
 647              		.section	.text.sdspi_1_SPI_GetTxBufferSize,"ax",%progbits
 648              		.align	2
 649              		.global	sdspi_1_SPI_GetTxBufferSize
 650              		.thumb
 651              		.thumb_func
 652              		.type	sdspi_1_SPI_GetTxBufferSize, %function
 653              	sdspi_1_SPI_GetTxBufferSize:
 654              	.LFB15:
 700:.\Generated_Source\PSoC5/sdspi_1_SPI.c **** 
 701:.\Generated_Source\PSoC5/sdspi_1_SPI.c **** 
 702:.\Generated_Source\PSoC5/sdspi_1_SPI.c **** /*******************************************************************************
 703:.\Generated_Source\PSoC5/sdspi_1_SPI.c **** * Function Name: sdspi_1_SPI_GetTxBufferSize
 704:.\Generated_Source\PSoC5/sdspi_1_SPI.c **** ********************************************************************************
 705:.\Generated_Source\PSoC5/sdspi_1_SPI.c **** *
 706:.\Generated_Source\PSoC5/sdspi_1_SPI.c **** * Summary:
 707:.\Generated_Source\PSoC5/sdspi_1_SPI.c **** *  Returns the number of bytes/words of data currently held in the TX buffer.
 708:.\Generated_Source\PSoC5/sdspi_1_SPI.c **** *  If TX Software Buffer not used then function return 0 - if FIFO empty, 1 - if
 709:.\Generated_Source\PSoC5/sdspi_1_SPI.c **** *  FIFO not full, 4 - if FIFO full. In another case function return size of TX
 710:.\Generated_Source\PSoC5/sdspi_1_SPI.c **** *  Software Buffer.
ARM GAS  C:\Users\SUZUKI~1\AppData\Local\Temp\ccHxXvUM.s 			page 25


 711:.\Generated_Source\PSoC5/sdspi_1_SPI.c **** *
 712:.\Generated_Source\PSoC5/sdspi_1_SPI.c **** * Parameters:
 713:.\Generated_Source\PSoC5/sdspi_1_SPI.c **** *  None.
 714:.\Generated_Source\PSoC5/sdspi_1_SPI.c **** *
 715:.\Generated_Source\PSoC5/sdspi_1_SPI.c **** * Return:
 716:.\Generated_Source\PSoC5/sdspi_1_SPI.c **** *  Integer count of the number of bytes/words in the TX buffer.
 717:.\Generated_Source\PSoC5/sdspi_1_SPI.c **** *
 718:.\Generated_Source\PSoC5/sdspi_1_SPI.c **** * Global variables:
 719:.\Generated_Source\PSoC5/sdspi_1_SPI.c **** *  sdspi_1_SPI_txBufferWrite - used for the account of the bytes which
 720:.\Generated_Source\PSoC5/sdspi_1_SPI.c **** *  have been written down in the TX software buffer.
 721:.\Generated_Source\PSoC5/sdspi_1_SPI.c **** *  sdspi_1_SPI_txBufferRead - used for the account of the bytes which
 722:.\Generated_Source\PSoC5/sdspi_1_SPI.c **** *  have been read from the TX software buffer.
 723:.\Generated_Source\PSoC5/sdspi_1_SPI.c **** *
 724:.\Generated_Source\PSoC5/sdspi_1_SPI.c **** * Side Effects:
 725:.\Generated_Source\PSoC5/sdspi_1_SPI.c **** *  Clear status register of the component.
 726:.\Generated_Source\PSoC5/sdspi_1_SPI.c **** *
 727:.\Generated_Source\PSoC5/sdspi_1_SPI.c **** *******************************************************************************/
 728:.\Generated_Source\PSoC5/sdspi_1_SPI.c **** uint8  sdspi_1_SPI_GetTxBufferSize(void) 
 729:.\Generated_Source\PSoC5/sdspi_1_SPI.c **** {
 655              		.loc 1 729 0
 656              		.cfi_startproc
 657              		@ args = 0, pretend = 0, frame = 8
 658              		@ frame_needed = 1, uses_anonymous_args = 0
 659              		@ link register save eliminated.
 660 0000 80B4     		push	{r7}
 661              	.LCFI39:
 662              		.cfi_def_cfa_offset 4
 663 0002 83B0     		sub	sp, sp, #12
 664              	.LCFI40:
 665              		.cfi_def_cfa_offset 16
 666 0004 00AF     		add	r7, sp, #0
 667              		.cfi_offset 7, -4
 668              	.LCFI41:
 669              		.cfi_def_cfa_register 7
 730:.\Generated_Source\PSoC5/sdspi_1_SPI.c ****     uint8 size;
 731:.\Generated_Source\PSoC5/sdspi_1_SPI.c **** 
 732:.\Generated_Source\PSoC5/sdspi_1_SPI.c ****     #if(sdspi_1_SPI_TX_SOFTWARE_BUF_ENABLED)
 733:.\Generated_Source\PSoC5/sdspi_1_SPI.c ****         /* Disable TX interrupt to protect global veriables */
 734:.\Generated_Source\PSoC5/sdspi_1_SPI.c ****         sdspi_1_SPI_DisableTxInt();
 735:.\Generated_Source\PSoC5/sdspi_1_SPI.c **** 
 736:.\Generated_Source\PSoC5/sdspi_1_SPI.c ****         if(sdspi_1_SPI_txBufferRead == sdspi_1_SPI_txBufferWrite)
 737:.\Generated_Source\PSoC5/sdspi_1_SPI.c ****         {
 738:.\Generated_Source\PSoC5/sdspi_1_SPI.c ****             size = 0u;
 739:.\Generated_Source\PSoC5/sdspi_1_SPI.c ****         }
 740:.\Generated_Source\PSoC5/sdspi_1_SPI.c ****         else if(sdspi_1_SPI_txBufferRead < sdspi_1_SPI_txBufferWrite)
 741:.\Generated_Source\PSoC5/sdspi_1_SPI.c ****         {
 742:.\Generated_Source\PSoC5/sdspi_1_SPI.c ****             size = (sdspi_1_SPI_txBufferWrite - sdspi_1_SPI_txBufferRead);
 743:.\Generated_Source\PSoC5/sdspi_1_SPI.c ****         }
 744:.\Generated_Source\PSoC5/sdspi_1_SPI.c ****         else
 745:.\Generated_Source\PSoC5/sdspi_1_SPI.c ****         {
 746:.\Generated_Source\PSoC5/sdspi_1_SPI.c ****             size = (sdspi_1_SPI_TX_BUFFER_SIZE - sdspi_1_SPI_txBufferRead) + sdspi_1_SPI_txBufferWr
 747:.\Generated_Source\PSoC5/sdspi_1_SPI.c ****         }
 748:.\Generated_Source\PSoC5/sdspi_1_SPI.c **** 
 749:.\Generated_Source\PSoC5/sdspi_1_SPI.c ****         sdspi_1_SPI_EnableTxInt();
 750:.\Generated_Source\PSoC5/sdspi_1_SPI.c **** 
 751:.\Generated_Source\PSoC5/sdspi_1_SPI.c ****     #else
 752:.\Generated_Source\PSoC5/sdspi_1_SPI.c **** 
ARM GAS  C:\Users\SUZUKI~1\AppData\Local\Temp\ccHxXvUM.s 			page 26


 753:.\Generated_Source\PSoC5/sdspi_1_SPI.c ****         size = sdspi_1_SPI_TX_STATUS_REG;
 670              		.loc 1 753 0
 671 0006 46F26443 		movw	r3, #:lower16:1073767524
 672 000a C4F20003 		movt	r3, #:upper16:1073767524
 673 000e 1B78     		ldrb	r3, [r3, #0]
 674 0010 FB71     		strb	r3, [r7, #7]
 754:.\Generated_Source\PSoC5/sdspi_1_SPI.c **** 
 755:.\Generated_Source\PSoC5/sdspi_1_SPI.c ****         if(0u != (size & sdspi_1_SPI_STS_TX_FIFO_EMPTY))
 675              		.loc 1 755 0
 676 0012 FB79     		ldrb	r3, [r7, #7]	@ zero_extendqisi2
 677 0014 03F00203 		and	r3, r3, #2
 678 0018 002B     		cmp	r3, #0
 679 001a 03D0     		beq	.L36
 756:.\Generated_Source\PSoC5/sdspi_1_SPI.c ****         {
 757:.\Generated_Source\PSoC5/sdspi_1_SPI.c ****             size = 0u;
 680              		.loc 1 757 0
 681 001c 4FF00003 		mov	r3, #0
 682 0020 FB71     		strb	r3, [r7, #7]
 683 0022 0BE0     		b	.L37
 684              	.L36:
 758:.\Generated_Source\PSoC5/sdspi_1_SPI.c ****         }
 759:.\Generated_Source\PSoC5/sdspi_1_SPI.c ****         else if(0u != (size & sdspi_1_SPI_STS_TX_FIFO_NOT_FULL))
 685              		.loc 1 759 0
 686 0024 FB79     		ldrb	r3, [r7, #7]	@ zero_extendqisi2
 687 0026 03F00403 		and	r3, r3, #4
 688 002a 002B     		cmp	r3, #0
 689 002c 03D0     		beq	.L38
 760:.\Generated_Source\PSoC5/sdspi_1_SPI.c ****         {
 761:.\Generated_Source\PSoC5/sdspi_1_SPI.c ****             size = 1u;
 690              		.loc 1 761 0
 691 002e 4FF00103 		mov	r3, #1
 692 0032 FB71     		strb	r3, [r7, #7]
 693 0034 02E0     		b	.L37
 694              	.L38:
 762:.\Generated_Source\PSoC5/sdspi_1_SPI.c ****         }
 763:.\Generated_Source\PSoC5/sdspi_1_SPI.c ****         else
 764:.\Generated_Source\PSoC5/sdspi_1_SPI.c ****         {
 765:.\Generated_Source\PSoC5/sdspi_1_SPI.c ****             size = sdspi_1_SPI_FIFO_SIZE;
 695              		.loc 1 765 0
 696 0036 4FF00403 		mov	r3, #4
 697 003a FB71     		strb	r3, [r7, #7]
 698              	.L37:
 766:.\Generated_Source\PSoC5/sdspi_1_SPI.c ****         }
 767:.\Generated_Source\PSoC5/sdspi_1_SPI.c **** 
 768:.\Generated_Source\PSoC5/sdspi_1_SPI.c ****     #endif /* (sdspi_1_SPI_TX_SOFTWARE_BUF_ENABLED) */
 769:.\Generated_Source\PSoC5/sdspi_1_SPI.c **** 
 770:.\Generated_Source\PSoC5/sdspi_1_SPI.c ****     return(size);
 699              		.loc 1 770 0
 700 003c FB79     		ldrb	r3, [r7, #7]	@ zero_extendqisi2
 771:.\Generated_Source\PSoC5/sdspi_1_SPI.c **** }
 701              		.loc 1 771 0
 702 003e 1846     		mov	r0, r3
 703 0040 07F10C07 		add	r7, r7, #12
 704 0044 BD46     		mov	sp, r7
 705 0046 80BC     		pop	{r7}
 706 0048 7047     		bx	lr
 707              		.cfi_endproc
ARM GAS  C:\Users\SUZUKI~1\AppData\Local\Temp\ccHxXvUM.s 			page 27


 708              	.LFE15:
 709              		.size	sdspi_1_SPI_GetTxBufferSize, .-sdspi_1_SPI_GetTxBufferSize
 710 004a 00BF     		.section	.text.sdspi_1_SPI_ClearRxBuffer,"ax",%progbits
 711              		.align	2
 712              		.global	sdspi_1_SPI_ClearRxBuffer
 713              		.thumb
 714              		.thumb_func
 715              		.type	sdspi_1_SPI_ClearRxBuffer, %function
 716              	sdspi_1_SPI_ClearRxBuffer:
 717              	.LFB16:
 772:.\Generated_Source\PSoC5/sdspi_1_SPI.c **** 
 773:.\Generated_Source\PSoC5/sdspi_1_SPI.c **** 
 774:.\Generated_Source\PSoC5/sdspi_1_SPI.c **** /*******************************************************************************
 775:.\Generated_Source\PSoC5/sdspi_1_SPI.c **** * Function Name: sdspi_1_SPI_ClearRxBuffer
 776:.\Generated_Source\PSoC5/sdspi_1_SPI.c **** ********************************************************************************
 777:.\Generated_Source\PSoC5/sdspi_1_SPI.c **** *
 778:.\Generated_Source\PSoC5/sdspi_1_SPI.c **** * Summary:
 779:.\Generated_Source\PSoC5/sdspi_1_SPI.c **** *  Clear the RX RAM buffer by setting the read and write pointers both to zero.
 780:.\Generated_Source\PSoC5/sdspi_1_SPI.c **** *
 781:.\Generated_Source\PSoC5/sdspi_1_SPI.c **** * Parameters:
 782:.\Generated_Source\PSoC5/sdspi_1_SPI.c **** *  None.
 783:.\Generated_Source\PSoC5/sdspi_1_SPI.c **** *
 784:.\Generated_Source\PSoC5/sdspi_1_SPI.c **** * Return:
 785:.\Generated_Source\PSoC5/sdspi_1_SPI.c **** *  None.
 786:.\Generated_Source\PSoC5/sdspi_1_SPI.c **** *
 787:.\Generated_Source\PSoC5/sdspi_1_SPI.c **** * Global variables:
 788:.\Generated_Source\PSoC5/sdspi_1_SPI.c **** *  sdspi_1_SPI_rxBufferWrite - used for the account of the bytes which
 789:.\Generated_Source\PSoC5/sdspi_1_SPI.c **** *  have been written down in the RX software buffer, modified every function
 790:.\Generated_Source\PSoC5/sdspi_1_SPI.c **** *  call - resets to zero.
 791:.\Generated_Source\PSoC5/sdspi_1_SPI.c **** *  sdspi_1_SPI_rxBufferRead - used for the account of the bytes which
 792:.\Generated_Source\PSoC5/sdspi_1_SPI.c **** *  have been read from the RX software buffer, modified every function call -
 793:.\Generated_Source\PSoC5/sdspi_1_SPI.c **** *  resets to zero.
 794:.\Generated_Source\PSoC5/sdspi_1_SPI.c **** *
 795:.\Generated_Source\PSoC5/sdspi_1_SPI.c **** * Theory:
 796:.\Generated_Source\PSoC5/sdspi_1_SPI.c **** *  Setting the pointers to zero makes the system believe there is no data to
 797:.\Generated_Source\PSoC5/sdspi_1_SPI.c **** *  read and writing will resume at address 0 overwriting any data that may have
 798:.\Generated_Source\PSoC5/sdspi_1_SPI.c **** *  remained in the RAM.
 799:.\Generated_Source\PSoC5/sdspi_1_SPI.c **** *
 800:.\Generated_Source\PSoC5/sdspi_1_SPI.c **** * Side Effects:
 801:.\Generated_Source\PSoC5/sdspi_1_SPI.c **** *  Any received data not read from the RAM buffer will be lost when overwritten.
 802:.\Generated_Source\PSoC5/sdspi_1_SPI.c **** *
 803:.\Generated_Source\PSoC5/sdspi_1_SPI.c **** * Reentrant:
 804:.\Generated_Source\PSoC5/sdspi_1_SPI.c **** *  No.
 805:.\Generated_Source\PSoC5/sdspi_1_SPI.c **** *
 806:.\Generated_Source\PSoC5/sdspi_1_SPI.c **** *******************************************************************************/
 807:.\Generated_Source\PSoC5/sdspi_1_SPI.c **** void sdspi_1_SPI_ClearRxBuffer(void) 
 808:.\Generated_Source\PSoC5/sdspi_1_SPI.c **** {
 718              		.loc 1 808 0
 719              		.cfi_startproc
 720              		@ args = 0, pretend = 0, frame = 0
 721              		@ frame_needed = 1, uses_anonymous_args = 0
 722              		@ link register save eliminated.
 723 0000 80B4     		push	{r7}
 724              	.LCFI42:
 725              		.cfi_def_cfa_offset 4
 726 0002 00AF     		add	r7, sp, #0
 727              		.cfi_offset 7, -4
ARM GAS  C:\Users\SUZUKI~1\AppData\Local\Temp\ccHxXvUM.s 			page 28


 728              	.LCFI43:
 729              		.cfi_def_cfa_register 7
 809:.\Generated_Source\PSoC5/sdspi_1_SPI.c ****     /* Clear Hardware RX FIFO */
 810:.\Generated_Source\PSoC5/sdspi_1_SPI.c ****     while(0u !=(sdspi_1_SPI_RX_STATUS_REG & sdspi_1_SPI_STS_RX_FIFO_NOT_EMPTY))
 730              		.loc 1 810 0
 731 0004 04E0     		b	.L41
 732              	.L42:
 811:.\Generated_Source\PSoC5/sdspi_1_SPI.c ****     {
 812:.\Generated_Source\PSoC5/sdspi_1_SPI.c ****         (void) CY_GET_REG8(sdspi_1_SPI_RXDATA_PTR);
 733              		.loc 1 812 0
 734 0006 46F25943 		movw	r3, #:lower16:1073767513
 735 000a C4F20003 		movt	r3, #:upper16:1073767513
 736 000e 1B78     		ldrb	r3, [r3, #0]
 737              	.L41:
 738              		.loc 1 810 0
 739 0010 46F26943 		movw	r3, #:lower16:1073767529
 740 0014 C4F20003 		movt	r3, #:upper16:1073767529
 741 0018 1B78     		ldrb	r3, [r3, #0]
 742 001a DBB2     		uxtb	r3, r3
 743 001c 03F02003 		and	r3, r3, #32
 744 0020 002B     		cmp	r3, #0
 745 0022 F0D1     		bne	.L42
 813:.\Generated_Source\PSoC5/sdspi_1_SPI.c ****     }
 814:.\Generated_Source\PSoC5/sdspi_1_SPI.c **** 
 815:.\Generated_Source\PSoC5/sdspi_1_SPI.c ****     #if(sdspi_1_SPI_RX_SOFTWARE_BUF_ENABLED)
 816:.\Generated_Source\PSoC5/sdspi_1_SPI.c ****         /* Disable RX interrupt to protect global veriables */
 817:.\Generated_Source\PSoC5/sdspi_1_SPI.c ****         sdspi_1_SPI_DisableRxInt();
 818:.\Generated_Source\PSoC5/sdspi_1_SPI.c **** 
 819:.\Generated_Source\PSoC5/sdspi_1_SPI.c ****         sdspi_1_SPI_rxBufferFull  = 0u;
 820:.\Generated_Source\PSoC5/sdspi_1_SPI.c ****         sdspi_1_SPI_rxBufferRead  = 0u;
 821:.\Generated_Source\PSoC5/sdspi_1_SPI.c ****         sdspi_1_SPI_rxBufferWrite = 0u;
 822:.\Generated_Source\PSoC5/sdspi_1_SPI.c **** 
 823:.\Generated_Source\PSoC5/sdspi_1_SPI.c ****         sdspi_1_SPI_EnableRxInt();
 824:.\Generated_Source\PSoC5/sdspi_1_SPI.c ****     #endif /* (sdspi_1_SPI_RX_SOFTWARE_BUF_ENABLED) */
 825:.\Generated_Source\PSoC5/sdspi_1_SPI.c **** }
 746              		.loc 1 825 0
 747 0024 BD46     		mov	sp, r7
 748 0026 80BC     		pop	{r7}
 749 0028 7047     		bx	lr
 750              		.cfi_endproc
 751              	.LFE16:
 752              		.size	sdspi_1_SPI_ClearRxBuffer, .-sdspi_1_SPI_ClearRxBuffer
 753 002a 00BF     		.section	.text.sdspi_1_SPI_ClearTxBuffer,"ax",%progbits
 754              		.align	2
 755              		.global	sdspi_1_SPI_ClearTxBuffer
 756              		.thumb
 757              		.thumb_func
 758              		.type	sdspi_1_SPI_ClearTxBuffer, %function
 759              	sdspi_1_SPI_ClearTxBuffer:
 760              	.LFB17:
 826:.\Generated_Source\PSoC5/sdspi_1_SPI.c **** 
 827:.\Generated_Source\PSoC5/sdspi_1_SPI.c **** 
 828:.\Generated_Source\PSoC5/sdspi_1_SPI.c **** /*******************************************************************************
 829:.\Generated_Source\PSoC5/sdspi_1_SPI.c **** * Function Name: sdspi_1_SPI_ClearTxBuffer
 830:.\Generated_Source\PSoC5/sdspi_1_SPI.c **** ********************************************************************************
 831:.\Generated_Source\PSoC5/sdspi_1_SPI.c **** *
 832:.\Generated_Source\PSoC5/sdspi_1_SPI.c **** * Summary:
ARM GAS  C:\Users\SUZUKI~1\AppData\Local\Temp\ccHxXvUM.s 			page 29


 833:.\Generated_Source\PSoC5/sdspi_1_SPI.c **** *  Clear the TX RAM buffer by setting the read and write pointers both to zero.
 834:.\Generated_Source\PSoC5/sdspi_1_SPI.c **** *
 835:.\Generated_Source\PSoC5/sdspi_1_SPI.c **** * Parameters:
 836:.\Generated_Source\PSoC5/sdspi_1_SPI.c **** *  None.
 837:.\Generated_Source\PSoC5/sdspi_1_SPI.c **** *
 838:.\Generated_Source\PSoC5/sdspi_1_SPI.c **** * Return:
 839:.\Generated_Source\PSoC5/sdspi_1_SPI.c **** *  None.
 840:.\Generated_Source\PSoC5/sdspi_1_SPI.c **** *
 841:.\Generated_Source\PSoC5/sdspi_1_SPI.c **** * Global variables:
 842:.\Generated_Source\PSoC5/sdspi_1_SPI.c **** *  sdspi_1_SPI_txBufferWrite - used for the account of the bytes which
 843:.\Generated_Source\PSoC5/sdspi_1_SPI.c **** *  have been written down in the TX software buffer, modified every function
 844:.\Generated_Source\PSoC5/sdspi_1_SPI.c **** *  call - resets to zero.
 845:.\Generated_Source\PSoC5/sdspi_1_SPI.c **** *  sdspi_1_SPI_txBufferRead - used for the account of the bytes which
 846:.\Generated_Source\PSoC5/sdspi_1_SPI.c **** *  have been read from the TX software buffer, modified every function call -
 847:.\Generated_Source\PSoC5/sdspi_1_SPI.c **** *  resets to zero.
 848:.\Generated_Source\PSoC5/sdspi_1_SPI.c **** *
 849:.\Generated_Source\PSoC5/sdspi_1_SPI.c **** * Theory:
 850:.\Generated_Source\PSoC5/sdspi_1_SPI.c **** *  Setting the pointers to zero makes the system believe there is no data to
 851:.\Generated_Source\PSoC5/sdspi_1_SPI.c **** *  read and writing will resume at address 0 overwriting any data that may have
 852:.\Generated_Source\PSoC5/sdspi_1_SPI.c **** *  remained in the RAM.
 853:.\Generated_Source\PSoC5/sdspi_1_SPI.c **** *
 854:.\Generated_Source\PSoC5/sdspi_1_SPI.c **** * Side Effects:
 855:.\Generated_Source\PSoC5/sdspi_1_SPI.c **** *  Any data not yet transmitted from the RAM buffer will be lost when
 856:.\Generated_Source\PSoC5/sdspi_1_SPI.c **** *  overwritten.
 857:.\Generated_Source\PSoC5/sdspi_1_SPI.c **** *
 858:.\Generated_Source\PSoC5/sdspi_1_SPI.c **** * Reentrant:
 859:.\Generated_Source\PSoC5/sdspi_1_SPI.c **** *  No.
 860:.\Generated_Source\PSoC5/sdspi_1_SPI.c **** *
 861:.\Generated_Source\PSoC5/sdspi_1_SPI.c **** *******************************************************************************/
 862:.\Generated_Source\PSoC5/sdspi_1_SPI.c **** void sdspi_1_SPI_ClearTxBuffer(void) 
 863:.\Generated_Source\PSoC5/sdspi_1_SPI.c **** {
 761              		.loc 1 863 0
 762              		.cfi_startproc
 763              		@ args = 0, pretend = 0, frame = 8
 764              		@ frame_needed = 1, uses_anonymous_args = 0
 765 0000 80B5     		push	{r7, lr}
 766              	.LCFI44:
 767              		.cfi_def_cfa_offset 8
 768 0002 82B0     		sub	sp, sp, #8
 769              	.LCFI45:
 770              		.cfi_def_cfa_offset 16
 771 0004 00AF     		add	r7, sp, #0
 772              		.cfi_offset 14, -4
 773              		.cfi_offset 7, -8
 774              	.LCFI46:
 775              		.cfi_def_cfa_register 7
 864:.\Generated_Source\PSoC5/sdspi_1_SPI.c ****     uint8 enableInterrupts;
 865:.\Generated_Source\PSoC5/sdspi_1_SPI.c **** 
 866:.\Generated_Source\PSoC5/sdspi_1_SPI.c ****     enableInterrupts = CyEnterCriticalSection();
 776              		.loc 1 866 0
 777 0006 FFF7FEFF 		bl	CyEnterCriticalSection
 778 000a 0346     		mov	r3, r0
 779 000c FB71     		strb	r3, [r7, #7]
 867:.\Generated_Source\PSoC5/sdspi_1_SPI.c ****     /* Clear TX FIFO */
 868:.\Generated_Source\PSoC5/sdspi_1_SPI.c ****     sdspi_1_SPI_AUX_CONTROL_DP0_REG |= ((uint8)  sdspi_1_SPI_TX_FIFO_CLR);
 780              		.loc 1 868 0
 781 000e 46F29943 		movw	r3, #:lower16:1073767577
ARM GAS  C:\Users\SUZUKI~1\AppData\Local\Temp\ccHxXvUM.s 			page 30


 782 0012 C4F20003 		movt	r3, #:upper16:1073767577
 783 0016 46F29942 		movw	r2, #:lower16:1073767577
 784 001a C4F20002 		movt	r2, #:upper16:1073767577
 785 001e 1278     		ldrb	r2, [r2, #0]
 786 0020 D2B2     		uxtb	r2, r2
 787 0022 42F00102 		orr	r2, r2, #1
 788 0026 D2B2     		uxtb	r2, r2
 789 0028 1A70     		strb	r2, [r3, #0]
 869:.\Generated_Source\PSoC5/sdspi_1_SPI.c ****     sdspi_1_SPI_AUX_CONTROL_DP0_REG &= ((uint8) ~sdspi_1_SPI_TX_FIFO_CLR);
 790              		.loc 1 869 0
 791 002a 46F29943 		movw	r3, #:lower16:1073767577
 792 002e C4F20003 		movt	r3, #:upper16:1073767577
 793 0032 46F29942 		movw	r2, #:lower16:1073767577
 794 0036 C4F20002 		movt	r2, #:upper16:1073767577
 795 003a 1278     		ldrb	r2, [r2, #0]
 796 003c D2B2     		uxtb	r2, r2
 797 003e 02F0FE02 		and	r2, r2, #254
 798 0042 1A70     		strb	r2, [r3, #0]
 870:.\Generated_Source\PSoC5/sdspi_1_SPI.c **** 
 871:.\Generated_Source\PSoC5/sdspi_1_SPI.c ****     #if(sdspi_1_SPI_USE_SECOND_DATAPATH)
 872:.\Generated_Source\PSoC5/sdspi_1_SPI.c ****         /* Clear TX FIFO for 2nd Datapath */
 873:.\Generated_Source\PSoC5/sdspi_1_SPI.c ****         sdspi_1_SPI_AUX_CONTROL_DP1_REG |= ((uint8)  sdspi_1_SPI_TX_FIFO_CLR);
 874:.\Generated_Source\PSoC5/sdspi_1_SPI.c ****         sdspi_1_SPI_AUX_CONTROL_DP1_REG &= ((uint8) ~sdspi_1_SPI_TX_FIFO_CLR);
 875:.\Generated_Source\PSoC5/sdspi_1_SPI.c ****     #endif /* (sdspi_1_SPI_USE_SECOND_DATAPATH) */
 876:.\Generated_Source\PSoC5/sdspi_1_SPI.c ****     CyExitCriticalSection(enableInterrupts);
 799              		.loc 1 876 0
 800 0044 FB79     		ldrb	r3, [r7, #7]	@ zero_extendqisi2
 801 0046 1846     		mov	r0, r3
 802 0048 FFF7FEFF 		bl	CyExitCriticalSection
 877:.\Generated_Source\PSoC5/sdspi_1_SPI.c **** 
 878:.\Generated_Source\PSoC5/sdspi_1_SPI.c ****     #if(sdspi_1_SPI_TX_SOFTWARE_BUF_ENABLED)
 879:.\Generated_Source\PSoC5/sdspi_1_SPI.c ****         /* Disable TX interrupt to protect global veriables */
 880:.\Generated_Source\PSoC5/sdspi_1_SPI.c ****         sdspi_1_SPI_DisableTxInt();
 881:.\Generated_Source\PSoC5/sdspi_1_SPI.c **** 
 882:.\Generated_Source\PSoC5/sdspi_1_SPI.c ****         sdspi_1_SPI_txBufferFull  = 0u;
 883:.\Generated_Source\PSoC5/sdspi_1_SPI.c ****         sdspi_1_SPI_txBufferRead  = 0u;
 884:.\Generated_Source\PSoC5/sdspi_1_SPI.c ****         sdspi_1_SPI_txBufferWrite = 0u;
 885:.\Generated_Source\PSoC5/sdspi_1_SPI.c **** 
 886:.\Generated_Source\PSoC5/sdspi_1_SPI.c ****         /* Buffer is EMPTY: disable TX FIFO NOT FULL interrupt */
 887:.\Generated_Source\PSoC5/sdspi_1_SPI.c ****         sdspi_1_SPI_TX_STATUS_MASK_REG &= ((uint8) ~sdspi_1_SPI_STS_TX_FIFO_NOT_FULL);
 888:.\Generated_Source\PSoC5/sdspi_1_SPI.c **** 
 889:.\Generated_Source\PSoC5/sdspi_1_SPI.c ****         sdspi_1_SPI_EnableTxInt();
 890:.\Generated_Source\PSoC5/sdspi_1_SPI.c ****     #endif /* (sdspi_1_SPI_TX_SOFTWARE_BUF_ENABLED) */
 891:.\Generated_Source\PSoC5/sdspi_1_SPI.c **** }
 803              		.loc 1 891 0
 804 004c 07F10807 		add	r7, r7, #8
 805 0050 BD46     		mov	sp, r7
 806 0052 80BD     		pop	{r7, pc}
 807              		.cfi_endproc
 808              	.LFE17:
 809              		.size	sdspi_1_SPI_ClearTxBuffer, .-sdspi_1_SPI_ClearTxBuffer
 810              		.section	.text.sdspi_1_SPI_PutArray,"ax",%progbits
 811              		.align	2
 812              		.global	sdspi_1_SPI_PutArray
 813              		.thumb
 814              		.thumb_func
 815              		.type	sdspi_1_SPI_PutArray, %function
ARM GAS  C:\Users\SUZUKI~1\AppData\Local\Temp\ccHxXvUM.s 			page 31


 816              	sdspi_1_SPI_PutArray:
 817              	.LFB18:
 892:.\Generated_Source\PSoC5/sdspi_1_SPI.c **** 
 893:.\Generated_Source\PSoC5/sdspi_1_SPI.c **** 
 894:.\Generated_Source\PSoC5/sdspi_1_SPI.c **** #if(0u != sdspi_1_SPI_BIDIRECTIONAL_MODE)
 895:.\Generated_Source\PSoC5/sdspi_1_SPI.c ****     /*******************************************************************************
 896:.\Generated_Source\PSoC5/sdspi_1_SPI.c ****     * Function Name: sdspi_1_SPI_TxEnable
 897:.\Generated_Source\PSoC5/sdspi_1_SPI.c ****     ********************************************************************************
 898:.\Generated_Source\PSoC5/sdspi_1_SPI.c ****     *
 899:.\Generated_Source\PSoC5/sdspi_1_SPI.c ****     * Summary:
 900:.\Generated_Source\PSoC5/sdspi_1_SPI.c ****     *  If the SPI master is configured to use a single bi-directional pin then this
 901:.\Generated_Source\PSoC5/sdspi_1_SPI.c ****     *  will set the bi-directional pin to transmit.
 902:.\Generated_Source\PSoC5/sdspi_1_SPI.c ****     *
 903:.\Generated_Source\PSoC5/sdspi_1_SPI.c ****     * Parameters:
 904:.\Generated_Source\PSoC5/sdspi_1_SPI.c ****     *  None.
 905:.\Generated_Source\PSoC5/sdspi_1_SPI.c ****     *
 906:.\Generated_Source\PSoC5/sdspi_1_SPI.c ****     * Return:
 907:.\Generated_Source\PSoC5/sdspi_1_SPI.c ****     *  None.
 908:.\Generated_Source\PSoC5/sdspi_1_SPI.c ****     *
 909:.\Generated_Source\PSoC5/sdspi_1_SPI.c ****     *******************************************************************************/
 910:.\Generated_Source\PSoC5/sdspi_1_SPI.c ****     void sdspi_1_SPI_TxEnable(void) 
 911:.\Generated_Source\PSoC5/sdspi_1_SPI.c ****     {
 912:.\Generated_Source\PSoC5/sdspi_1_SPI.c ****         sdspi_1_SPI_CONTROL_REG |= sdspi_1_SPI_CTRL_TX_SIGNAL_EN;
 913:.\Generated_Source\PSoC5/sdspi_1_SPI.c ****     }
 914:.\Generated_Source\PSoC5/sdspi_1_SPI.c **** 
 915:.\Generated_Source\PSoC5/sdspi_1_SPI.c **** 
 916:.\Generated_Source\PSoC5/sdspi_1_SPI.c ****     /*******************************************************************************
 917:.\Generated_Source\PSoC5/sdspi_1_SPI.c ****     * Function Name: sdspi_1_SPI_TxDisable
 918:.\Generated_Source\PSoC5/sdspi_1_SPI.c ****     ********************************************************************************
 919:.\Generated_Source\PSoC5/sdspi_1_SPI.c ****     *
 920:.\Generated_Source\PSoC5/sdspi_1_SPI.c ****     * Summary:
 921:.\Generated_Source\PSoC5/sdspi_1_SPI.c ****     *  If the SPI master is configured to use a single bi-directional pin then this
 922:.\Generated_Source\PSoC5/sdspi_1_SPI.c ****     *  will set the bi-directional pin to receive.
 923:.\Generated_Source\PSoC5/sdspi_1_SPI.c ****     *
 924:.\Generated_Source\PSoC5/sdspi_1_SPI.c ****     * Parameters:
 925:.\Generated_Source\PSoC5/sdspi_1_SPI.c ****     *  None.
 926:.\Generated_Source\PSoC5/sdspi_1_SPI.c ****     *
 927:.\Generated_Source\PSoC5/sdspi_1_SPI.c ****     * Return:
 928:.\Generated_Source\PSoC5/sdspi_1_SPI.c ****     *  None.
 929:.\Generated_Source\PSoC5/sdspi_1_SPI.c ****     *
 930:.\Generated_Source\PSoC5/sdspi_1_SPI.c ****     *******************************************************************************/
 931:.\Generated_Source\PSoC5/sdspi_1_SPI.c ****     void sdspi_1_SPI_TxDisable(void) 
 932:.\Generated_Source\PSoC5/sdspi_1_SPI.c ****     {
 933:.\Generated_Source\PSoC5/sdspi_1_SPI.c ****         sdspi_1_SPI_CONTROL_REG &= ((uint8) ~sdspi_1_SPI_CTRL_TX_SIGNAL_EN);
 934:.\Generated_Source\PSoC5/sdspi_1_SPI.c ****     }
 935:.\Generated_Source\PSoC5/sdspi_1_SPI.c **** 
 936:.\Generated_Source\PSoC5/sdspi_1_SPI.c **** #endif /* (0u != sdspi_1_SPI_BIDIRECTIONAL_MODE) */
 937:.\Generated_Source\PSoC5/sdspi_1_SPI.c **** 
 938:.\Generated_Source\PSoC5/sdspi_1_SPI.c **** 
 939:.\Generated_Source\PSoC5/sdspi_1_SPI.c **** /*******************************************************************************
 940:.\Generated_Source\PSoC5/sdspi_1_SPI.c **** * Function Name: sdspi_1_SPI_PutArray
 941:.\Generated_Source\PSoC5/sdspi_1_SPI.c **** ********************************************************************************
 942:.\Generated_Source\PSoC5/sdspi_1_SPI.c **** *
 943:.\Generated_Source\PSoC5/sdspi_1_SPI.c **** * Summary:
 944:.\Generated_Source\PSoC5/sdspi_1_SPI.c **** *  Write available data from ROM/RAM to the TX buffer while space is available
 945:.\Generated_Source\PSoC5/sdspi_1_SPI.c **** *  in the TX buffer. Keep trying until all data is passed to the TX buffer.
 946:.\Generated_Source\PSoC5/sdspi_1_SPI.c **** *
ARM GAS  C:\Users\SUZUKI~1\AppData\Local\Temp\ccHxXvUM.s 			page 32


 947:.\Generated_Source\PSoC5/sdspi_1_SPI.c **** * Parameters:
 948:.\Generated_Source\PSoC5/sdspi_1_SPI.c **** *  *buffer: Pointer to the location in RAM containing the data to send
 949:.\Generated_Source\PSoC5/sdspi_1_SPI.c **** *  byteCount: The number of bytes to move to the transmit buffer.
 950:.\Generated_Source\PSoC5/sdspi_1_SPI.c **** *
 951:.\Generated_Source\PSoC5/sdspi_1_SPI.c **** * Return:
 952:.\Generated_Source\PSoC5/sdspi_1_SPI.c **** *  None.
 953:.\Generated_Source\PSoC5/sdspi_1_SPI.c **** *
 954:.\Generated_Source\PSoC5/sdspi_1_SPI.c **** * Side Effects:
 955:.\Generated_Source\PSoC5/sdspi_1_SPI.c **** *  Will stay in this routine until all data has been sent.  May get locked in
 956:.\Generated_Source\PSoC5/sdspi_1_SPI.c **** *  this loop if data is not being initiated by the master if there is not
 957:.\Generated_Source\PSoC5/sdspi_1_SPI.c **** *  enough room in the TX FIFO.
 958:.\Generated_Source\PSoC5/sdspi_1_SPI.c **** *
 959:.\Generated_Source\PSoC5/sdspi_1_SPI.c **** * Reentrant:
 960:.\Generated_Source\PSoC5/sdspi_1_SPI.c **** *  No.
 961:.\Generated_Source\PSoC5/sdspi_1_SPI.c **** *
 962:.\Generated_Source\PSoC5/sdspi_1_SPI.c **** *******************************************************************************/
 963:.\Generated_Source\PSoC5/sdspi_1_SPI.c **** void sdspi_1_SPI_PutArray(const uint8 buffer[], uint8 byteCount)
 964:.\Generated_Source\PSoC5/sdspi_1_SPI.c ****                                                                           
 965:.\Generated_Source\PSoC5/sdspi_1_SPI.c **** {
 818              		.loc 1 965 0
 819              		.cfi_startproc
 820              		@ args = 0, pretend = 0, frame = 16
 821              		@ frame_needed = 1, uses_anonymous_args = 0
 822 0000 80B5     		push	{r7, lr}
 823              	.LCFI47:
 824              		.cfi_def_cfa_offset 8
 825 0002 84B0     		sub	sp, sp, #16
 826              	.LCFI48:
 827              		.cfi_def_cfa_offset 24
 828 0004 00AF     		add	r7, sp, #0
 829              		.cfi_offset 14, -4
 830              		.cfi_offset 7, -8
 831              	.LCFI49:
 832              		.cfi_def_cfa_register 7
 833 0006 7860     		str	r0, [r7, #4]
 834 0008 0B46     		mov	r3, r1
 835 000a FB70     		strb	r3, [r7, #3]
 966:.\Generated_Source\PSoC5/sdspi_1_SPI.c ****     uint8 bufIndex;
 967:.\Generated_Source\PSoC5/sdspi_1_SPI.c **** 
 968:.\Generated_Source\PSoC5/sdspi_1_SPI.c ****     bufIndex = 0u;
 836              		.loc 1 968 0
 837 000c 4FF00003 		mov	r3, #0
 838 0010 FB73     		strb	r3, [r7, #15]
 969:.\Generated_Source\PSoC5/sdspi_1_SPI.c **** 
 970:.\Generated_Source\PSoC5/sdspi_1_SPI.c ****     while(byteCount > 0u)
 839              		.loc 1 970 0
 840 0012 0EE0     		b	.L47
 841              	.L48:
 971:.\Generated_Source\PSoC5/sdspi_1_SPI.c ****     {
 972:.\Generated_Source\PSoC5/sdspi_1_SPI.c ****         sdspi_1_SPI_WriteTxData(buffer[bufIndex]);
 842              		.loc 1 972 0
 843 0014 FA7B     		ldrb	r2, [r7, #15]	@ zero_extendqisi2
 844 0016 7B68     		ldr	r3, [r7, #4]
 845 0018 1344     		add	r3, r2, r3
 846 001a 1B78     		ldrb	r3, [r3, #0]	@ zero_extendqisi2
 847 001c 1846     		mov	r0, r3
 848 001e FFF7FEFF 		bl	sdspi_1_SPI_WriteTxData
ARM GAS  C:\Users\SUZUKI~1\AppData\Local\Temp\ccHxXvUM.s 			page 33


 973:.\Generated_Source\PSoC5/sdspi_1_SPI.c ****         bufIndex++;
 849              		.loc 1 973 0
 850 0022 FB7B     		ldrb	r3, [r7, #15]
 851 0024 03F10103 		add	r3, r3, #1
 852 0028 FB73     		strb	r3, [r7, #15]
 974:.\Generated_Source\PSoC5/sdspi_1_SPI.c ****         byteCount--;
 853              		.loc 1 974 0
 854 002a FB78     		ldrb	r3, [r7, #3]
 855 002c 03F1FF33 		add	r3, r3, #-1
 856 0030 FB70     		strb	r3, [r7, #3]
 857              	.L47:
 858              		.loc 1 970 0
 859 0032 FB78     		ldrb	r3, [r7, #3]	@ zero_extendqisi2
 860 0034 002B     		cmp	r3, #0
 861 0036 EDD1     		bne	.L48
 975:.\Generated_Source\PSoC5/sdspi_1_SPI.c ****     }
 976:.\Generated_Source\PSoC5/sdspi_1_SPI.c **** }
 862              		.loc 1 976 0
 863 0038 07F11007 		add	r7, r7, #16
 864 003c BD46     		mov	sp, r7
 865 003e 80BD     		pop	{r7, pc}
 866              		.cfi_endproc
 867              	.LFE18:
 868              		.size	sdspi_1_SPI_PutArray, .-sdspi_1_SPI_PutArray
 869              		.section	.text.sdspi_1_SPI_ClearFIFO,"ax",%progbits
 870              		.align	2
 871              		.global	sdspi_1_SPI_ClearFIFO
 872              		.thumb
 873              		.thumb_func
 874              		.type	sdspi_1_SPI_ClearFIFO, %function
 875              	sdspi_1_SPI_ClearFIFO:
 876              	.LFB19:
 977:.\Generated_Source\PSoC5/sdspi_1_SPI.c **** 
 978:.\Generated_Source\PSoC5/sdspi_1_SPI.c **** 
 979:.\Generated_Source\PSoC5/sdspi_1_SPI.c **** /*******************************************************************************
 980:.\Generated_Source\PSoC5/sdspi_1_SPI.c **** * Function Name: sdspi_1_SPI_ClearFIFO
 981:.\Generated_Source\PSoC5/sdspi_1_SPI.c **** ********************************************************************************
 982:.\Generated_Source\PSoC5/sdspi_1_SPI.c **** *
 983:.\Generated_Source\PSoC5/sdspi_1_SPI.c **** * Summary:
 984:.\Generated_Source\PSoC5/sdspi_1_SPI.c **** *  Clear the RX and TX FIFO's of all data for a fresh start.
 985:.\Generated_Source\PSoC5/sdspi_1_SPI.c **** *
 986:.\Generated_Source\PSoC5/sdspi_1_SPI.c **** * Parameters:
 987:.\Generated_Source\PSoC5/sdspi_1_SPI.c **** *  None.
 988:.\Generated_Source\PSoC5/sdspi_1_SPI.c **** *
 989:.\Generated_Source\PSoC5/sdspi_1_SPI.c **** * Return:
 990:.\Generated_Source\PSoC5/sdspi_1_SPI.c **** *  None.
 991:.\Generated_Source\PSoC5/sdspi_1_SPI.c **** *
 992:.\Generated_Source\PSoC5/sdspi_1_SPI.c **** * Side Effects:
 993:.\Generated_Source\PSoC5/sdspi_1_SPI.c **** *  Clear status register of the component.
 994:.\Generated_Source\PSoC5/sdspi_1_SPI.c **** *
 995:.\Generated_Source\PSoC5/sdspi_1_SPI.c **** *******************************************************************************/
 996:.\Generated_Source\PSoC5/sdspi_1_SPI.c **** void sdspi_1_SPI_ClearFIFO(void) 
 997:.\Generated_Source\PSoC5/sdspi_1_SPI.c **** {
 877              		.loc 1 997 0
 878              		.cfi_startproc
 879              		@ args = 0, pretend = 0, frame = 8
 880              		@ frame_needed = 1, uses_anonymous_args = 0
ARM GAS  C:\Users\SUZUKI~1\AppData\Local\Temp\ccHxXvUM.s 			page 34


 881 0000 80B5     		push	{r7, lr}
 882              	.LCFI50:
 883              		.cfi_def_cfa_offset 8
 884 0002 82B0     		sub	sp, sp, #8
 885              	.LCFI51:
 886              		.cfi_def_cfa_offset 16
 887 0004 00AF     		add	r7, sp, #0
 888              		.cfi_offset 14, -4
 889              		.cfi_offset 7, -8
 890              	.LCFI52:
 891              		.cfi_def_cfa_register 7
 998:.\Generated_Source\PSoC5/sdspi_1_SPI.c ****     uint8 enableInterrupts;
 999:.\Generated_Source\PSoC5/sdspi_1_SPI.c **** 
1000:.\Generated_Source\PSoC5/sdspi_1_SPI.c ****     /* Clear Hardware RX FIFO */
1001:.\Generated_Source\PSoC5/sdspi_1_SPI.c ****     while(0u !=(sdspi_1_SPI_RX_STATUS_REG & sdspi_1_SPI_STS_RX_FIFO_NOT_EMPTY))
 892              		.loc 1 1001 0
 893 0006 04E0     		b	.L51
 894              	.L52:
1002:.\Generated_Source\PSoC5/sdspi_1_SPI.c ****     {
1003:.\Generated_Source\PSoC5/sdspi_1_SPI.c ****         (void) CY_GET_REG8(sdspi_1_SPI_RXDATA_PTR);
 895              		.loc 1 1003 0
 896 0008 46F25943 		movw	r3, #:lower16:1073767513
 897 000c C4F20003 		movt	r3, #:upper16:1073767513
 898 0010 1B78     		ldrb	r3, [r3, #0]
 899              	.L51:
 900              		.loc 1 1001 0
 901 0012 46F26943 		movw	r3, #:lower16:1073767529
 902 0016 C4F20003 		movt	r3, #:upper16:1073767529
 903 001a 1B78     		ldrb	r3, [r3, #0]
 904 001c DBB2     		uxtb	r3, r3
 905 001e 03F02003 		and	r3, r3, #32
 906 0022 002B     		cmp	r3, #0
 907 0024 F0D1     		bne	.L52
1004:.\Generated_Source\PSoC5/sdspi_1_SPI.c ****     }
1005:.\Generated_Source\PSoC5/sdspi_1_SPI.c **** 
1006:.\Generated_Source\PSoC5/sdspi_1_SPI.c ****     enableInterrupts = CyEnterCriticalSection();
 908              		.loc 1 1006 0
 909 0026 FFF7FEFF 		bl	CyEnterCriticalSection
 910 002a 0346     		mov	r3, r0
 911 002c FB71     		strb	r3, [r7, #7]
1007:.\Generated_Source\PSoC5/sdspi_1_SPI.c ****     /* Clear TX FIFO */
1008:.\Generated_Source\PSoC5/sdspi_1_SPI.c ****     sdspi_1_SPI_AUX_CONTROL_DP0_REG |= ((uint8)  sdspi_1_SPI_TX_FIFO_CLR);
 912              		.loc 1 1008 0
 913 002e 46F29943 		movw	r3, #:lower16:1073767577
 914 0032 C4F20003 		movt	r3, #:upper16:1073767577
 915 0036 46F29942 		movw	r2, #:lower16:1073767577
 916 003a C4F20002 		movt	r2, #:upper16:1073767577
 917 003e 1278     		ldrb	r2, [r2, #0]
 918 0040 D2B2     		uxtb	r2, r2
 919 0042 42F00102 		orr	r2, r2, #1
 920 0046 D2B2     		uxtb	r2, r2
 921 0048 1A70     		strb	r2, [r3, #0]
1009:.\Generated_Source\PSoC5/sdspi_1_SPI.c ****     sdspi_1_SPI_AUX_CONTROL_DP0_REG &= ((uint8) ~sdspi_1_SPI_TX_FIFO_CLR);
 922              		.loc 1 1009 0
 923 004a 46F29943 		movw	r3, #:lower16:1073767577
 924 004e C4F20003 		movt	r3, #:upper16:1073767577
 925 0052 46F29942 		movw	r2, #:lower16:1073767577
ARM GAS  C:\Users\SUZUKI~1\AppData\Local\Temp\ccHxXvUM.s 			page 35


 926 0056 C4F20002 		movt	r2, #:upper16:1073767577
 927 005a 1278     		ldrb	r2, [r2, #0]
 928 005c D2B2     		uxtb	r2, r2
 929 005e 02F0FE02 		and	r2, r2, #254
 930 0062 1A70     		strb	r2, [r3, #0]
1010:.\Generated_Source\PSoC5/sdspi_1_SPI.c **** 
1011:.\Generated_Source\PSoC5/sdspi_1_SPI.c ****     #if(sdspi_1_SPI_USE_SECOND_DATAPATH)
1012:.\Generated_Source\PSoC5/sdspi_1_SPI.c ****         /* Clear TX FIFO for 2nd Datapath */
1013:.\Generated_Source\PSoC5/sdspi_1_SPI.c ****         sdspi_1_SPI_AUX_CONTROL_DP1_REG |= ((uint8)  sdspi_1_SPI_TX_FIFO_CLR);
1014:.\Generated_Source\PSoC5/sdspi_1_SPI.c ****         sdspi_1_SPI_AUX_CONTROL_DP1_REG &= ((uint8) ~sdspi_1_SPI_TX_FIFO_CLR);
1015:.\Generated_Source\PSoC5/sdspi_1_SPI.c ****     #endif /* (sdspi_1_SPI_USE_SECOND_DATAPATH) */
1016:.\Generated_Source\PSoC5/sdspi_1_SPI.c ****     CyExitCriticalSection(enableInterrupts);
 931              		.loc 1 1016 0
 932 0064 FB79     		ldrb	r3, [r7, #7]	@ zero_extendqisi2
 933 0066 1846     		mov	r0, r3
 934 0068 FFF7FEFF 		bl	CyExitCriticalSection
1017:.\Generated_Source\PSoC5/sdspi_1_SPI.c **** }
 935              		.loc 1 1017 0
 936 006c 07F10807 		add	r7, r7, #8
 937 0070 BD46     		mov	sp, r7
 938 0072 80BD     		pop	{r7, pc}
 939              		.cfi_endproc
 940              	.LFE19:
 941              		.size	sdspi_1_SPI_ClearFIFO, .-sdspi_1_SPI_ClearFIFO
 942              		.section	.text.sdspi_1_SPI_EnableInt,"ax",%progbits
 943              		.align	2
 944              		.global	sdspi_1_SPI_EnableInt
 945              		.thumb
 946              		.thumb_func
 947              		.type	sdspi_1_SPI_EnableInt, %function
 948              	sdspi_1_SPI_EnableInt:
 949              	.LFB20:
1018:.\Generated_Source\PSoC5/sdspi_1_SPI.c **** 
1019:.\Generated_Source\PSoC5/sdspi_1_SPI.c **** 
1020:.\Generated_Source\PSoC5/sdspi_1_SPI.c **** /* Following functions are for version Compatibility, they are obsolete.
1021:.\Generated_Source\PSoC5/sdspi_1_SPI.c **** *  Please do not use it in new projects.
1022:.\Generated_Source\PSoC5/sdspi_1_SPI.c **** */
1023:.\Generated_Source\PSoC5/sdspi_1_SPI.c **** 
1024:.\Generated_Source\PSoC5/sdspi_1_SPI.c **** 
1025:.\Generated_Source\PSoC5/sdspi_1_SPI.c **** /*******************************************************************************
1026:.\Generated_Source\PSoC5/sdspi_1_SPI.c **** * Function Name: sdspi_1_SPI_EnableInt
1027:.\Generated_Source\PSoC5/sdspi_1_SPI.c **** ********************************************************************************
1028:.\Generated_Source\PSoC5/sdspi_1_SPI.c **** *
1029:.\Generated_Source\PSoC5/sdspi_1_SPI.c **** * Summary:
1030:.\Generated_Source\PSoC5/sdspi_1_SPI.c **** *  Enable internal interrupt generation.
1031:.\Generated_Source\PSoC5/sdspi_1_SPI.c **** *
1032:.\Generated_Source\PSoC5/sdspi_1_SPI.c **** * Parameters:
1033:.\Generated_Source\PSoC5/sdspi_1_SPI.c **** *  None.
1034:.\Generated_Source\PSoC5/sdspi_1_SPI.c **** *
1035:.\Generated_Source\PSoC5/sdspi_1_SPI.c **** * Return:
1036:.\Generated_Source\PSoC5/sdspi_1_SPI.c **** *  None.
1037:.\Generated_Source\PSoC5/sdspi_1_SPI.c **** *
1038:.\Generated_Source\PSoC5/sdspi_1_SPI.c **** * Theory:
1039:.\Generated_Source\PSoC5/sdspi_1_SPI.c **** *  Enable the internal interrupt output -or- the interrupt component itself.
1040:.\Generated_Source\PSoC5/sdspi_1_SPI.c **** *
1041:.\Generated_Source\PSoC5/sdspi_1_SPI.c **** *******************************************************************************/
1042:.\Generated_Source\PSoC5/sdspi_1_SPI.c **** void sdspi_1_SPI_EnableInt(void) 
ARM GAS  C:\Users\SUZUKI~1\AppData\Local\Temp\ccHxXvUM.s 			page 36


1043:.\Generated_Source\PSoC5/sdspi_1_SPI.c **** {
 950              		.loc 1 1043 0
 951              		.cfi_startproc
 952              		@ args = 0, pretend = 0, frame = 0
 953              		@ frame_needed = 1, uses_anonymous_args = 0
 954 0000 80B5     		push	{r7, lr}
 955              	.LCFI53:
 956              		.cfi_def_cfa_offset 8
 957 0002 00AF     		add	r7, sp, #0
 958              		.cfi_offset 14, -4
 959              		.cfi_offset 7, -8
 960              	.LCFI54:
 961              		.cfi_def_cfa_register 7
1044:.\Generated_Source\PSoC5/sdspi_1_SPI.c ****     sdspi_1_SPI_EnableRxInt();
 962              		.loc 1 1044 0
 963 0004 FFF7FEFF 		bl	sdspi_1_SPI_EnableRxInt
1045:.\Generated_Source\PSoC5/sdspi_1_SPI.c ****     sdspi_1_SPI_EnableTxInt();
 964              		.loc 1 1045 0
 965 0008 FFF7FEFF 		bl	sdspi_1_SPI_EnableTxInt
1046:.\Generated_Source\PSoC5/sdspi_1_SPI.c **** }
 966              		.loc 1 1046 0
 967 000c 80BD     		pop	{r7, pc}
 968              		.cfi_endproc
 969              	.LFE20:
 970              		.size	sdspi_1_SPI_EnableInt, .-sdspi_1_SPI_EnableInt
 971 000e 00BF     		.section	.text.sdspi_1_SPI_DisableInt,"ax",%progbits
 972              		.align	2
 973              		.global	sdspi_1_SPI_DisableInt
 974              		.thumb
 975              		.thumb_func
 976              		.type	sdspi_1_SPI_DisableInt, %function
 977              	sdspi_1_SPI_DisableInt:
 978              	.LFB21:
1047:.\Generated_Source\PSoC5/sdspi_1_SPI.c **** 
1048:.\Generated_Source\PSoC5/sdspi_1_SPI.c **** 
1049:.\Generated_Source\PSoC5/sdspi_1_SPI.c **** /*******************************************************************************
1050:.\Generated_Source\PSoC5/sdspi_1_SPI.c **** * Function Name: sdspi_1_SPI_DisableInt
1051:.\Generated_Source\PSoC5/sdspi_1_SPI.c **** ********************************************************************************
1052:.\Generated_Source\PSoC5/sdspi_1_SPI.c **** *
1053:.\Generated_Source\PSoC5/sdspi_1_SPI.c **** * Summary:
1054:.\Generated_Source\PSoC5/sdspi_1_SPI.c **** *  Disable internal interrupt generation.
1055:.\Generated_Source\PSoC5/sdspi_1_SPI.c **** *
1056:.\Generated_Source\PSoC5/sdspi_1_SPI.c **** * Parameters:
1057:.\Generated_Source\PSoC5/sdspi_1_SPI.c **** *  None.
1058:.\Generated_Source\PSoC5/sdspi_1_SPI.c **** *
1059:.\Generated_Source\PSoC5/sdspi_1_SPI.c **** * Return:
1060:.\Generated_Source\PSoC5/sdspi_1_SPI.c **** *  None.
1061:.\Generated_Source\PSoC5/sdspi_1_SPI.c **** *
1062:.\Generated_Source\PSoC5/sdspi_1_SPI.c **** * Theory:
1063:.\Generated_Source\PSoC5/sdspi_1_SPI.c **** *  Disable the internal interrupt output -or- the interrupt component itself.
1064:.\Generated_Source\PSoC5/sdspi_1_SPI.c **** *
1065:.\Generated_Source\PSoC5/sdspi_1_SPI.c **** *******************************************************************************/
1066:.\Generated_Source\PSoC5/sdspi_1_SPI.c **** void sdspi_1_SPI_DisableInt(void) 
1067:.\Generated_Source\PSoC5/sdspi_1_SPI.c **** {
 979              		.loc 1 1067 0
 980              		.cfi_startproc
 981              		@ args = 0, pretend = 0, frame = 0
ARM GAS  C:\Users\SUZUKI~1\AppData\Local\Temp\ccHxXvUM.s 			page 37


 982              		@ frame_needed = 1, uses_anonymous_args = 0
 983 0000 80B5     		push	{r7, lr}
 984              	.LCFI55:
 985              		.cfi_def_cfa_offset 8
 986 0002 00AF     		add	r7, sp, #0
 987              		.cfi_offset 14, -4
 988              		.cfi_offset 7, -8
 989              	.LCFI56:
 990              		.cfi_def_cfa_register 7
1068:.\Generated_Source\PSoC5/sdspi_1_SPI.c ****     sdspi_1_SPI_DisableTxInt();
 991              		.loc 1 1068 0
 992 0004 FFF7FEFF 		bl	sdspi_1_SPI_DisableTxInt
1069:.\Generated_Source\PSoC5/sdspi_1_SPI.c ****     sdspi_1_SPI_DisableRxInt();
 993              		.loc 1 1069 0
 994 0008 FFF7FEFF 		bl	sdspi_1_SPI_DisableRxInt
1070:.\Generated_Source\PSoC5/sdspi_1_SPI.c **** }
 995              		.loc 1 1070 0
 996 000c 80BD     		pop	{r7, pc}
 997              		.cfi_endproc
 998              	.LFE21:
 999              		.size	sdspi_1_SPI_DisableInt, .-sdspi_1_SPI_DisableInt
 1000 000e 00BF     		.section	.text.sdspi_1_SPI_SetInterruptMode,"ax",%progbits
 1001              		.align	2
 1002              		.global	sdspi_1_SPI_SetInterruptMode
 1003              		.thumb
 1004              		.thumb_func
 1005              		.type	sdspi_1_SPI_SetInterruptMode, %function
 1006              	sdspi_1_SPI_SetInterruptMode:
 1007              	.LFB22:
1071:.\Generated_Source\PSoC5/sdspi_1_SPI.c **** 
1072:.\Generated_Source\PSoC5/sdspi_1_SPI.c **** 
1073:.\Generated_Source\PSoC5/sdspi_1_SPI.c **** /*******************************************************************************
1074:.\Generated_Source\PSoC5/sdspi_1_SPI.c **** * Function Name: sdspi_1_SPI_SetInterruptMode
1075:.\Generated_Source\PSoC5/sdspi_1_SPI.c **** ********************************************************************************
1076:.\Generated_Source\PSoC5/sdspi_1_SPI.c **** *
1077:.\Generated_Source\PSoC5/sdspi_1_SPI.c **** * Summary:
1078:.\Generated_Source\PSoC5/sdspi_1_SPI.c **** *  Configure which status bits trigger an interrupt event.
1079:.\Generated_Source\PSoC5/sdspi_1_SPI.c **** *
1080:.\Generated_Source\PSoC5/sdspi_1_SPI.c **** * Parameters:
1081:.\Generated_Source\PSoC5/sdspi_1_SPI.c **** *  intSrc: An or'd combination of the desired status bit masks (defined in the
1082:.\Generated_Source\PSoC5/sdspi_1_SPI.c **** *  header file).
1083:.\Generated_Source\PSoC5/sdspi_1_SPI.c **** *
1084:.\Generated_Source\PSoC5/sdspi_1_SPI.c **** * Return:
1085:.\Generated_Source\PSoC5/sdspi_1_SPI.c **** *  None.
1086:.\Generated_Source\PSoC5/sdspi_1_SPI.c **** *
1087:.\Generated_Source\PSoC5/sdspi_1_SPI.c **** * Theory:
1088:.\Generated_Source\PSoC5/sdspi_1_SPI.c **** *  Enables the output of specific status bits to the interrupt controller.
1089:.\Generated_Source\PSoC5/sdspi_1_SPI.c **** *
1090:.\Generated_Source\PSoC5/sdspi_1_SPI.c **** *******************************************************************************/
1091:.\Generated_Source\PSoC5/sdspi_1_SPI.c **** void sdspi_1_SPI_SetInterruptMode(uint8 intSrc) 
1092:.\Generated_Source\PSoC5/sdspi_1_SPI.c **** {
 1008              		.loc 1 1092 0
 1009              		.cfi_startproc
 1010              		@ args = 0, pretend = 0, frame = 8
 1011              		@ frame_needed = 1, uses_anonymous_args = 0
 1012              		@ link register save eliminated.
 1013 0000 80B4     		push	{r7}
ARM GAS  C:\Users\SUZUKI~1\AppData\Local\Temp\ccHxXvUM.s 			page 38


 1014              	.LCFI57:
 1015              		.cfi_def_cfa_offset 4
 1016 0002 83B0     		sub	sp, sp, #12
 1017              	.LCFI58:
 1018              		.cfi_def_cfa_offset 16
 1019 0004 00AF     		add	r7, sp, #0
 1020              		.cfi_offset 7, -4
 1021              	.LCFI59:
 1022              		.cfi_def_cfa_register 7
 1023 0006 0346     		mov	r3, r0
 1024 0008 FB71     		strb	r3, [r7, #7]
1093:.\Generated_Source\PSoC5/sdspi_1_SPI.c ****     sdspi_1_SPI_TX_STATUS_MASK_REG  = (intSrc & ((uint8) ~sdspi_1_SPI_STS_SPI_IDLE));
 1025              		.loc 1 1093 0
 1026 000a 46F28443 		movw	r3, #:lower16:1073767556
 1027 000e C4F20003 		movt	r3, #:upper16:1073767556
 1028 0012 FA79     		ldrb	r2, [r7, #7]	@ zero_extendqisi2
 1029 0014 02F0EF02 		and	r2, r2, #239
 1030 0018 1A70     		strb	r2, [r3, #0]
1094:.\Generated_Source\PSoC5/sdspi_1_SPI.c ****     sdspi_1_SPI_RX_STATUS_MASK_REG  =  intSrc;
 1031              		.loc 1 1094 0
 1032 001a 46F28943 		movw	r3, #:lower16:1073767561
 1033 001e C4F20003 		movt	r3, #:upper16:1073767561
 1034 0022 FA79     		ldrb	r2, [r7, #7]
 1035 0024 1A70     		strb	r2, [r3, #0]
1095:.\Generated_Source\PSoC5/sdspi_1_SPI.c **** }
 1036              		.loc 1 1095 0
 1037 0026 07F10C07 		add	r7, r7, #12
 1038 002a BD46     		mov	sp, r7
 1039 002c 80BC     		pop	{r7}
 1040 002e 7047     		bx	lr
 1041              		.cfi_endproc
 1042              	.LFE22:
 1043              		.size	sdspi_1_SPI_SetInterruptMode, .-sdspi_1_SPI_SetInterruptMode
 1044              		.section	.text.sdspi_1_SPI_ReadStatus,"ax",%progbits
 1045              		.align	2
 1046              		.global	sdspi_1_SPI_ReadStatus
 1047              		.thumb
 1048              		.thumb_func
 1049              		.type	sdspi_1_SPI_ReadStatus, %function
 1050              	sdspi_1_SPI_ReadStatus:
 1051              	.LFB23:
1096:.\Generated_Source\PSoC5/sdspi_1_SPI.c **** 
1097:.\Generated_Source\PSoC5/sdspi_1_SPI.c **** 
1098:.\Generated_Source\PSoC5/sdspi_1_SPI.c **** /*******************************************************************************
1099:.\Generated_Source\PSoC5/sdspi_1_SPI.c **** * Function Name: sdspi_1_SPI_ReadStatus
1100:.\Generated_Source\PSoC5/sdspi_1_SPI.c **** ********************************************************************************
1101:.\Generated_Source\PSoC5/sdspi_1_SPI.c **** *
1102:.\Generated_Source\PSoC5/sdspi_1_SPI.c **** * Summary:
1103:.\Generated_Source\PSoC5/sdspi_1_SPI.c **** *  Read the status register for the component.
1104:.\Generated_Source\PSoC5/sdspi_1_SPI.c **** *
1105:.\Generated_Source\PSoC5/sdspi_1_SPI.c **** * Parameters:
1106:.\Generated_Source\PSoC5/sdspi_1_SPI.c **** *  None.
1107:.\Generated_Source\PSoC5/sdspi_1_SPI.c **** *
1108:.\Generated_Source\PSoC5/sdspi_1_SPI.c **** * Return:
1109:.\Generated_Source\PSoC5/sdspi_1_SPI.c **** *  Contents of the status register.
1110:.\Generated_Source\PSoC5/sdspi_1_SPI.c **** *
1111:.\Generated_Source\PSoC5/sdspi_1_SPI.c **** * Global variables:
ARM GAS  C:\Users\SUZUKI~1\AppData\Local\Temp\ccHxXvUM.s 			page 39


1112:.\Generated_Source\PSoC5/sdspi_1_SPI.c **** *  sdspi_1_SPI_swStatus - used to store in software status register,
1113:.\Generated_Source\PSoC5/sdspi_1_SPI.c **** *  modified every function call - resets to zero.
1114:.\Generated_Source\PSoC5/sdspi_1_SPI.c **** *
1115:.\Generated_Source\PSoC5/sdspi_1_SPI.c **** * Theory:
1116:.\Generated_Source\PSoC5/sdspi_1_SPI.c **** *  Allows the user and the API to read the status register for error detection
1117:.\Generated_Source\PSoC5/sdspi_1_SPI.c **** *  and flow control.
1118:.\Generated_Source\PSoC5/sdspi_1_SPI.c **** *
1119:.\Generated_Source\PSoC5/sdspi_1_SPI.c **** * Side Effects:
1120:.\Generated_Source\PSoC5/sdspi_1_SPI.c **** *  Clear status register of the component.
1121:.\Generated_Source\PSoC5/sdspi_1_SPI.c **** *
1122:.\Generated_Source\PSoC5/sdspi_1_SPI.c **** * Reentrant:
1123:.\Generated_Source\PSoC5/sdspi_1_SPI.c **** *  No.
1124:.\Generated_Source\PSoC5/sdspi_1_SPI.c **** *
1125:.\Generated_Source\PSoC5/sdspi_1_SPI.c **** *******************************************************************************/
1126:.\Generated_Source\PSoC5/sdspi_1_SPI.c **** uint8 sdspi_1_SPI_ReadStatus(void) 
1127:.\Generated_Source\PSoC5/sdspi_1_SPI.c **** {
 1052              		.loc 1 1127 0
 1053              		.cfi_startproc
 1054              		@ args = 0, pretend = 0, frame = 8
 1055              		@ frame_needed = 1, uses_anonymous_args = 0
 1056              		@ link register save eliminated.
 1057 0000 80B4     		push	{r7}
 1058              	.LCFI60:
 1059              		.cfi_def_cfa_offset 4
 1060 0002 83B0     		sub	sp, sp, #12
 1061              	.LCFI61:
 1062              		.cfi_def_cfa_offset 16
 1063 0004 00AF     		add	r7, sp, #0
 1064              		.cfi_offset 7, -4
 1065              	.LCFI62:
 1066              		.cfi_def_cfa_register 7
1128:.\Generated_Source\PSoC5/sdspi_1_SPI.c ****     uint8 tmpStatus;
1129:.\Generated_Source\PSoC5/sdspi_1_SPI.c **** 
1130:.\Generated_Source\PSoC5/sdspi_1_SPI.c ****     #if(sdspi_1_SPI_TX_SOFTWARE_BUF_ENABLED || sdspi_1_SPI_RX_SOFTWARE_BUF_ENABLED)
1131:.\Generated_Source\PSoC5/sdspi_1_SPI.c **** 
1132:.\Generated_Source\PSoC5/sdspi_1_SPI.c ****         sdspi_1_SPI_DisableInt();
1133:.\Generated_Source\PSoC5/sdspi_1_SPI.c **** 
1134:.\Generated_Source\PSoC5/sdspi_1_SPI.c ****         tmpStatus  = sdspi_1_SPI_GET_STATUS_RX(sdspi_1_SPI_swStatusRx);
1135:.\Generated_Source\PSoC5/sdspi_1_SPI.c ****         tmpStatus |= sdspi_1_SPI_GET_STATUS_TX(sdspi_1_SPI_swStatusTx);
1136:.\Generated_Source\PSoC5/sdspi_1_SPI.c ****         tmpStatus &= ((uint8) ~sdspi_1_SPI_STS_SPI_IDLE);
1137:.\Generated_Source\PSoC5/sdspi_1_SPI.c **** 
1138:.\Generated_Source\PSoC5/sdspi_1_SPI.c ****         sdspi_1_SPI_swStatusTx = 0u;
1139:.\Generated_Source\PSoC5/sdspi_1_SPI.c ****         sdspi_1_SPI_swStatusRx = 0u;
1140:.\Generated_Source\PSoC5/sdspi_1_SPI.c **** 
1141:.\Generated_Source\PSoC5/sdspi_1_SPI.c ****         sdspi_1_SPI_EnableInt();
1142:.\Generated_Source\PSoC5/sdspi_1_SPI.c **** 
1143:.\Generated_Source\PSoC5/sdspi_1_SPI.c ****     #else
1144:.\Generated_Source\PSoC5/sdspi_1_SPI.c **** 
1145:.\Generated_Source\PSoC5/sdspi_1_SPI.c ****         tmpStatus  = sdspi_1_SPI_RX_STATUS_REG;
 1067              		.loc 1 1145 0
 1068 0006 46F26943 		movw	r3, #:lower16:1073767529
 1069 000a C4F20003 		movt	r3, #:upper16:1073767529
 1070 000e 1B78     		ldrb	r3, [r3, #0]
 1071 0010 FB71     		strb	r3, [r7, #7]
1146:.\Generated_Source\PSoC5/sdspi_1_SPI.c ****         tmpStatus |= sdspi_1_SPI_TX_STATUS_REG;
 1072              		.loc 1 1146 0
 1073 0012 46F26443 		movw	r3, #:lower16:1073767524
ARM GAS  C:\Users\SUZUKI~1\AppData\Local\Temp\ccHxXvUM.s 			page 40


 1074 0016 C4F20003 		movt	r3, #:upper16:1073767524
 1075 001a 1B78     		ldrb	r3, [r3, #0]
 1076 001c DAB2     		uxtb	r2, r3
 1077 001e FB79     		ldrb	r3, [r7, #7]
 1078 0020 42EA0303 		orr	r3, r2, r3
 1079 0024 FB71     		strb	r3, [r7, #7]
1147:.\Generated_Source\PSoC5/sdspi_1_SPI.c ****         tmpStatus &= ((uint8) ~sdspi_1_SPI_STS_SPI_IDLE);
 1080              		.loc 1 1147 0
 1081 0026 FB79     		ldrb	r3, [r7, #7]
 1082 0028 23F01003 		bic	r3, r3, #16
 1083 002c FB71     		strb	r3, [r7, #7]
1148:.\Generated_Source\PSoC5/sdspi_1_SPI.c **** 
1149:.\Generated_Source\PSoC5/sdspi_1_SPI.c ****     #endif /* (sdspi_1_SPI_TX_SOFTWARE_BUF_ENABLED || sdspi_1_SPI_RX_SOFTWARE_BUF_ENABLED) */
1150:.\Generated_Source\PSoC5/sdspi_1_SPI.c **** 
1151:.\Generated_Source\PSoC5/sdspi_1_SPI.c ****     return(tmpStatus);
 1084              		.loc 1 1151 0
 1085 002e FB79     		ldrb	r3, [r7, #7]	@ zero_extendqisi2
1152:.\Generated_Source\PSoC5/sdspi_1_SPI.c **** }
 1086              		.loc 1 1152 0
 1087 0030 1846     		mov	r0, r3
 1088 0032 07F10C07 		add	r7, r7, #12
 1089 0036 BD46     		mov	sp, r7
 1090 0038 80BC     		pop	{r7}
 1091 003a 7047     		bx	lr
 1092              		.cfi_endproc
 1093              	.LFE23:
 1094              		.size	sdspi_1_SPI_ReadStatus, .-sdspi_1_SPI_ReadStatus
 1095              		.text
 1096              	.Letext0:
