ARM GAS  C:\Users\SUZUKI~1\AppData\Local\Temp\ccDED0md.s 			page 1


   1              		.syntax unified
   2              		.cpu cortex-m3
   3              		.fpu softvfp
   4              		.eabi_attribute 20, 1
   5              		.eabi_attribute 21, 1
   6              		.eabi_attribute 23, 3
   7              		.eabi_attribute 24, 1
   8              		.eabi_attribute 25, 1
   9              		.eabi_attribute 26, 1
  10              		.eabi_attribute 30, 6
  11              		.eabi_attribute 18, 4
  12              		.thumb
  13              		.file	"sdspi_1_sdspi.c"
  14              		.section	.debug_abbrev,"",%progbits
  15              	.Ldebug_abbrev0:
  16              		.section	.debug_info,"",%progbits
  17              	.Ldebug_info0:
  18              		.section	.debug_line,"",%progbits
  19              	.Ldebug_line0:
  20 0000 EC020000 		.text
  20      02009C00 
  20      00000201 
  20      FB0E0D00 
  20      01010101 
  21              	.Ltext0:
  22              		.cfi_sections	.debug_frame
  23              		.section	.text.sdspi_start,"ax",%progbits
  24              		.align	2
  25              		.global	sdspi_start
  26              		.thumb
  27              		.thumb_func
  28              		.type	sdspi_start, %function
  29              	sdspi_start:
  30              	.LFB29:
  31              		.file 1 ".\\Generated_Source\\PSoC5\\sdspi_1_sdspi.c"
   1:.\Generated_Source\PSoC5/sdspi_1_sdspi.c **** /* ========================================
   2:.\Generated_Source\PSoC5/sdspi_1_sdspi.c ****  *
   3:.\Generated_Source\PSoC5/sdspi_1_sdspi.c ****  * Copyright YOUR COMPANY, THE YEAR
   4:.\Generated_Source\PSoC5/sdspi_1_sdspi.c ****  * All Rights Reserved
   5:.\Generated_Source\PSoC5/sdspi_1_sdspi.c ****  * UNPUBLISHED, LICENSED SOFTWARE.
   6:.\Generated_Source\PSoC5/sdspi_1_sdspi.c ****  *
   7:.\Generated_Source\PSoC5/sdspi_1_sdspi.c ****  * CONFIDENTIAL AND PROPRIETARY INFORMATION
   8:.\Generated_Source\PSoC5/sdspi_1_sdspi.c ****  * WHICH IS THE PROPERTY OF your company.
   9:.\Generated_Source\PSoC5/sdspi_1_sdspi.c ****  *
  10:.\Generated_Source\PSoC5/sdspi_1_sdspi.c ****  * ========================================
  11:.\Generated_Source\PSoC5/sdspi_1_sdspi.c **** */
  12:.\Generated_Source\PSoC5/sdspi_1_sdspi.c **** 
  13:.\Generated_Source\PSoC5/sdspi_1_sdspi.c **** /*------------------------------------------------------------------------/
  14:.\Generated_Source\PSoC5/sdspi_1_sdspi.c **** /  MMCv3/SDv1/SDv2 (in SPI mode) control module
  15:.\Generated_Source\PSoC5/sdspi_1_sdspi.c **** /-------------------------------------------------------------------------/
  16:.\Generated_Source\PSoC5/sdspi_1_sdspi.c **** /
  17:.\Generated_Source\PSoC5/sdspi_1_sdspi.c **** /  Copyright (C) 2010, ChaN, all right reserved.
  18:.\Generated_Source\PSoC5/sdspi_1_sdspi.c **** /
  19:.\Generated_Source\PSoC5/sdspi_1_sdspi.c **** / * This software is a free software and there is NO WARRANTY.
  20:.\Generated_Source\PSoC5/sdspi_1_sdspi.c **** / * No restriction on use. You can use, modify and redistribute it for
  21:.\Generated_Source\PSoC5/sdspi_1_sdspi.c **** /   personal, non-profit or commercial products UNDER YOUR RESPONSIBILITY.
  22:.\Generated_Source\PSoC5/sdspi_1_sdspi.c **** / * Redistributions of source code must retain the above copyright notice.
ARM GAS  C:\Users\SUZUKI~1\AppData\Local\Temp\ccDED0md.s 			page 2


  23:.\Generated_Source\PSoC5/sdspi_1_sdspi.c **** /
  24:.\Generated_Source\PSoC5/sdspi_1_sdspi.c **** /-------------------------------------------------------------------------*/
  25:.\Generated_Source\PSoC5/sdspi_1_sdspi.c **** 
  26:.\Generated_Source\PSoC5/sdspi_1_sdspi.c **** #include <device.h>
  27:.\Generated_Source\PSoC5/sdspi_1_sdspi.c **** #include "sdspi_1_sdspi.h"
  28:.\Generated_Source\PSoC5/sdspi_1_sdspi.c **** 
  29:.\Generated_Source\PSoC5/sdspi_1_sdspi.c **** 
  30:.\Generated_Source\PSoC5/sdspi_1_sdspi.c **** /* Definitions for MMC/SDC command */
  31:.\Generated_Source\PSoC5/sdspi_1_sdspi.c **** #define CMD0   (0)			/* GO_IDLE_STATE */
  32:.\Generated_Source\PSoC5/sdspi_1_sdspi.c **** #define CMD1   (1)			/* SEND_OP_COND */
  33:.\Generated_Source\PSoC5/sdspi_1_sdspi.c **** #define ACMD41 (41|0x80)	/* SEND_OP_COND (SDC) */
  34:.\Generated_Source\PSoC5/sdspi_1_sdspi.c **** #define CMD8   (8)			/* SEND_IF_COND */
  35:.\Generated_Source\PSoC5/sdspi_1_sdspi.c **** #define CMD9   (9)			/* SEND_CSD */
  36:.\Generated_Source\PSoC5/sdspi_1_sdspi.c **** #define CMD10  (10)			/* SEND_CID */
  37:.\Generated_Source\PSoC5/sdspi_1_sdspi.c **** #define CMD12  (12)			/* STOP_TRANSMISSION */
  38:.\Generated_Source\PSoC5/sdspi_1_sdspi.c **** #define ACMD13 (13|0x80)	/* SD_STATUS (SDC) */
  39:.\Generated_Source\PSoC5/sdspi_1_sdspi.c **** #define CMD16  (16)			/* SET_BLOCKLEN */
  40:.\Generated_Source\PSoC5/sdspi_1_sdspi.c **** #define CMD17  (17)			/* READ_SINGLE_BLOCK */
  41:.\Generated_Source\PSoC5/sdspi_1_sdspi.c **** #define CMD18  (18)			/* READ_MULTIPLE_BLOCK */
  42:.\Generated_Source\PSoC5/sdspi_1_sdspi.c **** #define CMD23  (23)			/* SET_BLOCK_COUNT */
  43:.\Generated_Source\PSoC5/sdspi_1_sdspi.c **** #define ACMD23 (23|0x80)	/* SET_WR_BLK_ERASE_COUNT (SDC) */
  44:.\Generated_Source\PSoC5/sdspi_1_sdspi.c **** #define CMD24  (24)			/* WRITE_BLOCK */
  45:.\Generated_Source\PSoC5/sdspi_1_sdspi.c **** #define CMD25  (25)			/* WRITE_MULTIPLE_BLOCK */
  46:.\Generated_Source\PSoC5/sdspi_1_sdspi.c **** #define CMD41  (41)			/* SEND_OP_COND (ACMD) */
  47:.\Generated_Source\PSoC5/sdspi_1_sdspi.c **** #define CMD55  (55)			/* APP_CMD */
  48:.\Generated_Source\PSoC5/sdspi_1_sdspi.c **** #define CMD58  (58)			/* READ_OCR */
  49:.\Generated_Source\PSoC5/sdspi_1_sdspi.c **** 
  50:.\Generated_Source\PSoC5/sdspi_1_sdspi.c **** 
  51:.\Generated_Source\PSoC5/sdspi_1_sdspi.c **** /* Port Controls  (Platform dependent) */
  52:.\Generated_Source\PSoC5/sdspi_1_sdspi.c **** #if 0
  53:.\Generated_Source\PSoC5/sdspi_1_sdspi.c **** #define CS_LOW()  _LATB15 = 0	/* MMC CS = L */
  54:.\Generated_Source\PSoC5/sdspi_1_sdspi.c **** #define CS_HIGH() _LATB15 = 1	/* MMC CS = H */
  55:.\Generated_Source\PSoC5/sdspi_1_sdspi.c **** 
  56:.\Generated_Source\PSoC5/sdspi_1_sdspi.c **** #define SOCKPORT	PORTB		/* Socket contact port */
  57:.\Generated_Source\PSoC5/sdspi_1_sdspi.c **** #endif
  58:.\Generated_Source\PSoC5/sdspi_1_sdspi.c **** #define SOCKWP	(1<<1)		/* Write protect switch (RB10) */
  59:.\Generated_Source\PSoC5/sdspi_1_sdspi.c **** #define SOCKINS	(1<<0)		/* Card detect switch (RB11) */
  60:.\Generated_Source\PSoC5/sdspi_1_sdspi.c **** #define	FCLK_SLOW()	;		/* Set slow clock (100k-400k) */
  61:.\Generated_Source\PSoC5/sdspi_1_sdspi.c **** #define	FCLK_FAST()	;		/* Set fast clock (depends on the CSD) */
  62:.\Generated_Source\PSoC5/sdspi_1_sdspi.c **** 
  63:.\Generated_Source\PSoC5/sdspi_1_sdspi.c **** #define	CS_LOW()	sdspi_1_CS_Control_Write(0)
  64:.\Generated_Source\PSoC5/sdspi_1_sdspi.c **** #define	CS_HIGH()	sdspi_1_CS_Control_Write(1)
  65:.\Generated_Source\PSoC5/sdspi_1_sdspi.c **** 
  66:.\Generated_Source\PSoC5/sdspi_1_sdspi.c **** 
  67:.\Generated_Source\PSoC5/sdspi_1_sdspi.c **** /*--------------------------------------------------------------------------
  68:.\Generated_Source\PSoC5/sdspi_1_sdspi.c **** 
  69:.\Generated_Source\PSoC5/sdspi_1_sdspi.c ****    Start / Stop function
  70:.\Generated_Source\PSoC5/sdspi_1_sdspi.c **** 
  71:.\Generated_Source\PSoC5/sdspi_1_sdspi.c **** ---------------------------------------------------------------------------*/
  72:.\Generated_Source\PSoC5/sdspi_1_sdspi.c **** 
  73:.\Generated_Source\PSoC5/sdspi_1_sdspi.c **** void sdspi_start(void)
  74:.\Generated_Source\PSoC5/sdspi_1_sdspi.c **** {
  32              		.loc 1 74 0
  33              		.cfi_startproc
  34              		@ args = 0, pretend = 0, frame = 0
  35              		@ frame_needed = 1, uses_anonymous_args = 0
  36 0000 80B5     		push	{r7, lr}
ARM GAS  C:\Users\SUZUKI~1\AppData\Local\Temp\ccDED0md.s 			page 3


  37              	.LCFI0:
  38              		.cfi_def_cfa_offset 8
  39 0002 00AF     		add	r7, sp, #0
  40              		.cfi_offset 14, -4
  41              		.cfi_offset 7, -8
  42              	.LCFI1:
  43              		.cfi_def_cfa_register 7
  75:.\Generated_Source\PSoC5/sdspi_1_sdspi.c **** 	sdspi_1_SPI_Start();
  44              		.loc 1 75 0
  45 0004 FFF7FEFF 		bl	sdspi_1_SPI_Start
  76:.\Generated_Source\PSoC5/sdspi_1_sdspi.c **** 	sdspi_1_SPI_EnableInt();
  46              		.loc 1 76 0
  47 0008 FFF7FEFF 		bl	sdspi_1_SPI_EnableInt
  77:.\Generated_Source\PSoC5/sdspi_1_sdspi.c **** 	sdspi_1_SPI_ClearRxBuffer();
  48              		.loc 1 77 0
  49 000c FFF7FEFF 		bl	sdspi_1_SPI_ClearRxBuffer
  78:.\Generated_Source\PSoC5/sdspi_1_sdspi.c **** 	sdspi_1_SPI_ClearTxBuffer();
  50              		.loc 1 78 0
  51 0010 FFF7FEFF 		bl	sdspi_1_SPI_ClearTxBuffer
  79:.\Generated_Source\PSoC5/sdspi_1_sdspi.c **** 	
  80:.\Generated_Source\PSoC5/sdspi_1_sdspi.c **** 	sdspi_1_Timer_IRQ_StartEx(disk_timerproc);
  52              		.loc 1 80 0
  53 0014 40F20000 		movw	r0, #:lower16:disk_timerproc
  54 0018 C0F20000 		movt	r0, #:upper16:disk_timerproc
  55 001c FFF7FEFF 		bl	sdspi_1_Timer_IRQ_StartEx
  81:.\Generated_Source\PSoC5/sdspi_1_sdspi.c **** 	sdspi_1_Timer_IRQ_Enable();
  56              		.loc 1 81 0
  57 0020 FFF7FEFF 		bl	sdspi_1_Timer_IRQ_Enable
  82:.\Generated_Source\PSoC5/sdspi_1_sdspi.c **** 	return;
  83:.\Generated_Source\PSoC5/sdspi_1_sdspi.c **** }
  58              		.loc 1 83 0
  59 0024 80BD     		pop	{r7, pc}
  60              		.cfi_endproc
  61              	.LFE29:
  62              		.size	sdspi_start, .-sdspi_start
  63 0026 00BF     		.section	.text.sdspi_stop,"ax",%progbits
  64              		.align	2
  65              		.global	sdspi_stop
  66              		.thumb
  67              		.thumb_func
  68              		.type	sdspi_stop, %function
  69              	sdspi_stop:
  70              	.LFB30:
  84:.\Generated_Source\PSoC5/sdspi_1_sdspi.c **** 
  85:.\Generated_Source\PSoC5/sdspi_1_sdspi.c **** void sdspi_stop(void)
  86:.\Generated_Source\PSoC5/sdspi_1_sdspi.c **** {
  71              		.loc 1 86 0
  72              		.cfi_startproc
  73              		@ args = 0, pretend = 0, frame = 0
  74              		@ frame_needed = 1, uses_anonymous_args = 0
  75 0000 80B5     		push	{r7, lr}
  76              	.LCFI2:
  77              		.cfi_def_cfa_offset 8
  78 0002 00AF     		add	r7, sp, #0
  79              		.cfi_offset 14, -4
  80              		.cfi_offset 7, -8
  81              	.LCFI3:
ARM GAS  C:\Users\SUZUKI~1\AppData\Local\Temp\ccDED0md.s 			page 4


  82              		.cfi_def_cfa_register 7
  87:.\Generated_Source\PSoC5/sdspi_1_sdspi.c **** 	sdspi_1_SPI_Stop();
  83              		.loc 1 87 0
  84 0004 FFF7FEFF 		bl	sdspi_1_SPI_Stop
  88:.\Generated_Source\PSoC5/sdspi_1_sdspi.c **** 	return;
  89:.\Generated_Source\PSoC5/sdspi_1_sdspi.c **** }
  85              		.loc 1 89 0
  86 0008 80BD     		pop	{r7, pc}
  87              		.cfi_endproc
  88              	.LFE30:
  89              		.size	sdspi_stop, .-sdspi_stop
  90 000a 00BF     		.data
  91              		.type	Stat, %object
  92              		.size	Stat, 1
  93              	Stat:
  94 0000 03       		.byte	3
  95              		.bss
  96              		.align	2
  97              	SDTimer1:
  98 0000 00000000 		.space	4
  99              		.align	2
 100              	SDTimer2:
 101 0004 00000000 		.space	4
 102              		.align	2
 103              	CardType:
 104 0008 00000000 		.space	4
 105              		.section	.text.rcvr_spi_m,"ax",%progbits
 106              		.align	2
 107              		.thumb
 108              		.thumb_func
 109              		.type	rcvr_spi_m, %function
 110              	rcvr_spi_m:
 111              	.LFB31:
  90:.\Generated_Source\PSoC5/sdspi_1_sdspi.c **** 
  91:.\Generated_Source\PSoC5/sdspi_1_sdspi.c **** 
  92:.\Generated_Source\PSoC5/sdspi_1_sdspi.c **** /*--------------------------------------------------------------------------
  93:.\Generated_Source\PSoC5/sdspi_1_sdspi.c **** 
  94:.\Generated_Source\PSoC5/sdspi_1_sdspi.c ****    Module Private Functions
  95:.\Generated_Source\PSoC5/sdspi_1_sdspi.c **** 
  96:.\Generated_Source\PSoC5/sdspi_1_sdspi.c **** ---------------------------------------------------------------------------*/
  97:.\Generated_Source\PSoC5/sdspi_1_sdspi.c **** 
  98:.\Generated_Source\PSoC5/sdspi_1_sdspi.c **** static volatile
  99:.\Generated_Source\PSoC5/sdspi_1_sdspi.c **** DSTATUS Stat = STA_NOINIT | STA_NODISK;	/* Disk status */
 100:.\Generated_Source\PSoC5/sdspi_1_sdspi.c **** 
 101:.\Generated_Source\PSoC5/sdspi_1_sdspi.c **** static volatile
 102:.\Generated_Source\PSoC5/sdspi_1_sdspi.c **** UINT SDTimer1, SDTimer2;		/* 1000Hz decrement timer */
 103:.\Generated_Source\PSoC5/sdspi_1_sdspi.c **** 
 104:.\Generated_Source\PSoC5/sdspi_1_sdspi.c **** static
 105:.\Generated_Source\PSoC5/sdspi_1_sdspi.c **** UINT CardType;
 106:.\Generated_Source\PSoC5/sdspi_1_sdspi.c **** 
 107:.\Generated_Source\PSoC5/sdspi_1_sdspi.c **** 
 108:.\Generated_Source\PSoC5/sdspi_1_sdspi.c **** 
 109:.\Generated_Source\PSoC5/sdspi_1_sdspi.c **** /*-----------------------------------------------------------------------*/
 110:.\Generated_Source\PSoC5/sdspi_1_sdspi.c **** /* Exchange a byte between PSoC3 and MMC via SPI  (Platform dependent)   */
 111:.\Generated_Source\PSoC5/sdspi_1_sdspi.c **** /*-----------------------------------------------------------------------*/
 112:.\Generated_Source\PSoC5/sdspi_1_sdspi.c **** 
 113:.\Generated_Source\PSoC5/sdspi_1_sdspi.c **** #define xmit_spi(dat) 	xchg_spi(dat)
ARM GAS  C:\Users\SUZUKI~1\AppData\Local\Temp\ccDED0md.s 			page 5


 114:.\Generated_Source\PSoC5/sdspi_1_sdspi.c **** #define rcvr_spi()		xchg_spi(0xFF)
 115:.\Generated_Source\PSoC5/sdspi_1_sdspi.c **** //#define rcvr_spi_m(p)	SPI1BUF = 0xFF; while (!_SPIRBF); *(p) = (BYTE)SPI1BUF;
 116:.\Generated_Source\PSoC5/sdspi_1_sdspi.c **** 
 117:.\Generated_Source\PSoC5/sdspi_1_sdspi.c **** static
 118:.\Generated_Source\PSoC5/sdspi_1_sdspi.c **** void rcvr_spi_m(BYTE *dat)
 119:.\Generated_Source\PSoC5/sdspi_1_sdspi.c **** {
 112              		.loc 1 119 0
 113              		.cfi_startproc
 114              		@ args = 0, pretend = 0, frame = 8
 115              		@ frame_needed = 1, uses_anonymous_args = 0
 116 0000 80B5     		push	{r7, lr}
 117              	.LCFI4:
 118              		.cfi_def_cfa_offset 8
 119 0002 82B0     		sub	sp, sp, #8
 120              	.LCFI5:
 121              		.cfi_def_cfa_offset 16
 122 0004 00AF     		add	r7, sp, #0
 123              		.cfi_offset 14, -4
 124              		.cfi_offset 7, -8
 125              	.LCFI6:
 126              		.cfi_def_cfa_register 7
 127 0006 7860     		str	r0, [r7, #4]
 120:.\Generated_Source\PSoC5/sdspi_1_sdspi.c **** 	sdspi_1_SPI_WriteTxData(0xff);
 128              		.loc 1 120 0
 129 0008 4FF0FF00 		mov	r0, #255
 130 000c FFF7FEFF 		bl	sdspi_1_SPI_WriteTxData
 131              	.L6:
 121:.\Generated_Source\PSoC5/sdspi_1_sdspi.c **** 	while(!(sdspi_1_SPI_ReadStatus() & sdspi_1_SPI_STS_BYTE_COMPLETE)) {}
 132              		.loc 1 121 0
 133 0010 FFF7FEFF 		bl	sdspi_1_SPI_ReadStatus
 134 0014 0346     		mov	r3, r0
 135 0016 03F00803 		and	r3, r3, #8
 136 001a 002B     		cmp	r3, #0
 137 001c F8D0     		beq	.L6
 122:.\Generated_Source\PSoC5/sdspi_1_sdspi.c **** 	*dat = sdspi_1_SPI_ReadRxData();
 138              		.loc 1 122 0
 139 001e FFF7FEFF 		bl	sdspi_1_SPI_ReadRxData
 140 0022 0346     		mov	r3, r0
 141 0024 1A46     		mov	r2, r3
 142 0026 7B68     		ldr	r3, [r7, #4]
 143 0028 1A70     		strb	r2, [r3, #0]
 123:.\Generated_Source\PSoC5/sdspi_1_sdspi.c **** 	return;
 124:.\Generated_Source\PSoC5/sdspi_1_sdspi.c **** }
 144              		.loc 1 124 0
 145 002a 07F10807 		add	r7, r7, #8
 146 002e BD46     		mov	sp, r7
 147 0030 80BD     		pop	{r7, pc}
 148              		.cfi_endproc
 149              	.LFE31:
 150              		.size	rcvr_spi_m, .-rcvr_spi_m
 151 0032 00BF     		.section	.text.xchg_spi,"ax",%progbits
 152              		.align	2
 153              		.thumb
 154              		.thumb_func
 155              		.type	xchg_spi, %function
 156              	xchg_spi:
 157              	.LFB32:
ARM GAS  C:\Users\SUZUKI~1\AppData\Local\Temp\ccDED0md.s 			page 6


 125:.\Generated_Source\PSoC5/sdspi_1_sdspi.c **** 
 126:.\Generated_Source\PSoC5/sdspi_1_sdspi.c **** static
 127:.\Generated_Source\PSoC5/sdspi_1_sdspi.c **** BYTE xchg_spi (BYTE dat)
 128:.\Generated_Source\PSoC5/sdspi_1_sdspi.c **** {
 158              		.loc 1 128 0
 159              		.cfi_startproc
 160              		@ args = 0, pretend = 0, frame = 8
 161              		@ frame_needed = 1, uses_anonymous_args = 0
 162 0000 80B5     		push	{r7, lr}
 163              	.LCFI7:
 164              		.cfi_def_cfa_offset 8
 165 0002 82B0     		sub	sp, sp, #8
 166              	.LCFI8:
 167              		.cfi_def_cfa_offset 16
 168 0004 00AF     		add	r7, sp, #0
 169              		.cfi_offset 14, -4
 170              		.cfi_offset 7, -8
 171              	.LCFI9:
 172              		.cfi_def_cfa_register 7
 173 0006 0346     		mov	r3, r0
 174 0008 FB71     		strb	r3, [r7, #7]
 129:.\Generated_Source\PSoC5/sdspi_1_sdspi.c **** 	sdspi_1_SPI_WriteTxData(dat);
 175              		.loc 1 129 0
 176 000a FB79     		ldrb	r3, [r7, #7]	@ zero_extendqisi2
 177 000c 1846     		mov	r0, r3
 178 000e FFF7FEFF 		bl	sdspi_1_SPI_WriteTxData
 179              	.L9:
 130:.\Generated_Source\PSoC5/sdspi_1_sdspi.c **** 	while(!(sdspi_1_SPI_ReadStatus() & sdspi_1_SPI_STS_BYTE_COMPLETE)) {}
 180              		.loc 1 130 0
 181 0012 FFF7FEFF 		bl	sdspi_1_SPI_ReadStatus
 182 0016 0346     		mov	r3, r0
 183 0018 03F00803 		and	r3, r3, #8
 184 001c 002B     		cmp	r3, #0
 185 001e F8D0     		beq	.L9
 131:.\Generated_Source\PSoC5/sdspi_1_sdspi.c **** 	return(sdspi_1_SPI_ReadRxData());
 186              		.loc 1 131 0
 187 0020 FFF7FEFF 		bl	sdspi_1_SPI_ReadRxData
 188 0024 0346     		mov	r3, r0
 132:.\Generated_Source\PSoC5/sdspi_1_sdspi.c **** }
 189              		.loc 1 132 0
 190 0026 1846     		mov	r0, r3
 191 0028 07F10807 		add	r7, r7, #8
 192 002c BD46     		mov	sp, r7
 193 002e 80BD     		pop	{r7, pc}
 194              		.cfi_endproc
 195              	.LFE32:
 196              		.size	xchg_spi, .-xchg_spi
 197              		.section	.text.wait_ready,"ax",%progbits
 198              		.align	2
 199              		.thumb
 200              		.thumb_func
 201              		.type	wait_ready, %function
 202              	wait_ready:
 203              	.LFB33:
 133:.\Generated_Source\PSoC5/sdspi_1_sdspi.c **** 
 134:.\Generated_Source\PSoC5/sdspi_1_sdspi.c **** 
 135:.\Generated_Source\PSoC5/sdspi_1_sdspi.c **** 
ARM GAS  C:\Users\SUZUKI~1\AppData\Local\Temp\ccDED0md.s 			page 7


 136:.\Generated_Source\PSoC5/sdspi_1_sdspi.c **** /*-----------------------------------------------------------------------*/
 137:.\Generated_Source\PSoC5/sdspi_1_sdspi.c **** /* Wait for card ready                                                   */
 138:.\Generated_Source\PSoC5/sdspi_1_sdspi.c **** /*-----------------------------------------------------------------------*/
 139:.\Generated_Source\PSoC5/sdspi_1_sdspi.c **** 
 140:.\Generated_Source\PSoC5/sdspi_1_sdspi.c **** static
 141:.\Generated_Source\PSoC5/sdspi_1_sdspi.c **** BYTE wait_ready (void)
 142:.\Generated_Source\PSoC5/sdspi_1_sdspi.c **** {
 204              		.loc 1 142 0
 205              		.cfi_startproc
 206              		@ args = 0, pretend = 0, frame = 8
 207              		@ frame_needed = 1, uses_anonymous_args = 0
 208 0000 80B5     		push	{r7, lr}
 209              	.LCFI10:
 210              		.cfi_def_cfa_offset 8
 211 0002 82B0     		sub	sp, sp, #8
 212              	.LCFI11:
 213              		.cfi_def_cfa_offset 16
 214 0004 00AF     		add	r7, sp, #0
 215              		.cfi_offset 14, -4
 216              		.cfi_offset 7, -8
 217              	.LCFI12:
 218              		.cfi_def_cfa_register 7
 143:.\Generated_Source\PSoC5/sdspi_1_sdspi.c **** 	BYTE res;
 144:.\Generated_Source\PSoC5/sdspi_1_sdspi.c **** 	
 145:.\Generated_Source\PSoC5/sdspi_1_sdspi.c **** 	SDTimer2 = 500;	/* Wait for ready in timeout of 500ms */
 219              		.loc 1 145 0
 220 0006 40F20003 		movw	r3, #:lower16:SDTimer2
 221 000a C0F20003 		movt	r3, #:upper16:SDTimer2
 222 000e 4FF4FA72 		mov	r2, #500
 223 0012 1A60     		str	r2, [r3, #0]
 146:.\Generated_Source\PSoC5/sdspi_1_sdspi.c **** 	rcvr_spi();
 224              		.loc 1 146 0
 225 0014 4FF0FF00 		mov	r0, #255
 226 0018 FFF7FEFF 		bl	xchg_spi
 227              	.L13:
 147:.\Generated_Source\PSoC5/sdspi_1_sdspi.c **** 	do
 148:.\Generated_Source\PSoC5/sdspi_1_sdspi.c **** 	{
 149:.\Generated_Source\PSoC5/sdspi_1_sdspi.c **** 		res = rcvr_spi();
 228              		.loc 1 149 0
 229 001c 4FF0FF00 		mov	r0, #255
 230 0020 FFF7FEFF 		bl	xchg_spi
 231 0024 0346     		mov	r3, r0
 232 0026 FB71     		strb	r3, [r7, #7]
 150:.\Generated_Source\PSoC5/sdspi_1_sdspi.c **** 	}
 151:.\Generated_Source\PSoC5/sdspi_1_sdspi.c **** 	while ((res != 0xFF) && SDTimer2);
 233              		.loc 1 151 0
 234 0028 FB79     		ldrb	r3, [r7, #7]	@ zero_extendqisi2
 235 002a FF2B     		cmp	r3, #255
 236 002c 06D0     		beq	.L12
 237 002e 40F20003 		movw	r3, #:lower16:SDTimer2
 238 0032 C0F20003 		movt	r3, #:upper16:SDTimer2
 239 0036 1B68     		ldr	r3, [r3, #0]
 240 0038 002B     		cmp	r3, #0
 241 003a EFD1     		bne	.L13
 242              	.L12:
 152:.\Generated_Source\PSoC5/sdspi_1_sdspi.c **** 	return res;
 243              		.loc 1 152 0
ARM GAS  C:\Users\SUZUKI~1\AppData\Local\Temp\ccDED0md.s 			page 8


 244 003c FB79     		ldrb	r3, [r7, #7]	@ zero_extendqisi2
 153:.\Generated_Source\PSoC5/sdspi_1_sdspi.c **** }
 245              		.loc 1 153 0
 246 003e 1846     		mov	r0, r3
 247 0040 07F10807 		add	r7, r7, #8
 248 0044 BD46     		mov	sp, r7
 249 0046 80BD     		pop	{r7, pc}
 250              		.cfi_endproc
 251              	.LFE33:
 252              		.size	wait_ready, .-wait_ready
 253              		.section	.text.deselect,"ax",%progbits
 254              		.align	2
 255              		.thumb
 256              		.thumb_func
 257              		.type	deselect, %function
 258              	deselect:
 259              	.LFB34:
 154:.\Generated_Source\PSoC5/sdspi_1_sdspi.c **** 
 155:.\Generated_Source\PSoC5/sdspi_1_sdspi.c **** 
 156:.\Generated_Source\PSoC5/sdspi_1_sdspi.c **** /*-----------------------------------------------------------------------*/
 157:.\Generated_Source\PSoC5/sdspi_1_sdspi.c **** /* Deselect the card and release SPI bus                                 */
 158:.\Generated_Source\PSoC5/sdspi_1_sdspi.c **** /*-----------------------------------------------------------------------*/
 159:.\Generated_Source\PSoC5/sdspi_1_sdspi.c **** 
 160:.\Generated_Source\PSoC5/sdspi_1_sdspi.c **** static
 161:.\Generated_Source\PSoC5/sdspi_1_sdspi.c **** void deselect (void)
 162:.\Generated_Source\PSoC5/sdspi_1_sdspi.c **** {
 260              		.loc 1 162 0
 261              		.cfi_startproc
 262              		@ args = 0, pretend = 0, frame = 0
 263              		@ frame_needed = 1, uses_anonymous_args = 0
 264 0000 80B5     		push	{r7, lr}
 265              	.LCFI13:
 266              		.cfi_def_cfa_offset 8
 267 0002 00AF     		add	r7, sp, #0
 268              		.cfi_offset 14, -4
 269              		.cfi_offset 7, -8
 270              	.LCFI14:
 271              		.cfi_def_cfa_register 7
 163:.\Generated_Source\PSoC5/sdspi_1_sdspi.c **** 	CS_HIGH();
 272              		.loc 1 163 0
 273 0004 4FF00100 		mov	r0, #1
 274 0008 FFF7FEFF 		bl	sdspi_1_CS_Control_Write
 164:.\Generated_Source\PSoC5/sdspi_1_sdspi.c **** 	rcvr_spi();
 275              		.loc 1 164 0
 276 000c 4FF0FF00 		mov	r0, #255
 277 0010 FFF7FEFF 		bl	xchg_spi
 165:.\Generated_Source\PSoC5/sdspi_1_sdspi.c **** }
 278              		.loc 1 165 0
 279 0014 80BD     		pop	{r7, pc}
 280              		.cfi_endproc
 281              	.LFE34:
 282              		.size	deselect, .-deselect
 283 0016 00BF     		.section	.text.select,"ax",%progbits
 284              		.align	2
 285              		.thumb
 286              		.thumb_func
 287              		.type	select, %function
ARM GAS  C:\Users\SUZUKI~1\AppData\Local\Temp\ccDED0md.s 			page 9


 288              	select:
 289              	.LFB35:
 166:.\Generated_Source\PSoC5/sdspi_1_sdspi.c **** 
 167:.\Generated_Source\PSoC5/sdspi_1_sdspi.c **** 
 168:.\Generated_Source\PSoC5/sdspi_1_sdspi.c **** 
 169:.\Generated_Source\PSoC5/sdspi_1_sdspi.c **** /*-----------------------------------------------------------------------*/
 170:.\Generated_Source\PSoC5/sdspi_1_sdspi.c **** /* Select the card and wait ready                                        */
 171:.\Generated_Source\PSoC5/sdspi_1_sdspi.c **** /*-----------------------------------------------------------------------*/
 172:.\Generated_Source\PSoC5/sdspi_1_sdspi.c **** 
 173:.\Generated_Source\PSoC5/sdspi_1_sdspi.c **** static
 174:.\Generated_Source\PSoC5/sdspi_1_sdspi.c **** int select (void)	/* 1:Successful, 0:Timeout */
 175:.\Generated_Source\PSoC5/sdspi_1_sdspi.c **** {
 290              		.loc 1 175 0
 291              		.cfi_startproc
 292              		@ args = 0, pretend = 0, frame = 0
 293              		@ frame_needed = 1, uses_anonymous_args = 0
 294 0000 80B5     		push	{r7, lr}
 295              	.LCFI15:
 296              		.cfi_def_cfa_offset 8
 297 0002 00AF     		add	r7, sp, #0
 298              		.cfi_offset 14, -4
 299              		.cfi_offset 7, -8
 300              	.LCFI16:
 301              		.cfi_def_cfa_register 7
 176:.\Generated_Source\PSoC5/sdspi_1_sdspi.c **** 	CS_LOW();
 302              		.loc 1 176 0
 303 0004 4FF00000 		mov	r0, #0
 304 0008 FFF7FEFF 		bl	sdspi_1_CS_Control_Write
 177:.\Generated_Source\PSoC5/sdspi_1_sdspi.c **** //	iputs("Enter Select\r\n");
 178:.\Generated_Source\PSoC5/sdspi_1_sdspi.c **** 	if (wait_ready() != 0xFF) {
 305              		.loc 1 178 0
 306 000c FFF7FEFF 		bl	wait_ready
 307 0010 0346     		mov	r3, r0
 308 0012 FF2B     		cmp	r3, #255
 309 0014 04D0     		beq	.L18
 179:.\Generated_Source\PSoC5/sdspi_1_sdspi.c **** 		deselect();
 310              		.loc 1 179 0
 311 0016 FFF7FEFF 		bl	deselect
 180:.\Generated_Source\PSoC5/sdspi_1_sdspi.c **** //		iputc("S");
 181:.\Generated_Source\PSoC5/sdspi_1_sdspi.c **** 		return 0;
 312              		.loc 1 181 0
 313 001a 4FF00003 		mov	r3, #0
 314 001e 01E0     		b	.L19
 315              	.L18:
 182:.\Generated_Source\PSoC5/sdspi_1_sdspi.c **** 	}
 183:.\Generated_Source\PSoC5/sdspi_1_sdspi.c **** 	return 1;
 316              		.loc 1 183 0
 317 0020 4FF00103 		mov	r3, #1
 318              	.L19:
 184:.\Generated_Source\PSoC5/sdspi_1_sdspi.c **** }
 319              		.loc 1 184 0
 320 0024 1846     		mov	r0, r3
 321 0026 80BD     		pop	{r7, pc}
 322              		.cfi_endproc
 323              	.LFE35:
 324              		.size	select, .-select
 325              		.section	.text.power_on,"ax",%progbits
ARM GAS  C:\Users\SUZUKI~1\AppData\Local\Temp\ccDED0md.s 			page 10


 326              		.align	2
 327              		.thumb
 328              		.thumb_func
 329              		.type	power_on, %function
 330              	power_on:
 331              	.LFB36:
 185:.\Generated_Source\PSoC5/sdspi_1_sdspi.c **** 
 186:.\Generated_Source\PSoC5/sdspi_1_sdspi.c **** 
 187:.\Generated_Source\PSoC5/sdspi_1_sdspi.c **** 
 188:.\Generated_Source\PSoC5/sdspi_1_sdspi.c **** /*-----------------------------------------------------------------------*/
 189:.\Generated_Source\PSoC5/sdspi_1_sdspi.c **** /* Power Control  (Platform dependent)                                   */
 190:.\Generated_Source\PSoC5/sdspi_1_sdspi.c **** /*-----------------------------------------------------------------------*/
 191:.\Generated_Source\PSoC5/sdspi_1_sdspi.c **** /* When the target system does not support socket power control, there   */
 192:.\Generated_Source\PSoC5/sdspi_1_sdspi.c **** /* is nothing to do in these functions and chk_power always returns 1.   */
 193:.\Generated_Source\PSoC5/sdspi_1_sdspi.c **** 
 194:.\Generated_Source\PSoC5/sdspi_1_sdspi.c **** static
 195:.\Generated_Source\PSoC5/sdspi_1_sdspi.c **** void power_on (void)
 196:.\Generated_Source\PSoC5/sdspi_1_sdspi.c **** {
 332              		.loc 1 196 0
 333              		.cfi_startproc
 334              		@ args = 0, pretend = 0, frame = 0
 335              		@ frame_needed = 1, uses_anonymous_args = 0
 336              		@ link register save eliminated.
 337 0000 80B4     		push	{r7}
 338              	.LCFI17:
 339              		.cfi_def_cfa_offset 4
 340 0002 00AF     		add	r7, sp, #0
 341              		.cfi_offset 7, -4
 342              	.LCFI18:
 343              		.cfi_def_cfa_register 7
 197:.\Generated_Source\PSoC5/sdspi_1_sdspi.c **** 	/* Enable SPI1 */
 198:.\Generated_Source\PSoC5/sdspi_1_sdspi.c **** }
 344              		.loc 1 198 0
 345 0004 BD46     		mov	sp, r7
 346 0006 80BC     		pop	{r7}
 347 0008 7047     		bx	lr
 348              		.cfi_endproc
 349              	.LFE36:
 350              		.size	power_on, .-power_on
 351 000a 00BF     		.section	.text.power_off,"ax",%progbits
 352              		.align	2
 353              		.thumb
 354              		.thumb_func
 355              		.type	power_off, %function
 356              	power_off:
 357              	.LFB37:
 199:.\Generated_Source\PSoC5/sdspi_1_sdspi.c **** 
 200:.\Generated_Source\PSoC5/sdspi_1_sdspi.c **** static
 201:.\Generated_Source\PSoC5/sdspi_1_sdspi.c **** void power_off (void)
 202:.\Generated_Source\PSoC5/sdspi_1_sdspi.c **** {
 358              		.loc 1 202 0
 359              		.cfi_startproc
 360              		@ args = 0, pretend = 0, frame = 0
 361              		@ frame_needed = 1, uses_anonymous_args = 0
 362 0000 80B5     		push	{r7, lr}
 363              	.LCFI19:
 364              		.cfi_def_cfa_offset 8
ARM GAS  C:\Users\SUZUKI~1\AppData\Local\Temp\ccDED0md.s 			page 11


 365 0002 00AF     		add	r7, sp, #0
 366              		.cfi_offset 14, -4
 367              		.cfi_offset 7, -8
 368              	.LCFI20:
 369              		.cfi_def_cfa_register 7
 203:.\Generated_Source\PSoC5/sdspi_1_sdspi.c **** 	select();			/* Wait for card ready */
 370              		.loc 1 203 0
 371 0004 FFF7FEFF 		bl	select
 204:.\Generated_Source\PSoC5/sdspi_1_sdspi.c **** 	deselect();
 372              		.loc 1 204 0
 373 0008 FFF7FEFF 		bl	deselect
 205:.\Generated_Source\PSoC5/sdspi_1_sdspi.c **** 
 206:.\Generated_Source\PSoC5/sdspi_1_sdspi.c **** //	_SPIEN = 0;			/* Disable SPI1 */
 207:.\Generated_Source\PSoC5/sdspi_1_sdspi.c **** 
 208:.\Generated_Source\PSoC5/sdspi_1_sdspi.c **** 	Stat |= STA_NOINIT;	/* Set STA_NOINIT */
 374              		.loc 1 208 0
 375 000c 40F20003 		movw	r3, #:lower16:Stat
 376 0010 C0F20003 		movt	r3, #:upper16:Stat
 377 0014 1B78     		ldrb	r3, [r3, #0]
 378 0016 DBB2     		uxtb	r3, r3
 379 0018 43F00103 		orr	r3, r3, #1
 380 001c DAB2     		uxtb	r2, r3
 381 001e 40F20003 		movw	r3, #:lower16:Stat
 382 0022 C0F20003 		movt	r3, #:upper16:Stat
 383 0026 1A70     		strb	r2, [r3, #0]
 209:.\Generated_Source\PSoC5/sdspi_1_sdspi.c **** }
 384              		.loc 1 209 0
 385 0028 80BD     		pop	{r7, pc}
 386              		.cfi_endproc
 387              	.LFE37:
 388              		.size	power_off, .-power_off
 389 002a 00BF     		.section	.text.rcvr_datablock,"ax",%progbits
 390              		.align	2
 391              		.thumb
 392              		.thumb_func
 393              		.type	rcvr_datablock, %function
 394              	rcvr_datablock:
 395              	.LFB38:
 210:.\Generated_Source\PSoC5/sdspi_1_sdspi.c **** 
 211:.\Generated_Source\PSoC5/sdspi_1_sdspi.c **** 
 212:.\Generated_Source\PSoC5/sdspi_1_sdspi.c **** 
 213:.\Generated_Source\PSoC5/sdspi_1_sdspi.c **** /*-----------------------------------------------------------------------*/
 214:.\Generated_Source\PSoC5/sdspi_1_sdspi.c **** /* Receive a data packet from MMC                                        */
 215:.\Generated_Source\PSoC5/sdspi_1_sdspi.c **** /*-----------------------------------------------------------------------*/
 216:.\Generated_Source\PSoC5/sdspi_1_sdspi.c **** 
 217:.\Generated_Source\PSoC5/sdspi_1_sdspi.c **** static
 218:.\Generated_Source\PSoC5/sdspi_1_sdspi.c **** int rcvr_datablock (	/* 1:OK, 0:Failed */
 219:.\Generated_Source\PSoC5/sdspi_1_sdspi.c **** 	BYTE *buff,			/* Data buffer to store received data */
 220:.\Generated_Source\PSoC5/sdspi_1_sdspi.c **** 	UINT btr			/* Byte count (must be multiple of 4) */
 221:.\Generated_Source\PSoC5/sdspi_1_sdspi.c **** )
 222:.\Generated_Source\PSoC5/sdspi_1_sdspi.c **** {
 396              		.loc 1 222 0
 397              		.cfi_startproc
 398              		@ args = 0, pretend = 0, frame = 16
 399              		@ frame_needed = 1, uses_anonymous_args = 0
 400 0000 80B5     		push	{r7, lr}
 401              	.LCFI21:
ARM GAS  C:\Users\SUZUKI~1\AppData\Local\Temp\ccDED0md.s 			page 12


 402              		.cfi_def_cfa_offset 8
 403 0002 84B0     		sub	sp, sp, #16
 404              	.LCFI22:
 405              		.cfi_def_cfa_offset 24
 406 0004 00AF     		add	r7, sp, #0
 407              		.cfi_offset 14, -4
 408              		.cfi_offset 7, -8
 409              	.LCFI23:
 410              		.cfi_def_cfa_register 7
 411 0006 7860     		str	r0, [r7, #4]
 412 0008 3960     		str	r1, [r7, #0]
 223:.\Generated_Source\PSoC5/sdspi_1_sdspi.c **** 	BYTE token;
 224:.\Generated_Source\PSoC5/sdspi_1_sdspi.c **** 
 225:.\Generated_Source\PSoC5/sdspi_1_sdspi.c **** 	SDTimer1 = 100;
 413              		.loc 1 225 0
 414 000a 40F20003 		movw	r3, #:lower16:SDTimer1
 415 000e C0F20003 		movt	r3, #:upper16:SDTimer1
 416 0012 4FF06402 		mov	r2, #100
 417 0016 1A60     		str	r2, [r3, #0]
 418              	.L27:
 226:.\Generated_Source\PSoC5/sdspi_1_sdspi.c **** 	do {							/* Wait for data packet in timeout of 100ms */
 227:.\Generated_Source\PSoC5/sdspi_1_sdspi.c **** 		token = rcvr_spi();
 419              		.loc 1 227 0
 420 0018 4FF0FF00 		mov	r0, #255
 421 001c FFF7FEFF 		bl	xchg_spi
 422 0020 0346     		mov	r3, r0
 423 0022 FB73     		strb	r3, [r7, #15]
 228:.\Generated_Source\PSoC5/sdspi_1_sdspi.c **** 	} while ((token == 0xFF) && SDTimer1);
 424              		.loc 1 228 0
 425 0024 FB7B     		ldrb	r3, [r7, #15]	@ zero_extendqisi2
 426 0026 FF2B     		cmp	r3, #255
 427 0028 06D1     		bne	.L26
 428 002a 40F20003 		movw	r3, #:lower16:SDTimer1
 429 002e C0F20003 		movt	r3, #:upper16:SDTimer1
 430 0032 1B68     		ldr	r3, [r3, #0]
 431 0034 002B     		cmp	r3, #0
 432 0036 EFD1     		bne	.L27
 433              	.L26:
 229:.\Generated_Source\PSoC5/sdspi_1_sdspi.c **** 
 230:.\Generated_Source\PSoC5/sdspi_1_sdspi.c **** 	if(token != 0xFE) return 0;		/* If not valid data token, retutn with error */
 434              		.loc 1 230 0
 435 0038 FB7B     		ldrb	r3, [r7, #15]	@ zero_extendqisi2
 436 003a FE2B     		cmp	r3, #254
 437 003c 02D0     		beq	.L28
 438 003e 4FF00003 		mov	r3, #0
 439 0042 30E0     		b	.L29
 440              	.L28:
 231:.\Generated_Source\PSoC5/sdspi_1_sdspi.c **** 
 232:.\Generated_Source\PSoC5/sdspi_1_sdspi.c **** 	do {							/* Receive the data block into buffer */
 233:.\Generated_Source\PSoC5/sdspi_1_sdspi.c **** 		rcvr_spi_m(buff++);
 441              		.loc 1 233 0
 442 0044 7B68     		ldr	r3, [r7, #4]
 443 0046 7A68     		ldr	r2, [r7, #4]
 444 0048 02F10102 		add	r2, r2, #1
 445 004c 7A60     		str	r2, [r7, #4]
 446 004e 1846     		mov	r0, r3
 447 0050 FFF7FEFF 		bl	rcvr_spi_m
ARM GAS  C:\Users\SUZUKI~1\AppData\Local\Temp\ccDED0md.s 			page 13


 234:.\Generated_Source\PSoC5/sdspi_1_sdspi.c **** 		rcvr_spi_m(buff++);
 448              		.loc 1 234 0
 449 0054 7B68     		ldr	r3, [r7, #4]
 450 0056 7A68     		ldr	r2, [r7, #4]
 451 0058 02F10102 		add	r2, r2, #1
 452 005c 7A60     		str	r2, [r7, #4]
 453 005e 1846     		mov	r0, r3
 454 0060 FFF7FEFF 		bl	rcvr_spi_m
 235:.\Generated_Source\PSoC5/sdspi_1_sdspi.c **** 		rcvr_spi_m(buff++);
 455              		.loc 1 235 0
 456 0064 7B68     		ldr	r3, [r7, #4]
 457 0066 7A68     		ldr	r2, [r7, #4]
 458 0068 02F10102 		add	r2, r2, #1
 459 006c 7A60     		str	r2, [r7, #4]
 460 006e 1846     		mov	r0, r3
 461 0070 FFF7FEFF 		bl	rcvr_spi_m
 236:.\Generated_Source\PSoC5/sdspi_1_sdspi.c **** 		rcvr_spi_m(buff++);
 462              		.loc 1 236 0
 463 0074 7B68     		ldr	r3, [r7, #4]
 464 0076 7A68     		ldr	r2, [r7, #4]
 465 0078 02F10102 		add	r2, r2, #1
 466 007c 7A60     		str	r2, [r7, #4]
 467 007e 1846     		mov	r0, r3
 468 0080 FFF7FEFF 		bl	rcvr_spi_m
 237:.\Generated_Source\PSoC5/sdspi_1_sdspi.c **** 	} while (btr -= 4);
 469              		.loc 1 237 0
 470 0084 3B68     		ldr	r3, [r7, #0]
 471 0086 A3F10403 		sub	r3, r3, #4
 472 008a 3B60     		str	r3, [r7, #0]
 473 008c 3B68     		ldr	r3, [r7, #0]
 474 008e 002B     		cmp	r3, #0
 475 0090 D8D1     		bne	.L28
 238:.\Generated_Source\PSoC5/sdspi_1_sdspi.c **** 	rcvr_spi();						/* Discard CRC */
 476              		.loc 1 238 0
 477 0092 4FF0FF00 		mov	r0, #255
 478 0096 FFF7FEFF 		bl	xchg_spi
 239:.\Generated_Source\PSoC5/sdspi_1_sdspi.c **** 	rcvr_spi();
 479              		.loc 1 239 0
 480 009a 4FF0FF00 		mov	r0, #255
 481 009e FFF7FEFF 		bl	xchg_spi
 240:.\Generated_Source\PSoC5/sdspi_1_sdspi.c **** 
 241:.\Generated_Source\PSoC5/sdspi_1_sdspi.c **** 	return 1;						/* Return with success */
 482              		.loc 1 241 0
 483 00a2 4FF00103 		mov	r3, #1
 484              	.L29:
 242:.\Generated_Source\PSoC5/sdspi_1_sdspi.c **** }
 485              		.loc 1 242 0
 486 00a6 1846     		mov	r0, r3
 487 00a8 07F11007 		add	r7, r7, #16
 488 00ac BD46     		mov	sp, r7
 489 00ae 80BD     		pop	{r7, pc}
 490              		.cfi_endproc
 491              	.LFE38:
 492              		.size	rcvr_datablock, .-rcvr_datablock
 493              		.section	.text.xmit_datablock,"ax",%progbits
 494              		.align	2
 495              		.thumb
ARM GAS  C:\Users\SUZUKI~1\AppData\Local\Temp\ccDED0md.s 			page 14


 496              		.thumb_func
 497              		.type	xmit_datablock, %function
 498              	xmit_datablock:
 499              	.LFB39:
 243:.\Generated_Source\PSoC5/sdspi_1_sdspi.c **** 
 244:.\Generated_Source\PSoC5/sdspi_1_sdspi.c **** 
 245:.\Generated_Source\PSoC5/sdspi_1_sdspi.c **** 
 246:.\Generated_Source\PSoC5/sdspi_1_sdspi.c **** /*-----------------------------------------------------------------------*/
 247:.\Generated_Source\PSoC5/sdspi_1_sdspi.c **** /* Send a data packet to MMC                                             */
 248:.\Generated_Source\PSoC5/sdspi_1_sdspi.c **** /*-----------------------------------------------------------------------*/
 249:.\Generated_Source\PSoC5/sdspi_1_sdspi.c **** 
 250:.\Generated_Source\PSoC5/sdspi_1_sdspi.c **** #if _READONLY == 0
 251:.\Generated_Source\PSoC5/sdspi_1_sdspi.c **** static
 252:.\Generated_Source\PSoC5/sdspi_1_sdspi.c **** int xmit_datablock (	/* 1:OK, 0:Failed */
 253:.\Generated_Source\PSoC5/sdspi_1_sdspi.c **** 	const BYTE *buff,	/* 512 byte data block to be transmitted */
 254:.\Generated_Source\PSoC5/sdspi_1_sdspi.c **** 	BYTE token			/* Data token */
 255:.\Generated_Source\PSoC5/sdspi_1_sdspi.c **** )
 256:.\Generated_Source\PSoC5/sdspi_1_sdspi.c **** {
 500              		.loc 1 256 0
 501              		.cfi_startproc
 502              		@ args = 0, pretend = 0, frame = 16
 503              		@ frame_needed = 1, uses_anonymous_args = 0
 504 0000 80B5     		push	{r7, lr}
 505              	.LCFI24:
 506              		.cfi_def_cfa_offset 8
 507 0002 84B0     		sub	sp, sp, #16
 508              	.LCFI25:
 509              		.cfi_def_cfa_offset 24
 510 0004 00AF     		add	r7, sp, #0
 511              		.cfi_offset 14, -4
 512              		.cfi_offset 7, -8
 513              	.LCFI26:
 514              		.cfi_def_cfa_register 7
 515 0006 7860     		str	r0, [r7, #4]
 516 0008 0B46     		mov	r3, r1
 517 000a FB70     		strb	r3, [r7, #3]
 257:.\Generated_Source\PSoC5/sdspi_1_sdspi.c **** 	BYTE resp;
 258:.\Generated_Source\PSoC5/sdspi_1_sdspi.c **** 	UINT bc = 512;
 518              		.loc 1 258 0
 519 000c 4FF40073 		mov	r3, #512
 520 0010 FB60     		str	r3, [r7, #12]
 259:.\Generated_Source\PSoC5/sdspi_1_sdspi.c **** 
 260:.\Generated_Source\PSoC5/sdspi_1_sdspi.c **** 
 261:.\Generated_Source\PSoC5/sdspi_1_sdspi.c **** 	if (wait_ready() != 0xFF) return 0;
 521              		.loc 1 261 0
 522 0012 FFF7FEFF 		bl	wait_ready
 523 0016 0346     		mov	r3, r0
 524 0018 FF2B     		cmp	r3, #255
 525 001a 02D0     		beq	.L32
 526 001c 4FF00003 		mov	r3, #0
 527 0020 37E0     		b	.L33
 528              	.L32:
 262:.\Generated_Source\PSoC5/sdspi_1_sdspi.c **** 
 263:.\Generated_Source\PSoC5/sdspi_1_sdspi.c **** 	xmit_spi(token);		/* Xmit a token */
 529              		.loc 1 263 0
 530 0022 FB78     		ldrb	r3, [r7, #3]	@ zero_extendqisi2
 531 0024 1846     		mov	r0, r3
ARM GAS  C:\Users\SUZUKI~1\AppData\Local\Temp\ccDED0md.s 			page 15


 532 0026 FFF7FEFF 		bl	xchg_spi
 264:.\Generated_Source\PSoC5/sdspi_1_sdspi.c **** 	if (token != 0xFD) {	/* Not StopTran token */
 533              		.loc 1 264 0
 534 002a FB78     		ldrb	r3, [r7, #3]	@ zero_extendqisi2
 535 002c FD2B     		cmp	r3, #253
 536 002e 2ED0     		beq	.L34
 537              	.L35:
 265:.\Generated_Source\PSoC5/sdspi_1_sdspi.c **** 		do {						/* Xmit the 512 byte data block to the MMC */
 266:.\Generated_Source\PSoC5/sdspi_1_sdspi.c **** 			xmit_spi(*buff++);
 538              		.loc 1 266 0
 539 0030 7B68     		ldr	r3, [r7, #4]
 540 0032 1B78     		ldrb	r3, [r3, #0]	@ zero_extendqisi2
 541 0034 7A68     		ldr	r2, [r7, #4]
 542 0036 02F10102 		add	r2, r2, #1
 543 003a 7A60     		str	r2, [r7, #4]
 544 003c 1846     		mov	r0, r3
 545 003e FFF7FEFF 		bl	xchg_spi
 267:.\Generated_Source\PSoC5/sdspi_1_sdspi.c **** 			xmit_spi(*buff++);
 546              		.loc 1 267 0
 547 0042 7B68     		ldr	r3, [r7, #4]
 548 0044 1B78     		ldrb	r3, [r3, #0]	@ zero_extendqisi2
 549 0046 7A68     		ldr	r2, [r7, #4]
 550 0048 02F10102 		add	r2, r2, #1
 551 004c 7A60     		str	r2, [r7, #4]
 552 004e 1846     		mov	r0, r3
 553 0050 FFF7FEFF 		bl	xchg_spi
 268:.\Generated_Source\PSoC5/sdspi_1_sdspi.c **** 		} while (bc -= 2);
 554              		.loc 1 268 0
 555 0054 FB68     		ldr	r3, [r7, #12]
 556 0056 A3F10203 		sub	r3, r3, #2
 557 005a FB60     		str	r3, [r7, #12]
 558 005c FB68     		ldr	r3, [r7, #12]
 559 005e 002B     		cmp	r3, #0
 560 0060 E6D1     		bne	.L35
 269:.\Generated_Source\PSoC5/sdspi_1_sdspi.c **** 		xmit_spi(0xFF);				/* CRC (Dummy) */
 561              		.loc 1 269 0
 562 0062 4FF0FF00 		mov	r0, #255
 563 0066 FFF7FEFF 		bl	xchg_spi
 270:.\Generated_Source\PSoC5/sdspi_1_sdspi.c **** 		xmit_spi(0xFF);
 564              		.loc 1 270 0
 565 006a 4FF0FF00 		mov	r0, #255
 566 006e FFF7FEFF 		bl	xchg_spi
 271:.\Generated_Source\PSoC5/sdspi_1_sdspi.c **** 		resp = rcvr_spi();			/* Receive a data response */
 567              		.loc 1 271 0
 568 0072 4FF0FF00 		mov	r0, #255
 569 0076 FFF7FEFF 		bl	xchg_spi
 570 007a 0346     		mov	r3, r0
 571 007c FB72     		strb	r3, [r7, #11]
 272:.\Generated_Source\PSoC5/sdspi_1_sdspi.c **** 		if ((resp & 0x1F) != 0x05)	/* If not accepted, return with error */
 572              		.loc 1 272 0
 573 007e FB7A     		ldrb	r3, [r7, #11]	@ zero_extendqisi2
 574 0080 03F01F03 		and	r3, r3, #31
 575 0084 052B     		cmp	r3, #5
 576 0086 02D0     		beq	.L34
 273:.\Generated_Source\PSoC5/sdspi_1_sdspi.c **** 			return 0;
 577              		.loc 1 273 0
 578 0088 4FF00003 		mov	r3, #0
ARM GAS  C:\Users\SUZUKI~1\AppData\Local\Temp\ccDED0md.s 			page 16


 579 008c 01E0     		b	.L33
 580              	.L34:
 274:.\Generated_Source\PSoC5/sdspi_1_sdspi.c **** 	}
 275:.\Generated_Source\PSoC5/sdspi_1_sdspi.c **** 
 276:.\Generated_Source\PSoC5/sdspi_1_sdspi.c **** 	return 1;
 581              		.loc 1 276 0
 582 008e 4FF00103 		mov	r3, #1
 583              	.L33:
 277:.\Generated_Source\PSoC5/sdspi_1_sdspi.c **** }
 584              		.loc 1 277 0
 585 0092 1846     		mov	r0, r3
 586 0094 07F11007 		add	r7, r7, #16
 587 0098 BD46     		mov	sp, r7
 588 009a 80BD     		pop	{r7, pc}
 589              		.cfi_endproc
 590              	.LFE39:
 591              		.size	xmit_datablock, .-xmit_datablock
 592              		.section	.text.send_cmd,"ax",%progbits
 593              		.align	2
 594              		.thumb
 595              		.thumb_func
 596              		.type	send_cmd, %function
 597              	send_cmd:
 598              	.LFB40:
 278:.\Generated_Source\PSoC5/sdspi_1_sdspi.c **** #endif	/* _READONLY */
 279:.\Generated_Source\PSoC5/sdspi_1_sdspi.c **** 
 280:.\Generated_Source\PSoC5/sdspi_1_sdspi.c **** 
 281:.\Generated_Source\PSoC5/sdspi_1_sdspi.c **** 
 282:.\Generated_Source\PSoC5/sdspi_1_sdspi.c **** /*-----------------------------------------------------------------------*/
 283:.\Generated_Source\PSoC5/sdspi_1_sdspi.c **** /* Send a command packet to MMC                                          */
 284:.\Generated_Source\PSoC5/sdspi_1_sdspi.c **** /*-----------------------------------------------------------------------*/
 285:.\Generated_Source\PSoC5/sdspi_1_sdspi.c **** 
 286:.\Generated_Source\PSoC5/sdspi_1_sdspi.c **** static
 287:.\Generated_Source\PSoC5/sdspi_1_sdspi.c **** BYTE send_cmd (
 288:.\Generated_Source\PSoC5/sdspi_1_sdspi.c **** 	BYTE cmd,		/* Command byte */
 289:.\Generated_Source\PSoC5/sdspi_1_sdspi.c **** 	DWORD arg		/* Argument */
 290:.\Generated_Source\PSoC5/sdspi_1_sdspi.c **** )
 291:.\Generated_Source\PSoC5/sdspi_1_sdspi.c **** {
 599              		.loc 1 291 0
 600              		.cfi_startproc
 601              		@ args = 0, pretend = 0, frame = 16
 602              		@ frame_needed = 1, uses_anonymous_args = 0
 603 0000 80B5     		push	{r7, lr}
 604              	.LCFI27:
 605              		.cfi_def_cfa_offset 8
 606 0002 84B0     		sub	sp, sp, #16
 607              	.LCFI28:
 608              		.cfi_def_cfa_offset 24
 609 0004 00AF     		add	r7, sp, #0
 610              		.cfi_offset 14, -4
 611              		.cfi_offset 7, -8
 612              	.LCFI29:
 613              		.cfi_def_cfa_register 7
 614 0006 0346     		mov	r3, r0
 615 0008 3960     		str	r1, [r7, #0]
 616 000a FB71     		strb	r3, [r7, #7]
 292:.\Generated_Source\PSoC5/sdspi_1_sdspi.c **** 	BYTE n, res;
ARM GAS  C:\Users\SUZUKI~1\AppData\Local\Temp\ccDED0md.s 			page 17


 293:.\Generated_Source\PSoC5/sdspi_1_sdspi.c **** 
 294:.\Generated_Source\PSoC5/sdspi_1_sdspi.c **** 	if (cmd & 0x80)
 617              		.loc 1 294 0
 618 000c FB79     		ldrb	r3, [r7, #7]	@ zero_extendqisi2
 619 000e 5BB2     		sxtb	r3, r3
 620 0010 002B     		cmp	r3, #0
 621 0012 3EDA     		bge	.L38
 295:.\Generated_Source\PSoC5/sdspi_1_sdspi.c **** 	{	/* ACMD<n> is the command sequense of CMD55-CMD<n> */
 296:.\Generated_Source\PSoC5/sdspi_1_sdspi.c **** 		cmd &= 0x7F;
 622              		.loc 1 296 0
 623 0014 FB79     		ldrb	r3, [r7, #7]
 624 0016 03F07F03 		and	r3, r3, #127
 625 001a FB71     		strb	r3, [r7, #7]
 297:.\Generated_Source\PSoC5/sdspi_1_sdspi.c **** //		res = send_cmd(CMD55, 0);
 298:.\Generated_Source\PSoC5/sdspi_1_sdspi.c **** 		/* Select the card and wait for ready */
 299:.\Generated_Source\PSoC5/sdspi_1_sdspi.c **** 		deselect();
 626              		.loc 1 299 0
 627 001c FFF7FEFF 		bl	deselect
 300:.\Generated_Source\PSoC5/sdspi_1_sdspi.c **** 		if (!select()) return 0xFF;
 628              		.loc 1 300 0
 629 0020 FFF7FEFF 		bl	select
 630 0024 0346     		mov	r3, r0
 631 0026 002B     		cmp	r3, #0
 632 0028 02D1     		bne	.L39
 633 002a 4FF0FF03 		mov	r3, #255
 634 002e 8AE0     		b	.L40
 635              	.L39:
 301:.\Generated_Source\PSoC5/sdspi_1_sdspi.c **** 		/* Send command packet */
 302:.\Generated_Source\PSoC5/sdspi_1_sdspi.c **** 		xmit_spi(0x40 | CMD55);			/* Start + Command index */
 636              		.loc 1 302 0
 637 0030 4FF07700 		mov	r0, #119
 638 0034 FFF7FEFF 		bl	xchg_spi
 303:.\Generated_Source\PSoC5/sdspi_1_sdspi.c **** 		xmit_spi((BYTE)0);				/* Argument[31..24] */
 639              		.loc 1 303 0
 640 0038 4FF00000 		mov	r0, #0
 641 003c FFF7FEFF 		bl	xchg_spi
 304:.\Generated_Source\PSoC5/sdspi_1_sdspi.c **** 		xmit_spi((BYTE)0);				/* Argument[23..16] */
 642              		.loc 1 304 0
 643 0040 4FF00000 		mov	r0, #0
 644 0044 FFF7FEFF 		bl	xchg_spi
 305:.\Generated_Source\PSoC5/sdspi_1_sdspi.c **** 		xmit_spi((BYTE)0);				/* Argument[15..8] */
 645              		.loc 1 305 0
 646 0048 4FF00000 		mov	r0, #0
 647 004c FFF7FEFF 		bl	xchg_spi
 306:.\Generated_Source\PSoC5/sdspi_1_sdspi.c **** 		xmit_spi((BYTE)0);				/* Argument[7..0] */
 648              		.loc 1 306 0
 649 0050 4FF00000 		mov	r0, #0
 650 0054 FFF7FEFF 		bl	xchg_spi
 307:.\Generated_Source\PSoC5/sdspi_1_sdspi.c **** 		xmit_spi(0x01);					/* Dummy CRC + Stop */
 651              		.loc 1 307 0
 652 0058 4FF00100 		mov	r0, #1
 653 005c FFF7FEFF 		bl	xchg_spi
 308:.\Generated_Source\PSoC5/sdspi_1_sdspi.c **** 	
 309:.\Generated_Source\PSoC5/sdspi_1_sdspi.c **** 		/* Receive command response */
 310:.\Generated_Source\PSoC5/sdspi_1_sdspi.c **** 		n = 10;							/* Wait for a valid response in timeout of 10 attempts */
 654              		.loc 1 310 0
 655 0060 4FF00A03 		mov	r3, #10
ARM GAS  C:\Users\SUZUKI~1\AppData\Local\Temp\ccDED0md.s 			page 18


 656 0064 BB73     		strb	r3, [r7, #14]
 657              	.L42:
 311:.\Generated_Source\PSoC5/sdspi_1_sdspi.c **** 		do
 312:.\Generated_Source\PSoC5/sdspi_1_sdspi.c **** 			res = rcvr_spi();
 658              		.loc 1 312 0
 659 0066 4FF0FF00 		mov	r0, #255
 660 006a FFF7FEFF 		bl	xchg_spi
 661 006e 0346     		mov	r3, r0
 662 0070 FB73     		strb	r3, [r7, #15]
 313:.\Generated_Source\PSoC5/sdspi_1_sdspi.c **** 		while ((res & 0x80) && --n);
 663              		.loc 1 313 0
 664 0072 FB7B     		ldrb	r3, [r7, #15]	@ zero_extendqisi2
 665 0074 5BB2     		sxtb	r3, r3
 666 0076 002B     		cmp	r3, #0
 667 0078 06DA     		bge	.L41
 668 007a BB7B     		ldrb	r3, [r7, #14]
 669 007c 03F1FF33 		add	r3, r3, #-1
 670 0080 BB73     		strb	r3, [r7, #14]
 671 0082 BB7B     		ldrb	r3, [r7, #14]	@ zero_extendqisi2
 672 0084 002B     		cmp	r3, #0
 673 0086 EED1     		bne	.L42
 674              	.L41:
 314:.\Generated_Source\PSoC5/sdspi_1_sdspi.c **** 	
 315:.\Generated_Source\PSoC5/sdspi_1_sdspi.c **** //		return res;			/* Return with the response value */
 316:.\Generated_Source\PSoC5/sdspi_1_sdspi.c **** 		if (res > 1) return res;
 675              		.loc 1 316 0
 676 0088 FB7B     		ldrb	r3, [r7, #15]	@ zero_extendqisi2
 677 008a 012B     		cmp	r3, #1
 678 008c 01D9     		bls	.L38
 679 008e FB7B     		ldrb	r3, [r7, #15]	@ zero_extendqisi2
 680 0090 59E0     		b	.L40
 681              	.L38:
 317:.\Generated_Source\PSoC5/sdspi_1_sdspi.c **** 	}
 318:.\Generated_Source\PSoC5/sdspi_1_sdspi.c **** 
 319:.\Generated_Source\PSoC5/sdspi_1_sdspi.c **** 	/* Select the card and wait for ready */
 320:.\Generated_Source\PSoC5/sdspi_1_sdspi.c **** 	deselect();
 682              		.loc 1 320 0
 683 0092 FFF7FEFF 		bl	deselect
 321:.\Generated_Source\PSoC5/sdspi_1_sdspi.c **** 	if(!select())
 684              		.loc 1 321 0
 685 0096 FFF7FEFF 		bl	select
 686 009a 0346     		mov	r3, r0
 687 009c 002B     		cmp	r3, #0
 688 009e 02D1     		bne	.L43
 322:.\Generated_Source\PSoC5/sdspi_1_sdspi.c **** 	{
 323:.\Generated_Source\PSoC5/sdspi_1_sdspi.c **** 		return 0xFF;
 689              		.loc 1 323 0
 690 00a0 4FF0FF03 		mov	r3, #255
 691 00a4 4FE0     		b	.L40
 692              	.L43:
 324:.\Generated_Source\PSoC5/sdspi_1_sdspi.c **** 	}
 325:.\Generated_Source\PSoC5/sdspi_1_sdspi.c **** 	/* Send command packet */
 326:.\Generated_Source\PSoC5/sdspi_1_sdspi.c **** 	xmit_spi(0x40 | cmd);			/* Start + Command index */
 693              		.loc 1 326 0
 694 00a6 FB79     		ldrb	r3, [r7, #7]
 695 00a8 43F04003 		orr	r3, r3, #64
 696 00ac DBB2     		uxtb	r3, r3
ARM GAS  C:\Users\SUZUKI~1\AppData\Local\Temp\ccDED0md.s 			page 19


 697 00ae 1846     		mov	r0, r3
 698 00b0 FFF7FEFF 		bl	xchg_spi
 327:.\Generated_Source\PSoC5/sdspi_1_sdspi.c **** 	xmit_spi((BYTE)(arg >> 24));	/* Argument[31..24] */
 699              		.loc 1 327 0
 700 00b4 3B68     		ldr	r3, [r7, #0]
 701 00b6 4FEA1363 		lsr	r3, r3, #24
 702 00ba DBB2     		uxtb	r3, r3
 703 00bc 1846     		mov	r0, r3
 704 00be FFF7FEFF 		bl	xchg_spi
 328:.\Generated_Source\PSoC5/sdspi_1_sdspi.c **** 	xmit_spi((BYTE)(arg >> 16));	/* Argument[23..16] */
 705              		.loc 1 328 0
 706 00c2 3B68     		ldr	r3, [r7, #0]
 707 00c4 4FEA1343 		lsr	r3, r3, #16
 708 00c8 DBB2     		uxtb	r3, r3
 709 00ca 1846     		mov	r0, r3
 710 00cc FFF7FEFF 		bl	xchg_spi
 329:.\Generated_Source\PSoC5/sdspi_1_sdspi.c **** 	xmit_spi((BYTE)(arg >> 8));		/* Argument[15..8] */
 711              		.loc 1 329 0
 712 00d0 3B68     		ldr	r3, [r7, #0]
 713 00d2 4FEA1323 		lsr	r3, r3, #8
 714 00d6 DBB2     		uxtb	r3, r3
 715 00d8 1846     		mov	r0, r3
 716 00da FFF7FEFF 		bl	xchg_spi
 330:.\Generated_Source\PSoC5/sdspi_1_sdspi.c **** 	xmit_spi((BYTE)arg);			/* Argument[7..0] */
 717              		.loc 1 330 0
 718 00de 3B68     		ldr	r3, [r7, #0]
 719 00e0 DBB2     		uxtb	r3, r3
 720 00e2 1846     		mov	r0, r3
 721 00e4 FFF7FEFF 		bl	xchg_spi
 331:.\Generated_Source\PSoC5/sdspi_1_sdspi.c **** 	n = 0x01;						/* Dummy CRC + Stop */
 722              		.loc 1 331 0
 723 00e8 4FF00103 		mov	r3, #1
 724 00ec BB73     		strb	r3, [r7, #14]
 332:.\Generated_Source\PSoC5/sdspi_1_sdspi.c **** 	if (cmd == CMD0) n = 0x95;		/* Valid CRC for CMD0(0) */
 725              		.loc 1 332 0
 726 00ee FB79     		ldrb	r3, [r7, #7]	@ zero_extendqisi2
 727 00f0 002B     		cmp	r3, #0
 728 00f2 02D1     		bne	.L44
 729 00f4 6FF06A03 		mvn	r3, #106
 730 00f8 BB73     		strb	r3, [r7, #14]
 731              	.L44:
 333:.\Generated_Source\PSoC5/sdspi_1_sdspi.c **** 	if (cmd == CMD8) n = 0x87;		/* Valid CRC for CMD8(0x1AA) */
 732              		.loc 1 333 0
 733 00fa FB79     		ldrb	r3, [r7, #7]	@ zero_extendqisi2
 734 00fc 082B     		cmp	r3, #8
 735 00fe 02D1     		bne	.L45
 736 0100 6FF07803 		mvn	r3, #120
 737 0104 BB73     		strb	r3, [r7, #14]
 738              	.L45:
 334:.\Generated_Source\PSoC5/sdspi_1_sdspi.c **** 	xmit_spi(n);
 739              		.loc 1 334 0
 740 0106 BB7B     		ldrb	r3, [r7, #14]	@ zero_extendqisi2
 741 0108 1846     		mov	r0, r3
 742 010a FFF7FEFF 		bl	xchg_spi
 335:.\Generated_Source\PSoC5/sdspi_1_sdspi.c **** 	/* Receive command response */
 336:.\Generated_Source\PSoC5/sdspi_1_sdspi.c **** 	if (cmd == CMD12) rcvr_spi();	/* Skip a stuff byte when stop reading */
 743              		.loc 1 336 0
ARM GAS  C:\Users\SUZUKI~1\AppData\Local\Temp\ccDED0md.s 			page 20


 744 010e FB79     		ldrb	r3, [r7, #7]	@ zero_extendqisi2
 745 0110 0C2B     		cmp	r3, #12
 746 0112 03D1     		bne	.L46
 747 0114 4FF0FF00 		mov	r0, #255
 748 0118 FFF7FEFF 		bl	xchg_spi
 749              	.L46:
 337:.\Generated_Source\PSoC5/sdspi_1_sdspi.c **** 	n = 20;							/* Wait for a valid response in timeout of 10 attempts */
 750              		.loc 1 337 0
 751 011c 4FF01403 		mov	r3, #20
 752 0120 BB73     		strb	r3, [r7, #14]
 753              	.L48:
 338:.\Generated_Source\PSoC5/sdspi_1_sdspi.c **** 	do
 339:.\Generated_Source\PSoC5/sdspi_1_sdspi.c **** 		res = rcvr_spi();
 754              		.loc 1 339 0
 755 0122 4FF0FF00 		mov	r0, #255
 756 0126 FFF7FEFF 		bl	xchg_spi
 757 012a 0346     		mov	r3, r0
 758 012c FB73     		strb	r3, [r7, #15]
 340:.\Generated_Source\PSoC5/sdspi_1_sdspi.c **** 	while ((res & 0x80) && --n);
 759              		.loc 1 340 0
 760 012e FB7B     		ldrb	r3, [r7, #15]	@ zero_extendqisi2
 761 0130 5BB2     		sxtb	r3, r3
 762 0132 002B     		cmp	r3, #0
 763 0134 06DA     		bge	.L47
 764 0136 BB7B     		ldrb	r3, [r7, #14]
 765 0138 03F1FF33 		add	r3, r3, #-1
 766 013c BB73     		strb	r3, [r7, #14]
 767 013e BB7B     		ldrb	r3, [r7, #14]	@ zero_extendqisi2
 768 0140 002B     		cmp	r3, #0
 769 0142 EED1     		bne	.L48
 770              	.L47:
 341:.\Generated_Source\PSoC5/sdspi_1_sdspi.c **** 
 342:.\Generated_Source\PSoC5/sdspi_1_sdspi.c **** 	return res;			/* Return with the response value */
 771              		.loc 1 342 0
 772 0144 FB7B     		ldrb	r3, [r7, #15]	@ zero_extendqisi2
 773              	.L40:
 343:.\Generated_Source\PSoC5/sdspi_1_sdspi.c **** }
 774              		.loc 1 343 0
 775 0146 1846     		mov	r0, r3
 776 0148 07F11007 		add	r7, r7, #16
 777 014c BD46     		mov	sp, r7
 778 014e 80BD     		pop	{r7, pc}
 779              		.cfi_endproc
 780              	.LFE40:
 781              		.size	send_cmd, .-send_cmd
 782              		.section	.rodata
 783              		.align	2
 784              	.LC0:
 785 0000 494E4954 		.ascii	"INIT\015\012\000"
 785      0D0A00
 786 0007 00       		.align	2
 787              	.LC1:
 788 0008 434D4430 		.ascii	"CMD0 \015\012\000"
 788      200D0A00 
 789              		.align	2
 790              	.LC2:
 791 0010 434D4438 		.ascii	"CMD8 \015\012\000"
ARM GAS  C:\Users\SUZUKI~1\AppData\Local\Temp\ccDED0md.s 			page 21


 791      200D0A00 
 792              		.align	2
 793              	.LC3:
 794 0018 56646420 		.ascii	"Vdd OK \015\012\000"
 794      4F4B200D 
 794      0A00
 795 0022 0000     		.align	2
 796              	.LC4:
 797 0024 21434D44 		.ascii	"!CMD8 \000"
 797      382000
 798 002b 00       		.align	2
 799              	.LC5:
 800 002c 4E4F494E 		.ascii	"NOINIT\015\012\000"
 800      49540D0A 
 800      00
 801 0035 000000   		.align	2
 802              	.LC6:
 803 0038 4641494C 		.ascii	"FAILED!\015\012\000"
 803      4544210D 
 803      0A00
 804 0042 0000     		.align	2
 805              	.LC7:
 806 0044 52455452 		.ascii	"RETRN\015\012\000"
 806      4E0D0A00 
 807              		.section	.text.disk_initialize,"ax",%progbits
 808              		.align	2
 809              		.global	disk_initialize
 810              		.thumb
 811              		.thumb_func
 812              		.type	disk_initialize, %function
 813              	disk_initialize:
 814              	.LFB41:
 344:.\Generated_Source\PSoC5/sdspi_1_sdspi.c **** 
 345:.\Generated_Source\PSoC5/sdspi_1_sdspi.c **** 
 346:.\Generated_Source\PSoC5/sdspi_1_sdspi.c **** 
 347:.\Generated_Source\PSoC5/sdspi_1_sdspi.c **** /*--------------------------------------------------------------------------
 348:.\Generated_Source\PSoC5/sdspi_1_sdspi.c **** 
 349:.\Generated_Source\PSoC5/sdspi_1_sdspi.c ****    Public Functions
 350:.\Generated_Source\PSoC5/sdspi_1_sdspi.c **** 
 351:.\Generated_Source\PSoC5/sdspi_1_sdspi.c **** ---------------------------------------------------------------------------*/
 352:.\Generated_Source\PSoC5/sdspi_1_sdspi.c **** 
 353:.\Generated_Source\PSoC5/sdspi_1_sdspi.c **** 
 354:.\Generated_Source\PSoC5/sdspi_1_sdspi.c **** /*-----------------------------------------------------------------------*/
 355:.\Generated_Source\PSoC5/sdspi_1_sdspi.c **** /* Initialize Disk Drive                                                 */
 356:.\Generated_Source\PSoC5/sdspi_1_sdspi.c **** /*-----------------------------------------------------------------------*/
 357:.\Generated_Source\PSoC5/sdspi_1_sdspi.c **** 
 358:.\Generated_Source\PSoC5/sdspi_1_sdspi.c **** DSTATUS disk_initialize (
 359:.\Generated_Source\PSoC5/sdspi_1_sdspi.c **** 	BYTE drv		/* Physical drive nmuber (0) */
 360:.\Generated_Source\PSoC5/sdspi_1_sdspi.c **** )
 361:.\Generated_Source\PSoC5/sdspi_1_sdspi.c **** {
 815              		.loc 1 361 0
 816              		.cfi_startproc
 817              		@ args = 0, pretend = 0, frame = 16
 818              		@ frame_needed = 1, uses_anonymous_args = 0
 819 0000 90B5     		push	{r4, r7, lr}
 820              	.LCFI30:
 821              		.cfi_def_cfa_offset 12
ARM GAS  C:\Users\SUZUKI~1\AppData\Local\Temp\ccDED0md.s 			page 22


 822 0002 85B0     		sub	sp, sp, #20
 823              	.LCFI31:
 824              		.cfi_def_cfa_offset 32
 825 0004 00AF     		add	r7, sp, #0
 826              		.cfi_offset 14, -4
 827              		.cfi_offset 7, -8
 828              		.cfi_offset 4, -12
 829              	.LCFI32:
 830              		.cfi_def_cfa_register 7
 831 0006 0346     		mov	r3, r0
 832 0008 FB71     		strb	r3, [r7, #7]
 362:.\Generated_Source\PSoC5/sdspi_1_sdspi.c **** 	BYTE n, cmd, ty, ocr[4], res;
 363:.\Generated_Source\PSoC5/sdspi_1_sdspi.c **** 	
 364:.\Generated_Source\PSoC5/sdspi_1_sdspi.c **** 	UART_1_PutString("INIT\r\n");
 833              		.loc 1 364 0
 834 000a 40F20000 		movw	r0, #:lower16:.LC0
 835 000e C0F20000 		movt	r0, #:upper16:.LC0
 836 0012 FFF7FEFF 		bl	UART_1_PutString
 365:.\Generated_Source\PSoC5/sdspi_1_sdspi.c **** 	if (drv) return STA_NOINIT;			/* Supports only single drive */
 837              		.loc 1 365 0
 838 0016 FB79     		ldrb	r3, [r7, #7]	@ zero_extendqisi2
 839 0018 002B     		cmp	r3, #0
 840 001a 02D0     		beq	.L51
 841 001c 4FF00103 		mov	r3, #1
 842 0020 31E1     		b	.L52
 843              	.L51:
 366:.\Generated_Source\PSoC5/sdspi_1_sdspi.c **** 	if (Stat & STA_NODISK) return Stat;	/* No card in the socket */
 844              		.loc 1 366 0
 845 0022 40F20003 		movw	r3, #:lower16:Stat
 846 0026 C0F20003 		movt	r3, #:upper16:Stat
 847 002a 1B78     		ldrb	r3, [r3, #0]
 848 002c DBB2     		uxtb	r3, r3
 849 002e 03F00203 		and	r3, r3, #2
 850 0032 002B     		cmp	r3, #0
 851 0034 06D0     		beq	.L53
 852 0036 40F20003 		movw	r3, #:lower16:Stat
 853 003a C0F20003 		movt	r3, #:upper16:Stat
 854 003e 1B78     		ldrb	r3, [r3, #0]
 855 0040 DBB2     		uxtb	r3, r3
 856 0042 20E1     		b	.L52
 857              	.L53:
 367:.\Generated_Source\PSoC5/sdspi_1_sdspi.c **** 
 368:.\Generated_Source\PSoC5/sdspi_1_sdspi.c **** 	power_on();							/* Force socket power on */
 858              		.loc 1 368 0
 859 0044 FFF7FEFF 		bl	power_on
 369:.\Generated_Source\PSoC5/sdspi_1_sdspi.c **** 	FCLK_SLOW();
 370:.\Generated_Source\PSoC5/sdspi_1_sdspi.c **** 	for(n = 0; n < 30; n++)
 860              		.loc 1 370 0
 861 0048 4FF00003 		mov	r3, #0
 862 004c 3B73     		strb	r3, [r7, #12]
 863 004e 07E0     		b	.L54
 864              	.L55:
 371:.\Generated_Source\PSoC5/sdspi_1_sdspi.c **** 	{
 372:.\Generated_Source\PSoC5/sdspi_1_sdspi.c **** 		rcvr_spi();						/* 80 dummy clocks */
 865              		.loc 1 372 0
 866 0050 4FF0FF00 		mov	r0, #255
 867 0054 FFF7FEFF 		bl	xchg_spi
ARM GAS  C:\Users\SUZUKI~1\AppData\Local\Temp\ccDED0md.s 			page 23


 868              		.loc 1 370 0
 869 0058 3B7B     		ldrb	r3, [r7, #12]
 870 005a 03F10103 		add	r3, r3, #1
 871 005e 3B73     		strb	r3, [r7, #12]
 872              	.L54:
 873 0060 3B7B     		ldrb	r3, [r7, #12]	@ zero_extendqisi2
 874 0062 1D2B     		cmp	r3, #29
 875 0064 F4D9     		bls	.L55
 373:.\Generated_Source\PSoC5/sdspi_1_sdspi.c **** 	}
 374:.\Generated_Source\PSoC5/sdspi_1_sdspi.c **** 	ty = 0;
 876              		.loc 1 374 0
 877 0066 4FF00003 		mov	r3, #0
 878 006a BB73     		strb	r3, [r7, #14]
 375:.\Generated_Source\PSoC5/sdspi_1_sdspi.c **** 	if((res = send_cmd(CMD0, 0)) == 1)
 879              		.loc 1 375 0
 880 006c 4FF00000 		mov	r0, #0
 881 0070 4FF00001 		mov	r1, #0
 882 0074 FFF7FEFF 		bl	send_cmd
 883 0078 0346     		mov	r3, r0
 884 007a FB73     		strb	r3, [r7, #15]
 885 007c FB7B     		ldrb	r3, [r7, #15]	@ zero_extendqisi2
 886 007e 012B     		cmp	r3, #1
 887 0080 40F0CD80 		bne	.L56
 376:.\Generated_Source\PSoC5/sdspi_1_sdspi.c **** 	{									/* Enter Idle state */
 377:.\Generated_Source\PSoC5/sdspi_1_sdspi.c **** 		UART_1_PutString("CMD0 \r\n");
 888              		.loc 1 377 0
 889 0084 40F20000 		movw	r0, #:lower16:.LC1
 890 0088 C0F20000 		movt	r0, #:upper16:.LC1
 891 008c FFF7FEFF 		bl	UART_1_PutString
 378:.\Generated_Source\PSoC5/sdspi_1_sdspi.c **** 		SDTimer1 = 1000;					/* Initialization timeout of 1000 msec */
 892              		.loc 1 378 0
 893 0090 40F20003 		movw	r3, #:lower16:SDTimer1
 894 0094 C0F20003 		movt	r3, #:upper16:SDTimer1
 895 0098 4FF47A72 		mov	r2, #1000
 896 009c 1A60     		str	r2, [r3, #0]
 379:.\Generated_Source\PSoC5/sdspi_1_sdspi.c **** 		if(send_cmd(CMD8, 0x1AA) == 1)
 897              		.loc 1 379 0
 898 009e 4FF00800 		mov	r0, #8
 899 00a2 4FF4D571 		mov	r1, #426
 900 00a6 FFF7FEFF 		bl	send_cmd
 901 00aa 0346     		mov	r3, r0
 902 00ac 012B     		cmp	r3, #1
 903 00ae 6FD1     		bne	.L57
 380:.\Generated_Source\PSoC5/sdspi_1_sdspi.c **** 		{								/* SDv2? */
 381:.\Generated_Source\PSoC5/sdspi_1_sdspi.c **** 			UART_1_PutString("CMD8 \r\n");
 904              		.loc 1 381 0
 905 00b0 40F20000 		movw	r0, #:lower16:.LC2
 906 00b4 C0F20000 		movt	r0, #:upper16:.LC2
 907 00b8 FFF7FEFF 		bl	UART_1_PutString
 382:.\Generated_Source\PSoC5/sdspi_1_sdspi.c **** 			for(n = 0; n < 4; n++) ocr[n] = rcvr_spi();			/* Get trailing return value of R7 resp */
 908              		.loc 1 382 0
 909 00bc 4FF00003 		mov	r3, #0
 910 00c0 3B73     		strb	r3, [r7, #12]
 911 00c2 10E0     		b	.L58
 912              	.L59:
 913 00c4 3C7B     		ldrb	r4, [r7, #12]	@ zero_extendqisi2
 914 00c6 4FF0FF00 		mov	r0, #255
ARM GAS  C:\Users\SUZUKI~1\AppData\Local\Temp\ccDED0md.s 			page 24


 915 00ca FFF7FEFF 		bl	xchg_spi
 916 00ce 0346     		mov	r3, r0
 917 00d0 1A46     		mov	r2, r3
 918 00d2 07F11001 		add	r1, r7, #16
 919 00d6 01EB0403 		add	r3, r1, r4
 920 00da 03F8082C 		strb	r2, [r3, #-8]
 921 00de 3B7B     		ldrb	r3, [r7, #12]
 922 00e0 03F10103 		add	r3, r3, #1
 923 00e4 3B73     		strb	r3, [r7, #12]
 924              	.L58:
 925 00e6 3B7B     		ldrb	r3, [r7, #12]	@ zero_extendqisi2
 926 00e8 032B     		cmp	r3, #3
 927 00ea EBD9     		bls	.L59
 383:.\Generated_Source\PSoC5/sdspi_1_sdspi.c **** 			if(ocr[2] == 0x01 && ocr[3] == 0xAA)
 928              		.loc 1 383 0
 929 00ec BB7A     		ldrb	r3, [r7, #10]	@ zero_extendqisi2
 930 00ee 012B     		cmp	r3, #1
 931 00f0 40F08E80 		bne	.L74
 932 00f4 FB7A     		ldrb	r3, [r7, #11]	@ zero_extendqisi2
 933 00f6 AA2B     		cmp	r3, #170
 934 00f8 40F08C80 		bne	.L75
 384:.\Generated_Source\PSoC5/sdspi_1_sdspi.c **** 			{							/* The card can work at vdd range of 2.7-3.6V */
 385:.\Generated_Source\PSoC5/sdspi_1_sdspi.c **** 				UART_1_PutString("Vdd OK \r\n");
 935              		.loc 1 385 0
 936 00fc 40F20000 		movw	r0, #:lower16:.LC3
 937 0100 C0F20000 		movt	r0, #:upper16:.LC3
 938 0104 FFF7FEFF 		bl	UART_1_PutString
 939              	.L62:
 386:.\Generated_Source\PSoC5/sdspi_1_sdspi.c **** 				while(SDTimer1 && send_cmd(ACMD41, 0x40000000));	/* Wait for leaving idle state (ACMD41 with HC
 940              		.loc 1 386 0
 941 0108 40F20003 		movw	r3, #:lower16:SDTimer1
 942 010c C0F20003 		movt	r3, #:upper16:SDTimer1
 943 0110 1B68     		ldr	r3, [r3, #0]
 944 0112 002B     		cmp	r3, #0
 945 0114 08D0     		beq	.L61
 946 0116 4FF0A900 		mov	r0, #169
 947 011a 4FF08041 		mov	r1, #1073741824
 948 011e FFF7FEFF 		bl	send_cmd
 949 0122 0346     		mov	r3, r0
 950 0124 002B     		cmp	r3, #0
 951 0126 EFD1     		bne	.L62
 952              	.L61:
 387:.\Generated_Source\PSoC5/sdspi_1_sdspi.c **** 				if(SDTimer1 && send_cmd(CMD58, 0) == 0) {			/* Check CCS bit in the OCR */
 953              		.loc 1 387 0
 954 0128 40F20003 		movw	r3, #:lower16:SDTimer1
 955 012c C0F20003 		movt	r3, #:upper16:SDTimer1
 956 0130 1B68     		ldr	r3, [r3, #0]
 957 0132 002B     		cmp	r3, #0
 958 0134 70D0     		beq	.L76
 959 0136 4FF03A00 		mov	r0, #58
 960 013a 4FF00001 		mov	r1, #0
 961 013e FFF7FEFF 		bl	send_cmd
 962 0142 0346     		mov	r3, r0
 963 0144 002B     		cmp	r3, #0
 964 0146 69D1     		bne	.L77
 388:.\Generated_Source\PSoC5/sdspi_1_sdspi.c **** 					for(n = 0; n < 4; n++) ocr[n] = rcvr_spi();
 965              		.loc 1 388 0
ARM GAS  C:\Users\SUZUKI~1\AppData\Local\Temp\ccDED0md.s 			page 25


 966 0148 4FF00003 		mov	r3, #0
 967 014c 3B73     		strb	r3, [r7, #12]
 968 014e 10E0     		b	.L63
 969              	.L64:
 970 0150 3C7B     		ldrb	r4, [r7, #12]	@ zero_extendqisi2
 971 0152 4FF0FF00 		mov	r0, #255
 972 0156 FFF7FEFF 		bl	xchg_spi
 973 015a 0346     		mov	r3, r0
 974 015c 1A46     		mov	r2, r3
 975 015e 07F11001 		add	r1, r7, #16
 976 0162 01EB0403 		add	r3, r1, r4
 977 0166 03F8082C 		strb	r2, [r3, #-8]
 978 016a 3B7B     		ldrb	r3, [r7, #12]
 979 016c 03F10103 		add	r3, r3, #1
 980 0170 3B73     		strb	r3, [r7, #12]
 981              	.L63:
 982 0172 3B7B     		ldrb	r3, [r7, #12]	@ zero_extendqisi2
 983 0174 032B     		cmp	r3, #3
 984 0176 EBD9     		bls	.L64
 389:.\Generated_Source\PSoC5/sdspi_1_sdspi.c **** 					ty = (ocr[0] & 0x40) ? CT_SD2|CT_BLOCK : CT_SD2;	/* SDv2 */
 985              		.loc 1 389 0
 986 0178 3B7A     		ldrb	r3, [r7, #8]	@ zero_extendqisi2
 987 017a 03F04003 		and	r3, r3, #64
 988 017e 002B     		cmp	r3, #0
 989 0180 02D0     		beq	.L65
 990 0182 4FF00C03 		mov	r3, #12
 991 0186 01E0     		b	.L66
 992              	.L65:
 993 0188 4FF00403 		mov	r3, #4
 994              	.L66:
 995 018c BB73     		strb	r3, [r7, #14]
 996 018e 46E0     		b	.L56
 997              	.L57:
 390:.\Generated_Source\PSoC5/sdspi_1_sdspi.c **** 				}
 391:.\Generated_Source\PSoC5/sdspi_1_sdspi.c **** 			}
 392:.\Generated_Source\PSoC5/sdspi_1_sdspi.c **** 		}
 393:.\Generated_Source\PSoC5/sdspi_1_sdspi.c **** 		else
 394:.\Generated_Source\PSoC5/sdspi_1_sdspi.c **** 		{								/* SDv1 or MMCv3 */
 395:.\Generated_Source\PSoC5/sdspi_1_sdspi.c **** 			UART_1_PutString("!CMD8 ");
 998              		.loc 1 395 0
 999 0190 40F20000 		movw	r0, #:lower16:.LC4
 1000 0194 C0F20000 		movt	r0, #:upper16:.LC4
 1001 0198 FFF7FEFF 		bl	UART_1_PutString
 396:.\Generated_Source\PSoC5/sdspi_1_sdspi.c **** 			if(send_cmd(ACMD41, 0) <= 1)
 1002              		.loc 1 396 0
 1003 019c 4FF0A900 		mov	r0, #169
 1004 01a0 4FF00001 		mov	r1, #0
 1005 01a4 FFF7FEFF 		bl	send_cmd
 1006 01a8 0346     		mov	r3, r0
 1007 01aa 012B     		cmp	r3, #1
 1008 01ac 06D8     		bhi	.L67
 397:.\Generated_Source\PSoC5/sdspi_1_sdspi.c **** 			{
 398:.\Generated_Source\PSoC5/sdspi_1_sdspi.c **** 				ty = CT_SD1; cmd = ACMD41;	/* SDv1 */
 1009              		.loc 1 398 0
 1010 01ae 4FF00203 		mov	r3, #2
 1011 01b2 BB73     		strb	r3, [r7, #14]
 1012 01b4 6FF05603 		mvn	r3, #86
ARM GAS  C:\Users\SUZUKI~1\AppData\Local\Temp\ccDED0md.s 			page 26


 1013 01b8 7B73     		strb	r3, [r7, #13]
 1014 01ba 05E0     		b	.L68
 1015              	.L67:
 399:.\Generated_Source\PSoC5/sdspi_1_sdspi.c **** 			}
 400:.\Generated_Source\PSoC5/sdspi_1_sdspi.c **** 			else
 401:.\Generated_Source\PSoC5/sdspi_1_sdspi.c **** 			{
 402:.\Generated_Source\PSoC5/sdspi_1_sdspi.c **** 				ty = CT_MMC; cmd = CMD1;	/* MMCv3 */
 1016              		.loc 1 402 0
 1017 01bc 4FF00103 		mov	r3, #1
 1018 01c0 BB73     		strb	r3, [r7, #14]
 1019 01c2 4FF00103 		mov	r3, #1
 1020 01c6 7B73     		strb	r3, [r7, #13]
 1021              	.L68:
 403:.\Generated_Source\PSoC5/sdspi_1_sdspi.c **** 			}
 404:.\Generated_Source\PSoC5/sdspi_1_sdspi.c **** 			while(SDTimer1 && send_cmd(cmd, 0));		/* Wait for leaving idle state */
 1022              		.loc 1 404 0
 1023 01c8 40F20003 		movw	r3, #:lower16:SDTimer1
 1024 01cc C0F20003 		movt	r3, #:upper16:SDTimer1
 1025 01d0 1B68     		ldr	r3, [r3, #0]
 1026 01d2 002B     		cmp	r3, #0
 1027 01d4 08D0     		beq	.L69
 1028 01d6 7B7B     		ldrb	r3, [r7, #13]	@ zero_extendqisi2
 1029 01d8 1846     		mov	r0, r3
 1030 01da 4FF00001 		mov	r1, #0
 1031 01de FFF7FEFF 		bl	send_cmd
 1032 01e2 0346     		mov	r3, r0
 1033 01e4 002B     		cmp	r3, #0
 1034 01e6 EFD1     		bne	.L68
 1035              	.L69:
 405:.\Generated_Source\PSoC5/sdspi_1_sdspi.c **** 			if(!SDTimer1 || send_cmd(CMD16, 512) != 0)	/* Set read/write block length to 512 */
 1036              		.loc 1 405 0
 1037 01e8 40F20003 		movw	r3, #:lower16:SDTimer1
 1038 01ec C0F20003 		movt	r3, #:upper16:SDTimer1
 1039 01f0 1B68     		ldr	r3, [r3, #0]
 1040 01f2 002B     		cmp	r3, #0
 1041 01f4 08D0     		beq	.L70
 1042 01f6 4FF01000 		mov	r0, #16
 1043 01fa 4FF40071 		mov	r1, #512
 1044 01fe FFF7FEFF 		bl	send_cmd
 1045 0202 0346     		mov	r3, r0
 1046 0204 002B     		cmp	r3, #0
 1047 0206 0AD0     		beq	.L56
 1048              	.L70:
 406:.\Generated_Source\PSoC5/sdspi_1_sdspi.c **** 				ty = 0;
 1049              		.loc 1 406 0
 1050 0208 4FF00003 		mov	r3, #0
 1051 020c BB73     		strb	r3, [r7, #14]
 1052 020e 06E0     		b	.L56
 1053              	.L74:
 1054              		.loc 1 389 0
 1055 0210 00BF     		nop
 1056 0212 04E0     		b	.L56
 1057              	.L75:
 1058 0214 00BF     		nop
 1059 0216 02E0     		b	.L56
 1060              	.L76:
 1061 0218 00BF     		nop
ARM GAS  C:\Users\SUZUKI~1\AppData\Local\Temp\ccDED0md.s 			page 27


 1062 021a 00E0     		b	.L56
 1063              	.L77:
 1064 021c 00BF     		nop
 1065              	.L56:
 407:.\Generated_Source\PSoC5/sdspi_1_sdspi.c **** 		}
 408:.\Generated_Source\PSoC5/sdspi_1_sdspi.c **** 	}
 409:.\Generated_Source\PSoC5/sdspi_1_sdspi.c **** 	CardType = ty;
 1066              		.loc 1 409 0
 1067 021e BA7B     		ldrb	r2, [r7, #14]	@ zero_extendqisi2
 1068 0220 40F20003 		movw	r3, #:lower16:CardType
 1069 0224 C0F20003 		movt	r3, #:upper16:CardType
 1070 0228 1A60     		str	r2, [r3, #0]
 410:.\Generated_Source\PSoC5/sdspi_1_sdspi.c **** 	deselect();
 1071              		.loc 1 410 0
 1072 022a FFF7FEFF 		bl	deselect
 411:.\Generated_Source\PSoC5/sdspi_1_sdspi.c **** 	
 412:.\Generated_Source\PSoC5/sdspi_1_sdspi.c **** 	if(ty)
 1073              		.loc 1 412 0
 1074 022e BB7B     		ldrb	r3, [r7, #14]	@ zero_extendqisi2
 1075 0230 002B     		cmp	r3, #0
 1076 0232 14D0     		beq	.L71
 413:.\Generated_Source\PSoC5/sdspi_1_sdspi.c **** 	{							/* Initialization succeded */
 414:.\Generated_Source\PSoC5/sdspi_1_sdspi.c **** 		UART_1_PutString("NOINIT\r\n");
 1077              		.loc 1 414 0
 1078 0234 40F20000 		movw	r0, #:lower16:.LC5
 1079 0238 C0F20000 		movt	r0, #:upper16:.LC5
 1080 023c FFF7FEFF 		bl	UART_1_PutString
 415:.\Generated_Source\PSoC5/sdspi_1_sdspi.c **** 		Stat &= ~STA_NOINIT;	/* Clear STA_NOINIT */
 1081              		.loc 1 415 0
 1082 0240 40F20003 		movw	r3, #:lower16:Stat
 1083 0244 C0F20003 		movt	r3, #:upper16:Stat
 1084 0248 1B78     		ldrb	r3, [r3, #0]
 1085 024a DBB2     		uxtb	r3, r3
 1086 024c 1A46     		mov	r2, r3
 1087 024e 02F0FE02 		and	r2, r2, #254
 1088 0252 40F20003 		movw	r3, #:lower16:Stat
 1089 0256 C0F20003 		movt	r3, #:upper16:Stat
 1090 025a 1A70     		strb	r2, [r3, #0]
 1091 025c 07E0     		b	.L72
 1092              	.L71:
 416:.\Generated_Source\PSoC5/sdspi_1_sdspi.c **** 		FCLK_FAST();
 417:.\Generated_Source\PSoC5/sdspi_1_sdspi.c **** 	}
 418:.\Generated_Source\PSoC5/sdspi_1_sdspi.c **** 	else
 419:.\Generated_Source\PSoC5/sdspi_1_sdspi.c **** 	{							/* Initialization failed */
 420:.\Generated_Source\PSoC5/sdspi_1_sdspi.c **** 		UART_1_PutString("FAILED!\r\n");
 1093              		.loc 1 420 0
 1094 025e 40F20000 		movw	r0, #:lower16:.LC6
 1095 0262 C0F20000 		movt	r0, #:upper16:.LC6
 1096 0266 FFF7FEFF 		bl	UART_1_PutString
 421:.\Generated_Source\PSoC5/sdspi_1_sdspi.c **** 		power_off();
 1097              		.loc 1 421 0
 1098 026a FFF7FEFF 		bl	power_off
 1099              	.L72:
 422:.\Generated_Source\PSoC5/sdspi_1_sdspi.c **** 	}
 423:.\Generated_Source\PSoC5/sdspi_1_sdspi.c **** 	UART_1_PutString("RETRN\r\n");
 1100              		.loc 1 423 0
 1101 026e 40F20000 		movw	r0, #:lower16:.LC7
ARM GAS  C:\Users\SUZUKI~1\AppData\Local\Temp\ccDED0md.s 			page 28


 1102 0272 C0F20000 		movt	r0, #:upper16:.LC7
 1103 0276 FFF7FEFF 		bl	UART_1_PutString
 424:.\Generated_Source\PSoC5/sdspi_1_sdspi.c **** 	return Stat;
 1104              		.loc 1 424 0
 1105 027a 40F20003 		movw	r3, #:lower16:Stat
 1106 027e C0F20003 		movt	r3, #:upper16:Stat
 1107 0282 1B78     		ldrb	r3, [r3, #0]
 1108 0284 DBB2     		uxtb	r3, r3
 1109              	.L52:
 425:.\Generated_Source\PSoC5/sdspi_1_sdspi.c **** }
 1110              		.loc 1 425 0
 1111 0286 1846     		mov	r0, r3
 1112 0288 07F11407 		add	r7, r7, #20
 1113 028c BD46     		mov	sp, r7
 1114 028e 90BD     		pop	{r4, r7, pc}
 1115              		.cfi_endproc
 1116              	.LFE41:
 1117              		.size	disk_initialize, .-disk_initialize
 1118              		.section	.text.disk_status,"ax",%progbits
 1119              		.align	2
 1120              		.global	disk_status
 1121              		.thumb
 1122              		.thumb_func
 1123              		.type	disk_status, %function
 1124              	disk_status:
 1125              	.LFB42:
 426:.\Generated_Source\PSoC5/sdspi_1_sdspi.c **** 
 427:.\Generated_Source\PSoC5/sdspi_1_sdspi.c **** 
 428:.\Generated_Source\PSoC5/sdspi_1_sdspi.c **** 
 429:.\Generated_Source\PSoC5/sdspi_1_sdspi.c **** /*-----------------------------------------------------------------------*/
 430:.\Generated_Source\PSoC5/sdspi_1_sdspi.c **** /* Get Disk Status                                                       */
 431:.\Generated_Source\PSoC5/sdspi_1_sdspi.c **** /*-----------------------------------------------------------------------*/
 432:.\Generated_Source\PSoC5/sdspi_1_sdspi.c **** 
 433:.\Generated_Source\PSoC5/sdspi_1_sdspi.c **** DSTATUS disk_status (
 434:.\Generated_Source\PSoC5/sdspi_1_sdspi.c **** 	BYTE drv		/* Physical drive nmuber (0) */
 435:.\Generated_Source\PSoC5/sdspi_1_sdspi.c **** )
 436:.\Generated_Source\PSoC5/sdspi_1_sdspi.c **** {
 1126              		.loc 1 436 0
 1127              		.cfi_startproc
 1128              		@ args = 0, pretend = 0, frame = 8
 1129              		@ frame_needed = 1, uses_anonymous_args = 0
 1130              		@ link register save eliminated.
 1131 0000 80B4     		push	{r7}
 1132              	.LCFI33:
 1133              		.cfi_def_cfa_offset 4
 1134 0002 83B0     		sub	sp, sp, #12
 1135              	.LCFI34:
 1136              		.cfi_def_cfa_offset 16
 1137 0004 00AF     		add	r7, sp, #0
 1138              		.cfi_offset 7, -4
 1139              	.LCFI35:
 1140              		.cfi_def_cfa_register 7
 1141 0006 0346     		mov	r3, r0
 1142 0008 FB71     		strb	r3, [r7, #7]
 437:.\Generated_Source\PSoC5/sdspi_1_sdspi.c **** 	if (drv) return STA_NOINIT;		/* Supports only single drive */
 1143              		.loc 1 437 0
 1144 000a FB79     		ldrb	r3, [r7, #7]	@ zero_extendqisi2
ARM GAS  C:\Users\SUZUKI~1\AppData\Local\Temp\ccDED0md.s 			page 29


 1145 000c 002B     		cmp	r3, #0
 1146 000e 02D0     		beq	.L79
 1147 0010 4FF00103 		mov	r3, #1
 1148 0014 05E0     		b	.L80
 1149              	.L79:
 438:.\Generated_Source\PSoC5/sdspi_1_sdspi.c **** 	return Stat;
 1150              		.loc 1 438 0
 1151 0016 40F20003 		movw	r3, #:lower16:Stat
 1152 001a C0F20003 		movt	r3, #:upper16:Stat
 1153 001e 1B78     		ldrb	r3, [r3, #0]
 1154 0020 DBB2     		uxtb	r3, r3
 1155              	.L80:
 439:.\Generated_Source\PSoC5/sdspi_1_sdspi.c **** }
 1156              		.loc 1 439 0
 1157 0022 1846     		mov	r0, r3
 1158 0024 07F10C07 		add	r7, r7, #12
 1159 0028 BD46     		mov	sp, r7
 1160 002a 80BC     		pop	{r7}
 1161 002c 7047     		bx	lr
 1162              		.cfi_endproc
 1163              	.LFE42:
 1164              		.size	disk_status, .-disk_status
 1165 002e 00BF     		.section	.text.disk_read,"ax",%progbits
 1166              		.align	2
 1167              		.global	disk_read
 1168              		.thumb
 1169              		.thumb_func
 1170              		.type	disk_read, %function
 1171              	disk_read:
 1172              	.LFB43:
 440:.\Generated_Source\PSoC5/sdspi_1_sdspi.c **** 
 441:.\Generated_Source\PSoC5/sdspi_1_sdspi.c **** 
 442:.\Generated_Source\PSoC5/sdspi_1_sdspi.c **** 
 443:.\Generated_Source\PSoC5/sdspi_1_sdspi.c **** /*-----------------------------------------------------------------------*/
 444:.\Generated_Source\PSoC5/sdspi_1_sdspi.c **** /* Read Sector(s)                                                        */
 445:.\Generated_Source\PSoC5/sdspi_1_sdspi.c **** /*-----------------------------------------------------------------------*/
 446:.\Generated_Source\PSoC5/sdspi_1_sdspi.c **** 
 447:.\Generated_Source\PSoC5/sdspi_1_sdspi.c **** DRESULT disk_read (
 448:.\Generated_Source\PSoC5/sdspi_1_sdspi.c **** 	BYTE drv,		/* Physical drive nmuber (0) */
 449:.\Generated_Source\PSoC5/sdspi_1_sdspi.c **** 	BYTE *buff,		/* Pointer to the data buffer to store read data */
 450:.\Generated_Source\PSoC5/sdspi_1_sdspi.c **** 	DWORD sector,	/* Start sector number (LBA) */
 451:.\Generated_Source\PSoC5/sdspi_1_sdspi.c **** 	BYTE count		/* Sector count (1..255) */
 452:.\Generated_Source\PSoC5/sdspi_1_sdspi.c **** )
 453:.\Generated_Source\PSoC5/sdspi_1_sdspi.c **** {
 1173              		.loc 1 453 0
 1174              		.cfi_startproc
 1175              		@ args = 0, pretend = 0, frame = 16
 1176              		@ frame_needed = 1, uses_anonymous_args = 0
 1177 0000 80B5     		push	{r7, lr}
 1178              	.LCFI36:
 1179              		.cfi_def_cfa_offset 8
 1180 0002 84B0     		sub	sp, sp, #16
 1181              	.LCFI37:
 1182              		.cfi_def_cfa_offset 24
 1183 0004 00AF     		add	r7, sp, #0
 1184              		.cfi_offset 14, -4
 1185              		.cfi_offset 7, -8
ARM GAS  C:\Users\SUZUKI~1\AppData\Local\Temp\ccDED0md.s 			page 30


 1186              	.LCFI38:
 1187              		.cfi_def_cfa_register 7
 1188 0006 B960     		str	r1, [r7, #8]
 1189 0008 7A60     		str	r2, [r7, #4]
 1190 000a 0246     		mov	r2, r0
 1191 000c FA73     		strb	r2, [r7, #15]
 1192 000e FB70     		strb	r3, [r7, #3]
 454:.\Generated_Source\PSoC5/sdspi_1_sdspi.c **** 	if (drv || !count) return RES_PARERR;
 1193              		.loc 1 454 0
 1194 0010 FB7B     		ldrb	r3, [r7, #15]	@ zero_extendqisi2
 1195 0012 002B     		cmp	r3, #0
 1196 0014 02D1     		bne	.L83
 1197 0016 FB78     		ldrb	r3, [r7, #3]	@ zero_extendqisi2
 1198 0018 002B     		cmp	r3, #0
 1199 001a 02D1     		bne	.L84
 1200              	.L83:
 1201 001c 4FF00403 		mov	r3, #4
 1202 0020 5FE0     		b	.L85
 1203              	.L84:
 455:.\Generated_Source\PSoC5/sdspi_1_sdspi.c **** 	if (Stat & STA_NOINIT) return RES_NOTRDY;
 1204              		.loc 1 455 0
 1205 0022 40F20003 		movw	r3, #:lower16:Stat
 1206 0026 C0F20003 		movt	r3, #:upper16:Stat
 1207 002a 1B78     		ldrb	r3, [r3, #0]
 1208 002c DBB2     		uxtb	r3, r3
 1209 002e 03F00103 		and	r3, r3, #1
 1210 0032 DBB2     		uxtb	r3, r3
 1211 0034 002B     		cmp	r3, #0
 1212 0036 02D0     		beq	.L86
 1213 0038 4FF00303 		mov	r3, #3
 1214 003c 51E0     		b	.L85
 1215              	.L86:
 456:.\Generated_Source\PSoC5/sdspi_1_sdspi.c **** 
 457:.\Generated_Source\PSoC5/sdspi_1_sdspi.c **** 	if (!(CardType & CT_BLOCK)) sector *= 512;	/* Convert to byte address if needed */
 1216              		.loc 1 457 0
 1217 003e 40F20003 		movw	r3, #:lower16:CardType
 1218 0042 C0F20003 		movt	r3, #:upper16:CardType
 1219 0046 1B68     		ldr	r3, [r3, #0]
 1220 0048 03F00803 		and	r3, r3, #8
 1221 004c 002B     		cmp	r3, #0
 1222 004e 03D1     		bne	.L87
 1223 0050 7B68     		ldr	r3, [r7, #4]
 1224 0052 4FEA4323 		lsl	r3, r3, #9
 1225 0056 7B60     		str	r3, [r7, #4]
 1226              	.L87:
 458:.\Generated_Source\PSoC5/sdspi_1_sdspi.c **** 
 459:.\Generated_Source\PSoC5/sdspi_1_sdspi.c **** 	if (count == 1) {		/* Single block read */
 1227              		.loc 1 459 0
 1228 0058 FB78     		ldrb	r3, [r7, #3]	@ zero_extendqisi2
 1229 005a 012B     		cmp	r3, #1
 1230 005c 13D1     		bne	.L88
 460:.\Generated_Source\PSoC5/sdspi_1_sdspi.c **** 		if ((send_cmd(CMD17, sector) == 0)	/* READ_SINGLE_BLOCK */
 1231              		.loc 1 460 0
 1232 005e 4FF01100 		mov	r0, #17
 1233 0062 7968     		ldr	r1, [r7, #4]
 1234 0064 FFF7FEFF 		bl	send_cmd
 1235 0068 0346     		mov	r3, r0
ARM GAS  C:\Users\SUZUKI~1\AppData\Local\Temp\ccDED0md.s 			page 31


 1236 006a 002B     		cmp	r3, #0
 1237 006c 2FD1     		bne	.L95
 461:.\Generated_Source\PSoC5/sdspi_1_sdspi.c **** 			&& rcvr_datablock(buff, 512))
 1238              		.loc 1 461 0
 1239 006e B868     		ldr	r0, [r7, #8]
 1240 0070 4FF40071 		mov	r1, #512
 1241 0074 FFF7FEFF 		bl	rcvr_datablock
 1242 0078 0346     		mov	r3, r0
 1243              		.loc 1 460 0
 1244 007a 002B     		cmp	r3, #0
 1245 007c 29D0     		beq	.L96
 462:.\Generated_Source\PSoC5/sdspi_1_sdspi.c **** 			count = 0;
 1246              		.loc 1 462 0
 1247 007e 4FF00003 		mov	r3, #0
 1248 0082 FB70     		strb	r3, [r7, #3]
 1249 0084 26E0     		b	.L90
 1250              	.L88:
 463:.\Generated_Source\PSoC5/sdspi_1_sdspi.c **** 	}
 464:.\Generated_Source\PSoC5/sdspi_1_sdspi.c **** 	else {				/* Multiple block read */
 465:.\Generated_Source\PSoC5/sdspi_1_sdspi.c **** 		if (send_cmd(CMD18, sector) == 0) {	/* READ_MULTIPLE_BLOCK */
 1251              		.loc 1 465 0
 1252 0086 4FF01200 		mov	r0, #18
 1253 008a 7968     		ldr	r1, [r7, #4]
 1254 008c FFF7FEFF 		bl	send_cmd
 1255 0090 0346     		mov	r3, r0
 1256 0092 002B     		cmp	r3, #0
 1257 0094 1ED1     		bne	.L90
 1258              	.L93:
 466:.\Generated_Source\PSoC5/sdspi_1_sdspi.c **** 			do {
 467:.\Generated_Source\PSoC5/sdspi_1_sdspi.c **** 				if (!rcvr_datablock(buff, 512)) break;
 1259              		.loc 1 467 0
 1260 0096 B868     		ldr	r0, [r7, #8]
 1261 0098 4FF40071 		mov	r1, #512
 1262 009c FFF7FEFF 		bl	rcvr_datablock
 1263 00a0 0346     		mov	r3, r0
 1264 00a2 002B     		cmp	r3, #0
 1265 00a4 0BD0     		beq	.L97
 1266              	.L91:
 468:.\Generated_Source\PSoC5/sdspi_1_sdspi.c **** 				buff += 512;
 1267              		.loc 1 468 0
 1268 00a6 BB68     		ldr	r3, [r7, #8]
 1269 00a8 03F50073 		add	r3, r3, #512
 1270 00ac BB60     		str	r3, [r7, #8]
 469:.\Generated_Source\PSoC5/sdspi_1_sdspi.c **** 			} while (--count);
 1271              		.loc 1 469 0
 1272 00ae FB78     		ldrb	r3, [r7, #3]
 1273 00b0 03F1FF33 		add	r3, r3, #-1
 1274 00b4 FB70     		strb	r3, [r7, #3]
 1275 00b6 FB78     		ldrb	r3, [r7, #3]	@ zero_extendqisi2
 1276 00b8 002B     		cmp	r3, #0
 1277 00ba ECD1     		bne	.L93
 1278 00bc 00E0     		b	.L92
 1279              	.L97:
 1280              		.loc 1 467 0
 1281 00be 00BF     		nop
 1282              	.L92:
 470:.\Generated_Source\PSoC5/sdspi_1_sdspi.c **** 			send_cmd(CMD12, 0);				/* STOP_TRANSMISSION */
ARM GAS  C:\Users\SUZUKI~1\AppData\Local\Temp\ccDED0md.s 			page 32


 1283              		.loc 1 470 0
 1284 00c0 4FF00C00 		mov	r0, #12
 1285 00c4 4FF00001 		mov	r1, #0
 1286 00c8 FFF7FEFF 		bl	send_cmd
 1287 00cc 02E0     		b	.L90
 1288              	.L95:
 1289              		.loc 1 462 0
 1290 00ce 00BF     		nop
 1291 00d0 00E0     		b	.L90
 1292              	.L96:
 1293 00d2 00BF     		nop
 1294              	.L90:
 471:.\Generated_Source\PSoC5/sdspi_1_sdspi.c **** 		}
 472:.\Generated_Source\PSoC5/sdspi_1_sdspi.c **** 	}
 473:.\Generated_Source\PSoC5/sdspi_1_sdspi.c **** 	deselect();
 1295              		.loc 1 473 0
 1296 00d4 FFF7FEFF 		bl	deselect
 474:.\Generated_Source\PSoC5/sdspi_1_sdspi.c **** 
 475:.\Generated_Source\PSoC5/sdspi_1_sdspi.c **** 	return count ? RES_ERROR : RES_OK;
 1297              		.loc 1 475 0
 1298 00d8 FB78     		ldrb	r3, [r7, #3]	@ zero_extendqisi2
 1299 00da 002B     		cmp	r3, #0
 1300 00dc 0CBF     		ite	eq
 1301 00de 0023     		moveq	r3, #0
 1302 00e0 0123     		movne	r3, #1
 1303              	.L85:
 476:.\Generated_Source\PSoC5/sdspi_1_sdspi.c **** }
 1304              		.loc 1 476 0
 1305 00e2 1846     		mov	r0, r3
 1306 00e4 07F11007 		add	r7, r7, #16
 1307 00e8 BD46     		mov	sp, r7
 1308 00ea 80BD     		pop	{r7, pc}
 1309              		.cfi_endproc
 1310              	.LFE43:
 1311              		.size	disk_read, .-disk_read
 1312              		.section	.text.disk_write,"ax",%progbits
 1313              		.align	2
 1314              		.global	disk_write
 1315              		.thumb
 1316              		.thumb_func
 1317              		.type	disk_write, %function
 1318              	disk_write:
 1319              	.LFB44:
 477:.\Generated_Source\PSoC5/sdspi_1_sdspi.c **** 
 478:.\Generated_Source\PSoC5/sdspi_1_sdspi.c **** 
 479:.\Generated_Source\PSoC5/sdspi_1_sdspi.c **** 
 480:.\Generated_Source\PSoC5/sdspi_1_sdspi.c **** /*-----------------------------------------------------------------------*/
 481:.\Generated_Source\PSoC5/sdspi_1_sdspi.c **** /* Write Sector(s)                                                       */
 482:.\Generated_Source\PSoC5/sdspi_1_sdspi.c **** /*-----------------------------------------------------------------------*/
 483:.\Generated_Source\PSoC5/sdspi_1_sdspi.c **** 
 484:.\Generated_Source\PSoC5/sdspi_1_sdspi.c **** #if _READONLY == 0
 485:.\Generated_Source\PSoC5/sdspi_1_sdspi.c **** DRESULT disk_write (
 486:.\Generated_Source\PSoC5/sdspi_1_sdspi.c **** 	BYTE drv,				/* Physical drive nmuber (0) */
 487:.\Generated_Source\PSoC5/sdspi_1_sdspi.c **** 	const BYTE *buff,		/* Pointer to the data to be written */
 488:.\Generated_Source\PSoC5/sdspi_1_sdspi.c **** 	DWORD sector,			/* Start sector number (LBA) */
 489:.\Generated_Source\PSoC5/sdspi_1_sdspi.c **** 	BYTE count				/* Sector count (1..255) */
 490:.\Generated_Source\PSoC5/sdspi_1_sdspi.c **** )
ARM GAS  C:\Users\SUZUKI~1\AppData\Local\Temp\ccDED0md.s 			page 33


 491:.\Generated_Source\PSoC5/sdspi_1_sdspi.c **** {
 1320              		.loc 1 491 0
 1321              		.cfi_startproc
 1322              		@ args = 0, pretend = 0, frame = 16
 1323              		@ frame_needed = 1, uses_anonymous_args = 0
 1324 0000 80B5     		push	{r7, lr}
 1325              	.LCFI39:
 1326              		.cfi_def_cfa_offset 8
 1327 0002 84B0     		sub	sp, sp, #16
 1328              	.LCFI40:
 1329              		.cfi_def_cfa_offset 24
 1330 0004 00AF     		add	r7, sp, #0
 1331              		.cfi_offset 14, -4
 1332              		.cfi_offset 7, -8
 1333              	.LCFI41:
 1334              		.cfi_def_cfa_register 7
 1335 0006 B960     		str	r1, [r7, #8]
 1336 0008 7A60     		str	r2, [r7, #4]
 1337 000a 0246     		mov	r2, r0
 1338 000c FA73     		strb	r2, [r7, #15]
 1339 000e FB70     		strb	r3, [r7, #3]
 492:.\Generated_Source\PSoC5/sdspi_1_sdspi.c **** 	if (drv || !count) return RES_PARERR;
 1340              		.loc 1 492 0
 1341 0010 FB7B     		ldrb	r3, [r7, #15]	@ zero_extendqisi2
 1342 0012 002B     		cmp	r3, #0
 1343 0014 02D1     		bne	.L99
 1344 0016 FB78     		ldrb	r3, [r7, #3]	@ zero_extendqisi2
 1345 0018 002B     		cmp	r3, #0
 1346 001a 02D1     		bne	.L100
 1347              	.L99:
 1348 001c 4FF00403 		mov	r3, #4
 1349 0020 81E0     		b	.L101
 1350              	.L100:
 493:.\Generated_Source\PSoC5/sdspi_1_sdspi.c **** 	if (Stat & STA_NOINIT) return RES_NOTRDY;
 1351              		.loc 1 493 0
 1352 0022 40F20003 		movw	r3, #:lower16:Stat
 1353 0026 C0F20003 		movt	r3, #:upper16:Stat
 1354 002a 1B78     		ldrb	r3, [r3, #0]
 1355 002c DBB2     		uxtb	r3, r3
 1356 002e 03F00103 		and	r3, r3, #1
 1357 0032 DBB2     		uxtb	r3, r3
 1358 0034 002B     		cmp	r3, #0
 1359 0036 02D0     		beq	.L102
 1360 0038 4FF00303 		mov	r3, #3
 1361 003c 73E0     		b	.L101
 1362              	.L102:
 494:.\Generated_Source\PSoC5/sdspi_1_sdspi.c **** 	if (Stat & STA_PROTECT) return RES_WRPRT;
 1363              		.loc 1 494 0
 1364 003e 40F20003 		movw	r3, #:lower16:Stat
 1365 0042 C0F20003 		movt	r3, #:upper16:Stat
 1366 0046 1B78     		ldrb	r3, [r3, #0]
 1367 0048 DBB2     		uxtb	r3, r3
 1368 004a 03F00403 		and	r3, r3, #4
 1369 004e 002B     		cmp	r3, #0
 1370 0050 02D0     		beq	.L103
 1371 0052 4FF00203 		mov	r3, #2
 1372 0056 66E0     		b	.L101
ARM GAS  C:\Users\SUZUKI~1\AppData\Local\Temp\ccDED0md.s 			page 34


 1373              	.L103:
 495:.\Generated_Source\PSoC5/sdspi_1_sdspi.c **** 
 496:.\Generated_Source\PSoC5/sdspi_1_sdspi.c **** 	if (!(CardType & CT_BLOCK)) sector *= 512;	/* Convert to byte address if needed */
 1374              		.loc 1 496 0
 1375 0058 40F20003 		movw	r3, #:lower16:CardType
 1376 005c C0F20003 		movt	r3, #:upper16:CardType
 1377 0060 1B68     		ldr	r3, [r3, #0]
 1378 0062 03F00803 		and	r3, r3, #8
 1379 0066 002B     		cmp	r3, #0
 1380 0068 03D1     		bne	.L104
 1381 006a 7B68     		ldr	r3, [r7, #4]
 1382 006c 4FEA4323 		lsl	r3, r3, #9
 1383 0070 7B60     		str	r3, [r7, #4]
 1384              	.L104:
 497:.\Generated_Source\PSoC5/sdspi_1_sdspi.c **** 
 498:.\Generated_Source\PSoC5/sdspi_1_sdspi.c **** 	if (count == 1) {		/* Single block write */
 1385              		.loc 1 498 0
 1386 0072 FB78     		ldrb	r3, [r7, #3]	@ zero_extendqisi2
 1387 0074 012B     		cmp	r3, #1
 1388 0076 13D1     		bne	.L105
 499:.\Generated_Source\PSoC5/sdspi_1_sdspi.c **** 		if ((send_cmd(CMD24, sector) == 0)	/* WRITE_BLOCK */
 1389              		.loc 1 499 0
 1390 0078 4FF01800 		mov	r0, #24
 1391 007c 7968     		ldr	r1, [r7, #4]
 1392 007e FFF7FEFF 		bl	send_cmd
 1393 0082 0346     		mov	r3, r0
 1394 0084 002B     		cmp	r3, #0
 1395 0086 44D1     		bne	.L113
 500:.\Generated_Source\PSoC5/sdspi_1_sdspi.c **** 			&& xmit_datablock(buff, 0xFE))
 1396              		.loc 1 500 0
 1397 0088 B868     		ldr	r0, [r7, #8]
 1398 008a 4FF0FE01 		mov	r1, #254
 1399 008e FFF7FEFF 		bl	xmit_datablock
 1400 0092 0346     		mov	r3, r0
 1401              		.loc 1 499 0
 1402 0094 002B     		cmp	r3, #0
 1403 0096 3ED0     		beq	.L114
 501:.\Generated_Source\PSoC5/sdspi_1_sdspi.c **** 			count = 0;
 1404              		.loc 1 501 0
 1405 0098 4FF00003 		mov	r3, #0
 1406 009c FB70     		strb	r3, [r7, #3]
 1407 009e 3BE0     		b	.L107
 1408              	.L105:
 502:.\Generated_Source\PSoC5/sdspi_1_sdspi.c **** 	}
 503:.\Generated_Source\PSoC5/sdspi_1_sdspi.c **** 	else {				/* Multiple block write */
 504:.\Generated_Source\PSoC5/sdspi_1_sdspi.c **** 		if (CardType & CT_SDC) send_cmd(ACMD23, count);
 1409              		.loc 1 504 0
 1410 00a0 40F20003 		movw	r3, #:lower16:CardType
 1411 00a4 C0F20003 		movt	r3, #:upper16:CardType
 1412 00a8 1B68     		ldr	r3, [r3, #0]
 1413 00aa 03F00603 		and	r3, r3, #6
 1414 00ae 002B     		cmp	r3, #0
 1415 00b0 05D0     		beq	.L108
 1416 00b2 FB78     		ldrb	r3, [r7, #3]	@ zero_extendqisi2
 1417 00b4 4FF09700 		mov	r0, #151
 1418 00b8 1946     		mov	r1, r3
 1419 00ba FFF7FEFF 		bl	send_cmd
ARM GAS  C:\Users\SUZUKI~1\AppData\Local\Temp\ccDED0md.s 			page 35


 1420              	.L108:
 505:.\Generated_Source\PSoC5/sdspi_1_sdspi.c **** 		if (send_cmd(CMD25, sector) == 0) {	/* WRITE_MULTIPLE_BLOCK */
 1421              		.loc 1 505 0
 1422 00be 4FF01900 		mov	r0, #25
 1423 00c2 7968     		ldr	r1, [r7, #4]
 1424 00c4 FFF7FEFF 		bl	send_cmd
 1425 00c8 0346     		mov	r3, r0
 1426 00ca 002B     		cmp	r3, #0
 1427 00cc 24D1     		bne	.L107
 1428              	.L111:
 506:.\Generated_Source\PSoC5/sdspi_1_sdspi.c **** 			do {
 507:.\Generated_Source\PSoC5/sdspi_1_sdspi.c **** 				if (!xmit_datablock(buff, 0xFC)) break;
 1429              		.loc 1 507 0
 1430 00ce B868     		ldr	r0, [r7, #8]
 1431 00d0 4FF0FC01 		mov	r1, #252
 1432 00d4 FFF7FEFF 		bl	xmit_datablock
 1433 00d8 0346     		mov	r3, r0
 1434 00da 002B     		cmp	r3, #0
 1435 00dc 0BD0     		beq	.L115
 1436              	.L109:
 508:.\Generated_Source\PSoC5/sdspi_1_sdspi.c **** 				buff += 512;
 1437              		.loc 1 508 0
 1438 00de BB68     		ldr	r3, [r7, #8]
 1439 00e0 03F50073 		add	r3, r3, #512
 1440 00e4 BB60     		str	r3, [r7, #8]
 509:.\Generated_Source\PSoC5/sdspi_1_sdspi.c **** 			} while (--count);
 1441              		.loc 1 509 0
 1442 00e6 FB78     		ldrb	r3, [r7, #3]
 1443 00e8 03F1FF33 		add	r3, r3, #-1
 1444 00ec FB70     		strb	r3, [r7, #3]
 1445 00ee FB78     		ldrb	r3, [r7, #3]	@ zero_extendqisi2
 1446 00f0 002B     		cmp	r3, #0
 1447 00f2 ECD1     		bne	.L111
 1448 00f4 00E0     		b	.L110
 1449              	.L115:
 1450              		.loc 1 507 0
 1451 00f6 00BF     		nop
 1452              	.L110:
 510:.\Generated_Source\PSoC5/sdspi_1_sdspi.c **** 			if (!xmit_datablock(0, 0xFD))	/* STOP_TRAN token */
 1453              		.loc 1 510 0
 1454 00f8 4FF00000 		mov	r0, #0
 1455 00fc 4FF0FD01 		mov	r1, #253
 1456 0100 FFF7FEFF 		bl	xmit_datablock
 1457 0104 0346     		mov	r3, r0
 1458 0106 002B     		cmp	r3, #0
 1459 0108 06D1     		bne	.L107
 511:.\Generated_Source\PSoC5/sdspi_1_sdspi.c **** 				count = 1;
 1460              		.loc 1 511 0
 1461 010a 4FF00103 		mov	r3, #1
 1462 010e FB70     		strb	r3, [r7, #3]
 1463 0110 02E0     		b	.L107
 1464              	.L113:
 1465              		.loc 1 501 0
 1466 0112 00BF     		nop
 1467 0114 00E0     		b	.L107
 1468              	.L114:
 1469 0116 00BF     		nop
ARM GAS  C:\Users\SUZUKI~1\AppData\Local\Temp\ccDED0md.s 			page 36


 1470              	.L107:
 512:.\Generated_Source\PSoC5/sdspi_1_sdspi.c **** 		}
 513:.\Generated_Source\PSoC5/sdspi_1_sdspi.c **** 	}
 514:.\Generated_Source\PSoC5/sdspi_1_sdspi.c **** 	deselect();
 1471              		.loc 1 514 0
 1472 0118 FFF7FEFF 		bl	deselect
 515:.\Generated_Source\PSoC5/sdspi_1_sdspi.c **** 
 516:.\Generated_Source\PSoC5/sdspi_1_sdspi.c **** 	return count ? RES_ERROR : RES_OK;
 1473              		.loc 1 516 0
 1474 011c FB78     		ldrb	r3, [r7, #3]	@ zero_extendqisi2
 1475 011e 002B     		cmp	r3, #0
 1476 0120 0CBF     		ite	eq
 1477 0122 0023     		moveq	r3, #0
 1478 0124 0123     		movne	r3, #1
 1479              	.L101:
 517:.\Generated_Source\PSoC5/sdspi_1_sdspi.c **** }
 1480              		.loc 1 517 0
 1481 0126 1846     		mov	r0, r3
 1482 0128 07F11007 		add	r7, r7, #16
 1483 012c BD46     		mov	sp, r7
 1484 012e 80BD     		pop	{r7, pc}
 1485              		.cfi_endproc
 1486              	.LFE44:
 1487              		.size	disk_write, .-disk_write
 1488              		.section	.text.disk_ioctl,"ax",%progbits
 1489              		.align	2
 1490              		.global	disk_ioctl
 1491              		.thumb
 1492              		.thumb_func
 1493              		.type	disk_ioctl, %function
 1494              	disk_ioctl:
 1495              	.LFB45:
 518:.\Generated_Source\PSoC5/sdspi_1_sdspi.c **** #endif /* _READONLY */
 519:.\Generated_Source\PSoC5/sdspi_1_sdspi.c **** 
 520:.\Generated_Source\PSoC5/sdspi_1_sdspi.c **** 
 521:.\Generated_Source\PSoC5/sdspi_1_sdspi.c **** 
 522:.\Generated_Source\PSoC5/sdspi_1_sdspi.c **** /*-----------------------------------------------------------------------*/
 523:.\Generated_Source\PSoC5/sdspi_1_sdspi.c **** /* Miscellaneous Functions                                               */
 524:.\Generated_Source\PSoC5/sdspi_1_sdspi.c **** /*-----------------------------------------------------------------------*/
 525:.\Generated_Source\PSoC5/sdspi_1_sdspi.c **** 
 526:.\Generated_Source\PSoC5/sdspi_1_sdspi.c **** DRESULT disk_ioctl (
 527:.\Generated_Source\PSoC5/sdspi_1_sdspi.c **** 	BYTE drv,		/* Physical drive nmuber (0) */
 528:.\Generated_Source\PSoC5/sdspi_1_sdspi.c **** 	BYTE ctrl,		/* Control code */
 529:.\Generated_Source\PSoC5/sdspi_1_sdspi.c **** 	void *buff		/* Buffer to send/receive data block */
 530:.\Generated_Source\PSoC5/sdspi_1_sdspi.c **** )
 531:.\Generated_Source\PSoC5/sdspi_1_sdspi.c **** {
 1496              		.loc 1 531 0
 1497              		.cfi_startproc
 1498              		@ args = 0, pretend = 0, frame = 40
 1499              		@ frame_needed = 1, uses_anonymous_args = 0
 1500 0000 90B5     		push	{r4, r7, lr}
 1501              	.LCFI42:
 1502              		.cfi_def_cfa_offset 12
 1503 0002 8BB0     		sub	sp, sp, #44
 1504              	.LCFI43:
 1505              		.cfi_def_cfa_offset 56
 1506 0004 00AF     		add	r7, sp, #0
ARM GAS  C:\Users\SUZUKI~1\AppData\Local\Temp\ccDED0md.s 			page 37


 1507              		.cfi_offset 14, -4
 1508              		.cfi_offset 7, -8
 1509              		.cfi_offset 4, -12
 1510              	.LCFI44:
 1511              		.cfi_def_cfa_register 7
 1512 0006 0B46     		mov	r3, r1
 1513 0008 3A60     		str	r2, [r7, #0]
 1514 000a 0246     		mov	r2, r0
 1515 000c FA71     		strb	r2, [r7, #7]
 1516 000e BB71     		strb	r3, [r7, #6]
 532:.\Generated_Source\PSoC5/sdspi_1_sdspi.c **** 	DRESULT res;
 533:.\Generated_Source\PSoC5/sdspi_1_sdspi.c **** 	BYTE n, csd[16], *ptr = buff;
 1517              		.loc 1 533 0
 1518 0010 3B68     		ldr	r3, [r7, #0]
 1519 0012 3B62     		str	r3, [r7, #32]
 534:.\Generated_Source\PSoC5/sdspi_1_sdspi.c **** 	DWORD csize;
 535:.\Generated_Source\PSoC5/sdspi_1_sdspi.c **** 
 536:.\Generated_Source\PSoC5/sdspi_1_sdspi.c **** 
 537:.\Generated_Source\PSoC5/sdspi_1_sdspi.c **** 	if (drv) return RES_PARERR;
 1520              		.loc 1 537 0
 1521 0014 FB79     		ldrb	r3, [r7, #7]	@ zero_extendqisi2
 1522 0016 002B     		cmp	r3, #0
 1523 0018 02D0     		beq	.L117
 1524 001a 4FF00403 		mov	r3, #4
 1525 001e CBE1     		b	.L118
 1526              	.L117:
 538:.\Generated_Source\PSoC5/sdspi_1_sdspi.c **** 	if (Stat & STA_NOINIT) return RES_NOTRDY;
 1527              		.loc 1 538 0
 1528 0020 40F20003 		movw	r3, #:lower16:Stat
 1529 0024 C0F20003 		movt	r3, #:upper16:Stat
 1530 0028 1B78     		ldrb	r3, [r3, #0]
 1531 002a DBB2     		uxtb	r3, r3
 1532 002c 03F00103 		and	r3, r3, #1
 1533 0030 DBB2     		uxtb	r3, r3
 1534 0032 002B     		cmp	r3, #0
 1535 0034 02D0     		beq	.L119
 1536 0036 4FF00303 		mov	r3, #3
 1537 003a BDE1     		b	.L118
 1538              	.L119:
 539:.\Generated_Source\PSoC5/sdspi_1_sdspi.c **** 
 540:.\Generated_Source\PSoC5/sdspi_1_sdspi.c **** 	res = RES_ERROR;
 1539              		.loc 1 540 0
 1540 003c 4FF00103 		mov	r3, #1
 1541 0040 BB77     		strb	r3, [r7, #30]
 541:.\Generated_Source\PSoC5/sdspi_1_sdspi.c **** 	switch (ctrl) {
 1542              		.loc 1 541 0
 1543 0042 BB79     		ldrb	r3, [r7, #6]	@ zero_extendqisi2
 1544 0044 0E2B     		cmp	r3, #14
 1545 0046 00F29581 		bhi	.L120
 1546 004a 01A2     		adr	r2, .L130
 1547 004c 52F823F0 		ldr	pc, [r2, r3, lsl #2]
 1548              		.align	2
 1549              	.L130:
 1550 0050 8D000000 		.word	.L121+1
 1551 0054 A5000000 		.word	.L122+1
 1552 0058 5D010000 		.word	.L123+1
 1553 005c 6D010000 		.word	.L124+1
ARM GAS  C:\Users\SUZUKI~1\AppData\Local\Temp\ccDED0md.s 			page 38


 1554 0060 75030000 		.word	.L120+1
 1555 0064 75030000 		.word	.L120+1
 1556 0068 75030000 		.word	.L120+1
 1557 006c 75030000 		.word	.L120+1
 1558 0070 75030000 		.word	.L120+1
 1559 0074 75030000 		.word	.L120+1
 1560 0078 8D020000 		.word	.L125+1
 1561 007c A5020000 		.word	.L126+1
 1562 0080 D1020000 		.word	.L127+1
 1563 0084 FD020000 		.word	.L128+1
 1564 0088 41030000 		.word	.L129+1
 1565              	.L121:
 542:.\Generated_Source\PSoC5/sdspi_1_sdspi.c **** 		case CTRL_SYNC :	/* Flush dirty buffer if present */
 543:.\Generated_Source\PSoC5/sdspi_1_sdspi.c **** 			if (select()) {
 1566              		.loc 1 543 0
 1567 008c FFF7FEFF 		bl	select
 1568 0090 0346     		mov	r3, r0
 1569 0092 002B     		cmp	r3, #0
 1570 0094 00F07281 		beq	.L150
 544:.\Generated_Source\PSoC5/sdspi_1_sdspi.c **** 				deselect();
 1571              		.loc 1 544 0
 1572 0098 FFF7FEFF 		bl	deselect
 545:.\Generated_Source\PSoC5/sdspi_1_sdspi.c **** 				res = RES_OK;
 1573              		.loc 1 545 0
 1574 009c 4FF00003 		mov	r3, #0
 1575 00a0 BB77     		strb	r3, [r7, #30]
 546:.\Generated_Source\PSoC5/sdspi_1_sdspi.c **** 			}
 547:.\Generated_Source\PSoC5/sdspi_1_sdspi.c **** 			break;
 1576              		.loc 1 547 0
 1577 00a2 86E1     		b	.L132
 1578              	.L122:
 548:.\Generated_Source\PSoC5/sdspi_1_sdspi.c **** 
 549:.\Generated_Source\PSoC5/sdspi_1_sdspi.c **** 		case GET_SECTOR_COUNT :	/* Get number of sectors on the disk (WORD) */
 550:.\Generated_Source\PSoC5/sdspi_1_sdspi.c **** 			if ((send_cmd(CMD9, 0) == 0) && rcvr_datablock(csd, 16)) {
 1579              		.loc 1 550 0
 1580 00a4 4FF00900 		mov	r0, #9
 1581 00a8 4FF00001 		mov	r1, #0
 1582 00ac FFF7FEFF 		bl	send_cmd
 1583 00b0 0346     		mov	r3, r0
 1584 00b2 002B     		cmp	r3, #0
 1585 00b4 40F06481 		bne	.L151
 1586 00b8 07F10C03 		add	r3, r7, #12
 1587 00bc 1846     		mov	r0, r3
 1588 00be 4FF01001 		mov	r1, #16
 1589 00c2 FFF7FEFF 		bl	rcvr_datablock
 1590 00c6 0346     		mov	r3, r0
 1591 00c8 002B     		cmp	r3, #0
 1592 00ca 00F05B81 		beq	.L152
 551:.\Generated_Source\PSoC5/sdspi_1_sdspi.c **** 				if ((csd[0] >> 6) == 1) {	/* SDv2? */
 1593              		.loc 1 551 0
 1594 00ce 3B7B     		ldrb	r3, [r7, #12]	@ zero_extendqisi2
 1595 00d0 4FEA9313 		lsr	r3, r3, #6
 1596 00d4 DBB2     		uxtb	r3, r3
 1597 00d6 012B     		cmp	r3, #1
 1598 00d8 0ED1     		bne	.L134
 552:.\Generated_Source\PSoC5/sdspi_1_sdspi.c **** 					csize = csd[9] + ((WORD)csd[8] << 8) + 1;
 1599              		.loc 1 552 0
ARM GAS  C:\Users\SUZUKI~1\AppData\Local\Temp\ccDED0md.s 			page 39


 1600 00da 7B7D     		ldrb	r3, [r7, #21]	@ zero_extendqisi2
 1601 00dc 1A46     		mov	r2, r3
 1602 00de 3B7D     		ldrb	r3, [r7, #20]	@ zero_extendqisi2
 1603 00e0 4FEA0323 		lsl	r3, r3, #8
 1604 00e4 1344     		add	r3, r2, r3
 1605 00e6 03F10103 		add	r3, r3, #1
 1606 00ea 7B62     		str	r3, [r7, #36]
 553:.\Generated_Source\PSoC5/sdspi_1_sdspi.c **** 					*(DWORD*)buff = (DWORD)csize << 10;
 1607              		.loc 1 553 0
 1608 00ec 3B68     		ldr	r3, [r7, #0]
 1609 00ee 7A6A     		ldr	r2, [r7, #36]
 1610 00f0 4FEA8222 		lsl	r2, r2, #10
 1611 00f4 1A60     		str	r2, [r3, #0]
 1612 00f6 2DE0     		b	.L135
 1613              	.L134:
 554:.\Generated_Source\PSoC5/sdspi_1_sdspi.c **** 				} else {					/* SDv1 or MMCv2 */
 555:.\Generated_Source\PSoC5/sdspi_1_sdspi.c **** 					n = (csd[5] & 15) + ((csd[10] & 128) >> 7) + ((csd[9] & 3) << 1) + 2;
 1614              		.loc 1 555 0
 1615 00f8 7B7C     		ldrb	r3, [r7, #17]	@ zero_extendqisi2
 1616 00fa 03F00F03 		and	r3, r3, #15
 1617 00fe BA7D     		ldrb	r2, [r7, #22]	@ zero_extendqisi2
 1618 0100 4FEAD212 		lsr	r2, r2, #7
 1619 0104 D2B2     		uxtb	r2, r2
 1620 0106 1344     		add	r3, r3, r2
 1621 0108 DAB2     		uxtb	r2, r3
 1622 010a 7B7D     		ldrb	r3, [r7, #21]	@ zero_extendqisi2
 1623 010c 03F00303 		and	r3, r3, #3
 1624 0110 4FEA4303 		lsl	r3, r3, #1
 1625 0114 DBB2     		uxtb	r3, r3
 1626 0116 1344     		add	r3, r2, r3
 1627 0118 DBB2     		uxtb	r3, r3
 1628 011a 03F10203 		add	r3, r3, #2
 1629 011e FB77     		strb	r3, [r7, #31]
 556:.\Generated_Source\PSoC5/sdspi_1_sdspi.c **** 					csize = (csd[8] >> 6) + ((WORD)csd[7] << 2) + ((WORD)(csd[6] & 3) << 10) + 1;
 1630              		.loc 1 556 0
 1631 0120 3B7D     		ldrb	r3, [r7, #20]	@ zero_extendqisi2
 1632 0122 4FEA9313 		lsr	r3, r3, #6
 1633 0126 DBB2     		uxtb	r3, r3
 1634 0128 1A46     		mov	r2, r3
 1635 012a FB7C     		ldrb	r3, [r7, #19]	@ zero_extendqisi2
 1636 012c 4FEA8303 		lsl	r3, r3, #2
 1637 0130 1A44     		add	r2, r2, r3
 1638 0132 BB7C     		ldrb	r3, [r7, #18]	@ zero_extendqisi2
 1639 0134 03F00303 		and	r3, r3, #3
 1640 0138 4FEA8323 		lsl	r3, r3, #10
 1641 013c 1344     		add	r3, r2, r3
 1642 013e 03F10103 		add	r3, r3, #1
 1643 0142 7B62     		str	r3, [r7, #36]
 557:.\Generated_Source\PSoC5/sdspi_1_sdspi.c **** 					*(DWORD*)buff = (DWORD)csize << (n - 9);
 1644              		.loc 1 557 0
 1645 0144 3B68     		ldr	r3, [r7, #0]
 1646 0146 FA7F     		ldrb	r2, [r7, #31]	@ zero_extendqisi2
 1647 0148 A2F10902 		sub	r2, r2, #9
 1648 014c 796A     		ldr	r1, [r7, #36]
 1649 014e 01FA02F2 		lsl	r2, r1, r2
 1650 0152 1A60     		str	r2, [r3, #0]
 1651              	.L135:
ARM GAS  C:\Users\SUZUKI~1\AppData\Local\Temp\ccDED0md.s 			page 40


 558:.\Generated_Source\PSoC5/sdspi_1_sdspi.c **** 				}
 559:.\Generated_Source\PSoC5/sdspi_1_sdspi.c **** 				res = RES_OK;
 1652              		.loc 1 559 0
 1653 0154 4FF00003 		mov	r3, #0
 1654 0158 BB77     		strb	r3, [r7, #30]
 560:.\Generated_Source\PSoC5/sdspi_1_sdspi.c **** 			}
 561:.\Generated_Source\PSoC5/sdspi_1_sdspi.c **** 			break;
 1655              		.loc 1 561 0
 1656 015a 2AE1     		b	.L132
 1657              	.L123:
 562:.\Generated_Source\PSoC5/sdspi_1_sdspi.c **** 
 563:.\Generated_Source\PSoC5/sdspi_1_sdspi.c **** 		case GET_SECTOR_SIZE :	/* Get sectors on the disk (WORD) */
 564:.\Generated_Source\PSoC5/sdspi_1_sdspi.c **** 			*(WORD*)buff = 512;
 1658              		.loc 1 564 0
 1659 015c 3B68     		ldr	r3, [r7, #0]
 1660 015e 4FF40072 		mov	r2, #512
 1661 0162 1A80     		strh	r2, [r3, #0]	@ movhi
 565:.\Generated_Source\PSoC5/sdspi_1_sdspi.c **** 			res = RES_OK;
 1662              		.loc 1 565 0
 1663 0164 4FF00003 		mov	r3, #0
 1664 0168 BB77     		strb	r3, [r7, #30]
 566:.\Generated_Source\PSoC5/sdspi_1_sdspi.c **** 			break;
 1665              		.loc 1 566 0
 1666 016a 22E1     		b	.L132
 1667              	.L124:
 567:.\Generated_Source\PSoC5/sdspi_1_sdspi.c **** 
 568:.\Generated_Source\PSoC5/sdspi_1_sdspi.c **** 		case GET_BLOCK_SIZE :	/* Get erase block size in unit of sectors (DWORD) */
 569:.\Generated_Source\PSoC5/sdspi_1_sdspi.c **** 			if (CardType & CT_SD2) {	/* SDv2? */
 1668              		.loc 1 569 0
 1669 016c 40F20003 		movw	r3, #:lower16:CardType
 1670 0170 C0F20003 		movt	r3, #:upper16:CardType
 1671 0174 1B68     		ldr	r3, [r3, #0]
 1672 0176 03F00403 		and	r3, r3, #4
 1673 017a 002B     		cmp	r3, #0
 1674 017c 35D0     		beq	.L136
 570:.\Generated_Source\PSoC5/sdspi_1_sdspi.c **** 				if (send_cmd(ACMD13, 0) == 0) {		/* Read SD status */
 1675              		.loc 1 570 0
 1676 017e 4FF08D00 		mov	r0, #141
 1677 0182 4FF00001 		mov	r1, #0
 1678 0186 FFF7FEFF 		bl	send_cmd
 1679 018a 0346     		mov	r3, r0
 1680 018c 002B     		cmp	r3, #0
 1681 018e 40F0FB80 		bne	.L153
 571:.\Generated_Source\PSoC5/sdspi_1_sdspi.c **** 					rcvr_spi();
 1682              		.loc 1 571 0
 1683 0192 4FF0FF00 		mov	r0, #255
 1684 0196 FFF7FEFF 		bl	xchg_spi
 572:.\Generated_Source\PSoC5/sdspi_1_sdspi.c **** 					if (rcvr_datablock(csd, 16)) {				/* Read partial block */
 1685              		.loc 1 572 0
 1686 019a 07F10C03 		add	r3, r7, #12
 1687 019e 1846     		mov	r0, r3
 1688 01a0 4FF01001 		mov	r1, #16
 1689 01a4 FFF7FEFF 		bl	rcvr_datablock
 1690 01a8 0346     		mov	r3, r0
 1691 01aa 002B     		cmp	r3, #0
 1692 01ac 00F0EE80 		beq	.L154
 573:.\Generated_Source\PSoC5/sdspi_1_sdspi.c **** 						for (n = 64 - 16; n; n--) rcvr_spi();	/* Purge trailing data */
ARM GAS  C:\Users\SUZUKI~1\AppData\Local\Temp\ccDED0md.s 			page 41


 1693              		.loc 1 573 0
 1694 01b0 4FF03003 		mov	r3, #48
 1695 01b4 FB77     		strb	r3, [r7, #31]
 1696 01b6 07E0     		b	.L138
 1697              	.L139:
 1698 01b8 4FF0FF00 		mov	r0, #255
 1699 01bc FFF7FEFF 		bl	xchg_spi
 1700 01c0 FB7F     		ldrb	r3, [r7, #31]
 1701 01c2 03F1FF33 		add	r3, r3, #-1
 1702 01c6 FB77     		strb	r3, [r7, #31]
 1703              	.L138:
 1704 01c8 FB7F     		ldrb	r3, [r7, #31]	@ zero_extendqisi2
 1705 01ca 002B     		cmp	r3, #0
 1706 01cc F4D1     		bne	.L139
 574:.\Generated_Source\PSoC5/sdspi_1_sdspi.c **** 						*(DWORD*)buff = 16UL << (csd[10] >> 4);
 1707              		.loc 1 574 0
 1708 01ce 3B68     		ldr	r3, [r7, #0]
 1709 01d0 BA7D     		ldrb	r2, [r7, #22]	@ zero_extendqisi2
 1710 01d2 4FEA1212 		lsr	r2, r2, #4
 1711 01d6 D2B2     		uxtb	r2, r2
 1712 01d8 4FF01001 		mov	r1, #16
 1713 01dc 01FA02F2 		lsl	r2, r1, r2
 1714 01e0 1A60     		str	r2, [r3, #0]
 575:.\Generated_Source\PSoC5/sdspi_1_sdspi.c **** 						res = RES_OK;
 1715              		.loc 1 575 0
 1716 01e2 4FF00003 		mov	r3, #0
 1717 01e6 BB77     		strb	r3, [r7, #30]
 576:.\Generated_Source\PSoC5/sdspi_1_sdspi.c **** 					}
 577:.\Generated_Source\PSoC5/sdspi_1_sdspi.c **** 				}
 578:.\Generated_Source\PSoC5/sdspi_1_sdspi.c **** 			} else {					/* SDv1 or MMCv3 */
 579:.\Generated_Source\PSoC5/sdspi_1_sdspi.c **** 				if ((send_cmd(CMD9, 0) == 0) && rcvr_datablock(csd, 16)) {	/* Read CSD */
 580:.\Generated_Source\PSoC5/sdspi_1_sdspi.c **** 					if (CardType & CT_SD1) {	/* SDv1 */
 581:.\Generated_Source\PSoC5/sdspi_1_sdspi.c **** 						*(DWORD*)buff = (((csd[10] & 63) << 1) + ((WORD)(csd[11] & 128) >> 7) + 1) << ((csd[13] >> 6)
 582:.\Generated_Source\PSoC5/sdspi_1_sdspi.c **** 					} else {					/* MMCv3 */
 583:.\Generated_Source\PSoC5/sdspi_1_sdspi.c **** 						*(DWORD*)buff = ((WORD)((csd[10] & 124) >> 2) + 1) * (((csd[11] & 3) << 3) + ((csd[11] & 224)
 584:.\Generated_Source\PSoC5/sdspi_1_sdspi.c **** 					}
 585:.\Generated_Source\PSoC5/sdspi_1_sdspi.c **** 					res = RES_OK;
 586:.\Generated_Source\PSoC5/sdspi_1_sdspi.c **** 				}
 587:.\Generated_Source\PSoC5/sdspi_1_sdspi.c **** 			}
 588:.\Generated_Source\PSoC5/sdspi_1_sdspi.c **** 			break;
 1718              		.loc 1 588 0
 1719 01e8 E3E0     		b	.L132
 1720              	.L136:
 1721              		.loc 1 579 0
 1722 01ea 4FF00900 		mov	r0, #9
 1723 01ee 4FF00001 		mov	r1, #0
 1724 01f2 FFF7FEFF 		bl	send_cmd
 1725 01f6 0346     		mov	r3, r0
 1726 01f8 002B     		cmp	r3, #0
 1727 01fa 40F0C980 		bne	.L155
 1728 01fe 07F10C03 		add	r3, r7, #12
 1729 0202 1846     		mov	r0, r3
 1730 0204 4FF01001 		mov	r1, #16
 1731 0208 FFF7FEFF 		bl	rcvr_datablock
 1732 020c 0346     		mov	r3, r0
 1733 020e 002B     		cmp	r3, #0
 1734 0210 00F0C080 		beq	.L156
ARM GAS  C:\Users\SUZUKI~1\AppData\Local\Temp\ccDED0md.s 			page 42


 1735              		.loc 1 580 0
 1736 0214 40F20003 		movw	r3, #:lower16:CardType
 1737 0218 C0F20003 		movt	r3, #:upper16:CardType
 1738 021c 1B68     		ldr	r3, [r3, #0]
 1739 021e 03F00203 		and	r3, r3, #2
 1740 0222 002B     		cmp	r3, #0
 1741 0224 16D0     		beq	.L141
 1742              		.loc 1 581 0
 1743 0226 3B68     		ldr	r3, [r7, #0]
 1744 0228 BA7D     		ldrb	r2, [r7, #22]	@ zero_extendqisi2
 1745 022a 02F03F02 		and	r2, r2, #63
 1746 022e 4FEA4201 		lsl	r1, r2, #1
 1747 0232 FA7D     		ldrb	r2, [r7, #23]	@ zero_extendqisi2
 1748 0234 4FEAD212 		lsr	r2, r2, #7
 1749 0238 D2B2     		uxtb	r2, r2
 1750 023a 0A44     		add	r2, r1, r2
 1751 023c 02F10101 		add	r1, r2, #1
 1752 0240 7A7E     		ldrb	r2, [r7, #25]	@ zero_extendqisi2
 1753 0242 4FEA9212 		lsr	r2, r2, #6
 1754 0246 D2B2     		uxtb	r2, r2
 1755 0248 02F1FF32 		add	r2, r2, #-1
 1756 024c 01FA02F2 		lsl	r2, r1, r2
 1757 0250 1A60     		str	r2, [r3, #0]
 1758 0252 17E0     		b	.L142
 1759              	.L141:
 1760              		.loc 1 583 0
 1761 0254 3B68     		ldr	r3, [r7, #0]
 1762 0256 BA7D     		ldrb	r2, [r7, #22]	@ zero_extendqisi2
 1763 0258 02F07C02 		and	r2, r2, #124
 1764 025c 4FEAA202 		asr	r2, r2, #2
 1765 0260 92B2     		uxth	r2, r2
 1766 0262 02F10102 		add	r2, r2, #1
 1767 0266 F97D     		ldrb	r1, [r7, #23]	@ zero_extendqisi2
 1768 0268 01F00301 		and	r1, r1, #3
 1769 026c 4FEAC100 		lsl	r0, r1, #3
 1770 0270 F97D     		ldrb	r1, [r7, #23]	@ zero_extendqisi2
 1771 0272 4FEA5111 		lsr	r1, r1, #5
 1772 0276 C9B2     		uxtb	r1, r1
 1773 0278 0144     		add	r1, r0, r1
 1774 027a 01F10101 		add	r1, r1, #1
 1775 027e 01FB02F2 		mul	r2, r1, r2
 1776 0282 1A60     		str	r2, [r3, #0]
 1777              	.L142:
 1778              		.loc 1 585 0
 1779 0284 4FF00003 		mov	r3, #0
 1780 0288 BB77     		strb	r3, [r7, #30]
 1781              		.loc 1 588 0
 1782 028a 92E0     		b	.L132
 1783              	.L125:
 589:.\Generated_Source\PSoC5/sdspi_1_sdspi.c **** 
 590:.\Generated_Source\PSoC5/sdspi_1_sdspi.c **** 		case MMC_GET_TYPE :		/* Get card type flags (1 byte) */
 591:.\Generated_Source\PSoC5/sdspi_1_sdspi.c **** 			*ptr = CardType;
 1784              		.loc 1 591 0
 1785 028c 40F20003 		movw	r3, #:lower16:CardType
 1786 0290 C0F20003 		movt	r3, #:upper16:CardType
 1787 0294 1B68     		ldr	r3, [r3, #0]
 1788 0296 DAB2     		uxtb	r2, r3
ARM GAS  C:\Users\SUZUKI~1\AppData\Local\Temp\ccDED0md.s 			page 43


 1789 0298 3B6A     		ldr	r3, [r7, #32]
 1790 029a 1A70     		strb	r2, [r3, #0]
 592:.\Generated_Source\PSoC5/sdspi_1_sdspi.c **** 			res = RES_OK;
 1791              		.loc 1 592 0
 1792 029c 4FF00003 		mov	r3, #0
 1793 02a0 BB77     		strb	r3, [r7, #30]
 593:.\Generated_Source\PSoC5/sdspi_1_sdspi.c **** 			break;
 1794              		.loc 1 593 0
 1795 02a2 86E0     		b	.L132
 1796              	.L126:
 594:.\Generated_Source\PSoC5/sdspi_1_sdspi.c **** 
 595:.\Generated_Source\PSoC5/sdspi_1_sdspi.c **** 		case MMC_GET_CSD :	/* Receive CSD as a data block (16 bytes) */
 596:.\Generated_Source\PSoC5/sdspi_1_sdspi.c **** 			if ((send_cmd(CMD9, 0) == 0)	/* READ_CSD */
 1797              		.loc 1 596 0
 1798 02a4 4FF00900 		mov	r0, #9
 1799 02a8 4FF00001 		mov	r1, #0
 1800 02ac FFF7FEFF 		bl	send_cmd
 1801 02b0 0346     		mov	r3, r0
 1802 02b2 002B     		cmp	r3, #0
 1803 02b4 70D1     		bne	.L157
 597:.\Generated_Source\PSoC5/sdspi_1_sdspi.c **** 				&& rcvr_datablock(buff, 16))
 1804              		.loc 1 597 0
 1805 02b6 3B68     		ldr	r3, [r7, #0]
 1806 02b8 1846     		mov	r0, r3
 1807 02ba 4FF01001 		mov	r1, #16
 1808 02be FFF7FEFF 		bl	rcvr_datablock
 1809 02c2 0346     		mov	r3, r0
 1810              		.loc 1 596 0
 1811 02c4 002B     		cmp	r3, #0
 1812 02c6 69D0     		beq	.L158
 598:.\Generated_Source\PSoC5/sdspi_1_sdspi.c **** 				res = RES_OK;
 1813              		.loc 1 598 0
 1814 02c8 4FF00003 		mov	r3, #0
 1815 02cc BB77     		strb	r3, [r7, #30]
 599:.\Generated_Source\PSoC5/sdspi_1_sdspi.c **** 			break;
 1816              		.loc 1 599 0
 1817 02ce 70E0     		b	.L132
 1818              	.L127:
 600:.\Generated_Source\PSoC5/sdspi_1_sdspi.c **** 
 601:.\Generated_Source\PSoC5/sdspi_1_sdspi.c **** 		case MMC_GET_CID :	/* Receive CID as a data block (16 bytes) */
 602:.\Generated_Source\PSoC5/sdspi_1_sdspi.c **** 			if ((send_cmd(CMD10, 0) == 0)	/* READ_CID */
 1819              		.loc 1 602 0
 1820 02d0 4FF00A00 		mov	r0, #10
 1821 02d4 4FF00001 		mov	r1, #0
 1822 02d8 FFF7FEFF 		bl	send_cmd
 1823 02dc 0346     		mov	r3, r0
 1824 02de 002B     		cmp	r3, #0
 1825 02e0 5ED1     		bne	.L159
 603:.\Generated_Source\PSoC5/sdspi_1_sdspi.c **** 				&& rcvr_datablock(buff, 16))
 1826              		.loc 1 603 0
 1827 02e2 3B68     		ldr	r3, [r7, #0]
 1828 02e4 1846     		mov	r0, r3
 1829 02e6 4FF01001 		mov	r1, #16
 1830 02ea FFF7FEFF 		bl	rcvr_datablock
 1831 02ee 0346     		mov	r3, r0
 1832              		.loc 1 602 0
 1833 02f0 002B     		cmp	r3, #0
ARM GAS  C:\Users\SUZUKI~1\AppData\Local\Temp\ccDED0md.s 			page 44


 1834 02f2 57D0     		beq	.L160
 604:.\Generated_Source\PSoC5/sdspi_1_sdspi.c **** 				res = RES_OK;
 1835              		.loc 1 604 0
 1836 02f4 4FF00003 		mov	r3, #0
 1837 02f8 BB77     		strb	r3, [r7, #30]
 605:.\Generated_Source\PSoC5/sdspi_1_sdspi.c **** 			break;
 1838              		.loc 1 605 0
 1839 02fa 5AE0     		b	.L132
 1840              	.L128:
 606:.\Generated_Source\PSoC5/sdspi_1_sdspi.c **** 
 607:.\Generated_Source\PSoC5/sdspi_1_sdspi.c **** 		case MMC_GET_OCR :	/* Receive OCR as an R3 resp (4 bytes) */
 608:.\Generated_Source\PSoC5/sdspi_1_sdspi.c **** 			if (send_cmd(CMD58, 0) == 0) {	/* READ_OCR */
 1841              		.loc 1 608 0
 1842 02fc 4FF03A00 		mov	r0, #58
 1843 0300 4FF00001 		mov	r1, #0
 1844 0304 FFF7FEFF 		bl	send_cmd
 1845 0308 0346     		mov	r3, r0
 1846 030a 002B     		cmp	r3, #0
 1847 030c 4CD1     		bne	.L161
 609:.\Generated_Source\PSoC5/sdspi_1_sdspi.c **** 				for (n = 0; n < 4; n++)
 1848              		.loc 1 609 0
 1849 030e 4FF00003 		mov	r3, #0
 1850 0312 FB77     		strb	r3, [r7, #31]
 1851 0314 0DE0     		b	.L146
 1852              	.L147:
 610:.\Generated_Source\PSoC5/sdspi_1_sdspi.c **** 					*((BYTE*)buff+n) = rcvr_spi();
 1853              		.loc 1 610 0
 1854 0316 3A68     		ldr	r2, [r7, #0]
 1855 0318 FB7F     		ldrb	r3, [r7, #31]	@ zero_extendqisi2
 1856 031a 02EB0304 		add	r4, r2, r3
 1857 031e 4FF0FF00 		mov	r0, #255
 1858 0322 FFF7FEFF 		bl	xchg_spi
 1859 0326 0346     		mov	r3, r0
 1860 0328 2370     		strb	r3, [r4, #0]
 1861              		.loc 1 609 0
 1862 032a FB7F     		ldrb	r3, [r7, #31]
 1863 032c 03F10103 		add	r3, r3, #1
 1864 0330 FB77     		strb	r3, [r7, #31]
 1865              	.L146:
 1866 0332 FB7F     		ldrb	r3, [r7, #31]	@ zero_extendqisi2
 1867 0334 032B     		cmp	r3, #3
 1868 0336 EED9     		bls	.L147
 611:.\Generated_Source\PSoC5/sdspi_1_sdspi.c **** 				res = RES_OK;
 1869              		.loc 1 611 0
 1870 0338 4FF00003 		mov	r3, #0
 1871 033c BB77     		strb	r3, [r7, #30]
 612:.\Generated_Source\PSoC5/sdspi_1_sdspi.c **** 			}
 613:.\Generated_Source\PSoC5/sdspi_1_sdspi.c **** 			break;
 1872              		.loc 1 613 0
 1873 033e 38E0     		b	.L132
 1874              	.L129:
 614:.\Generated_Source\PSoC5/sdspi_1_sdspi.c **** 
 615:.\Generated_Source\PSoC5/sdspi_1_sdspi.c **** 		case MMC_GET_SDSTAT :	/* Receive SD statsu as a data block (64 bytes) */
 616:.\Generated_Source\PSoC5/sdspi_1_sdspi.c **** 			if (send_cmd(ACMD13, 0) == 0) {	/* SD_STATUS */
 1875              		.loc 1 616 0
 1876 0340 4FF08D00 		mov	r0, #141
 1877 0344 4FF00001 		mov	r1, #0
ARM GAS  C:\Users\SUZUKI~1\AppData\Local\Temp\ccDED0md.s 			page 45


 1878 0348 FFF7FEFF 		bl	send_cmd
 1879 034c 0346     		mov	r3, r0
 1880 034e 002B     		cmp	r3, #0
 1881 0350 2CD1     		bne	.L162
 617:.\Generated_Source\PSoC5/sdspi_1_sdspi.c **** 				rcvr_spi();
 1882              		.loc 1 617 0
 1883 0352 4FF0FF00 		mov	r0, #255
 1884 0356 FFF7FEFF 		bl	xchg_spi
 618:.\Generated_Source\PSoC5/sdspi_1_sdspi.c **** 				if (rcvr_datablock(buff, 64))
 1885              		.loc 1 618 0
 1886 035a 3B68     		ldr	r3, [r7, #0]
 1887 035c 1846     		mov	r0, r3
 1888 035e 4FF04001 		mov	r1, #64
 1889 0362 FFF7FEFF 		bl	rcvr_datablock
 1890 0366 0346     		mov	r3, r0
 1891 0368 002B     		cmp	r3, #0
 1892 036a 21D0     		beq	.L163
 619:.\Generated_Source\PSoC5/sdspi_1_sdspi.c **** 					res = RES_OK;
 1893              		.loc 1 619 0
 1894 036c 4FF00003 		mov	r3, #0
 1895 0370 BB77     		strb	r3, [r7, #30]
 620:.\Generated_Source\PSoC5/sdspi_1_sdspi.c **** 			}
 621:.\Generated_Source\PSoC5/sdspi_1_sdspi.c **** 			break;
 1896              		.loc 1 621 0
 1897 0372 1EE0     		b	.L132
 1898              	.L120:
 622:.\Generated_Source\PSoC5/sdspi_1_sdspi.c **** 
 623:.\Generated_Source\PSoC5/sdspi_1_sdspi.c **** 		default:
 624:.\Generated_Source\PSoC5/sdspi_1_sdspi.c **** 			res = RES_PARERR;
 1899              		.loc 1 624 0
 1900 0374 4FF00403 		mov	r3, #4
 1901 0378 BB77     		strb	r3, [r7, #30]
 1902 037a 1AE0     		b	.L132
 1903              	.L150:
 1904              		.loc 1 547 0
 1905 037c 00BF     		nop
 1906 037e 18E0     		b	.L132
 1907              	.L151:
 1908              		.loc 1 561 0
 1909 0380 00BF     		nop
 1910 0382 16E0     		b	.L132
 1911              	.L152:
 1912 0384 00BF     		nop
 1913 0386 14E0     		b	.L132
 1914              	.L153:
 1915              		.loc 1 588 0
 1916 0388 00BF     		nop
 1917 038a 12E0     		b	.L132
 1918              	.L154:
 1919 038c 00BF     		nop
 1920 038e 10E0     		b	.L132
 1921              	.L155:
 1922 0390 00BF     		nop
 1923 0392 0EE0     		b	.L132
 1924              	.L156:
 1925 0394 00BF     		nop
 1926 0396 0CE0     		b	.L132
ARM GAS  C:\Users\SUZUKI~1\AppData\Local\Temp\ccDED0md.s 			page 46


 1927              	.L157:
 1928              		.loc 1 599 0
 1929 0398 00BF     		nop
 1930 039a 0AE0     		b	.L132
 1931              	.L158:
 1932 039c 00BF     		nop
 1933 039e 08E0     		b	.L132
 1934              	.L159:
 1935              		.loc 1 605 0
 1936 03a0 00BF     		nop
 1937 03a2 06E0     		b	.L132
 1938              	.L160:
 1939 03a4 00BF     		nop
 1940 03a6 04E0     		b	.L132
 1941              	.L161:
 1942              		.loc 1 613 0
 1943 03a8 00BF     		nop
 1944 03aa 02E0     		b	.L132
 1945              	.L162:
 1946              		.loc 1 621 0
 1947 03ac 00BF     		nop
 1948 03ae 00E0     		b	.L132
 1949              	.L163:
 1950 03b0 00BF     		nop
 1951              	.L132:
 625:.\Generated_Source\PSoC5/sdspi_1_sdspi.c **** 	}
 626:.\Generated_Source\PSoC5/sdspi_1_sdspi.c **** 
 627:.\Generated_Source\PSoC5/sdspi_1_sdspi.c **** 	deselect();
 1952              		.loc 1 627 0
 1953 03b2 FFF7FEFF 		bl	deselect
 628:.\Generated_Source\PSoC5/sdspi_1_sdspi.c **** 
 629:.\Generated_Source\PSoC5/sdspi_1_sdspi.c **** 	return res;
 1954              		.loc 1 629 0
 1955 03b6 BB7F     		ldrb	r3, [r7, #30]	@ zero_extendqisi2
 1956              	.L118:
 630:.\Generated_Source\PSoC5/sdspi_1_sdspi.c **** }
 1957              		.loc 1 630 0
 1958 03b8 1846     		mov	r0, r3
 1959 03ba 07F12C07 		add	r7, r7, #44
 1960 03be BD46     		mov	sp, r7
 1961 03c0 90BD     		pop	{r4, r7, pc}
 1962              		.cfi_endproc
 1963              	.LFE45:
 1964              		.size	disk_ioctl, .-disk_ioctl
 1965 03c2 00BF     		.section	.text.disk_timerproc,"ax",%progbits
 1966              		.align	2
 1967              		.global	disk_timerproc
 1968              		.thumb
 1969              		.thumb_func
 1970              		.type	disk_timerproc, %function
 1971              	disk_timerproc:
 1972              	.LFB46:
 631:.\Generated_Source\PSoC5/sdspi_1_sdspi.c **** 
 632:.\Generated_Source\PSoC5/sdspi_1_sdspi.c **** 
 633:.\Generated_Source\PSoC5/sdspi_1_sdspi.c **** 
 634:.\Generated_Source\PSoC5/sdspi_1_sdspi.c **** /*-----------------------------------------------------------------------*/
 635:.\Generated_Source\PSoC5/sdspi_1_sdspi.c **** /* Device Timer Interrupt Procedure  (Platform dependent)                */
ARM GAS  C:\Users\SUZUKI~1\AppData\Local\Temp\ccDED0md.s 			page 47


 636:.\Generated_Source\PSoC5/sdspi_1_sdspi.c **** /*-----------------------------------------------------------------------*/
 637:.\Generated_Source\PSoC5/sdspi_1_sdspi.c **** /* This function must be called in period of 1ms                         */
 638:.\Generated_Source\PSoC5/sdspi_1_sdspi.c **** CY_ISR(disk_timerproc)
 639:.\Generated_Source\PSoC5/sdspi_1_sdspi.c **** //void disk_timerproc (void)
 640:.\Generated_Source\PSoC5/sdspi_1_sdspi.c **** {
 1973              		.loc 1 640 0
 1974              		.cfi_startproc
 1975              		@ args = 0, pretend = 0, frame = 16
 1976              		@ frame_needed = 1, uses_anonymous_args = 0
 1977 0000 80B5     		push	{r7, lr}
 1978              	.LCFI45:
 1979              		.cfi_def_cfa_offset 8
 1980 0002 84B0     		sub	sp, sp, #16
 1981              	.LCFI46:
 1982              		.cfi_def_cfa_offset 24
 1983 0004 00AF     		add	r7, sp, #0
 1984              		.cfi_offset 14, -4
 1985              		.cfi_offset 7, -8
 1986              	.LCFI47:
 1987              		.cfi_def_cfa_register 7
 641:.\Generated_Source\PSoC5/sdspi_1_sdspi.c **** 	static int32 pv;
 642:.\Generated_Source\PSoC5/sdspi_1_sdspi.c **** 	int32 p;
 643:.\Generated_Source\PSoC5/sdspi_1_sdspi.c **** 	BYTE s;
 644:.\Generated_Source\PSoC5/sdspi_1_sdspi.c **** 	UINT n;
 645:.\Generated_Source\PSoC5/sdspi_1_sdspi.c **** 
 646:.\Generated_Source\PSoC5/sdspi_1_sdspi.c **** 	n = SDTimer1;						/* 1000Hz decrement timer */
 1988              		.loc 1 646 0
 1989 0006 40F20003 		movw	r3, #:lower16:SDTimer1
 1990 000a C0F20003 		movt	r3, #:upper16:SDTimer1
 1991 000e 1B68     		ldr	r3, [r3, #0]
 1992 0010 FB60     		str	r3, [r7, #12]
 647:.\Generated_Source\PSoC5/sdspi_1_sdspi.c **** 	if (n) SDTimer1 = --n;
 1993              		.loc 1 647 0
 1994 0012 FB68     		ldr	r3, [r7, #12]
 1995 0014 002B     		cmp	r3, #0
 1996 0016 09D0     		beq	.L165
 1997 0018 FB68     		ldr	r3, [r7, #12]
 1998 001a 03F1FF33 		add	r3, r3, #-1
 1999 001e FB60     		str	r3, [r7, #12]
 2000 0020 40F20003 		movw	r3, #:lower16:SDTimer1
 2001 0024 C0F20003 		movt	r3, #:upper16:SDTimer1
 2002 0028 FA68     		ldr	r2, [r7, #12]
 2003 002a 1A60     		str	r2, [r3, #0]
 2004              	.L165:
 648:.\Generated_Source\PSoC5/sdspi_1_sdspi.c **** 	n = SDTimer2;
 2005              		.loc 1 648 0
 2006 002c 40F20003 		movw	r3, #:lower16:SDTimer2
 2007 0030 C0F20003 		movt	r3, #:upper16:SDTimer2
 2008 0034 1B68     		ldr	r3, [r3, #0]
 2009 0036 FB60     		str	r3, [r7, #12]
 649:.\Generated_Source\PSoC5/sdspi_1_sdspi.c **** 	if (n) SDTimer2 = --n;
 2010              		.loc 1 649 0
 2011 0038 FB68     		ldr	r3, [r7, #12]
 2012 003a 002B     		cmp	r3, #0
 2013 003c 09D0     		beq	.L166
 2014 003e FB68     		ldr	r3, [r7, #12]
 2015 0040 03F1FF33 		add	r3, r3, #-1
ARM GAS  C:\Users\SUZUKI~1\AppData\Local\Temp\ccDED0md.s 			page 48


 2016 0044 FB60     		str	r3, [r7, #12]
 2017 0046 40F20003 		movw	r3, #:lower16:SDTimer2
 2018 004a C0F20003 		movt	r3, #:upper16:SDTimer2
 2019 004e FA68     		ldr	r2, [r7, #12]
 2020 0050 1A60     		str	r2, [r3, #0]
 2021              	.L166:
 650:.\Generated_Source\PSoC5/sdspi_1_sdspi.c **** 	
 651:.\Generated_Source\PSoC5/sdspi_1_sdspi.c **** 	p = pv;
 2022              		.loc 1 651 0
 2023 0052 40F20003 		movw	r3, #:lower16:pv.3449
 2024 0056 C0F20003 		movt	r3, #:upper16:pv.3449
 2025 005a 1B68     		ldr	r3, [r3, #0]
 2026 005c 7B60     		str	r3, [r7, #4]
 652:.\Generated_Source\PSoC5/sdspi_1_sdspi.c **** 	pv = sdspi_1_CD_Status_Read();	/* Sample socket switch */
 2027              		.loc 1 652 0
 2028 005e FFF7FEFF 		bl	sdspi_1_CD_Status_Read
 2029 0062 0346     		mov	r3, r0
 2030 0064 1A46     		mov	r2, r3
 2031 0066 40F20003 		movw	r3, #:lower16:pv.3449
 2032 006a C0F20003 		movt	r3, #:upper16:pv.3449
 2033 006e 1A60     		str	r2, [r3, #0]
 653:.\Generated_Source\PSoC5/sdspi_1_sdspi.c **** 
 654:.\Generated_Source\PSoC5/sdspi_1_sdspi.c **** 	if (p == pv) {						/* Have contacts stabled? */
 2034              		.loc 1 654 0
 2035 0070 40F20003 		movw	r3, #:lower16:pv.3449
 2036 0074 C0F20003 		movt	r3, #:upper16:pv.3449
 2037 0078 1B68     		ldr	r3, [r3, #0]
 2038 007a 7A68     		ldr	r2, [r7, #4]
 2039 007c 9A42     		cmp	r2, r3
 2040 007e 28D1     		bne	.L172
 655:.\Generated_Source\PSoC5/sdspi_1_sdspi.c **** 		s = Stat;
 2041              		.loc 1 655 0
 2042 0080 40F20003 		movw	r3, #:lower16:Stat
 2043 0084 C0F20003 		movt	r3, #:upper16:Stat
 2044 0088 1B78     		ldrb	r3, [r3, #0]
 2045 008a FB72     		strb	r3, [r7, #11]
 656:.\Generated_Source\PSoC5/sdspi_1_sdspi.c **** 		if (p & SOCKWP) {				/* WP is H (write protected) */
 2046              		.loc 1 656 0
 2047 008c 7B68     		ldr	r3, [r7, #4]
 2048 008e 03F00203 		and	r3, r3, #2
 2049 0092 002B     		cmp	r3, #0
 2050 0094 04D0     		beq	.L168
 657:.\Generated_Source\PSoC5/sdspi_1_sdspi.c **** 			s |= STA_PROTECT;
 2051              		.loc 1 657 0
 2052 0096 FB7A     		ldrb	r3, [r7, #11]
 2053 0098 43F00403 		orr	r3, r3, #4
 2054 009c FB72     		strb	r3, [r7, #11]
 2055 009e 03E0     		b	.L169
 2056              	.L168:
 658:.\Generated_Source\PSoC5/sdspi_1_sdspi.c **** 		} else {						/* WP is L (write enabled) */
 659:.\Generated_Source\PSoC5/sdspi_1_sdspi.c **** 			s &= ~STA_PROTECT;
 2057              		.loc 1 659 0
 2058 00a0 FB7A     		ldrb	r3, [r7, #11]
 2059 00a2 23F00403 		bic	r3, r3, #4
 2060 00a6 FB72     		strb	r3, [r7, #11]
 2061              	.L169:
 660:.\Generated_Source\PSoC5/sdspi_1_sdspi.c **** 		}
ARM GAS  C:\Users\SUZUKI~1\AppData\Local\Temp\ccDED0md.s 			page 49


 661:.\Generated_Source\PSoC5/sdspi_1_sdspi.c **** 		if (p & SOCKINS) {				/* INS = H (Socket empty) */
 2062              		.loc 1 661 0
 2063 00a8 7B68     		ldr	r3, [r7, #4]
 2064 00aa 03F00103 		and	r3, r3, #1
 2065 00ae DBB2     		uxtb	r3, r3
 2066 00b0 002B     		cmp	r3, #0
 2067 00b2 04D0     		beq	.L170
 662:.\Generated_Source\PSoC5/sdspi_1_sdspi.c **** 			s |= (STA_NODISK | STA_NOINIT);
 2068              		.loc 1 662 0
 2069 00b4 FB7A     		ldrb	r3, [r7, #11]
 2070 00b6 43F00303 		orr	r3, r3, #3
 2071 00ba FB72     		strb	r3, [r7, #11]
 2072 00bc 03E0     		b	.L171
 2073              	.L170:
 663:.\Generated_Source\PSoC5/sdspi_1_sdspi.c **** //			UART_1_PutChar('E');
 664:.\Generated_Source\PSoC5/sdspi_1_sdspi.c **** 		} else {						/* INS = L (Card inserted) */
 665:.\Generated_Source\PSoC5/sdspi_1_sdspi.c **** 			s &= ~STA_NODISK;
 2074              		.loc 1 665 0
 2075 00be FB7A     		ldrb	r3, [r7, #11]
 2076 00c0 23F00203 		bic	r3, r3, #2
 2077 00c4 FB72     		strb	r3, [r7, #11]
 2078              	.L171:
 666:.\Generated_Source\PSoC5/sdspi_1_sdspi.c **** //			UART_1_PutChar('I');
 667:.\Generated_Source\PSoC5/sdspi_1_sdspi.c **** 		}
 668:.\Generated_Source\PSoC5/sdspi_1_sdspi.c **** 		Stat = s;
 2079              		.loc 1 668 0
 2080 00c6 40F20003 		movw	r3, #:lower16:Stat
 2081 00ca C0F20003 		movt	r3, #:upper16:Stat
 2082 00ce FA7A     		ldrb	r2, [r7, #11]
 2083 00d0 1A70     		strb	r2, [r3, #0]
 2084              	.L172:
 669:.\Generated_Source\PSoC5/sdspi_1_sdspi.c **** 	}
 670:.\Generated_Source\PSoC5/sdspi_1_sdspi.c **** }
 2085              		.loc 1 670 0
 2086 00d2 07F11007 		add	r7, r7, #16
 2087 00d6 BD46     		mov	sp, r7
 2088 00d8 80BD     		pop	{r7, pc}
 2089              		.cfi_endproc
 2090              	.LFE46:
 2091              		.size	disk_timerproc, .-disk_timerproc
 2092 00da 00BF     		.bss
 2093              		.align	2
 2094              	pv.3449:
 2095 000c 00000000 		.space	4
 2096              		.text
 2097              	.Letext0:
