ARM GAS  C:\Users\SUZUKI~1\AppData\Local\Temp\ccLnHTOh.s 			page 1


   1              		.syntax unified
   2              		.cpu cortex-m3
   3              		.fpu softvfp
   4              		.eabi_attribute 20, 1
   5              		.eabi_attribute 21, 1
   6              		.eabi_attribute 23, 3
   7              		.eabi_attribute 24, 1
   8              		.eabi_attribute 25, 1
   9              		.eabi_attribute 26, 1
  10              		.eabi_attribute 30, 6
  11              		.eabi_attribute 18, 4
  12              		.thumb
  13              		.file	"UART_1.c"
  14              		.section	.debug_abbrev,"",%progbits
  15              	.Ldebug_abbrev0:
  16              		.section	.debug_info,"",%progbits
  17              	.Ldebug_info0:
  18              		.section	.debug_line,"",%progbits
  19              	.Ldebug_line0:
  20 0000 B0020000 		.text
  20      02005F00 
  20      00000201 
  20      FB0E0D00 
  20      01010101 
  21              	.Ltext0:
  22              		.cfi_sections	.debug_frame
  23              		.global	UART_1_initVar
  24              		.bss
  25              		.type	UART_1_initVar, %object
  26              		.size	UART_1_initVar, 1
  27              	UART_1_initVar:
  28 0000 00       		.space	1
  29              		.section	.text.UART_1_Start,"ax",%progbits
  30              		.align	2
  31              		.global	UART_1_Start
  32              		.thumb
  33              		.thumb_func
  34              		.type	UART_1_Start, %function
  35              	UART_1_Start:
  36              	.LFB0:
  37              		.file 1 ".\\Generated_Source\\PSoC5\\UART_1.c"
   1:.\Generated_Source\PSoC5/UART_1.c **** /*******************************************************************************
   2:.\Generated_Source\PSoC5/UART_1.c **** * File Name: UART_1.c
   3:.\Generated_Source\PSoC5/UART_1.c **** * Version 2.30
   4:.\Generated_Source\PSoC5/UART_1.c **** *
   5:.\Generated_Source\PSoC5/UART_1.c **** * Description:
   6:.\Generated_Source\PSoC5/UART_1.c **** *  This file provides all API functionality of the UART component
   7:.\Generated_Source\PSoC5/UART_1.c **** *
   8:.\Generated_Source\PSoC5/UART_1.c **** * Note:
   9:.\Generated_Source\PSoC5/UART_1.c **** *
  10:.\Generated_Source\PSoC5/UART_1.c **** ********************************************************************************
  11:.\Generated_Source\PSoC5/UART_1.c **** * Copyright 2008-2012, Cypress Semiconductor Corporation.  All rights reserved.
  12:.\Generated_Source\PSoC5/UART_1.c **** * You may use this file only in accordance with the license, terms, conditions,
  13:.\Generated_Source\PSoC5/UART_1.c **** * disclaimers, and limitations in the end user license agreement accompanying
  14:.\Generated_Source\PSoC5/UART_1.c **** * the software package with which this file was provided.
  15:.\Generated_Source\PSoC5/UART_1.c **** *******************************************************************************/
  16:.\Generated_Source\PSoC5/UART_1.c **** 
ARM GAS  C:\Users\SUZUKI~1\AppData\Local\Temp\ccLnHTOh.s 			page 2


  17:.\Generated_Source\PSoC5/UART_1.c **** #include "UART_1.h"
  18:.\Generated_Source\PSoC5/UART_1.c **** #include "CyLib.h"
  19:.\Generated_Source\PSoC5/UART_1.c **** #if(UART_1_INTERNAL_CLOCK_USED)
  20:.\Generated_Source\PSoC5/UART_1.c ****     #include "UART_1_IntClock.h"
  21:.\Generated_Source\PSoC5/UART_1.c **** #endif /* End UART_1_INTERNAL_CLOCK_USED */
  22:.\Generated_Source\PSoC5/UART_1.c **** 
  23:.\Generated_Source\PSoC5/UART_1.c **** 
  24:.\Generated_Source\PSoC5/UART_1.c **** /***************************************
  25:.\Generated_Source\PSoC5/UART_1.c **** * Global data allocation
  26:.\Generated_Source\PSoC5/UART_1.c **** ***************************************/
  27:.\Generated_Source\PSoC5/UART_1.c **** 
  28:.\Generated_Source\PSoC5/UART_1.c **** uint8 UART_1_initVar = 0u;
  29:.\Generated_Source\PSoC5/UART_1.c **** #if( UART_1_TX_ENABLED && (UART_1_TXBUFFERSIZE > UART_1_FIFO_LENGTH))
  30:.\Generated_Source\PSoC5/UART_1.c ****     volatile uint8 UART_1_txBuffer[UART_1_TXBUFFERSIZE];
  31:.\Generated_Source\PSoC5/UART_1.c ****     volatile uint8 UART_1_txBufferRead = 0u;
  32:.\Generated_Source\PSoC5/UART_1.c ****     uint8 UART_1_txBufferWrite = 0u;
  33:.\Generated_Source\PSoC5/UART_1.c **** #endif /* End UART_1_TX_ENABLED */
  34:.\Generated_Source\PSoC5/UART_1.c **** #if( ( UART_1_RX_ENABLED || UART_1_HD_ENABLED ) && \
  35:.\Generated_Source\PSoC5/UART_1.c ****      (UART_1_RXBUFFERSIZE > UART_1_FIFO_LENGTH) )
  36:.\Generated_Source\PSoC5/UART_1.c ****     volatile uint8 UART_1_rxBuffer[UART_1_RXBUFFERSIZE];
  37:.\Generated_Source\PSoC5/UART_1.c ****     volatile uint8 UART_1_rxBufferRead = 0u;
  38:.\Generated_Source\PSoC5/UART_1.c ****     volatile uint8 UART_1_rxBufferWrite = 0u;
  39:.\Generated_Source\PSoC5/UART_1.c ****     volatile uint8 UART_1_rxBufferLoopDetect = 0u;
  40:.\Generated_Source\PSoC5/UART_1.c ****     volatile uint8 UART_1_rxBufferOverflow = 0u;
  41:.\Generated_Source\PSoC5/UART_1.c ****     #if (UART_1_RXHW_ADDRESS_ENABLED)
  42:.\Generated_Source\PSoC5/UART_1.c ****         volatile uint8 UART_1_rxAddressMode = UART_1_RXADDRESSMODE;
  43:.\Generated_Source\PSoC5/UART_1.c ****         volatile uint8 UART_1_rxAddressDetected = 0u;
  44:.\Generated_Source\PSoC5/UART_1.c ****     #endif /* End EnableHWAddress */
  45:.\Generated_Source\PSoC5/UART_1.c **** #endif /* End UART_1_RX_ENABLED */
  46:.\Generated_Source\PSoC5/UART_1.c **** 
  47:.\Generated_Source\PSoC5/UART_1.c **** 
  48:.\Generated_Source\PSoC5/UART_1.c **** /*******************************************************************************
  49:.\Generated_Source\PSoC5/UART_1.c **** * Function Name: UART_1_Start
  50:.\Generated_Source\PSoC5/UART_1.c **** ********************************************************************************
  51:.\Generated_Source\PSoC5/UART_1.c **** *
  52:.\Generated_Source\PSoC5/UART_1.c **** * Summary:
  53:.\Generated_Source\PSoC5/UART_1.c **** *  Initialize and Enable the UART component.
  54:.\Generated_Source\PSoC5/UART_1.c **** *  Enable the clock input to enable operation.
  55:.\Generated_Source\PSoC5/UART_1.c **** *
  56:.\Generated_Source\PSoC5/UART_1.c **** * Parameters:
  57:.\Generated_Source\PSoC5/UART_1.c **** *  None.
  58:.\Generated_Source\PSoC5/UART_1.c **** *
  59:.\Generated_Source\PSoC5/UART_1.c **** * Return:
  60:.\Generated_Source\PSoC5/UART_1.c **** *  None.
  61:.\Generated_Source\PSoC5/UART_1.c **** *
  62:.\Generated_Source\PSoC5/UART_1.c **** * Global variables:
  63:.\Generated_Source\PSoC5/UART_1.c **** *  The UART_1_intiVar variable is used to indicate initial
  64:.\Generated_Source\PSoC5/UART_1.c **** *  configuration of this component. The variable is initialized to zero (0u)
  65:.\Generated_Source\PSoC5/UART_1.c **** *  and set to one (1u) the first time UART_Start() is called. This allows for
  66:.\Generated_Source\PSoC5/UART_1.c **** *  component initialization without re-initialization in all subsequent calls
  67:.\Generated_Source\PSoC5/UART_1.c **** *  to the UART_1_Start() routine.
  68:.\Generated_Source\PSoC5/UART_1.c **** *
  69:.\Generated_Source\PSoC5/UART_1.c **** * Reentrant:
  70:.\Generated_Source\PSoC5/UART_1.c **** *  No.
  71:.\Generated_Source\PSoC5/UART_1.c **** *
  72:.\Generated_Source\PSoC5/UART_1.c **** *******************************************************************************/
  73:.\Generated_Source\PSoC5/UART_1.c **** void UART_1_Start(void) 
ARM GAS  C:\Users\SUZUKI~1\AppData\Local\Temp\ccLnHTOh.s 			page 3


  74:.\Generated_Source\PSoC5/UART_1.c **** {
  38              		.loc 1 74 0
  39              		.cfi_startproc
  40              		@ args = 0, pretend = 0, frame = 0
  41              		@ frame_needed = 1, uses_anonymous_args = 0
  42 0000 80B5     		push	{r7, lr}
  43              	.LCFI0:
  44              		.cfi_def_cfa_offset 8
  45 0002 00AF     		add	r7, sp, #0
  46              		.cfi_offset 14, -4
  47              		.cfi_offset 7, -8
  48              	.LCFI1:
  49              		.cfi_def_cfa_register 7
  75:.\Generated_Source\PSoC5/UART_1.c ****     /* If not Initialized then initialize all required hardware and software */
  76:.\Generated_Source\PSoC5/UART_1.c ****     if(UART_1_initVar == 0u)
  50              		.loc 1 76 0
  51 0004 40F20003 		movw	r3, #:lower16:UART_1_initVar
  52 0008 C0F20003 		movt	r3, #:upper16:UART_1_initVar
  53 000c 1B78     		ldrb	r3, [r3, #0]	@ zero_extendqisi2
  54 000e 002B     		cmp	r3, #0
  55 0010 08D1     		bne	.L2
  77:.\Generated_Source\PSoC5/UART_1.c ****     {
  78:.\Generated_Source\PSoC5/UART_1.c ****         UART_1_Init();
  56              		.loc 1 78 0
  57 0012 FFF7FEFF 		bl	UART_1_Init
  79:.\Generated_Source\PSoC5/UART_1.c ****         UART_1_initVar = 1u;
  58              		.loc 1 79 0
  59 0016 40F20003 		movw	r3, #:lower16:UART_1_initVar
  60 001a C0F20003 		movt	r3, #:upper16:UART_1_initVar
  61 001e 4FF00102 		mov	r2, #1
  62 0022 1A70     		strb	r2, [r3, #0]
  63              	.L2:
  80:.\Generated_Source\PSoC5/UART_1.c ****     }
  81:.\Generated_Source\PSoC5/UART_1.c ****     UART_1_Enable();
  64              		.loc 1 81 0
  65 0024 FFF7FEFF 		bl	UART_1_Enable
  82:.\Generated_Source\PSoC5/UART_1.c **** }
  66              		.loc 1 82 0
  67 0028 80BD     		pop	{r7, pc}
  68              		.cfi_endproc
  69              	.LFE0:
  70              		.size	UART_1_Start, .-UART_1_Start
  71 002a 00BF     		.section	.text.UART_1_Init,"ax",%progbits
  72              		.align	2
  73              		.global	UART_1_Init
  74              		.thumb
  75              		.thumb_func
  76              		.type	UART_1_Init, %function
  77              	UART_1_Init:
  78              	.LFB1:
  83:.\Generated_Source\PSoC5/UART_1.c **** 
  84:.\Generated_Source\PSoC5/UART_1.c **** 
  85:.\Generated_Source\PSoC5/UART_1.c **** /*******************************************************************************
  86:.\Generated_Source\PSoC5/UART_1.c **** * Function Name: UART_1_Init
  87:.\Generated_Source\PSoC5/UART_1.c **** ********************************************************************************
  88:.\Generated_Source\PSoC5/UART_1.c **** *
  89:.\Generated_Source\PSoC5/UART_1.c **** * Summary:
ARM GAS  C:\Users\SUZUKI~1\AppData\Local\Temp\ccLnHTOh.s 			page 4


  90:.\Generated_Source\PSoC5/UART_1.c **** *  Initialize component's parameters to the parameters set by user in the
  91:.\Generated_Source\PSoC5/UART_1.c **** *  customizer of the component placed onto schematic. Usually called in
  92:.\Generated_Source\PSoC5/UART_1.c **** *  UART_1_Start().
  93:.\Generated_Source\PSoC5/UART_1.c **** *
  94:.\Generated_Source\PSoC5/UART_1.c **** * Parameters:
  95:.\Generated_Source\PSoC5/UART_1.c **** *  None.
  96:.\Generated_Source\PSoC5/UART_1.c **** *
  97:.\Generated_Source\PSoC5/UART_1.c **** * Return:
  98:.\Generated_Source\PSoC5/UART_1.c **** *  None.
  99:.\Generated_Source\PSoC5/UART_1.c **** *
 100:.\Generated_Source\PSoC5/UART_1.c **** *******************************************************************************/
 101:.\Generated_Source\PSoC5/UART_1.c **** void UART_1_Init(void) 
 102:.\Generated_Source\PSoC5/UART_1.c **** {
  79              		.loc 1 102 0
  80              		.cfi_startproc
  81              		@ args = 0, pretend = 0, frame = 0
  82              		@ frame_needed = 1, uses_anonymous_args = 0
  83              		@ link register save eliminated.
  84 0000 80B4     		push	{r7}
  85              	.LCFI2:
  86              		.cfi_def_cfa_offset 4
  87 0002 00AF     		add	r7, sp, #0
  88              		.cfi_offset 7, -4
  89              	.LCFI3:
  90              		.cfi_def_cfa_register 7
 103:.\Generated_Source\PSoC5/UART_1.c ****     #if(UART_1_RX_ENABLED || UART_1_HD_ENABLED)
 104:.\Generated_Source\PSoC5/UART_1.c **** 
 105:.\Generated_Source\PSoC5/UART_1.c ****         #if(UART_1_RX_INTERRUPT_ENABLED && (UART_1_RXBUFFERSIZE > UART_1_FIFO_LENGTH))
 106:.\Generated_Source\PSoC5/UART_1.c ****             /* Set the RX Interrupt. */
 107:.\Generated_Source\PSoC5/UART_1.c ****             (void)CyIntSetVector(UART_1_RX_VECT_NUM, &UART_1_RXISR);
 108:.\Generated_Source\PSoC5/UART_1.c ****             CyIntSetPriority(UART_1_RX_VECT_NUM, UART_1_RX_PRIOR_NUM);
 109:.\Generated_Source\PSoC5/UART_1.c ****         #endif /* End UART_1_RX_INTERRUPT_ENABLED */
 110:.\Generated_Source\PSoC5/UART_1.c **** 
 111:.\Generated_Source\PSoC5/UART_1.c ****         #if (UART_1_RXHW_ADDRESS_ENABLED)
 112:.\Generated_Source\PSoC5/UART_1.c ****             UART_1_SetRxAddressMode(UART_1_RXAddressMode);
 113:.\Generated_Source\PSoC5/UART_1.c ****             UART_1_SetRxAddress1(UART_1_RXHWADDRESS1);
 114:.\Generated_Source\PSoC5/UART_1.c ****             UART_1_SetRxAddress2(UART_1_RXHWADDRESS2);
 115:.\Generated_Source\PSoC5/UART_1.c ****         #endif /* End UART_1_RXHW_ADDRESS_ENABLED */
 116:.\Generated_Source\PSoC5/UART_1.c **** 
 117:.\Generated_Source\PSoC5/UART_1.c ****         /* Init Count7 period */
 118:.\Generated_Source\PSoC5/UART_1.c ****         UART_1_RXBITCTR_PERIOD_REG = UART_1_RXBITCTR_INIT;
  91              		.loc 1 118 0
  92 0004 46F28643 		movw	r3, #:lower16:1073767558
  93 0008 C4F20003 		movt	r3, #:upper16:1073767558
  94 000c 4FF07202 		mov	r2, #114
  95 0010 1A70     		strb	r2, [r3, #0]
 119:.\Generated_Source\PSoC5/UART_1.c ****         /* Configure the Initial RX interrupt mask */
 120:.\Generated_Source\PSoC5/UART_1.c ****         UART_1_RXSTATUS_MASK_REG  = UART_1_INIT_RX_INTERRUPTS_MASK;
  96              		.loc 1 120 0
  97 0012 46F28543 		movw	r3, #:lower16:1073767557
  98 0016 C4F20003 		movt	r3, #:upper16:1073767557
  99 001a 4FF02002 		mov	r2, #32
 100 001e 1A70     		strb	r2, [r3, #0]
 121:.\Generated_Source\PSoC5/UART_1.c ****     #endif /* End UART_1_RX_ENABLED || UART_1_HD_ENABLED*/
 122:.\Generated_Source\PSoC5/UART_1.c **** 
 123:.\Generated_Source\PSoC5/UART_1.c ****     #if(UART_1_TX_ENABLED)
 124:.\Generated_Source\PSoC5/UART_1.c ****         #if(UART_1_TX_INTERRUPT_ENABLED && (UART_1_TXBUFFERSIZE > UART_1_FIFO_LENGTH))
ARM GAS  C:\Users\SUZUKI~1\AppData\Local\Temp\ccLnHTOh.s 			page 5


 125:.\Generated_Source\PSoC5/UART_1.c ****             /* Set the TX Interrupt. */
 126:.\Generated_Source\PSoC5/UART_1.c ****             (void)CyIntSetVector(UART_1_TX_VECT_NUM, &UART_1_TXISR);
 127:.\Generated_Source\PSoC5/UART_1.c ****             CyIntSetPriority(UART_1_TX_VECT_NUM, UART_1_TX_PRIOR_NUM);
 128:.\Generated_Source\PSoC5/UART_1.c ****         #endif /* End UART_1_TX_INTERRUPT_ENABLED */
 129:.\Generated_Source\PSoC5/UART_1.c **** 
 130:.\Generated_Source\PSoC5/UART_1.c ****         /* Write Counter Value for TX Bit Clk Generator*/
 131:.\Generated_Source\PSoC5/UART_1.c ****         #if(UART_1_TXCLKGEN_DP)
 132:.\Generated_Source\PSoC5/UART_1.c ****             UART_1_TXBITCLKGEN_CTR_REG = UART_1_BIT_CENTER;
 101              		.loc 1 132 0
 102 0020 46F22743 		movw	r3, #:lower16:1073767463
 103 0024 C4F20003 		movt	r3, #:upper16:1073767463
 104 0028 4FF00702 		mov	r2, #7
 105 002c 1A70     		strb	r2, [r3, #0]
 133:.\Generated_Source\PSoC5/UART_1.c ****             UART_1_TXBITCLKTX_COMPLETE_REG = (UART_1_NUMBER_OF_DATA_BITS +
 106              		.loc 1 133 0
 107 002e 46F23743 		movw	r3, #:lower16:1073767479
 108 0032 C4F20003 		movt	r3, #:upper16:1073767479
 109 0036 4FF04802 		mov	r2, #72
 110 003a 1A70     		strb	r2, [r3, #0]
 134:.\Generated_Source\PSoC5/UART_1.c ****                         UART_1_NUMBER_OF_START_BIT) * UART_1_OVER_SAMPLE_COUNT;
 135:.\Generated_Source\PSoC5/UART_1.c ****         #else
 136:.\Generated_Source\PSoC5/UART_1.c ****             UART_1_TXBITCTR_PERIOD_REG = ((UART_1_NUMBER_OF_DATA_BITS +
 137:.\Generated_Source\PSoC5/UART_1.c ****                         UART_1_NUMBER_OF_START_BIT) * UART_1_OVER_SAMPLE_8) - 1u;
 138:.\Generated_Source\PSoC5/UART_1.c ****         #endif /* End UART_1_TXCLKGEN_DP */
 139:.\Generated_Source\PSoC5/UART_1.c **** 
 140:.\Generated_Source\PSoC5/UART_1.c ****         /* Configure the Initial TX interrupt mask */
 141:.\Generated_Source\PSoC5/UART_1.c ****         #if(UART_1_TX_INTERRUPT_ENABLED && (UART_1_TXBUFFERSIZE > UART_1_FIFO_LENGTH))
 142:.\Generated_Source\PSoC5/UART_1.c ****             UART_1_TXSTATUS_MASK_REG = UART_1_TX_STS_FIFO_EMPTY;
 143:.\Generated_Source\PSoC5/UART_1.c ****         #else
 144:.\Generated_Source\PSoC5/UART_1.c ****             UART_1_TXSTATUS_MASK_REG = UART_1_INIT_TX_INTERRUPTS_MASK;
 111              		.loc 1 144 0
 112 003c 46F28443 		movw	r3, #:lower16:1073767556
 113 0040 C4F20003 		movt	r3, #:upper16:1073767556
 114 0044 4FF00802 		mov	r2, #8
 115 0048 1A70     		strb	r2, [r3, #0]
 145:.\Generated_Source\PSoC5/UART_1.c ****         #endif /*End UART_1_TX_INTERRUPT_ENABLED*/
 146:.\Generated_Source\PSoC5/UART_1.c **** 
 147:.\Generated_Source\PSoC5/UART_1.c ****     #endif /* End UART_1_TX_ENABLED */
 148:.\Generated_Source\PSoC5/UART_1.c **** 
 149:.\Generated_Source\PSoC5/UART_1.c ****     #if(UART_1_PARITY_TYPE_SW)  /* Write Parity to Control Register */
 150:.\Generated_Source\PSoC5/UART_1.c ****         UART_1_WriteControlRegister( \
 151:.\Generated_Source\PSoC5/UART_1.c ****             (UART_1_ReadControlRegister() & (uint8)~UART_1_CTRL_PARITY_TYPE_MASK) | \
 152:.\Generated_Source\PSoC5/UART_1.c ****             (uint8)(UART_1_PARITY_TYPE << UART_1_CTRL_PARITY_TYPE0_SHIFT) );
 153:.\Generated_Source\PSoC5/UART_1.c ****     #endif /* End UART_1_PARITY_TYPE_SW */
 154:.\Generated_Source\PSoC5/UART_1.c **** }
 116              		.loc 1 154 0
 117 004a BD46     		mov	sp, r7
 118 004c 80BC     		pop	{r7}
 119 004e 7047     		bx	lr
 120              		.cfi_endproc
 121              	.LFE1:
 122              		.size	UART_1_Init, .-UART_1_Init
 123              		.section	.text.UART_1_Enable,"ax",%progbits
 124              		.align	2
 125              		.global	UART_1_Enable
 126              		.thumb
 127              		.thumb_func
ARM GAS  C:\Users\SUZUKI~1\AppData\Local\Temp\ccLnHTOh.s 			page 6


 128              		.type	UART_1_Enable, %function
 129              	UART_1_Enable:
 130              	.LFB2:
 155:.\Generated_Source\PSoC5/UART_1.c **** 
 156:.\Generated_Source\PSoC5/UART_1.c **** 
 157:.\Generated_Source\PSoC5/UART_1.c **** /*******************************************************************************
 158:.\Generated_Source\PSoC5/UART_1.c **** * Function Name: UART_1_Enable
 159:.\Generated_Source\PSoC5/UART_1.c **** ********************************************************************************
 160:.\Generated_Source\PSoC5/UART_1.c **** *
 161:.\Generated_Source\PSoC5/UART_1.c **** * Summary:
 162:.\Generated_Source\PSoC5/UART_1.c **** *  Enables the UART block operation
 163:.\Generated_Source\PSoC5/UART_1.c **** *
 164:.\Generated_Source\PSoC5/UART_1.c **** * Parameters:
 165:.\Generated_Source\PSoC5/UART_1.c **** *  None.
 166:.\Generated_Source\PSoC5/UART_1.c **** *
 167:.\Generated_Source\PSoC5/UART_1.c **** * Return:
 168:.\Generated_Source\PSoC5/UART_1.c **** *  None.
 169:.\Generated_Source\PSoC5/UART_1.c **** *
 170:.\Generated_Source\PSoC5/UART_1.c **** * Global Variables:
 171:.\Generated_Source\PSoC5/UART_1.c **** *  UART_1_rxAddressDetected - set to initial state (0).
 172:.\Generated_Source\PSoC5/UART_1.c **** *
 173:.\Generated_Source\PSoC5/UART_1.c **** *******************************************************************************/
 174:.\Generated_Source\PSoC5/UART_1.c **** void UART_1_Enable(void) 
 175:.\Generated_Source\PSoC5/UART_1.c **** {
 131              		.loc 1 175 0
 132              		.cfi_startproc
 133              		@ args = 0, pretend = 0, frame = 8
 134              		@ frame_needed = 1, uses_anonymous_args = 0
 135 0000 80B5     		push	{r7, lr}
 136              	.LCFI4:
 137              		.cfi_def_cfa_offset 8
 138 0002 82B0     		sub	sp, sp, #8
 139              	.LCFI5:
 140              		.cfi_def_cfa_offset 16
 141 0004 00AF     		add	r7, sp, #0
 142              		.cfi_offset 14, -4
 143              		.cfi_offset 7, -8
 144              	.LCFI6:
 145              		.cfi_def_cfa_register 7
 176:.\Generated_Source\PSoC5/UART_1.c ****     uint8 enableInterrupts;
 177:.\Generated_Source\PSoC5/UART_1.c ****     enableInterrupts = CyEnterCriticalSection();
 146              		.loc 1 177 0
 147 0006 FFF7FEFF 		bl	CyEnterCriticalSection
 148 000a 0346     		mov	r3, r0
 149 000c FB71     		strb	r3, [r7, #7]
 178:.\Generated_Source\PSoC5/UART_1.c **** 
 179:.\Generated_Source\PSoC5/UART_1.c ****     #if(UART_1_RX_ENABLED || UART_1_HD_ENABLED)
 180:.\Generated_Source\PSoC5/UART_1.c ****         /*RX Counter (Count7) Enable */
 181:.\Generated_Source\PSoC5/UART_1.c ****         UART_1_RXBITCTR_CONTROL_REG |= UART_1_CNTR_ENABLE;
 150              		.loc 1 181 0
 151 000e 46F29643 		movw	r3, #:lower16:1073767574
 152 0012 C4F20003 		movt	r3, #:upper16:1073767574
 153 0016 46F29642 		movw	r2, #:lower16:1073767574
 154 001a C4F20002 		movt	r2, #:upper16:1073767574
 155 001e 1278     		ldrb	r2, [r2, #0]
 156 0020 D2B2     		uxtb	r2, r2
 157 0022 42F02002 		orr	r2, r2, #32
ARM GAS  C:\Users\SUZUKI~1\AppData\Local\Temp\ccLnHTOh.s 			page 7


 158 0026 D2B2     		uxtb	r2, r2
 159 0028 1A70     		strb	r2, [r3, #0]
 182:.\Generated_Source\PSoC5/UART_1.c ****         /* Enable the RX Interrupt. */
 183:.\Generated_Source\PSoC5/UART_1.c ****         UART_1_RXSTATUS_ACTL_REG  |= UART_1_INT_ENABLE;
 160              		.loc 1 183 0
 161 002a 46F29543 		movw	r3, #:lower16:1073767573
 162 002e C4F20003 		movt	r3, #:upper16:1073767573
 163 0032 46F29542 		movw	r2, #:lower16:1073767573
 164 0036 C4F20002 		movt	r2, #:upper16:1073767573
 165 003a 1278     		ldrb	r2, [r2, #0]
 166 003c D2B2     		uxtb	r2, r2
 167 003e 42F01002 		orr	r2, r2, #16
 168 0042 D2B2     		uxtb	r2, r2
 169 0044 1A70     		strb	r2, [r3, #0]
 184:.\Generated_Source\PSoC5/UART_1.c ****         #if(UART_1_RX_INTERRUPT_ENABLED && (UART_1_RXBUFFERSIZE > UART_1_FIFO_LENGTH))
 185:.\Generated_Source\PSoC5/UART_1.c ****             CyIntEnable(UART_1_RX_VECT_NUM);
 186:.\Generated_Source\PSoC5/UART_1.c ****             #if (UART_1_RXHW_ADDRESS_ENABLED)
 187:.\Generated_Source\PSoC5/UART_1.c ****                 UART_1_rxAddressDetected = 0u;
 188:.\Generated_Source\PSoC5/UART_1.c ****             #endif /* End UART_1_RXHW_ADDRESS_ENABLED */
 189:.\Generated_Source\PSoC5/UART_1.c ****         #endif /* End UART_1_RX_INTERRUPT_ENABLED */
 190:.\Generated_Source\PSoC5/UART_1.c ****     #endif /* End UART_1_RX_ENABLED || UART_1_HD_ENABLED*/
 191:.\Generated_Source\PSoC5/UART_1.c **** 
 192:.\Generated_Source\PSoC5/UART_1.c ****     #if(UART_1_TX_ENABLED)
 193:.\Generated_Source\PSoC5/UART_1.c ****         /*TX Counter (DP/Count7) Enable */
 194:.\Generated_Source\PSoC5/UART_1.c ****         #if(!UART_1_TXCLKGEN_DP)
 195:.\Generated_Source\PSoC5/UART_1.c ****             UART_1_TXBITCTR_CONTROL_REG |= UART_1_CNTR_ENABLE;
 196:.\Generated_Source\PSoC5/UART_1.c ****         #endif /* End UART_1_TXCLKGEN_DP */
 197:.\Generated_Source\PSoC5/UART_1.c ****         /* Enable the TX Interrupt. */
 198:.\Generated_Source\PSoC5/UART_1.c ****         UART_1_TXSTATUS_ACTL_REG |= UART_1_INT_ENABLE;
 170              		.loc 1 198 0
 171 0046 46F29443 		movw	r3, #:lower16:1073767572
 172 004a C4F20003 		movt	r3, #:upper16:1073767572
 173 004e 46F29442 		movw	r2, #:lower16:1073767572
 174 0052 C4F20002 		movt	r2, #:upper16:1073767572
 175 0056 1278     		ldrb	r2, [r2, #0]
 176 0058 D2B2     		uxtb	r2, r2
 177 005a 42F01002 		orr	r2, r2, #16
 178 005e D2B2     		uxtb	r2, r2
 179 0060 1A70     		strb	r2, [r3, #0]
 199:.\Generated_Source\PSoC5/UART_1.c ****         #if(UART_1_TX_INTERRUPT_ENABLED && (UART_1_TXBUFFERSIZE > UART_1_FIFO_LENGTH))
 200:.\Generated_Source\PSoC5/UART_1.c ****             CyIntEnable(UART_1_TX_VECT_NUM);
 201:.\Generated_Source\PSoC5/UART_1.c ****         #endif /* End UART_1_TX_INTERRUPT_ENABLED*/
 202:.\Generated_Source\PSoC5/UART_1.c ****      #endif /* End UART_1_TX_ENABLED */
 203:.\Generated_Source\PSoC5/UART_1.c **** 
 204:.\Generated_Source\PSoC5/UART_1.c ****     #if(UART_1_INTERNAL_CLOCK_USED)
 205:.\Generated_Source\PSoC5/UART_1.c ****         /* Enable the clock. */
 206:.\Generated_Source\PSoC5/UART_1.c ****         UART_1_IntClock_Start();
 180              		.loc 1 206 0
 181 0062 FFF7FEFF 		bl	UART_1_IntClock_Start
 207:.\Generated_Source\PSoC5/UART_1.c ****     #endif /* End UART_1_INTERNAL_CLOCK_USED */
 208:.\Generated_Source\PSoC5/UART_1.c **** 
 209:.\Generated_Source\PSoC5/UART_1.c ****     CyExitCriticalSection(enableInterrupts);
 182              		.loc 1 209 0
 183 0066 FB79     		ldrb	r3, [r7, #7]	@ zero_extendqisi2
 184 0068 1846     		mov	r0, r3
 185 006a FFF7FEFF 		bl	CyExitCriticalSection
 210:.\Generated_Source\PSoC5/UART_1.c **** }
ARM GAS  C:\Users\SUZUKI~1\AppData\Local\Temp\ccLnHTOh.s 			page 8


 186              		.loc 1 210 0
 187 006e 07F10807 		add	r7, r7, #8
 188 0072 BD46     		mov	sp, r7
 189 0074 80BD     		pop	{r7, pc}
 190              		.cfi_endproc
 191              	.LFE2:
 192              		.size	UART_1_Enable, .-UART_1_Enable
 193 0076 00BF     		.section	.text.UART_1_Stop,"ax",%progbits
 194              		.align	2
 195              		.global	UART_1_Stop
 196              		.thumb
 197              		.thumb_func
 198              		.type	UART_1_Stop, %function
 199              	UART_1_Stop:
 200              	.LFB3:
 211:.\Generated_Source\PSoC5/UART_1.c **** 
 212:.\Generated_Source\PSoC5/UART_1.c **** 
 213:.\Generated_Source\PSoC5/UART_1.c **** /*******************************************************************************
 214:.\Generated_Source\PSoC5/UART_1.c **** * Function Name: UART_1_Stop
 215:.\Generated_Source\PSoC5/UART_1.c **** ********************************************************************************
 216:.\Generated_Source\PSoC5/UART_1.c **** *
 217:.\Generated_Source\PSoC5/UART_1.c **** * Summary:
 218:.\Generated_Source\PSoC5/UART_1.c **** *  Disable the UART component
 219:.\Generated_Source\PSoC5/UART_1.c **** *
 220:.\Generated_Source\PSoC5/UART_1.c **** * Parameters:
 221:.\Generated_Source\PSoC5/UART_1.c **** *  None.
 222:.\Generated_Source\PSoC5/UART_1.c **** *
 223:.\Generated_Source\PSoC5/UART_1.c **** * Return:
 224:.\Generated_Source\PSoC5/UART_1.c **** *  None.
 225:.\Generated_Source\PSoC5/UART_1.c **** *
 226:.\Generated_Source\PSoC5/UART_1.c **** *******************************************************************************/
 227:.\Generated_Source\PSoC5/UART_1.c **** void UART_1_Stop(void) 
 228:.\Generated_Source\PSoC5/UART_1.c **** {
 201              		.loc 1 228 0
 202              		.cfi_startproc
 203              		@ args = 0, pretend = 0, frame = 8
 204              		@ frame_needed = 1, uses_anonymous_args = 0
 205 0000 80B5     		push	{r7, lr}
 206              	.LCFI7:
 207              		.cfi_def_cfa_offset 8
 208 0002 82B0     		sub	sp, sp, #8
 209              	.LCFI8:
 210              		.cfi_def_cfa_offset 16
 211 0004 00AF     		add	r7, sp, #0
 212              		.cfi_offset 14, -4
 213              		.cfi_offset 7, -8
 214              	.LCFI9:
 215              		.cfi_def_cfa_register 7
 229:.\Generated_Source\PSoC5/UART_1.c ****     uint8 enableInterrupts;
 230:.\Generated_Source\PSoC5/UART_1.c ****     enableInterrupts = CyEnterCriticalSection();
 216              		.loc 1 230 0
 217 0006 FFF7FEFF 		bl	CyEnterCriticalSection
 218 000a 0346     		mov	r3, r0
 219 000c FB71     		strb	r3, [r7, #7]
 231:.\Generated_Source\PSoC5/UART_1.c **** 
 232:.\Generated_Source\PSoC5/UART_1.c ****     /* Write Bit Counter Disable */
 233:.\Generated_Source\PSoC5/UART_1.c ****     #if(UART_1_RX_ENABLED || UART_1_HD_ENABLED)
ARM GAS  C:\Users\SUZUKI~1\AppData\Local\Temp\ccLnHTOh.s 			page 9


 234:.\Generated_Source\PSoC5/UART_1.c ****         UART_1_RXBITCTR_CONTROL_REG &= (uint8)~UART_1_CNTR_ENABLE;
 220              		.loc 1 234 0
 221 000e 46F29643 		movw	r3, #:lower16:1073767574
 222 0012 C4F20003 		movt	r3, #:upper16:1073767574
 223 0016 46F29642 		movw	r2, #:lower16:1073767574
 224 001a C4F20002 		movt	r2, #:upper16:1073767574
 225 001e 1278     		ldrb	r2, [r2, #0]
 226 0020 D2B2     		uxtb	r2, r2
 227 0022 02F0DF02 		and	r2, r2, #223
 228 0026 1A70     		strb	r2, [r3, #0]
 235:.\Generated_Source\PSoC5/UART_1.c ****     #endif /* End UART_1_RX_ENABLED */
 236:.\Generated_Source\PSoC5/UART_1.c **** 
 237:.\Generated_Source\PSoC5/UART_1.c ****     #if(UART_1_TX_ENABLED)
 238:.\Generated_Source\PSoC5/UART_1.c ****         #if(!UART_1_TXCLKGEN_DP)
 239:.\Generated_Source\PSoC5/UART_1.c ****             UART_1_TXBITCTR_CONTROL_REG &= (uint8)~UART_1_CNTR_ENABLE;
 240:.\Generated_Source\PSoC5/UART_1.c ****         #endif /* End UART_1_TXCLKGEN_DP */
 241:.\Generated_Source\PSoC5/UART_1.c ****     #endif /* UART_1_TX_ENABLED */
 242:.\Generated_Source\PSoC5/UART_1.c **** 
 243:.\Generated_Source\PSoC5/UART_1.c ****     #if(UART_1_INTERNAL_CLOCK_USED)
 244:.\Generated_Source\PSoC5/UART_1.c ****         /* Disable the clock. */
 245:.\Generated_Source\PSoC5/UART_1.c ****         UART_1_IntClock_Stop();
 229              		.loc 1 245 0
 230 0028 FFF7FEFF 		bl	UART_1_IntClock_Stop
 246:.\Generated_Source\PSoC5/UART_1.c ****     #endif /* End UART_1_INTERNAL_CLOCK_USED */
 247:.\Generated_Source\PSoC5/UART_1.c **** 
 248:.\Generated_Source\PSoC5/UART_1.c ****     /* Disable internal interrupt component */
 249:.\Generated_Source\PSoC5/UART_1.c ****     #if(UART_1_RX_ENABLED || UART_1_HD_ENABLED)
 250:.\Generated_Source\PSoC5/UART_1.c ****         UART_1_RXSTATUS_ACTL_REG  &= (uint8)~UART_1_INT_ENABLE;
 231              		.loc 1 250 0
 232 002c 46F29543 		movw	r3, #:lower16:1073767573
 233 0030 C4F20003 		movt	r3, #:upper16:1073767573
 234 0034 46F29542 		movw	r2, #:lower16:1073767573
 235 0038 C4F20002 		movt	r2, #:upper16:1073767573
 236 003c 1278     		ldrb	r2, [r2, #0]
 237 003e D2B2     		uxtb	r2, r2
 238 0040 02F0EF02 		and	r2, r2, #239
 239 0044 1A70     		strb	r2, [r3, #0]
 251:.\Generated_Source\PSoC5/UART_1.c ****         #if(UART_1_RX_INTERRUPT_ENABLED && (UART_1_RXBUFFERSIZE > UART_1_FIFO_LENGTH))
 252:.\Generated_Source\PSoC5/UART_1.c ****             UART_1_DisableRxInt();
 253:.\Generated_Source\PSoC5/UART_1.c ****         #endif /* End UART_1_RX_INTERRUPT_ENABLED */
 254:.\Generated_Source\PSoC5/UART_1.c ****     #endif /* End UART_1_RX_ENABLED */
 255:.\Generated_Source\PSoC5/UART_1.c **** 
 256:.\Generated_Source\PSoC5/UART_1.c ****     #if(UART_1_TX_ENABLED)
 257:.\Generated_Source\PSoC5/UART_1.c ****         UART_1_TXSTATUS_ACTL_REG &= (uint8)~UART_1_INT_ENABLE;
 240              		.loc 1 257 0
 241 0046 46F29443 		movw	r3, #:lower16:1073767572
 242 004a C4F20003 		movt	r3, #:upper16:1073767572
 243 004e 46F29442 		movw	r2, #:lower16:1073767572
 244 0052 C4F20002 		movt	r2, #:upper16:1073767572
 245 0056 1278     		ldrb	r2, [r2, #0]
 246 0058 D2B2     		uxtb	r2, r2
 247 005a 02F0EF02 		and	r2, r2, #239
 248 005e 1A70     		strb	r2, [r3, #0]
 258:.\Generated_Source\PSoC5/UART_1.c ****         #if(UART_1_TX_INTERRUPT_ENABLED && (UART_1_TXBUFFERSIZE > UART_1_FIFO_LENGTH))
 259:.\Generated_Source\PSoC5/UART_1.c ****             UART_1_DisableTxInt();
 260:.\Generated_Source\PSoC5/UART_1.c ****         #endif /* End UART_1_TX_INTERRUPT_ENABLED */
 261:.\Generated_Source\PSoC5/UART_1.c ****     #endif /* End UART_1_TX_ENABLED */
ARM GAS  C:\Users\SUZUKI~1\AppData\Local\Temp\ccLnHTOh.s 			page 10


 262:.\Generated_Source\PSoC5/UART_1.c **** 
 263:.\Generated_Source\PSoC5/UART_1.c ****     CyExitCriticalSection(enableInterrupts);
 249              		.loc 1 263 0
 250 0060 FB79     		ldrb	r3, [r7, #7]	@ zero_extendqisi2
 251 0062 1846     		mov	r0, r3
 252 0064 FFF7FEFF 		bl	CyExitCriticalSection
 264:.\Generated_Source\PSoC5/UART_1.c **** }
 253              		.loc 1 264 0
 254 0068 07F10807 		add	r7, r7, #8
 255 006c BD46     		mov	sp, r7
 256 006e 80BD     		pop	{r7, pc}
 257              		.cfi_endproc
 258              	.LFE3:
 259              		.size	UART_1_Stop, .-UART_1_Stop
 260              		.section	.text.UART_1_ReadControlRegister,"ax",%progbits
 261              		.align	2
 262              		.global	UART_1_ReadControlRegister
 263              		.thumb
 264              		.thumb_func
 265              		.type	UART_1_ReadControlRegister, %function
 266              	UART_1_ReadControlRegister:
 267              	.LFB4:
 265:.\Generated_Source\PSoC5/UART_1.c **** 
 266:.\Generated_Source\PSoC5/UART_1.c **** 
 267:.\Generated_Source\PSoC5/UART_1.c **** /*******************************************************************************
 268:.\Generated_Source\PSoC5/UART_1.c **** * Function Name: UART_1_ReadControlRegister
 269:.\Generated_Source\PSoC5/UART_1.c **** ********************************************************************************
 270:.\Generated_Source\PSoC5/UART_1.c **** *
 271:.\Generated_Source\PSoC5/UART_1.c **** * Summary:
 272:.\Generated_Source\PSoC5/UART_1.c **** *  Read the current state of the control register
 273:.\Generated_Source\PSoC5/UART_1.c **** *
 274:.\Generated_Source\PSoC5/UART_1.c **** * Parameters:
 275:.\Generated_Source\PSoC5/UART_1.c **** *  None.
 276:.\Generated_Source\PSoC5/UART_1.c **** *
 277:.\Generated_Source\PSoC5/UART_1.c **** * Return:
 278:.\Generated_Source\PSoC5/UART_1.c **** *  Current state of the control register.
 279:.\Generated_Source\PSoC5/UART_1.c **** *
 280:.\Generated_Source\PSoC5/UART_1.c **** *******************************************************************************/
 281:.\Generated_Source\PSoC5/UART_1.c **** uint8 UART_1_ReadControlRegister(void) 
 282:.\Generated_Source\PSoC5/UART_1.c **** {
 268              		.loc 1 282 0
 269              		.cfi_startproc
 270              		@ args = 0, pretend = 0, frame = 0
 271              		@ frame_needed = 1, uses_anonymous_args = 0
 272              		@ link register save eliminated.
 273 0000 80B4     		push	{r7}
 274              	.LCFI10:
 275              		.cfi_def_cfa_offset 4
 276 0002 00AF     		add	r7, sp, #0
 277              		.cfi_offset 7, -4
 278              	.LCFI11:
 279              		.cfi_def_cfa_register 7
 283:.\Generated_Source\PSoC5/UART_1.c ****     #if( UART_1_CONTROL_REG_REMOVED )
 284:.\Generated_Source\PSoC5/UART_1.c ****         return(0u);
 280              		.loc 1 284 0
 281 0004 4FF00003 		mov	r3, #0
 285:.\Generated_Source\PSoC5/UART_1.c ****     #else
ARM GAS  C:\Users\SUZUKI~1\AppData\Local\Temp\ccLnHTOh.s 			page 11


 286:.\Generated_Source\PSoC5/UART_1.c ****         return(UART_1_CONTROL_REG);
 287:.\Generated_Source\PSoC5/UART_1.c ****     #endif /* End UART_1_CONTROL_REG_REMOVED */
 288:.\Generated_Source\PSoC5/UART_1.c **** }
 282              		.loc 1 288 0
 283 0008 1846     		mov	r0, r3
 284 000a BD46     		mov	sp, r7
 285 000c 80BC     		pop	{r7}
 286 000e 7047     		bx	lr
 287              		.cfi_endproc
 288              	.LFE4:
 289              		.size	UART_1_ReadControlRegister, .-UART_1_ReadControlRegister
 290              		.section	.text.UART_1_WriteControlRegister,"ax",%progbits
 291              		.align	2
 292              		.global	UART_1_WriteControlRegister
 293              		.thumb
 294              		.thumb_func
 295              		.type	UART_1_WriteControlRegister, %function
 296              	UART_1_WriteControlRegister:
 297              	.LFB5:
 289:.\Generated_Source\PSoC5/UART_1.c **** 
 290:.\Generated_Source\PSoC5/UART_1.c **** 
 291:.\Generated_Source\PSoC5/UART_1.c **** /*******************************************************************************
 292:.\Generated_Source\PSoC5/UART_1.c **** * Function Name: UART_1_WriteControlRegister
 293:.\Generated_Source\PSoC5/UART_1.c **** ********************************************************************************
 294:.\Generated_Source\PSoC5/UART_1.c **** *
 295:.\Generated_Source\PSoC5/UART_1.c **** * Summary:
 296:.\Generated_Source\PSoC5/UART_1.c **** *  Writes an 8-bit value into the control register
 297:.\Generated_Source\PSoC5/UART_1.c **** *
 298:.\Generated_Source\PSoC5/UART_1.c **** * Parameters:
 299:.\Generated_Source\PSoC5/UART_1.c **** *  control:  control register value
 300:.\Generated_Source\PSoC5/UART_1.c **** *
 301:.\Generated_Source\PSoC5/UART_1.c **** * Return:
 302:.\Generated_Source\PSoC5/UART_1.c **** *  None.
 303:.\Generated_Source\PSoC5/UART_1.c **** *
 304:.\Generated_Source\PSoC5/UART_1.c **** *******************************************************************************/
 305:.\Generated_Source\PSoC5/UART_1.c **** void  UART_1_WriteControlRegister(uint8 control) 
 306:.\Generated_Source\PSoC5/UART_1.c **** {
 298              		.loc 1 306 0
 299              		.cfi_startproc
 300              		@ args = 0, pretend = 0, frame = 8
 301              		@ frame_needed = 1, uses_anonymous_args = 0
 302              		@ link register save eliminated.
 303 0000 80B4     		push	{r7}
 304              	.LCFI12:
 305              		.cfi_def_cfa_offset 4
 306 0002 83B0     		sub	sp, sp, #12
 307              	.LCFI13:
 308              		.cfi_def_cfa_offset 16
 309 0004 00AF     		add	r7, sp, #0
 310              		.cfi_offset 7, -4
 311              	.LCFI14:
 312              		.cfi_def_cfa_register 7
 313 0006 0346     		mov	r3, r0
 314 0008 FB71     		strb	r3, [r7, #7]
 307:.\Generated_Source\PSoC5/UART_1.c ****     #if( UART_1_CONTROL_REG_REMOVED )
 308:.\Generated_Source\PSoC5/UART_1.c ****         if(control != 0u) { }      /* release compiler warning */
 309:.\Generated_Source\PSoC5/UART_1.c ****     #else
ARM GAS  C:\Users\SUZUKI~1\AppData\Local\Temp\ccLnHTOh.s 			page 12


 310:.\Generated_Source\PSoC5/UART_1.c ****        UART_1_CONTROL_REG = control;
 311:.\Generated_Source\PSoC5/UART_1.c ****     #endif /* End UART_1_CONTROL_REG_REMOVED */
 312:.\Generated_Source\PSoC5/UART_1.c **** }
 315              		.loc 1 312 0
 316 000a 07F10C07 		add	r7, r7, #12
 317 000e BD46     		mov	sp, r7
 318 0010 80BC     		pop	{r7}
 319 0012 7047     		bx	lr
 320              		.cfi_endproc
 321              	.LFE5:
 322              		.size	UART_1_WriteControlRegister, .-UART_1_WriteControlRegister
 323              		.section	.text.UART_1_SetRxInterruptMode,"ax",%progbits
 324              		.align	2
 325              		.global	UART_1_SetRxInterruptMode
 326              		.thumb
 327              		.thumb_func
 328              		.type	UART_1_SetRxInterruptMode, %function
 329              	UART_1_SetRxInterruptMode:
 330              	.LFB6:
 313:.\Generated_Source\PSoC5/UART_1.c **** 
 314:.\Generated_Source\PSoC5/UART_1.c **** 
 315:.\Generated_Source\PSoC5/UART_1.c **** #if(UART_1_RX_ENABLED || UART_1_HD_ENABLED)
 316:.\Generated_Source\PSoC5/UART_1.c **** 
 317:.\Generated_Source\PSoC5/UART_1.c ****     #if(UART_1_RX_INTERRUPT_ENABLED)
 318:.\Generated_Source\PSoC5/UART_1.c **** 
 319:.\Generated_Source\PSoC5/UART_1.c ****         /*******************************************************************************
 320:.\Generated_Source\PSoC5/UART_1.c ****         * Function Name: UART_1_EnableRxInt
 321:.\Generated_Source\PSoC5/UART_1.c ****         ********************************************************************************
 322:.\Generated_Source\PSoC5/UART_1.c ****         *
 323:.\Generated_Source\PSoC5/UART_1.c ****         * Summary:
 324:.\Generated_Source\PSoC5/UART_1.c ****         *  Enable RX interrupt generation
 325:.\Generated_Source\PSoC5/UART_1.c ****         *
 326:.\Generated_Source\PSoC5/UART_1.c ****         * Parameters:
 327:.\Generated_Source\PSoC5/UART_1.c ****         *  None.
 328:.\Generated_Source\PSoC5/UART_1.c ****         *
 329:.\Generated_Source\PSoC5/UART_1.c ****         * Return:
 330:.\Generated_Source\PSoC5/UART_1.c ****         *  None.
 331:.\Generated_Source\PSoC5/UART_1.c ****         *
 332:.\Generated_Source\PSoC5/UART_1.c ****         * Theory:
 333:.\Generated_Source\PSoC5/UART_1.c ****         *  Enable the interrupt output -or- the interrupt component itself
 334:.\Generated_Source\PSoC5/UART_1.c ****         *
 335:.\Generated_Source\PSoC5/UART_1.c ****         *******************************************************************************/
 336:.\Generated_Source\PSoC5/UART_1.c ****         void UART_1_EnableRxInt(void) 
 337:.\Generated_Source\PSoC5/UART_1.c ****         {
 338:.\Generated_Source\PSoC5/UART_1.c ****             CyIntEnable(UART_1_RX_VECT_NUM);
 339:.\Generated_Source\PSoC5/UART_1.c ****         }
 340:.\Generated_Source\PSoC5/UART_1.c **** 
 341:.\Generated_Source\PSoC5/UART_1.c **** 
 342:.\Generated_Source\PSoC5/UART_1.c ****         /*******************************************************************************
 343:.\Generated_Source\PSoC5/UART_1.c ****         * Function Name: UART_1_DisableRxInt
 344:.\Generated_Source\PSoC5/UART_1.c ****         ********************************************************************************
 345:.\Generated_Source\PSoC5/UART_1.c ****         *
 346:.\Generated_Source\PSoC5/UART_1.c ****         * Summary:
 347:.\Generated_Source\PSoC5/UART_1.c ****         *  Disable RX interrupt generation
 348:.\Generated_Source\PSoC5/UART_1.c ****         *
 349:.\Generated_Source\PSoC5/UART_1.c ****         * Parameters:
 350:.\Generated_Source\PSoC5/UART_1.c ****         *  None.
ARM GAS  C:\Users\SUZUKI~1\AppData\Local\Temp\ccLnHTOh.s 			page 13


 351:.\Generated_Source\PSoC5/UART_1.c ****         *
 352:.\Generated_Source\PSoC5/UART_1.c ****         * Return:
 353:.\Generated_Source\PSoC5/UART_1.c ****         *  None.
 354:.\Generated_Source\PSoC5/UART_1.c ****         *
 355:.\Generated_Source\PSoC5/UART_1.c ****         * Theory:
 356:.\Generated_Source\PSoC5/UART_1.c ****         *  Disable the interrupt output -or- the interrupt component itself
 357:.\Generated_Source\PSoC5/UART_1.c ****         *
 358:.\Generated_Source\PSoC5/UART_1.c ****         *******************************************************************************/
 359:.\Generated_Source\PSoC5/UART_1.c ****         void UART_1_DisableRxInt(void) 
 360:.\Generated_Source\PSoC5/UART_1.c ****         {
 361:.\Generated_Source\PSoC5/UART_1.c ****             CyIntDisable(UART_1_RX_VECT_NUM);
 362:.\Generated_Source\PSoC5/UART_1.c ****         }
 363:.\Generated_Source\PSoC5/UART_1.c **** 
 364:.\Generated_Source\PSoC5/UART_1.c ****     #endif /* UART_1_RX_INTERRUPT_ENABLED */
 365:.\Generated_Source\PSoC5/UART_1.c **** 
 366:.\Generated_Source\PSoC5/UART_1.c **** 
 367:.\Generated_Source\PSoC5/UART_1.c ****     /*******************************************************************************
 368:.\Generated_Source\PSoC5/UART_1.c ****     * Function Name: UART_1_SetRxInterruptMode
 369:.\Generated_Source\PSoC5/UART_1.c ****     ********************************************************************************
 370:.\Generated_Source\PSoC5/UART_1.c ****     *
 371:.\Generated_Source\PSoC5/UART_1.c ****     * Summary:
 372:.\Generated_Source\PSoC5/UART_1.c ****     *  Configure which status bits trigger an interrupt event
 373:.\Generated_Source\PSoC5/UART_1.c ****     *
 374:.\Generated_Source\PSoC5/UART_1.c ****     * Parameters:
 375:.\Generated_Source\PSoC5/UART_1.c ****     *  IntSrc:  An or'd combination of the desired status bit masks (defined in
 376:.\Generated_Source\PSoC5/UART_1.c ****     *           the header file)
 377:.\Generated_Source\PSoC5/UART_1.c ****     *
 378:.\Generated_Source\PSoC5/UART_1.c ****     * Return:
 379:.\Generated_Source\PSoC5/UART_1.c ****     *  None.
 380:.\Generated_Source\PSoC5/UART_1.c ****     *
 381:.\Generated_Source\PSoC5/UART_1.c ****     * Theory:
 382:.\Generated_Source\PSoC5/UART_1.c ****     *  Enables the output of specific status bits to the interrupt controller
 383:.\Generated_Source\PSoC5/UART_1.c ****     *
 384:.\Generated_Source\PSoC5/UART_1.c ****     *******************************************************************************/
 385:.\Generated_Source\PSoC5/UART_1.c ****     void UART_1_SetRxInterruptMode(uint8 intSrc) 
 386:.\Generated_Source\PSoC5/UART_1.c ****     {
 331              		.loc 1 386 0
 332              		.cfi_startproc
 333              		@ args = 0, pretend = 0, frame = 8
 334              		@ frame_needed = 1, uses_anonymous_args = 0
 335              		@ link register save eliminated.
 336 0000 80B4     		push	{r7}
 337              	.LCFI15:
 338              		.cfi_def_cfa_offset 4
 339 0002 83B0     		sub	sp, sp, #12
 340              	.LCFI16:
 341              		.cfi_def_cfa_offset 16
 342 0004 00AF     		add	r7, sp, #0
 343              		.cfi_offset 7, -4
 344              	.LCFI17:
 345              		.cfi_def_cfa_register 7
 346 0006 0346     		mov	r3, r0
 347 0008 FB71     		strb	r3, [r7, #7]
 387:.\Generated_Source\PSoC5/UART_1.c ****         UART_1_RXSTATUS_MASK_REG  = intSrc;
 348              		.loc 1 387 0
 349 000a 46F28543 		movw	r3, #:lower16:1073767557
 350 000e C4F20003 		movt	r3, #:upper16:1073767557
ARM GAS  C:\Users\SUZUKI~1\AppData\Local\Temp\ccLnHTOh.s 			page 14


 351 0012 FA79     		ldrb	r2, [r7, #7]
 352 0014 1A70     		strb	r2, [r3, #0]
 388:.\Generated_Source\PSoC5/UART_1.c ****     }
 353              		.loc 1 388 0
 354 0016 07F10C07 		add	r7, r7, #12
 355 001a BD46     		mov	sp, r7
 356 001c 80BC     		pop	{r7}
 357 001e 7047     		bx	lr
 358              		.cfi_endproc
 359              	.LFE6:
 360              		.size	UART_1_SetRxInterruptMode, .-UART_1_SetRxInterruptMode
 361              		.section	.text.UART_1_ReadRxData,"ax",%progbits
 362              		.align	2
 363              		.global	UART_1_ReadRxData
 364              		.thumb
 365              		.thumb_func
 366              		.type	UART_1_ReadRxData, %function
 367              	UART_1_ReadRxData:
 368              	.LFB7:
 389:.\Generated_Source\PSoC5/UART_1.c **** 
 390:.\Generated_Source\PSoC5/UART_1.c **** 
 391:.\Generated_Source\PSoC5/UART_1.c ****     /*******************************************************************************
 392:.\Generated_Source\PSoC5/UART_1.c ****     * Function Name: UART_1_ReadRxData
 393:.\Generated_Source\PSoC5/UART_1.c ****     ********************************************************************************
 394:.\Generated_Source\PSoC5/UART_1.c ****     *
 395:.\Generated_Source\PSoC5/UART_1.c ****     * Summary:
 396:.\Generated_Source\PSoC5/UART_1.c ****     *  Returns data in RX Data register without checking status register to
 397:.\Generated_Source\PSoC5/UART_1.c ****     *  determine if data is valid
 398:.\Generated_Source\PSoC5/UART_1.c ****     *
 399:.\Generated_Source\PSoC5/UART_1.c ****     * Parameters:
 400:.\Generated_Source\PSoC5/UART_1.c ****     *  None.
 401:.\Generated_Source\PSoC5/UART_1.c ****     *
 402:.\Generated_Source\PSoC5/UART_1.c ****     * Return:
 403:.\Generated_Source\PSoC5/UART_1.c ****     *  Received data from RX register
 404:.\Generated_Source\PSoC5/UART_1.c ****     *
 405:.\Generated_Source\PSoC5/UART_1.c ****     * Global Variables:
 406:.\Generated_Source\PSoC5/UART_1.c ****     *  UART_1_rxBuffer - RAM buffer pointer for save received data.
 407:.\Generated_Source\PSoC5/UART_1.c ****     *  UART_1_rxBufferWrite - cyclic index for write to rxBuffer,
 408:.\Generated_Source\PSoC5/UART_1.c ****     *     checked to identify new data.
 409:.\Generated_Source\PSoC5/UART_1.c ****     *  UART_1_rxBufferRead - cyclic index for read from rxBuffer,
 410:.\Generated_Source\PSoC5/UART_1.c ****     *     incremented after each byte has been read from buffer.
 411:.\Generated_Source\PSoC5/UART_1.c ****     *  UART_1_rxBufferLoopDetect - creared if loop condition was detected
 412:.\Generated_Source\PSoC5/UART_1.c ****     *     in RX ISR.
 413:.\Generated_Source\PSoC5/UART_1.c ****     *
 414:.\Generated_Source\PSoC5/UART_1.c ****     * Reentrant:
 415:.\Generated_Source\PSoC5/UART_1.c ****     *  No.
 416:.\Generated_Source\PSoC5/UART_1.c ****     *
 417:.\Generated_Source\PSoC5/UART_1.c ****     *******************************************************************************/
 418:.\Generated_Source\PSoC5/UART_1.c ****     uint8 UART_1_ReadRxData(void) 
 419:.\Generated_Source\PSoC5/UART_1.c ****     {
 369              		.loc 1 419 0
 370              		.cfi_startproc
 371              		@ args = 0, pretend = 0, frame = 8
 372              		@ frame_needed = 1, uses_anonymous_args = 0
 373              		@ link register save eliminated.
 374 0000 80B4     		push	{r7}
 375              	.LCFI18:
ARM GAS  C:\Users\SUZUKI~1\AppData\Local\Temp\ccLnHTOh.s 			page 15


 376              		.cfi_def_cfa_offset 4
 377 0002 83B0     		sub	sp, sp, #12
 378              	.LCFI19:
 379              		.cfi_def_cfa_offset 16
 380 0004 00AF     		add	r7, sp, #0
 381              		.cfi_offset 7, -4
 382              	.LCFI20:
 383              		.cfi_def_cfa_register 7
 420:.\Generated_Source\PSoC5/UART_1.c ****         uint8 rxData;
 421:.\Generated_Source\PSoC5/UART_1.c **** 
 422:.\Generated_Source\PSoC5/UART_1.c ****         #if(UART_1_RXBUFFERSIZE > UART_1_FIFO_LENGTH)
 423:.\Generated_Source\PSoC5/UART_1.c ****             uint8 loc_rxBufferRead;
 424:.\Generated_Source\PSoC5/UART_1.c ****             uint8 loc_rxBufferWrite;
 425:.\Generated_Source\PSoC5/UART_1.c ****             /* Protect variables that could change on interrupt. */
 426:.\Generated_Source\PSoC5/UART_1.c ****             /* Disable Rx interrupt. */
 427:.\Generated_Source\PSoC5/UART_1.c ****             #if(UART_1_RX_INTERRUPT_ENABLED)
 428:.\Generated_Source\PSoC5/UART_1.c ****                 UART_1_DisableRxInt();
 429:.\Generated_Source\PSoC5/UART_1.c ****             #endif /* UART_1_RX_INTERRUPT_ENABLED */
 430:.\Generated_Source\PSoC5/UART_1.c ****             loc_rxBufferRead = UART_1_rxBufferRead;
 431:.\Generated_Source\PSoC5/UART_1.c ****             loc_rxBufferWrite = UART_1_rxBufferWrite;
 432:.\Generated_Source\PSoC5/UART_1.c **** 
 433:.\Generated_Source\PSoC5/UART_1.c ****             if( (UART_1_rxBufferLoopDetect != 0u) || (loc_rxBufferRead != loc_rxBufferWrite) )
 434:.\Generated_Source\PSoC5/UART_1.c ****             {
 435:.\Generated_Source\PSoC5/UART_1.c ****                 rxData = UART_1_rxBuffer[loc_rxBufferRead];
 436:.\Generated_Source\PSoC5/UART_1.c ****                 loc_rxBufferRead++;
 437:.\Generated_Source\PSoC5/UART_1.c **** 
 438:.\Generated_Source\PSoC5/UART_1.c ****                 if(loc_rxBufferRead >= UART_1_RXBUFFERSIZE)
 439:.\Generated_Source\PSoC5/UART_1.c ****                 {
 440:.\Generated_Source\PSoC5/UART_1.c ****                     loc_rxBufferRead = 0u;
 441:.\Generated_Source\PSoC5/UART_1.c ****                 }
 442:.\Generated_Source\PSoC5/UART_1.c ****                 /* Update the real pointer */
 443:.\Generated_Source\PSoC5/UART_1.c ****                 UART_1_rxBufferRead = loc_rxBufferRead;
 444:.\Generated_Source\PSoC5/UART_1.c **** 
 445:.\Generated_Source\PSoC5/UART_1.c ****                 if(UART_1_rxBufferLoopDetect != 0u )
 446:.\Generated_Source\PSoC5/UART_1.c ****                 {
 447:.\Generated_Source\PSoC5/UART_1.c ****                     UART_1_rxBufferLoopDetect = 0u;
 448:.\Generated_Source\PSoC5/UART_1.c ****                     #if( (UART_1_RX_INTERRUPT_ENABLED) && (UART_1_FLOW_CONTROL != 0u) && \
 449:.\Generated_Source\PSoC5/UART_1.c ****                          (UART_1_RXBUFFERSIZE > UART_1_FIFO_LENGTH) )
 450:.\Generated_Source\PSoC5/UART_1.c ****                         /* When Hardware Flow Control selected - return RX mask */
 451:.\Generated_Source\PSoC5/UART_1.c ****                         #if( UART_1_HD_ENABLED )
 452:.\Generated_Source\PSoC5/UART_1.c ****                             if((UART_1_CONTROL_REG & UART_1_CTRL_HD_SEND) == 0u)
 453:.\Generated_Source\PSoC5/UART_1.c ****                             {   /* In Half duplex mode return RX mask only in RX
 454:.\Generated_Source\PSoC5/UART_1.c ****                                 *  configuration set, otherwise
 455:.\Generated_Source\PSoC5/UART_1.c ****                                 *  mask will be returned in LoadRxConfig() API.
 456:.\Generated_Source\PSoC5/UART_1.c ****                                 */
 457:.\Generated_Source\PSoC5/UART_1.c ****                                 UART_1_RXSTATUS_MASK_REG  |= UART_1_RX_STS_FIFO_NOTEMPTY;
 458:.\Generated_Source\PSoC5/UART_1.c ****                             }
 459:.\Generated_Source\PSoC5/UART_1.c ****                         #else
 460:.\Generated_Source\PSoC5/UART_1.c ****                             UART_1_RXSTATUS_MASK_REG  |= UART_1_RX_STS_FIFO_NOTEMPTY;
 461:.\Generated_Source\PSoC5/UART_1.c ****                         #endif /* end UART_1_HD_ENABLED */
 462:.\Generated_Source\PSoC5/UART_1.c ****                     #endif /* UART_1_RX_INTERRUPT_ENABLED and Hardware flow control*/
 463:.\Generated_Source\PSoC5/UART_1.c ****                 }
 464:.\Generated_Source\PSoC5/UART_1.c ****             }
 465:.\Generated_Source\PSoC5/UART_1.c ****             else
 466:.\Generated_Source\PSoC5/UART_1.c ****             {   /* Needs to check status for RX_STS_FIFO_NOTEMPTY bit*/
 467:.\Generated_Source\PSoC5/UART_1.c ****                 rxData = UART_1_RXDATA_REG;
 468:.\Generated_Source\PSoC5/UART_1.c ****             }
ARM GAS  C:\Users\SUZUKI~1\AppData\Local\Temp\ccLnHTOh.s 			page 16


 469:.\Generated_Source\PSoC5/UART_1.c **** 
 470:.\Generated_Source\PSoC5/UART_1.c ****             /* Enable Rx interrupt. */
 471:.\Generated_Source\PSoC5/UART_1.c ****             #if(UART_1_RX_INTERRUPT_ENABLED)
 472:.\Generated_Source\PSoC5/UART_1.c ****                 UART_1_EnableRxInt();
 473:.\Generated_Source\PSoC5/UART_1.c ****             #endif /* End UART_1_RX_INTERRUPT_ENABLED */
 474:.\Generated_Source\PSoC5/UART_1.c **** 
 475:.\Generated_Source\PSoC5/UART_1.c ****         #else /* UART_1_RXBUFFERSIZE > UART_1_FIFO_LENGTH */
 476:.\Generated_Source\PSoC5/UART_1.c **** 
 477:.\Generated_Source\PSoC5/UART_1.c ****             /* Needs to check status for RX_STS_FIFO_NOTEMPTY bit*/
 478:.\Generated_Source\PSoC5/UART_1.c ****             rxData = UART_1_RXDATA_REG;
 384              		.loc 1 478 0
 385 0006 46F24643 		movw	r3, #:lower16:1073767494
 386 000a C4F20003 		movt	r3, #:upper16:1073767494
 387 000e 1B78     		ldrb	r3, [r3, #0]
 388 0010 FB71     		strb	r3, [r7, #7]
 479:.\Generated_Source\PSoC5/UART_1.c **** 
 480:.\Generated_Source\PSoC5/UART_1.c ****         #endif /* UART_1_RXBUFFERSIZE > UART_1_FIFO_LENGTH */
 481:.\Generated_Source\PSoC5/UART_1.c **** 
 482:.\Generated_Source\PSoC5/UART_1.c ****         return(rxData);
 389              		.loc 1 482 0
 390 0012 FB79     		ldrb	r3, [r7, #7]	@ zero_extendqisi2
 483:.\Generated_Source\PSoC5/UART_1.c ****     }
 391              		.loc 1 483 0
 392 0014 1846     		mov	r0, r3
 393 0016 07F10C07 		add	r7, r7, #12
 394 001a BD46     		mov	sp, r7
 395 001c 80BC     		pop	{r7}
 396 001e 7047     		bx	lr
 397              		.cfi_endproc
 398              	.LFE7:
 399              		.size	UART_1_ReadRxData, .-UART_1_ReadRxData
 400              		.section	.text.UART_1_ReadRxStatus,"ax",%progbits
 401              		.align	2
 402              		.global	UART_1_ReadRxStatus
 403              		.thumb
 404              		.thumb_func
 405              		.type	UART_1_ReadRxStatus, %function
 406              	UART_1_ReadRxStatus:
 407              	.LFB8:
 484:.\Generated_Source\PSoC5/UART_1.c **** 
 485:.\Generated_Source\PSoC5/UART_1.c **** 
 486:.\Generated_Source\PSoC5/UART_1.c ****     /*******************************************************************************
 487:.\Generated_Source\PSoC5/UART_1.c ****     * Function Name: UART_1_ReadRxStatus
 488:.\Generated_Source\PSoC5/UART_1.c ****     ********************************************************************************
 489:.\Generated_Source\PSoC5/UART_1.c ****     *
 490:.\Generated_Source\PSoC5/UART_1.c ****     * Summary:
 491:.\Generated_Source\PSoC5/UART_1.c ****     *  Read the current state of the status register
 492:.\Generated_Source\PSoC5/UART_1.c ****     *  And detect software buffer overflow.
 493:.\Generated_Source\PSoC5/UART_1.c ****     *
 494:.\Generated_Source\PSoC5/UART_1.c ****     * Parameters:
 495:.\Generated_Source\PSoC5/UART_1.c ****     *  None.
 496:.\Generated_Source\PSoC5/UART_1.c ****     *
 497:.\Generated_Source\PSoC5/UART_1.c ****     * Return:
 498:.\Generated_Source\PSoC5/UART_1.c ****     *  Current state of the status register.
 499:.\Generated_Source\PSoC5/UART_1.c ****     *
 500:.\Generated_Source\PSoC5/UART_1.c ****     * Global Variables:
 501:.\Generated_Source\PSoC5/UART_1.c ****     *  UART_1_rxBufferOverflow - used to indicate overload condition.
ARM GAS  C:\Users\SUZUKI~1\AppData\Local\Temp\ccLnHTOh.s 			page 17


 502:.\Generated_Source\PSoC5/UART_1.c ****     *   It set to one in RX interrupt when there isn?t free space in
 503:.\Generated_Source\PSoC5/UART_1.c ****     *   UART_1_rxBufferRead to write new data. This condition returned
 504:.\Generated_Source\PSoC5/UART_1.c ****     *   and cleared to zero by this API as an
 505:.\Generated_Source\PSoC5/UART_1.c ****     *   UART_1_RX_STS_SOFT_BUFF_OVER bit along with RX Status register
 506:.\Generated_Source\PSoC5/UART_1.c ****     *   bits.
 507:.\Generated_Source\PSoC5/UART_1.c ****     *
 508:.\Generated_Source\PSoC5/UART_1.c ****     *******************************************************************************/
 509:.\Generated_Source\PSoC5/UART_1.c ****     uint8 UART_1_ReadRxStatus(void) 
 510:.\Generated_Source\PSoC5/UART_1.c ****     {
 408              		.loc 1 510 0
 409              		.cfi_startproc
 410              		@ args = 0, pretend = 0, frame = 8
 411              		@ frame_needed = 1, uses_anonymous_args = 0
 412              		@ link register save eliminated.
 413 0000 80B4     		push	{r7}
 414              	.LCFI21:
 415              		.cfi_def_cfa_offset 4
 416 0002 83B0     		sub	sp, sp, #12
 417              	.LCFI22:
 418              		.cfi_def_cfa_offset 16
 419 0004 00AF     		add	r7, sp, #0
 420              		.cfi_offset 7, -4
 421              	.LCFI23:
 422              		.cfi_def_cfa_register 7
 511:.\Generated_Source\PSoC5/UART_1.c ****         uint8 status;
 512:.\Generated_Source\PSoC5/UART_1.c **** 
 513:.\Generated_Source\PSoC5/UART_1.c ****         status = UART_1_RXSTATUS_REG & UART_1_RX_HW_MASK;
 423              		.loc 1 513 0
 424 0006 46F26543 		movw	r3, #:lower16:1073767525
 425 000a C4F20003 		movt	r3, #:upper16:1073767525
 426 000e 1B78     		ldrb	r3, [r3, #0]
 427 0010 DBB2     		uxtb	r3, r3
 428 0012 03F07F03 		and	r3, r3, #127
 429 0016 FB71     		strb	r3, [r7, #7]
 514:.\Generated_Source\PSoC5/UART_1.c **** 
 515:.\Generated_Source\PSoC5/UART_1.c ****         #if(UART_1_RXBUFFERSIZE > UART_1_FIFO_LENGTH)
 516:.\Generated_Source\PSoC5/UART_1.c ****             if( UART_1_rxBufferOverflow != 0u )
 517:.\Generated_Source\PSoC5/UART_1.c ****             {
 518:.\Generated_Source\PSoC5/UART_1.c ****                 status |= UART_1_RX_STS_SOFT_BUFF_OVER;
 519:.\Generated_Source\PSoC5/UART_1.c ****                 UART_1_rxBufferOverflow = 0u;
 520:.\Generated_Source\PSoC5/UART_1.c ****             }
 521:.\Generated_Source\PSoC5/UART_1.c ****         #endif /* UART_1_RXBUFFERSIZE */
 522:.\Generated_Source\PSoC5/UART_1.c **** 
 523:.\Generated_Source\PSoC5/UART_1.c ****         return(status);
 430              		.loc 1 523 0
 431 0018 FB79     		ldrb	r3, [r7, #7]	@ zero_extendqisi2
 524:.\Generated_Source\PSoC5/UART_1.c ****     }
 432              		.loc 1 524 0
 433 001a 1846     		mov	r0, r3
 434 001c 07F10C07 		add	r7, r7, #12
 435 0020 BD46     		mov	sp, r7
 436 0022 80BC     		pop	{r7}
 437 0024 7047     		bx	lr
 438              		.cfi_endproc
 439              	.LFE8:
 440              		.size	UART_1_ReadRxStatus, .-UART_1_ReadRxStatus
 441 0026 00BF     		.section	.text.UART_1_GetChar,"ax",%progbits
ARM GAS  C:\Users\SUZUKI~1\AppData\Local\Temp\ccLnHTOh.s 			page 18


 442              		.align	2
 443              		.global	UART_1_GetChar
 444              		.thumb
 445              		.thumb_func
 446              		.type	UART_1_GetChar, %function
 447              	UART_1_GetChar:
 448              	.LFB9:
 525:.\Generated_Source\PSoC5/UART_1.c **** 
 526:.\Generated_Source\PSoC5/UART_1.c **** 
 527:.\Generated_Source\PSoC5/UART_1.c ****     /*******************************************************************************
 528:.\Generated_Source\PSoC5/UART_1.c ****     * Function Name: UART_1_GetChar
 529:.\Generated_Source\PSoC5/UART_1.c ****     ********************************************************************************
 530:.\Generated_Source\PSoC5/UART_1.c ****     *
 531:.\Generated_Source\PSoC5/UART_1.c ****     * Summary:
 532:.\Generated_Source\PSoC5/UART_1.c ****     *  Reads UART RX buffer immediately, if data is not available or an error
 533:.\Generated_Source\PSoC5/UART_1.c ****     *  condition exists, zero is returned; otherwise, character is read and
 534:.\Generated_Source\PSoC5/UART_1.c ****     *  returned.
 535:.\Generated_Source\PSoC5/UART_1.c ****     *
 536:.\Generated_Source\PSoC5/UART_1.c ****     * Parameters:
 537:.\Generated_Source\PSoC5/UART_1.c ****     *  None.
 538:.\Generated_Source\PSoC5/UART_1.c ****     *
 539:.\Generated_Source\PSoC5/UART_1.c ****     * Return:
 540:.\Generated_Source\PSoC5/UART_1.c ****     *  Character read from UART RX buffer. ASCII characters from 1 to 255 are valid.
 541:.\Generated_Source\PSoC5/UART_1.c ****     *  A returned zero signifies an error condition or no data available.
 542:.\Generated_Source\PSoC5/UART_1.c ****     *
 543:.\Generated_Source\PSoC5/UART_1.c ****     * Global Variables:
 544:.\Generated_Source\PSoC5/UART_1.c ****     *  UART_1_rxBuffer - RAM buffer pointer for save received data.
 545:.\Generated_Source\PSoC5/UART_1.c ****     *  UART_1_rxBufferWrite - cyclic index for write to rxBuffer,
 546:.\Generated_Source\PSoC5/UART_1.c ****     *     checked to identify new data.
 547:.\Generated_Source\PSoC5/UART_1.c ****     *  UART_1_rxBufferRead - cyclic index for read from rxBuffer,
 548:.\Generated_Source\PSoC5/UART_1.c ****     *     incremented after each byte has been read from buffer.
 549:.\Generated_Source\PSoC5/UART_1.c ****     *  UART_1_rxBufferLoopDetect - creared if loop condition was detected
 550:.\Generated_Source\PSoC5/UART_1.c ****     *     in RX ISR.
 551:.\Generated_Source\PSoC5/UART_1.c ****     *
 552:.\Generated_Source\PSoC5/UART_1.c ****     * Reentrant:
 553:.\Generated_Source\PSoC5/UART_1.c ****     *  No.
 554:.\Generated_Source\PSoC5/UART_1.c ****     *
 555:.\Generated_Source\PSoC5/UART_1.c ****     *******************************************************************************/
 556:.\Generated_Source\PSoC5/UART_1.c ****     uint8 UART_1_GetChar(void) 
 557:.\Generated_Source\PSoC5/UART_1.c ****     {
 449              		.loc 1 557 0
 450              		.cfi_startproc
 451              		@ args = 0, pretend = 0, frame = 8
 452              		@ frame_needed = 1, uses_anonymous_args = 0
 453              		@ link register save eliminated.
 454 0000 80B4     		push	{r7}
 455              	.LCFI24:
 456              		.cfi_def_cfa_offset 4
 457 0002 83B0     		sub	sp, sp, #12
 458              	.LCFI25:
 459              		.cfi_def_cfa_offset 16
 460 0004 00AF     		add	r7, sp, #0
 461              		.cfi_offset 7, -4
 462              	.LCFI26:
 463              		.cfi_def_cfa_register 7
 558:.\Generated_Source\PSoC5/UART_1.c ****         uint8 rxData = 0u;
 464              		.loc 1 558 0
ARM GAS  C:\Users\SUZUKI~1\AppData\Local\Temp\ccLnHTOh.s 			page 19


 465 0006 4FF00003 		mov	r3, #0
 466 000a BB71     		strb	r3, [r7, #6]
 559:.\Generated_Source\PSoC5/UART_1.c ****         uint8 rxStatus;
 560:.\Generated_Source\PSoC5/UART_1.c **** 
 561:.\Generated_Source\PSoC5/UART_1.c ****         #if(UART_1_RXBUFFERSIZE > UART_1_FIFO_LENGTH)
 562:.\Generated_Source\PSoC5/UART_1.c ****             uint8 loc_rxBufferRead;
 563:.\Generated_Source\PSoC5/UART_1.c ****             uint8 loc_rxBufferWrite;
 564:.\Generated_Source\PSoC5/UART_1.c ****             /* Protect variables that could change on interrupt. */
 565:.\Generated_Source\PSoC5/UART_1.c ****             /* Disable Rx interrupt. */
 566:.\Generated_Source\PSoC5/UART_1.c ****             #if(UART_1_RX_INTERRUPT_ENABLED)
 567:.\Generated_Source\PSoC5/UART_1.c ****                 UART_1_DisableRxInt();
 568:.\Generated_Source\PSoC5/UART_1.c ****             #endif /* UART_1_RX_INTERRUPT_ENABLED */
 569:.\Generated_Source\PSoC5/UART_1.c ****             loc_rxBufferRead = UART_1_rxBufferRead;
 570:.\Generated_Source\PSoC5/UART_1.c ****             loc_rxBufferWrite = UART_1_rxBufferWrite;
 571:.\Generated_Source\PSoC5/UART_1.c **** 
 572:.\Generated_Source\PSoC5/UART_1.c ****             if( (UART_1_rxBufferLoopDetect != 0u) || (loc_rxBufferRead != loc_rxBufferWrite) )
 573:.\Generated_Source\PSoC5/UART_1.c ****             {
 574:.\Generated_Source\PSoC5/UART_1.c ****                 rxData = UART_1_rxBuffer[loc_rxBufferRead];
 575:.\Generated_Source\PSoC5/UART_1.c ****                 loc_rxBufferRead++;
 576:.\Generated_Source\PSoC5/UART_1.c ****                 if(loc_rxBufferRead >= UART_1_RXBUFFERSIZE)
 577:.\Generated_Source\PSoC5/UART_1.c ****                 {
 578:.\Generated_Source\PSoC5/UART_1.c ****                     loc_rxBufferRead = 0u;
 579:.\Generated_Source\PSoC5/UART_1.c ****                 }
 580:.\Generated_Source\PSoC5/UART_1.c ****                 /* Update the real pointer */
 581:.\Generated_Source\PSoC5/UART_1.c ****                 UART_1_rxBufferRead = loc_rxBufferRead;
 582:.\Generated_Source\PSoC5/UART_1.c **** 
 583:.\Generated_Source\PSoC5/UART_1.c ****                 if(UART_1_rxBufferLoopDetect > 0u )
 584:.\Generated_Source\PSoC5/UART_1.c ****                 {
 585:.\Generated_Source\PSoC5/UART_1.c ****                     UART_1_rxBufferLoopDetect = 0u;
 586:.\Generated_Source\PSoC5/UART_1.c ****                     #if( (UART_1_RX_INTERRUPT_ENABLED) && (UART_1_FLOW_CONTROL != 0u) )
 587:.\Generated_Source\PSoC5/UART_1.c ****                         /* When Hardware Flow Control selected - return RX mask */
 588:.\Generated_Source\PSoC5/UART_1.c ****                         #if( UART_1_HD_ENABLED )
 589:.\Generated_Source\PSoC5/UART_1.c ****                             if((UART_1_CONTROL_REG & UART_1_CTRL_HD_SEND) == 0u)
 590:.\Generated_Source\PSoC5/UART_1.c ****                             {   /* In Half duplex mode return RX mask only if
 591:.\Generated_Source\PSoC5/UART_1.c ****                                 *  RX configuration set, otherwise
 592:.\Generated_Source\PSoC5/UART_1.c ****                                 *  mask will be returned in LoadRxConfig() API.
 593:.\Generated_Source\PSoC5/UART_1.c ****                                 */
 594:.\Generated_Source\PSoC5/UART_1.c ****                                 UART_1_RXSTATUS_MASK_REG  |= UART_1_RX_STS_FIFO_NOTEMPTY;
 595:.\Generated_Source\PSoC5/UART_1.c ****                             }
 596:.\Generated_Source\PSoC5/UART_1.c ****                         #else
 597:.\Generated_Source\PSoC5/UART_1.c ****                             UART_1_RXSTATUS_MASK_REG  |= UART_1_RX_STS_FIFO_NOTEMPTY;
 598:.\Generated_Source\PSoC5/UART_1.c ****                         #endif /* end UART_1_HD_ENABLED */
 599:.\Generated_Source\PSoC5/UART_1.c ****                     #endif /* UART_1_RX_INTERRUPT_ENABLED and Hardware flow control*/
 600:.\Generated_Source\PSoC5/UART_1.c ****                 }
 601:.\Generated_Source\PSoC5/UART_1.c **** 
 602:.\Generated_Source\PSoC5/UART_1.c ****             }
 603:.\Generated_Source\PSoC5/UART_1.c ****             else
 604:.\Generated_Source\PSoC5/UART_1.c ****             {   rxStatus = UART_1_RXSTATUS_REG;
 605:.\Generated_Source\PSoC5/UART_1.c ****                 if((rxStatus & UART_1_RX_STS_FIFO_NOTEMPTY) != 0u)
 606:.\Generated_Source\PSoC5/UART_1.c ****                 {   /* Read received data from FIFO*/
 607:.\Generated_Source\PSoC5/UART_1.c ****                     rxData = UART_1_RXDATA_REG;
 608:.\Generated_Source\PSoC5/UART_1.c ****                     /*Check status on error*/
 609:.\Generated_Source\PSoC5/UART_1.c ****                     if((rxStatus & (UART_1_RX_STS_BREAK | UART_1_RX_STS_PAR_ERROR |
 610:.\Generated_Source\PSoC5/UART_1.c ****                                    UART_1_RX_STS_STOP_ERROR | UART_1_RX_STS_OVERRUN)) != 0u)
 611:.\Generated_Source\PSoC5/UART_1.c ****                     {
 612:.\Generated_Source\PSoC5/UART_1.c ****                         rxData = 0u;
 613:.\Generated_Source\PSoC5/UART_1.c ****                     }
ARM GAS  C:\Users\SUZUKI~1\AppData\Local\Temp\ccLnHTOh.s 			page 20


 614:.\Generated_Source\PSoC5/UART_1.c ****                 }
 615:.\Generated_Source\PSoC5/UART_1.c ****             }
 616:.\Generated_Source\PSoC5/UART_1.c **** 
 617:.\Generated_Source\PSoC5/UART_1.c ****             /* Enable Rx interrupt. */
 618:.\Generated_Source\PSoC5/UART_1.c ****             #if(UART_1_RX_INTERRUPT_ENABLED)
 619:.\Generated_Source\PSoC5/UART_1.c ****                 UART_1_EnableRxInt();
 620:.\Generated_Source\PSoC5/UART_1.c ****             #endif /* UART_1_RX_INTERRUPT_ENABLED */
 621:.\Generated_Source\PSoC5/UART_1.c **** 
 622:.\Generated_Source\PSoC5/UART_1.c ****         #else /* UART_1_RXBUFFERSIZE > UART_1_FIFO_LENGTH */
 623:.\Generated_Source\PSoC5/UART_1.c **** 
 624:.\Generated_Source\PSoC5/UART_1.c ****             rxStatus =UART_1_RXSTATUS_REG;
 467              		.loc 1 624 0
 468 000c 46F26543 		movw	r3, #:lower16:1073767525
 469 0010 C4F20003 		movt	r3, #:upper16:1073767525
 470 0014 1B78     		ldrb	r3, [r3, #0]
 471 0016 FB71     		strb	r3, [r7, #7]
 625:.\Generated_Source\PSoC5/UART_1.c ****             if((rxStatus & UART_1_RX_STS_FIFO_NOTEMPTY) != 0u)
 472              		.loc 1 625 0
 473 0018 FB79     		ldrb	r3, [r7, #7]	@ zero_extendqisi2
 474 001a 03F02003 		and	r3, r3, #32
 475 001e 002B     		cmp	r3, #0
 476 0020 0DD0     		beq	.L21
 626:.\Generated_Source\PSoC5/UART_1.c ****             {   /* Read received data from FIFO*/
 627:.\Generated_Source\PSoC5/UART_1.c ****                 rxData = UART_1_RXDATA_REG;
 477              		.loc 1 627 0
 478 0022 46F24643 		movw	r3, #:lower16:1073767494
 479 0026 C4F20003 		movt	r3, #:upper16:1073767494
 480 002a 1B78     		ldrb	r3, [r3, #0]
 481 002c BB71     		strb	r3, [r7, #6]
 628:.\Generated_Source\PSoC5/UART_1.c ****                 /*Check status on error*/
 629:.\Generated_Source\PSoC5/UART_1.c ****                 if((rxStatus & (UART_1_RX_STS_BREAK | UART_1_RX_STS_PAR_ERROR |
 482              		.loc 1 629 0
 483 002e FB79     		ldrb	r3, [r7, #7]	@ zero_extendqisi2
 484 0030 03F01E03 		and	r3, r3, #30
 485 0034 002B     		cmp	r3, #0
 486 0036 02D0     		beq	.L21
 630:.\Generated_Source\PSoC5/UART_1.c ****                                UART_1_RX_STS_STOP_ERROR | UART_1_RX_STS_OVERRUN)) != 0u)
 631:.\Generated_Source\PSoC5/UART_1.c ****                 {
 632:.\Generated_Source\PSoC5/UART_1.c ****                     rxData = 0u;
 487              		.loc 1 632 0
 488 0038 4FF00003 		mov	r3, #0
 489 003c BB71     		strb	r3, [r7, #6]
 490              	.L21:
 633:.\Generated_Source\PSoC5/UART_1.c ****                 }
 634:.\Generated_Source\PSoC5/UART_1.c ****             }
 635:.\Generated_Source\PSoC5/UART_1.c ****         #endif /* UART_1_RXBUFFERSIZE > UART_1_FIFO_LENGTH */
 636:.\Generated_Source\PSoC5/UART_1.c **** 
 637:.\Generated_Source\PSoC5/UART_1.c ****         return(rxData);
 491              		.loc 1 637 0
 492 003e BB79     		ldrb	r3, [r7, #6]	@ zero_extendqisi2
 638:.\Generated_Source\PSoC5/UART_1.c ****     }
 493              		.loc 1 638 0
 494 0040 1846     		mov	r0, r3
 495 0042 07F10C07 		add	r7, r7, #12
 496 0046 BD46     		mov	sp, r7
 497 0048 80BC     		pop	{r7}
 498 004a 7047     		bx	lr
ARM GAS  C:\Users\SUZUKI~1\AppData\Local\Temp\ccLnHTOh.s 			page 21


 499              		.cfi_endproc
 500              	.LFE9:
 501              		.size	UART_1_GetChar, .-UART_1_GetChar
 502              		.section	.text.UART_1_GetByte,"ax",%progbits
 503              		.align	2
 504              		.global	UART_1_GetByte
 505              		.thumb
 506              		.thumb_func
 507              		.type	UART_1_GetByte, %function
 508              	UART_1_GetByte:
 509              	.LFB10:
 639:.\Generated_Source\PSoC5/UART_1.c **** 
 640:.\Generated_Source\PSoC5/UART_1.c **** 
 641:.\Generated_Source\PSoC5/UART_1.c ****     /*******************************************************************************
 642:.\Generated_Source\PSoC5/UART_1.c ****     * Function Name: UART_1_GetByte
 643:.\Generated_Source\PSoC5/UART_1.c ****     ********************************************************************************
 644:.\Generated_Source\PSoC5/UART_1.c ****     *
 645:.\Generated_Source\PSoC5/UART_1.c ****     * Summary:
 646:.\Generated_Source\PSoC5/UART_1.c ****     *  Grab the next available byte of data from the recieve FIFO
 647:.\Generated_Source\PSoC5/UART_1.c ****     *
 648:.\Generated_Source\PSoC5/UART_1.c ****     * Parameters:
 649:.\Generated_Source\PSoC5/UART_1.c ****     *  None.
 650:.\Generated_Source\PSoC5/UART_1.c ****     *
 651:.\Generated_Source\PSoC5/UART_1.c ****     * Return:
 652:.\Generated_Source\PSoC5/UART_1.c ****     *  MSB contains Status Register and LSB contains UART RX data
 653:.\Generated_Source\PSoC5/UART_1.c ****     *
 654:.\Generated_Source\PSoC5/UART_1.c ****     * Reentrant:
 655:.\Generated_Source\PSoC5/UART_1.c ****     *  No.
 656:.\Generated_Source\PSoC5/UART_1.c ****     *
 657:.\Generated_Source\PSoC5/UART_1.c ****     *******************************************************************************/
 658:.\Generated_Source\PSoC5/UART_1.c ****     uint16 UART_1_GetByte(void) 
 659:.\Generated_Source\PSoC5/UART_1.c ****     {
 510              		.loc 1 659 0
 511              		.cfi_startproc
 512              		@ args = 0, pretend = 0, frame = 0
 513              		@ frame_needed = 1, uses_anonymous_args = 0
 514 0000 98B5     		push	{r3, r4, r7, lr}
 515              	.LCFI27:
 516              		.cfi_def_cfa_offset 16
 517 0002 00AF     		add	r7, sp, #0
 518              		.cfi_offset 14, -4
 519              		.cfi_offset 7, -8
 520              		.cfi_offset 4, -12
 521              		.cfi_offset 3, -16
 522              	.LCFI28:
 523              		.cfi_def_cfa_register 7
 660:.\Generated_Source\PSoC5/UART_1.c ****         return ( ((uint16)UART_1_ReadRxStatus() << 8u) | UART_1_ReadRxData() );
 524              		.loc 1 660 0
 525 0004 FFF7FEFF 		bl	UART_1_ReadRxStatus
 526 0008 0346     		mov	r3, r0
 527 000a 4FEA0323 		lsl	r3, r3, #8
 528 000e 9CB2     		uxth	r4, r3
 529 0010 FFF7FEFF 		bl	UART_1_ReadRxData
 530 0014 0346     		mov	r3, r0
 531 0016 2246     		mov	r2, r4	@ movhi
 532 0018 42EA0303 		orr	r3, r2, r3
 533 001c 9BB2     		uxth	r3, r3
ARM GAS  C:\Users\SUZUKI~1\AppData\Local\Temp\ccLnHTOh.s 			page 22


 534 001e 9BB2     		uxth	r3, r3
 661:.\Generated_Source\PSoC5/UART_1.c ****     }
 535              		.loc 1 661 0
 536 0020 1846     		mov	r0, r3
 537 0022 98BD     		pop	{r3, r4, r7, pc}
 538              		.cfi_endproc
 539              	.LFE10:
 540              		.size	UART_1_GetByte, .-UART_1_GetByte
 541              		.section	.text.UART_1_GetRxBufferSize,"ax",%progbits
 542              		.align	2
 543              		.global	UART_1_GetRxBufferSize
 544              		.thumb
 545              		.thumb_func
 546              		.type	UART_1_GetRxBufferSize, %function
 547              	UART_1_GetRxBufferSize:
 548              	.LFB11:
 662:.\Generated_Source\PSoC5/UART_1.c **** 
 663:.\Generated_Source\PSoC5/UART_1.c **** 
 664:.\Generated_Source\PSoC5/UART_1.c ****     /*******************************************************************************
 665:.\Generated_Source\PSoC5/UART_1.c ****     * Function Name: UART_1_GetRxBufferSize
 666:.\Generated_Source\PSoC5/UART_1.c ****     ********************************************************************************
 667:.\Generated_Source\PSoC5/UART_1.c ****     *
 668:.\Generated_Source\PSoC5/UART_1.c ****     * Summary:
 669:.\Generated_Source\PSoC5/UART_1.c ****     *  Determine the amount of bytes left in the RX buffer and return the count in
 670:.\Generated_Source\PSoC5/UART_1.c ****     *  bytes
 671:.\Generated_Source\PSoC5/UART_1.c ****     *
 672:.\Generated_Source\PSoC5/UART_1.c ****     * Parameters:
 673:.\Generated_Source\PSoC5/UART_1.c ****     *  None.
 674:.\Generated_Source\PSoC5/UART_1.c ****     *
 675:.\Generated_Source\PSoC5/UART_1.c ****     * Return:
 676:.\Generated_Source\PSoC5/UART_1.c ****     *  uint8: Integer count of the number of bytes left
 677:.\Generated_Source\PSoC5/UART_1.c ****     *  in the RX buffer
 678:.\Generated_Source\PSoC5/UART_1.c ****     *
 679:.\Generated_Source\PSoC5/UART_1.c ****     * Global Variables:
 680:.\Generated_Source\PSoC5/UART_1.c ****     *  UART_1_rxBufferWrite - used to calculate left bytes.
 681:.\Generated_Source\PSoC5/UART_1.c ****     *  UART_1_rxBufferRead - used to calculate left bytes.
 682:.\Generated_Source\PSoC5/UART_1.c ****     *  UART_1_rxBufferLoopDetect - checked to decide left bytes amount.
 683:.\Generated_Source\PSoC5/UART_1.c ****     *
 684:.\Generated_Source\PSoC5/UART_1.c ****     * Reentrant:
 685:.\Generated_Source\PSoC5/UART_1.c ****     *  No.
 686:.\Generated_Source\PSoC5/UART_1.c ****     *
 687:.\Generated_Source\PSoC5/UART_1.c ****     * Theory:
 688:.\Generated_Source\PSoC5/UART_1.c ****     *  Allows the user to find out how full the RX Buffer is.
 689:.\Generated_Source\PSoC5/UART_1.c ****     *
 690:.\Generated_Source\PSoC5/UART_1.c ****     *******************************************************************************/
 691:.\Generated_Source\PSoC5/UART_1.c ****     uint8 UART_1_GetRxBufferSize(void)
 692:.\Generated_Source\PSoC5/UART_1.c ****                                                             
 693:.\Generated_Source\PSoC5/UART_1.c ****     {
 549              		.loc 1 693 0
 550              		.cfi_startproc
 551              		@ args = 0, pretend = 0, frame = 8
 552              		@ frame_needed = 1, uses_anonymous_args = 0
 553              		@ link register save eliminated.
 554 0000 80B4     		push	{r7}
 555              	.LCFI29:
 556              		.cfi_def_cfa_offset 4
 557 0002 83B0     		sub	sp, sp, #12
ARM GAS  C:\Users\SUZUKI~1\AppData\Local\Temp\ccLnHTOh.s 			page 23


 558              	.LCFI30:
 559              		.cfi_def_cfa_offset 16
 560 0004 00AF     		add	r7, sp, #0
 561              		.cfi_offset 7, -4
 562              	.LCFI31:
 563              		.cfi_def_cfa_register 7
 694:.\Generated_Source\PSoC5/UART_1.c ****         uint8 size;
 695:.\Generated_Source\PSoC5/UART_1.c **** 
 696:.\Generated_Source\PSoC5/UART_1.c ****         #if(UART_1_RXBUFFERSIZE > UART_1_FIFO_LENGTH)
 697:.\Generated_Source\PSoC5/UART_1.c **** 
 698:.\Generated_Source\PSoC5/UART_1.c ****             /* Disable Rx interrupt. */
 699:.\Generated_Source\PSoC5/UART_1.c ****             /* Protect variables that could change on interrupt. */
 700:.\Generated_Source\PSoC5/UART_1.c ****             #if(UART_1_RX_INTERRUPT_ENABLED)
 701:.\Generated_Source\PSoC5/UART_1.c ****                 UART_1_DisableRxInt();
 702:.\Generated_Source\PSoC5/UART_1.c ****             #endif /* UART_1_RX_INTERRUPT_ENABLED */
 703:.\Generated_Source\PSoC5/UART_1.c **** 
 704:.\Generated_Source\PSoC5/UART_1.c ****             if(UART_1_rxBufferRead == UART_1_rxBufferWrite)
 705:.\Generated_Source\PSoC5/UART_1.c ****             {
 706:.\Generated_Source\PSoC5/UART_1.c ****                 if(UART_1_rxBufferLoopDetect > 0u)
 707:.\Generated_Source\PSoC5/UART_1.c ****                 {
 708:.\Generated_Source\PSoC5/UART_1.c ****                     size = UART_1_RXBUFFERSIZE;
 709:.\Generated_Source\PSoC5/UART_1.c ****                 }
 710:.\Generated_Source\PSoC5/UART_1.c ****                 else
 711:.\Generated_Source\PSoC5/UART_1.c ****                 {
 712:.\Generated_Source\PSoC5/UART_1.c ****                     size = 0u;
 713:.\Generated_Source\PSoC5/UART_1.c ****                 }
 714:.\Generated_Source\PSoC5/UART_1.c ****             }
 715:.\Generated_Source\PSoC5/UART_1.c ****             else if(UART_1_rxBufferRead < UART_1_rxBufferWrite)
 716:.\Generated_Source\PSoC5/UART_1.c ****             {
 717:.\Generated_Source\PSoC5/UART_1.c ****                 size = (UART_1_rxBufferWrite - UART_1_rxBufferRead);
 718:.\Generated_Source\PSoC5/UART_1.c ****             }
 719:.\Generated_Source\PSoC5/UART_1.c ****             else
 720:.\Generated_Source\PSoC5/UART_1.c ****             {
 721:.\Generated_Source\PSoC5/UART_1.c ****                 size = (UART_1_RXBUFFERSIZE - UART_1_rxBufferRead) + UART_1_rxBufferWrite;
 722:.\Generated_Source\PSoC5/UART_1.c ****             }
 723:.\Generated_Source\PSoC5/UART_1.c **** 
 724:.\Generated_Source\PSoC5/UART_1.c ****             /* Enable Rx interrupt. */
 725:.\Generated_Source\PSoC5/UART_1.c ****             #if(UART_1_RX_INTERRUPT_ENABLED)
 726:.\Generated_Source\PSoC5/UART_1.c ****                 UART_1_EnableRxInt();
 727:.\Generated_Source\PSoC5/UART_1.c ****             #endif /* End UART_1_RX_INTERRUPT_ENABLED */
 728:.\Generated_Source\PSoC5/UART_1.c **** 
 729:.\Generated_Source\PSoC5/UART_1.c ****         #else /* UART_1_RXBUFFERSIZE > UART_1_FIFO_LENGTH */
 730:.\Generated_Source\PSoC5/UART_1.c **** 
 731:.\Generated_Source\PSoC5/UART_1.c ****             /* We can only know if there is data in the fifo. */
 732:.\Generated_Source\PSoC5/UART_1.c ****             size = ((UART_1_RXSTATUS_REG & UART_1_RX_STS_FIFO_NOTEMPTY) != 0u) ? 1u : 0u;
 564              		.loc 1 732 0
 565 0006 46F26543 		movw	r3, #:lower16:1073767525
 566 000a C4F20003 		movt	r3, #:upper16:1073767525
 567 000e 1B78     		ldrb	r3, [r3, #0]
 568 0010 DBB2     		uxtb	r3, r3
 569 0012 03F02003 		and	r3, r3, #32
 570 0016 002B     		cmp	r3, #0
 571 0018 02D0     		beq	.L26
 572 001a 4FF00103 		mov	r3, #1
 573 001e 01E0     		b	.L27
 574              	.L26:
 575 0020 4FF00003 		mov	r3, #0
ARM GAS  C:\Users\SUZUKI~1\AppData\Local\Temp\ccLnHTOh.s 			page 24


 576              	.L27:
 577 0024 FB71     		strb	r3, [r7, #7]
 733:.\Generated_Source\PSoC5/UART_1.c **** 
 734:.\Generated_Source\PSoC5/UART_1.c ****         #endif /* End UART_1_RXBUFFERSIZE > UART_1_FIFO_LENGTH */
 735:.\Generated_Source\PSoC5/UART_1.c **** 
 736:.\Generated_Source\PSoC5/UART_1.c ****         return(size);
 578              		.loc 1 736 0
 579 0026 FB79     		ldrb	r3, [r7, #7]	@ zero_extendqisi2
 737:.\Generated_Source\PSoC5/UART_1.c ****     }
 580              		.loc 1 737 0
 581 0028 1846     		mov	r0, r3
 582 002a 07F10C07 		add	r7, r7, #12
 583 002e BD46     		mov	sp, r7
 584 0030 80BC     		pop	{r7}
 585 0032 7047     		bx	lr
 586              		.cfi_endproc
 587              	.LFE11:
 588              		.size	UART_1_GetRxBufferSize, .-UART_1_GetRxBufferSize
 589              		.section	.text.UART_1_ClearRxBuffer,"ax",%progbits
 590              		.align	2
 591              		.global	UART_1_ClearRxBuffer
 592              		.thumb
 593              		.thumb_func
 594              		.type	UART_1_ClearRxBuffer, %function
 595              	UART_1_ClearRxBuffer:
 596              	.LFB12:
 738:.\Generated_Source\PSoC5/UART_1.c **** 
 739:.\Generated_Source\PSoC5/UART_1.c **** 
 740:.\Generated_Source\PSoC5/UART_1.c ****     /*******************************************************************************
 741:.\Generated_Source\PSoC5/UART_1.c ****     * Function Name: UART_1_ClearRxBuffer
 742:.\Generated_Source\PSoC5/UART_1.c ****     ********************************************************************************
 743:.\Generated_Source\PSoC5/UART_1.c ****     *
 744:.\Generated_Source\PSoC5/UART_1.c ****     * Summary:
 745:.\Generated_Source\PSoC5/UART_1.c ****     *  Clears the RX RAM buffer by setting the read and write pointers both to zero.
 746:.\Generated_Source\PSoC5/UART_1.c ****     *  Clears hardware RX FIFO.
 747:.\Generated_Source\PSoC5/UART_1.c ****     *
 748:.\Generated_Source\PSoC5/UART_1.c ****     * Parameters:
 749:.\Generated_Source\PSoC5/UART_1.c ****     *  None.
 750:.\Generated_Source\PSoC5/UART_1.c ****     *
 751:.\Generated_Source\PSoC5/UART_1.c ****     * Return:
 752:.\Generated_Source\PSoC5/UART_1.c ****     *  None.
 753:.\Generated_Source\PSoC5/UART_1.c ****     *
 754:.\Generated_Source\PSoC5/UART_1.c ****     * Global Variables:
 755:.\Generated_Source\PSoC5/UART_1.c ****     *  UART_1_rxBufferWrite - cleared to zero.
 756:.\Generated_Source\PSoC5/UART_1.c ****     *  UART_1_rxBufferRead - cleared to zero.
 757:.\Generated_Source\PSoC5/UART_1.c ****     *  UART_1_rxBufferLoopDetect - cleared to zero.
 758:.\Generated_Source\PSoC5/UART_1.c ****     *  UART_1_rxBufferOverflow - cleared to zero.
 759:.\Generated_Source\PSoC5/UART_1.c ****     *
 760:.\Generated_Source\PSoC5/UART_1.c ****     * Reentrant:
 761:.\Generated_Source\PSoC5/UART_1.c ****     *  No.
 762:.\Generated_Source\PSoC5/UART_1.c ****     *
 763:.\Generated_Source\PSoC5/UART_1.c ****     * Theory:
 764:.\Generated_Source\PSoC5/UART_1.c ****     *  Setting the pointers to zero makes the system believe there is no data to
 765:.\Generated_Source\PSoC5/UART_1.c ****     *  read and writing will resume at address 0 overwriting any data that may
 766:.\Generated_Source\PSoC5/UART_1.c ****     *  have remained in the RAM.
 767:.\Generated_Source\PSoC5/UART_1.c ****     *
 768:.\Generated_Source\PSoC5/UART_1.c ****     * Side Effects:
ARM GAS  C:\Users\SUZUKI~1\AppData\Local\Temp\ccLnHTOh.s 			page 25


 769:.\Generated_Source\PSoC5/UART_1.c ****     *  Any received data not read from the RAM or FIFO buffer will be lost.
 770:.\Generated_Source\PSoC5/UART_1.c ****     *******************************************************************************/
 771:.\Generated_Source\PSoC5/UART_1.c ****     void UART_1_ClearRxBuffer(void) 
 772:.\Generated_Source\PSoC5/UART_1.c ****     {
 597              		.loc 1 772 0
 598              		.cfi_startproc
 599              		@ args = 0, pretend = 0, frame = 8
 600              		@ frame_needed = 1, uses_anonymous_args = 0
 601 0000 80B5     		push	{r7, lr}
 602              	.LCFI32:
 603              		.cfi_def_cfa_offset 8
 604 0002 82B0     		sub	sp, sp, #8
 605              	.LCFI33:
 606              		.cfi_def_cfa_offset 16
 607 0004 00AF     		add	r7, sp, #0
 608              		.cfi_offset 14, -4
 609              		.cfi_offset 7, -8
 610              	.LCFI34:
 611              		.cfi_def_cfa_register 7
 773:.\Generated_Source\PSoC5/UART_1.c ****         uint8 enableInterrupts;
 774:.\Generated_Source\PSoC5/UART_1.c **** 
 775:.\Generated_Source\PSoC5/UART_1.c ****         /* clear the HW FIFO */
 776:.\Generated_Source\PSoC5/UART_1.c ****         /* Enter critical section */
 777:.\Generated_Source\PSoC5/UART_1.c ****         enableInterrupts = CyEnterCriticalSection();
 612              		.loc 1 777 0
 613 0006 FFF7FEFF 		bl	CyEnterCriticalSection
 614 000a 0346     		mov	r3, r0
 615 000c FB71     		strb	r3, [r7, #7]
 778:.\Generated_Source\PSoC5/UART_1.c ****         UART_1_RXDATA_AUX_CTL_REG |=  UART_1_RX_FIFO_CLR;
 616              		.loc 1 778 0
 617 000e 46F29643 		movw	r3, #:lower16:1073767574
 618 0012 C4F20003 		movt	r3, #:upper16:1073767574
 619 0016 46F29642 		movw	r2, #:lower16:1073767574
 620 001a C4F20002 		movt	r2, #:upper16:1073767574
 621 001e 1278     		ldrb	r2, [r2, #0]
 622 0020 D2B2     		uxtb	r2, r2
 623 0022 42F00102 		orr	r2, r2, #1
 624 0026 D2B2     		uxtb	r2, r2
 625 0028 1A70     		strb	r2, [r3, #0]
 779:.\Generated_Source\PSoC5/UART_1.c ****         UART_1_RXDATA_AUX_CTL_REG &= (uint8)~UART_1_RX_FIFO_CLR;
 626              		.loc 1 779 0
 627 002a 46F29643 		movw	r3, #:lower16:1073767574
 628 002e C4F20003 		movt	r3, #:upper16:1073767574
 629 0032 46F29642 		movw	r2, #:lower16:1073767574
 630 0036 C4F20002 		movt	r2, #:upper16:1073767574
 631 003a 1278     		ldrb	r2, [r2, #0]
 632 003c D2B2     		uxtb	r2, r2
 633 003e 02F0FE02 		and	r2, r2, #254
 634 0042 1A70     		strb	r2, [r3, #0]
 780:.\Generated_Source\PSoC5/UART_1.c ****         /* Exit critical section */
 781:.\Generated_Source\PSoC5/UART_1.c ****         CyExitCriticalSection(enableInterrupts);
 635              		.loc 1 781 0
 636 0044 FB79     		ldrb	r3, [r7, #7]	@ zero_extendqisi2
 637 0046 1846     		mov	r0, r3
 638 0048 FFF7FEFF 		bl	CyExitCriticalSection
 782:.\Generated_Source\PSoC5/UART_1.c **** 
 783:.\Generated_Source\PSoC5/UART_1.c ****         #if(UART_1_RXBUFFERSIZE > UART_1_FIFO_LENGTH)
ARM GAS  C:\Users\SUZUKI~1\AppData\Local\Temp\ccLnHTOh.s 			page 26


 784:.\Generated_Source\PSoC5/UART_1.c ****             /* Disable Rx interrupt. */
 785:.\Generated_Source\PSoC5/UART_1.c ****             /* Protect variables that could change on interrupt. */
 786:.\Generated_Source\PSoC5/UART_1.c ****             #if(UART_1_RX_INTERRUPT_ENABLED)
 787:.\Generated_Source\PSoC5/UART_1.c ****                 UART_1_DisableRxInt();
 788:.\Generated_Source\PSoC5/UART_1.c ****             #endif /* End UART_1_RX_INTERRUPT_ENABLED */
 789:.\Generated_Source\PSoC5/UART_1.c **** 
 790:.\Generated_Source\PSoC5/UART_1.c ****             UART_1_rxBufferRead = 0u;
 791:.\Generated_Source\PSoC5/UART_1.c ****             UART_1_rxBufferWrite = 0u;
 792:.\Generated_Source\PSoC5/UART_1.c ****             UART_1_rxBufferLoopDetect = 0u;
 793:.\Generated_Source\PSoC5/UART_1.c ****             UART_1_rxBufferOverflow = 0u;
 794:.\Generated_Source\PSoC5/UART_1.c **** 
 795:.\Generated_Source\PSoC5/UART_1.c ****             /* Enable Rx interrupt. */
 796:.\Generated_Source\PSoC5/UART_1.c ****             #if(UART_1_RX_INTERRUPT_ENABLED)
 797:.\Generated_Source\PSoC5/UART_1.c ****                 UART_1_EnableRxInt();
 798:.\Generated_Source\PSoC5/UART_1.c ****             #endif /* End UART_1_RX_INTERRUPT_ENABLED */
 799:.\Generated_Source\PSoC5/UART_1.c ****         #endif /* End UART_1_RXBUFFERSIZE > UART_1_FIFO_LENGTH */
 800:.\Generated_Source\PSoC5/UART_1.c **** 
 801:.\Generated_Source\PSoC5/UART_1.c ****     }
 639              		.loc 1 801 0
 640 004c 07F10807 		add	r7, r7, #8
 641 0050 BD46     		mov	sp, r7
 642 0052 80BD     		pop	{r7, pc}
 643              		.cfi_endproc
 644              	.LFE12:
 645              		.size	UART_1_ClearRxBuffer, .-UART_1_ClearRxBuffer
 646              		.section	.text.UART_1_SetRxAddressMode,"ax",%progbits
 647              		.align	2
 648              		.global	UART_1_SetRxAddressMode
 649              		.thumb
 650              		.thumb_func
 651              		.type	UART_1_SetRxAddressMode, %function
 652              	UART_1_SetRxAddressMode:
 653              	.LFB13:
 802:.\Generated_Source\PSoC5/UART_1.c **** 
 803:.\Generated_Source\PSoC5/UART_1.c **** 
 804:.\Generated_Source\PSoC5/UART_1.c ****     /*******************************************************************************
 805:.\Generated_Source\PSoC5/UART_1.c ****     * Function Name: UART_1_SetRxAddressMode
 806:.\Generated_Source\PSoC5/UART_1.c ****     ********************************************************************************
 807:.\Generated_Source\PSoC5/UART_1.c ****     *
 808:.\Generated_Source\PSoC5/UART_1.c ****     * Summary:
 809:.\Generated_Source\PSoC5/UART_1.c ****     *  Set the receive addressing mode
 810:.\Generated_Source\PSoC5/UART_1.c ****     *
 811:.\Generated_Source\PSoC5/UART_1.c ****     * Parameters:
 812:.\Generated_Source\PSoC5/UART_1.c ****     *  addressMode: Enumerated value indicating the mode of RX addressing
 813:.\Generated_Source\PSoC5/UART_1.c ****     *  UART_1__B_UART__AM_SW_BYTE_BYTE -  Software Byte-by-Byte address
 814:.\Generated_Source\PSoC5/UART_1.c ****     *                                               detection
 815:.\Generated_Source\PSoC5/UART_1.c ****     *  UART_1__B_UART__AM_SW_DETECT_TO_BUFFER - Software Detect to Buffer
 816:.\Generated_Source\PSoC5/UART_1.c ****     *                                               address detection
 817:.\Generated_Source\PSoC5/UART_1.c ****     *  UART_1__B_UART__AM_HW_BYTE_BY_BYTE - Hardware Byte-by-Byte address
 818:.\Generated_Source\PSoC5/UART_1.c ****     *                                               detection
 819:.\Generated_Source\PSoC5/UART_1.c ****     *  UART_1__B_UART__AM_HW_DETECT_TO_BUFFER - Hardware Detect to Buffer
 820:.\Generated_Source\PSoC5/UART_1.c ****     *                                               address detection
 821:.\Generated_Source\PSoC5/UART_1.c ****     *  UART_1__B_UART__AM_NONE - No address detection
 822:.\Generated_Source\PSoC5/UART_1.c ****     *
 823:.\Generated_Source\PSoC5/UART_1.c ****     * Return:
 824:.\Generated_Source\PSoC5/UART_1.c ****     *  None.
 825:.\Generated_Source\PSoC5/UART_1.c ****     *
ARM GAS  C:\Users\SUZUKI~1\AppData\Local\Temp\ccLnHTOh.s 			page 27


 826:.\Generated_Source\PSoC5/UART_1.c ****     * Global Variables:
 827:.\Generated_Source\PSoC5/UART_1.c ****     *  UART_1_rxAddressMode - the parameter stored in this variable for
 828:.\Generated_Source\PSoC5/UART_1.c ****     *   the farther usage in RX ISR.
 829:.\Generated_Source\PSoC5/UART_1.c ****     *  UART_1_rxAddressDetected - set to initial state (0).
 830:.\Generated_Source\PSoC5/UART_1.c ****     *
 831:.\Generated_Source\PSoC5/UART_1.c ****     *******************************************************************************/
 832:.\Generated_Source\PSoC5/UART_1.c ****     void UART_1_SetRxAddressMode(uint8 addressMode)
 833:.\Generated_Source\PSoC5/UART_1.c ****                                                         
 834:.\Generated_Source\PSoC5/UART_1.c ****     {
 654              		.loc 1 834 0
 655              		.cfi_startproc
 656              		@ args = 0, pretend = 0, frame = 8
 657              		@ frame_needed = 1, uses_anonymous_args = 0
 658              		@ link register save eliminated.
 659 0000 80B4     		push	{r7}
 660              	.LCFI35:
 661              		.cfi_def_cfa_offset 4
 662 0002 83B0     		sub	sp, sp, #12
 663              	.LCFI36:
 664              		.cfi_def_cfa_offset 16
 665 0004 00AF     		add	r7, sp, #0
 666              		.cfi_offset 7, -4
 667              	.LCFI37:
 668              		.cfi_def_cfa_register 7
 669 0006 0346     		mov	r3, r0
 670 0008 FB71     		strb	r3, [r7, #7]
 835:.\Generated_Source\PSoC5/UART_1.c ****         #if(UART_1_RXHW_ADDRESS_ENABLED)
 836:.\Generated_Source\PSoC5/UART_1.c ****             #if(UART_1_CONTROL_REG_REMOVED)
 837:.\Generated_Source\PSoC5/UART_1.c ****                 if(addressMode != 0u) { }     /* release compiler warning */
 838:.\Generated_Source\PSoC5/UART_1.c ****             #else /* UART_1_CONTROL_REG_REMOVED */
 839:.\Generated_Source\PSoC5/UART_1.c ****                 uint8 tmpCtrl;
 840:.\Generated_Source\PSoC5/UART_1.c ****                 tmpCtrl = UART_1_CONTROL_REG & (uint8)~UART_1_CTRL_RXADDR_MODE_MASK;
 841:.\Generated_Source\PSoC5/UART_1.c ****                 tmpCtrl |= (uint8)(addressMode << UART_1_CTRL_RXADDR_MODE0_SHIFT);
 842:.\Generated_Source\PSoC5/UART_1.c ****                 UART_1_CONTROL_REG = tmpCtrl;
 843:.\Generated_Source\PSoC5/UART_1.c ****                 #if(UART_1_RX_INTERRUPT_ENABLED && \
 844:.\Generated_Source\PSoC5/UART_1.c ****                    (UART_1_RXBUFFERSIZE > UART_1_FIFO_LENGTH) )
 845:.\Generated_Source\PSoC5/UART_1.c ****                     UART_1_rxAddressMode = addressMode;
 846:.\Generated_Source\PSoC5/UART_1.c ****                     UART_1_rxAddressDetected = 0u;
 847:.\Generated_Source\PSoC5/UART_1.c ****                 #endif /* End UART_1_RXBUFFERSIZE > UART_1_FIFO_LENGTH*/
 848:.\Generated_Source\PSoC5/UART_1.c ****             #endif /* End UART_1_CONTROL_REG_REMOVED */
 849:.\Generated_Source\PSoC5/UART_1.c ****         #else /* UART_1_RXHW_ADDRESS_ENABLED */
 850:.\Generated_Source\PSoC5/UART_1.c ****             if(addressMode != 0u) { }     /* release compiler warning */
 851:.\Generated_Source\PSoC5/UART_1.c ****         #endif /* End UART_1_RXHW_ADDRESS_ENABLED */
 852:.\Generated_Source\PSoC5/UART_1.c ****     }
 671              		.loc 1 852 0
 672 000a 07F10C07 		add	r7, r7, #12
 673 000e BD46     		mov	sp, r7
 674 0010 80BC     		pop	{r7}
 675 0012 7047     		bx	lr
 676              		.cfi_endproc
 677              	.LFE13:
 678              		.size	UART_1_SetRxAddressMode, .-UART_1_SetRxAddressMode
 679              		.section	.text.UART_1_SetRxAddress1,"ax",%progbits
 680              		.align	2
 681              		.global	UART_1_SetRxAddress1
 682              		.thumb
 683              		.thumb_func
ARM GAS  C:\Users\SUZUKI~1\AppData\Local\Temp\ccLnHTOh.s 			page 28


 684              		.type	UART_1_SetRxAddress1, %function
 685              	UART_1_SetRxAddress1:
 686              	.LFB14:
 853:.\Generated_Source\PSoC5/UART_1.c **** 
 854:.\Generated_Source\PSoC5/UART_1.c **** 
 855:.\Generated_Source\PSoC5/UART_1.c ****     /*******************************************************************************
 856:.\Generated_Source\PSoC5/UART_1.c ****     * Function Name: UART_1_SetRxAddress1
 857:.\Generated_Source\PSoC5/UART_1.c ****     ********************************************************************************
 858:.\Generated_Source\PSoC5/UART_1.c ****     *
 859:.\Generated_Source\PSoC5/UART_1.c ****     * Summary:
 860:.\Generated_Source\PSoC5/UART_1.c ****     *  Set the first hardware address compare value
 861:.\Generated_Source\PSoC5/UART_1.c ****     *
 862:.\Generated_Source\PSoC5/UART_1.c ****     * Parameters:
 863:.\Generated_Source\PSoC5/UART_1.c ****     *  address
 864:.\Generated_Source\PSoC5/UART_1.c ****     *
 865:.\Generated_Source\PSoC5/UART_1.c ****     * Return:
 866:.\Generated_Source\PSoC5/UART_1.c ****     *  None.
 867:.\Generated_Source\PSoC5/UART_1.c ****     *
 868:.\Generated_Source\PSoC5/UART_1.c ****     *******************************************************************************/
 869:.\Generated_Source\PSoC5/UART_1.c ****     void UART_1_SetRxAddress1(uint8 address) 
 870:.\Generated_Source\PSoC5/UART_1.c **** 
 871:.\Generated_Source\PSoC5/UART_1.c ****     {
 687              		.loc 1 871 0
 688              		.cfi_startproc
 689              		@ args = 0, pretend = 0, frame = 8
 690              		@ frame_needed = 1, uses_anonymous_args = 0
 691              		@ link register save eliminated.
 692 0000 80B4     		push	{r7}
 693              	.LCFI38:
 694              		.cfi_def_cfa_offset 4
 695 0002 83B0     		sub	sp, sp, #12
 696              	.LCFI39:
 697              		.cfi_def_cfa_offset 16
 698 0004 00AF     		add	r7, sp, #0
 699              		.cfi_offset 7, -4
 700              	.LCFI40:
 701              		.cfi_def_cfa_register 7
 702 0006 0346     		mov	r3, r0
 703 0008 FB71     		strb	r3, [r7, #7]
 872:.\Generated_Source\PSoC5/UART_1.c ****         UART_1_RXADDRESS1_REG = address;
 704              		.loc 1 872 0
 705 000a 46F22643 		movw	r3, #:lower16:1073767462
 706 000e C4F20003 		movt	r3, #:upper16:1073767462
 707 0012 FA79     		ldrb	r2, [r7, #7]
 708 0014 1A70     		strb	r2, [r3, #0]
 873:.\Generated_Source\PSoC5/UART_1.c ****     }
 709              		.loc 1 873 0
 710 0016 07F10C07 		add	r7, r7, #12
 711 001a BD46     		mov	sp, r7
 712 001c 80BC     		pop	{r7}
 713 001e 7047     		bx	lr
 714              		.cfi_endproc
 715              	.LFE14:
 716              		.size	UART_1_SetRxAddress1, .-UART_1_SetRxAddress1
 717              		.section	.text.UART_1_SetRxAddress2,"ax",%progbits
 718              		.align	2
 719              		.global	UART_1_SetRxAddress2
ARM GAS  C:\Users\SUZUKI~1\AppData\Local\Temp\ccLnHTOh.s 			page 29


 720              		.thumb
 721              		.thumb_func
 722              		.type	UART_1_SetRxAddress2, %function
 723              	UART_1_SetRxAddress2:
 724              	.LFB15:
 874:.\Generated_Source\PSoC5/UART_1.c **** 
 875:.\Generated_Source\PSoC5/UART_1.c **** 
 876:.\Generated_Source\PSoC5/UART_1.c ****     /*******************************************************************************
 877:.\Generated_Source\PSoC5/UART_1.c ****     * Function Name: UART_1_SetRxAddress2
 878:.\Generated_Source\PSoC5/UART_1.c ****     ********************************************************************************
 879:.\Generated_Source\PSoC5/UART_1.c ****     *
 880:.\Generated_Source\PSoC5/UART_1.c ****     * Summary:
 881:.\Generated_Source\PSoC5/UART_1.c ****     *  Set the second hardware address compare value
 882:.\Generated_Source\PSoC5/UART_1.c ****     *
 883:.\Generated_Source\PSoC5/UART_1.c ****     * Parameters:
 884:.\Generated_Source\PSoC5/UART_1.c ****     *  address
 885:.\Generated_Source\PSoC5/UART_1.c ****     *
 886:.\Generated_Source\PSoC5/UART_1.c ****     * Return:
 887:.\Generated_Source\PSoC5/UART_1.c ****     *  None.
 888:.\Generated_Source\PSoC5/UART_1.c ****     *
 889:.\Generated_Source\PSoC5/UART_1.c ****     *******************************************************************************/
 890:.\Generated_Source\PSoC5/UART_1.c ****     void UART_1_SetRxAddress2(uint8 address) 
 891:.\Generated_Source\PSoC5/UART_1.c ****     {
 725              		.loc 1 891 0
 726              		.cfi_startproc
 727              		@ args = 0, pretend = 0, frame = 8
 728              		@ frame_needed = 1, uses_anonymous_args = 0
 729              		@ link register save eliminated.
 730 0000 80B4     		push	{r7}
 731              	.LCFI41:
 732              		.cfi_def_cfa_offset 4
 733 0002 83B0     		sub	sp, sp, #12
 734              	.LCFI42:
 735              		.cfi_def_cfa_offset 16
 736 0004 00AF     		add	r7, sp, #0
 737              		.cfi_offset 7, -4
 738              	.LCFI43:
 739              		.cfi_def_cfa_register 7
 740 0006 0346     		mov	r3, r0
 741 0008 FB71     		strb	r3, [r7, #7]
 892:.\Generated_Source\PSoC5/UART_1.c ****         UART_1_RXADDRESS2_REG = address;
 742              		.loc 1 892 0
 743 000a 46F23643 		movw	r3, #:lower16:1073767478
 744 000e C4F20003 		movt	r3, #:upper16:1073767478
 745 0012 FA79     		ldrb	r2, [r7, #7]
 746 0014 1A70     		strb	r2, [r3, #0]
 893:.\Generated_Source\PSoC5/UART_1.c ****     }
 747              		.loc 1 893 0
 748 0016 07F10C07 		add	r7, r7, #12
 749 001a BD46     		mov	sp, r7
 750 001c 80BC     		pop	{r7}
 751 001e 7047     		bx	lr
 752              		.cfi_endproc
 753              	.LFE15:
 754              		.size	UART_1_SetRxAddress2, .-UART_1_SetRxAddress2
 755              		.section	.text.UART_1_SetTxInterruptMode,"ax",%progbits
 756              		.align	2
ARM GAS  C:\Users\SUZUKI~1\AppData\Local\Temp\ccLnHTOh.s 			page 30


 757              		.global	UART_1_SetTxInterruptMode
 758              		.thumb
 759              		.thumb_func
 760              		.type	UART_1_SetTxInterruptMode, %function
 761              	UART_1_SetTxInterruptMode:
 762              	.LFB16:
 894:.\Generated_Source\PSoC5/UART_1.c **** 
 895:.\Generated_Source\PSoC5/UART_1.c **** #endif  /* UART_1_RX_ENABLED || UART_1_HD_ENABLED*/
 896:.\Generated_Source\PSoC5/UART_1.c **** 
 897:.\Generated_Source\PSoC5/UART_1.c **** 
 898:.\Generated_Source\PSoC5/UART_1.c **** #if( (UART_1_TX_ENABLED) || (UART_1_HD_ENABLED) )
 899:.\Generated_Source\PSoC5/UART_1.c **** 
 900:.\Generated_Source\PSoC5/UART_1.c ****     #if(UART_1_TX_INTERRUPT_ENABLED)
 901:.\Generated_Source\PSoC5/UART_1.c **** 
 902:.\Generated_Source\PSoC5/UART_1.c ****         /*******************************************************************************
 903:.\Generated_Source\PSoC5/UART_1.c ****         * Function Name: UART_1_EnableTxInt
 904:.\Generated_Source\PSoC5/UART_1.c ****         ********************************************************************************
 905:.\Generated_Source\PSoC5/UART_1.c ****         *
 906:.\Generated_Source\PSoC5/UART_1.c ****         * Summary:
 907:.\Generated_Source\PSoC5/UART_1.c ****         *  Enable TX interrupt generation
 908:.\Generated_Source\PSoC5/UART_1.c ****         *
 909:.\Generated_Source\PSoC5/UART_1.c ****         * Parameters:
 910:.\Generated_Source\PSoC5/UART_1.c ****         *  None.
 911:.\Generated_Source\PSoC5/UART_1.c ****         *
 912:.\Generated_Source\PSoC5/UART_1.c ****         * Return:
 913:.\Generated_Source\PSoC5/UART_1.c ****         *  None.
 914:.\Generated_Source\PSoC5/UART_1.c ****         *
 915:.\Generated_Source\PSoC5/UART_1.c ****         * Theory:
 916:.\Generated_Source\PSoC5/UART_1.c ****         *  Enable the interrupt output -or- the interrupt component itself
 917:.\Generated_Source\PSoC5/UART_1.c ****         *
 918:.\Generated_Source\PSoC5/UART_1.c ****         *******************************************************************************/
 919:.\Generated_Source\PSoC5/UART_1.c ****         void UART_1_EnableTxInt(void) 
 920:.\Generated_Source\PSoC5/UART_1.c ****         {
 921:.\Generated_Source\PSoC5/UART_1.c ****             CyIntEnable(UART_1_TX_VECT_NUM);
 922:.\Generated_Source\PSoC5/UART_1.c ****         }
 923:.\Generated_Source\PSoC5/UART_1.c **** 
 924:.\Generated_Source\PSoC5/UART_1.c **** 
 925:.\Generated_Source\PSoC5/UART_1.c ****         /*******************************************************************************
 926:.\Generated_Source\PSoC5/UART_1.c ****         * Function Name: UART_1_DisableTxInt
 927:.\Generated_Source\PSoC5/UART_1.c ****         ********************************************************************************
 928:.\Generated_Source\PSoC5/UART_1.c ****         *
 929:.\Generated_Source\PSoC5/UART_1.c ****         * Summary:
 930:.\Generated_Source\PSoC5/UART_1.c ****         *  Disable TX interrupt generation
 931:.\Generated_Source\PSoC5/UART_1.c ****         *
 932:.\Generated_Source\PSoC5/UART_1.c ****         * Parameters:
 933:.\Generated_Source\PSoC5/UART_1.c ****         *  None.
 934:.\Generated_Source\PSoC5/UART_1.c ****         *
 935:.\Generated_Source\PSoC5/UART_1.c ****         * Return:
 936:.\Generated_Source\PSoC5/UART_1.c ****         *  None.
 937:.\Generated_Source\PSoC5/UART_1.c ****         *
 938:.\Generated_Source\PSoC5/UART_1.c ****         * Theory:
 939:.\Generated_Source\PSoC5/UART_1.c ****         *  Disable the interrupt output -or- the interrupt component itself
 940:.\Generated_Source\PSoC5/UART_1.c ****         *
 941:.\Generated_Source\PSoC5/UART_1.c ****         *******************************************************************************/
 942:.\Generated_Source\PSoC5/UART_1.c ****         void UART_1_DisableTxInt(void) 
 943:.\Generated_Source\PSoC5/UART_1.c ****         {
 944:.\Generated_Source\PSoC5/UART_1.c ****             CyIntDisable(UART_1_TX_VECT_NUM);
ARM GAS  C:\Users\SUZUKI~1\AppData\Local\Temp\ccLnHTOh.s 			page 31


 945:.\Generated_Source\PSoC5/UART_1.c ****         }
 946:.\Generated_Source\PSoC5/UART_1.c **** 
 947:.\Generated_Source\PSoC5/UART_1.c ****     #endif /* UART_1_TX_INTERRUPT_ENABLED */
 948:.\Generated_Source\PSoC5/UART_1.c **** 
 949:.\Generated_Source\PSoC5/UART_1.c **** 
 950:.\Generated_Source\PSoC5/UART_1.c ****     /*******************************************************************************
 951:.\Generated_Source\PSoC5/UART_1.c ****     * Function Name: UART_1_SetTxInterruptMode
 952:.\Generated_Source\PSoC5/UART_1.c ****     ********************************************************************************
 953:.\Generated_Source\PSoC5/UART_1.c ****     *
 954:.\Generated_Source\PSoC5/UART_1.c ****     * Summary:
 955:.\Generated_Source\PSoC5/UART_1.c ****     *  Configure which status bits trigger an interrupt event
 956:.\Generated_Source\PSoC5/UART_1.c ****     *
 957:.\Generated_Source\PSoC5/UART_1.c ****     * Parameters:
 958:.\Generated_Source\PSoC5/UART_1.c ****     *  intSrc: An or'd combination of the desired status bit masks (defined in
 959:.\Generated_Source\PSoC5/UART_1.c ****     *          the header file)
 960:.\Generated_Source\PSoC5/UART_1.c ****     *
 961:.\Generated_Source\PSoC5/UART_1.c ****     * Return:
 962:.\Generated_Source\PSoC5/UART_1.c ****     *  None.
 963:.\Generated_Source\PSoC5/UART_1.c ****     *
 964:.\Generated_Source\PSoC5/UART_1.c ****     * Theory:
 965:.\Generated_Source\PSoC5/UART_1.c ****     *  Enables the output of specific status bits to the interrupt controller
 966:.\Generated_Source\PSoC5/UART_1.c ****     *
 967:.\Generated_Source\PSoC5/UART_1.c ****     *******************************************************************************/
 968:.\Generated_Source\PSoC5/UART_1.c ****     void UART_1_SetTxInterruptMode(uint8 intSrc) 
 969:.\Generated_Source\PSoC5/UART_1.c ****     {
 763              		.loc 1 969 0
 764              		.cfi_startproc
 765              		@ args = 0, pretend = 0, frame = 8
 766              		@ frame_needed = 1, uses_anonymous_args = 0
 767              		@ link register save eliminated.
 768 0000 80B4     		push	{r7}
 769              	.LCFI44:
 770              		.cfi_def_cfa_offset 4
 771 0002 83B0     		sub	sp, sp, #12
 772              	.LCFI45:
 773              		.cfi_def_cfa_offset 16
 774 0004 00AF     		add	r7, sp, #0
 775              		.cfi_offset 7, -4
 776              	.LCFI46:
 777              		.cfi_def_cfa_register 7
 778 0006 0346     		mov	r3, r0
 779 0008 FB71     		strb	r3, [r7, #7]
 970:.\Generated_Source\PSoC5/UART_1.c ****         UART_1_TXSTATUS_MASK_REG = intSrc;
 780              		.loc 1 970 0
 781 000a 46F28443 		movw	r3, #:lower16:1073767556
 782 000e C4F20003 		movt	r3, #:upper16:1073767556
 783 0012 FA79     		ldrb	r2, [r7, #7]
 784 0014 1A70     		strb	r2, [r3, #0]
 971:.\Generated_Source\PSoC5/UART_1.c ****     }
 785              		.loc 1 971 0
 786 0016 07F10C07 		add	r7, r7, #12
 787 001a BD46     		mov	sp, r7
 788 001c 80BC     		pop	{r7}
 789 001e 7047     		bx	lr
 790              		.cfi_endproc
 791              	.LFE16:
 792              		.size	UART_1_SetTxInterruptMode, .-UART_1_SetTxInterruptMode
ARM GAS  C:\Users\SUZUKI~1\AppData\Local\Temp\ccLnHTOh.s 			page 32


 793              		.section	.text.UART_1_WriteTxData,"ax",%progbits
 794              		.align	2
 795              		.global	UART_1_WriteTxData
 796              		.thumb
 797              		.thumb_func
 798              		.type	UART_1_WriteTxData, %function
 799              	UART_1_WriteTxData:
 800              	.LFB17:
 972:.\Generated_Source\PSoC5/UART_1.c **** 
 973:.\Generated_Source\PSoC5/UART_1.c **** 
 974:.\Generated_Source\PSoC5/UART_1.c ****     /*******************************************************************************
 975:.\Generated_Source\PSoC5/UART_1.c ****     * Function Name: UART_1_WriteTxData
 976:.\Generated_Source\PSoC5/UART_1.c ****     ********************************************************************************
 977:.\Generated_Source\PSoC5/UART_1.c ****     *
 978:.\Generated_Source\PSoC5/UART_1.c ****     * Summary:
 979:.\Generated_Source\PSoC5/UART_1.c ****     *  Write a byte of data to the Transmit FIFO or TX buffer to be sent when the
 980:.\Generated_Source\PSoC5/UART_1.c ****     *  bus is available. WriteTxData sends a byte without checking for buffer room
 981:.\Generated_Source\PSoC5/UART_1.c ****     *  or status. It is up to the user to separately check status.
 982:.\Generated_Source\PSoC5/UART_1.c ****     *
 983:.\Generated_Source\PSoC5/UART_1.c ****     * Parameters:
 984:.\Generated_Source\PSoC5/UART_1.c ****     *  TXDataByte: byte of data to place in the transmit FIFO
 985:.\Generated_Source\PSoC5/UART_1.c ****     *
 986:.\Generated_Source\PSoC5/UART_1.c ****     * Return:
 987:.\Generated_Source\PSoC5/UART_1.c ****     * void
 988:.\Generated_Source\PSoC5/UART_1.c ****     *
 989:.\Generated_Source\PSoC5/UART_1.c ****     * Global Variables:
 990:.\Generated_Source\PSoC5/UART_1.c ****     *  UART_1_txBuffer - RAM buffer pointer for save data for transmission
 991:.\Generated_Source\PSoC5/UART_1.c ****     *  UART_1_txBufferWrite - cyclic index for write to txBuffer,
 992:.\Generated_Source\PSoC5/UART_1.c ****     *    incremented after each byte saved to buffer.
 993:.\Generated_Source\PSoC5/UART_1.c ****     *  UART_1_txBufferRead - cyclic index for read from txBuffer,
 994:.\Generated_Source\PSoC5/UART_1.c ****     *    checked to identify the condition to write to FIFO directly or to TX buffer
 995:.\Generated_Source\PSoC5/UART_1.c ****     *  UART_1_initVar - checked to identify that the component has been
 996:.\Generated_Source\PSoC5/UART_1.c ****     *    initialized.
 997:.\Generated_Source\PSoC5/UART_1.c ****     *
 998:.\Generated_Source\PSoC5/UART_1.c ****     * Reentrant:
 999:.\Generated_Source\PSoC5/UART_1.c ****     *  No.
1000:.\Generated_Source\PSoC5/UART_1.c ****     *
1001:.\Generated_Source\PSoC5/UART_1.c ****     *******************************************************************************/
1002:.\Generated_Source\PSoC5/UART_1.c ****     void UART_1_WriteTxData(uint8 txDataByte) 
1003:.\Generated_Source\PSoC5/UART_1.c ****     {
 801              		.loc 1 1003 0
 802              		.cfi_startproc
 803              		@ args = 0, pretend = 0, frame = 8
 804              		@ frame_needed = 1, uses_anonymous_args = 0
 805              		@ link register save eliminated.
 806 0000 80B4     		push	{r7}
 807              	.LCFI47:
 808              		.cfi_def_cfa_offset 4
 809 0002 83B0     		sub	sp, sp, #12
 810              	.LCFI48:
 811              		.cfi_def_cfa_offset 16
 812 0004 00AF     		add	r7, sp, #0
 813              		.cfi_offset 7, -4
 814              	.LCFI49:
 815              		.cfi_def_cfa_register 7
 816 0006 0346     		mov	r3, r0
 817 0008 FB71     		strb	r3, [r7, #7]
ARM GAS  C:\Users\SUZUKI~1\AppData\Local\Temp\ccLnHTOh.s 			page 33


1004:.\Generated_Source\PSoC5/UART_1.c ****         /* If not Initialized then skip this function*/
1005:.\Generated_Source\PSoC5/UART_1.c ****         if(UART_1_initVar != 0u)
 818              		.loc 1 1005 0
 819 000a 40F20003 		movw	r3, #:lower16:UART_1_initVar
 820 000e C0F20003 		movt	r3, #:upper16:UART_1_initVar
 821 0012 1B78     		ldrb	r3, [r3, #0]	@ zero_extendqisi2
 822 0014 002B     		cmp	r3, #0
 823 0016 05D0     		beq	.L41
1006:.\Generated_Source\PSoC5/UART_1.c ****         {
1007:.\Generated_Source\PSoC5/UART_1.c ****             #if(UART_1_TXBUFFERSIZE > UART_1_FIFO_LENGTH)
1008:.\Generated_Source\PSoC5/UART_1.c **** 
1009:.\Generated_Source\PSoC5/UART_1.c ****                 /* Disable Tx interrupt. */
1010:.\Generated_Source\PSoC5/UART_1.c ****                 /* Protect variables that could change on interrupt. */
1011:.\Generated_Source\PSoC5/UART_1.c ****                 #if(UART_1_TX_INTERRUPT_ENABLED)
1012:.\Generated_Source\PSoC5/UART_1.c ****                     UART_1_DisableTxInt();
1013:.\Generated_Source\PSoC5/UART_1.c ****                 #endif /* End UART_1_TX_INTERRUPT_ENABLED */
1014:.\Generated_Source\PSoC5/UART_1.c **** 
1015:.\Generated_Source\PSoC5/UART_1.c ****                 if( (UART_1_txBufferRead == UART_1_txBufferWrite) &&
1016:.\Generated_Source\PSoC5/UART_1.c ****                     ((UART_1_TXSTATUS_REG & UART_1_TX_STS_FIFO_FULL) == 0u) )
1017:.\Generated_Source\PSoC5/UART_1.c ****                 {
1018:.\Generated_Source\PSoC5/UART_1.c ****                     /* Add directly to the FIFO. */
1019:.\Generated_Source\PSoC5/UART_1.c ****                     UART_1_TXDATA_REG = txDataByte;
1020:.\Generated_Source\PSoC5/UART_1.c ****                 }
1021:.\Generated_Source\PSoC5/UART_1.c ****                 else
1022:.\Generated_Source\PSoC5/UART_1.c ****                 {
1023:.\Generated_Source\PSoC5/UART_1.c ****                     if(UART_1_txBufferWrite >= UART_1_TXBUFFERSIZE)
1024:.\Generated_Source\PSoC5/UART_1.c ****                     {
1025:.\Generated_Source\PSoC5/UART_1.c ****                         UART_1_txBufferWrite = 0u;
1026:.\Generated_Source\PSoC5/UART_1.c ****                     }
1027:.\Generated_Source\PSoC5/UART_1.c **** 
1028:.\Generated_Source\PSoC5/UART_1.c ****                     UART_1_txBuffer[UART_1_txBufferWrite] = txDataByte;
1029:.\Generated_Source\PSoC5/UART_1.c **** 
1030:.\Generated_Source\PSoC5/UART_1.c ****                     /* Add to the software buffer. */
1031:.\Generated_Source\PSoC5/UART_1.c ****                     UART_1_txBufferWrite++;
1032:.\Generated_Source\PSoC5/UART_1.c **** 
1033:.\Generated_Source\PSoC5/UART_1.c ****                 }
1034:.\Generated_Source\PSoC5/UART_1.c **** 
1035:.\Generated_Source\PSoC5/UART_1.c ****                 /* Enable Tx interrupt. */
1036:.\Generated_Source\PSoC5/UART_1.c ****                 #if(UART_1_TX_INTERRUPT_ENABLED)
1037:.\Generated_Source\PSoC5/UART_1.c ****                     UART_1_EnableTxInt();
1038:.\Generated_Source\PSoC5/UART_1.c ****                 #endif /* End UART_1_TX_INTERRUPT_ENABLED */
1039:.\Generated_Source\PSoC5/UART_1.c **** 
1040:.\Generated_Source\PSoC5/UART_1.c ****             #else /* UART_1_TXBUFFERSIZE > UART_1_FIFO_LENGTH */
1041:.\Generated_Source\PSoC5/UART_1.c **** 
1042:.\Generated_Source\PSoC5/UART_1.c ****                 /* Add directly to the FIFO. */
1043:.\Generated_Source\PSoC5/UART_1.c ****                 UART_1_TXDATA_REG = txDataByte;
 824              		.loc 1 1043 0
 825 0018 46F24343 		movw	r3, #:lower16:1073767491
 826 001c C4F20003 		movt	r3, #:upper16:1073767491
 827 0020 FA79     		ldrb	r2, [r7, #7]
 828 0022 1A70     		strb	r2, [r3, #0]
 829              	.L41:
1044:.\Generated_Source\PSoC5/UART_1.c **** 
1045:.\Generated_Source\PSoC5/UART_1.c ****             #endif /* End UART_1_TXBUFFERSIZE > UART_1_FIFO_LENGTH */
1046:.\Generated_Source\PSoC5/UART_1.c ****         }
1047:.\Generated_Source\PSoC5/UART_1.c ****     }
 830              		.loc 1 1047 0
ARM GAS  C:\Users\SUZUKI~1\AppData\Local\Temp\ccLnHTOh.s 			page 34


 831 0024 07F10C07 		add	r7, r7, #12
 832 0028 BD46     		mov	sp, r7
 833 002a 80BC     		pop	{r7}
 834 002c 7047     		bx	lr
 835              		.cfi_endproc
 836              	.LFE17:
 837              		.size	UART_1_WriteTxData, .-UART_1_WriteTxData
 838 002e 00BF     		.section	.text.UART_1_ReadTxStatus,"ax",%progbits
 839              		.align	2
 840              		.global	UART_1_ReadTxStatus
 841              		.thumb
 842              		.thumb_func
 843              		.type	UART_1_ReadTxStatus, %function
 844              	UART_1_ReadTxStatus:
 845              	.LFB18:
1048:.\Generated_Source\PSoC5/UART_1.c **** 
1049:.\Generated_Source\PSoC5/UART_1.c **** 
1050:.\Generated_Source\PSoC5/UART_1.c ****     /*******************************************************************************
1051:.\Generated_Source\PSoC5/UART_1.c ****     * Function Name: UART_1_ReadTxStatus
1052:.\Generated_Source\PSoC5/UART_1.c ****     ********************************************************************************
1053:.\Generated_Source\PSoC5/UART_1.c ****     *
1054:.\Generated_Source\PSoC5/UART_1.c ****     * Summary:
1055:.\Generated_Source\PSoC5/UART_1.c ****     *  Read the status register for the component
1056:.\Generated_Source\PSoC5/UART_1.c ****     *
1057:.\Generated_Source\PSoC5/UART_1.c ****     * Parameters:
1058:.\Generated_Source\PSoC5/UART_1.c ****     *  None.
1059:.\Generated_Source\PSoC5/UART_1.c ****     *
1060:.\Generated_Source\PSoC5/UART_1.c ****     * Return:
1061:.\Generated_Source\PSoC5/UART_1.c ****     *  Contents of the status register
1062:.\Generated_Source\PSoC5/UART_1.c ****     *
1063:.\Generated_Source\PSoC5/UART_1.c ****     * Theory:
1064:.\Generated_Source\PSoC5/UART_1.c ****     *  This function reads the status register which is clear on read. It is up to
1065:.\Generated_Source\PSoC5/UART_1.c ****     *  the user to handle all bits in this return value accordingly, even if the bit
1066:.\Generated_Source\PSoC5/UART_1.c ****     *  was not enabled as an interrupt source the event happened and must be handled
1067:.\Generated_Source\PSoC5/UART_1.c ****     *  accordingly.
1068:.\Generated_Source\PSoC5/UART_1.c ****     *
1069:.\Generated_Source\PSoC5/UART_1.c ****     *******************************************************************************/
1070:.\Generated_Source\PSoC5/UART_1.c ****     uint8 UART_1_ReadTxStatus(void) 
1071:.\Generated_Source\PSoC5/UART_1.c ****     {
 846              		.loc 1 1071 0
 847              		.cfi_startproc
 848              		@ args = 0, pretend = 0, frame = 0
 849              		@ frame_needed = 1, uses_anonymous_args = 0
 850              		@ link register save eliminated.
 851 0000 80B4     		push	{r7}
 852              	.LCFI50:
 853              		.cfi_def_cfa_offset 4
 854 0002 00AF     		add	r7, sp, #0
 855              		.cfi_offset 7, -4
 856              	.LCFI51:
 857              		.cfi_def_cfa_register 7
1072:.\Generated_Source\PSoC5/UART_1.c ****         return(UART_1_TXSTATUS_REG);
 858              		.loc 1 1072 0
 859 0004 46F26443 		movw	r3, #:lower16:1073767524
 860 0008 C4F20003 		movt	r3, #:upper16:1073767524
 861 000c 1B78     		ldrb	r3, [r3, #0]
 862 000e DBB2     		uxtb	r3, r3
ARM GAS  C:\Users\SUZUKI~1\AppData\Local\Temp\ccLnHTOh.s 			page 35


1073:.\Generated_Source\PSoC5/UART_1.c ****     }
 863              		.loc 1 1073 0
 864 0010 1846     		mov	r0, r3
 865 0012 BD46     		mov	sp, r7
 866 0014 80BC     		pop	{r7}
 867 0016 7047     		bx	lr
 868              		.cfi_endproc
 869              	.LFE18:
 870              		.size	UART_1_ReadTxStatus, .-UART_1_ReadTxStatus
 871              		.section	.text.UART_1_PutChar,"ax",%progbits
 872              		.align	2
 873              		.global	UART_1_PutChar
 874              		.thumb
 875              		.thumb_func
 876              		.type	UART_1_PutChar, %function
 877              	UART_1_PutChar:
 878              	.LFB19:
1074:.\Generated_Source\PSoC5/UART_1.c **** 
1075:.\Generated_Source\PSoC5/UART_1.c **** 
1076:.\Generated_Source\PSoC5/UART_1.c ****     /*******************************************************************************
1077:.\Generated_Source\PSoC5/UART_1.c ****     * Function Name: UART_1_PutChar
1078:.\Generated_Source\PSoC5/UART_1.c ****     ********************************************************************************
1079:.\Generated_Source\PSoC5/UART_1.c ****     *
1080:.\Generated_Source\PSoC5/UART_1.c ****     * Summary:
1081:.\Generated_Source\PSoC5/UART_1.c ****     *  Wait to send byte until TX register or buffer has room.
1082:.\Generated_Source\PSoC5/UART_1.c ****     *
1083:.\Generated_Source\PSoC5/UART_1.c ****     * Parameters:
1084:.\Generated_Source\PSoC5/UART_1.c ****     *  txDataByte: The 8-bit data value to send across the UART.
1085:.\Generated_Source\PSoC5/UART_1.c ****     *
1086:.\Generated_Source\PSoC5/UART_1.c ****     * Return:
1087:.\Generated_Source\PSoC5/UART_1.c ****     *  None.
1088:.\Generated_Source\PSoC5/UART_1.c ****     *
1089:.\Generated_Source\PSoC5/UART_1.c ****     * Global Variables:
1090:.\Generated_Source\PSoC5/UART_1.c ****     *  UART_1_txBuffer - RAM buffer pointer for save data for transmission
1091:.\Generated_Source\PSoC5/UART_1.c ****     *  UART_1_txBufferWrite - cyclic index for write to txBuffer,
1092:.\Generated_Source\PSoC5/UART_1.c ****     *     checked to identify free space in txBuffer and incremented after each byte
1093:.\Generated_Source\PSoC5/UART_1.c ****     *     saved to buffer.
1094:.\Generated_Source\PSoC5/UART_1.c ****     *  UART_1_txBufferRead - cyclic index for read from txBuffer,
1095:.\Generated_Source\PSoC5/UART_1.c ****     *     checked to identify free space in txBuffer.
1096:.\Generated_Source\PSoC5/UART_1.c ****     *  UART_1_initVar - checked to identify that the component has been
1097:.\Generated_Source\PSoC5/UART_1.c ****     *     initialized.
1098:.\Generated_Source\PSoC5/UART_1.c ****     *
1099:.\Generated_Source\PSoC5/UART_1.c ****     * Reentrant:
1100:.\Generated_Source\PSoC5/UART_1.c ****     *  No.
1101:.\Generated_Source\PSoC5/UART_1.c ****     *
1102:.\Generated_Source\PSoC5/UART_1.c ****     * Theory:
1103:.\Generated_Source\PSoC5/UART_1.c ****     *  Allows the user to transmit any byte of data in a single transfer
1104:.\Generated_Source\PSoC5/UART_1.c ****     *
1105:.\Generated_Source\PSoC5/UART_1.c ****     *******************************************************************************/
1106:.\Generated_Source\PSoC5/UART_1.c ****     void UART_1_PutChar(uint8 txDataByte) 
1107:.\Generated_Source\PSoC5/UART_1.c ****     {
 879              		.loc 1 1107 0
 880              		.cfi_startproc
 881              		@ args = 0, pretend = 0, frame = 8
 882              		@ frame_needed = 1, uses_anonymous_args = 0
 883              		@ link register save eliminated.
 884 0000 80B4     		push	{r7}
ARM GAS  C:\Users\SUZUKI~1\AppData\Local\Temp\ccLnHTOh.s 			page 36


 885              	.LCFI52:
 886              		.cfi_def_cfa_offset 4
 887 0002 83B0     		sub	sp, sp, #12
 888              	.LCFI53:
 889              		.cfi_def_cfa_offset 16
 890 0004 00AF     		add	r7, sp, #0
 891              		.cfi_offset 7, -4
 892              	.LCFI54:
 893              		.cfi_def_cfa_register 7
 894 0006 0346     		mov	r3, r0
 895 0008 FB71     		strb	r3, [r7, #7]
 896              	.L45:
1108:.\Generated_Source\PSoC5/UART_1.c ****             #if(UART_1_TXBUFFERSIZE > UART_1_FIFO_LENGTH)
1109:.\Generated_Source\PSoC5/UART_1.c ****                 /* The temporary output pointer is used since it takes two instructions
1110:.\Generated_Source\PSoC5/UART_1.c ****                 *  to increment with a wrap, and we can't risk doing that with the real
1111:.\Generated_Source\PSoC5/UART_1.c ****                 *  pointer and getting an interrupt in between instructions.
1112:.\Generated_Source\PSoC5/UART_1.c ****                 */
1113:.\Generated_Source\PSoC5/UART_1.c ****                 uint8 loc_txBufferWrite;
1114:.\Generated_Source\PSoC5/UART_1.c ****                 uint8 loc_txBufferRead;
1115:.\Generated_Source\PSoC5/UART_1.c **** 
1116:.\Generated_Source\PSoC5/UART_1.c ****                 do{
1117:.\Generated_Source\PSoC5/UART_1.c ****                     /* Block if software buffer is full, so we don't overwrite. */
1118:.\Generated_Source\PSoC5/UART_1.c ****                     #if ((UART_1_TXBUFFERSIZE > UART_1_MAX_BYTE_VALUE) && (CY_PSOC3))
1119:.\Generated_Source\PSoC5/UART_1.c ****                         /* Disable TX interrupt to protect variables that could change on interrupt
1120:.\Generated_Source\PSoC5/UART_1.c ****                         CyIntDisable(UART_1_TX_VECT_NUM);
1121:.\Generated_Source\PSoC5/UART_1.c ****                     #endif /* End TXBUFFERSIZE > 255 */
1122:.\Generated_Source\PSoC5/UART_1.c ****                     loc_txBufferWrite = UART_1_txBufferWrite;
1123:.\Generated_Source\PSoC5/UART_1.c ****                     loc_txBufferRead = UART_1_txBufferRead;
1124:.\Generated_Source\PSoC5/UART_1.c ****                     #if ((UART_1_TXBUFFERSIZE > UART_1_MAX_BYTE_VALUE) && (CY_PSOC3))
1125:.\Generated_Source\PSoC5/UART_1.c ****                         /* Enable interrupt to continue transmission */
1126:.\Generated_Source\PSoC5/UART_1.c ****                         CyIntEnable(UART_1_TX_VECT_NUM);
1127:.\Generated_Source\PSoC5/UART_1.c ****                     #endif /* End TXBUFFERSIZE > 255 */
1128:.\Generated_Source\PSoC5/UART_1.c ****                 }while( (loc_txBufferWrite < loc_txBufferRead) ? (loc_txBufferWrite == (loc_txBuffe
1129:.\Generated_Source\PSoC5/UART_1.c ****                                         ((loc_txBufferWrite - loc_txBufferRead) ==
1130:.\Generated_Source\PSoC5/UART_1.c ****                                         (uint8)(UART_1_TXBUFFERSIZE - 1u)) );
1131:.\Generated_Source\PSoC5/UART_1.c **** 
1132:.\Generated_Source\PSoC5/UART_1.c ****                 if( (loc_txBufferRead == loc_txBufferWrite) &&
1133:.\Generated_Source\PSoC5/UART_1.c ****                     ((UART_1_TXSTATUS_REG & UART_1_TX_STS_FIFO_FULL) == 0u) )
1134:.\Generated_Source\PSoC5/UART_1.c ****                 {
1135:.\Generated_Source\PSoC5/UART_1.c ****                     /* Add directly to the FIFO. */
1136:.\Generated_Source\PSoC5/UART_1.c ****                     UART_1_TXDATA_REG = txDataByte;
1137:.\Generated_Source\PSoC5/UART_1.c ****                 }
1138:.\Generated_Source\PSoC5/UART_1.c ****                 else
1139:.\Generated_Source\PSoC5/UART_1.c ****                 {
1140:.\Generated_Source\PSoC5/UART_1.c ****                     if(loc_txBufferWrite >= UART_1_TXBUFFERSIZE)
1141:.\Generated_Source\PSoC5/UART_1.c ****                     {
1142:.\Generated_Source\PSoC5/UART_1.c ****                         loc_txBufferWrite = 0u;
1143:.\Generated_Source\PSoC5/UART_1.c ****                     }
1144:.\Generated_Source\PSoC5/UART_1.c ****                     /* Add to the software buffer. */
1145:.\Generated_Source\PSoC5/UART_1.c ****                     UART_1_txBuffer[loc_txBufferWrite] = txDataByte;
1146:.\Generated_Source\PSoC5/UART_1.c ****                     loc_txBufferWrite++;
1147:.\Generated_Source\PSoC5/UART_1.c **** 
1148:.\Generated_Source\PSoC5/UART_1.c ****                     /* Finally, update the real output pointer */
1149:.\Generated_Source\PSoC5/UART_1.c ****                     #if ((UART_1_TXBUFFERSIZE > UART_1_MAX_BYTE_VALUE) && (CY_PSOC3))
1150:.\Generated_Source\PSoC5/UART_1.c ****                         CyIntDisable(UART_1_TX_VECT_NUM);
1151:.\Generated_Source\PSoC5/UART_1.c ****                     #endif /* End TXBUFFERSIZE > 255 */
1152:.\Generated_Source\PSoC5/UART_1.c ****                     UART_1_txBufferWrite = loc_txBufferWrite;
ARM GAS  C:\Users\SUZUKI~1\AppData\Local\Temp\ccLnHTOh.s 			page 37


1153:.\Generated_Source\PSoC5/UART_1.c ****                     #if ((UART_1_TXBUFFERSIZE > UART_1_MAX_BYTE_VALUE) && (CY_PSOC3))
1154:.\Generated_Source\PSoC5/UART_1.c ****                         CyIntEnable(UART_1_TX_VECT_NUM);
1155:.\Generated_Source\PSoC5/UART_1.c ****                     #endif /* End TXBUFFERSIZE > 255 */
1156:.\Generated_Source\PSoC5/UART_1.c ****                 }
1157:.\Generated_Source\PSoC5/UART_1.c **** 
1158:.\Generated_Source\PSoC5/UART_1.c ****             #else /* UART_1_TXBUFFERSIZE > UART_1_FIFO_LENGTH */
1159:.\Generated_Source\PSoC5/UART_1.c **** 
1160:.\Generated_Source\PSoC5/UART_1.c ****                 while((UART_1_TXSTATUS_REG & UART_1_TX_STS_FIFO_FULL) != 0u)
 897              		.loc 1 1160 0
 898 000a 46F26443 		movw	r3, #:lower16:1073767524
 899 000e C4F20003 		movt	r3, #:upper16:1073767524
 900 0012 1B78     		ldrb	r3, [r3, #0]
 901 0014 DBB2     		uxtb	r3, r3
 902 0016 03F00403 		and	r3, r3, #4
 903 001a 002B     		cmp	r3, #0
 904 001c F5D1     		bne	.L45
1161:.\Generated_Source\PSoC5/UART_1.c ****                 {
1162:.\Generated_Source\PSoC5/UART_1.c ****                     ; /* Wait for room in the FIFO. */
1163:.\Generated_Source\PSoC5/UART_1.c ****                 }
1164:.\Generated_Source\PSoC5/UART_1.c **** 
1165:.\Generated_Source\PSoC5/UART_1.c ****                 /* Add directly to the FIFO. */
1166:.\Generated_Source\PSoC5/UART_1.c ****                 UART_1_TXDATA_REG = txDataByte;
 905              		.loc 1 1166 0
 906 001e 46F24343 		movw	r3, #:lower16:1073767491
 907 0022 C4F20003 		movt	r3, #:upper16:1073767491
 908 0026 FA79     		ldrb	r2, [r7, #7]
 909 0028 1A70     		strb	r2, [r3, #0]
1167:.\Generated_Source\PSoC5/UART_1.c **** 
1168:.\Generated_Source\PSoC5/UART_1.c ****             #endif /* End UART_1_TXBUFFERSIZE > UART_1_FIFO_LENGTH */
1169:.\Generated_Source\PSoC5/UART_1.c ****     }
 910              		.loc 1 1169 0
 911 002a 07F10C07 		add	r7, r7, #12
 912 002e BD46     		mov	sp, r7
 913 0030 80BC     		pop	{r7}
 914 0032 7047     		bx	lr
 915              		.cfi_endproc
 916              	.LFE19:
 917              		.size	UART_1_PutChar, .-UART_1_PutChar
 918              		.section	.text.UART_1_PutString,"ax",%progbits
 919              		.align	2
 920              		.global	UART_1_PutString
 921              		.thumb
 922              		.thumb_func
 923              		.type	UART_1_PutString, %function
 924              	UART_1_PutString:
 925              	.LFB20:
1170:.\Generated_Source\PSoC5/UART_1.c **** 
1171:.\Generated_Source\PSoC5/UART_1.c **** 
1172:.\Generated_Source\PSoC5/UART_1.c ****     /*******************************************************************************
1173:.\Generated_Source\PSoC5/UART_1.c ****     * Function Name: UART_1_PutString
1174:.\Generated_Source\PSoC5/UART_1.c ****     ********************************************************************************
1175:.\Generated_Source\PSoC5/UART_1.c ****     *
1176:.\Generated_Source\PSoC5/UART_1.c ****     * Summary:
1177:.\Generated_Source\PSoC5/UART_1.c ****     *  Write a Sequence of bytes on the Transmit line. Data comes from RAM or ROM.
1178:.\Generated_Source\PSoC5/UART_1.c ****     *
1179:.\Generated_Source\PSoC5/UART_1.c ****     * Parameters:
1180:.\Generated_Source\PSoC5/UART_1.c ****     *  string: char pointer to character string of Data to Send.
ARM GAS  C:\Users\SUZUKI~1\AppData\Local\Temp\ccLnHTOh.s 			page 38


1181:.\Generated_Source\PSoC5/UART_1.c ****     *
1182:.\Generated_Source\PSoC5/UART_1.c ****     * Return:
1183:.\Generated_Source\PSoC5/UART_1.c ****     *  None.
1184:.\Generated_Source\PSoC5/UART_1.c ****     *
1185:.\Generated_Source\PSoC5/UART_1.c ****     * Global Variables:
1186:.\Generated_Source\PSoC5/UART_1.c ****     *  UART_1_initVar - checked to identify that the component has been
1187:.\Generated_Source\PSoC5/UART_1.c ****     *     initialized.
1188:.\Generated_Source\PSoC5/UART_1.c ****     *
1189:.\Generated_Source\PSoC5/UART_1.c ****     * Reentrant:
1190:.\Generated_Source\PSoC5/UART_1.c ****     *  No.
1191:.\Generated_Source\PSoC5/UART_1.c ****     *
1192:.\Generated_Source\PSoC5/UART_1.c ****     * Theory:
1193:.\Generated_Source\PSoC5/UART_1.c ****     *  This function will block if there is not enough memory to place the whole
1194:.\Generated_Source\PSoC5/UART_1.c ****     *  string, it will block until the entire string has been written to the
1195:.\Generated_Source\PSoC5/UART_1.c ****     *  transmit buffer.
1196:.\Generated_Source\PSoC5/UART_1.c ****     *
1197:.\Generated_Source\PSoC5/UART_1.c ****     *******************************************************************************/
1198:.\Generated_Source\PSoC5/UART_1.c ****     void UART_1_PutString(const char8 string[]) 
1199:.\Generated_Source\PSoC5/UART_1.c ****     {
 926              		.loc 1 1199 0
 927              		.cfi_startproc
 928              		@ args = 0, pretend = 0, frame = 16
 929              		@ frame_needed = 1, uses_anonymous_args = 0
 930 0000 80B5     		push	{r7, lr}
 931              	.LCFI55:
 932              		.cfi_def_cfa_offset 8
 933 0002 84B0     		sub	sp, sp, #16
 934              	.LCFI56:
 935              		.cfi_def_cfa_offset 24
 936 0004 00AF     		add	r7, sp, #0
 937              		.cfi_offset 14, -4
 938              		.cfi_offset 7, -8
 939              	.LCFI57:
 940              		.cfi_def_cfa_register 7
 941 0006 7860     		str	r0, [r7, #4]
1200:.\Generated_Source\PSoC5/UART_1.c ****         uint16 buf_index = 0u;
 942              		.loc 1 1200 0
 943 0008 4FF00003 		mov	r3, #0
 944 000c FB81     		strh	r3, [r7, #14]	@ movhi
1201:.\Generated_Source\PSoC5/UART_1.c ****         /* If not Initialized then skip this function*/
1202:.\Generated_Source\PSoC5/UART_1.c ****         if(UART_1_initVar != 0u)
 945              		.loc 1 1202 0
 946 000e 40F20003 		movw	r3, #:lower16:UART_1_initVar
 947 0012 C0F20003 		movt	r3, #:upper16:UART_1_initVar
 948 0016 1B78     		ldrb	r3, [r3, #0]	@ zero_extendqisi2
 949 0018 002B     		cmp	r3, #0
 950 001a 11D0     		beq	.L51
1203:.\Generated_Source\PSoC5/UART_1.c ****         {
1204:.\Generated_Source\PSoC5/UART_1.c ****             /* This is a blocking function, it will not exit until all data is sent*/
1205:.\Generated_Source\PSoC5/UART_1.c ****             while(string[buf_index] != (char8)0)
 951              		.loc 1 1205 0
 952 001c 0AE0     		b	.L49
 953              	.L50:
1206:.\Generated_Source\PSoC5/UART_1.c ****             {
1207:.\Generated_Source\PSoC5/UART_1.c ****                 UART_1_PutChar((uint8)string[buf_index]);
 954              		.loc 1 1207 0
 955 001e FA89     		ldrh	r2, [r7, #14]
ARM GAS  C:\Users\SUZUKI~1\AppData\Local\Temp\ccLnHTOh.s 			page 39


 956 0020 7B68     		ldr	r3, [r7, #4]
 957 0022 1344     		add	r3, r2, r3
 958 0024 1B78     		ldrb	r3, [r3, #0]	@ zero_extendqisi2
 959 0026 1846     		mov	r0, r3
 960 0028 FFF7FEFF 		bl	UART_1_PutChar
1208:.\Generated_Source\PSoC5/UART_1.c ****                 buf_index++;
 961              		.loc 1 1208 0
 962 002c FB89     		ldrh	r3, [r7, #14]	@ movhi
 963 002e 03F10103 		add	r3, r3, #1
 964 0032 FB81     		strh	r3, [r7, #14]	@ movhi
 965              	.L49:
 966              		.loc 1 1205 0
 967 0034 FA89     		ldrh	r2, [r7, #14]
 968 0036 7B68     		ldr	r3, [r7, #4]
 969 0038 1344     		add	r3, r2, r3
 970 003a 1B78     		ldrb	r3, [r3, #0]	@ zero_extendqisi2
 971 003c 002B     		cmp	r3, #0
 972 003e EED1     		bne	.L50
 973              	.L51:
1209:.\Generated_Source\PSoC5/UART_1.c ****             }
1210:.\Generated_Source\PSoC5/UART_1.c ****         }
1211:.\Generated_Source\PSoC5/UART_1.c ****     }
 974              		.loc 1 1211 0
 975 0040 07F11007 		add	r7, r7, #16
 976 0044 BD46     		mov	sp, r7
 977 0046 80BD     		pop	{r7, pc}
 978              		.cfi_endproc
 979              	.LFE20:
 980              		.size	UART_1_PutString, .-UART_1_PutString
 981              		.section	.text.UART_1_PutArray,"ax",%progbits
 982              		.align	2
 983              		.global	UART_1_PutArray
 984              		.thumb
 985              		.thumb_func
 986              		.type	UART_1_PutArray, %function
 987              	UART_1_PutArray:
 988              	.LFB21:
1212:.\Generated_Source\PSoC5/UART_1.c **** 
1213:.\Generated_Source\PSoC5/UART_1.c **** 
1214:.\Generated_Source\PSoC5/UART_1.c ****     /*******************************************************************************
1215:.\Generated_Source\PSoC5/UART_1.c ****     * Function Name: UART_1_PutArray
1216:.\Generated_Source\PSoC5/UART_1.c ****     ********************************************************************************
1217:.\Generated_Source\PSoC5/UART_1.c ****     *
1218:.\Generated_Source\PSoC5/UART_1.c ****     * Summary:
1219:.\Generated_Source\PSoC5/UART_1.c ****     *  Write a Sequence of bytes on the Transmit line. Data comes from RAM or ROM.
1220:.\Generated_Source\PSoC5/UART_1.c ****     *
1221:.\Generated_Source\PSoC5/UART_1.c ****     * Parameters:
1222:.\Generated_Source\PSoC5/UART_1.c ****     *  string: Address of the memory array residing in RAM or ROM.
1223:.\Generated_Source\PSoC5/UART_1.c ****     *  byteCount: Number of Bytes to be transmitted.
1224:.\Generated_Source\PSoC5/UART_1.c ****     *
1225:.\Generated_Source\PSoC5/UART_1.c ****     * Return:
1226:.\Generated_Source\PSoC5/UART_1.c ****     *  None.
1227:.\Generated_Source\PSoC5/UART_1.c ****     *
1228:.\Generated_Source\PSoC5/UART_1.c ****     * Global Variables:
1229:.\Generated_Source\PSoC5/UART_1.c ****     *  UART_1_initVar - checked to identify that the component has been
1230:.\Generated_Source\PSoC5/UART_1.c ****     *     initialized.
1231:.\Generated_Source\PSoC5/UART_1.c ****     *
ARM GAS  C:\Users\SUZUKI~1\AppData\Local\Temp\ccLnHTOh.s 			page 40


1232:.\Generated_Source\PSoC5/UART_1.c ****     * Reentrant:
1233:.\Generated_Source\PSoC5/UART_1.c ****     *  No.
1234:.\Generated_Source\PSoC5/UART_1.c ****     *
1235:.\Generated_Source\PSoC5/UART_1.c ****     *******************************************************************************/
1236:.\Generated_Source\PSoC5/UART_1.c ****     void UART_1_PutArray(const uint8 string[], uint8 byteCount)
1237:.\Generated_Source\PSoC5/UART_1.c ****                                                                     
1238:.\Generated_Source\PSoC5/UART_1.c ****     {
 989              		.loc 1 1238 0
 990              		.cfi_startproc
 991              		@ args = 0, pretend = 0, frame = 16
 992              		@ frame_needed = 1, uses_anonymous_args = 0
 993 0000 80B5     		push	{r7, lr}
 994              	.LCFI58:
 995              		.cfi_def_cfa_offset 8
 996 0002 84B0     		sub	sp, sp, #16
 997              	.LCFI59:
 998              		.cfi_def_cfa_offset 24
 999 0004 00AF     		add	r7, sp, #0
 1000              		.cfi_offset 14, -4
 1001              		.cfi_offset 7, -8
 1002              	.LCFI60:
 1003              		.cfi_def_cfa_register 7
 1004 0006 7860     		str	r0, [r7, #4]
 1005 0008 0B46     		mov	r3, r1
 1006 000a FB70     		strb	r3, [r7, #3]
1239:.\Generated_Source\PSoC5/UART_1.c ****         uint8 buf_index = 0u;
 1007              		.loc 1 1239 0
 1008 000c 4FF00003 		mov	r3, #0
 1009 0010 FB73     		strb	r3, [r7, #15]
1240:.\Generated_Source\PSoC5/UART_1.c ****         /* If not Initialized then skip this function*/
1241:.\Generated_Source\PSoC5/UART_1.c ****         if(UART_1_initVar != 0u)
 1010              		.loc 1 1241 0
 1011 0012 40F20003 		movw	r3, #:lower16:UART_1_initVar
 1012 0016 C0F20003 		movt	r3, #:upper16:UART_1_initVar
 1013 001a 1B78     		ldrb	r3, [r3, #0]	@ zero_extendqisi2
 1014 001c 002B     		cmp	r3, #0
 1015 001e 0ED0     		beq	.L55
 1016              	.L54:
1242:.\Generated_Source\PSoC5/UART_1.c ****         {
1243:.\Generated_Source\PSoC5/UART_1.c ****             do
1244:.\Generated_Source\PSoC5/UART_1.c ****             {
1245:.\Generated_Source\PSoC5/UART_1.c ****                 UART_1_PutChar(string[buf_index]);
 1017              		.loc 1 1245 0
 1018 0020 FA7B     		ldrb	r2, [r7, #15]	@ zero_extendqisi2
 1019 0022 7B68     		ldr	r3, [r7, #4]
 1020 0024 1344     		add	r3, r2, r3
 1021 0026 1B78     		ldrb	r3, [r3, #0]	@ zero_extendqisi2
 1022 0028 1846     		mov	r0, r3
 1023 002a FFF7FEFF 		bl	UART_1_PutChar
1246:.\Generated_Source\PSoC5/UART_1.c ****                 buf_index++;
 1024              		.loc 1 1246 0
 1025 002e FB7B     		ldrb	r3, [r7, #15]
 1026 0030 03F10103 		add	r3, r3, #1
 1027 0034 FB73     		strb	r3, [r7, #15]
1247:.\Generated_Source\PSoC5/UART_1.c ****             }while(buf_index < byteCount);
 1028              		.loc 1 1247 0
 1029 0036 FA7B     		ldrb	r2, [r7, #15]	@ zero_extendqisi2
ARM GAS  C:\Users\SUZUKI~1\AppData\Local\Temp\ccLnHTOh.s 			page 41


 1030 0038 FB78     		ldrb	r3, [r7, #3]	@ zero_extendqisi2
 1031 003a 9A42     		cmp	r2, r3
 1032 003c F0D3     		bcc	.L54
 1033              	.L55:
1248:.\Generated_Source\PSoC5/UART_1.c ****         }
1249:.\Generated_Source\PSoC5/UART_1.c ****     }
 1034              		.loc 1 1249 0
 1035 003e 07F11007 		add	r7, r7, #16
 1036 0042 BD46     		mov	sp, r7
 1037 0044 80BD     		pop	{r7, pc}
 1038              		.cfi_endproc
 1039              	.LFE21:
 1040              		.size	UART_1_PutArray, .-UART_1_PutArray
 1041 0046 00BF     		.section	.text.UART_1_PutCRLF,"ax",%progbits
 1042              		.align	2
 1043              		.global	UART_1_PutCRLF
 1044              		.thumb
 1045              		.thumb_func
 1046              		.type	UART_1_PutCRLF, %function
 1047              	UART_1_PutCRLF:
 1048              	.LFB22:
1250:.\Generated_Source\PSoC5/UART_1.c **** 
1251:.\Generated_Source\PSoC5/UART_1.c **** 
1252:.\Generated_Source\PSoC5/UART_1.c ****     /*******************************************************************************
1253:.\Generated_Source\PSoC5/UART_1.c ****     * Function Name: UART_1_PutCRLF
1254:.\Generated_Source\PSoC5/UART_1.c ****     ********************************************************************************
1255:.\Generated_Source\PSoC5/UART_1.c ****     *
1256:.\Generated_Source\PSoC5/UART_1.c ****     * Summary:
1257:.\Generated_Source\PSoC5/UART_1.c ****     *  Write a character and then carriage return and line feed.
1258:.\Generated_Source\PSoC5/UART_1.c ****     *
1259:.\Generated_Source\PSoC5/UART_1.c ****     * Parameters:
1260:.\Generated_Source\PSoC5/UART_1.c ****     *  txDataByte: uint8 Character to send.
1261:.\Generated_Source\PSoC5/UART_1.c ****     *
1262:.\Generated_Source\PSoC5/UART_1.c ****     * Return:
1263:.\Generated_Source\PSoC5/UART_1.c ****     *  None.
1264:.\Generated_Source\PSoC5/UART_1.c ****     *
1265:.\Generated_Source\PSoC5/UART_1.c ****     * Global Variables:
1266:.\Generated_Source\PSoC5/UART_1.c ****     *  UART_1_initVar - checked to identify that the component has been
1267:.\Generated_Source\PSoC5/UART_1.c ****     *     initialized.
1268:.\Generated_Source\PSoC5/UART_1.c ****     *
1269:.\Generated_Source\PSoC5/UART_1.c ****     * Reentrant:
1270:.\Generated_Source\PSoC5/UART_1.c ****     *  No.
1271:.\Generated_Source\PSoC5/UART_1.c ****     *
1272:.\Generated_Source\PSoC5/UART_1.c ****     *******************************************************************************/
1273:.\Generated_Source\PSoC5/UART_1.c ****     void UART_1_PutCRLF(uint8 txDataByte) 
1274:.\Generated_Source\PSoC5/UART_1.c ****     {
 1049              		.loc 1 1274 0
 1050              		.cfi_startproc
 1051              		@ args = 0, pretend = 0, frame = 8
 1052              		@ frame_needed = 1, uses_anonymous_args = 0
 1053 0000 80B5     		push	{r7, lr}
 1054              	.LCFI61:
 1055              		.cfi_def_cfa_offset 8
 1056 0002 82B0     		sub	sp, sp, #8
 1057              	.LCFI62:
 1058              		.cfi_def_cfa_offset 16
 1059 0004 00AF     		add	r7, sp, #0
ARM GAS  C:\Users\SUZUKI~1\AppData\Local\Temp\ccLnHTOh.s 			page 42


 1060              		.cfi_offset 14, -4
 1061              		.cfi_offset 7, -8
 1062              	.LCFI63:
 1063              		.cfi_def_cfa_register 7
 1064 0006 0346     		mov	r3, r0
 1065 0008 FB71     		strb	r3, [r7, #7]
1275:.\Generated_Source\PSoC5/UART_1.c ****         /* If not Initialized then skip this function*/
1276:.\Generated_Source\PSoC5/UART_1.c ****         if(UART_1_initVar != 0u)
 1066              		.loc 1 1276 0
 1067 000a 40F20003 		movw	r3, #:lower16:UART_1_initVar
 1068 000e C0F20003 		movt	r3, #:upper16:UART_1_initVar
 1069 0012 1B78     		ldrb	r3, [r3, #0]	@ zero_extendqisi2
 1070 0014 002B     		cmp	r3, #0
 1071 0016 0BD0     		beq	.L58
1277:.\Generated_Source\PSoC5/UART_1.c ****         {
1278:.\Generated_Source\PSoC5/UART_1.c ****             UART_1_PutChar(txDataByte);
 1072              		.loc 1 1278 0
 1073 0018 FB79     		ldrb	r3, [r7, #7]	@ zero_extendqisi2
 1074 001a 1846     		mov	r0, r3
 1075 001c FFF7FEFF 		bl	UART_1_PutChar
1279:.\Generated_Source\PSoC5/UART_1.c ****             UART_1_PutChar(0x0Du);
 1076              		.loc 1 1279 0
 1077 0020 4FF00D00 		mov	r0, #13
 1078 0024 FFF7FEFF 		bl	UART_1_PutChar
1280:.\Generated_Source\PSoC5/UART_1.c ****             UART_1_PutChar(0x0Au);
 1079              		.loc 1 1280 0
 1080 0028 4FF00A00 		mov	r0, #10
 1081 002c FFF7FEFF 		bl	UART_1_PutChar
 1082              	.L58:
1281:.\Generated_Source\PSoC5/UART_1.c ****         }
1282:.\Generated_Source\PSoC5/UART_1.c ****     }
 1083              		.loc 1 1282 0
 1084 0030 07F10807 		add	r7, r7, #8
 1085 0034 BD46     		mov	sp, r7
 1086 0036 80BD     		pop	{r7, pc}
 1087              		.cfi_endproc
 1088              	.LFE22:
 1089              		.size	UART_1_PutCRLF, .-UART_1_PutCRLF
 1090              		.section	.text.UART_1_GetTxBufferSize,"ax",%progbits
 1091              		.align	2
 1092              		.global	UART_1_GetTxBufferSize
 1093              		.thumb
 1094              		.thumb_func
 1095              		.type	UART_1_GetTxBufferSize, %function
 1096              	UART_1_GetTxBufferSize:
 1097              	.LFB23:
1283:.\Generated_Source\PSoC5/UART_1.c **** 
1284:.\Generated_Source\PSoC5/UART_1.c **** 
1285:.\Generated_Source\PSoC5/UART_1.c ****     /*******************************************************************************
1286:.\Generated_Source\PSoC5/UART_1.c ****     * Function Name: UART_1_GetTxBufferSize
1287:.\Generated_Source\PSoC5/UART_1.c ****     ********************************************************************************
1288:.\Generated_Source\PSoC5/UART_1.c ****     *
1289:.\Generated_Source\PSoC5/UART_1.c ****     * Summary:
1290:.\Generated_Source\PSoC5/UART_1.c ****     *  Determine the amount of space left in the TX buffer and return the count in
1291:.\Generated_Source\PSoC5/UART_1.c ****     *  bytes
1292:.\Generated_Source\PSoC5/UART_1.c ****     *
1293:.\Generated_Source\PSoC5/UART_1.c ****     * Parameters:
ARM GAS  C:\Users\SUZUKI~1\AppData\Local\Temp\ccLnHTOh.s 			page 43


1294:.\Generated_Source\PSoC5/UART_1.c ****     *  None.
1295:.\Generated_Source\PSoC5/UART_1.c ****     *
1296:.\Generated_Source\PSoC5/UART_1.c ****     * Return:
1297:.\Generated_Source\PSoC5/UART_1.c ****     *  Integer count of the number of bytes left in the TX buffer
1298:.\Generated_Source\PSoC5/UART_1.c ****     *
1299:.\Generated_Source\PSoC5/UART_1.c ****     * Global Variables:
1300:.\Generated_Source\PSoC5/UART_1.c ****     *  UART_1_txBufferWrite - used to calculate left space.
1301:.\Generated_Source\PSoC5/UART_1.c ****     *  UART_1_txBufferRead - used to calculate left space.
1302:.\Generated_Source\PSoC5/UART_1.c ****     *
1303:.\Generated_Source\PSoC5/UART_1.c ****     * Reentrant:
1304:.\Generated_Source\PSoC5/UART_1.c ****     *  No.
1305:.\Generated_Source\PSoC5/UART_1.c ****     *
1306:.\Generated_Source\PSoC5/UART_1.c ****     * Theory:
1307:.\Generated_Source\PSoC5/UART_1.c ****     *  Allows the user to find out how full the TX Buffer is.
1308:.\Generated_Source\PSoC5/UART_1.c ****     *
1309:.\Generated_Source\PSoC5/UART_1.c ****     *******************************************************************************/
1310:.\Generated_Source\PSoC5/UART_1.c ****     uint8 UART_1_GetTxBufferSize(void)
1311:.\Generated_Source\PSoC5/UART_1.c ****                                                             
1312:.\Generated_Source\PSoC5/UART_1.c ****     {
 1098              		.loc 1 1312 0
 1099              		.cfi_startproc
 1100              		@ args = 0, pretend = 0, frame = 8
 1101              		@ frame_needed = 1, uses_anonymous_args = 0
 1102              		@ link register save eliminated.
 1103 0000 80B4     		push	{r7}
 1104              	.LCFI64:
 1105              		.cfi_def_cfa_offset 4
 1106 0002 83B0     		sub	sp, sp, #12
 1107              	.LCFI65:
 1108              		.cfi_def_cfa_offset 16
 1109 0004 00AF     		add	r7, sp, #0
 1110              		.cfi_offset 7, -4
 1111              	.LCFI66:
 1112              		.cfi_def_cfa_register 7
1313:.\Generated_Source\PSoC5/UART_1.c ****         uint8 size;
1314:.\Generated_Source\PSoC5/UART_1.c **** 
1315:.\Generated_Source\PSoC5/UART_1.c ****         #if(UART_1_TXBUFFERSIZE > UART_1_FIFO_LENGTH)
1316:.\Generated_Source\PSoC5/UART_1.c **** 
1317:.\Generated_Source\PSoC5/UART_1.c ****             /* Disable Tx interrupt. */
1318:.\Generated_Source\PSoC5/UART_1.c ****             /* Protect variables that could change on interrupt. */
1319:.\Generated_Source\PSoC5/UART_1.c ****             #if(UART_1_TX_INTERRUPT_ENABLED)
1320:.\Generated_Source\PSoC5/UART_1.c ****                 UART_1_DisableTxInt();
1321:.\Generated_Source\PSoC5/UART_1.c ****             #endif /* End UART_1_TX_INTERRUPT_ENABLED */
1322:.\Generated_Source\PSoC5/UART_1.c **** 
1323:.\Generated_Source\PSoC5/UART_1.c ****             if(UART_1_txBufferRead == UART_1_txBufferWrite)
1324:.\Generated_Source\PSoC5/UART_1.c ****             {
1325:.\Generated_Source\PSoC5/UART_1.c ****                 size = 0u;
1326:.\Generated_Source\PSoC5/UART_1.c ****             }
1327:.\Generated_Source\PSoC5/UART_1.c ****             else if(UART_1_txBufferRead < UART_1_txBufferWrite)
1328:.\Generated_Source\PSoC5/UART_1.c ****             {
1329:.\Generated_Source\PSoC5/UART_1.c ****                 size = (UART_1_txBufferWrite - UART_1_txBufferRead);
1330:.\Generated_Source\PSoC5/UART_1.c ****             }
1331:.\Generated_Source\PSoC5/UART_1.c ****             else
1332:.\Generated_Source\PSoC5/UART_1.c ****             {
1333:.\Generated_Source\PSoC5/UART_1.c ****                 size = (UART_1_TXBUFFERSIZE - UART_1_txBufferRead) + UART_1_txBufferWrite;
1334:.\Generated_Source\PSoC5/UART_1.c ****             }
1335:.\Generated_Source\PSoC5/UART_1.c **** 
ARM GAS  C:\Users\SUZUKI~1\AppData\Local\Temp\ccLnHTOh.s 			page 44


1336:.\Generated_Source\PSoC5/UART_1.c ****             /* Enable Tx interrupt. */
1337:.\Generated_Source\PSoC5/UART_1.c ****             #if(UART_1_TX_INTERRUPT_ENABLED)
1338:.\Generated_Source\PSoC5/UART_1.c ****                 UART_1_EnableTxInt();
1339:.\Generated_Source\PSoC5/UART_1.c ****             #endif /* End UART_1_TX_INTERRUPT_ENABLED */
1340:.\Generated_Source\PSoC5/UART_1.c **** 
1341:.\Generated_Source\PSoC5/UART_1.c ****         #else /* UART_1_TXBUFFERSIZE > UART_1_FIFO_LENGTH */
1342:.\Generated_Source\PSoC5/UART_1.c **** 
1343:.\Generated_Source\PSoC5/UART_1.c ****             size = UART_1_TXSTATUS_REG;
 1113              		.loc 1 1343 0
 1114 0006 46F26443 		movw	r3, #:lower16:1073767524
 1115 000a C4F20003 		movt	r3, #:upper16:1073767524
 1116 000e 1B78     		ldrb	r3, [r3, #0]
 1117 0010 FB71     		strb	r3, [r7, #7]
1344:.\Generated_Source\PSoC5/UART_1.c **** 
1345:.\Generated_Source\PSoC5/UART_1.c ****             /* Is the fifo is full. */
1346:.\Generated_Source\PSoC5/UART_1.c ****             if((size & UART_1_TX_STS_FIFO_FULL) != 0u)
 1118              		.loc 1 1346 0
 1119 0012 FB79     		ldrb	r3, [r7, #7]	@ zero_extendqisi2
 1120 0014 03F00403 		and	r3, r3, #4
 1121 0018 002B     		cmp	r3, #0
 1122 001a 03D0     		beq	.L60
1347:.\Generated_Source\PSoC5/UART_1.c ****             {
1348:.\Generated_Source\PSoC5/UART_1.c ****                 size = UART_1_FIFO_LENGTH;
 1123              		.loc 1 1348 0
 1124 001c 4FF00403 		mov	r3, #4
 1125 0020 FB71     		strb	r3, [r7, #7]
 1126 0022 0BE0     		b	.L61
 1127              	.L60:
1349:.\Generated_Source\PSoC5/UART_1.c ****             }
1350:.\Generated_Source\PSoC5/UART_1.c ****             else if((size & UART_1_TX_STS_FIFO_EMPTY) != 0u)
 1128              		.loc 1 1350 0
 1129 0024 FB79     		ldrb	r3, [r7, #7]	@ zero_extendqisi2
 1130 0026 03F00203 		and	r3, r3, #2
 1131 002a 002B     		cmp	r3, #0
 1132 002c 03D0     		beq	.L62
1351:.\Generated_Source\PSoC5/UART_1.c ****             {
1352:.\Generated_Source\PSoC5/UART_1.c ****                 size = 0u;
 1133              		.loc 1 1352 0
 1134 002e 4FF00003 		mov	r3, #0
 1135 0032 FB71     		strb	r3, [r7, #7]
 1136 0034 02E0     		b	.L61
 1137              	.L62:
1353:.\Generated_Source\PSoC5/UART_1.c ****             }
1354:.\Generated_Source\PSoC5/UART_1.c ****             else
1355:.\Generated_Source\PSoC5/UART_1.c ****             {
1356:.\Generated_Source\PSoC5/UART_1.c ****                 /* We only know there is data in the fifo. */
1357:.\Generated_Source\PSoC5/UART_1.c ****                 size = 1u;
 1138              		.loc 1 1357 0
 1139 0036 4FF00103 		mov	r3, #1
 1140 003a FB71     		strb	r3, [r7, #7]
 1141              	.L61:
1358:.\Generated_Source\PSoC5/UART_1.c ****             }
1359:.\Generated_Source\PSoC5/UART_1.c **** 
1360:.\Generated_Source\PSoC5/UART_1.c ****         #endif /* End UART_1_TXBUFFERSIZE > UART_1_FIFO_LENGTH */
1361:.\Generated_Source\PSoC5/UART_1.c **** 
1362:.\Generated_Source\PSoC5/UART_1.c ****         return(size);
 1142              		.loc 1 1362 0
ARM GAS  C:\Users\SUZUKI~1\AppData\Local\Temp\ccLnHTOh.s 			page 45


 1143 003c FB79     		ldrb	r3, [r7, #7]	@ zero_extendqisi2
1363:.\Generated_Source\PSoC5/UART_1.c ****     }
 1144              		.loc 1 1363 0
 1145 003e 1846     		mov	r0, r3
 1146 0040 07F10C07 		add	r7, r7, #12
 1147 0044 BD46     		mov	sp, r7
 1148 0046 80BC     		pop	{r7}
 1149 0048 7047     		bx	lr
 1150              		.cfi_endproc
 1151              	.LFE23:
 1152              		.size	UART_1_GetTxBufferSize, .-UART_1_GetTxBufferSize
 1153 004a 00BF     		.section	.text.UART_1_ClearTxBuffer,"ax",%progbits
 1154              		.align	2
 1155              		.global	UART_1_ClearTxBuffer
 1156              		.thumb
 1157              		.thumb_func
 1158              		.type	UART_1_ClearTxBuffer, %function
 1159              	UART_1_ClearTxBuffer:
 1160              	.LFB24:
1364:.\Generated_Source\PSoC5/UART_1.c **** 
1365:.\Generated_Source\PSoC5/UART_1.c **** 
1366:.\Generated_Source\PSoC5/UART_1.c ****     /*******************************************************************************
1367:.\Generated_Source\PSoC5/UART_1.c ****     * Function Name: UART_1_ClearTxBuffer
1368:.\Generated_Source\PSoC5/UART_1.c ****     ********************************************************************************
1369:.\Generated_Source\PSoC5/UART_1.c ****     *
1370:.\Generated_Source\PSoC5/UART_1.c ****     * Summary:
1371:.\Generated_Source\PSoC5/UART_1.c ****     *  Clears the TX RAM buffer by setting the read and write pointers both to zero.
1372:.\Generated_Source\PSoC5/UART_1.c ****     *  Clears the hardware TX FIFO.  Any data present in the FIFO will not be sent.
1373:.\Generated_Source\PSoC5/UART_1.c ****     *
1374:.\Generated_Source\PSoC5/UART_1.c ****     * Parameters:
1375:.\Generated_Source\PSoC5/UART_1.c ****     *  None.
1376:.\Generated_Source\PSoC5/UART_1.c ****     *
1377:.\Generated_Source\PSoC5/UART_1.c ****     * Return:
1378:.\Generated_Source\PSoC5/UART_1.c ****     *  None.
1379:.\Generated_Source\PSoC5/UART_1.c ****     *
1380:.\Generated_Source\PSoC5/UART_1.c ****     * Global Variables:
1381:.\Generated_Source\PSoC5/UART_1.c ****     *  UART_1_txBufferWrite - cleared to zero.
1382:.\Generated_Source\PSoC5/UART_1.c ****     *  UART_1_txBufferRead - cleared to zero.
1383:.\Generated_Source\PSoC5/UART_1.c ****     *
1384:.\Generated_Source\PSoC5/UART_1.c ****     * Reentrant:
1385:.\Generated_Source\PSoC5/UART_1.c ****     *  No.
1386:.\Generated_Source\PSoC5/UART_1.c ****     *
1387:.\Generated_Source\PSoC5/UART_1.c ****     * Theory:
1388:.\Generated_Source\PSoC5/UART_1.c ****     *  Setting the pointers to zero makes the system believe there is no data to
1389:.\Generated_Source\PSoC5/UART_1.c ****     *  read and writing will resume at address 0 overwriting any data that may have
1390:.\Generated_Source\PSoC5/UART_1.c ****     *  remained in the RAM.
1391:.\Generated_Source\PSoC5/UART_1.c ****     *
1392:.\Generated_Source\PSoC5/UART_1.c ****     * Side Effects:
1393:.\Generated_Source\PSoC5/UART_1.c ****     *  Any received data not read from the RAM buffer will be lost when overwritten.
1394:.\Generated_Source\PSoC5/UART_1.c ****     *
1395:.\Generated_Source\PSoC5/UART_1.c ****     *******************************************************************************/
1396:.\Generated_Source\PSoC5/UART_1.c ****     void UART_1_ClearTxBuffer(void) 
1397:.\Generated_Source\PSoC5/UART_1.c ****     {
 1161              		.loc 1 1397 0
 1162              		.cfi_startproc
 1163              		@ args = 0, pretend = 0, frame = 8
 1164              		@ frame_needed = 1, uses_anonymous_args = 0
ARM GAS  C:\Users\SUZUKI~1\AppData\Local\Temp\ccLnHTOh.s 			page 46


 1165 0000 80B5     		push	{r7, lr}
 1166              	.LCFI67:
 1167              		.cfi_def_cfa_offset 8
 1168 0002 82B0     		sub	sp, sp, #8
 1169              	.LCFI68:
 1170              		.cfi_def_cfa_offset 16
 1171 0004 00AF     		add	r7, sp, #0
 1172              		.cfi_offset 14, -4
 1173              		.cfi_offset 7, -8
 1174              	.LCFI69:
 1175              		.cfi_def_cfa_register 7
1398:.\Generated_Source\PSoC5/UART_1.c ****         uint8 enableInterrupts;
1399:.\Generated_Source\PSoC5/UART_1.c **** 
1400:.\Generated_Source\PSoC5/UART_1.c ****         /* Enter critical section */
1401:.\Generated_Source\PSoC5/UART_1.c ****         enableInterrupts = CyEnterCriticalSection();
 1176              		.loc 1 1401 0
 1177 0006 FFF7FEFF 		bl	CyEnterCriticalSection
 1178 000a 0346     		mov	r3, r0
 1179 000c FB71     		strb	r3, [r7, #7]
1402:.\Generated_Source\PSoC5/UART_1.c ****         /* clear the HW FIFO */
1403:.\Generated_Source\PSoC5/UART_1.c ****         UART_1_TXDATA_AUX_CTL_REG |=  UART_1_TX_FIFO_CLR;
 1180              		.loc 1 1403 0
 1181 000e 46F29343 		movw	r3, #:lower16:1073767571
 1182 0012 C4F20003 		movt	r3, #:upper16:1073767571
 1183 0016 46F29342 		movw	r2, #:lower16:1073767571
 1184 001a C4F20002 		movt	r2, #:upper16:1073767571
 1185 001e 1278     		ldrb	r2, [r2, #0]
 1186 0020 D2B2     		uxtb	r2, r2
 1187 0022 42F00102 		orr	r2, r2, #1
 1188 0026 D2B2     		uxtb	r2, r2
 1189 0028 1A70     		strb	r2, [r3, #0]
1404:.\Generated_Source\PSoC5/UART_1.c ****         UART_1_TXDATA_AUX_CTL_REG &= (uint8)~UART_1_TX_FIFO_CLR;
 1190              		.loc 1 1404 0
 1191 002a 46F29343 		movw	r3, #:lower16:1073767571
 1192 002e C4F20003 		movt	r3, #:upper16:1073767571
 1193 0032 46F29342 		movw	r2, #:lower16:1073767571
 1194 0036 C4F20002 		movt	r2, #:upper16:1073767571
 1195 003a 1278     		ldrb	r2, [r2, #0]
 1196 003c D2B2     		uxtb	r2, r2
 1197 003e 02F0FE02 		and	r2, r2, #254
 1198 0042 1A70     		strb	r2, [r3, #0]
1405:.\Generated_Source\PSoC5/UART_1.c ****         /* Exit critical section */
1406:.\Generated_Source\PSoC5/UART_1.c ****         CyExitCriticalSection(enableInterrupts);
 1199              		.loc 1 1406 0
 1200 0044 FB79     		ldrb	r3, [r7, #7]	@ zero_extendqisi2
 1201 0046 1846     		mov	r0, r3
 1202 0048 FFF7FEFF 		bl	CyExitCriticalSection
1407:.\Generated_Source\PSoC5/UART_1.c **** 
1408:.\Generated_Source\PSoC5/UART_1.c ****         #if(UART_1_TXBUFFERSIZE > UART_1_FIFO_LENGTH)
1409:.\Generated_Source\PSoC5/UART_1.c **** 
1410:.\Generated_Source\PSoC5/UART_1.c ****             /* Disable Tx interrupt. */
1411:.\Generated_Source\PSoC5/UART_1.c ****             /* Protect variables that could change on interrupt. */
1412:.\Generated_Source\PSoC5/UART_1.c ****             #if(UART_1_TX_INTERRUPT_ENABLED)
1413:.\Generated_Source\PSoC5/UART_1.c ****                 UART_1_DisableTxInt();
1414:.\Generated_Source\PSoC5/UART_1.c ****             #endif /* End UART_1_TX_INTERRUPT_ENABLED */
1415:.\Generated_Source\PSoC5/UART_1.c **** 
1416:.\Generated_Source\PSoC5/UART_1.c ****             UART_1_txBufferRead = 0u;
ARM GAS  C:\Users\SUZUKI~1\AppData\Local\Temp\ccLnHTOh.s 			page 47


1417:.\Generated_Source\PSoC5/UART_1.c ****             UART_1_txBufferWrite = 0u;
1418:.\Generated_Source\PSoC5/UART_1.c **** 
1419:.\Generated_Source\PSoC5/UART_1.c ****             /* Enable Tx interrupt. */
1420:.\Generated_Source\PSoC5/UART_1.c ****             #if(UART_1_TX_INTERRUPT_ENABLED)
1421:.\Generated_Source\PSoC5/UART_1.c ****                 UART_1_EnableTxInt();
1422:.\Generated_Source\PSoC5/UART_1.c ****             #endif /* End UART_1_TX_INTERRUPT_ENABLED */
1423:.\Generated_Source\PSoC5/UART_1.c **** 
1424:.\Generated_Source\PSoC5/UART_1.c ****         #endif /* End UART_1_TXBUFFERSIZE > UART_1_FIFO_LENGTH */
1425:.\Generated_Source\PSoC5/UART_1.c ****     }
 1203              		.loc 1 1425 0
 1204 004c 07F10807 		add	r7, r7, #8
 1205 0050 BD46     		mov	sp, r7
 1206 0052 80BD     		pop	{r7, pc}
 1207              		.cfi_endproc
 1208              	.LFE24:
 1209              		.size	UART_1_ClearTxBuffer, .-UART_1_ClearTxBuffer
 1210              		.section	.text.UART_1_SendBreak,"ax",%progbits
 1211              		.align	2
 1212              		.global	UART_1_SendBreak
 1213              		.thumb
 1214              		.thumb_func
 1215              		.type	UART_1_SendBreak, %function
 1216              	UART_1_SendBreak:
 1217              	.LFB25:
1426:.\Generated_Source\PSoC5/UART_1.c **** 
1427:.\Generated_Source\PSoC5/UART_1.c **** 
1428:.\Generated_Source\PSoC5/UART_1.c ****     /*******************************************************************************
1429:.\Generated_Source\PSoC5/UART_1.c ****     * Function Name: UART_1_SendBreak
1430:.\Generated_Source\PSoC5/UART_1.c ****     ********************************************************************************
1431:.\Generated_Source\PSoC5/UART_1.c ****     *
1432:.\Generated_Source\PSoC5/UART_1.c ****     * Summary:
1433:.\Generated_Source\PSoC5/UART_1.c ****     *  Write a Break command to the UART
1434:.\Generated_Source\PSoC5/UART_1.c ****     *
1435:.\Generated_Source\PSoC5/UART_1.c ****     * Parameters:
1436:.\Generated_Source\PSoC5/UART_1.c ****     *  uint8 retMode:  Wait mode,
1437:.\Generated_Source\PSoC5/UART_1.c ****     *   0 - Initialize registers for Break, sends the Break signal and return
1438:.\Generated_Source\PSoC5/UART_1.c ****     *       imediately.
1439:.\Generated_Source\PSoC5/UART_1.c ****     *   1 - Wait until Break sending is complete, reinitialize registers to normal
1440:.\Generated_Source\PSoC5/UART_1.c ****     *       transmission mode then return.
1441:.\Generated_Source\PSoC5/UART_1.c ****     *   2 - Reinitialize registers to normal transmission mode then return.
1442:.\Generated_Source\PSoC5/UART_1.c ****     *   3 - both steps: 0 and 1
1443:.\Generated_Source\PSoC5/UART_1.c ****     *       init registers for Break, send Break signal
1444:.\Generated_Source\PSoC5/UART_1.c ****     *       wait until Break sending is complete, reinit registers to normal
1445:.\Generated_Source\PSoC5/UART_1.c ****     *       transmission mode then return.
1446:.\Generated_Source\PSoC5/UART_1.c ****     *
1447:.\Generated_Source\PSoC5/UART_1.c ****     * Return:
1448:.\Generated_Source\PSoC5/UART_1.c ****     *  None.
1449:.\Generated_Source\PSoC5/UART_1.c ****     *
1450:.\Generated_Source\PSoC5/UART_1.c ****     * Global Variables:
1451:.\Generated_Source\PSoC5/UART_1.c ****     *  UART_1_initVar - checked to identify that the component has been
1452:.\Generated_Source\PSoC5/UART_1.c ****     *     initialized.
1453:.\Generated_Source\PSoC5/UART_1.c ****     *  tx_period - static variable, used for keeping TX period configuration.
1454:.\Generated_Source\PSoC5/UART_1.c ****     *
1455:.\Generated_Source\PSoC5/UART_1.c ****     * Reentrant:
1456:.\Generated_Source\PSoC5/UART_1.c ****     *  No.
1457:.\Generated_Source\PSoC5/UART_1.c ****     *
1458:.\Generated_Source\PSoC5/UART_1.c ****     * Theory:
ARM GAS  C:\Users\SUZUKI~1\AppData\Local\Temp\ccLnHTOh.s 			page 48


1459:.\Generated_Source\PSoC5/UART_1.c ****     *  SendBreak function initializes registers to send 13-bit break signal. It is
1460:.\Generated_Source\PSoC5/UART_1.c ****     *  important to return the registers configuration to normal for continue 8-bit
1461:.\Generated_Source\PSoC5/UART_1.c ****     *  operation.
1462:.\Generated_Source\PSoC5/UART_1.c ****     *  Trere are 3 variants for this API usage:
1463:.\Generated_Source\PSoC5/UART_1.c ****     *  1) SendBreak(3) - function will send the Break signal and take care on the
1464:.\Generated_Source\PSoC5/UART_1.c ****     *     configuration returning. Funcition will block CPU untill transmition
1465:.\Generated_Source\PSoC5/UART_1.c ****     *     complete.
1466:.\Generated_Source\PSoC5/UART_1.c ****     *  2) User may want to use bloking time if UART configured to the low speed
1467:.\Generated_Source\PSoC5/UART_1.c ****     *     operation
1468:.\Generated_Source\PSoC5/UART_1.c ****     *     Emample for this case:
1469:.\Generated_Source\PSoC5/UART_1.c ****     *     SendBreak(0);     - init Break signal transmition
1470:.\Generated_Source\PSoC5/UART_1.c ****     *         Add your code here to use CPU time
1471:.\Generated_Source\PSoC5/UART_1.c ****     *     SendBreak(1);     - complete Break operation
1472:.\Generated_Source\PSoC5/UART_1.c ****     *  3) Same to 2) but user may want to init and use the interrupt for complete
1473:.\Generated_Source\PSoC5/UART_1.c ****     *     break operation.
1474:.\Generated_Source\PSoC5/UART_1.c ****     *     Example for this case:
1475:.\Generated_Source\PSoC5/UART_1.c ****     *     Init TX interrupt whith "TX - On TX Complete" parameter
1476:.\Generated_Source\PSoC5/UART_1.c ****     *     SendBreak(0);     - init Break signal transmition
1477:.\Generated_Source\PSoC5/UART_1.c ****     *         Add your code here to use CPU time
1478:.\Generated_Source\PSoC5/UART_1.c ****     *     When interrupt appear with UART_TX_STS_COMPLETE status:
1479:.\Generated_Source\PSoC5/UART_1.c ****     *     SendBreak(2);     - complete Break operation
1480:.\Generated_Source\PSoC5/UART_1.c ****     *
1481:.\Generated_Source\PSoC5/UART_1.c ****     * Side Effects:
1482:.\Generated_Source\PSoC5/UART_1.c ****     *   Uses static variable to keep registers configuration.
1483:.\Generated_Source\PSoC5/UART_1.c ****     *
1484:.\Generated_Source\PSoC5/UART_1.c ****     *******************************************************************************/
1485:.\Generated_Source\PSoC5/UART_1.c ****     void UART_1_SendBreak(uint8 retMode) 
1486:.\Generated_Source\PSoC5/UART_1.c ****     {
 1218              		.loc 1 1486 0
 1219              		.cfi_startproc
 1220              		@ args = 0, pretend = 0, frame = 16
 1221              		@ frame_needed = 1, uses_anonymous_args = 0
 1222              		@ link register save eliminated.
 1223 0000 80B4     		push	{r7}
 1224              	.LCFI70:
 1225              		.cfi_def_cfa_offset 4
 1226 0002 85B0     		sub	sp, sp, #20
 1227              	.LCFI71:
 1228              		.cfi_def_cfa_offset 24
 1229 0004 00AF     		add	r7, sp, #0
 1230              		.cfi_offset 7, -4
 1231              	.LCFI72:
 1232              		.cfi_def_cfa_register 7
 1233 0006 0346     		mov	r3, r0
 1234 0008 FB71     		strb	r3, [r7, #7]
1487:.\Generated_Source\PSoC5/UART_1.c **** 
1488:.\Generated_Source\PSoC5/UART_1.c ****         /* If not Initialized then skip this function*/
1489:.\Generated_Source\PSoC5/UART_1.c ****         if(UART_1_initVar != 0u)
 1235              		.loc 1 1489 0
 1236 000a 40F20003 		movw	r3, #:lower16:UART_1_initVar
 1237 000e C0F20003 		movt	r3, #:upper16:UART_1_initVar
 1238 0012 1B78     		ldrb	r3, [r3, #0]	@ zero_extendqisi2
 1239 0014 002B     		cmp	r3, #0
 1240 0016 54D0     		beq	.L76
 1241              	.LBB2:
1490:.\Generated_Source\PSoC5/UART_1.c ****         {
1491:.\Generated_Source\PSoC5/UART_1.c ****             /*Set the Counter to 13-bits and transmit a 00 byte*/
ARM GAS  C:\Users\SUZUKI~1\AppData\Local\Temp\ccLnHTOh.s 			page 49


1492:.\Generated_Source\PSoC5/UART_1.c ****             /*When that is done then reset the counter value back*/
1493:.\Generated_Source\PSoC5/UART_1.c ****             uint8 tmpStat;
1494:.\Generated_Source\PSoC5/UART_1.c **** 
1495:.\Generated_Source\PSoC5/UART_1.c ****             #if(UART_1_HD_ENABLED) /* Half Duplex mode*/
1496:.\Generated_Source\PSoC5/UART_1.c **** 
1497:.\Generated_Source\PSoC5/UART_1.c ****                 if( (retMode == UART_1_SEND_BREAK) ||
1498:.\Generated_Source\PSoC5/UART_1.c ****                     (retMode == UART_1_SEND_WAIT_REINIT ) )
1499:.\Generated_Source\PSoC5/UART_1.c ****                 {
1500:.\Generated_Source\PSoC5/UART_1.c ****                     /* CTRL_HD_SEND_BREAK - sends break bits in HD mode*/
1501:.\Generated_Source\PSoC5/UART_1.c ****                     UART_1_WriteControlRegister(UART_1_ReadControlRegister() |
1502:.\Generated_Source\PSoC5/UART_1.c ****                                                           UART_1_CTRL_HD_SEND_BREAK);
1503:.\Generated_Source\PSoC5/UART_1.c ****                     /* Send zeros*/
1504:.\Generated_Source\PSoC5/UART_1.c ****                     UART_1_TXDATA_REG = 0u;
1505:.\Generated_Source\PSoC5/UART_1.c **** 
1506:.\Generated_Source\PSoC5/UART_1.c ****                     do /*wait until transmit starts*/
1507:.\Generated_Source\PSoC5/UART_1.c ****                     {
1508:.\Generated_Source\PSoC5/UART_1.c ****                         tmpStat = UART_1_TXSTATUS_REG;
1509:.\Generated_Source\PSoC5/UART_1.c ****                     }while((tmpStat & UART_1_TX_STS_FIFO_EMPTY) != 0u);
1510:.\Generated_Source\PSoC5/UART_1.c ****                 }
1511:.\Generated_Source\PSoC5/UART_1.c **** 
1512:.\Generated_Source\PSoC5/UART_1.c ****                 if( (retMode == UART_1_WAIT_FOR_COMPLETE_REINIT) ||
1513:.\Generated_Source\PSoC5/UART_1.c ****                     (retMode == UART_1_SEND_WAIT_REINIT) )
1514:.\Generated_Source\PSoC5/UART_1.c ****                 {
1515:.\Generated_Source\PSoC5/UART_1.c ****                     do /*wait until transmit complete*/
1516:.\Generated_Source\PSoC5/UART_1.c ****                     {
1517:.\Generated_Source\PSoC5/UART_1.c ****                         tmpStat = UART_1_TXSTATUS_REG;
1518:.\Generated_Source\PSoC5/UART_1.c ****                     }while(((uint8)~tmpStat & UART_1_TX_STS_COMPLETE) != 0u);
1519:.\Generated_Source\PSoC5/UART_1.c ****                 }
1520:.\Generated_Source\PSoC5/UART_1.c **** 
1521:.\Generated_Source\PSoC5/UART_1.c ****                 if( (retMode == UART_1_WAIT_FOR_COMPLETE_REINIT) ||
1522:.\Generated_Source\PSoC5/UART_1.c ****                     (retMode == UART_1_REINIT) ||
1523:.\Generated_Source\PSoC5/UART_1.c ****                     (retMode == UART_1_SEND_WAIT_REINIT) )
1524:.\Generated_Source\PSoC5/UART_1.c ****                 {
1525:.\Generated_Source\PSoC5/UART_1.c ****                     UART_1_WriteControlRegister(UART_1_ReadControlRegister() &
1526:.\Generated_Source\PSoC5/UART_1.c ****                                                   (uint8)~UART_1_CTRL_HD_SEND_BREAK);
1527:.\Generated_Source\PSoC5/UART_1.c ****                 }
1528:.\Generated_Source\PSoC5/UART_1.c **** 
1529:.\Generated_Source\PSoC5/UART_1.c ****             #else /* UART_1_HD_ENABLED Full Duplex mode */
1530:.\Generated_Source\PSoC5/UART_1.c **** 
1531:.\Generated_Source\PSoC5/UART_1.c ****                 static uint8 tx_period;
1532:.\Generated_Source\PSoC5/UART_1.c **** 
1533:.\Generated_Source\PSoC5/UART_1.c ****                 if( (retMode == UART_1_SEND_BREAK) ||
 1242              		.loc 1 1533 0
 1243 0018 FB79     		ldrb	r3, [r7, #7]	@ zero_extendqisi2
 1244 001a 002B     		cmp	r3, #0
 1245 001c 02D0     		beq	.L68
 1246 001e FB79     		ldrb	r3, [r7, #7]	@ zero_extendqisi2
 1247 0020 032B     		cmp	r3, #3
 1248 0022 23D1     		bne	.L69
 1249              	.L68:
1534:.\Generated_Source\PSoC5/UART_1.c ****                     (retMode == UART_1_SEND_WAIT_REINIT) )
1535:.\Generated_Source\PSoC5/UART_1.c ****                 {
1536:.\Generated_Source\PSoC5/UART_1.c ****                     /* CTRL_HD_SEND_BREAK - skip to send parity bit at Break signal in Full Duplex 
1537:.\Generated_Source\PSoC5/UART_1.c ****                     #if( (UART_1_PARITY_TYPE != UART_1__B_UART__NONE_REVB) || \
1538:.\Generated_Source\PSoC5/UART_1.c ****                                         (UART_1_PARITY_TYPE_SW != 0u) )
1539:.\Generated_Source\PSoC5/UART_1.c ****                         UART_1_WriteControlRegister(UART_1_ReadControlRegister() |
1540:.\Generated_Source\PSoC5/UART_1.c ****                                                               UART_1_CTRL_HD_SEND_BREAK);
ARM GAS  C:\Users\SUZUKI~1\AppData\Local\Temp\ccLnHTOh.s 			page 50


1541:.\Generated_Source\PSoC5/UART_1.c ****                     #endif /* End UART_1_PARITY_TYPE != UART_1__B_UART__NONE_REVB  */
1542:.\Generated_Source\PSoC5/UART_1.c **** 
1543:.\Generated_Source\PSoC5/UART_1.c ****                     #if(UART_1_TXCLKGEN_DP)
1544:.\Generated_Source\PSoC5/UART_1.c ****                         tx_period = UART_1_TXBITCLKTX_COMPLETE_REG;
 1250              		.loc 1 1544 0
 1251 0024 46F23743 		movw	r3, #:lower16:1073767479
 1252 0028 C4F20003 		movt	r3, #:upper16:1073767479
 1253 002c 1B78     		ldrb	r3, [r3, #0]
 1254 002e DAB2     		uxtb	r2, r3
 1255 0030 40F20003 		movw	r3, #:lower16:tx_period.2260
 1256 0034 C0F20003 		movt	r3, #:upper16:tx_period.2260
 1257 0038 1A70     		strb	r2, [r3, #0]
1545:.\Generated_Source\PSoC5/UART_1.c ****                         UART_1_TXBITCLKTX_COMPLETE_REG = UART_1_TXBITCTR_BREAKBITS;
 1258              		.loc 1 1545 0
 1259 003a 46F23743 		movw	r3, #:lower16:1073767479
 1260 003e C4F20003 		movt	r3, #:upper16:1073767479
 1261 0042 4FF06702 		mov	r2, #103
 1262 0046 1A70     		strb	r2, [r3, #0]
1546:.\Generated_Source\PSoC5/UART_1.c ****                     #else
1547:.\Generated_Source\PSoC5/UART_1.c ****                         tx_period = UART_1_TXBITCTR_PERIOD_REG;
1548:.\Generated_Source\PSoC5/UART_1.c ****                         UART_1_TXBITCTR_PERIOD_REG = UART_1_TXBITCTR_BREAKBITS8X;
1549:.\Generated_Source\PSoC5/UART_1.c ****                     #endif /* End UART_1_TXCLKGEN_DP */
1550:.\Generated_Source\PSoC5/UART_1.c **** 
1551:.\Generated_Source\PSoC5/UART_1.c ****                     /* Send zeros*/
1552:.\Generated_Source\PSoC5/UART_1.c ****                     UART_1_TXDATA_REG = 0u;
 1263              		.loc 1 1552 0
 1264 0048 46F24343 		movw	r3, #:lower16:1073767491
 1265 004c C4F20003 		movt	r3, #:upper16:1073767491
 1266 0050 4FF00002 		mov	r2, #0
 1267 0054 1A70     		strb	r2, [r3, #0]
 1268              	.L70:
1553:.\Generated_Source\PSoC5/UART_1.c **** 
1554:.\Generated_Source\PSoC5/UART_1.c ****                     do /* wait until transmit starts */
1555:.\Generated_Source\PSoC5/UART_1.c ****                     {
1556:.\Generated_Source\PSoC5/UART_1.c ****                         tmpStat = UART_1_TXSTATUS_REG;
 1269              		.loc 1 1556 0
 1270 0056 46F26443 		movw	r3, #:lower16:1073767524
 1271 005a C4F20003 		movt	r3, #:upper16:1073767524
 1272 005e 1B78     		ldrb	r3, [r3, #0]
 1273 0060 FB73     		strb	r3, [r7, #15]
1557:.\Generated_Source\PSoC5/UART_1.c ****                     }while((tmpStat & UART_1_TX_STS_FIFO_EMPTY) != 0u);
 1274              		.loc 1 1557 0
 1275 0062 FB7B     		ldrb	r3, [r7, #15]	@ zero_extendqisi2
 1276 0064 03F00203 		and	r3, r3, #2
 1277 0068 002B     		cmp	r3, #0
 1278 006a F4D1     		bne	.L70
 1279              	.L69:
1558:.\Generated_Source\PSoC5/UART_1.c ****                 }
1559:.\Generated_Source\PSoC5/UART_1.c **** 
1560:.\Generated_Source\PSoC5/UART_1.c ****                 if( (retMode == UART_1_WAIT_FOR_COMPLETE_REINIT) ||
 1280              		.loc 1 1560 0
 1281 006c FB79     		ldrb	r3, [r7, #7]	@ zero_extendqisi2
 1282 006e 012B     		cmp	r3, #1
 1283 0070 02D0     		beq	.L71
 1284 0072 FB79     		ldrb	r3, [r7, #7]	@ zero_extendqisi2
 1285 0074 032B     		cmp	r3, #3
 1286 0076 11D1     		bne	.L72
ARM GAS  C:\Users\SUZUKI~1\AppData\Local\Temp\ccLnHTOh.s 			page 51


 1287              	.L71:
1561:.\Generated_Source\PSoC5/UART_1.c ****                     (retMode == UART_1_SEND_WAIT_REINIT) )
1562:.\Generated_Source\PSoC5/UART_1.c ****                 {
1563:.\Generated_Source\PSoC5/UART_1.c ****                     do /*wait until transmit complete*/
1564:.\Generated_Source\PSoC5/UART_1.c ****                     {
1565:.\Generated_Source\PSoC5/UART_1.c ****                         tmpStat = UART_1_TXSTATUS_REG;
 1288              		.loc 1 1565 0
 1289 0078 46F26443 		movw	r3, #:lower16:1073767524
 1290 007c C4F20003 		movt	r3, #:upper16:1073767524
 1291 0080 1B78     		ldrb	r3, [r3, #0]
 1292 0082 FB73     		strb	r3, [r7, #15]
1566:.\Generated_Source\PSoC5/UART_1.c ****                     }while(((uint8)~tmpStat & UART_1_TX_STS_COMPLETE) != 0u);
 1293              		.loc 1 1566 0
 1294 0084 FB7B     		ldrb	r3, [r7, #15]	@ zero_extendqisi2
 1295 0086 03F00103 		and	r3, r3, #1
 1296 008a 002B     		cmp	r3, #0
 1297 008c 02D1     		bne	.L73
 1298 008e 4FF00103 		mov	r3, #1
 1299 0092 01E0     		b	.L74
 1300              	.L73:
 1301 0094 4FF00003 		mov	r3, #0
 1302              	.L74:
 1303 0098 002B     		cmp	r3, #0
 1304 009a EDD1     		bne	.L71
 1305              	.L72:
1567:.\Generated_Source\PSoC5/UART_1.c ****                 }
1568:.\Generated_Source\PSoC5/UART_1.c **** 
1569:.\Generated_Source\PSoC5/UART_1.c ****                 if( (retMode == UART_1_WAIT_FOR_COMPLETE_REINIT) ||
 1306              		.loc 1 1569 0
 1307 009c FB79     		ldrb	r3, [r7, #7]	@ zero_extendqisi2
 1308 009e 012B     		cmp	r3, #1
 1309 00a0 05D0     		beq	.L75
 1310 00a2 FB79     		ldrb	r3, [r7, #7]	@ zero_extendqisi2
 1311 00a4 022B     		cmp	r3, #2
 1312 00a6 02D0     		beq	.L75
 1313 00a8 FB79     		ldrb	r3, [r7, #7]	@ zero_extendqisi2
 1314 00aa 032B     		cmp	r3, #3
 1315 00ac 09D1     		bne	.L76
 1316              	.L75:
1570:.\Generated_Source\PSoC5/UART_1.c ****                     (retMode == UART_1_REINIT) ||
1571:.\Generated_Source\PSoC5/UART_1.c ****                     (retMode == UART_1_SEND_WAIT_REINIT) )
1572:.\Generated_Source\PSoC5/UART_1.c ****                 {
1573:.\Generated_Source\PSoC5/UART_1.c **** 
1574:.\Generated_Source\PSoC5/UART_1.c ****                     #if(UART_1_TXCLKGEN_DP)
1575:.\Generated_Source\PSoC5/UART_1.c ****                         UART_1_TXBITCLKTX_COMPLETE_REG = tx_period;
 1317              		.loc 1 1575 0
 1318 00ae 46F23743 		movw	r3, #:lower16:1073767479
 1319 00b2 C4F20003 		movt	r3, #:upper16:1073767479
 1320 00b6 40F20002 		movw	r2, #:lower16:tx_period.2260
 1321 00ba C0F20002 		movt	r2, #:upper16:tx_period.2260
 1322 00be 1278     		ldrb	r2, [r2, #0]	@ zero_extendqisi2
 1323 00c0 1A70     		strb	r2, [r3, #0]
 1324              	.L76:
 1325              	.LBE2:
1576:.\Generated_Source\PSoC5/UART_1.c ****                     #else
1577:.\Generated_Source\PSoC5/UART_1.c ****                         UART_1_TXBITCTR_PERIOD_REG = tx_period;
1578:.\Generated_Source\PSoC5/UART_1.c ****                     #endif /* End UART_1_TXCLKGEN_DP */
ARM GAS  C:\Users\SUZUKI~1\AppData\Local\Temp\ccLnHTOh.s 			page 52


1579:.\Generated_Source\PSoC5/UART_1.c **** 
1580:.\Generated_Source\PSoC5/UART_1.c ****                     #if( (UART_1_PARITY_TYPE != UART_1__B_UART__NONE_REVB) || \
1581:.\Generated_Source\PSoC5/UART_1.c ****                          (UART_1_PARITY_TYPE_SW != 0u) )
1582:.\Generated_Source\PSoC5/UART_1.c ****                         UART_1_WriteControlRegister(UART_1_ReadControlRegister() &
1583:.\Generated_Source\PSoC5/UART_1.c ****                                                       (uint8)~UART_1_CTRL_HD_SEND_BREAK);
1584:.\Generated_Source\PSoC5/UART_1.c ****                     #endif /* End UART_1_PARITY_TYPE != NONE */
1585:.\Generated_Source\PSoC5/UART_1.c ****                 }
1586:.\Generated_Source\PSoC5/UART_1.c ****             #endif    /* End UART_1_HD_ENABLED */
1587:.\Generated_Source\PSoC5/UART_1.c ****         }
1588:.\Generated_Source\PSoC5/UART_1.c ****     }
 1326              		.loc 1 1588 0
 1327 00c2 07F11407 		add	r7, r7, #20
 1328 00c6 BD46     		mov	sp, r7
 1329 00c8 80BC     		pop	{r7}
 1330 00ca 7047     		bx	lr
 1331              		.cfi_endproc
 1332              	.LFE25:
 1333              		.size	UART_1_SendBreak, .-UART_1_SendBreak
 1334              		.section	.text.UART_1_SetTxAddressMode,"ax",%progbits
 1335              		.align	2
 1336              		.global	UART_1_SetTxAddressMode
 1337              		.thumb
 1338              		.thumb_func
 1339              		.type	UART_1_SetTxAddressMode, %function
 1340              	UART_1_SetTxAddressMode:
 1341              	.LFB26:
1589:.\Generated_Source\PSoC5/UART_1.c **** 
1590:.\Generated_Source\PSoC5/UART_1.c **** 
1591:.\Generated_Source\PSoC5/UART_1.c ****     /*******************************************************************************
1592:.\Generated_Source\PSoC5/UART_1.c ****     * Function Name: UART_1_SetTxAddressMode
1593:.\Generated_Source\PSoC5/UART_1.c ****     ********************************************************************************
1594:.\Generated_Source\PSoC5/UART_1.c ****     *
1595:.\Generated_Source\PSoC5/UART_1.c ****     * Summary:
1596:.\Generated_Source\PSoC5/UART_1.c ****     *  Set the transmit addressing mode
1597:.\Generated_Source\PSoC5/UART_1.c ****     *
1598:.\Generated_Source\PSoC5/UART_1.c ****     * Parameters:
1599:.\Generated_Source\PSoC5/UART_1.c ****     *  addressMode: 0 -> Space
1600:.\Generated_Source\PSoC5/UART_1.c ****     *               1 -> Mark
1601:.\Generated_Source\PSoC5/UART_1.c ****     *
1602:.\Generated_Source\PSoC5/UART_1.c ****     * Return:
1603:.\Generated_Source\PSoC5/UART_1.c ****     *  None.
1604:.\Generated_Source\PSoC5/UART_1.c ****     *
1605:.\Generated_Source\PSoC5/UART_1.c ****     *******************************************************************************/
1606:.\Generated_Source\PSoC5/UART_1.c ****     void UART_1_SetTxAddressMode(uint8 addressMode) 
1607:.\Generated_Source\PSoC5/UART_1.c ****     {
 1342              		.loc 1 1607 0
 1343              		.cfi_startproc
 1344              		@ args = 0, pretend = 0, frame = 8
 1345              		@ frame_needed = 1, uses_anonymous_args = 0
 1346              		@ link register save eliminated.
 1347 0000 80B4     		push	{r7}
 1348              	.LCFI73:
 1349              		.cfi_def_cfa_offset 4
 1350 0002 83B0     		sub	sp, sp, #12
 1351              	.LCFI74:
 1352              		.cfi_def_cfa_offset 16
 1353 0004 00AF     		add	r7, sp, #0
ARM GAS  C:\Users\SUZUKI~1\AppData\Local\Temp\ccLnHTOh.s 			page 53


 1354              		.cfi_offset 7, -4
 1355              	.LCFI75:
 1356              		.cfi_def_cfa_register 7
 1357 0006 0346     		mov	r3, r0
 1358 0008 FB71     		strb	r3, [r7, #7]
1608:.\Generated_Source\PSoC5/UART_1.c ****         /* Mark/Space sending enable*/
1609:.\Generated_Source\PSoC5/UART_1.c ****         if(addressMode != 0u)
1610:.\Generated_Source\PSoC5/UART_1.c ****         {
1611:.\Generated_Source\PSoC5/UART_1.c ****             #if( UART_1_CONTROL_REG_REMOVED == 0u )
1612:.\Generated_Source\PSoC5/UART_1.c ****                 UART_1_WriteControlRegister(UART_1_ReadControlRegister() |
1613:.\Generated_Source\PSoC5/UART_1.c ****                                                       UART_1_CTRL_MARK);
1614:.\Generated_Source\PSoC5/UART_1.c ****             #endif /* End UART_1_CONTROL_REG_REMOVED == 0u */
1615:.\Generated_Source\PSoC5/UART_1.c ****         }
1616:.\Generated_Source\PSoC5/UART_1.c ****         else
1617:.\Generated_Source\PSoC5/UART_1.c ****         {
1618:.\Generated_Source\PSoC5/UART_1.c ****             #if( UART_1_CONTROL_REG_REMOVED == 0u )
1619:.\Generated_Source\PSoC5/UART_1.c ****                 UART_1_WriteControlRegister(UART_1_ReadControlRegister() &
1620:.\Generated_Source\PSoC5/UART_1.c ****                                                     (uint8)~UART_1_CTRL_MARK);
1621:.\Generated_Source\PSoC5/UART_1.c ****             #endif /* End UART_1_CONTROL_REG_REMOVED == 0u */
1622:.\Generated_Source\PSoC5/UART_1.c ****         }
1623:.\Generated_Source\PSoC5/UART_1.c ****     }
 1359              		.loc 1 1623 0
 1360 000a 07F10C07 		add	r7, r7, #12
 1361 000e BD46     		mov	sp, r7
 1362 0010 80BC     		pop	{r7}
 1363 0012 7047     		bx	lr
 1364              		.cfi_endproc
 1365              	.LFE26:
 1366              		.size	UART_1_SetTxAddressMode, .-UART_1_SetTxAddressMode
 1367              		.bss
 1368              	tx_period.2260:
 1369 0001 00       		.space	1
 1370              		.text
 1371              	.Letext0:
