ARM GAS  C:\Users\SUZUKI~1\AppData\Local\Temp\ccLL7eqE.s 			page 1


   1              		.syntax unified
   2              		.cpu cortex-m3
   3              		.fpu softvfp
   4              		.eabi_attribute 20, 1
   5              		.eabi_attribute 21, 1
   6              		.eabi_attribute 23, 3
   7              		.eabi_attribute 24, 1
   8              		.eabi_attribute 25, 1
   9              		.eabi_attribute 26, 1
  10              		.eabi_attribute 30, 6
  11              		.eabi_attribute 18, 4
  12              		.thumb
  13              		.file	"UART_TF.c"
  14              		.section	.debug_abbrev,"",%progbits
  15              	.Ldebug_abbrev0:
  16              		.section	.debug_info,"",%progbits
  17              	.Ldebug_info0:
  18              		.section	.debug_line,"",%progbits
  19              	.Ldebug_line0:
  20 0000 B3010000 		.text
  20      02006000 
  20      00000201 
  20      FB0E0D00 
  20      01010101 
  21              	.Ltext0:
  22              		.cfi_sections	.debug_frame
  23              		.global	UART_TF_initVar
  24              		.bss
  25              		.type	UART_TF_initVar, %object
  26              		.size	UART_TF_initVar, 1
  27              	UART_TF_initVar:
  28 0000 00       		.space	1
  29              		.section	.text.UART_TF_Start,"ax",%progbits
  30              		.align	2
  31              		.global	UART_TF_Start
  32              		.thumb
  33              		.thumb_func
  34              		.type	UART_TF_Start, %function
  35              	UART_TF_Start:
  36              	.LFB0:
  37              		.file 1 ".\\Generated_Source\\PSoC5\\UART_TF.c"
   1:.\Generated_Source\PSoC5/UART_TF.c **** /*******************************************************************************
   2:.\Generated_Source\PSoC5/UART_TF.c **** * File Name: UART_TF.c
   3:.\Generated_Source\PSoC5/UART_TF.c **** * Version 2.30
   4:.\Generated_Source\PSoC5/UART_TF.c **** *
   5:.\Generated_Source\PSoC5/UART_TF.c **** * Description:
   6:.\Generated_Source\PSoC5/UART_TF.c **** *  This file provides all API functionality of the UART component
   7:.\Generated_Source\PSoC5/UART_TF.c **** *
   8:.\Generated_Source\PSoC5/UART_TF.c **** * Note:
   9:.\Generated_Source\PSoC5/UART_TF.c **** *
  10:.\Generated_Source\PSoC5/UART_TF.c **** ********************************************************************************
  11:.\Generated_Source\PSoC5/UART_TF.c **** * Copyright 2008-2012, Cypress Semiconductor Corporation.  All rights reserved.
  12:.\Generated_Source\PSoC5/UART_TF.c **** * You may use this file only in accordance with the license, terms, conditions,
  13:.\Generated_Source\PSoC5/UART_TF.c **** * disclaimers, and limitations in the end user license agreement accompanying
  14:.\Generated_Source\PSoC5/UART_TF.c **** * the software package with which this file was provided.
  15:.\Generated_Source\PSoC5/UART_TF.c **** *******************************************************************************/
  16:.\Generated_Source\PSoC5/UART_TF.c **** 
ARM GAS  C:\Users\SUZUKI~1\AppData\Local\Temp\ccLL7eqE.s 			page 2


  17:.\Generated_Source\PSoC5/UART_TF.c **** #include "UART_TF.h"
  18:.\Generated_Source\PSoC5/UART_TF.c **** #include "CyLib.h"
  19:.\Generated_Source\PSoC5/UART_TF.c **** #if(UART_TF_INTERNAL_CLOCK_USED)
  20:.\Generated_Source\PSoC5/UART_TF.c ****     #include "UART_TF_IntClock.h"
  21:.\Generated_Source\PSoC5/UART_TF.c **** #endif /* End UART_TF_INTERNAL_CLOCK_USED */
  22:.\Generated_Source\PSoC5/UART_TF.c **** 
  23:.\Generated_Source\PSoC5/UART_TF.c **** 
  24:.\Generated_Source\PSoC5/UART_TF.c **** /***************************************
  25:.\Generated_Source\PSoC5/UART_TF.c **** * Global data allocation
  26:.\Generated_Source\PSoC5/UART_TF.c **** ***************************************/
  27:.\Generated_Source\PSoC5/UART_TF.c **** 
  28:.\Generated_Source\PSoC5/UART_TF.c **** uint8 UART_TF_initVar = 0u;
  29:.\Generated_Source\PSoC5/UART_TF.c **** #if( UART_TF_TX_ENABLED && (UART_TF_TXBUFFERSIZE > UART_TF_FIFO_LENGTH))
  30:.\Generated_Source\PSoC5/UART_TF.c ****     volatile uint8 UART_TF_txBuffer[UART_TF_TXBUFFERSIZE];
  31:.\Generated_Source\PSoC5/UART_TF.c ****     volatile uint8 UART_TF_txBufferRead = 0u;
  32:.\Generated_Source\PSoC5/UART_TF.c ****     uint8 UART_TF_txBufferWrite = 0u;
  33:.\Generated_Source\PSoC5/UART_TF.c **** #endif /* End UART_TF_TX_ENABLED */
  34:.\Generated_Source\PSoC5/UART_TF.c **** #if( ( UART_TF_RX_ENABLED || UART_TF_HD_ENABLED ) && \
  35:.\Generated_Source\PSoC5/UART_TF.c ****      (UART_TF_RXBUFFERSIZE > UART_TF_FIFO_LENGTH) )
  36:.\Generated_Source\PSoC5/UART_TF.c ****     volatile uint8 UART_TF_rxBuffer[UART_TF_RXBUFFERSIZE];
  37:.\Generated_Source\PSoC5/UART_TF.c ****     volatile uint8 UART_TF_rxBufferRead = 0u;
  38:.\Generated_Source\PSoC5/UART_TF.c ****     volatile uint8 UART_TF_rxBufferWrite = 0u;
  39:.\Generated_Source\PSoC5/UART_TF.c ****     volatile uint8 UART_TF_rxBufferLoopDetect = 0u;
  40:.\Generated_Source\PSoC5/UART_TF.c ****     volatile uint8 UART_TF_rxBufferOverflow = 0u;
  41:.\Generated_Source\PSoC5/UART_TF.c ****     #if (UART_TF_RXHW_ADDRESS_ENABLED)
  42:.\Generated_Source\PSoC5/UART_TF.c ****         volatile uint8 UART_TF_rxAddressMode = UART_TF_RXADDRESSMODE;
  43:.\Generated_Source\PSoC5/UART_TF.c ****         volatile uint8 UART_TF_rxAddressDetected = 0u;
  44:.\Generated_Source\PSoC5/UART_TF.c ****     #endif /* End EnableHWAddress */
  45:.\Generated_Source\PSoC5/UART_TF.c **** #endif /* End UART_TF_RX_ENABLED */
  46:.\Generated_Source\PSoC5/UART_TF.c **** 
  47:.\Generated_Source\PSoC5/UART_TF.c **** 
  48:.\Generated_Source\PSoC5/UART_TF.c **** /*******************************************************************************
  49:.\Generated_Source\PSoC5/UART_TF.c **** * Function Name: UART_TF_Start
  50:.\Generated_Source\PSoC5/UART_TF.c **** ********************************************************************************
  51:.\Generated_Source\PSoC5/UART_TF.c **** *
  52:.\Generated_Source\PSoC5/UART_TF.c **** * Summary:
  53:.\Generated_Source\PSoC5/UART_TF.c **** *  Initialize and Enable the UART component.
  54:.\Generated_Source\PSoC5/UART_TF.c **** *  Enable the clock input to enable operation.
  55:.\Generated_Source\PSoC5/UART_TF.c **** *
  56:.\Generated_Source\PSoC5/UART_TF.c **** * Parameters:
  57:.\Generated_Source\PSoC5/UART_TF.c **** *  None.
  58:.\Generated_Source\PSoC5/UART_TF.c **** *
  59:.\Generated_Source\PSoC5/UART_TF.c **** * Return:
  60:.\Generated_Source\PSoC5/UART_TF.c **** *  None.
  61:.\Generated_Source\PSoC5/UART_TF.c **** *
  62:.\Generated_Source\PSoC5/UART_TF.c **** * Global variables:
  63:.\Generated_Source\PSoC5/UART_TF.c **** *  The UART_TF_intiVar variable is used to indicate initial
  64:.\Generated_Source\PSoC5/UART_TF.c **** *  configuration of this component. The variable is initialized to zero (0u)
  65:.\Generated_Source\PSoC5/UART_TF.c **** *  and set to one (1u) the first time UART_Start() is called. This allows for
  66:.\Generated_Source\PSoC5/UART_TF.c **** *  component initialization without re-initialization in all subsequent calls
  67:.\Generated_Source\PSoC5/UART_TF.c **** *  to the UART_TF_Start() routine.
  68:.\Generated_Source\PSoC5/UART_TF.c **** *
  69:.\Generated_Source\PSoC5/UART_TF.c **** * Reentrant:
  70:.\Generated_Source\PSoC5/UART_TF.c **** *  No.
  71:.\Generated_Source\PSoC5/UART_TF.c **** *
  72:.\Generated_Source\PSoC5/UART_TF.c **** *******************************************************************************/
  73:.\Generated_Source\PSoC5/UART_TF.c **** void UART_TF_Start(void) 
ARM GAS  C:\Users\SUZUKI~1\AppData\Local\Temp\ccLL7eqE.s 			page 3


  74:.\Generated_Source\PSoC5/UART_TF.c **** {
  38              		.loc 1 74 0
  39              		.cfi_startproc
  40              		@ args = 0, pretend = 0, frame = 0
  41              		@ frame_needed = 1, uses_anonymous_args = 0
  42 0000 80B5     		push	{r7, lr}
  43              	.LCFI0:
  44              		.cfi_def_cfa_offset 8
  45 0002 00AF     		add	r7, sp, #0
  46              		.cfi_offset 14, -4
  47              		.cfi_offset 7, -8
  48              	.LCFI1:
  49              		.cfi_def_cfa_register 7
  75:.\Generated_Source\PSoC5/UART_TF.c ****     /* If not Initialized then initialize all required hardware and software */
  76:.\Generated_Source\PSoC5/UART_TF.c ****     if(UART_TF_initVar == 0u)
  50              		.loc 1 76 0
  51 0004 40F20003 		movw	r3, #:lower16:UART_TF_initVar
  52 0008 C0F20003 		movt	r3, #:upper16:UART_TF_initVar
  53 000c 1B78     		ldrb	r3, [r3, #0]	@ zero_extendqisi2
  54 000e 002B     		cmp	r3, #0
  55 0010 08D1     		bne	.L2
  77:.\Generated_Source\PSoC5/UART_TF.c ****     {
  78:.\Generated_Source\PSoC5/UART_TF.c ****         UART_TF_Init();
  56              		.loc 1 78 0
  57 0012 FFF7FEFF 		bl	UART_TF_Init
  79:.\Generated_Source\PSoC5/UART_TF.c ****         UART_TF_initVar = 1u;
  58              		.loc 1 79 0
  59 0016 40F20003 		movw	r3, #:lower16:UART_TF_initVar
  60 001a C0F20003 		movt	r3, #:upper16:UART_TF_initVar
  61 001e 4FF00102 		mov	r2, #1
  62 0022 1A70     		strb	r2, [r3, #0]
  63              	.L2:
  80:.\Generated_Source\PSoC5/UART_TF.c ****     }
  81:.\Generated_Source\PSoC5/UART_TF.c ****     UART_TF_Enable();
  64              		.loc 1 81 0
  65 0024 FFF7FEFF 		bl	UART_TF_Enable
  82:.\Generated_Source\PSoC5/UART_TF.c **** }
  66              		.loc 1 82 0
  67 0028 80BD     		pop	{r7, pc}
  68              		.cfi_endproc
  69              	.LFE0:
  70              		.size	UART_TF_Start, .-UART_TF_Start
  71 002a 00BF     		.section	.text.UART_TF_Init,"ax",%progbits
  72              		.align	2
  73              		.global	UART_TF_Init
  74              		.thumb
  75              		.thumb_func
  76              		.type	UART_TF_Init, %function
  77              	UART_TF_Init:
  78              	.LFB1:
  83:.\Generated_Source\PSoC5/UART_TF.c **** 
  84:.\Generated_Source\PSoC5/UART_TF.c **** 
  85:.\Generated_Source\PSoC5/UART_TF.c **** /*******************************************************************************
  86:.\Generated_Source\PSoC5/UART_TF.c **** * Function Name: UART_TF_Init
  87:.\Generated_Source\PSoC5/UART_TF.c **** ********************************************************************************
  88:.\Generated_Source\PSoC5/UART_TF.c **** *
  89:.\Generated_Source\PSoC5/UART_TF.c **** * Summary:
ARM GAS  C:\Users\SUZUKI~1\AppData\Local\Temp\ccLL7eqE.s 			page 4


  90:.\Generated_Source\PSoC5/UART_TF.c **** *  Initialize component's parameters to the parameters set by user in the
  91:.\Generated_Source\PSoC5/UART_TF.c **** *  customizer of the component placed onto schematic. Usually called in
  92:.\Generated_Source\PSoC5/UART_TF.c **** *  UART_TF_Start().
  93:.\Generated_Source\PSoC5/UART_TF.c **** *
  94:.\Generated_Source\PSoC5/UART_TF.c **** * Parameters:
  95:.\Generated_Source\PSoC5/UART_TF.c **** *  None.
  96:.\Generated_Source\PSoC5/UART_TF.c **** *
  97:.\Generated_Source\PSoC5/UART_TF.c **** * Return:
  98:.\Generated_Source\PSoC5/UART_TF.c **** *  None.
  99:.\Generated_Source\PSoC5/UART_TF.c **** *
 100:.\Generated_Source\PSoC5/UART_TF.c **** *******************************************************************************/
 101:.\Generated_Source\PSoC5/UART_TF.c **** void UART_TF_Init(void) 
 102:.\Generated_Source\PSoC5/UART_TF.c **** {
  79              		.loc 1 102 0
  80              		.cfi_startproc
  81              		@ args = 0, pretend = 0, frame = 0
  82              		@ frame_needed = 1, uses_anonymous_args = 0
  83              		@ link register save eliminated.
  84 0000 80B4     		push	{r7}
  85              	.LCFI2:
  86              		.cfi_def_cfa_offset 4
  87 0002 00AF     		add	r7, sp, #0
  88              		.cfi_offset 7, -4
  89              	.LCFI3:
  90              		.cfi_def_cfa_register 7
 103:.\Generated_Source\PSoC5/UART_TF.c ****     #if(UART_TF_RX_ENABLED || UART_TF_HD_ENABLED)
 104:.\Generated_Source\PSoC5/UART_TF.c **** 
 105:.\Generated_Source\PSoC5/UART_TF.c ****         #if(UART_TF_RX_INTERRUPT_ENABLED && (UART_TF_RXBUFFERSIZE > UART_TF_FIFO_LENGTH))
 106:.\Generated_Source\PSoC5/UART_TF.c ****             /* Set the RX Interrupt. */
 107:.\Generated_Source\PSoC5/UART_TF.c ****             (void)CyIntSetVector(UART_TF_RX_VECT_NUM, &UART_TF_RXISR);
 108:.\Generated_Source\PSoC5/UART_TF.c ****             CyIntSetPriority(UART_TF_RX_VECT_NUM, UART_TF_RX_PRIOR_NUM);
 109:.\Generated_Source\PSoC5/UART_TF.c ****         #endif /* End UART_TF_RX_INTERRUPT_ENABLED */
 110:.\Generated_Source\PSoC5/UART_TF.c **** 
 111:.\Generated_Source\PSoC5/UART_TF.c ****         #if (UART_TF_RXHW_ADDRESS_ENABLED)
 112:.\Generated_Source\PSoC5/UART_TF.c ****             UART_TF_SetRxAddressMode(UART_TF_RXAddressMode);
 113:.\Generated_Source\PSoC5/UART_TF.c ****             UART_TF_SetRxAddress1(UART_TF_RXHWADDRESS1);
 114:.\Generated_Source\PSoC5/UART_TF.c ****             UART_TF_SetRxAddress2(UART_TF_RXHWADDRESS2);
 115:.\Generated_Source\PSoC5/UART_TF.c ****         #endif /* End UART_TF_RXHW_ADDRESS_ENABLED */
 116:.\Generated_Source\PSoC5/UART_TF.c **** 
 117:.\Generated_Source\PSoC5/UART_TF.c ****         /* Init Count7 period */
 118:.\Generated_Source\PSoC5/UART_TF.c ****         UART_TF_RXBITCTR_PERIOD_REG = UART_TF_RXBITCTR_INIT;
  91              		.loc 1 118 0
  92 0004 46F28943 		movw	r3, #:lower16:1073767561
  93 0008 C4F20003 		movt	r3, #:upper16:1073767561
  94 000c 4FF07202 		mov	r2, #114
  95 0010 1A70     		strb	r2, [r3, #0]
 119:.\Generated_Source\PSoC5/UART_TF.c ****         /* Configure the Initial RX interrupt mask */
 120:.\Generated_Source\PSoC5/UART_TF.c ****         UART_TF_RXSTATUS_MASK_REG  = UART_TF_INIT_RX_INTERRUPTS_MASK;
  96              		.loc 1 120 0
  97 0012 46F28953 		movw	r3, #:lower16:1073767817
  98 0016 C4F20003 		movt	r3, #:upper16:1073767817
  99 001a 4FF02002 		mov	r2, #32
 100 001e 1A70     		strb	r2, [r3, #0]
 121:.\Generated_Source\PSoC5/UART_TF.c ****     #endif /* End UART_TF_RX_ENABLED || UART_TF_HD_ENABLED*/
 122:.\Generated_Source\PSoC5/UART_TF.c **** 
 123:.\Generated_Source\PSoC5/UART_TF.c ****     #if(UART_TF_TX_ENABLED)
 124:.\Generated_Source\PSoC5/UART_TF.c ****         #if(UART_TF_TX_INTERRUPT_ENABLED && (UART_TF_TXBUFFERSIZE > UART_TF_FIFO_LENGTH))
ARM GAS  C:\Users\SUZUKI~1\AppData\Local\Temp\ccLL7eqE.s 			page 5


 125:.\Generated_Source\PSoC5/UART_TF.c ****             /* Set the TX Interrupt. */
 126:.\Generated_Source\PSoC5/UART_TF.c ****             (void)CyIntSetVector(UART_TF_TX_VECT_NUM, &UART_TF_TXISR);
 127:.\Generated_Source\PSoC5/UART_TF.c ****             CyIntSetPriority(UART_TF_TX_VECT_NUM, UART_TF_TX_PRIOR_NUM);
 128:.\Generated_Source\PSoC5/UART_TF.c ****         #endif /* End UART_TF_TX_INTERRUPT_ENABLED */
 129:.\Generated_Source\PSoC5/UART_TF.c **** 
 130:.\Generated_Source\PSoC5/UART_TF.c ****         /* Write Counter Value for TX Bit Clk Generator*/
 131:.\Generated_Source\PSoC5/UART_TF.c ****         #if(UART_TF_TXCLKGEN_DP)
 132:.\Generated_Source\PSoC5/UART_TF.c ****             UART_TF_TXBITCLKGEN_CTR_REG = UART_TF_BIT_CENTER;
 133:.\Generated_Source\PSoC5/UART_TF.c ****             UART_TF_TXBITCLKTX_COMPLETE_REG = (UART_TF_NUMBER_OF_DATA_BITS +
 134:.\Generated_Source\PSoC5/UART_TF.c ****                         UART_TF_NUMBER_OF_START_BIT) * UART_TF_OVER_SAMPLE_COUNT;
 135:.\Generated_Source\PSoC5/UART_TF.c ****         #else
 136:.\Generated_Source\PSoC5/UART_TF.c ****             UART_TF_TXBITCTR_PERIOD_REG = ((UART_TF_NUMBER_OF_DATA_BITS +
 137:.\Generated_Source\PSoC5/UART_TF.c ****                         UART_TF_NUMBER_OF_START_BIT) * UART_TF_OVER_SAMPLE_8) - 1u;
 138:.\Generated_Source\PSoC5/UART_TF.c ****         #endif /* End UART_TF_TXCLKGEN_DP */
 139:.\Generated_Source\PSoC5/UART_TF.c **** 
 140:.\Generated_Source\PSoC5/UART_TF.c ****         /* Configure the Initial TX interrupt mask */
 141:.\Generated_Source\PSoC5/UART_TF.c ****         #if(UART_TF_TX_INTERRUPT_ENABLED && (UART_TF_TXBUFFERSIZE > UART_TF_FIFO_LENGTH))
 142:.\Generated_Source\PSoC5/UART_TF.c ****             UART_TF_TXSTATUS_MASK_REG = UART_TF_TX_STS_FIFO_EMPTY;
 143:.\Generated_Source\PSoC5/UART_TF.c ****         #else
 144:.\Generated_Source\PSoC5/UART_TF.c ****             UART_TF_TXSTATUS_MASK_REG = UART_TF_INIT_TX_INTERRUPTS_MASK;
 145:.\Generated_Source\PSoC5/UART_TF.c ****         #endif /*End UART_TF_TX_INTERRUPT_ENABLED*/
 146:.\Generated_Source\PSoC5/UART_TF.c **** 
 147:.\Generated_Source\PSoC5/UART_TF.c ****     #endif /* End UART_TF_TX_ENABLED */
 148:.\Generated_Source\PSoC5/UART_TF.c **** 
 149:.\Generated_Source\PSoC5/UART_TF.c ****     #if(UART_TF_PARITY_TYPE_SW)  /* Write Parity to Control Register */
 150:.\Generated_Source\PSoC5/UART_TF.c ****         UART_TF_WriteControlRegister( \
 151:.\Generated_Source\PSoC5/UART_TF.c ****             (UART_TF_ReadControlRegister() & (uint8)~UART_TF_CTRL_PARITY_TYPE_MASK) | \
 152:.\Generated_Source\PSoC5/UART_TF.c ****             (uint8)(UART_TF_PARITY_TYPE << UART_TF_CTRL_PARITY_TYPE0_SHIFT) );
 153:.\Generated_Source\PSoC5/UART_TF.c ****     #endif /* End UART_TF_PARITY_TYPE_SW */
 154:.\Generated_Source\PSoC5/UART_TF.c **** }
 101              		.loc 1 154 0
 102 0020 BD46     		mov	sp, r7
 103 0022 80BC     		pop	{r7}
 104 0024 7047     		bx	lr
 105              		.cfi_endproc
 106              	.LFE1:
 107              		.size	UART_TF_Init, .-UART_TF_Init
 108 0026 00BF     		.section	.text.UART_TF_Enable,"ax",%progbits
 109              		.align	2
 110              		.global	UART_TF_Enable
 111              		.thumb
 112              		.thumb_func
 113              		.type	UART_TF_Enable, %function
 114              	UART_TF_Enable:
 115              	.LFB2:
 155:.\Generated_Source\PSoC5/UART_TF.c **** 
 156:.\Generated_Source\PSoC5/UART_TF.c **** 
 157:.\Generated_Source\PSoC5/UART_TF.c **** /*******************************************************************************
 158:.\Generated_Source\PSoC5/UART_TF.c **** * Function Name: UART_TF_Enable
 159:.\Generated_Source\PSoC5/UART_TF.c **** ********************************************************************************
 160:.\Generated_Source\PSoC5/UART_TF.c **** *
 161:.\Generated_Source\PSoC5/UART_TF.c **** * Summary:
 162:.\Generated_Source\PSoC5/UART_TF.c **** *  Enables the UART block operation
 163:.\Generated_Source\PSoC5/UART_TF.c **** *
 164:.\Generated_Source\PSoC5/UART_TF.c **** * Parameters:
 165:.\Generated_Source\PSoC5/UART_TF.c **** *  None.
 166:.\Generated_Source\PSoC5/UART_TF.c **** *
ARM GAS  C:\Users\SUZUKI~1\AppData\Local\Temp\ccLL7eqE.s 			page 6


 167:.\Generated_Source\PSoC5/UART_TF.c **** * Return:
 168:.\Generated_Source\PSoC5/UART_TF.c **** *  None.
 169:.\Generated_Source\PSoC5/UART_TF.c **** *
 170:.\Generated_Source\PSoC5/UART_TF.c **** * Global Variables:
 171:.\Generated_Source\PSoC5/UART_TF.c **** *  UART_TF_rxAddressDetected - set to initial state (0).
 172:.\Generated_Source\PSoC5/UART_TF.c **** *
 173:.\Generated_Source\PSoC5/UART_TF.c **** *******************************************************************************/
 174:.\Generated_Source\PSoC5/UART_TF.c **** void UART_TF_Enable(void) 
 175:.\Generated_Source\PSoC5/UART_TF.c **** {
 116              		.loc 1 175 0
 117              		.cfi_startproc
 118              		@ args = 0, pretend = 0, frame = 8
 119              		@ frame_needed = 1, uses_anonymous_args = 0
 120 0000 80B5     		push	{r7, lr}
 121              	.LCFI4:
 122              		.cfi_def_cfa_offset 8
 123 0002 82B0     		sub	sp, sp, #8
 124              	.LCFI5:
 125              		.cfi_def_cfa_offset 16
 126 0004 00AF     		add	r7, sp, #0
 127              		.cfi_offset 14, -4
 128              		.cfi_offset 7, -8
 129              	.LCFI6:
 130              		.cfi_def_cfa_register 7
 176:.\Generated_Source\PSoC5/UART_TF.c ****     uint8 enableInterrupts;
 177:.\Generated_Source\PSoC5/UART_TF.c ****     enableInterrupts = CyEnterCriticalSection();
 131              		.loc 1 177 0
 132 0006 FFF7FEFF 		bl	CyEnterCriticalSection
 133 000a 0346     		mov	r3, r0
 134 000c FB71     		strb	r3, [r7, #7]
 178:.\Generated_Source\PSoC5/UART_TF.c **** 
 179:.\Generated_Source\PSoC5/UART_TF.c ****     #if(UART_TF_RX_ENABLED || UART_TF_HD_ENABLED)
 180:.\Generated_Source\PSoC5/UART_TF.c ****         /*RX Counter (Count7) Enable */
 181:.\Generated_Source\PSoC5/UART_TF.c ****         UART_TF_RXBITCTR_CONTROL_REG |= UART_TF_CNTR_ENABLE;
 135              		.loc 1 181 0
 136 000e 46F29943 		movw	r3, #:lower16:1073767577
 137 0012 C4F20003 		movt	r3, #:upper16:1073767577
 138 0016 46F29942 		movw	r2, #:lower16:1073767577
 139 001a C4F20002 		movt	r2, #:upper16:1073767577
 140 001e 1278     		ldrb	r2, [r2, #0]
 141 0020 D2B2     		uxtb	r2, r2
 142 0022 42F02002 		orr	r2, r2, #32
 143 0026 D2B2     		uxtb	r2, r2
 144 0028 1A70     		strb	r2, [r3, #0]
 182:.\Generated_Source\PSoC5/UART_TF.c ****         /* Enable the RX Interrupt. */
 183:.\Generated_Source\PSoC5/UART_TF.c ****         UART_TF_RXSTATUS_ACTL_REG  |= UART_TF_INT_ENABLE;
 145              		.loc 1 183 0
 146 002a 46F29953 		movw	r3, #:lower16:1073767833
 147 002e C4F20003 		movt	r3, #:upper16:1073767833
 148 0032 46F29952 		movw	r2, #:lower16:1073767833
 149 0036 C4F20002 		movt	r2, #:upper16:1073767833
 150 003a 1278     		ldrb	r2, [r2, #0]
 151 003c D2B2     		uxtb	r2, r2
 152 003e 42F01002 		orr	r2, r2, #16
 153 0042 D2B2     		uxtb	r2, r2
 154 0044 1A70     		strb	r2, [r3, #0]
 184:.\Generated_Source\PSoC5/UART_TF.c ****         #if(UART_TF_RX_INTERRUPT_ENABLED && (UART_TF_RXBUFFERSIZE > UART_TF_FIFO_LENGTH))
ARM GAS  C:\Users\SUZUKI~1\AppData\Local\Temp\ccLL7eqE.s 			page 7


 185:.\Generated_Source\PSoC5/UART_TF.c ****             CyIntEnable(UART_TF_RX_VECT_NUM);
 186:.\Generated_Source\PSoC5/UART_TF.c ****             #if (UART_TF_RXHW_ADDRESS_ENABLED)
 187:.\Generated_Source\PSoC5/UART_TF.c ****                 UART_TF_rxAddressDetected = 0u;
 188:.\Generated_Source\PSoC5/UART_TF.c ****             #endif /* End UART_TF_RXHW_ADDRESS_ENABLED */
 189:.\Generated_Source\PSoC5/UART_TF.c ****         #endif /* End UART_TF_RX_INTERRUPT_ENABLED */
 190:.\Generated_Source\PSoC5/UART_TF.c ****     #endif /* End UART_TF_RX_ENABLED || UART_TF_HD_ENABLED*/
 191:.\Generated_Source\PSoC5/UART_TF.c **** 
 192:.\Generated_Source\PSoC5/UART_TF.c ****     #if(UART_TF_TX_ENABLED)
 193:.\Generated_Source\PSoC5/UART_TF.c ****         /*TX Counter (DP/Count7) Enable */
 194:.\Generated_Source\PSoC5/UART_TF.c ****         #if(!UART_TF_TXCLKGEN_DP)
 195:.\Generated_Source\PSoC5/UART_TF.c ****             UART_TF_TXBITCTR_CONTROL_REG |= UART_TF_CNTR_ENABLE;
 196:.\Generated_Source\PSoC5/UART_TF.c ****         #endif /* End UART_TF_TXCLKGEN_DP */
 197:.\Generated_Source\PSoC5/UART_TF.c ****         /* Enable the TX Interrupt. */
 198:.\Generated_Source\PSoC5/UART_TF.c ****         UART_TF_TXSTATUS_ACTL_REG |= UART_TF_INT_ENABLE;
 199:.\Generated_Source\PSoC5/UART_TF.c ****         #if(UART_TF_TX_INTERRUPT_ENABLED && (UART_TF_TXBUFFERSIZE > UART_TF_FIFO_LENGTH))
 200:.\Generated_Source\PSoC5/UART_TF.c ****             CyIntEnable(UART_TF_TX_VECT_NUM);
 201:.\Generated_Source\PSoC5/UART_TF.c ****         #endif /* End UART_TF_TX_INTERRUPT_ENABLED*/
 202:.\Generated_Source\PSoC5/UART_TF.c ****      #endif /* End UART_TF_TX_ENABLED */
 203:.\Generated_Source\PSoC5/UART_TF.c **** 
 204:.\Generated_Source\PSoC5/UART_TF.c ****     #if(UART_TF_INTERNAL_CLOCK_USED)
 205:.\Generated_Source\PSoC5/UART_TF.c ****         /* Enable the clock. */
 206:.\Generated_Source\PSoC5/UART_TF.c ****         UART_TF_IntClock_Start();
 155              		.loc 1 206 0
 156 0046 FFF7FEFF 		bl	UART_TF_IntClock_Start
 207:.\Generated_Source\PSoC5/UART_TF.c ****     #endif /* End UART_TF_INTERNAL_CLOCK_USED */
 208:.\Generated_Source\PSoC5/UART_TF.c **** 
 209:.\Generated_Source\PSoC5/UART_TF.c ****     CyExitCriticalSection(enableInterrupts);
 157              		.loc 1 209 0
 158 004a FB79     		ldrb	r3, [r7, #7]	@ zero_extendqisi2
 159 004c 1846     		mov	r0, r3
 160 004e FFF7FEFF 		bl	CyExitCriticalSection
 210:.\Generated_Source\PSoC5/UART_TF.c **** }
 161              		.loc 1 210 0
 162 0052 07F10807 		add	r7, r7, #8
 163 0056 BD46     		mov	sp, r7
 164 0058 80BD     		pop	{r7, pc}
 165              		.cfi_endproc
 166              	.LFE2:
 167              		.size	UART_TF_Enable, .-UART_TF_Enable
 168 005a 00BF     		.section	.text.UART_TF_Stop,"ax",%progbits
 169              		.align	2
 170              		.global	UART_TF_Stop
 171              		.thumb
 172              		.thumb_func
 173              		.type	UART_TF_Stop, %function
 174              	UART_TF_Stop:
 175              	.LFB3:
 211:.\Generated_Source\PSoC5/UART_TF.c **** 
 212:.\Generated_Source\PSoC5/UART_TF.c **** 
 213:.\Generated_Source\PSoC5/UART_TF.c **** /*******************************************************************************
 214:.\Generated_Source\PSoC5/UART_TF.c **** * Function Name: UART_TF_Stop
 215:.\Generated_Source\PSoC5/UART_TF.c **** ********************************************************************************
 216:.\Generated_Source\PSoC5/UART_TF.c **** *
 217:.\Generated_Source\PSoC5/UART_TF.c **** * Summary:
 218:.\Generated_Source\PSoC5/UART_TF.c **** *  Disable the UART component
 219:.\Generated_Source\PSoC5/UART_TF.c **** *
 220:.\Generated_Source\PSoC5/UART_TF.c **** * Parameters:
ARM GAS  C:\Users\SUZUKI~1\AppData\Local\Temp\ccLL7eqE.s 			page 8


 221:.\Generated_Source\PSoC5/UART_TF.c **** *  None.
 222:.\Generated_Source\PSoC5/UART_TF.c **** *
 223:.\Generated_Source\PSoC5/UART_TF.c **** * Return:
 224:.\Generated_Source\PSoC5/UART_TF.c **** *  None.
 225:.\Generated_Source\PSoC5/UART_TF.c **** *
 226:.\Generated_Source\PSoC5/UART_TF.c **** *******************************************************************************/
 227:.\Generated_Source\PSoC5/UART_TF.c **** void UART_TF_Stop(void) 
 228:.\Generated_Source\PSoC5/UART_TF.c **** {
 176              		.loc 1 228 0
 177              		.cfi_startproc
 178              		@ args = 0, pretend = 0, frame = 8
 179              		@ frame_needed = 1, uses_anonymous_args = 0
 180 0000 80B5     		push	{r7, lr}
 181              	.LCFI7:
 182              		.cfi_def_cfa_offset 8
 183 0002 82B0     		sub	sp, sp, #8
 184              	.LCFI8:
 185              		.cfi_def_cfa_offset 16
 186 0004 00AF     		add	r7, sp, #0
 187              		.cfi_offset 14, -4
 188              		.cfi_offset 7, -8
 189              	.LCFI9:
 190              		.cfi_def_cfa_register 7
 229:.\Generated_Source\PSoC5/UART_TF.c ****     uint8 enableInterrupts;
 230:.\Generated_Source\PSoC5/UART_TF.c ****     enableInterrupts = CyEnterCriticalSection();
 191              		.loc 1 230 0
 192 0006 FFF7FEFF 		bl	CyEnterCriticalSection
 193 000a 0346     		mov	r3, r0
 194 000c FB71     		strb	r3, [r7, #7]
 231:.\Generated_Source\PSoC5/UART_TF.c **** 
 232:.\Generated_Source\PSoC5/UART_TF.c ****     /* Write Bit Counter Disable */
 233:.\Generated_Source\PSoC5/UART_TF.c ****     #if(UART_TF_RX_ENABLED || UART_TF_HD_ENABLED)
 234:.\Generated_Source\PSoC5/UART_TF.c ****         UART_TF_RXBITCTR_CONTROL_REG &= (uint8)~UART_TF_CNTR_ENABLE;
 195              		.loc 1 234 0
 196 000e 46F29943 		movw	r3, #:lower16:1073767577
 197 0012 C4F20003 		movt	r3, #:upper16:1073767577
 198 0016 46F29942 		movw	r2, #:lower16:1073767577
 199 001a C4F20002 		movt	r2, #:upper16:1073767577
 200 001e 1278     		ldrb	r2, [r2, #0]
 201 0020 D2B2     		uxtb	r2, r2
 202 0022 02F0DF02 		and	r2, r2, #223
 203 0026 1A70     		strb	r2, [r3, #0]
 235:.\Generated_Source\PSoC5/UART_TF.c ****     #endif /* End UART_TF_RX_ENABLED */
 236:.\Generated_Source\PSoC5/UART_TF.c **** 
 237:.\Generated_Source\PSoC5/UART_TF.c ****     #if(UART_TF_TX_ENABLED)
 238:.\Generated_Source\PSoC5/UART_TF.c ****         #if(!UART_TF_TXCLKGEN_DP)
 239:.\Generated_Source\PSoC5/UART_TF.c ****             UART_TF_TXBITCTR_CONTROL_REG &= (uint8)~UART_TF_CNTR_ENABLE;
 240:.\Generated_Source\PSoC5/UART_TF.c ****         #endif /* End UART_TF_TXCLKGEN_DP */
 241:.\Generated_Source\PSoC5/UART_TF.c ****     #endif /* UART_TF_TX_ENABLED */
 242:.\Generated_Source\PSoC5/UART_TF.c **** 
 243:.\Generated_Source\PSoC5/UART_TF.c ****     #if(UART_TF_INTERNAL_CLOCK_USED)
 244:.\Generated_Source\PSoC5/UART_TF.c ****         /* Disable the clock. */
 245:.\Generated_Source\PSoC5/UART_TF.c ****         UART_TF_IntClock_Stop();
 204              		.loc 1 245 0
 205 0028 FFF7FEFF 		bl	UART_TF_IntClock_Stop
 246:.\Generated_Source\PSoC5/UART_TF.c ****     #endif /* End UART_TF_INTERNAL_CLOCK_USED */
 247:.\Generated_Source\PSoC5/UART_TF.c **** 
ARM GAS  C:\Users\SUZUKI~1\AppData\Local\Temp\ccLL7eqE.s 			page 9


 248:.\Generated_Source\PSoC5/UART_TF.c ****     /* Disable internal interrupt component */
 249:.\Generated_Source\PSoC5/UART_TF.c ****     #if(UART_TF_RX_ENABLED || UART_TF_HD_ENABLED)
 250:.\Generated_Source\PSoC5/UART_TF.c ****         UART_TF_RXSTATUS_ACTL_REG  &= (uint8)~UART_TF_INT_ENABLE;
 206              		.loc 1 250 0
 207 002c 46F29953 		movw	r3, #:lower16:1073767833
 208 0030 C4F20003 		movt	r3, #:upper16:1073767833
 209 0034 46F29952 		movw	r2, #:lower16:1073767833
 210 0038 C4F20002 		movt	r2, #:upper16:1073767833
 211 003c 1278     		ldrb	r2, [r2, #0]
 212 003e D2B2     		uxtb	r2, r2
 213 0040 02F0EF02 		and	r2, r2, #239
 214 0044 1A70     		strb	r2, [r3, #0]
 251:.\Generated_Source\PSoC5/UART_TF.c ****         #if(UART_TF_RX_INTERRUPT_ENABLED && (UART_TF_RXBUFFERSIZE > UART_TF_FIFO_LENGTH))
 252:.\Generated_Source\PSoC5/UART_TF.c ****             UART_TF_DisableRxInt();
 253:.\Generated_Source\PSoC5/UART_TF.c ****         #endif /* End UART_TF_RX_INTERRUPT_ENABLED */
 254:.\Generated_Source\PSoC5/UART_TF.c ****     #endif /* End UART_TF_RX_ENABLED */
 255:.\Generated_Source\PSoC5/UART_TF.c **** 
 256:.\Generated_Source\PSoC5/UART_TF.c ****     #if(UART_TF_TX_ENABLED)
 257:.\Generated_Source\PSoC5/UART_TF.c ****         UART_TF_TXSTATUS_ACTL_REG &= (uint8)~UART_TF_INT_ENABLE;
 258:.\Generated_Source\PSoC5/UART_TF.c ****         #if(UART_TF_TX_INTERRUPT_ENABLED && (UART_TF_TXBUFFERSIZE > UART_TF_FIFO_LENGTH))
 259:.\Generated_Source\PSoC5/UART_TF.c ****             UART_TF_DisableTxInt();
 260:.\Generated_Source\PSoC5/UART_TF.c ****         #endif /* End UART_TF_TX_INTERRUPT_ENABLED */
 261:.\Generated_Source\PSoC5/UART_TF.c ****     #endif /* End UART_TF_TX_ENABLED */
 262:.\Generated_Source\PSoC5/UART_TF.c **** 
 263:.\Generated_Source\PSoC5/UART_TF.c ****     CyExitCriticalSection(enableInterrupts);
 215              		.loc 1 263 0
 216 0046 FB79     		ldrb	r3, [r7, #7]	@ zero_extendqisi2
 217 0048 1846     		mov	r0, r3
 218 004a FFF7FEFF 		bl	CyExitCriticalSection
 264:.\Generated_Source\PSoC5/UART_TF.c **** }
 219              		.loc 1 264 0
 220 004e 07F10807 		add	r7, r7, #8
 221 0052 BD46     		mov	sp, r7
 222 0054 80BD     		pop	{r7, pc}
 223              		.cfi_endproc
 224              	.LFE3:
 225              		.size	UART_TF_Stop, .-UART_TF_Stop
 226 0056 00BF     		.section	.text.UART_TF_ReadControlRegister,"ax",%progbits
 227              		.align	2
 228              		.global	UART_TF_ReadControlRegister
 229              		.thumb
 230              		.thumb_func
 231              		.type	UART_TF_ReadControlRegister, %function
 232              	UART_TF_ReadControlRegister:
 233              	.LFB4:
 265:.\Generated_Source\PSoC5/UART_TF.c **** 
 266:.\Generated_Source\PSoC5/UART_TF.c **** 
 267:.\Generated_Source\PSoC5/UART_TF.c **** /*******************************************************************************
 268:.\Generated_Source\PSoC5/UART_TF.c **** * Function Name: UART_TF_ReadControlRegister
 269:.\Generated_Source\PSoC5/UART_TF.c **** ********************************************************************************
 270:.\Generated_Source\PSoC5/UART_TF.c **** *
 271:.\Generated_Source\PSoC5/UART_TF.c **** * Summary:
 272:.\Generated_Source\PSoC5/UART_TF.c **** *  Read the current state of the control register
 273:.\Generated_Source\PSoC5/UART_TF.c **** *
 274:.\Generated_Source\PSoC5/UART_TF.c **** * Parameters:
 275:.\Generated_Source\PSoC5/UART_TF.c **** *  None.
 276:.\Generated_Source\PSoC5/UART_TF.c **** *
ARM GAS  C:\Users\SUZUKI~1\AppData\Local\Temp\ccLL7eqE.s 			page 10


 277:.\Generated_Source\PSoC5/UART_TF.c **** * Return:
 278:.\Generated_Source\PSoC5/UART_TF.c **** *  Current state of the control register.
 279:.\Generated_Source\PSoC5/UART_TF.c **** *
 280:.\Generated_Source\PSoC5/UART_TF.c **** *******************************************************************************/
 281:.\Generated_Source\PSoC5/UART_TF.c **** uint8 UART_TF_ReadControlRegister(void) 
 282:.\Generated_Source\PSoC5/UART_TF.c **** {
 234              		.loc 1 282 0
 235              		.cfi_startproc
 236              		@ args = 0, pretend = 0, frame = 0
 237              		@ frame_needed = 1, uses_anonymous_args = 0
 238              		@ link register save eliminated.
 239 0000 80B4     		push	{r7}
 240              	.LCFI10:
 241              		.cfi_def_cfa_offset 4
 242 0002 00AF     		add	r7, sp, #0
 243              		.cfi_offset 7, -4
 244              	.LCFI11:
 245              		.cfi_def_cfa_register 7
 283:.\Generated_Source\PSoC5/UART_TF.c ****     #if( UART_TF_CONTROL_REG_REMOVED )
 284:.\Generated_Source\PSoC5/UART_TF.c ****         return(0u);
 246              		.loc 1 284 0
 247 0004 4FF00003 		mov	r3, #0
 285:.\Generated_Source\PSoC5/UART_TF.c ****     #else
 286:.\Generated_Source\PSoC5/UART_TF.c ****         return(UART_TF_CONTROL_REG);
 287:.\Generated_Source\PSoC5/UART_TF.c ****     #endif /* End UART_TF_CONTROL_REG_REMOVED */
 288:.\Generated_Source\PSoC5/UART_TF.c **** }
 248              		.loc 1 288 0
 249 0008 1846     		mov	r0, r3
 250 000a BD46     		mov	sp, r7
 251 000c 80BC     		pop	{r7}
 252 000e 7047     		bx	lr
 253              		.cfi_endproc
 254              	.LFE4:
 255              		.size	UART_TF_ReadControlRegister, .-UART_TF_ReadControlRegister
 256              		.section	.text.UART_TF_WriteControlRegister,"ax",%progbits
 257              		.align	2
 258              		.global	UART_TF_WriteControlRegister
 259              		.thumb
 260              		.thumb_func
 261              		.type	UART_TF_WriteControlRegister, %function
 262              	UART_TF_WriteControlRegister:
 263              	.LFB5:
 289:.\Generated_Source\PSoC5/UART_TF.c **** 
 290:.\Generated_Source\PSoC5/UART_TF.c **** 
 291:.\Generated_Source\PSoC5/UART_TF.c **** /*******************************************************************************
 292:.\Generated_Source\PSoC5/UART_TF.c **** * Function Name: UART_TF_WriteControlRegister
 293:.\Generated_Source\PSoC5/UART_TF.c **** ********************************************************************************
 294:.\Generated_Source\PSoC5/UART_TF.c **** *
 295:.\Generated_Source\PSoC5/UART_TF.c **** * Summary:
 296:.\Generated_Source\PSoC5/UART_TF.c **** *  Writes an 8-bit value into the control register
 297:.\Generated_Source\PSoC5/UART_TF.c **** *
 298:.\Generated_Source\PSoC5/UART_TF.c **** * Parameters:
 299:.\Generated_Source\PSoC5/UART_TF.c **** *  control:  control register value
 300:.\Generated_Source\PSoC5/UART_TF.c **** *
 301:.\Generated_Source\PSoC5/UART_TF.c **** * Return:
 302:.\Generated_Source\PSoC5/UART_TF.c **** *  None.
 303:.\Generated_Source\PSoC5/UART_TF.c **** *
ARM GAS  C:\Users\SUZUKI~1\AppData\Local\Temp\ccLL7eqE.s 			page 11


 304:.\Generated_Source\PSoC5/UART_TF.c **** *******************************************************************************/
 305:.\Generated_Source\PSoC5/UART_TF.c **** void  UART_TF_WriteControlRegister(uint8 control) 
 306:.\Generated_Source\PSoC5/UART_TF.c **** {
 264              		.loc 1 306 0
 265              		.cfi_startproc
 266              		@ args = 0, pretend = 0, frame = 8
 267              		@ frame_needed = 1, uses_anonymous_args = 0
 268              		@ link register save eliminated.
 269 0000 80B4     		push	{r7}
 270              	.LCFI12:
 271              		.cfi_def_cfa_offset 4
 272 0002 83B0     		sub	sp, sp, #12
 273              	.LCFI13:
 274              		.cfi_def_cfa_offset 16
 275 0004 00AF     		add	r7, sp, #0
 276              		.cfi_offset 7, -4
 277              	.LCFI14:
 278              		.cfi_def_cfa_register 7
 279 0006 0346     		mov	r3, r0
 280 0008 FB71     		strb	r3, [r7, #7]
 307:.\Generated_Source\PSoC5/UART_TF.c ****     #if( UART_TF_CONTROL_REG_REMOVED )
 308:.\Generated_Source\PSoC5/UART_TF.c ****         if(control != 0u) { }      /* release compiler warning */
 309:.\Generated_Source\PSoC5/UART_TF.c ****     #else
 310:.\Generated_Source\PSoC5/UART_TF.c ****        UART_TF_CONTROL_REG = control;
 311:.\Generated_Source\PSoC5/UART_TF.c ****     #endif /* End UART_TF_CONTROL_REG_REMOVED */
 312:.\Generated_Source\PSoC5/UART_TF.c **** }
 281              		.loc 1 312 0
 282 000a 07F10C07 		add	r7, r7, #12
 283 000e BD46     		mov	sp, r7
 284 0010 80BC     		pop	{r7}
 285 0012 7047     		bx	lr
 286              		.cfi_endproc
 287              	.LFE5:
 288              		.size	UART_TF_WriteControlRegister, .-UART_TF_WriteControlRegister
 289              		.section	.text.UART_TF_SetRxInterruptMode,"ax",%progbits
 290              		.align	2
 291              		.global	UART_TF_SetRxInterruptMode
 292              		.thumb
 293              		.thumb_func
 294              		.type	UART_TF_SetRxInterruptMode, %function
 295              	UART_TF_SetRxInterruptMode:
 296              	.LFB6:
 313:.\Generated_Source\PSoC5/UART_TF.c **** 
 314:.\Generated_Source\PSoC5/UART_TF.c **** 
 315:.\Generated_Source\PSoC5/UART_TF.c **** #if(UART_TF_RX_ENABLED || UART_TF_HD_ENABLED)
 316:.\Generated_Source\PSoC5/UART_TF.c **** 
 317:.\Generated_Source\PSoC5/UART_TF.c ****     #if(UART_TF_RX_INTERRUPT_ENABLED)
 318:.\Generated_Source\PSoC5/UART_TF.c **** 
 319:.\Generated_Source\PSoC5/UART_TF.c ****         /*******************************************************************************
 320:.\Generated_Source\PSoC5/UART_TF.c ****         * Function Name: UART_TF_EnableRxInt
 321:.\Generated_Source\PSoC5/UART_TF.c ****         ********************************************************************************
 322:.\Generated_Source\PSoC5/UART_TF.c ****         *
 323:.\Generated_Source\PSoC5/UART_TF.c ****         * Summary:
 324:.\Generated_Source\PSoC5/UART_TF.c ****         *  Enable RX interrupt generation
 325:.\Generated_Source\PSoC5/UART_TF.c ****         *
 326:.\Generated_Source\PSoC5/UART_TF.c ****         * Parameters:
 327:.\Generated_Source\PSoC5/UART_TF.c ****         *  None.
ARM GAS  C:\Users\SUZUKI~1\AppData\Local\Temp\ccLL7eqE.s 			page 12


 328:.\Generated_Source\PSoC5/UART_TF.c ****         *
 329:.\Generated_Source\PSoC5/UART_TF.c ****         * Return:
 330:.\Generated_Source\PSoC5/UART_TF.c ****         *  None.
 331:.\Generated_Source\PSoC5/UART_TF.c ****         *
 332:.\Generated_Source\PSoC5/UART_TF.c ****         * Theory:
 333:.\Generated_Source\PSoC5/UART_TF.c ****         *  Enable the interrupt output -or- the interrupt component itself
 334:.\Generated_Source\PSoC5/UART_TF.c ****         *
 335:.\Generated_Source\PSoC5/UART_TF.c ****         *******************************************************************************/
 336:.\Generated_Source\PSoC5/UART_TF.c ****         void UART_TF_EnableRxInt(void) 
 337:.\Generated_Source\PSoC5/UART_TF.c ****         {
 338:.\Generated_Source\PSoC5/UART_TF.c ****             CyIntEnable(UART_TF_RX_VECT_NUM);
 339:.\Generated_Source\PSoC5/UART_TF.c ****         }
 340:.\Generated_Source\PSoC5/UART_TF.c **** 
 341:.\Generated_Source\PSoC5/UART_TF.c **** 
 342:.\Generated_Source\PSoC5/UART_TF.c ****         /*******************************************************************************
 343:.\Generated_Source\PSoC5/UART_TF.c ****         * Function Name: UART_TF_DisableRxInt
 344:.\Generated_Source\PSoC5/UART_TF.c ****         ********************************************************************************
 345:.\Generated_Source\PSoC5/UART_TF.c ****         *
 346:.\Generated_Source\PSoC5/UART_TF.c ****         * Summary:
 347:.\Generated_Source\PSoC5/UART_TF.c ****         *  Disable RX interrupt generation
 348:.\Generated_Source\PSoC5/UART_TF.c ****         *
 349:.\Generated_Source\PSoC5/UART_TF.c ****         * Parameters:
 350:.\Generated_Source\PSoC5/UART_TF.c ****         *  None.
 351:.\Generated_Source\PSoC5/UART_TF.c ****         *
 352:.\Generated_Source\PSoC5/UART_TF.c ****         * Return:
 353:.\Generated_Source\PSoC5/UART_TF.c ****         *  None.
 354:.\Generated_Source\PSoC5/UART_TF.c ****         *
 355:.\Generated_Source\PSoC5/UART_TF.c ****         * Theory:
 356:.\Generated_Source\PSoC5/UART_TF.c ****         *  Disable the interrupt output -or- the interrupt component itself
 357:.\Generated_Source\PSoC5/UART_TF.c ****         *
 358:.\Generated_Source\PSoC5/UART_TF.c ****         *******************************************************************************/
 359:.\Generated_Source\PSoC5/UART_TF.c ****         void UART_TF_DisableRxInt(void) 
 360:.\Generated_Source\PSoC5/UART_TF.c ****         {
 361:.\Generated_Source\PSoC5/UART_TF.c ****             CyIntDisable(UART_TF_RX_VECT_NUM);
 362:.\Generated_Source\PSoC5/UART_TF.c ****         }
 363:.\Generated_Source\PSoC5/UART_TF.c **** 
 364:.\Generated_Source\PSoC5/UART_TF.c ****     #endif /* UART_TF_RX_INTERRUPT_ENABLED */
 365:.\Generated_Source\PSoC5/UART_TF.c **** 
 366:.\Generated_Source\PSoC5/UART_TF.c **** 
 367:.\Generated_Source\PSoC5/UART_TF.c ****     /*******************************************************************************
 368:.\Generated_Source\PSoC5/UART_TF.c ****     * Function Name: UART_TF_SetRxInterruptMode
 369:.\Generated_Source\PSoC5/UART_TF.c ****     ********************************************************************************
 370:.\Generated_Source\PSoC5/UART_TF.c ****     *
 371:.\Generated_Source\PSoC5/UART_TF.c ****     * Summary:
 372:.\Generated_Source\PSoC5/UART_TF.c ****     *  Configure which status bits trigger an interrupt event
 373:.\Generated_Source\PSoC5/UART_TF.c ****     *
 374:.\Generated_Source\PSoC5/UART_TF.c ****     * Parameters:
 375:.\Generated_Source\PSoC5/UART_TF.c ****     *  IntSrc:  An or'd combination of the desired status bit masks (defined in
 376:.\Generated_Source\PSoC5/UART_TF.c ****     *           the header file)
 377:.\Generated_Source\PSoC5/UART_TF.c ****     *
 378:.\Generated_Source\PSoC5/UART_TF.c ****     * Return:
 379:.\Generated_Source\PSoC5/UART_TF.c ****     *  None.
 380:.\Generated_Source\PSoC5/UART_TF.c ****     *
 381:.\Generated_Source\PSoC5/UART_TF.c ****     * Theory:
 382:.\Generated_Source\PSoC5/UART_TF.c ****     *  Enables the output of specific status bits to the interrupt controller
 383:.\Generated_Source\PSoC5/UART_TF.c ****     *
 384:.\Generated_Source\PSoC5/UART_TF.c ****     *******************************************************************************/
ARM GAS  C:\Users\SUZUKI~1\AppData\Local\Temp\ccLL7eqE.s 			page 13


 385:.\Generated_Source\PSoC5/UART_TF.c ****     void UART_TF_SetRxInterruptMode(uint8 intSrc) 
 386:.\Generated_Source\PSoC5/UART_TF.c ****     {
 297              		.loc 1 386 0
 298              		.cfi_startproc
 299              		@ args = 0, pretend = 0, frame = 8
 300              		@ frame_needed = 1, uses_anonymous_args = 0
 301              		@ link register save eliminated.
 302 0000 80B4     		push	{r7}
 303              	.LCFI15:
 304              		.cfi_def_cfa_offset 4
 305 0002 83B0     		sub	sp, sp, #12
 306              	.LCFI16:
 307              		.cfi_def_cfa_offset 16
 308 0004 00AF     		add	r7, sp, #0
 309              		.cfi_offset 7, -4
 310              	.LCFI17:
 311              		.cfi_def_cfa_register 7
 312 0006 0346     		mov	r3, r0
 313 0008 FB71     		strb	r3, [r7, #7]
 387:.\Generated_Source\PSoC5/UART_TF.c ****         UART_TF_RXSTATUS_MASK_REG  = intSrc;
 314              		.loc 1 387 0
 315 000a 46F28953 		movw	r3, #:lower16:1073767817
 316 000e C4F20003 		movt	r3, #:upper16:1073767817
 317 0012 FA79     		ldrb	r2, [r7, #7]
 318 0014 1A70     		strb	r2, [r3, #0]
 388:.\Generated_Source\PSoC5/UART_TF.c ****     }
 319              		.loc 1 388 0
 320 0016 07F10C07 		add	r7, r7, #12
 321 001a BD46     		mov	sp, r7
 322 001c 80BC     		pop	{r7}
 323 001e 7047     		bx	lr
 324              		.cfi_endproc
 325              	.LFE6:
 326              		.size	UART_TF_SetRxInterruptMode, .-UART_TF_SetRxInterruptMode
 327              		.section	.text.UART_TF_ReadRxData,"ax",%progbits
 328              		.align	2
 329              		.global	UART_TF_ReadRxData
 330              		.thumb
 331              		.thumb_func
 332              		.type	UART_TF_ReadRxData, %function
 333              	UART_TF_ReadRxData:
 334              	.LFB7:
 389:.\Generated_Source\PSoC5/UART_TF.c **** 
 390:.\Generated_Source\PSoC5/UART_TF.c **** 
 391:.\Generated_Source\PSoC5/UART_TF.c ****     /*******************************************************************************
 392:.\Generated_Source\PSoC5/UART_TF.c ****     * Function Name: UART_TF_ReadRxData
 393:.\Generated_Source\PSoC5/UART_TF.c ****     ********************************************************************************
 394:.\Generated_Source\PSoC5/UART_TF.c ****     *
 395:.\Generated_Source\PSoC5/UART_TF.c ****     * Summary:
 396:.\Generated_Source\PSoC5/UART_TF.c ****     *  Returns data in RX Data register without checking status register to
 397:.\Generated_Source\PSoC5/UART_TF.c ****     *  determine if data is valid
 398:.\Generated_Source\PSoC5/UART_TF.c ****     *
 399:.\Generated_Source\PSoC5/UART_TF.c ****     * Parameters:
 400:.\Generated_Source\PSoC5/UART_TF.c ****     *  None.
 401:.\Generated_Source\PSoC5/UART_TF.c ****     *
 402:.\Generated_Source\PSoC5/UART_TF.c ****     * Return:
 403:.\Generated_Source\PSoC5/UART_TF.c ****     *  Received data from RX register
ARM GAS  C:\Users\SUZUKI~1\AppData\Local\Temp\ccLL7eqE.s 			page 14


 404:.\Generated_Source\PSoC5/UART_TF.c ****     *
 405:.\Generated_Source\PSoC5/UART_TF.c ****     * Global Variables:
 406:.\Generated_Source\PSoC5/UART_TF.c ****     *  UART_TF_rxBuffer - RAM buffer pointer for save received data.
 407:.\Generated_Source\PSoC5/UART_TF.c ****     *  UART_TF_rxBufferWrite - cyclic index for write to rxBuffer,
 408:.\Generated_Source\PSoC5/UART_TF.c ****     *     checked to identify new data.
 409:.\Generated_Source\PSoC5/UART_TF.c ****     *  UART_TF_rxBufferRead - cyclic index for read from rxBuffer,
 410:.\Generated_Source\PSoC5/UART_TF.c ****     *     incremented after each byte has been read from buffer.
 411:.\Generated_Source\PSoC5/UART_TF.c ****     *  UART_TF_rxBufferLoopDetect - creared if loop condition was detected
 412:.\Generated_Source\PSoC5/UART_TF.c ****     *     in RX ISR.
 413:.\Generated_Source\PSoC5/UART_TF.c ****     *
 414:.\Generated_Source\PSoC5/UART_TF.c ****     * Reentrant:
 415:.\Generated_Source\PSoC5/UART_TF.c ****     *  No.
 416:.\Generated_Source\PSoC5/UART_TF.c ****     *
 417:.\Generated_Source\PSoC5/UART_TF.c ****     *******************************************************************************/
 418:.\Generated_Source\PSoC5/UART_TF.c ****     uint8 UART_TF_ReadRxData(void) 
 419:.\Generated_Source\PSoC5/UART_TF.c ****     {
 335              		.loc 1 419 0
 336              		.cfi_startproc
 337              		@ args = 0, pretend = 0, frame = 8
 338              		@ frame_needed = 1, uses_anonymous_args = 0
 339              		@ link register save eliminated.
 340 0000 80B4     		push	{r7}
 341              	.LCFI18:
 342              		.cfi_def_cfa_offset 4
 343 0002 83B0     		sub	sp, sp, #12
 344              	.LCFI19:
 345              		.cfi_def_cfa_offset 16
 346 0004 00AF     		add	r7, sp, #0
 347              		.cfi_offset 7, -4
 348              	.LCFI20:
 349              		.cfi_def_cfa_register 7
 420:.\Generated_Source\PSoC5/UART_TF.c ****         uint8 rxData;
 421:.\Generated_Source\PSoC5/UART_TF.c **** 
 422:.\Generated_Source\PSoC5/UART_TF.c ****         #if(UART_TF_RXBUFFERSIZE > UART_TF_FIFO_LENGTH)
 423:.\Generated_Source\PSoC5/UART_TF.c ****             uint8 loc_rxBufferRead;
 424:.\Generated_Source\PSoC5/UART_TF.c ****             uint8 loc_rxBufferWrite;
 425:.\Generated_Source\PSoC5/UART_TF.c ****             /* Protect variables that could change on interrupt. */
 426:.\Generated_Source\PSoC5/UART_TF.c ****             /* Disable Rx interrupt. */
 427:.\Generated_Source\PSoC5/UART_TF.c ****             #if(UART_TF_RX_INTERRUPT_ENABLED)
 428:.\Generated_Source\PSoC5/UART_TF.c ****                 UART_TF_DisableRxInt();
 429:.\Generated_Source\PSoC5/UART_TF.c ****             #endif /* UART_TF_RX_INTERRUPT_ENABLED */
 430:.\Generated_Source\PSoC5/UART_TF.c ****             loc_rxBufferRead = UART_TF_rxBufferRead;
 431:.\Generated_Source\PSoC5/UART_TF.c ****             loc_rxBufferWrite = UART_TF_rxBufferWrite;
 432:.\Generated_Source\PSoC5/UART_TF.c **** 
 433:.\Generated_Source\PSoC5/UART_TF.c ****             if( (UART_TF_rxBufferLoopDetect != 0u) || (loc_rxBufferRead != loc_rxBufferWrite) )
 434:.\Generated_Source\PSoC5/UART_TF.c ****             {
 435:.\Generated_Source\PSoC5/UART_TF.c ****                 rxData = UART_TF_rxBuffer[loc_rxBufferRead];
 436:.\Generated_Source\PSoC5/UART_TF.c ****                 loc_rxBufferRead++;
 437:.\Generated_Source\PSoC5/UART_TF.c **** 
 438:.\Generated_Source\PSoC5/UART_TF.c ****                 if(loc_rxBufferRead >= UART_TF_RXBUFFERSIZE)
 439:.\Generated_Source\PSoC5/UART_TF.c ****                 {
 440:.\Generated_Source\PSoC5/UART_TF.c ****                     loc_rxBufferRead = 0u;
 441:.\Generated_Source\PSoC5/UART_TF.c ****                 }
 442:.\Generated_Source\PSoC5/UART_TF.c ****                 /* Update the real pointer */
 443:.\Generated_Source\PSoC5/UART_TF.c ****                 UART_TF_rxBufferRead = loc_rxBufferRead;
 444:.\Generated_Source\PSoC5/UART_TF.c **** 
 445:.\Generated_Source\PSoC5/UART_TF.c ****                 if(UART_TF_rxBufferLoopDetect != 0u )
ARM GAS  C:\Users\SUZUKI~1\AppData\Local\Temp\ccLL7eqE.s 			page 15


 446:.\Generated_Source\PSoC5/UART_TF.c ****                 {
 447:.\Generated_Source\PSoC5/UART_TF.c ****                     UART_TF_rxBufferLoopDetect = 0u;
 448:.\Generated_Source\PSoC5/UART_TF.c ****                     #if( (UART_TF_RX_INTERRUPT_ENABLED) && (UART_TF_FLOW_CONTROL != 0u) && \
 449:.\Generated_Source\PSoC5/UART_TF.c ****                          (UART_TF_RXBUFFERSIZE > UART_TF_FIFO_LENGTH) )
 450:.\Generated_Source\PSoC5/UART_TF.c ****                         /* When Hardware Flow Control selected - return RX mask */
 451:.\Generated_Source\PSoC5/UART_TF.c ****                         #if( UART_TF_HD_ENABLED )
 452:.\Generated_Source\PSoC5/UART_TF.c ****                             if((UART_TF_CONTROL_REG & UART_TF_CTRL_HD_SEND) == 0u)
 453:.\Generated_Source\PSoC5/UART_TF.c ****                             {   /* In Half duplex mode return RX mask only in RX
 454:.\Generated_Source\PSoC5/UART_TF.c ****                                 *  configuration set, otherwise
 455:.\Generated_Source\PSoC5/UART_TF.c ****                                 *  mask will be returned in LoadRxConfig() API.
 456:.\Generated_Source\PSoC5/UART_TF.c ****                                 */
 457:.\Generated_Source\PSoC5/UART_TF.c ****                                 UART_TF_RXSTATUS_MASK_REG  |= UART_TF_RX_STS_FIFO_NOTEMPTY;
 458:.\Generated_Source\PSoC5/UART_TF.c ****                             }
 459:.\Generated_Source\PSoC5/UART_TF.c ****                         #else
 460:.\Generated_Source\PSoC5/UART_TF.c ****                             UART_TF_RXSTATUS_MASK_REG  |= UART_TF_RX_STS_FIFO_NOTEMPTY;
 461:.\Generated_Source\PSoC5/UART_TF.c ****                         #endif /* end UART_TF_HD_ENABLED */
 462:.\Generated_Source\PSoC5/UART_TF.c ****                     #endif /* UART_TF_RX_INTERRUPT_ENABLED and Hardware flow control*/
 463:.\Generated_Source\PSoC5/UART_TF.c ****                 }
 464:.\Generated_Source\PSoC5/UART_TF.c ****             }
 465:.\Generated_Source\PSoC5/UART_TF.c ****             else
 466:.\Generated_Source\PSoC5/UART_TF.c ****             {   /* Needs to check status for RX_STS_FIFO_NOTEMPTY bit*/
 467:.\Generated_Source\PSoC5/UART_TF.c ****                 rxData = UART_TF_RXDATA_REG;
 468:.\Generated_Source\PSoC5/UART_TF.c ****             }
 469:.\Generated_Source\PSoC5/UART_TF.c **** 
 470:.\Generated_Source\PSoC5/UART_TF.c ****             /* Enable Rx interrupt. */
 471:.\Generated_Source\PSoC5/UART_TF.c ****             #if(UART_TF_RX_INTERRUPT_ENABLED)
 472:.\Generated_Source\PSoC5/UART_TF.c ****                 UART_TF_EnableRxInt();
 473:.\Generated_Source\PSoC5/UART_TF.c ****             #endif /* End UART_TF_RX_INTERRUPT_ENABLED */
 474:.\Generated_Source\PSoC5/UART_TF.c **** 
 475:.\Generated_Source\PSoC5/UART_TF.c ****         #else /* UART_TF_RXBUFFERSIZE > UART_TF_FIFO_LENGTH */
 476:.\Generated_Source\PSoC5/UART_TF.c **** 
 477:.\Generated_Source\PSoC5/UART_TF.c ****             /* Needs to check status for RX_STS_FIFO_NOTEMPTY bit*/
 478:.\Generated_Source\PSoC5/UART_TF.c ****             rxData = UART_TF_RXDATA_REG;
 350              		.loc 1 478 0
 351 0006 46F24953 		movw	r3, #:lower16:1073767753
 352 000a C4F20003 		movt	r3, #:upper16:1073767753
 353 000e 1B78     		ldrb	r3, [r3, #0]
 354 0010 FB71     		strb	r3, [r7, #7]
 479:.\Generated_Source\PSoC5/UART_TF.c **** 
 480:.\Generated_Source\PSoC5/UART_TF.c ****         #endif /* UART_TF_RXBUFFERSIZE > UART_TF_FIFO_LENGTH */
 481:.\Generated_Source\PSoC5/UART_TF.c **** 
 482:.\Generated_Source\PSoC5/UART_TF.c ****         return(rxData);
 355              		.loc 1 482 0
 356 0012 FB79     		ldrb	r3, [r7, #7]	@ zero_extendqisi2
 483:.\Generated_Source\PSoC5/UART_TF.c ****     }
 357              		.loc 1 483 0
 358 0014 1846     		mov	r0, r3
 359 0016 07F10C07 		add	r7, r7, #12
 360 001a BD46     		mov	sp, r7
 361 001c 80BC     		pop	{r7}
 362 001e 7047     		bx	lr
 363              		.cfi_endproc
 364              	.LFE7:
 365              		.size	UART_TF_ReadRxData, .-UART_TF_ReadRxData
 366              		.section	.text.UART_TF_ReadRxStatus,"ax",%progbits
 367              		.align	2
 368              		.global	UART_TF_ReadRxStatus
ARM GAS  C:\Users\SUZUKI~1\AppData\Local\Temp\ccLL7eqE.s 			page 16


 369              		.thumb
 370              		.thumb_func
 371              		.type	UART_TF_ReadRxStatus, %function
 372              	UART_TF_ReadRxStatus:
 373              	.LFB8:
 484:.\Generated_Source\PSoC5/UART_TF.c **** 
 485:.\Generated_Source\PSoC5/UART_TF.c **** 
 486:.\Generated_Source\PSoC5/UART_TF.c ****     /*******************************************************************************
 487:.\Generated_Source\PSoC5/UART_TF.c ****     * Function Name: UART_TF_ReadRxStatus
 488:.\Generated_Source\PSoC5/UART_TF.c ****     ********************************************************************************
 489:.\Generated_Source\PSoC5/UART_TF.c ****     *
 490:.\Generated_Source\PSoC5/UART_TF.c ****     * Summary:
 491:.\Generated_Source\PSoC5/UART_TF.c ****     *  Read the current state of the status register
 492:.\Generated_Source\PSoC5/UART_TF.c ****     *  And detect software buffer overflow.
 493:.\Generated_Source\PSoC5/UART_TF.c ****     *
 494:.\Generated_Source\PSoC5/UART_TF.c ****     * Parameters:
 495:.\Generated_Source\PSoC5/UART_TF.c ****     *  None.
 496:.\Generated_Source\PSoC5/UART_TF.c ****     *
 497:.\Generated_Source\PSoC5/UART_TF.c ****     * Return:
 498:.\Generated_Source\PSoC5/UART_TF.c ****     *  Current state of the status register.
 499:.\Generated_Source\PSoC5/UART_TF.c ****     *
 500:.\Generated_Source\PSoC5/UART_TF.c ****     * Global Variables:
 501:.\Generated_Source\PSoC5/UART_TF.c ****     *  UART_TF_rxBufferOverflow - used to indicate overload condition.
 502:.\Generated_Source\PSoC5/UART_TF.c ****     *   It set to one in RX interrupt when there isn?t free space in
 503:.\Generated_Source\PSoC5/UART_TF.c ****     *   UART_TF_rxBufferRead to write new data. This condition returned
 504:.\Generated_Source\PSoC5/UART_TF.c ****     *   and cleared to zero by this API as an
 505:.\Generated_Source\PSoC5/UART_TF.c ****     *   UART_TF_RX_STS_SOFT_BUFF_OVER bit along with RX Status register
 506:.\Generated_Source\PSoC5/UART_TF.c ****     *   bits.
 507:.\Generated_Source\PSoC5/UART_TF.c ****     *
 508:.\Generated_Source\PSoC5/UART_TF.c ****     *******************************************************************************/
 509:.\Generated_Source\PSoC5/UART_TF.c ****     uint8 UART_TF_ReadRxStatus(void) 
 510:.\Generated_Source\PSoC5/UART_TF.c ****     {
 374              		.loc 1 510 0
 375              		.cfi_startproc
 376              		@ args = 0, pretend = 0, frame = 8
 377              		@ frame_needed = 1, uses_anonymous_args = 0
 378              		@ link register save eliminated.
 379 0000 80B4     		push	{r7}
 380              	.LCFI21:
 381              		.cfi_def_cfa_offset 4
 382 0002 83B0     		sub	sp, sp, #12
 383              	.LCFI22:
 384              		.cfi_def_cfa_offset 16
 385 0004 00AF     		add	r7, sp, #0
 386              		.cfi_offset 7, -4
 387              	.LCFI23:
 388              		.cfi_def_cfa_register 7
 511:.\Generated_Source\PSoC5/UART_TF.c ****         uint8 status;
 512:.\Generated_Source\PSoC5/UART_TF.c **** 
 513:.\Generated_Source\PSoC5/UART_TF.c ****         status = UART_TF_RXSTATUS_REG & UART_TF_RX_HW_MASK;
 389              		.loc 1 513 0
 390 0006 46F26953 		movw	r3, #:lower16:1073767785
 391 000a C4F20003 		movt	r3, #:upper16:1073767785
 392 000e 1B78     		ldrb	r3, [r3, #0]
 393 0010 DBB2     		uxtb	r3, r3
 394 0012 03F07F03 		and	r3, r3, #127
 395 0016 FB71     		strb	r3, [r7, #7]
ARM GAS  C:\Users\SUZUKI~1\AppData\Local\Temp\ccLL7eqE.s 			page 17


 514:.\Generated_Source\PSoC5/UART_TF.c **** 
 515:.\Generated_Source\PSoC5/UART_TF.c ****         #if(UART_TF_RXBUFFERSIZE > UART_TF_FIFO_LENGTH)
 516:.\Generated_Source\PSoC5/UART_TF.c ****             if( UART_TF_rxBufferOverflow != 0u )
 517:.\Generated_Source\PSoC5/UART_TF.c ****             {
 518:.\Generated_Source\PSoC5/UART_TF.c ****                 status |= UART_TF_RX_STS_SOFT_BUFF_OVER;
 519:.\Generated_Source\PSoC5/UART_TF.c ****                 UART_TF_rxBufferOverflow = 0u;
 520:.\Generated_Source\PSoC5/UART_TF.c ****             }
 521:.\Generated_Source\PSoC5/UART_TF.c ****         #endif /* UART_TF_RXBUFFERSIZE */
 522:.\Generated_Source\PSoC5/UART_TF.c **** 
 523:.\Generated_Source\PSoC5/UART_TF.c ****         return(status);
 396              		.loc 1 523 0
 397 0018 FB79     		ldrb	r3, [r7, #7]	@ zero_extendqisi2
 524:.\Generated_Source\PSoC5/UART_TF.c ****     }
 398              		.loc 1 524 0
 399 001a 1846     		mov	r0, r3
 400 001c 07F10C07 		add	r7, r7, #12
 401 0020 BD46     		mov	sp, r7
 402 0022 80BC     		pop	{r7}
 403 0024 7047     		bx	lr
 404              		.cfi_endproc
 405              	.LFE8:
 406              		.size	UART_TF_ReadRxStatus, .-UART_TF_ReadRxStatus
 407 0026 00BF     		.section	.text.UART_TF_GetChar,"ax",%progbits
 408              		.align	2
 409              		.global	UART_TF_GetChar
 410              		.thumb
 411              		.thumb_func
 412              		.type	UART_TF_GetChar, %function
 413              	UART_TF_GetChar:
 414              	.LFB9:
 525:.\Generated_Source\PSoC5/UART_TF.c **** 
 526:.\Generated_Source\PSoC5/UART_TF.c **** 
 527:.\Generated_Source\PSoC5/UART_TF.c ****     /*******************************************************************************
 528:.\Generated_Source\PSoC5/UART_TF.c ****     * Function Name: UART_TF_GetChar
 529:.\Generated_Source\PSoC5/UART_TF.c ****     ********************************************************************************
 530:.\Generated_Source\PSoC5/UART_TF.c ****     *
 531:.\Generated_Source\PSoC5/UART_TF.c ****     * Summary:
 532:.\Generated_Source\PSoC5/UART_TF.c ****     *  Reads UART RX buffer immediately, if data is not available or an error
 533:.\Generated_Source\PSoC5/UART_TF.c ****     *  condition exists, zero is returned; otherwise, character is read and
 534:.\Generated_Source\PSoC5/UART_TF.c ****     *  returned.
 535:.\Generated_Source\PSoC5/UART_TF.c ****     *
 536:.\Generated_Source\PSoC5/UART_TF.c ****     * Parameters:
 537:.\Generated_Source\PSoC5/UART_TF.c ****     *  None.
 538:.\Generated_Source\PSoC5/UART_TF.c ****     *
 539:.\Generated_Source\PSoC5/UART_TF.c ****     * Return:
 540:.\Generated_Source\PSoC5/UART_TF.c ****     *  Character read from UART RX buffer. ASCII characters from 1 to 255 are valid.
 541:.\Generated_Source\PSoC5/UART_TF.c ****     *  A returned zero signifies an error condition or no data available.
 542:.\Generated_Source\PSoC5/UART_TF.c ****     *
 543:.\Generated_Source\PSoC5/UART_TF.c ****     * Global Variables:
 544:.\Generated_Source\PSoC5/UART_TF.c ****     *  UART_TF_rxBuffer - RAM buffer pointer for save received data.
 545:.\Generated_Source\PSoC5/UART_TF.c ****     *  UART_TF_rxBufferWrite - cyclic index for write to rxBuffer,
 546:.\Generated_Source\PSoC5/UART_TF.c ****     *     checked to identify new data.
 547:.\Generated_Source\PSoC5/UART_TF.c ****     *  UART_TF_rxBufferRead - cyclic index for read from rxBuffer,
 548:.\Generated_Source\PSoC5/UART_TF.c ****     *     incremented after each byte has been read from buffer.
 549:.\Generated_Source\PSoC5/UART_TF.c ****     *  UART_TF_rxBufferLoopDetect - creared if loop condition was detected
 550:.\Generated_Source\PSoC5/UART_TF.c ****     *     in RX ISR.
 551:.\Generated_Source\PSoC5/UART_TF.c ****     *
ARM GAS  C:\Users\SUZUKI~1\AppData\Local\Temp\ccLL7eqE.s 			page 18


 552:.\Generated_Source\PSoC5/UART_TF.c ****     * Reentrant:
 553:.\Generated_Source\PSoC5/UART_TF.c ****     *  No.
 554:.\Generated_Source\PSoC5/UART_TF.c ****     *
 555:.\Generated_Source\PSoC5/UART_TF.c ****     *******************************************************************************/
 556:.\Generated_Source\PSoC5/UART_TF.c ****     uint8 UART_TF_GetChar(void) 
 557:.\Generated_Source\PSoC5/UART_TF.c ****     {
 415              		.loc 1 557 0
 416              		.cfi_startproc
 417              		@ args = 0, pretend = 0, frame = 8
 418              		@ frame_needed = 1, uses_anonymous_args = 0
 419              		@ link register save eliminated.
 420 0000 80B4     		push	{r7}
 421              	.LCFI24:
 422              		.cfi_def_cfa_offset 4
 423 0002 83B0     		sub	sp, sp, #12
 424              	.LCFI25:
 425              		.cfi_def_cfa_offset 16
 426 0004 00AF     		add	r7, sp, #0
 427              		.cfi_offset 7, -4
 428              	.LCFI26:
 429              		.cfi_def_cfa_register 7
 558:.\Generated_Source\PSoC5/UART_TF.c ****         uint8 rxData = 0u;
 430              		.loc 1 558 0
 431 0006 4FF00003 		mov	r3, #0
 432 000a BB71     		strb	r3, [r7, #6]
 559:.\Generated_Source\PSoC5/UART_TF.c ****         uint8 rxStatus;
 560:.\Generated_Source\PSoC5/UART_TF.c **** 
 561:.\Generated_Source\PSoC5/UART_TF.c ****         #if(UART_TF_RXBUFFERSIZE > UART_TF_FIFO_LENGTH)
 562:.\Generated_Source\PSoC5/UART_TF.c ****             uint8 loc_rxBufferRead;
 563:.\Generated_Source\PSoC5/UART_TF.c ****             uint8 loc_rxBufferWrite;
 564:.\Generated_Source\PSoC5/UART_TF.c ****             /* Protect variables that could change on interrupt. */
 565:.\Generated_Source\PSoC5/UART_TF.c ****             /* Disable Rx interrupt. */
 566:.\Generated_Source\PSoC5/UART_TF.c ****             #if(UART_TF_RX_INTERRUPT_ENABLED)
 567:.\Generated_Source\PSoC5/UART_TF.c ****                 UART_TF_DisableRxInt();
 568:.\Generated_Source\PSoC5/UART_TF.c ****             #endif /* UART_TF_RX_INTERRUPT_ENABLED */
 569:.\Generated_Source\PSoC5/UART_TF.c ****             loc_rxBufferRead = UART_TF_rxBufferRead;
 570:.\Generated_Source\PSoC5/UART_TF.c ****             loc_rxBufferWrite = UART_TF_rxBufferWrite;
 571:.\Generated_Source\PSoC5/UART_TF.c **** 
 572:.\Generated_Source\PSoC5/UART_TF.c ****             if( (UART_TF_rxBufferLoopDetect != 0u) || (loc_rxBufferRead != loc_rxBufferWrite) )
 573:.\Generated_Source\PSoC5/UART_TF.c ****             {
 574:.\Generated_Source\PSoC5/UART_TF.c ****                 rxData = UART_TF_rxBuffer[loc_rxBufferRead];
 575:.\Generated_Source\PSoC5/UART_TF.c ****                 loc_rxBufferRead++;
 576:.\Generated_Source\PSoC5/UART_TF.c ****                 if(loc_rxBufferRead >= UART_TF_RXBUFFERSIZE)
 577:.\Generated_Source\PSoC5/UART_TF.c ****                 {
 578:.\Generated_Source\PSoC5/UART_TF.c ****                     loc_rxBufferRead = 0u;
 579:.\Generated_Source\PSoC5/UART_TF.c ****                 }
 580:.\Generated_Source\PSoC5/UART_TF.c ****                 /* Update the real pointer */
 581:.\Generated_Source\PSoC5/UART_TF.c ****                 UART_TF_rxBufferRead = loc_rxBufferRead;
 582:.\Generated_Source\PSoC5/UART_TF.c **** 
 583:.\Generated_Source\PSoC5/UART_TF.c ****                 if(UART_TF_rxBufferLoopDetect > 0u )
 584:.\Generated_Source\PSoC5/UART_TF.c ****                 {
 585:.\Generated_Source\PSoC5/UART_TF.c ****                     UART_TF_rxBufferLoopDetect = 0u;
 586:.\Generated_Source\PSoC5/UART_TF.c ****                     #if( (UART_TF_RX_INTERRUPT_ENABLED) && (UART_TF_FLOW_CONTROL != 0u) )
 587:.\Generated_Source\PSoC5/UART_TF.c ****                         /* When Hardware Flow Control selected - return RX mask */
 588:.\Generated_Source\PSoC5/UART_TF.c ****                         #if( UART_TF_HD_ENABLED )
 589:.\Generated_Source\PSoC5/UART_TF.c ****                             if((UART_TF_CONTROL_REG & UART_TF_CTRL_HD_SEND) == 0u)
 590:.\Generated_Source\PSoC5/UART_TF.c ****                             {   /* In Half duplex mode return RX mask only if
ARM GAS  C:\Users\SUZUKI~1\AppData\Local\Temp\ccLL7eqE.s 			page 19


 591:.\Generated_Source\PSoC5/UART_TF.c ****                                 *  RX configuration set, otherwise
 592:.\Generated_Source\PSoC5/UART_TF.c ****                                 *  mask will be returned in LoadRxConfig() API.
 593:.\Generated_Source\PSoC5/UART_TF.c ****                                 */
 594:.\Generated_Source\PSoC5/UART_TF.c ****                                 UART_TF_RXSTATUS_MASK_REG  |= UART_TF_RX_STS_FIFO_NOTEMPTY;
 595:.\Generated_Source\PSoC5/UART_TF.c ****                             }
 596:.\Generated_Source\PSoC5/UART_TF.c ****                         #else
 597:.\Generated_Source\PSoC5/UART_TF.c ****                             UART_TF_RXSTATUS_MASK_REG  |= UART_TF_RX_STS_FIFO_NOTEMPTY;
 598:.\Generated_Source\PSoC5/UART_TF.c ****                         #endif /* end UART_TF_HD_ENABLED */
 599:.\Generated_Source\PSoC5/UART_TF.c ****                     #endif /* UART_TF_RX_INTERRUPT_ENABLED and Hardware flow control*/
 600:.\Generated_Source\PSoC5/UART_TF.c ****                 }
 601:.\Generated_Source\PSoC5/UART_TF.c **** 
 602:.\Generated_Source\PSoC5/UART_TF.c ****             }
 603:.\Generated_Source\PSoC5/UART_TF.c ****             else
 604:.\Generated_Source\PSoC5/UART_TF.c ****             {   rxStatus = UART_TF_RXSTATUS_REG;
 605:.\Generated_Source\PSoC5/UART_TF.c ****                 if((rxStatus & UART_TF_RX_STS_FIFO_NOTEMPTY) != 0u)
 606:.\Generated_Source\PSoC5/UART_TF.c ****                 {   /* Read received data from FIFO*/
 607:.\Generated_Source\PSoC5/UART_TF.c ****                     rxData = UART_TF_RXDATA_REG;
 608:.\Generated_Source\PSoC5/UART_TF.c ****                     /*Check status on error*/
 609:.\Generated_Source\PSoC5/UART_TF.c ****                     if((rxStatus & (UART_TF_RX_STS_BREAK | UART_TF_RX_STS_PAR_ERROR |
 610:.\Generated_Source\PSoC5/UART_TF.c ****                                    UART_TF_RX_STS_STOP_ERROR | UART_TF_RX_STS_OVERRUN)) != 0u)
 611:.\Generated_Source\PSoC5/UART_TF.c ****                     {
 612:.\Generated_Source\PSoC5/UART_TF.c ****                         rxData = 0u;
 613:.\Generated_Source\PSoC5/UART_TF.c ****                     }
 614:.\Generated_Source\PSoC5/UART_TF.c ****                 }
 615:.\Generated_Source\PSoC5/UART_TF.c ****             }
 616:.\Generated_Source\PSoC5/UART_TF.c **** 
 617:.\Generated_Source\PSoC5/UART_TF.c ****             /* Enable Rx interrupt. */
 618:.\Generated_Source\PSoC5/UART_TF.c ****             #if(UART_TF_RX_INTERRUPT_ENABLED)
 619:.\Generated_Source\PSoC5/UART_TF.c ****                 UART_TF_EnableRxInt();
 620:.\Generated_Source\PSoC5/UART_TF.c ****             #endif /* UART_TF_RX_INTERRUPT_ENABLED */
 621:.\Generated_Source\PSoC5/UART_TF.c **** 
 622:.\Generated_Source\PSoC5/UART_TF.c ****         #else /* UART_TF_RXBUFFERSIZE > UART_TF_FIFO_LENGTH */
 623:.\Generated_Source\PSoC5/UART_TF.c **** 
 624:.\Generated_Source\PSoC5/UART_TF.c ****             rxStatus =UART_TF_RXSTATUS_REG;
 433              		.loc 1 624 0
 434 000c 46F26953 		movw	r3, #:lower16:1073767785
 435 0010 C4F20003 		movt	r3, #:upper16:1073767785
 436 0014 1B78     		ldrb	r3, [r3, #0]
 437 0016 FB71     		strb	r3, [r7, #7]
 625:.\Generated_Source\PSoC5/UART_TF.c ****             if((rxStatus & UART_TF_RX_STS_FIFO_NOTEMPTY) != 0u)
 438              		.loc 1 625 0
 439 0018 FB79     		ldrb	r3, [r7, #7]	@ zero_extendqisi2
 440 001a 03F02003 		and	r3, r3, #32
 441 001e 002B     		cmp	r3, #0
 442 0020 0DD0     		beq	.L21
 626:.\Generated_Source\PSoC5/UART_TF.c ****             {   /* Read received data from FIFO*/
 627:.\Generated_Source\PSoC5/UART_TF.c ****                 rxData = UART_TF_RXDATA_REG;
 443              		.loc 1 627 0
 444 0022 46F24953 		movw	r3, #:lower16:1073767753
 445 0026 C4F20003 		movt	r3, #:upper16:1073767753
 446 002a 1B78     		ldrb	r3, [r3, #0]
 447 002c BB71     		strb	r3, [r7, #6]
 628:.\Generated_Source\PSoC5/UART_TF.c ****                 /*Check status on error*/
 629:.\Generated_Source\PSoC5/UART_TF.c ****                 if((rxStatus & (UART_TF_RX_STS_BREAK | UART_TF_RX_STS_PAR_ERROR |
 448              		.loc 1 629 0
 449 002e FB79     		ldrb	r3, [r7, #7]	@ zero_extendqisi2
 450 0030 03F01E03 		and	r3, r3, #30
ARM GAS  C:\Users\SUZUKI~1\AppData\Local\Temp\ccLL7eqE.s 			page 20


 451 0034 002B     		cmp	r3, #0
 452 0036 02D0     		beq	.L21
 630:.\Generated_Source\PSoC5/UART_TF.c ****                                UART_TF_RX_STS_STOP_ERROR | UART_TF_RX_STS_OVERRUN)) != 0u)
 631:.\Generated_Source\PSoC5/UART_TF.c ****                 {
 632:.\Generated_Source\PSoC5/UART_TF.c ****                     rxData = 0u;
 453              		.loc 1 632 0
 454 0038 4FF00003 		mov	r3, #0
 455 003c BB71     		strb	r3, [r7, #6]
 456              	.L21:
 633:.\Generated_Source\PSoC5/UART_TF.c ****                 }
 634:.\Generated_Source\PSoC5/UART_TF.c ****             }
 635:.\Generated_Source\PSoC5/UART_TF.c ****         #endif /* UART_TF_RXBUFFERSIZE > UART_TF_FIFO_LENGTH */
 636:.\Generated_Source\PSoC5/UART_TF.c **** 
 637:.\Generated_Source\PSoC5/UART_TF.c ****         return(rxData);
 457              		.loc 1 637 0
 458 003e BB79     		ldrb	r3, [r7, #6]	@ zero_extendqisi2
 638:.\Generated_Source\PSoC5/UART_TF.c ****     }
 459              		.loc 1 638 0
 460 0040 1846     		mov	r0, r3
 461 0042 07F10C07 		add	r7, r7, #12
 462 0046 BD46     		mov	sp, r7
 463 0048 80BC     		pop	{r7}
 464 004a 7047     		bx	lr
 465              		.cfi_endproc
 466              	.LFE9:
 467              		.size	UART_TF_GetChar, .-UART_TF_GetChar
 468              		.section	.text.UART_TF_GetByte,"ax",%progbits
 469              		.align	2
 470              		.global	UART_TF_GetByte
 471              		.thumb
 472              		.thumb_func
 473              		.type	UART_TF_GetByte, %function
 474              	UART_TF_GetByte:
 475              	.LFB10:
 639:.\Generated_Source\PSoC5/UART_TF.c **** 
 640:.\Generated_Source\PSoC5/UART_TF.c **** 
 641:.\Generated_Source\PSoC5/UART_TF.c ****     /*******************************************************************************
 642:.\Generated_Source\PSoC5/UART_TF.c ****     * Function Name: UART_TF_GetByte
 643:.\Generated_Source\PSoC5/UART_TF.c ****     ********************************************************************************
 644:.\Generated_Source\PSoC5/UART_TF.c ****     *
 645:.\Generated_Source\PSoC5/UART_TF.c ****     * Summary:
 646:.\Generated_Source\PSoC5/UART_TF.c ****     *  Grab the next available byte of data from the recieve FIFO
 647:.\Generated_Source\PSoC5/UART_TF.c ****     *
 648:.\Generated_Source\PSoC5/UART_TF.c ****     * Parameters:
 649:.\Generated_Source\PSoC5/UART_TF.c ****     *  None.
 650:.\Generated_Source\PSoC5/UART_TF.c ****     *
 651:.\Generated_Source\PSoC5/UART_TF.c ****     * Return:
 652:.\Generated_Source\PSoC5/UART_TF.c ****     *  MSB contains Status Register and LSB contains UART RX data
 653:.\Generated_Source\PSoC5/UART_TF.c ****     *
 654:.\Generated_Source\PSoC5/UART_TF.c ****     * Reentrant:
 655:.\Generated_Source\PSoC5/UART_TF.c ****     *  No.
 656:.\Generated_Source\PSoC5/UART_TF.c ****     *
 657:.\Generated_Source\PSoC5/UART_TF.c ****     *******************************************************************************/
 658:.\Generated_Source\PSoC5/UART_TF.c ****     uint16 UART_TF_GetByte(void) 
 659:.\Generated_Source\PSoC5/UART_TF.c ****     {
 476              		.loc 1 659 0
 477              		.cfi_startproc
ARM GAS  C:\Users\SUZUKI~1\AppData\Local\Temp\ccLL7eqE.s 			page 21


 478              		@ args = 0, pretend = 0, frame = 0
 479              		@ frame_needed = 1, uses_anonymous_args = 0
 480 0000 98B5     		push	{r3, r4, r7, lr}
 481              	.LCFI27:
 482              		.cfi_def_cfa_offset 16
 483 0002 00AF     		add	r7, sp, #0
 484              		.cfi_offset 14, -4
 485              		.cfi_offset 7, -8
 486              		.cfi_offset 4, -12
 487              		.cfi_offset 3, -16
 488              	.LCFI28:
 489              		.cfi_def_cfa_register 7
 660:.\Generated_Source\PSoC5/UART_TF.c ****         return ( ((uint16)UART_TF_ReadRxStatus() << 8u) | UART_TF_ReadRxData() );
 490              		.loc 1 660 0
 491 0004 FFF7FEFF 		bl	UART_TF_ReadRxStatus
 492 0008 0346     		mov	r3, r0
 493 000a 4FEA0323 		lsl	r3, r3, #8
 494 000e 9CB2     		uxth	r4, r3
 495 0010 FFF7FEFF 		bl	UART_TF_ReadRxData
 496 0014 0346     		mov	r3, r0
 497 0016 2246     		mov	r2, r4	@ movhi
 498 0018 42EA0303 		orr	r3, r2, r3
 499 001c 9BB2     		uxth	r3, r3
 500 001e 9BB2     		uxth	r3, r3
 661:.\Generated_Source\PSoC5/UART_TF.c ****     }
 501              		.loc 1 661 0
 502 0020 1846     		mov	r0, r3
 503 0022 98BD     		pop	{r3, r4, r7, pc}
 504              		.cfi_endproc
 505              	.LFE10:
 506              		.size	UART_TF_GetByte, .-UART_TF_GetByte
 507              		.section	.text.UART_TF_GetRxBufferSize,"ax",%progbits
 508              		.align	2
 509              		.global	UART_TF_GetRxBufferSize
 510              		.thumb
 511              		.thumb_func
 512              		.type	UART_TF_GetRxBufferSize, %function
 513              	UART_TF_GetRxBufferSize:
 514              	.LFB11:
 662:.\Generated_Source\PSoC5/UART_TF.c **** 
 663:.\Generated_Source\PSoC5/UART_TF.c **** 
 664:.\Generated_Source\PSoC5/UART_TF.c ****     /*******************************************************************************
 665:.\Generated_Source\PSoC5/UART_TF.c ****     * Function Name: UART_TF_GetRxBufferSize
 666:.\Generated_Source\PSoC5/UART_TF.c ****     ********************************************************************************
 667:.\Generated_Source\PSoC5/UART_TF.c ****     *
 668:.\Generated_Source\PSoC5/UART_TF.c ****     * Summary:
 669:.\Generated_Source\PSoC5/UART_TF.c ****     *  Determine the amount of bytes left in the RX buffer and return the count in
 670:.\Generated_Source\PSoC5/UART_TF.c ****     *  bytes
 671:.\Generated_Source\PSoC5/UART_TF.c ****     *
 672:.\Generated_Source\PSoC5/UART_TF.c ****     * Parameters:
 673:.\Generated_Source\PSoC5/UART_TF.c ****     *  None.
 674:.\Generated_Source\PSoC5/UART_TF.c ****     *
 675:.\Generated_Source\PSoC5/UART_TF.c ****     * Return:
 676:.\Generated_Source\PSoC5/UART_TF.c ****     *  uint8: Integer count of the number of bytes left
 677:.\Generated_Source\PSoC5/UART_TF.c ****     *  in the RX buffer
 678:.\Generated_Source\PSoC5/UART_TF.c ****     *
 679:.\Generated_Source\PSoC5/UART_TF.c ****     * Global Variables:
ARM GAS  C:\Users\SUZUKI~1\AppData\Local\Temp\ccLL7eqE.s 			page 22


 680:.\Generated_Source\PSoC5/UART_TF.c ****     *  UART_TF_rxBufferWrite - used to calculate left bytes.
 681:.\Generated_Source\PSoC5/UART_TF.c ****     *  UART_TF_rxBufferRead - used to calculate left bytes.
 682:.\Generated_Source\PSoC5/UART_TF.c ****     *  UART_TF_rxBufferLoopDetect - checked to decide left bytes amount.
 683:.\Generated_Source\PSoC5/UART_TF.c ****     *
 684:.\Generated_Source\PSoC5/UART_TF.c ****     * Reentrant:
 685:.\Generated_Source\PSoC5/UART_TF.c ****     *  No.
 686:.\Generated_Source\PSoC5/UART_TF.c ****     *
 687:.\Generated_Source\PSoC5/UART_TF.c ****     * Theory:
 688:.\Generated_Source\PSoC5/UART_TF.c ****     *  Allows the user to find out how full the RX Buffer is.
 689:.\Generated_Source\PSoC5/UART_TF.c ****     *
 690:.\Generated_Source\PSoC5/UART_TF.c ****     *******************************************************************************/
 691:.\Generated_Source\PSoC5/UART_TF.c ****     uint8 UART_TF_GetRxBufferSize(void)
 692:.\Generated_Source\PSoC5/UART_TF.c ****                                                             
 693:.\Generated_Source\PSoC5/UART_TF.c ****     {
 515              		.loc 1 693 0
 516              		.cfi_startproc
 517              		@ args = 0, pretend = 0, frame = 8
 518              		@ frame_needed = 1, uses_anonymous_args = 0
 519              		@ link register save eliminated.
 520 0000 80B4     		push	{r7}
 521              	.LCFI29:
 522              		.cfi_def_cfa_offset 4
 523 0002 83B0     		sub	sp, sp, #12
 524              	.LCFI30:
 525              		.cfi_def_cfa_offset 16
 526 0004 00AF     		add	r7, sp, #0
 527              		.cfi_offset 7, -4
 528              	.LCFI31:
 529              		.cfi_def_cfa_register 7
 694:.\Generated_Source\PSoC5/UART_TF.c ****         uint8 size;
 695:.\Generated_Source\PSoC5/UART_TF.c **** 
 696:.\Generated_Source\PSoC5/UART_TF.c ****         #if(UART_TF_RXBUFFERSIZE > UART_TF_FIFO_LENGTH)
 697:.\Generated_Source\PSoC5/UART_TF.c **** 
 698:.\Generated_Source\PSoC5/UART_TF.c ****             /* Disable Rx interrupt. */
 699:.\Generated_Source\PSoC5/UART_TF.c ****             /* Protect variables that could change on interrupt. */
 700:.\Generated_Source\PSoC5/UART_TF.c ****             #if(UART_TF_RX_INTERRUPT_ENABLED)
 701:.\Generated_Source\PSoC5/UART_TF.c ****                 UART_TF_DisableRxInt();
 702:.\Generated_Source\PSoC5/UART_TF.c ****             #endif /* UART_TF_RX_INTERRUPT_ENABLED */
 703:.\Generated_Source\PSoC5/UART_TF.c **** 
 704:.\Generated_Source\PSoC5/UART_TF.c ****             if(UART_TF_rxBufferRead == UART_TF_rxBufferWrite)
 705:.\Generated_Source\PSoC5/UART_TF.c ****             {
 706:.\Generated_Source\PSoC5/UART_TF.c ****                 if(UART_TF_rxBufferLoopDetect > 0u)
 707:.\Generated_Source\PSoC5/UART_TF.c ****                 {
 708:.\Generated_Source\PSoC5/UART_TF.c ****                     size = UART_TF_RXBUFFERSIZE;
 709:.\Generated_Source\PSoC5/UART_TF.c ****                 }
 710:.\Generated_Source\PSoC5/UART_TF.c ****                 else
 711:.\Generated_Source\PSoC5/UART_TF.c ****                 {
 712:.\Generated_Source\PSoC5/UART_TF.c ****                     size = 0u;
 713:.\Generated_Source\PSoC5/UART_TF.c ****                 }
 714:.\Generated_Source\PSoC5/UART_TF.c ****             }
 715:.\Generated_Source\PSoC5/UART_TF.c ****             else if(UART_TF_rxBufferRead < UART_TF_rxBufferWrite)
 716:.\Generated_Source\PSoC5/UART_TF.c ****             {
 717:.\Generated_Source\PSoC5/UART_TF.c ****                 size = (UART_TF_rxBufferWrite - UART_TF_rxBufferRead);
 718:.\Generated_Source\PSoC5/UART_TF.c ****             }
 719:.\Generated_Source\PSoC5/UART_TF.c ****             else
 720:.\Generated_Source\PSoC5/UART_TF.c ****             {
 721:.\Generated_Source\PSoC5/UART_TF.c ****                 size = (UART_TF_RXBUFFERSIZE - UART_TF_rxBufferRead) + UART_TF_rxBufferWrite;
ARM GAS  C:\Users\SUZUKI~1\AppData\Local\Temp\ccLL7eqE.s 			page 23


 722:.\Generated_Source\PSoC5/UART_TF.c ****             }
 723:.\Generated_Source\PSoC5/UART_TF.c **** 
 724:.\Generated_Source\PSoC5/UART_TF.c ****             /* Enable Rx interrupt. */
 725:.\Generated_Source\PSoC5/UART_TF.c ****             #if(UART_TF_RX_INTERRUPT_ENABLED)
 726:.\Generated_Source\PSoC5/UART_TF.c ****                 UART_TF_EnableRxInt();
 727:.\Generated_Source\PSoC5/UART_TF.c ****             #endif /* End UART_TF_RX_INTERRUPT_ENABLED */
 728:.\Generated_Source\PSoC5/UART_TF.c **** 
 729:.\Generated_Source\PSoC5/UART_TF.c ****         #else /* UART_TF_RXBUFFERSIZE > UART_TF_FIFO_LENGTH */
 730:.\Generated_Source\PSoC5/UART_TF.c **** 
 731:.\Generated_Source\PSoC5/UART_TF.c ****             /* We can only know if there is data in the fifo. */
 732:.\Generated_Source\PSoC5/UART_TF.c ****             size = ((UART_TF_RXSTATUS_REG & UART_TF_RX_STS_FIFO_NOTEMPTY) != 0u) ? 1u : 0u;
 530              		.loc 1 732 0
 531 0006 46F26953 		movw	r3, #:lower16:1073767785
 532 000a C4F20003 		movt	r3, #:upper16:1073767785
 533 000e 1B78     		ldrb	r3, [r3, #0]
 534 0010 DBB2     		uxtb	r3, r3
 535 0012 03F02003 		and	r3, r3, #32
 536 0016 002B     		cmp	r3, #0
 537 0018 02D0     		beq	.L26
 538 001a 4FF00103 		mov	r3, #1
 539 001e 01E0     		b	.L27
 540              	.L26:
 541 0020 4FF00003 		mov	r3, #0
 542              	.L27:
 543 0024 FB71     		strb	r3, [r7, #7]
 733:.\Generated_Source\PSoC5/UART_TF.c **** 
 734:.\Generated_Source\PSoC5/UART_TF.c ****         #endif /* End UART_TF_RXBUFFERSIZE > UART_TF_FIFO_LENGTH */
 735:.\Generated_Source\PSoC5/UART_TF.c **** 
 736:.\Generated_Source\PSoC5/UART_TF.c ****         return(size);
 544              		.loc 1 736 0
 545 0026 FB79     		ldrb	r3, [r7, #7]	@ zero_extendqisi2
 737:.\Generated_Source\PSoC5/UART_TF.c ****     }
 546              		.loc 1 737 0
 547 0028 1846     		mov	r0, r3
 548 002a 07F10C07 		add	r7, r7, #12
 549 002e BD46     		mov	sp, r7
 550 0030 80BC     		pop	{r7}
 551 0032 7047     		bx	lr
 552              		.cfi_endproc
 553              	.LFE11:
 554              		.size	UART_TF_GetRxBufferSize, .-UART_TF_GetRxBufferSize
 555              		.section	.text.UART_TF_ClearRxBuffer,"ax",%progbits
 556              		.align	2
 557              		.global	UART_TF_ClearRxBuffer
 558              		.thumb
 559              		.thumb_func
 560              		.type	UART_TF_ClearRxBuffer, %function
 561              	UART_TF_ClearRxBuffer:
 562              	.LFB12:
 738:.\Generated_Source\PSoC5/UART_TF.c **** 
 739:.\Generated_Source\PSoC5/UART_TF.c **** 
 740:.\Generated_Source\PSoC5/UART_TF.c ****     /*******************************************************************************
 741:.\Generated_Source\PSoC5/UART_TF.c ****     * Function Name: UART_TF_ClearRxBuffer
 742:.\Generated_Source\PSoC5/UART_TF.c ****     ********************************************************************************
 743:.\Generated_Source\PSoC5/UART_TF.c ****     *
 744:.\Generated_Source\PSoC5/UART_TF.c ****     * Summary:
 745:.\Generated_Source\PSoC5/UART_TF.c ****     *  Clears the RX RAM buffer by setting the read and write pointers both to zero.
ARM GAS  C:\Users\SUZUKI~1\AppData\Local\Temp\ccLL7eqE.s 			page 24


 746:.\Generated_Source\PSoC5/UART_TF.c ****     *  Clears hardware RX FIFO.
 747:.\Generated_Source\PSoC5/UART_TF.c ****     *
 748:.\Generated_Source\PSoC5/UART_TF.c ****     * Parameters:
 749:.\Generated_Source\PSoC5/UART_TF.c ****     *  None.
 750:.\Generated_Source\PSoC5/UART_TF.c ****     *
 751:.\Generated_Source\PSoC5/UART_TF.c ****     * Return:
 752:.\Generated_Source\PSoC5/UART_TF.c ****     *  None.
 753:.\Generated_Source\PSoC5/UART_TF.c ****     *
 754:.\Generated_Source\PSoC5/UART_TF.c ****     * Global Variables:
 755:.\Generated_Source\PSoC5/UART_TF.c ****     *  UART_TF_rxBufferWrite - cleared to zero.
 756:.\Generated_Source\PSoC5/UART_TF.c ****     *  UART_TF_rxBufferRead - cleared to zero.
 757:.\Generated_Source\PSoC5/UART_TF.c ****     *  UART_TF_rxBufferLoopDetect - cleared to zero.
 758:.\Generated_Source\PSoC5/UART_TF.c ****     *  UART_TF_rxBufferOverflow - cleared to zero.
 759:.\Generated_Source\PSoC5/UART_TF.c ****     *
 760:.\Generated_Source\PSoC5/UART_TF.c ****     * Reentrant:
 761:.\Generated_Source\PSoC5/UART_TF.c ****     *  No.
 762:.\Generated_Source\PSoC5/UART_TF.c ****     *
 763:.\Generated_Source\PSoC5/UART_TF.c ****     * Theory:
 764:.\Generated_Source\PSoC5/UART_TF.c ****     *  Setting the pointers to zero makes the system believe there is no data to
 765:.\Generated_Source\PSoC5/UART_TF.c ****     *  read and writing will resume at address 0 overwriting any data that may
 766:.\Generated_Source\PSoC5/UART_TF.c ****     *  have remained in the RAM.
 767:.\Generated_Source\PSoC5/UART_TF.c ****     *
 768:.\Generated_Source\PSoC5/UART_TF.c ****     * Side Effects:
 769:.\Generated_Source\PSoC5/UART_TF.c ****     *  Any received data not read from the RAM or FIFO buffer will be lost.
 770:.\Generated_Source\PSoC5/UART_TF.c ****     *******************************************************************************/
 771:.\Generated_Source\PSoC5/UART_TF.c ****     void UART_TF_ClearRxBuffer(void) 
 772:.\Generated_Source\PSoC5/UART_TF.c ****     {
 563              		.loc 1 772 0
 564              		.cfi_startproc
 565              		@ args = 0, pretend = 0, frame = 8
 566              		@ frame_needed = 1, uses_anonymous_args = 0
 567 0000 80B5     		push	{r7, lr}
 568              	.LCFI32:
 569              		.cfi_def_cfa_offset 8
 570 0002 82B0     		sub	sp, sp, #8
 571              	.LCFI33:
 572              		.cfi_def_cfa_offset 16
 573 0004 00AF     		add	r7, sp, #0
 574              		.cfi_offset 14, -4
 575              		.cfi_offset 7, -8
 576              	.LCFI34:
 577              		.cfi_def_cfa_register 7
 773:.\Generated_Source\PSoC5/UART_TF.c ****         uint8 enableInterrupts;
 774:.\Generated_Source\PSoC5/UART_TF.c **** 
 775:.\Generated_Source\PSoC5/UART_TF.c ****         /* clear the HW FIFO */
 776:.\Generated_Source\PSoC5/UART_TF.c ****         /* Enter critical section */
 777:.\Generated_Source\PSoC5/UART_TF.c ****         enableInterrupts = CyEnterCriticalSection();
 578              		.loc 1 777 0
 579 0006 FFF7FEFF 		bl	CyEnterCriticalSection
 580 000a 0346     		mov	r3, r0
 581 000c FB71     		strb	r3, [r7, #7]
 778:.\Generated_Source\PSoC5/UART_TF.c ****         UART_TF_RXDATA_AUX_CTL_REG |=  UART_TF_RX_FIFO_CLR;
 582              		.loc 1 778 0
 583 000e 46F29953 		movw	r3, #:lower16:1073767833
 584 0012 C4F20003 		movt	r3, #:upper16:1073767833
 585 0016 46F29952 		movw	r2, #:lower16:1073767833
 586 001a C4F20002 		movt	r2, #:upper16:1073767833
ARM GAS  C:\Users\SUZUKI~1\AppData\Local\Temp\ccLL7eqE.s 			page 25


 587 001e 1278     		ldrb	r2, [r2, #0]
 588 0020 D2B2     		uxtb	r2, r2
 589 0022 42F00102 		orr	r2, r2, #1
 590 0026 D2B2     		uxtb	r2, r2
 591 0028 1A70     		strb	r2, [r3, #0]
 779:.\Generated_Source\PSoC5/UART_TF.c ****         UART_TF_RXDATA_AUX_CTL_REG &= (uint8)~UART_TF_RX_FIFO_CLR;
 592              		.loc 1 779 0
 593 002a 46F29953 		movw	r3, #:lower16:1073767833
 594 002e C4F20003 		movt	r3, #:upper16:1073767833
 595 0032 46F29952 		movw	r2, #:lower16:1073767833
 596 0036 C4F20002 		movt	r2, #:upper16:1073767833
 597 003a 1278     		ldrb	r2, [r2, #0]
 598 003c D2B2     		uxtb	r2, r2
 599 003e 02F0FE02 		and	r2, r2, #254
 600 0042 1A70     		strb	r2, [r3, #0]
 780:.\Generated_Source\PSoC5/UART_TF.c ****         /* Exit critical section */
 781:.\Generated_Source\PSoC5/UART_TF.c ****         CyExitCriticalSection(enableInterrupts);
 601              		.loc 1 781 0
 602 0044 FB79     		ldrb	r3, [r7, #7]	@ zero_extendqisi2
 603 0046 1846     		mov	r0, r3
 604 0048 FFF7FEFF 		bl	CyExitCriticalSection
 782:.\Generated_Source\PSoC5/UART_TF.c **** 
 783:.\Generated_Source\PSoC5/UART_TF.c ****         #if(UART_TF_RXBUFFERSIZE > UART_TF_FIFO_LENGTH)
 784:.\Generated_Source\PSoC5/UART_TF.c ****             /* Disable Rx interrupt. */
 785:.\Generated_Source\PSoC5/UART_TF.c ****             /* Protect variables that could change on interrupt. */
 786:.\Generated_Source\PSoC5/UART_TF.c ****             #if(UART_TF_RX_INTERRUPT_ENABLED)
 787:.\Generated_Source\PSoC5/UART_TF.c ****                 UART_TF_DisableRxInt();
 788:.\Generated_Source\PSoC5/UART_TF.c ****             #endif /* End UART_TF_RX_INTERRUPT_ENABLED */
 789:.\Generated_Source\PSoC5/UART_TF.c **** 
 790:.\Generated_Source\PSoC5/UART_TF.c ****             UART_TF_rxBufferRead = 0u;
 791:.\Generated_Source\PSoC5/UART_TF.c ****             UART_TF_rxBufferWrite = 0u;
 792:.\Generated_Source\PSoC5/UART_TF.c ****             UART_TF_rxBufferLoopDetect = 0u;
 793:.\Generated_Source\PSoC5/UART_TF.c ****             UART_TF_rxBufferOverflow = 0u;
 794:.\Generated_Source\PSoC5/UART_TF.c **** 
 795:.\Generated_Source\PSoC5/UART_TF.c ****             /* Enable Rx interrupt. */
 796:.\Generated_Source\PSoC5/UART_TF.c ****             #if(UART_TF_RX_INTERRUPT_ENABLED)
 797:.\Generated_Source\PSoC5/UART_TF.c ****                 UART_TF_EnableRxInt();
 798:.\Generated_Source\PSoC5/UART_TF.c ****             #endif /* End UART_TF_RX_INTERRUPT_ENABLED */
 799:.\Generated_Source\PSoC5/UART_TF.c ****         #endif /* End UART_TF_RXBUFFERSIZE > UART_TF_FIFO_LENGTH */
 800:.\Generated_Source\PSoC5/UART_TF.c **** 
 801:.\Generated_Source\PSoC5/UART_TF.c ****     }
 605              		.loc 1 801 0
 606 004c 07F10807 		add	r7, r7, #8
 607 0050 BD46     		mov	sp, r7
 608 0052 80BD     		pop	{r7, pc}
 609              		.cfi_endproc
 610              	.LFE12:
 611              		.size	UART_TF_ClearRxBuffer, .-UART_TF_ClearRxBuffer
 612              		.section	.text.UART_TF_SetRxAddressMode,"ax",%progbits
 613              		.align	2
 614              		.global	UART_TF_SetRxAddressMode
 615              		.thumb
 616              		.thumb_func
 617              		.type	UART_TF_SetRxAddressMode, %function
 618              	UART_TF_SetRxAddressMode:
 619              	.LFB13:
 802:.\Generated_Source\PSoC5/UART_TF.c **** 
ARM GAS  C:\Users\SUZUKI~1\AppData\Local\Temp\ccLL7eqE.s 			page 26


 803:.\Generated_Source\PSoC5/UART_TF.c **** 
 804:.\Generated_Source\PSoC5/UART_TF.c ****     /*******************************************************************************
 805:.\Generated_Source\PSoC5/UART_TF.c ****     * Function Name: UART_TF_SetRxAddressMode
 806:.\Generated_Source\PSoC5/UART_TF.c ****     ********************************************************************************
 807:.\Generated_Source\PSoC5/UART_TF.c ****     *
 808:.\Generated_Source\PSoC5/UART_TF.c ****     * Summary:
 809:.\Generated_Source\PSoC5/UART_TF.c ****     *  Set the receive addressing mode
 810:.\Generated_Source\PSoC5/UART_TF.c ****     *
 811:.\Generated_Source\PSoC5/UART_TF.c ****     * Parameters:
 812:.\Generated_Source\PSoC5/UART_TF.c ****     *  addressMode: Enumerated value indicating the mode of RX addressing
 813:.\Generated_Source\PSoC5/UART_TF.c ****     *  UART_TF__B_UART__AM_SW_BYTE_BYTE -  Software Byte-by-Byte address
 814:.\Generated_Source\PSoC5/UART_TF.c ****     *                                               detection
 815:.\Generated_Source\PSoC5/UART_TF.c ****     *  UART_TF__B_UART__AM_SW_DETECT_TO_BUFFER - Software Detect to Buffer
 816:.\Generated_Source\PSoC5/UART_TF.c ****     *                                               address detection
 817:.\Generated_Source\PSoC5/UART_TF.c ****     *  UART_TF__B_UART__AM_HW_BYTE_BY_BYTE - Hardware Byte-by-Byte address
 818:.\Generated_Source\PSoC5/UART_TF.c ****     *                                               detection
 819:.\Generated_Source\PSoC5/UART_TF.c ****     *  UART_TF__B_UART__AM_HW_DETECT_TO_BUFFER - Hardware Detect to Buffer
 820:.\Generated_Source\PSoC5/UART_TF.c ****     *                                               address detection
 821:.\Generated_Source\PSoC5/UART_TF.c ****     *  UART_TF__B_UART__AM_NONE - No address detection
 822:.\Generated_Source\PSoC5/UART_TF.c ****     *
 823:.\Generated_Source\PSoC5/UART_TF.c ****     * Return:
 824:.\Generated_Source\PSoC5/UART_TF.c ****     *  None.
 825:.\Generated_Source\PSoC5/UART_TF.c ****     *
 826:.\Generated_Source\PSoC5/UART_TF.c ****     * Global Variables:
 827:.\Generated_Source\PSoC5/UART_TF.c ****     *  UART_TF_rxAddressMode - the parameter stored in this variable for
 828:.\Generated_Source\PSoC5/UART_TF.c ****     *   the farther usage in RX ISR.
 829:.\Generated_Source\PSoC5/UART_TF.c ****     *  UART_TF_rxAddressDetected - set to initial state (0).
 830:.\Generated_Source\PSoC5/UART_TF.c ****     *
 831:.\Generated_Source\PSoC5/UART_TF.c ****     *******************************************************************************/
 832:.\Generated_Source\PSoC5/UART_TF.c ****     void UART_TF_SetRxAddressMode(uint8 addressMode)
 833:.\Generated_Source\PSoC5/UART_TF.c ****                                                         
 834:.\Generated_Source\PSoC5/UART_TF.c ****     {
 620              		.loc 1 834 0
 621              		.cfi_startproc
 622              		@ args = 0, pretend = 0, frame = 8
 623              		@ frame_needed = 1, uses_anonymous_args = 0
 624              		@ link register save eliminated.
 625 0000 80B4     		push	{r7}
 626              	.LCFI35:
 627              		.cfi_def_cfa_offset 4
 628 0002 83B0     		sub	sp, sp, #12
 629              	.LCFI36:
 630              		.cfi_def_cfa_offset 16
 631 0004 00AF     		add	r7, sp, #0
 632              		.cfi_offset 7, -4
 633              	.LCFI37:
 634              		.cfi_def_cfa_register 7
 635 0006 0346     		mov	r3, r0
 636 0008 FB71     		strb	r3, [r7, #7]
 835:.\Generated_Source\PSoC5/UART_TF.c ****         #if(UART_TF_RXHW_ADDRESS_ENABLED)
 836:.\Generated_Source\PSoC5/UART_TF.c ****             #if(UART_TF_CONTROL_REG_REMOVED)
 837:.\Generated_Source\PSoC5/UART_TF.c ****                 if(addressMode != 0u) { }     /* release compiler warning */
 838:.\Generated_Source\PSoC5/UART_TF.c ****             #else /* UART_TF_CONTROL_REG_REMOVED */
 839:.\Generated_Source\PSoC5/UART_TF.c ****                 uint8 tmpCtrl;
 840:.\Generated_Source\PSoC5/UART_TF.c ****                 tmpCtrl = UART_TF_CONTROL_REG & (uint8)~UART_TF_CTRL_RXADDR_MODE_MASK;
 841:.\Generated_Source\PSoC5/UART_TF.c ****                 tmpCtrl |= (uint8)(addressMode << UART_TF_CTRL_RXADDR_MODE0_SHIFT);
 842:.\Generated_Source\PSoC5/UART_TF.c ****                 UART_TF_CONTROL_REG = tmpCtrl;
ARM GAS  C:\Users\SUZUKI~1\AppData\Local\Temp\ccLL7eqE.s 			page 27


 843:.\Generated_Source\PSoC5/UART_TF.c ****                 #if(UART_TF_RX_INTERRUPT_ENABLED && \
 844:.\Generated_Source\PSoC5/UART_TF.c ****                    (UART_TF_RXBUFFERSIZE > UART_TF_FIFO_LENGTH) )
 845:.\Generated_Source\PSoC5/UART_TF.c ****                     UART_TF_rxAddressMode = addressMode;
 846:.\Generated_Source\PSoC5/UART_TF.c ****                     UART_TF_rxAddressDetected = 0u;
 847:.\Generated_Source\PSoC5/UART_TF.c ****                 #endif /* End UART_TF_RXBUFFERSIZE > UART_TF_FIFO_LENGTH*/
 848:.\Generated_Source\PSoC5/UART_TF.c ****             #endif /* End UART_TF_CONTROL_REG_REMOVED */
 849:.\Generated_Source\PSoC5/UART_TF.c ****         #else /* UART_TF_RXHW_ADDRESS_ENABLED */
 850:.\Generated_Source\PSoC5/UART_TF.c ****             if(addressMode != 0u) { }     /* release compiler warning */
 851:.\Generated_Source\PSoC5/UART_TF.c ****         #endif /* End UART_TF_RXHW_ADDRESS_ENABLED */
 852:.\Generated_Source\PSoC5/UART_TF.c ****     }
 637              		.loc 1 852 0
 638 000a 07F10C07 		add	r7, r7, #12
 639 000e BD46     		mov	sp, r7
 640 0010 80BC     		pop	{r7}
 641 0012 7047     		bx	lr
 642              		.cfi_endproc
 643              	.LFE13:
 644              		.size	UART_TF_SetRxAddressMode, .-UART_TF_SetRxAddressMode
 645              		.section	.text.UART_TF_SetRxAddress1,"ax",%progbits
 646              		.align	2
 647              		.global	UART_TF_SetRxAddress1
 648              		.thumb
 649              		.thumb_func
 650              		.type	UART_TF_SetRxAddress1, %function
 651              	UART_TF_SetRxAddress1:
 652              	.LFB14:
 853:.\Generated_Source\PSoC5/UART_TF.c **** 
 854:.\Generated_Source\PSoC5/UART_TF.c **** 
 855:.\Generated_Source\PSoC5/UART_TF.c ****     /*******************************************************************************
 856:.\Generated_Source\PSoC5/UART_TF.c ****     * Function Name: UART_TF_SetRxAddress1
 857:.\Generated_Source\PSoC5/UART_TF.c ****     ********************************************************************************
 858:.\Generated_Source\PSoC5/UART_TF.c ****     *
 859:.\Generated_Source\PSoC5/UART_TF.c ****     * Summary:
 860:.\Generated_Source\PSoC5/UART_TF.c ****     *  Set the first hardware address compare value
 861:.\Generated_Source\PSoC5/UART_TF.c ****     *
 862:.\Generated_Source\PSoC5/UART_TF.c ****     * Parameters:
 863:.\Generated_Source\PSoC5/UART_TF.c ****     *  address
 864:.\Generated_Source\PSoC5/UART_TF.c ****     *
 865:.\Generated_Source\PSoC5/UART_TF.c ****     * Return:
 866:.\Generated_Source\PSoC5/UART_TF.c ****     *  None.
 867:.\Generated_Source\PSoC5/UART_TF.c ****     *
 868:.\Generated_Source\PSoC5/UART_TF.c ****     *******************************************************************************/
 869:.\Generated_Source\PSoC5/UART_TF.c ****     void UART_TF_SetRxAddress1(uint8 address) 
 870:.\Generated_Source\PSoC5/UART_TF.c **** 
 871:.\Generated_Source\PSoC5/UART_TF.c ****     {
 653              		.loc 1 871 0
 654              		.cfi_startproc
 655              		@ args = 0, pretend = 0, frame = 8
 656              		@ frame_needed = 1, uses_anonymous_args = 0
 657              		@ link register save eliminated.
 658 0000 80B4     		push	{r7}
 659              	.LCFI38:
 660              		.cfi_def_cfa_offset 4
 661 0002 83B0     		sub	sp, sp, #12
 662              	.LCFI39:
 663              		.cfi_def_cfa_offset 16
 664 0004 00AF     		add	r7, sp, #0
ARM GAS  C:\Users\SUZUKI~1\AppData\Local\Temp\ccLL7eqE.s 			page 28


 665              		.cfi_offset 7, -4
 666              	.LCFI40:
 667              		.cfi_def_cfa_register 7
 668 0006 0346     		mov	r3, r0
 669 0008 FB71     		strb	r3, [r7, #7]
 872:.\Generated_Source\PSoC5/UART_TF.c ****         UART_TF_RXADDRESS1_REG = address;
 670              		.loc 1 872 0
 671 000a 46F22953 		movw	r3, #:lower16:1073767721
 672 000e C4F20003 		movt	r3, #:upper16:1073767721
 673 0012 FA79     		ldrb	r2, [r7, #7]
 674 0014 1A70     		strb	r2, [r3, #0]
 873:.\Generated_Source\PSoC5/UART_TF.c ****     }
 675              		.loc 1 873 0
 676 0016 07F10C07 		add	r7, r7, #12
 677 001a BD46     		mov	sp, r7
 678 001c 80BC     		pop	{r7}
 679 001e 7047     		bx	lr
 680              		.cfi_endproc
 681              	.LFE14:
 682              		.size	UART_TF_SetRxAddress1, .-UART_TF_SetRxAddress1
 683              		.section	.text.UART_TF_SetRxAddress2,"ax",%progbits
 684              		.align	2
 685              		.global	UART_TF_SetRxAddress2
 686              		.thumb
 687              		.thumb_func
 688              		.type	UART_TF_SetRxAddress2, %function
 689              	UART_TF_SetRxAddress2:
 690              	.LFB15:
 874:.\Generated_Source\PSoC5/UART_TF.c **** 
 875:.\Generated_Source\PSoC5/UART_TF.c **** 
 876:.\Generated_Source\PSoC5/UART_TF.c ****     /*******************************************************************************
 877:.\Generated_Source\PSoC5/UART_TF.c ****     * Function Name: UART_TF_SetRxAddress2
 878:.\Generated_Source\PSoC5/UART_TF.c ****     ********************************************************************************
 879:.\Generated_Source\PSoC5/UART_TF.c ****     *
 880:.\Generated_Source\PSoC5/UART_TF.c ****     * Summary:
 881:.\Generated_Source\PSoC5/UART_TF.c ****     *  Set the second hardware address compare value
 882:.\Generated_Source\PSoC5/UART_TF.c ****     *
 883:.\Generated_Source\PSoC5/UART_TF.c ****     * Parameters:
 884:.\Generated_Source\PSoC5/UART_TF.c ****     *  address
 885:.\Generated_Source\PSoC5/UART_TF.c ****     *
 886:.\Generated_Source\PSoC5/UART_TF.c ****     * Return:
 887:.\Generated_Source\PSoC5/UART_TF.c ****     *  None.
 888:.\Generated_Source\PSoC5/UART_TF.c ****     *
 889:.\Generated_Source\PSoC5/UART_TF.c ****     *******************************************************************************/
 890:.\Generated_Source\PSoC5/UART_TF.c ****     void UART_TF_SetRxAddress2(uint8 address) 
 891:.\Generated_Source\PSoC5/UART_TF.c ****     {
 691              		.loc 1 891 0
 692              		.cfi_startproc
 693              		@ args = 0, pretend = 0, frame = 8
 694              		@ frame_needed = 1, uses_anonymous_args = 0
 695              		@ link register save eliminated.
 696 0000 80B4     		push	{r7}
 697              	.LCFI41:
 698              		.cfi_def_cfa_offset 4
 699 0002 83B0     		sub	sp, sp, #12
 700              	.LCFI42:
 701              		.cfi_def_cfa_offset 16
ARM GAS  C:\Users\SUZUKI~1\AppData\Local\Temp\ccLL7eqE.s 			page 29


 702 0004 00AF     		add	r7, sp, #0
 703              		.cfi_offset 7, -4
 704              	.LCFI43:
 705              		.cfi_def_cfa_register 7
 706 0006 0346     		mov	r3, r0
 707 0008 FB71     		strb	r3, [r7, #7]
 892:.\Generated_Source\PSoC5/UART_TF.c ****         UART_TF_RXADDRESS2_REG = address;
 708              		.loc 1 892 0
 709 000a 46F23953 		movw	r3, #:lower16:1073767737
 710 000e C4F20003 		movt	r3, #:upper16:1073767737
 711 0012 FA79     		ldrb	r2, [r7, #7]
 712 0014 1A70     		strb	r2, [r3, #0]
 893:.\Generated_Source\PSoC5/UART_TF.c ****     }
 713              		.loc 1 893 0
 714 0016 07F10C07 		add	r7, r7, #12
 715 001a BD46     		mov	sp, r7
 716 001c 80BC     		pop	{r7}
 717 001e 7047     		bx	lr
 718              		.cfi_endproc
 719              	.LFE15:
 720              		.size	UART_TF_SetRxAddress2, .-UART_TF_SetRxAddress2
 721              		.text
 722              	.Letext0:
