ARM GAS  C:\Users\SUZUKI~1\AppData\Local\Temp\ccNeYqdh.s 			page 1


   1              		.syntax unified
   2              		.cpu cortex-m3
   3              		.fpu softvfp
   4              		.eabi_attribute 20, 1
   5              		.eabi_attribute 21, 1
   6              		.eabi_attribute 23, 3
   7              		.eabi_attribute 24, 1
   8              		.eabi_attribute 25, 1
   9              		.eabi_attribute 26, 1
  10              		.eabi_attribute 30, 6
  11              		.eabi_attribute 18, 4
  12              		.thumb
  13              		.file	"UART_TF_PM.c"
  14              		.section	.debug_abbrev,"",%progbits
  15              	.Ldebug_abbrev0:
  16              		.section	.debug_info,"",%progbits
  17              	.Ldebug_info0:
  18              		.section	.debug_line,"",%progbits
  19              	.Ldebug_line0:
  20 0000 CE000000 		.text
  20      02007000 
  20      00000201 
  20      FB0E0D00 
  20      01010101 
  21              	.Ltext0:
  22              		.cfi_sections	.debug_frame
  23              		.bss
  24              		.align	2
  25              	UART_TF_backup:
  26 0000 000000   		.space	3
  27 0003 00       		.section	.text.UART_TF_SaveConfig,"ax",%progbits
  28              		.align	2
  29              		.global	UART_TF_SaveConfig
  30              		.thumb
  31              		.thumb_func
  32              		.type	UART_TF_SaveConfig, %function
  33              	UART_TF_SaveConfig:
  34              	.LFB0:
  35              		.file 1 ".\\Generated_Source\\PSoC5\\UART_TF_PM.c"
   1:.\Generated_Source\PSoC5/UART_TF_PM.c **** /*******************************************************************************
   2:.\Generated_Source\PSoC5/UART_TF_PM.c **** * File Name: UART_TF_PM.c
   3:.\Generated_Source\PSoC5/UART_TF_PM.c **** * Version 2.30
   4:.\Generated_Source\PSoC5/UART_TF_PM.c **** *
   5:.\Generated_Source\PSoC5/UART_TF_PM.c **** * Description:
   6:.\Generated_Source\PSoC5/UART_TF_PM.c **** *  This file provides Sleep/WakeUp APIs functionality.
   7:.\Generated_Source\PSoC5/UART_TF_PM.c **** *
   8:.\Generated_Source\PSoC5/UART_TF_PM.c **** * Note:
   9:.\Generated_Source\PSoC5/UART_TF_PM.c **** *
  10:.\Generated_Source\PSoC5/UART_TF_PM.c **** ********************************************************************************
  11:.\Generated_Source\PSoC5/UART_TF_PM.c **** * Copyright 2008-2012, Cypress Semiconductor Corporation.  All rights reserved.
  12:.\Generated_Source\PSoC5/UART_TF_PM.c **** * You may use this file only in accordance with the license, terms, conditions,
  13:.\Generated_Source\PSoC5/UART_TF_PM.c **** * disclaimers, and limitations in the end user license agreement accompanying
  14:.\Generated_Source\PSoC5/UART_TF_PM.c **** * the software package with which this file was provided.
  15:.\Generated_Source\PSoC5/UART_TF_PM.c **** *******************************************************************************/
  16:.\Generated_Source\PSoC5/UART_TF_PM.c **** 
  17:.\Generated_Source\PSoC5/UART_TF_PM.c **** #include "UART_TF.h"
  18:.\Generated_Source\PSoC5/UART_TF_PM.c **** 
ARM GAS  C:\Users\SUZUKI~1\AppData\Local\Temp\ccNeYqdh.s 			page 2


  19:.\Generated_Source\PSoC5/UART_TF_PM.c **** 
  20:.\Generated_Source\PSoC5/UART_TF_PM.c **** /***************************************
  21:.\Generated_Source\PSoC5/UART_TF_PM.c **** * Local data allocation
  22:.\Generated_Source\PSoC5/UART_TF_PM.c **** ***************************************/
  23:.\Generated_Source\PSoC5/UART_TF_PM.c **** 
  24:.\Generated_Source\PSoC5/UART_TF_PM.c **** static UART_TF_BACKUP_STRUCT  UART_TF_backup =
  25:.\Generated_Source\PSoC5/UART_TF_PM.c **** {
  26:.\Generated_Source\PSoC5/UART_TF_PM.c ****     /* enableState - disabled */
  27:.\Generated_Source\PSoC5/UART_TF_PM.c ****     0u,
  28:.\Generated_Source\PSoC5/UART_TF_PM.c **** };
  29:.\Generated_Source\PSoC5/UART_TF_PM.c **** 
  30:.\Generated_Source\PSoC5/UART_TF_PM.c **** 
  31:.\Generated_Source\PSoC5/UART_TF_PM.c **** 
  32:.\Generated_Source\PSoC5/UART_TF_PM.c **** /*******************************************************************************
  33:.\Generated_Source\PSoC5/UART_TF_PM.c **** * Function Name: UART_TF_SaveConfig
  34:.\Generated_Source\PSoC5/UART_TF_PM.c **** ********************************************************************************
  35:.\Generated_Source\PSoC5/UART_TF_PM.c **** *
  36:.\Generated_Source\PSoC5/UART_TF_PM.c **** * Summary:
  37:.\Generated_Source\PSoC5/UART_TF_PM.c **** *  Saves the current user configuration.
  38:.\Generated_Source\PSoC5/UART_TF_PM.c **** *
  39:.\Generated_Source\PSoC5/UART_TF_PM.c **** * Parameters:
  40:.\Generated_Source\PSoC5/UART_TF_PM.c **** *  None.
  41:.\Generated_Source\PSoC5/UART_TF_PM.c **** *
  42:.\Generated_Source\PSoC5/UART_TF_PM.c **** * Return:
  43:.\Generated_Source\PSoC5/UART_TF_PM.c **** *  None.
  44:.\Generated_Source\PSoC5/UART_TF_PM.c **** *
  45:.\Generated_Source\PSoC5/UART_TF_PM.c **** * Global Variables:
  46:.\Generated_Source\PSoC5/UART_TF_PM.c **** *  UART_TF_backup - modified when non-retention registers are saved.
  47:.\Generated_Source\PSoC5/UART_TF_PM.c **** *
  48:.\Generated_Source\PSoC5/UART_TF_PM.c **** * Reentrant:
  49:.\Generated_Source\PSoC5/UART_TF_PM.c **** *  No.
  50:.\Generated_Source\PSoC5/UART_TF_PM.c **** *
  51:.\Generated_Source\PSoC5/UART_TF_PM.c **** *******************************************************************************/
  52:.\Generated_Source\PSoC5/UART_TF_PM.c **** void UART_TF_SaveConfig(void)
  53:.\Generated_Source\PSoC5/UART_TF_PM.c **** {
  36              		.loc 1 53 0
  37              		.cfi_startproc
  38              		@ args = 0, pretend = 0, frame = 0
  39              		@ frame_needed = 1, uses_anonymous_args = 0
  40              		@ link register save eliminated.
  41 0000 80B4     		push	{r7}
  42              	.LCFI0:
  43              		.cfi_def_cfa_offset 4
  44 0002 00AF     		add	r7, sp, #0
  45              		.cfi_offset 7, -4
  46              	.LCFI1:
  47              		.cfi_def_cfa_register 7
  54:.\Generated_Source\PSoC5/UART_TF_PM.c ****     #if (CY_UDB_V0)
  55:.\Generated_Source\PSoC5/UART_TF_PM.c **** 
  56:.\Generated_Source\PSoC5/UART_TF_PM.c ****         #if(UART_TF_CONTROL_REG_REMOVED == 0u)
  57:.\Generated_Source\PSoC5/UART_TF_PM.c ****             UART_TF_backup.cr = UART_TF_CONTROL_REG;
  58:.\Generated_Source\PSoC5/UART_TF_PM.c ****         #endif /* End UART_TF_CONTROL_REG_REMOVED */
  59:.\Generated_Source\PSoC5/UART_TF_PM.c **** 
  60:.\Generated_Source\PSoC5/UART_TF_PM.c ****         #if( (UART_TF_RX_ENABLED) || (UART_TF_HD_ENABLED) )
  61:.\Generated_Source\PSoC5/UART_TF_PM.c ****             UART_TF_backup.rx_period = UART_TF_RXBITCTR_PERIOD_REG;
  48              		.loc 1 61 0
  49 0004 46F28943 		movw	r3, #:lower16:1073767561
ARM GAS  C:\Users\SUZUKI~1\AppData\Local\Temp\ccNeYqdh.s 			page 3


  50 0008 C4F20003 		movt	r3, #:upper16:1073767561
  51 000c 1B78     		ldrb	r3, [r3, #0]
  52 000e DAB2     		uxtb	r2, r3
  53 0010 40F20003 		movw	r3, #:lower16:UART_TF_backup
  54 0014 C0F20003 		movt	r3, #:upper16:UART_TF_backup
  55 0018 5A70     		strb	r2, [r3, #1]
  62:.\Generated_Source\PSoC5/UART_TF_PM.c ****             UART_TF_backup.rx_mask = UART_TF_RXSTATUS_MASK_REG;
  56              		.loc 1 62 0
  57 001a 46F28953 		movw	r3, #:lower16:1073767817
  58 001e C4F20003 		movt	r3, #:upper16:1073767817
  59 0022 1B78     		ldrb	r3, [r3, #0]
  60 0024 DAB2     		uxtb	r2, r3
  61 0026 40F20003 		movw	r3, #:lower16:UART_TF_backup
  62 002a C0F20003 		movt	r3, #:upper16:UART_TF_backup
  63 002e 9A70     		strb	r2, [r3, #2]
  63:.\Generated_Source\PSoC5/UART_TF_PM.c ****             #if (UART_TF_RXHW_ADDRESS_ENABLED)
  64:.\Generated_Source\PSoC5/UART_TF_PM.c ****                 UART_TF_backup.rx_addr1 = UART_TF_RXADDRESS1_REG;
  65:.\Generated_Source\PSoC5/UART_TF_PM.c ****                 UART_TF_backup.rx_addr2 = UART_TF_RXADDRESS2_REG;
  66:.\Generated_Source\PSoC5/UART_TF_PM.c ****             #endif /* End UART_TF_RXHW_ADDRESS_ENABLED */
  67:.\Generated_Source\PSoC5/UART_TF_PM.c ****         #endif /* End UART_TF_RX_ENABLED | UART_TF_HD_ENABLED*/
  68:.\Generated_Source\PSoC5/UART_TF_PM.c **** 
  69:.\Generated_Source\PSoC5/UART_TF_PM.c ****         #if(UART_TF_TX_ENABLED)
  70:.\Generated_Source\PSoC5/UART_TF_PM.c ****             #if(UART_TF_TXCLKGEN_DP)
  71:.\Generated_Source\PSoC5/UART_TF_PM.c ****                 UART_TF_backup.tx_clk_ctr = UART_TF_TXBITCLKGEN_CTR_REG;
  72:.\Generated_Source\PSoC5/UART_TF_PM.c ****                 UART_TF_backup.tx_clk_compl = UART_TF_TXBITCLKTX_COMPLETE_REG;
  73:.\Generated_Source\PSoC5/UART_TF_PM.c ****             #else
  74:.\Generated_Source\PSoC5/UART_TF_PM.c ****                 UART_TF_backup.tx_period = UART_TF_TXBITCTR_PERIOD_REG;
  75:.\Generated_Source\PSoC5/UART_TF_PM.c ****             #endif /*End UART_TF_TXCLKGEN_DP */
  76:.\Generated_Source\PSoC5/UART_TF_PM.c ****             UART_TF_backup.tx_mask = UART_TF_TXSTATUS_MASK_REG;
  77:.\Generated_Source\PSoC5/UART_TF_PM.c ****         #endif /*End UART_TF_TX_ENABLED */
  78:.\Generated_Source\PSoC5/UART_TF_PM.c **** 
  79:.\Generated_Source\PSoC5/UART_TF_PM.c **** 
  80:.\Generated_Source\PSoC5/UART_TF_PM.c ****     #else /* CY_UDB_V1 */
  81:.\Generated_Source\PSoC5/UART_TF_PM.c **** 
  82:.\Generated_Source\PSoC5/UART_TF_PM.c ****         #if(UART_TF_CONTROL_REG_REMOVED == 0u)
  83:.\Generated_Source\PSoC5/UART_TF_PM.c ****             UART_TF_backup.cr = UART_TF_CONTROL_REG;
  84:.\Generated_Source\PSoC5/UART_TF_PM.c ****         #endif /* End UART_TF_CONTROL_REG_REMOVED */
  85:.\Generated_Source\PSoC5/UART_TF_PM.c **** 
  86:.\Generated_Source\PSoC5/UART_TF_PM.c ****     #endif  /* End CY_UDB_V0 */
  87:.\Generated_Source\PSoC5/UART_TF_PM.c **** }
  64              		.loc 1 87 0
  65 0030 BD46     		mov	sp, r7
  66 0032 80BC     		pop	{r7}
  67 0034 7047     		bx	lr
  68              		.cfi_endproc
  69              	.LFE0:
  70              		.size	UART_TF_SaveConfig, .-UART_TF_SaveConfig
  71 0036 00BF     		.section	.text.UART_TF_RestoreConfig,"ax",%progbits
  72              		.align	2
  73              		.global	UART_TF_RestoreConfig
  74              		.thumb
  75              		.thumb_func
  76              		.type	UART_TF_RestoreConfig, %function
  77              	UART_TF_RestoreConfig:
  78              	.LFB1:
  88:.\Generated_Source\PSoC5/UART_TF_PM.c **** 
  89:.\Generated_Source\PSoC5/UART_TF_PM.c **** 
ARM GAS  C:\Users\SUZUKI~1\AppData\Local\Temp\ccNeYqdh.s 			page 4


  90:.\Generated_Source\PSoC5/UART_TF_PM.c **** /*******************************************************************************
  91:.\Generated_Source\PSoC5/UART_TF_PM.c **** * Function Name: UART_TF_RestoreConfig
  92:.\Generated_Source\PSoC5/UART_TF_PM.c **** ********************************************************************************
  93:.\Generated_Source\PSoC5/UART_TF_PM.c **** *
  94:.\Generated_Source\PSoC5/UART_TF_PM.c **** * Summary:
  95:.\Generated_Source\PSoC5/UART_TF_PM.c **** *  Restores the current user configuration.
  96:.\Generated_Source\PSoC5/UART_TF_PM.c **** *
  97:.\Generated_Source\PSoC5/UART_TF_PM.c **** * Parameters:
  98:.\Generated_Source\PSoC5/UART_TF_PM.c **** *  None.
  99:.\Generated_Source\PSoC5/UART_TF_PM.c **** *
 100:.\Generated_Source\PSoC5/UART_TF_PM.c **** * Return:
 101:.\Generated_Source\PSoC5/UART_TF_PM.c **** *  None.
 102:.\Generated_Source\PSoC5/UART_TF_PM.c **** *
 103:.\Generated_Source\PSoC5/UART_TF_PM.c **** * Global Variables:
 104:.\Generated_Source\PSoC5/UART_TF_PM.c **** *  UART_TF_backup - used when non-retention registers are restored.
 105:.\Generated_Source\PSoC5/UART_TF_PM.c **** *
 106:.\Generated_Source\PSoC5/UART_TF_PM.c **** * Reentrant:
 107:.\Generated_Source\PSoC5/UART_TF_PM.c **** *  No.
 108:.\Generated_Source\PSoC5/UART_TF_PM.c **** *
 109:.\Generated_Source\PSoC5/UART_TF_PM.c **** *******************************************************************************/
 110:.\Generated_Source\PSoC5/UART_TF_PM.c **** void UART_TF_RestoreConfig(void)
 111:.\Generated_Source\PSoC5/UART_TF_PM.c **** {
  79              		.loc 1 111 0
  80              		.cfi_startproc
  81              		@ args = 0, pretend = 0, frame = 0
  82              		@ frame_needed = 1, uses_anonymous_args = 0
  83              		@ link register save eliminated.
  84 0000 80B4     		push	{r7}
  85              	.LCFI2:
  86              		.cfi_def_cfa_offset 4
  87 0002 00AF     		add	r7, sp, #0
  88              		.cfi_offset 7, -4
  89              	.LCFI3:
  90              		.cfi_def_cfa_register 7
 112:.\Generated_Source\PSoC5/UART_TF_PM.c **** 
 113:.\Generated_Source\PSoC5/UART_TF_PM.c ****     #if (CY_UDB_V0)
 114:.\Generated_Source\PSoC5/UART_TF_PM.c **** 
 115:.\Generated_Source\PSoC5/UART_TF_PM.c ****         #if(UART_TF_CONTROL_REG_REMOVED == 0u)
 116:.\Generated_Source\PSoC5/UART_TF_PM.c ****             UART_TF_CONTROL_REG = UART_TF_backup.cr;
 117:.\Generated_Source\PSoC5/UART_TF_PM.c ****         #endif /* End UART_TF_CONTROL_REG_REMOVED */
 118:.\Generated_Source\PSoC5/UART_TF_PM.c **** 
 119:.\Generated_Source\PSoC5/UART_TF_PM.c ****         #if( (UART_TF_RX_ENABLED) || (UART_TF_HD_ENABLED) )
 120:.\Generated_Source\PSoC5/UART_TF_PM.c ****             UART_TF_RXBITCTR_PERIOD_REG = UART_TF_backup.rx_period;
  91              		.loc 1 120 0
  92 0004 46F28943 		movw	r3, #:lower16:1073767561
  93 0008 C4F20003 		movt	r3, #:upper16:1073767561
  94 000c 40F20002 		movw	r2, #:lower16:UART_TF_backup
  95 0010 C0F20002 		movt	r2, #:upper16:UART_TF_backup
  96 0014 5278     		ldrb	r2, [r2, #1]	@ zero_extendqisi2
  97 0016 1A70     		strb	r2, [r3, #0]
 121:.\Generated_Source\PSoC5/UART_TF_PM.c ****             UART_TF_RXSTATUS_MASK_REG = UART_TF_backup.rx_mask;
  98              		.loc 1 121 0
  99 0018 46F28953 		movw	r3, #:lower16:1073767817
 100 001c C4F20003 		movt	r3, #:upper16:1073767817
 101 0020 40F20002 		movw	r2, #:lower16:UART_TF_backup
 102 0024 C0F20002 		movt	r2, #:upper16:UART_TF_backup
 103 0028 9278     		ldrb	r2, [r2, #2]	@ zero_extendqisi2
ARM GAS  C:\Users\SUZUKI~1\AppData\Local\Temp\ccNeYqdh.s 			page 5


 104 002a 1A70     		strb	r2, [r3, #0]
 122:.\Generated_Source\PSoC5/UART_TF_PM.c ****             #if (UART_TF_RXHW_ADDRESS_ENABLED)
 123:.\Generated_Source\PSoC5/UART_TF_PM.c ****                 UART_TF_RXADDRESS1_REG = UART_TF_backup.rx_addr1;
 124:.\Generated_Source\PSoC5/UART_TF_PM.c ****                 UART_TF_RXADDRESS2_REG = UART_TF_backup.rx_addr2;
 125:.\Generated_Source\PSoC5/UART_TF_PM.c ****             #endif /* End UART_TF_RXHW_ADDRESS_ENABLED */
 126:.\Generated_Source\PSoC5/UART_TF_PM.c ****         #endif  /* End (UART_TF_RX_ENABLED) || (UART_TF_HD_ENABLED) */
 127:.\Generated_Source\PSoC5/UART_TF_PM.c **** 
 128:.\Generated_Source\PSoC5/UART_TF_PM.c ****         #if(UART_TF_TX_ENABLED)
 129:.\Generated_Source\PSoC5/UART_TF_PM.c ****             #if(UART_TF_TXCLKGEN_DP)
 130:.\Generated_Source\PSoC5/UART_TF_PM.c ****                 UART_TF_TXBITCLKGEN_CTR_REG = UART_TF_backup.tx_clk_ctr;
 131:.\Generated_Source\PSoC5/UART_TF_PM.c ****                 UART_TF_TXBITCLKTX_COMPLETE_REG = UART_TF_backup.tx_clk_compl;
 132:.\Generated_Source\PSoC5/UART_TF_PM.c ****             #else
 133:.\Generated_Source\PSoC5/UART_TF_PM.c ****                 UART_TF_TXBITCTR_PERIOD_REG = UART_TF_backup.tx_period;
 134:.\Generated_Source\PSoC5/UART_TF_PM.c ****             #endif /*End UART_TF_TXCLKGEN_DP */
 135:.\Generated_Source\PSoC5/UART_TF_PM.c ****             UART_TF_TXSTATUS_MASK_REG = UART_TF_backup.tx_mask;
 136:.\Generated_Source\PSoC5/UART_TF_PM.c ****         #endif /*End UART_TF_TX_ENABLED */
 137:.\Generated_Source\PSoC5/UART_TF_PM.c **** 
 138:.\Generated_Source\PSoC5/UART_TF_PM.c ****     #else /* CY_UDB_V1 */
 139:.\Generated_Source\PSoC5/UART_TF_PM.c **** 
 140:.\Generated_Source\PSoC5/UART_TF_PM.c ****         #if(UART_TF_CONTROL_REG_REMOVED == 0u)
 141:.\Generated_Source\PSoC5/UART_TF_PM.c ****             UART_TF_CONTROL_REG = UART_TF_backup.cr;
 142:.\Generated_Source\PSoC5/UART_TF_PM.c ****         #endif /* End UART_TF_CONTROL_REG_REMOVED */
 143:.\Generated_Source\PSoC5/UART_TF_PM.c **** 
 144:.\Generated_Source\PSoC5/UART_TF_PM.c ****     #endif  /* End CY_UDB_V0 */
 145:.\Generated_Source\PSoC5/UART_TF_PM.c **** }
 105              		.loc 1 145 0
 106 002c BD46     		mov	sp, r7
 107 002e 80BC     		pop	{r7}
 108 0030 7047     		bx	lr
 109              		.cfi_endproc
 110              	.LFE1:
 111              		.size	UART_TF_RestoreConfig, .-UART_TF_RestoreConfig
 112 0032 00BF     		.section	.text.UART_TF_Sleep,"ax",%progbits
 113              		.align	2
 114              		.global	UART_TF_Sleep
 115              		.thumb
 116              		.thumb_func
 117              		.type	UART_TF_Sleep, %function
 118              	UART_TF_Sleep:
 119              	.LFB2:
 146:.\Generated_Source\PSoC5/UART_TF_PM.c **** 
 147:.\Generated_Source\PSoC5/UART_TF_PM.c **** 
 148:.\Generated_Source\PSoC5/UART_TF_PM.c **** /*******************************************************************************
 149:.\Generated_Source\PSoC5/UART_TF_PM.c **** * Function Name: UART_TF_Sleep
 150:.\Generated_Source\PSoC5/UART_TF_PM.c **** ********************************************************************************
 151:.\Generated_Source\PSoC5/UART_TF_PM.c **** *
 152:.\Generated_Source\PSoC5/UART_TF_PM.c **** * Summary:
 153:.\Generated_Source\PSoC5/UART_TF_PM.c **** *  Stops and saves the user configuration. Should be called
 154:.\Generated_Source\PSoC5/UART_TF_PM.c **** *  just prior to entering sleep.
 155:.\Generated_Source\PSoC5/UART_TF_PM.c **** *
 156:.\Generated_Source\PSoC5/UART_TF_PM.c **** *
 157:.\Generated_Source\PSoC5/UART_TF_PM.c **** * Parameters:
 158:.\Generated_Source\PSoC5/UART_TF_PM.c **** *  None.
 159:.\Generated_Source\PSoC5/UART_TF_PM.c **** *
 160:.\Generated_Source\PSoC5/UART_TF_PM.c **** * Return:
 161:.\Generated_Source\PSoC5/UART_TF_PM.c **** *  None.
 162:.\Generated_Source\PSoC5/UART_TF_PM.c **** *
ARM GAS  C:\Users\SUZUKI~1\AppData\Local\Temp\ccNeYqdh.s 			page 6


 163:.\Generated_Source\PSoC5/UART_TF_PM.c **** * Global Variables:
 164:.\Generated_Source\PSoC5/UART_TF_PM.c **** *  UART_TF_backup - modified when non-retention registers are saved.
 165:.\Generated_Source\PSoC5/UART_TF_PM.c **** *
 166:.\Generated_Source\PSoC5/UART_TF_PM.c **** * Reentrant:
 167:.\Generated_Source\PSoC5/UART_TF_PM.c **** *  No.
 168:.\Generated_Source\PSoC5/UART_TF_PM.c **** *
 169:.\Generated_Source\PSoC5/UART_TF_PM.c **** *******************************************************************************/
 170:.\Generated_Source\PSoC5/UART_TF_PM.c **** void UART_TF_Sleep(void)
 171:.\Generated_Source\PSoC5/UART_TF_PM.c **** {
 120              		.loc 1 171 0
 121              		.cfi_startproc
 122              		@ args = 0, pretend = 0, frame = 0
 123              		@ frame_needed = 1, uses_anonymous_args = 0
 124 0000 80B5     		push	{r7, lr}
 125              	.LCFI4:
 126              		.cfi_def_cfa_offset 8
 127 0002 00AF     		add	r7, sp, #0
 128              		.cfi_offset 14, -4
 129              		.cfi_offset 7, -8
 130              	.LCFI5:
 131              		.cfi_def_cfa_register 7
 172:.\Generated_Source\PSoC5/UART_TF_PM.c **** 
 173:.\Generated_Source\PSoC5/UART_TF_PM.c ****     #if(UART_TF_RX_ENABLED || UART_TF_HD_ENABLED)
 174:.\Generated_Source\PSoC5/UART_TF_PM.c ****         if((UART_TF_RXSTATUS_ACTL_REG  & UART_TF_INT_ENABLE) != 0u)
 132              		.loc 1 174 0
 133 0004 46F29953 		movw	r3, #:lower16:1073767833
 134 0008 C4F20003 		movt	r3, #:upper16:1073767833
 135 000c 1B78     		ldrb	r3, [r3, #0]
 136 000e DBB2     		uxtb	r3, r3
 137 0010 03F01003 		and	r3, r3, #16
 138 0014 002B     		cmp	r3, #0
 139 0016 07D0     		beq	.L6
 175:.\Generated_Source\PSoC5/UART_TF_PM.c ****         {
 176:.\Generated_Source\PSoC5/UART_TF_PM.c ****             UART_TF_backup.enableState = 1u;
 140              		.loc 1 176 0
 141 0018 40F20003 		movw	r3, #:lower16:UART_TF_backup
 142 001c C0F20003 		movt	r3, #:upper16:UART_TF_backup
 143 0020 4FF00102 		mov	r2, #1
 144 0024 1A70     		strb	r2, [r3, #0]
 145 0026 06E0     		b	.L7
 146              	.L6:
 177:.\Generated_Source\PSoC5/UART_TF_PM.c ****         }
 178:.\Generated_Source\PSoC5/UART_TF_PM.c ****         else
 179:.\Generated_Source\PSoC5/UART_TF_PM.c ****         {
 180:.\Generated_Source\PSoC5/UART_TF_PM.c ****             UART_TF_backup.enableState = 0u;
 147              		.loc 1 180 0
 148 0028 40F20003 		movw	r3, #:lower16:UART_TF_backup
 149 002c C0F20003 		movt	r3, #:upper16:UART_TF_backup
 150 0030 4FF00002 		mov	r2, #0
 151 0034 1A70     		strb	r2, [r3, #0]
 152              	.L7:
 181:.\Generated_Source\PSoC5/UART_TF_PM.c ****         }
 182:.\Generated_Source\PSoC5/UART_TF_PM.c ****     #else
 183:.\Generated_Source\PSoC5/UART_TF_PM.c ****         if((UART_TF_TXSTATUS_ACTL_REG  & UART_TF_INT_ENABLE) !=0u)
 184:.\Generated_Source\PSoC5/UART_TF_PM.c ****         {
 185:.\Generated_Source\PSoC5/UART_TF_PM.c ****             UART_TF_backup.enableState = 1u;
 186:.\Generated_Source\PSoC5/UART_TF_PM.c ****         }
ARM GAS  C:\Users\SUZUKI~1\AppData\Local\Temp\ccNeYqdh.s 			page 7


 187:.\Generated_Source\PSoC5/UART_TF_PM.c ****         else
 188:.\Generated_Source\PSoC5/UART_TF_PM.c ****         {
 189:.\Generated_Source\PSoC5/UART_TF_PM.c ****             UART_TF_backup.enableState = 0u;
 190:.\Generated_Source\PSoC5/UART_TF_PM.c ****         }
 191:.\Generated_Source\PSoC5/UART_TF_PM.c ****     #endif /* End UART_TF_RX_ENABLED || UART_TF_HD_ENABLED*/
 192:.\Generated_Source\PSoC5/UART_TF_PM.c **** 
 193:.\Generated_Source\PSoC5/UART_TF_PM.c ****     UART_TF_Stop();
 153              		.loc 1 193 0
 154 0036 FFF7FEFF 		bl	UART_TF_Stop
 194:.\Generated_Source\PSoC5/UART_TF_PM.c ****     UART_TF_SaveConfig();
 155              		.loc 1 194 0
 156 003a FFF7FEFF 		bl	UART_TF_SaveConfig
 195:.\Generated_Source\PSoC5/UART_TF_PM.c **** }
 157              		.loc 1 195 0
 158 003e 80BD     		pop	{r7, pc}
 159              		.cfi_endproc
 160              	.LFE2:
 161              		.size	UART_TF_Sleep, .-UART_TF_Sleep
 162              		.section	.text.UART_TF_Wakeup,"ax",%progbits
 163              		.align	2
 164              		.global	UART_TF_Wakeup
 165              		.thumb
 166              		.thumb_func
 167              		.type	UART_TF_Wakeup, %function
 168              	UART_TF_Wakeup:
 169              	.LFB3:
 196:.\Generated_Source\PSoC5/UART_TF_PM.c **** 
 197:.\Generated_Source\PSoC5/UART_TF_PM.c **** 
 198:.\Generated_Source\PSoC5/UART_TF_PM.c **** /*******************************************************************************
 199:.\Generated_Source\PSoC5/UART_TF_PM.c **** * Function Name: UART_TF_Wakeup
 200:.\Generated_Source\PSoC5/UART_TF_PM.c **** ********************************************************************************
 201:.\Generated_Source\PSoC5/UART_TF_PM.c **** *
 202:.\Generated_Source\PSoC5/UART_TF_PM.c **** * Summary:
 203:.\Generated_Source\PSoC5/UART_TF_PM.c **** *  Restores and enables the user configuration. Should be called
 204:.\Generated_Source\PSoC5/UART_TF_PM.c **** *  just after awaking from sleep.
 205:.\Generated_Source\PSoC5/UART_TF_PM.c **** *
 206:.\Generated_Source\PSoC5/UART_TF_PM.c **** * Parameters:
 207:.\Generated_Source\PSoC5/UART_TF_PM.c **** *  None.
 208:.\Generated_Source\PSoC5/UART_TF_PM.c **** *
 209:.\Generated_Source\PSoC5/UART_TF_PM.c **** * Return:
 210:.\Generated_Source\PSoC5/UART_TF_PM.c **** *  None.
 211:.\Generated_Source\PSoC5/UART_TF_PM.c **** *
 212:.\Generated_Source\PSoC5/UART_TF_PM.c **** * Global Variables:
 213:.\Generated_Source\PSoC5/UART_TF_PM.c **** *  UART_TF_backup - used when non-retention registers are restored.
 214:.\Generated_Source\PSoC5/UART_TF_PM.c **** *
 215:.\Generated_Source\PSoC5/UART_TF_PM.c **** * Reentrant:
 216:.\Generated_Source\PSoC5/UART_TF_PM.c **** *  No.
 217:.\Generated_Source\PSoC5/UART_TF_PM.c **** *
 218:.\Generated_Source\PSoC5/UART_TF_PM.c **** *******************************************************************************/
 219:.\Generated_Source\PSoC5/UART_TF_PM.c **** void UART_TF_Wakeup(void)
 220:.\Generated_Source\PSoC5/UART_TF_PM.c **** {
 170              		.loc 1 220 0
 171              		.cfi_startproc
 172              		@ args = 0, pretend = 0, frame = 0
 173              		@ frame_needed = 1, uses_anonymous_args = 0
 174 0000 80B5     		push	{r7, lr}
 175              	.LCFI6:
ARM GAS  C:\Users\SUZUKI~1\AppData\Local\Temp\ccNeYqdh.s 			page 8


 176              		.cfi_def_cfa_offset 8
 177 0002 00AF     		add	r7, sp, #0
 178              		.cfi_offset 14, -4
 179              		.cfi_offset 7, -8
 180              	.LCFI7:
 181              		.cfi_def_cfa_register 7
 221:.\Generated_Source\PSoC5/UART_TF_PM.c ****     UART_TF_RestoreConfig();
 182              		.loc 1 221 0
 183 0004 FFF7FEFF 		bl	UART_TF_RestoreConfig
 222:.\Generated_Source\PSoC5/UART_TF_PM.c ****     #if( (UART_TF_RX_ENABLED) || (UART_TF_HD_ENABLED) )
 223:.\Generated_Source\PSoC5/UART_TF_PM.c ****         UART_TF_ClearRxBuffer();
 184              		.loc 1 223 0
 185 0008 FFF7FEFF 		bl	UART_TF_ClearRxBuffer
 224:.\Generated_Source\PSoC5/UART_TF_PM.c ****     #endif /* End (UART_TF_RX_ENABLED) || (UART_TF_HD_ENABLED) */
 225:.\Generated_Source\PSoC5/UART_TF_PM.c ****     #if(UART_TF_TX_ENABLED || UART_TF_HD_ENABLED)
 226:.\Generated_Source\PSoC5/UART_TF_PM.c ****         UART_TF_ClearTxBuffer();
 227:.\Generated_Source\PSoC5/UART_TF_PM.c ****     #endif /* End UART_TF_TX_ENABLED || UART_TF_HD_ENABLED */
 228:.\Generated_Source\PSoC5/UART_TF_PM.c **** 
 229:.\Generated_Source\PSoC5/UART_TF_PM.c ****     if(UART_TF_backup.enableState != 0u)
 186              		.loc 1 229 0
 187 000c 40F20003 		movw	r3, #:lower16:UART_TF_backup
 188 0010 C0F20003 		movt	r3, #:upper16:UART_TF_backup
 189 0014 1B78     		ldrb	r3, [r3, #0]	@ zero_extendqisi2
 190 0016 002B     		cmp	r3, #0
 191 0018 01D0     		beq	.L11
 230:.\Generated_Source\PSoC5/UART_TF_PM.c ****     {
 231:.\Generated_Source\PSoC5/UART_TF_PM.c ****         UART_TF_Enable();
 192              		.loc 1 231 0
 193 001a FFF7FEFF 		bl	UART_TF_Enable
 194              	.L11:
 232:.\Generated_Source\PSoC5/UART_TF_PM.c ****     }
 233:.\Generated_Source\PSoC5/UART_TF_PM.c **** }
 195              		.loc 1 233 0
 196 001e 80BD     		pop	{r7, pc}
 197              		.cfi_endproc
 198              	.LFE3:
 199              		.size	UART_TF_Wakeup, .-UART_TF_Wakeup
 200              		.text
 201              	.Letext0:
